S02A00006275696C642F64656275672F616D617A6F6E5F7369646577616C6B5F736F635F6F6F622E733337D9
S3150800000000100020111200087B8204087B82040875
S315080000107B8204087B8204087B8204087B820408AE
S315080000207B8204087B8204087B82040811C80508C1
S315080000307B8204087B820408A1C7050857F70508D0
S315080000407B8204087B8204087B8204087B8204087E
S315080000507B8204087B8204087B8204087B8204086E
S315080000607B8204087B8204087B8204087B8204085E
S315080000707B8204087B8204087B8204087B8204084E
S315080000807B8204087B8204087B8204087B8204083E
S315080000907B820408F51900087B8204087B82040821
S315080000A07B82040801180008E11700087B8204080F
S315080000B07B820408B9230408652E040803AD0508E5
S315080000C0FFAC0508F525040819AD050807AD0508B0
S315080000D0352E04080BAD0508A52E0408112F0408B3
S315080000E07B8204087B8204087B8204087B820408DE
S315080000F065B004087B8204087B8204087B820408B6
S315080001007B8204087B8204087B8204087B820408BD
S315080001107B8204087B8204087B8204087B820408AD
S315080001207B8204087B820408911701087B820408F5
S315080001307B8204087B8204087B8204087B8204088D
S315080001407B820408815D00087B82040823F7050882
S31508000150C90804087B820408E5AC0508EBAC050869
S315080001607B8204087B8204087B8204087B8204085D
S31508000170F0B5114A114C124E00F00105E3695F070C
S3150800018013D40DB9334213D103EA00078F4207D1BE
S315080001900B4A1A40002A0CBF00206FF00100F0BD80
S315080001A0013AEBD16FF00200F9E74FF0FF30F6E7BE
S315080001B06FF00100F3E700BF809698000000035037
S315080001C00200010070B50B4BD96911F480310DD1CD
S315080001D001244FF48072084E084DF46020462C64C2
S315080001E01A61FFF7C5FF3464EC6070BD6FF001005B
S315080001F0FBE700BF00000350001003500020035027
S315080002004FF4803238B50E4B0E4C9A66E56941F6C6
S31508000210713315400122E3630B4B0021DA60022398
S31508000220606121202361FFF7A3FF10B92120FFF7A2
S315080002309FFF0122054BDA600DB10023E36338BD49
S315080002400090005000000350001003500020035097
S3150800025070B5134C6061E3695B071ED40E4656F809
S31508000260043B8D18A361AE420BD104230021212043
S315080002702361FFF77DFF58B9BDE870402120FFF7DD
S3150800028077BF08210846FFF773FF10B104232361DF
S3150800029070BD56F8043BA361E5E74FF0FF30F7E77A
S315080002A0000003502DE9F84315464FF48032184BE9
S315080002B089469A6603F51C33DF690646174041F6F8
S315080002C07132DA63012203F58053DFF84C80DA6075
S315080002D055B9284601220F4BDA601FB10022A3F553
S315080002E00053DA63BDE8F88306F5005404EA080407
S315080002F0A41BAC4228BF2C46494622463046FFF787
S31508000300A7FF0028E6D12644A1442D1BE0E700BF3D
S31108000310009000500020035000E0FFFFA2
S31508000320013800D0FCE770472DE9F04F93B0CDE9CE
S315080003300A32DDE91C530E9353EC102BCDE9080164
S31508000340104619468DED060B1E9E13F017F980B15F
S31508000350DDE906014FF0FF32C54B13F037F940B916
S31508000360DDE906014FF0FF326FF4801313F010F940
S3150800037070B1DDE908019DED060B0E9B1E96CDE9D1
S315080003801C53DDE90A3213B0BDE8F04F00F088B916
S315080003900022DDE90601002313F0FAF8002800F030
S315080003A03381DDE906A303F1004BCBF30A5016F4BB
S315080003B08063A0F2FF3008BF06250F9312F00CFEEB
S315080003C09BA3D3E9002312F071FE9BA3D3E9002374
S315080003D012F0B6FCCBF31304894644F07F518046ED
S315080003E00022A44B504641F4401112F0A7FC94A3F6
S315080003F0D3E9002312F05AFE02460B464046494608
S3150800040012F09EFC13F0ECF8044612F0E5FD8EA3FC
S31508000410D3E900238046894612F048FE0022964B0F
S3150800042012F08EFC13F0DCF889A3D3E90023074603
S315080004304946404612F03AFE80463846894612F04A
S31508000440CBFD85A3D3E9002312F030FE02460B4606
S315080004504046494612F072FC02460B46CDE90C238B
S3150800046012F024FEDDE90C2380468946104619461B
S3150800047012F066FC0022CDE91001804B4046494641
S3150800048012F03EFF00227E4B12F05AFC02460B4643
S315080004904046494612F034FF00227A4B12F050FCCF
S315080004A002460B464046494612F02AFFDDE90C2370
S315080004B08046894600204FF0804112F03FFC0246F4
S315080004C00B464046494612F03BFC02460B46DDE920
S315080004D0100112F015FF07F2FF3700226A4B12F0DF
S315080004E02FFC00223B0512F0E1FD52465B46804692
S315080004F0894613F06BF8002840F08980CDE90C890D
S3150800050004F16303C72B34BF0427052731051BD520
S3150800051053A3D3E900235046594613F04DF8002853
S315080005207FD051A3D3E900235046594613F030F83B
S31508000530002876D00027A542C6BF2C1B04F1FF353C
S3150800054000253C4646F480660E9B9F422CBF4FF022
S315080005500008A3EB070816F0020903D0002F18BFFE
S315080005604FF000083CB1DDE90C235046594612F01D
S31508000570C7FE82468B46DDE906010022002313F0FA
S3150800058007F810B10BF100439B46DDE9080126F494
S315080005900063CDE90183DDE90A324BEC10AB009527
S315080005A000F07EF802465FB3DDE9091316F0200F66
S315080005B000F10105089E0CBF65204520B047DDE91E
S315080005C008010523002205930A23002CCDE90232EF
S315080005D007F1FF374FEAD473B8BF64422A4601933E
S315080005E004970A9B00944CF05CFA0246B9F1000F96
S315080005F006D00B9BC41A0B9B1A190E9BA34245D80F
S31508000600104613B0BDE8F08FDDE906ABCDE6002253
S31508000610404649461A4B12F073FE013CCDE90C01DF
S315080006206EE7002D90D00F9B002B8DD0013D8BE7F8
S31508000630FB799F501344D33FB3C8608B288AC63FC3
S3150800064061436F63A787D23F71A379094F930A4025
S315080006501655B5BBB16B0240EF39FAFE422EE63F9E
S315080006602D431CEBE2361A3F0000000080842E4121
S31508000670FFFFEF7F0000F83F0000E03F00002C403E
S3150800068000002440000018400000F03F2020DDE96B
S315080006900913089DA8470134ADE700BF0000000014
S315080006A02DE9F04F5BEC10AB97B0CDE90501DDE91C
S315080006B02057CDE90723504652465B465946229EA7
S315080006C012F05CFF70B90323CDE902760193B04BB3
S315080006D00093DDE90501DDE907234CF002F917B0BF
S315080006E0BDE8F08F4FF0FF326FF48013504659463D
S315080006F012F04EFF28B10423CDE902760193A54BEB
S31508000700E6E74FF0FF3250465946A34B12F05EFF1C
S3150800071068B1A24A06F00403002B08BF0322A04BC7
S315080007201CBF13460422CDE902760192D0E7504653
S3150800073093A3D3E90023594612F048FF38B992A388
S31508000740D3E900235046594612F022FF68B1DDE985
S315080007500723DDE905014BEC10ABCDE921762095A1
S3150800076017B0BDE8F04FFFF7DFBD00220023504663
S31508000770594612F00DFF002800F09A805B46524653
S315080007800020002112F0DAFA012382468B460993EB
S3150800079016F4806400F08E80092D40F28E800024C5
S315080007A030210EABA5F109020134202C03F8011BF8
S315080007B0A5EB040901D09442F6D15946504612F0E9
S315080007C00FFF784B054603EBC90393ED007B8DEDD0
S315080007D00A7B12F001FC02460B465046594612F0B7
S315080007E0ADFADDE90A2312F061FC02460B46CDE9B3
S315080007F00C2312F01DFF804612F0DEFB02460B4664
S31508000800DDE90C0112F09AFA02460B46CDE90C23F3
S315080008100022654B12F0DAFE002851D008F10108D3
S31508000820404612F0C9FB02460B46DDE90A0112F002
S31508000830B9FE10B14FF000080135B9F1000F50D1DB
S31508000840284612F0C9FB02460B465046594612F096
S3150800085075FA0022544B8046894612F099FE30B14B
S31508000860002240464946504B12F0B0FE10B1E80748
S3150800087000D501350A210EAB1A19202C0AD095FB92
S31508000880F1F001FB1055303502F8015B01340546DD
S315080008900028F2D106F00302012A57D1002F55D0BD
S315080008A0099A12B916F00C0F00D0013F302245E024
S315080008B009906DE74FF006097FE7A94600247CE713
S315080008C00022DDE90C01384B12F062FE0028B4D193
S315080008D0B8F1000F02D018F0010FAED008F10108E8
S315080008E0ABE70A210EAB2344202C0ED0B8FBF1F05F
S315080008F001FB1082B8F1090F02F1300209F1FF3944
S3150800090004F1010403F8012B11D83021A1440EAAE1
S31508000910202CAFD0A14504F101030AD11C4609F1E8
S3150800092058030DEB03092E2309F8203CA2E780465D
S31508000930DAE7A1541C46EBE71A550134A74205D954
S31508000940202CF9D1CDE902760194C1E6202CF9D004
S31508000950099A3AB12D2104F158026A4402F8201C7A
S315080009600134EFE7710704D504F158022B216A44D4
S31508000970F4E73207E6D504F1580220216A44EDE788
S315080009800000000065CDCD410000000065CDCDC159
S315080009906D1F0608711F0608FFFFEF7F641F060814
S315080009A0691F0608781F06080000E03F00000000DF
S315080009B010B51D4C002021465EF0A2FD18B1462058
S315080009C01A494CF03DFE2368194AB3FBF2F323603B
S315080009D0206812F0F1FA10A3D3E9002312F066FB9F
S315080009E00FA3D3E9002312F0ABF912F021FE114B45
S315080009F0114A1860D2F8FC3043F08073C2F8FC3014
S31508000A004FF060430D4AC3F8B02F0D4A136843F000
S31508000A100103136010BD00BFEC51B81E85EBE93F1A
S31508000A20F6285C8FC2F51C40CC6400209834060872
S31508000A3040420F00C864002000ED00E055CEACC56A
S31508000A40001000E00000000070B590B004460D46A6
S31508000A504FF0C5FE002848D01422002109A84DF001
S31508000A60BAF9D4E907014FF6FF73ADF8263010AB93
S31508000A7003E903008DF8255020F098FA0026A063B4
S31508000A80059003AA012001A9CDE90666CDE901660C
S31508000A90CDE90366089614F08BFD054638B306962D
S31508000AA0ADF81C6043F6FF7303208DF8200005A9F6
S31508000AB009A8ADF81E3024F067FA10B9012384F8A6
S31508000AC04430636B5A1C4FF6FF7218BF01336363D9
S31508000AD0B4F84C3093421CBF01339BB2A4F84C3097
S31508000AE094F84130013384F8413010B070BD019B51
S31508000AF002990693C80319A3D3E90023490C12F0F7
S31508000B00B7FD16A3D3E900230499ADF81C00C80362
S31508000B10490C12F0ADFD039B00EBC333B3F5804FD0
S31508000B200DD30B4A93420DD90A4A93420DD90A4A64
S31508000B309342B7D803200D22D3409BB2B5E7284687
S31508000B402A46F9E701200522F6E702200A22F3E7FA
S31508000B50E0FF070000FCFF0000E0FF0700CA9A3B21
S31508000B600000000000000000002370B5424C054656
S31508000B708AB0E36318B10088236032F067FB32F06D
S31508000B80D5FC3E4859F0B7FA3D4E3E4B30463360E9
S31508000B903D4B73602DF004FE0021304638F0B0FF5F
S31508000BA033A3D3E90023A062C4E9062355F03AFE2D
S31508000BB0D4E9062319431043C4E90601CDE9000127
S31508000BC04FF0FF334FF0FF32A06A59F057FB02226D
S31508000BD04FF0FF31A06A59F06BFB012032F0BAF8EA
S31508000BE04FF4007300222949A06A59F0FCFCB0F5BD
S31508000BF0007F39D100239422079309933C23CDE93A
S31508000C0003320593962306935023A06A03A90893F3
S31508000C1039F060FB35B3287C32F09AFC0546F0B90A
S31508000C20A06A59F0A1FD32F021FD32F075F820B125
S31508000C304FF48070002130F023F832F07DF820B1AF
S31508000C404FF40060002130F01BF855F0B3FE012088
S31508000C5059F0E9F80E4A0F49A06A55F0D7FD28461B
S31508000C600AB070BDFF20D7E70725F8E7AFF3008085
S31508000C700DD501552000000008170020690345EC32
S31508000C80F89A00208D2B0308089B0020F89800206E
S31508000C90B5670508F56705080348044B834202D083
S31508000CA0034B03B118477047586B0120586B012056
S31508000CB000000000064B0749C91A891048BF0131D0
S31508000CC0491003D0044B0BB101481847704700BFC1
S31508000CD0586B0120586B01200000000010B5064C27
S31508000CE0237843B9FFF7D8FF044B13B10448AFF391
S31508000CF000800123237010BD28A3002000000000F7
S31508000D0014E5060808B5054B1BB105490548AFF3B8
S31508000D100080BDE80840FFF7CDBF00BF0000000017
S31508000D20C81C002014E50608A3F5803A704700BFE2
S31508000D30174B002B08BF134B9D46FFF7F5FF002105
S31508000D408B460F461348144A121A4DF044F80E4BB8
S31508000D50002B00D098470D4B002B00D09847002059
S31508000D60002104000D000D48002802D00C48AFF3FE
S31508000D70008013F085F8200029004CF045F812F0A1
S31508000D8025FE00BF0000080000000000000000006B
S31508000D9000100020001000204C4801200000000030
S31508000DA00000000008B504484AF050F94BF0B8FFB7
S31508000DB0BDE8084000F052B99C1C060801484AF0F4
S31508000DC045B900BF9C1C06082DE9F04304468BB0C4
S31508000DD0234E03AD884617460FCE0FC596E8070083
S31508000DE085E807001F4EA389D6F82057ADF80430CA
S31508000DF023891D48ADF80830D4F800904AF026F942
S31508000E0060684AF023F9042100220DEB010000F086
S31508000E1063FB0022042102A800F05EFB012348467A
S31508000E2003A98DF81A30CDF81480ADF81C7004F0BB
S31508000E30F9FA0020627A237A05F0040543EA0243A8
S31508000E40C6F83837627B237B45F0180543EA024328
S31508000E50C6F83437C6F820570BB0BDE8F08300BF94
S31508000E606802060800C003509C1C060807B5054B17
S31508000E7001A81B88ADF8043000F0B0FB03B05DF89C
S31508000E8004FB00BF8402060813B504465CF0C0FCE8
S31508000E9000230122217BCDE900324900B0FBF1F1A4
S31508000EA0024A03485EF0BAFB02B010BD6D0E000898
S31508000EB0F41C002037B504460F4B01A85B880F4D7C
S31508000EC0ADF8043000F03AFB607B09F08DFA042394
S31508000ED002220DF106012846ADF8063047F00DF955
S31508000EE0284647F024F9A07B09F07EFA01A800F00D
S31508000EF04DFB002003B030BD84020608044A0120D9
S31508000F0073B50646154C164863883546ADF8003065
S31508000F104AF09CF8B16800221248FFF755FF0022F4
S31508000F200421684600F0D8FA042123880E4C0DEBFC
S31508000F3001000022ADF8043000F0CEFA0FCD0FC440
S31508000F4001222B6830462360084B1A70FFF79CFF76
S31508000F503046FFF7AFFF002002B070BD84020608D6
S31508000F609C1C0608044A0120E01C002029A3002036
S31508000F702DE9F74F144605469846284B06885B88A0
S31508000F800134ADF80430037901A85E430F46A4B2D4
S31508000F9000F0D4FA687B09F027FA230243F001032C
S31508000FA002221F480DF10601ADF806304FF0000B7E
S31508000FB047F0A3F801342402DFF86490F610A4B2CF
S31508000FC008F1FF3AC3450FD1154847F0B0F8A87B9A
S31508000FD009F00AFA01A800F0D9FA114847F0ACF866
S31508000FE0002003B0BDE8F08F39463246484647F040
S31508000FF084F8DA450CBF4FF6FF7344F0FF0302226C
S3150800100048460DF1060104F58074ADF806303744FC
S3150800101047F073F80BF1010BA4B2D3E78402060874
S31508001020044A0120034B04481B78002B08BF002004
S31508001030704700BF29A30020E01C002030B5064DEC
S3150800104087B001AC0FCD0FC42B6801A82360FFF74A
S3150800105057FF07B030BD00BF880206082DE9F04FDC
S31508001060544E97B0354609AC0FCD0FC42B6806F120
S31508001070140523600EAC0FCD0FC495E80F00DFF8FA
S315080010804C8184E80F004C4849F0E0FF404649F09F
S31508001090DDFF4FF48073494FADF83C30484B384676
S315080010A00B9309A90EAB0D9303F0C4FD0421B6F802
S315080010B034B00DEB01000122ADF804B000F00CFAD3
S315080010C0B6F836A00022012102A8ADF808A000F063
S315080010D003FAB6F838900122042103A8ADF80C905B
S315080010E000F0FAF9758F0122042104A8354CADF8F1
S315080010F0105000F0F1F9344B4FF44870C4F8C83476
S315080011004FF00213C4F8C434A3F58033C4F8CC34C2
S315080011101C23C4F8B43409F067F908A8ADF82050C0
S3150800112000F034FA142009F05FF908A8ADF8205049
S3150800113000F004FA232009F057F908A8ADF8205062
S3150800114000F024FAB921384647F0F3FF08A8ADF8AD
S31508001150205000F0F3F9002205A81146ADF814B0A6
S3150800116000F0BAF9002206A81146ADF818A000F05A
S31508001170B3F90122002107A8ADF81C9000F0ACF9DC
S315080011800122002108A8ADF8205000F0A5F938463C
S3150800119003F0B0FC00234046C4F8B434C4F8C8349D
S315080011A0C4F8C434C4F8CC3449F053FF17B0BDE8CA
S315080011B0F08F00BF9C0206089C1C060800000A5017
S315080011C0E070720000C0035002000300A01C06086D
S315080011D0BFF34F8F0549064BCA6802F4E062134312
S315080011E0CB60BFF34F8F00BFFDE700BF00ED00E007
S315080011F00400FA050348044A0449121A921047F0F3
S315080012003DB800BF700100081C0300084C480120C7
S3150800121008B500F02FF8FFF7EDFF124B12498B4285
S3150800122012D30020114B12498B4218D3FFF780FDC9
S31508001230186850F82240586840F8224001329868E9
S315080012408242F5D30C33EAE70022F8E71C6844F833
S31508001250220001325C68A242F8D30833E4E7002290
S31508001260F8E700BF1CE5060828E5060828E506088D
S3150800127028E506084FF4804170B5124B124A134D03
S315080012809A60D3F8882005F5005442F47002C3F832
S3150800129088200F4A91664FF0FF3222660D4A626631
S315080012A00222C3F8D020BFF34F8FBFF36F8F4FF4DE
S315080012B04036002008F04CFB0020E66008F01EFBD4
S315080012C02E6170BD00ED00E00000000800800044BB
S315080012D000900050F7FF3700014B1860704700BFB9
S315080012E0184A0120054B1860054B1B6F03F00703CE
S315080012F0032B01D15BF0CEBA704700BF204A01200C
S315080013000080005030B5056887B0AB880446184899
S31508001310ADF80C3049F09AFE0022012103A800F02E
S31508001320DBF80DF10B0103A847F060F89DF80B30C8
S3150800133083F001032B70AB79022B15D14FF0FF33E5
S315080013400022CDE9043304A90A4B009403A800F04F
S31508001350F1F9049B009401330CBF04220122054BCA
S3150800136005A903A800F062F9002007B030BD00BF48
S315080013709C1C0608AB820408002307B5294801937C
S3150800138049F064FE4FF44073012204216846ADF823
S31508001390003000F0A1F80122234B0520C3F84424AD
S315080013A001A95EF0ADF8002839D1204BD3F8F0201A
S315080013B042F00102C3F8F020D3F8FC2042F0807214
S315080013C0C3F8FC201A4AA3F55D431A60019B194A23
S315080013D003F5D52303F2FC43B3FBF2F3164A013BAC
S315080013E013610223C2F8F0304FF48073C2F8043355
S315080013F04FF06043114AC3F8B02F114AC3F8802E44
S31508001400D3F8002E42F48072C3F8002EFF2283F828
S315080014102020D3F8002E22F48072C3F8002E03B0E1
S315080014205DF804FB9C1C060800D0035000ED00E0A4
S31508001430FF030040F8590D00000004E055CEACC586
S31508001440090001002DE9F04104460C254FF001087A
S31508001450124E0CB314F001000BD0002024F0010446
S3150800146005FB00625768002FF3D09168C0B2B847F1
S31508001470EFE72246013020284FEA520201D0D3076F
S31508001480F8D508FA00F20F2824EA0204E8D9103839
S3150800149005FB0062B432E5E7BDE8F081141D0020C3
S315080014A008B50C4849F0D2FD192008F035FA28B1DC
S315080014B0192008F04DFA192008F020FA1A2008F029
S315080014C02BFA28B11A2008F043FA1A2008F016FA5F
S315080014D0002008BD9C1C06082DE9F0410E469046E2
S315080014E0054618B30F2923D80378E3B1012B03D097
S315080014F0022B18D0032B1BD13F236A78D340DB0776
S3150800150016D50D4BD3F81043A4B95DF0A1FE0746D6
S3150800151042462846314604F063F938465DF093FEA4
S315080015202046BDE8F08140F2FF33E6E72224F7E7DC
S315080015302124F5E70224F3E700C0035010B504465A
S31508001540E8B10378C3B1012B03D0022B14D0032BC7
S3150800155017D13F236278D340DB0712D55DF078FEBA
S315080015600122637821789A4030235943064B5A5012
S315080015705DF069FE002010BD40F2FF33EAE7222045
S31508001580F9E72120F7E700BF40D0035010B504461D
S31508001590E8B10378C3B1012B03D0022B14D0032B77
S315080015A017D13F236278D340DB0712D55DF050FE92
S315080015B00122637821789A4030235943064B5A50C2
S315080015C05DF041FE002010BD40F2FF33EAE722201D
S315080015D0F9E72120F7E700BF40E0035010B50446BD
S315080015E0E8B10378C3B1012B03D0022B14D0032B27
S315080015F017D13F236278D340DB0712D55DF028FE6A
S315080016000122637821789A4030235943064B5A5071
S315080016105DF019FE002010BD40F2FF33EAE72220F4
S31508001620F9E72120F7E700BF40F003502DE9F04124
S315080016300D46164698460446002855D0002953D02C
S3150800164002784AB1012A46D0022A05D0032A42D096
S31508001650FF2A07D0212045E040F2FF336278D340C5
S31508001660DA07F7D5022E01D9042EF3D15DF0F0FD85
S3150800167023780746FF2B05D032462046296804F012
S31508001680EFF828602B68013309D12378FF2B06D1A0
S31508001690164B6078D3F8241447F0CDFF28602968E4
S315080016A04B1C1BD00C23124A03FB0121C1F80480F2
S315080016B0296803FB0122069B93602378FF2B05D03C
S315080016C001232A6893400B4AC2F8243438465DF051
S315080016D0BAFD002006E03F236278C0E738465DF091
S315080016E0B2FD2D20BDE8F0812220FBE700C00350A3
S315080016F0141D002000D003500F2810B5044613D837
S315080017005DF0A6FD0123094AA340C2F82034C2F8B9
S3150800171024340C22064B02FB04330024C3E901449B
S315080017205DF091FD204610BD2120FCE700E0035046
S31508001730141D00202DE9F0410D4690461F4604462B
S31508001740002846D0002944D0017849B1012937D06C
S31508001750022905D0032933D0FF2907D0212036E0F6
S3150800176040F2FF336278D340DA07F7D55DF070FDB3
S3150800177023780646FF2B05D042462046296804F002
S31508001780F5F8286029684B1C1DD00C23124A03FB68
S315080017900121C1F8B870296803FB0122069BC2F82B
S315080017A0BC302378FF2B06D001232A6810329340D9
S315080017B00A4AC2F8243430465DF045FD002006E0AA
S315080017C03F236278CFE730465DF03DFD2D20BDE82A
S315080017D0F0812220FBE700BF141D002000D0035033
S315080017E008B503F0E3FF054B00F0553020F0502014
S315080017F0C3F82004BDE80840FFF724BE00E0035004
S3150800180008B503F0D3FF054B00F0AA3020F0A0205E
S31508001810C3F82004BDE80840FFF714BE00E00350F3
S3150800182070B503680446B3F1B64F86B049D0264A68
S31508001830934244D10125254849F008FCA388012292
S31508001840ADF80030E3880A216846ADF80430FFF7A2
S3150800185043FE01220A2101A8FFF73EFE0A26684632
S31508001860FFF794FE642008F0BFFD6846FFF766FEA2
S31508001870642008F0B9FD013EF1D10323144A02EBB6
S315080018800511C1F8E834607923794F3543EA0043F6
S31508001890C1F8EC34E179A3792D0143EA01435351A8
S315080018A040F20113ADF80830E36820680493A36892
S315080018B002A90393237C8DF8143003F069FB06B064
S315080018C070BD00250348B7E700800650941C06083B
S315080018D000C00350981C060838B5054603F086FC78
S315080018E0044C012801D1013C00D138BD284603F03B
S315080018F071FBF6E7E193040013B504460A4849F07C
S31508001900A5FBA2780421B2FA82F2237852098DF84F
S31508001910043063780DEB01008DF80530FFF7DCFD28
S31508001920002002B010BD00BF9C1C060838B5124B3B
S3150800193005461B78DBB1E0B15DF08AFC0F4A00234F
S315080019401146147B54B92B6001251A0101EB0313C8
S315080019501D738C505DF077FC204638BD0133082B8B
S3150800196002F11002EDD15DF06EFC0548F5E7054879
S31508001970F3E70548F1E700BF2AA300207C1F0020F3
S31508001980048000F0028000F0018000F0154B13B5CA
S315080019901868002301908DF804305DF059FC124B4D
S315080019A01C7824B15DF04FFC104802B010BD01222E
S315080019B01A705DF048FC0E4B01A81C731C7783F85F
S315080019C02C4083F83C4083F84C4083F85C4083F80D
S315080019D06C4083F87C4008238DF8073003F048FCF8
S315080019E02046E2E7D80206082AA30020038000F072
S315080019F07C1F00202DE9F041174B1F6D5B6D1F40C2
S31508001A0000D5FEE701260025144CDFF8588037423A
S31508001A1018D0C8F850602368A3B1A16828460131D8
S31508001A206268A1609847637B012B0BD150B90C4BB8
S31508001A3003EB45131A7B60F341021A731A7F60F3AE
S31508001A4041021A770135082D4FEA460604F11004BB
S31508001A50DDD1BDE8F08100BF000004507C1F0020E6
S31508001A607C1E0020002004501FB54FF6FF730F2878
S31508001A70ADF80830039009DC00910022084B03A951
S31508001A8002A8FFF7D3FD05B05DF804FB10380390F4
S31508001A9000910022024B03A902A8FFF74BFEF2E7CA
S31508001AA0D78404082DE9F04F144605460E469B4692
S31508001AB0C36B87B001225B6902A960689847EB6B24
S31508001AC001225B6903A93046984702A847F050F9F6
S31508001AD0074648B10023A37563754FF0FF33A3602B
S31508001AE0002007B0BDE8F08F03A847F04EF90123A0
S31508001AF0A375237E04EBC303DE611F846368B342C8
S31508001B000ED1206003A847F062F94FF0FF33207525
S31508001B10A360237D043B022B26D80023A375DFE7A9
S31508001B2023681A1A53425341A37503A847F04FF97D
S31508001B30237D834218BFA77503A847F02AF90746ED
S31508001B4002A847F026F9874218BF002303A818BF42
S31508001B50A37547F026F9074602A847F022F98742F7
S31508001B601CBF0023A375D4E703A847F012F980B178
S31508001B70EB6B022230465B6904A9984704A847F034
S31508001B8017F90346207D032839D8DFE800F03838EE
S31508001B90040903A8F3E7CC22237E04EBC3031A84C3
S31508001BA001F0ACFA109B187003A8277E47F0E5F8F9
S31508001BB004EBC70787F82200237E03A804EBC303B8
S31508001BC0B3F8209093F8227047F0E3F8804603A80C
S31508001BD047F0E7F88246B8F1000F15D0EB6B022202
S31508001BE030465B6904A9984704A847F0A6F86075CB
S31508001BF0637D6BB90023A3754FF0000839E0227E98
S31508001C0004EBC2021384CBE703A847F081F8EEE79A
S31508001C1094F81680B8F1000FEED0B9F1000F09D18B
S31508001C20E7B10123627EE375002A45D19F4219D1A7
S31508001C30677615E06B6C06EB0A025B4286EA0201E0
S31508001C400B421CBF0023A3756B6C591E0A409B1AD6
S31508001C509945CFD8A37D002BE2D1CDE7E37D43B9E3
S31508001C604FF000084B4652463146284646F06BFD73
S31508001C70A060A27D12B123694B4423611349237ED8
S31508001C80097899421ED901332376BBF1000F1BD080
S31508001C90D2B1E37DC3B1B8F1000F15D1032F13D02C
S31508001CA0A1684B1C10D0109B22460093284601239E
S31508001CB0FFF7F8FEA07507E0012FDAD0032F08BF5B
S31508001CC0A376CDE70023A375A07D0AE7FC020608E4
S31508001CD02DE9F04F0E46984600238BB004464FF088
S31508001CE0FF31104617468DF8133001F0F1F9B6F5B5
S31508001CF0801F3BD3B21C53D1E56A6B1C57D12046D3
S31508001D00616A46F066FC0546B31C18BF0123DFF876
S31508001D1010910193636A626C0293236805A902FB1A
S31508001D20053AE36B05225B695046984705A847F0D4
S31508001D30BAF847F0DDF8504647F0E5F84FF0000BE3
S31508001D40824601464B1C05D0636C81EA0A025B4257
S31508001D50134232D02946204646F03BFC029BAB4252
S31508001D604DD0BBF1000F4DD10546D3E7314605AA44
S31508001D7004F1080046F04EFF0146481C10D03846CC
S31508001D8001F0A6F90122394620460DF1130346F063
S31508001D902CFD28B19DF8133088F80030002003E0A8
S31508001DA0237C002BA8D12D200BB0BDE8F08F23682B
S31508001DB0ED1A636CB5FBF3F5A6E7484601F088F91A
S31508001DC00DF1130349462046019A46F00EFD0346D7
S31508001DD090B1B21C03D0D9F80020B2420CD19DF8BC
S31508001DE0132003930D4B88F8002049461A68384695
S31508001DF04BF0FCFF039B9B46D9F80810A2E7BBF102
S31508001E00000FD0D0B6F5801FC8D2314698F80030FA
S31508001E107A6804F1080001F07FF8BFE7F8020608BF
S31508001E20702600202DE9F3410446174698460E46CB
S31508001E30194D816AE36A8B422AD04B1C18E0284662
S31508001E4001F046F90122294620460DF1070346F01E
S31508001E50CCFC30B14346294620469DF80720B847B2
S31508001E60B0B1A9684A1C05D0012E0AD0E36A994286
S31508001E70E5D10DE06968204646F038FC012E01469A
S31508001E80D8D16B6881EA0302636C5B421A42D1D0EF
S31508001E9002B0BDE8F08100BF442600202DE9F041DC
S31508001EA09046036B826B07689A4288BF8363426CCD
S31508001EB0436A90B002FB0377C36B0E46052201A95D
S31508001EC05B6904463846984701A846F0ECFF0128A6
S31508001ED00146307057D0656CE26B2368606AD2F8A9
S31508001EE014C005FB0030052206A9E04706A846F0FF
S31508001EF0DAFF01284FF0000523D0D4E90A32012180
S31508001F009342CDE90B458DF834800E958DF83C103B
S31508001F102AD11946204646F0E9FB236B626C143336
S31508001F209B1AE06223630C9B53B99DF83C303BB186
S31508001F30626A616C2368E06B01FB023146F06BFF55
S31508001F400C9DE36B05225B6901A93846984701A8F1
S31508001F5046F0A9FF30702846236BA26B9A4288BFC9
S31508001F60A36310B0BDE8F081237C33B91C490BAAE2
S31508001F7004F1080001F028F8D5E72046194A0BAB0A
S31508001F80FFF750FFCFE7237C23BB2246164904F10F
S31508001F90080001F019F8616A204646F03BFB616AC1
S31508001FA0421C204646F004FB054620B9236B626CAA
S31508001FB01344143B23632046A16A46F097FB236823
S31508001FC0A062C01A636CB0FBF3F06062204646F06C
S31508001FD0D0FBB6E700232046044AFFF723FFDAE7DB
S31508001FE0B12700082D270008758804080F880408FB
S31508001FF073B50D46D11E4A421C461B7E4A419A427B
S3150800200027D129682368994223D36368994220D83F
S31508002010114E0DF107033246FFF75AFEC8B972682A
S315080020206B689A4215D19DF80730DA1E5342534120
S31508002030227E93420DD1636901336361D4E9032398
S31508002040934206D22968A26842F82310236901330D
S315080020502361012002B070BD9C2600202DE9F04FB7
S315080020609A468BB09DF85030DFF850B10293DBF8F2
S315080020701030804653450D461646C0F09980D14625
S31508002080DBF804300193B9F1000F00F08D80D8F821
S315080020903C3001225B6907A90198984707A846F0D2
S315080020A074FEDBF80030984240F0858007A846F0B9
S315080020B078FE0428074614D107A846F079FE019B46
S315080020C0029A04463B44002A3FD1864212D9144656
S315080020D0361A4046019946F009FBA9EB0409019016
S315080020E0D1E7D8F83C3002225B69019808A99847DD
S315080020F008A8E2E7841B544528BF5446032C03EB83
S315080021000607AAEB040A4FEA94021CD9D8F83C3011
S31508002110294638465B69984724F0030304F003060A
S315080021201F441D44002ED4D0D8F83C3001225B69E8
S3150800213008A9384698473246284608A935444BF038
S3150800214055FE0026C5E72646ECE7074600F00302DB
S31508002150039203442A1804920593049BDD1B059BEE
S31508002160D81B039B9F420FD1002FB2D0D8F83C3022
S31508002170012208A95B6998473A46284608A94BF000
S3150800218000FE78B93D44A4E7D8F83C30012208A9F6
S315080021905B6998470422284608A94BF0F2FD08B95E
S315080021A0043FDAE74FF0360948460BB0BDE8F08F32
S315080021B04FF06309F8E74FF06F09F5E7C8260020E6
S315080021C02DE9F0410F4616469846044688B060B396
S315080021D090F83450FDB1012146F0C0F900210E9B5C
S315080021E0CDE90511CDE902379DF83C30CDF80480DC
S315080021F08DF81C30237C04968BB90D4901AA04F18D
S31508002200080000F0E1FEDDE90553E06B002E08BF8B
S315080022101D4646F03DFB284608B0BDE8F08120463D
S31508002220044A01ABFFF7FEFDEDE70546F3E700BFFD
S315080022303D880408F11F00082DE9F04F99B00F46B4
S3150800224009920A69416C0E931439D31DB3FBF1F355
S31508002250013302EBC302036B04469342C0F00D82BE
S315080022600023DFF820940D93E36A4846194607933E
S3150800227000F02EFFD7E9033604930E9B022B4ED1AE
S31508002280CC2E40F08A81099B002B42D03946204645
S3150800229046F05CFB656C079A6B1E13401490ED1AAA
S315080022A0E36B01225B6916A97868984716A846F079
S315080022B070FD00280CBF04230823782E06933DD909
S315080022C0012300254FF0080A05933B6805990E98E7
S315080022D0C9F80030C9F8106046F07DFD4FEA9A0348
S315080022E010930023DDF81CB089F814000B930F93A4
S315080022F008930C93616C4A1E0BEA02028B1A002E95
S3150800230038D05544AB4240D8236B5B1A1344236339
S31508002310ABE0049B1B68149308230693D0E7656C0F
S31508002320079A6B1E1340782EA5EB030516D8FB7D7E
S315080023307BB9099B002BB3D104230693331DAB420B
S3150800234010D9A6B1082DBBD804250023AA460593A3
S31508002350BBE7099B002BA3D10823EEE7099B002BBB
S315080023609ED1D9E7002505954FF0040AADE7042567
S315080023700596F9E75345C7D3B0460BEB0A03039313
S31508002380089B002B18BF032313E0A3EB0A039E4206
S31508002390B0460BEB0A0228BF98469E420392EFD935
S315080023A00123D9F8102089F81730964271D1C9F857
S315080023B004B0089399F81730002B6CD099F81820B8
S315080023C00899D31C09EBC3030132C3F804B0A3F878
S315080023D00880997289F81820B8F1000F14D00E9B5E
S315080023E0022B5BD10B9B7BB90F9B4344032B0BD969
S315080023F0E36B01229B69039814A9984705460028B0
S3150800240040F03D8101230B93089B16A80193059B79
S31508002410009399F814204346396800F00FFEE36BE1
S3150800242058469B69109A16A99847051E0D9B18BF12
S315080024305B4652460D9359464346204646F083F975
S31508002440236B08F10302A3EB0A0322F003029B1A8B
S31508002450C9F808002363002D40F011810F9BDDF8B1
S315080024600CB04344A6EB08060F935946204646F09F
S315080024703DF900258346002E7FF43CAF814A04F1DE
S31508002480080093685268E36239680E9B00F044FDC1
S31508002490DEE002238DE7C9F804B09DE7099B002B0F
S315080024A030D1049BB8F1030F43440A9327D9DDE9D9
S315080024B00301E36B4FEA98029B6998470546002893
S315080024C065D118F003025FD0049B28F003052B445E
S315080024D00493039B1D444FF0FF33049915A81593E5
S315080024E04BF084FCE36B28469B69012215A99847A3
S315080024F005460A9B0493002D86D0039B99E742461E
S31508002500039DE8E7039B0A9307F120031193FB7DDC
S3150800251078689BB100233D7E0C9AD9B28D4211D9B9
S31508002520119903F1010C31F83310914226D9069915
S3150800253007EBC303D8690A44104403E00C9B069AC8
S3150800254013441844E36B01225B6915A99847159B48
S31508002550012213930C9B0A9804330C93E36B13A97B
S315080025609B699847039B0A9A43449B1A042B054682
S3150800257007D978B9134604330A93C8E76346521A4B
S31508002580CBE70A9B0393B6E70A9B04933CE70A9BAF
S315080025900493B2E70A9B0393AFE7702604F1080396
S315080025A003932368079A606CA2EB030ABAFBF0FA56
S315080025B000FB0A3046F0A7FCE16A8046204646F052
S315080025C095F8A26A82424AD0626CD9F80830511E40
S315080025D00B40216B2568891A0B4423630D9BE06227
S315080025E05D1BB5FBF2F5AA4536D1079BB3EB080A86
S315080025F012D0E36B4FEA9A0241469B699847834695
S31508002600E36A079A5344E362236B03989B1A43448D
S31508002610236346F0D0FADA462368616CE06B01FB67
S31508002620053146F0E5FB204645F0A3FF204646F077
S31508002630A0F82063BAF1000F11D03A69616CD31D76
S315080026401439B3FBF1F3013302EBC3029042A8D26B
S31508002650304619B0BDE8F08F4FF0000ADCE73A695A
S31508002660616CD31D1439B3FBF1F3013302EBC302DA
S31508002670236B9342BFF4F8ADEAE71C26E8E72E463B
S315080026808CE700BF702600202DE9F3471E464369F4
S315080026900446B342884617469DF828903DD3002540
S315080026A08DF80750204645F030FFD4F830A0824513
S315080026B00AD2236AB5EB430F06D2002220460DF153
S315080026C00701FFF7EBFB30B39DF80730012B05D167
S315080026D0002220460DF10701FFF7E0FBB9F1030FD1
S315080026E006D03146204645F0FBFE256B854218D3B9
S315080026F00D4D4FF0FF31284600F0EAFC4B4600220C
S3150800270029462046C5E90376C5F8008002B0BDE82B
S31508002710F047FFF791BD0135C4E7622002B0BDE876
S31508002720F0871C20FAE700BF9C260020032A2DE923
S31508002730F34106460D4617461C4606D1237A012B59
S3150800274023D0012002B0BDE8F081DFF86080096877
S3150800275042460DF10703FFF7BBFA60600028EDD18A
S315080027609DF80720237A032AE8D0D8F804106A6867
S315080027709142E3D1012B2969D4F80CC007D17269BB
S315080027800CEB0103934202D92074207CDAE7083166
S315080027906144E1603B46012229463046FFF74CFD7D
S315080027A060600028CAD00020CCE700BF9C26002025
S315080027B0F7B5089C032A1646256805D1237A012B06
S315080027C022D0012003B0F0BD254F28463A460DF128
S315080027D00703FFF77DFA60600028EFD1D4F800E020
S315080027E07868DEF82810DEF844C04840CCF10003CB
S315080027F01840227AE2D1012A08D1E2683B691344DB
S315080028006A69934202D92074207CDBE7DEF800204F
S31508002810DEF82C30891A9B1AB3FBFCF3B1FBFCF1EA
S315080028208B420DD1696CEB6A4A1E13402A6B521A09
S3150800283013442B6325682846A96A45F057FFE862C2
S315080028403A69E36808321344E360012233460449CF
S315080028502068FFF7F1FC60600028AFD00020B1E7E0
S315080028609C2600202DE9F04F4FF0FF334FF6FF72FC
S315080028700025044600F10806C0E909238BB0C362A7
S315080028800562056330460F4646F095F9204645F041
S3150800289070FE20BB2046394645F0EBFE204645F043
S315080028A068FE20BB5E200BB0BDE8F08FE26B2368A4
S315080028B0606CD2F814C000FB0530052205A9E04774
S315080028C005A846F0F0FA012828D12946204645F001
S315080028D0A1FE421C2946204645F06AFE0135E369F9
S315080028E09D42E3D3204645F044FE0028D2D0002579
S315080028F04FF0FF394FF6FF73CA46A846C4E9085396
S31508002900E369984514D3A5EB0905012D36D84FF68A
S31508002910FF72636A934246D16720C4E746F0EDFA30
S315080029200028DBD02946204645F074FE0246D1E74A
S315080029302368E26B606C576900FB0830052205A91D
S31508002940B84705A846F0AFFA834605A846F082FAC6
S315080029500746584646F0CCFA68B1574538BFC4F81A
S315080029602480B94528BFB946BD4238BF3D46BA4658
S31508002970236A0133236208F10108C1E74FF6FF73A2
S3150800298000256362E3699D42C1D2676C2068E36BE8
S31508002990052207FB05005B6905A9984705A846F0C7
S315080029A059FA0135EEE7E26B676C2068694607FB62
S315080029B0030055690522A847684646F04BFA626A3D
S315080029C02368606C504D00FB023046F09CFA4FF0CD
S315080029D0FF33A062E3622A466FF00101204605AB89
S315080029E0FFF776F900284FD1AD6829462046E562FB
S315080029F045F09BFD206320B92046E16A45F076FE46
S31508002A00E0622946204645F071FE0546A36A9D42C6
S31508002A103CD16569626CE91C143AB1FBF2F14FF0DE
S31508002A20000805EBC1050335B5FBF2F5C1460235CD
S31508002A30E36999453CD3A8455AD22046616A45F0D0
S31508002A40C8FD0027064604F1400AB84512D8626C4C
S31508002A502368694602FB0639E36B05225B6948462B
S31508002A609847684646F0F6F9534602464946E06BEB
S31508002A7046F04BFA3146204645F0ABFD0137AF42EA
S31508002A800646E2D364200EE7A56AAEE72946204645
S31508002A9045F04BFD236B294603440746236320462E
S31508002AA045F024FE0546002FB0D1C4E90B07ADE773
S31508002AB0636C2768052203FB0977E36B05A95B6945
S31508002AC03846984705A846F0EEF946F011FA60B17F
S31508002AD0384646F018FA0146204645F026FD636C4E
S31508002AE0143B984208BF08F1010809F101099FE75C
S31508002AF0304646F060F8002320461946034AFFF799
S31508002B0091F90020CFE600BF9C260020D98704084B
S31508002B1000232DE9F041614A0E4617680446136002
S31508002B2018B921252846BDE8F08190F834500DB330
S31508002B3009680268914240F0A9807168426891422A
S31508002B4040F0A480B1688268914240F09F80F168A5
S31508002B50C268914240F09A8031694269914240F0D8
S31508002B609580B169C26B914240F0908072691D46AA
S31508002B708261D7E7D0F83880502229464BF02BF9E6
S31508002B80C4F83880336804F108002360736863600A
S31508002B90336963617369A361D6E9021246F01DF8C9
S31508002BA0B36904F14000E3639B68984794F84320AF
S31508002BB020B1E561002AB4D05B25B3E7656C002D2A
S31508002BC0F7D06668B6FBF5F3E361002AA9D0B542EB
S31508002BD0F2D82268B2FBF5F105FB1122002A57D17B
S31508002BE005FB1363002B53D1204645F08EFCA369E1
S31508002BF0043303449E424DD340F634726369CC3B9A
S31508002C00934249D8B5F5805FD6D30321204645F0CF
S31508002C10A5FCD4E90001E36B1B6898470546E36BFE
S31508002C200220DB6898471DB1002384F834301DE084
S31508002C3039462046FFF716FE6428054604D139466C
S31508002C402046FFF70FFE0546636C143B002DEBD1BB
S31508002C50226A204602FB03F645F057FCA3690433B3
S31508002C6003449E4206D284F834505A25E06B45F058
S31508002C700FFE57E70123D4E90001094A84F83430E6
S31508002C8013680133136046F042F8EFE75D2549E71C
S31508002C90592547E75A2545E75F2543E700200020E1
S31508002CA0FC1F00202DE9FF410F4690461E460546AB
S31508002CB098B390F8343093B3B1F5801F31D21A4CDB
S31508002CC0022145F04BFC2246394628460DF10F03F2
S31508002CD0FEF7FEFF024678B10123424600933946C5
S31508002CE033462846FFF7D0FC0446E86B45F0D0FD8E
S31508002CF0204604B0BDE8F0819DF80F30012BEBD1DA
S31508002D002169B142E8D10093414633462846FFF788
S31508002D10A5F904460028DFD1E7E72124E8E71124CE
S31508002D20E6E72924E4E700BFC82600202DE9FF418D
S31508002D300C4616461F46054680B390F834307BB3DA
S31508002D40B1F5801F2ED2DFF86080012145F006FC20
S31508002D502146424628460DF10F03FEF7B9FF044601
S31508002D6070B99DF80F30012B11D1D8F81030BB423D
S31508002D7012D10246009031462846FFF76FF90446FD
S31508002D80E86B45F085FD204604B0BDE8F081022BCE
S31508002D9014BF2D246024F3E76324F1E72124F2E726
S31508002DA01124F0E72924EEE7C82600202DE9F04390
S31508002DB085B00C4617461E460546DDF8308098B3A2
S31508002DC090F8343093B3B1F5801F31D2DFF86490B0
S31508002DD0012145F0C3FB21464A4628460DF10F035B
S31508002DE0FEF776FF044688B99DF80F30012B14D1FB
S31508002DF0D9F8102006EB08039A4213D300904346ED
S31508002E00324639462846FFF729F90446E86B45F065
S31508002E103FFD204605B0BDE8F083022B14BF2D24E4
S31508002E206024F3E76324F1E72124F2E71124F0E7AD
S31508002E302924EEE7C82600202DE9F3411F46002382
S31508002E400C46164605463B6050B390F834304BB3F3
S31508002E50B1F5801F28D2DFF85480012145F07EFBAA
S31508002E602146424628460DF10703FEF731FF044680
S31508002E70A0B99DF80730032B10D0022B0AD10123E5
S31508002E80336004233B60E86B45F002FD204602B040
S31508002E90BDE8F0813060D8F81030F3E72D24F2E76A
S31508002EA02124F3E71124F1E72924EFE7C8260020B7
S31508002EB030B50C46054685B028B390F8343023B3B0
S31508002EC0B1F5801F23D2022145F048FB0DF10F030F
S31508002ED0214628460F4AFEF7FBFE034688B99DF8A9
S31508002EE00F20032A0DD003222146009202462846C7
S31508002EF0FFF7CAFB0446E86B45F0CAFC204605B056
S31508002F0030BD2D24F7E72124F8E71124F6E7292414
S31508002F10F4E700BFC82600202DE9F0414668002ED8
S31508002F203AD0056898464FF0000CAE4655F83C4036
S31508002F30C4F31307013401D0B94222D00CF1010CB5
S31508002F4066450EF1080EF1D100273C4603E0A6427D
S31508002F5007F108071DD055F8343001340133F6D18E
S31508002F606FEA01316FEA1131E9510168CB59C3F3B0
S31508002F70130343EA0853CB5103683B445A60BDE840
S31508002F80F08141EA0851CEF80010036803EBCC0340
S31508002F90F4E7B8F1030F03D101230372BDE8F0810A
S31508002FA000273C4603E0A64207F10807F4D055F887
S31508002FB034300134C3F3075CBCF1030FF3D11B0DA6
S31508002FC01B050B43EB51D0E72DE9F0410646406857
S31508002FD082B0C0B10F4690460024336853F8345087
S31508002FE003EBC403C5F30752C5F31301013504F116
S31508002FF0010406D05B683046CDF80080B84710B1AA
S3150800300070688442E9D302B0BDE8F081024B1968C2
S31508003010024B1868FFF77CBD244A0120444A012068
S3150800302008B55CF002F9014B186008BDF4260020CB
S31508003030014B18685CF0F4B8F426002073B5044612
S315080030402248012A00EAC1119DF8185023F07C4055
S3150800305007D9961E012E28D9073303F07F03194393
S3150800306008E09DF81C300A43DB0603F0C0531343FF
S3150800307043F060410023C4E900108DF80730B5B16C
S31508003080202221460DF1070045F059FF1A220DF1BD
S315080030900700211D45F053FF082063689DF80720A7
S315080030A043EA8263636002B070BD1143E2E71B2204
S315080030B00DF10700214645F042FF23689DF80720D9
S315080030C0042043EAC2632360EDE700BF80FFFF07E1
S315080030D038B5094B0D461A68002104464AF07BFEAE
S315080030E04FF0FF320023C4E900252361A260E38282
S315080030F02383A37638BD00BFF80206080138C0B29C
S3150800310005289ABF014B185C01207047FD02060886
S315080031102DE9F0410746154600240E46596888B041
S31508003120490A012922464FEA510104F10104F8D857
S31508003130DC78997824031B88C90201F4006104F439
S3150800314080540C43C3F30A035203234492B24FF04C
S3150800315000089C18274B6FEA0444039325F078432C
S31508003160ED4302A90DF107001B2202938DF8078093
S3150800317045F0E5FE9DF80720029B02A943EAC263D3
S315080031800DF107001B2225F07845049302958DF86A
S31508003190078045F0D4FE9DF80720029B6FEA144489
S315080031A043EAC26305934FF0FF330794069307A9D2
S315080031B0BB69012206F110009847BB6905A90446B8
S315080031C0012206F108009847BB69404518BF044626
S315080031D004A90122301D98470122404518BF04461C
S315080031E0BB69304603A99847404508BF204608B042
S315080031F0BDE8F08101009AB201292DE9F84304D906
S315080032000239012927D9BDE8F883234B234E1C68C8
S31508003210234FDFF89880803C14F1800FF3D0D4F860
S3150800322000900521484645F07FFF1E4B994510D072
S315080032301D4B994514BF3D4645465BF0F6FF2B6886
S3150800324043F018032B605BF0EBFFD4F88040803C1A
S31508003250E2E73546F1E7104B104E1C68104FDFF8D1
S315080032604C80803C14F1800FCDD023680D4A9342E0
S3150800327010D00D4A934214BF3D4645465BF0D5FF34
S315080032802B6823F018032B605BF0CAFFD4F8804044
S31508003290803CE7E73546F1E7F826002094C403505A
S315080032A074C403500000015B00000A50B4C4035004
S315080032B02DE9F041864A0B688EB0934205460C46C6
S315080032C006AF03D0834A934240F0E780BC46824E5D
S315080032D005970FCEACE80F0096E80F0010368CE87D
S315080032E00F000FCE0DF1040CACE80F00002D00F016
S315080032F0D2808422002128464AF06DFD0023AB6562
S31508003300226873498A4214D0724B9A4200F0A2800E
S31508003310724E734B1B681BB97249734806F008FE58
S315080033206F4805F1800144F09DFF30460EB0BDE8B8
S31508003330F0814FF4702298466C486D49C5E90B1226
S315080033402865236827462B6001232E1D85F85C30E7
S315080033500FCF0FC697E80F0086E80F00637E012B94
S3150800336008BF8DF81D30A37E33B1012B79D0022B0F
S3150800337002D0032BCCD10623227E8DF81230012AE7
S31508003380E36870D15B4A93428CBF04230523059AF0
S31508003390537700238DF81130574B5848039347F05D
S315080033A055FE2B6D986847F051FE2369DA1F092AE6
S315080033B0AED8063B8DF81030237E2BB9E37EB3FAE0
S315080033C083F35B098DF81C300121284645F0D5FDAD
S315080033D0064600289DD1237A217941EA03414FEA1E
S315080033E0481303F1A04202F57032C2F8AC14617AB0
S315080033F0607940EA0140C2F8A404A67AA07940EAB6
S315080034000640C2F8A804E17E89BBE07AE17941EA80
S315080034100041C2F89814E17E49BB1D23C2F89434D2
S31508003420206801A901F006FC5BF012FF344B1A78FC
S315080034302ABB01221A705BF006FF06F017FFFEF79B
S31508003440A5FA002105F12400FEF770FA0146C8B175
S315080034502C4E5EE74FF480124FF001082A482B499C
S315080034606CE7042388E700228DF8342095E71C22B0
S3150800347003F1A04303F57033C3F89424D0E75BF057
S31508003480E2FEDCE705F12800FEF750FA06460028BA
S315080034903FF43FAFDCE71E4E3BE73E46DFF878C019
S315080034A0BCE80F000FC69CE8070086E80700002D59
S315080034B000F0DD808422002128464AF08CFC002397
S315080034C0AB652168134A914228D0044E2DE700BF08
S315080034D00000015B00000A5004030608022000F001
S315080034E0F8260020484A0120FC260020CC1C0608A5
S315080034F001000F003F4B4C0040420F009C1C060881
S315080035002BA30020092000F0C01C060801001000AB
S31508003510012000F000C0055038030608554AA446A5
S315080035202A654FF4802254492E1DC5E90B122268DC
S3150800353085F85C302A60BCE80F000FC69CE80F00CF
S3150800354086E80F00637E012B08BF8DF82630A37E20
S315080035503BB1012B6BD0022B6CD0032BB5D14FF4AA
S315080035604073ADF82830237E4448012B03BF00235F
S315080035708DF825304FF4E133E368089347F066FD8C
S315080035802B6D986847F062FD23691A1F0C2A9CD890
S31508003590033B394620688DF8243001F043FFA369C0
S315080035A023F47F0323F47F4323B92A68936843F4FB
S315080035B080339360237A2279E17E42EA0342304BD4
S315080035C0C3F83827002938D1617A627942EA01427C
S315080035D0C3F83027A17AA27942EA0142C3F8342710
S315080035E0E17AE27942EA0142C3F824271D22012141
S315080035F02846C3F8202745F0C0FC064600287FF475
S3150800360094AE5BF025FE1F4B1A7822BB01221A7076
S315080036105BF019FE06F02AFEFEF7B8F9002105F15F
S315080036202400FEF783F90146C0B1174E7DE64FF434
S31508003630007396E74FF4807393E7617A627942EAFA
S315080036400142C3F83027A17AA27942EA0142C3F8B7
S3150800365034271C22CBE75BF0F6FDDDE705F12800F1
S31508003660FEF764F9064600283FF45FAEDDE7074E2D
S315080036705BE600BFA81C0608020004009C1C06089E
S3150800368000C003502BA30020092000F0012000F001
S31508003690044BD3F88420D206FBD4D3F88400C0F3B5
S315080036A0811070470040005038B5174B0546D3F8CF
S315080036B028310C4603F00703013B052B20D8DFE829
S315080036C003F003131B0F0B1759F0BEF8052305B1BA
S315080036D0286004B1236038BD59F0B6F80623F6E72A
S315080036E059F0FCF80723F2E759F0EEF80323EEE762
S315080036F059F0EAF80423EAE759F0E2F80223E6E784
S3150800370000231846E3E700BF00800050002337B5C2
S315080037100193164B0546D3F820320C4603F00703EF
S31508003720042B21D8DFE803F0030B11161B00012335
S315080037300DB1019A2A6004B1236003B030BD00219F
S3150800374001A8FFF7B1FF1223F2E759F0C7F80723DC
S315080037500190EDE75BF08FFD0A230190E8E759F049
S3150800376005F909230190E3E70023E1E7008000500B
S3150800377038B5104B0546D3F880300C4603F00303E2
S31508003780022B0BD0032B0DD0012B0FD159F062F869
S315080037900E2305B1286004B1236038BD59F09EF8A0
S315080037A00723F6E759F050F80623F2E700231846F0
S315080037B0EFE700BF0080005038B5104B0546D3F838
S315080037C000310C4603F00303022B0BD0032B0DD05C
S315080037D0012B0FD159F078F8032305B1286004B1FD
S315080037E0236038BD59F0C2F80923F6E759F072F894
S315080037F00823F2E701230020EFE700BF008000500E
S3150800380038B5184B0546D3F820010C4600F00700DA
S31508003810062823D8DFE800F0040A0E16121A1E003E
S31508003820012305B1286004B1236038BD59F00CF8AE
S315080038300523F6E759F048F80323F2E759F04EF85E
S315080038400723EEE759F03CF80223EAE758F0FCFFB5
S315080038500623E6E759F038F80423E2E7002318467A
S31508003860DFE700BF0080005038B5104B0546D3F897
S3150800387040310C4603F00303022B0BD0032B0DD06B
S31508003880012B0FD15BF0F7FC0A2305B1286004B1C0
S31508003890236038BD59F06AF80923F6E75BF0EEFCB9
S315080038A00C23F2E701230020EFE700BF0080005059
S315080038B0002337B50193164B0546D3F860320C46FC
S315080038C003F00703013B032B1FD8DFE803F0020EC2
S315080038D01914002101A8FFF793FF10230DB1019ACF
S315080038E02A6004B1236003B030BD002101A8FFF7A8
S315080038F0BBFF1123F2E758F0F1FF07230190EDE72C
S3150800390058F0DEFF02230190E8E70023E6E700BF50
S3150800391000800050002337B50193164B0546D3F8AF
S3150800392094320C4603F00703013B032B1FD8DFE84C
S3150800393003F0020E1914002101A8FFF761FF1023F6
S315080039400DB1019A2A6004B1236003B030BD00218D
S3150800395001A8FFF789FF1123F2E758F0BFFF0723F5
S315080039600190EDE758F0ACFF02230190E8E7002349
S31508003970E6E700BF0080005038B5104B0546D3F87F
S3150800398060310C4603F00303022B0BD0032B0DD03A
S31508003990012B0FD15BF06FFC0A2305B1286004B137
S315080039A0236038BD58F0E2FF0923F6E75BF066FCB2
S315080039B00C23F2E701230020EFE700BF0080005048
S315080039C02E4B98424AD022D82D4B984240D014D834
S315080039D02C4B984239D00AD82B4B984232D02B4BD5
S315080039E098422FD02A4B98422CD000207047294B5A
S315080039F09842FAD1284B186F7047284B98422AD01C
S31508003A00274B9842F1D1244BD3F880007047254BB9
S31508003A1098422BD009D8244B984223D0234B98425E
S31508003A20E3D11D4BD3F88C007047214B984221D027
S31508003A3003F5740303F510539842D6D1164BD3F801
S31508003A4098007047144B986D7047134B586E704723
S31508003A50114B586F7047104B986F70470E4BD3F841
S31508003A60840070470C4BD3F8880070470A4BD3F88C
S31508003A7090007047084BD3F8940070470048E80157
S31508003A800024F400C0CF6A0080841E0000093D00AF
S31508003A9040420F00405DC6000080E00FC0EA2101E9
S31508003AA080BA8C01007E560380D54302006CDC0286
S31508003AB00090D00373B50D460021114B0191D3F840
S31508003AC08041064604F00304022C13D0032C0CD0C4
S31508003AD0012C13D101A8FFF793FE10240EB1019B08
S31508003AE0336005B12C6002B070BD58F0F7FE0724AC
S31508003AF00190F3E758F0E4FE0190EFE70C46EDE796
S31508003B000080005038B5104B0546D3F840320C46B5
S31508003B1003F00303022B0BD0032B0DD0012B0FD17F
S31508003B205BF0A9FB0A2305B1286004B1236038BD00
S31508003B3058F01CFF0923F6E75BF0A0FB0C23F2E71D
S31508003B4001230020EFE700BF0080005038B5144B72
S31508003B500546D3F800020C4600F0070004281BD8D7
S31508003B60DFE800F003090D111500012305B12860EF
S31508003B7004B1236038BD5BF07EFB0A23F6E758F0F4
S31508003B80F5FE0923F2E75BF079FB0C23EEE758F024
S31508003B9081FE0F23800AE9E700231846E6E700BFFF
S31508003BA00080005038B5144B0546D3F808020C4679
S31508003BB000F0070004281BD8DFE800F003090D1100
S31508003BC01500012305B1286004B1236038BD5BF0F8
S31508003BD052FB0A23F6E758F0C9FE0923F2E75BF021
S31508003BE04DFB0C23EEE758F055FE0F23800AE9E754
S31508003BF000231846E6E700BF00800050B0F5207F96
S31508003C001FD009D8B0F5007F15D003D868B1B0F534
S31508003C10C07F0AD000200CE0B0F5607FFAD10B4BCC
S31508003C20D3F88000C0F3011003E0084B186FC0F307
S31508003C30033001307047054BD3F89000C0F3046099
S31508003C40F7E7024B186FC0F38020F2E700800050B8
S31508003C5002464FF48030104B10B598660020FFF7E7
S31508003C60CDFF504341F671320C4BDC69DA635A6872
S31508003C7004F4803422F4401259B90949884294BFA1
S31508003C8000200120000502435A600CB10022DA63C5
S31508003C9010BD0449F2E700BF009000500000035031
S31508003CA0005A6202002D3101430905D0012B0CD0C0
S31508003CB0022B084B18BF002300F01F0039B103F58B
S31508003CC08053012282401A607047034BF4E703F5DC
S31508003CD00053F6E768800050648000501FB5002145
S31508003CE0B0F5807F0446CDE9001100F0D2803AD8BD
S31508003CF05E2833D85E2833D8DFE800F04532323202
S31508003D003232323232323232323232323232323285
S31508003D1032323232323232323232323245AC45AC5B
S31508003D20BCBCBCBCBCACC64E6BDC4EACACAC32321C
S31508003D30323232323232ACACAC7EE6AC323232326D
S31508003D40323232323232323232BC454545E14E4E9B
S31508003D50EB8D63C132323232329E4500802870D0F4
S31508003D60009804B010BDB0F5D06F00F0A38035D828
S31508003D70B0F5607F79D01AD8B0F5007F65D005D840
S31508003D80B0F5C07FECD158F085FD5CE0B0F5207F3A
S31508003D9060D0B0F5407FE3D158F07CFD02464FF481
S31508003DA02070FFF72BFFB2FBF0F252085BE0B0F58C
S31508003DB0B06F69D00AD8B0F5806F5BD0B0F5A06F48
S31508003DC0CED100216846FFF7A1FCC9E7B0F5C06F60
S31508003DD0C6D100216846FFF747FDC1E7B0F5106F69
S31508003DE06DD00ED8B0F5086F78D0B9D8B0F5E06FB9
S31508003DF06AD0B0F5F06FB3D100216846FFF7BCFD75
S31508003E00AEE7B0F5406F3AD013D8B0F5206F60D062
S31508003E10B0F5286FA4D10021324B0391D3F8703244
S31508003E2003F00303012B02D103A8FFF71DFD039B33
S31508003E3039E0B0F5486F93D100216846FFF76AFD6F
S31508003E408EE758F007FD00908AE758F003FD024612
S31508003E50204604E058F01EFD02464FF42070FFF796
S31508003E60CDFEB2FBF0F200927AE701A8FFF780FCDC
S31508003E70019AEDE700216846FFF7C2FC70E70021CA
S31508003E806846FFF711FC6BE700216846FFF712FE4C
S31508003E9066E74FF0E02302911B695B0705D558F0EA
S31508003EA0F9FC0290029B00935AE703A902A8FFF7C0
S31508003EB0DBFCF7E700216846FFF748FE50E70021DC
S31508003EC06846FFF76FFE4BE700216846FFF71AFEC4
S31508003ED046E700216846FFF7EBFC41E76846FFF72F
S31508003EE06BFC3DE70080005008B58020FFF7F6FE22
S31508003EF0034B98429EBF4FF48032024B1A6708BDA7
S31508003F00005A620200A000501FB503460020B3F510
S31508003F10807F019000F0C58065D85D2B56D84C2B64
S31508003F2007D82D2B48D8232B2CD8019805B05DF837
S31508003F3004FB4D3B102BF8D801A252F823F000BF22
S31508003F40994000082B3F00082B3F00082B3F00082C
S31508003F50474000082B3F00082B3F0008F3400008A5
S31508003F60654000080B400008E94000082B3F0008A0
S31508003F702B3F00082B3F00082B3F00082B3F00086B
S31508003F80FD400008243B092BCFD801A252F823F0A4
S31508003F90994000089940000899400008994000088F
S31508003FA0994000082B3F00088F4000082B3F000867
S31508003FB027400008CF4000083D2B00F083803E2BA9
S31508003FC0B3D1002001A9FFF79DFDAEE7802BACD148
S31508003FD0504B1B6F03F00703013B032BA5D8DFE803
S31508003FE003F0544D5052B3F5F06F6BD020D8B3F5AB
S31508003FF0B06F4CD00ED8B3F5607F71D095D3B3F5BA
S31508004000806F49D0B3F5A06F8FD1002001A9FFF7C3
S315080040107DFB8AE7B3F5D06F59D0B3F5E06FD0D002
S31508004020B3F5C06F81D1002001A9FFF71DFC7CE71D
S31508004030B3F5206F5DD00BD8B3F5086F4CD0B3F548
S31508004040106F7FF472AF002001A9FFF7ABFD6CE794
S31508004050B3F5406F48D0B3F5486F4FD0B3F5286F26
S315080040607FF463AF2B4BD3F8703203F00303012BB5
S3150800407049D0022B0CBF1523002300E0052301932A
S3150800408053E70323FBE70823F9E70223F7E70020B2
S3150800409001A9FFF70FFD48E7002001A9FFF7B0FBCC
S315080040A043E74FF0E02302901B695B0705D558F0FC
S315080040B0F1FB0D230393039BE1E703A902A8FFF78E
S315080040C0D3FBF8E7002001A9FFF756FC2DE70020EF
S315080040D001A9FFF73BFD28E701A9FFF76DFB24E7D8
S315080040E001A9FFF745FB20E7002001A9FFF7DCFA45
S315080040F01BE7002001A9FFF7DBFB16E7002001A953
S31508004100FFF708FC11E7002103A8FFF7ADFB112311
S31508004110B5E700BF008000504FF48032074B0849CE
S31508004120586E03F580535A664B6A23F001034B62B7
S31508004130C3035CBF034B5A66704700BF008000503C
S3150800414000C0075000A0005008B5FFF7DDFE09289B
S3150800415011D00A38012802D94FF6FF7008BD4FF46E
S315080041608002064B5A6603F5D8335B6ADB07F3D53C
S315080041704FF4FA70F2E7024B1888EFE70090005008
S315080041801255012008B5FFF7BFFE03280ABF024BE8
S315080041904FF6FF70188808BD1055012038B504463B
S315080041A08020FFF7B1FE032800F08A804FF48012C2
S315080041B0544B4FF0A0615A6645F60E03524AC2F8B0
S315080041C08030524B99624FF4803103F580539962DF
S315080041D0936DD903FCD4916D11F08041FBD1D4E9DC
S315080041E000031B0543EA0063E07B0343207B43EAA5
S315080041F00043607B43EA0033A07B43EA80131361E4
S315080042009069D4E904531B0643EA856300F000402D
S315080042100343A07E0343207E43EA0043607E43EACD
S3150800422000239361136AE06923F00F030343003800
S3150800423018BF0120E57E43EA850343EAC0031362FB
S31508004240E369334D002B3CD194F82430916A94F8F5
S315080042502000DB00294043EA40130B4394F8211061
S3150800426043EA011343F4803393622A49264A936D3D
S3150800427031EA0303FBD14FF0807124488162136948
S31508004280A56823F4700343EA055313614FF000430E
S31508004290836194F822300BB91F4B996294F8233046
S315080042A03BB94FF480321C4B9A62174A936D5B00F8
S315080042B0FCD494F825301BB1134B184AC3F8802058
S315080042C038BD022B08D11161154891614FF4085287
S315080042D04FF47F4144F0C6FE0B4994F822308A6AAF
S315080042E094F820001B062A4043EA4013134394F827
S315080042F0242043EAC20394F8232043EA02438B624C
S31508004300D7E700BF009000500040005A0050005AFE
S31508004310C7FFFEFE030001000060005AF1A7FFFF79
S315080043203440005A014B93F9000070473E5501206E
S315080043304FF400011B4A437810B551664FF4D1512A
S31508004340022402F5B832516217494F2B4C604FF0E0
S31508004350010428BF4F2301F580514C601169C90338
S31508004360FCD4017843EA01235361D0E901131B0108
S3150800437043EA0123417B0B43017B43EA41039360F4
S31508004380C37B817B1B0143EA4113417C0B43017CC0
S3150800439043EA41035360837C13B16FF4D1535362EC
S315080043A010BD00BF0090005000100250014B18804D
S315080043B0704700BF12550120014B1880704700BF97
S315080043C0105501204FF4800208B5184B5A6602238F
S315080043D0174A5360936813F48033FBD1012822D11E
S315080043E058F072FA134B984215D003F5122303F5C9
S315080043F0F863984213D0104B00EB8002400AB3FBD7
S31508004400F0F3520A0A49CA620B6301234B6200227F
S31508004410074B5A6008BD45F67A13084AF2E745F68F
S315080044201A03074AEEE75362F1E700BF009000500F
S315080044300040025000F0490264666666D8B8050076
S31508004440BBCF0500B0F5207F10B50C465DD008D867
S31508004450B0F5007F4ED003D8C0B1B0F5C07F15D0F7
S3150800446010BDB0F5607FFBD12C4B4C1ED3F8FC2059
S315080044702B4912F0807F4FEA041427D1D1F88030F7
S3150800448023F030032343C1F88030E9E744F0F9FD0F
S3150800449044F005FE4FF48031224B214A1967136F09
S315080044A0013C23F4704343EA0433136758F0F2F9E6
S315080044B00446FFF7EDF8C0F10201204644F0E9FD95
S315080044C000F04AF8BDE81040FFF70EBDD3F8FC200F
S315080044D022F08072C3F8FC20D1F8802022F0300246
S315080044E02243C1F88020D3F8FC2042F08072C3F83A
S315080044F0FC20B5E70A4A4C1ED2F8903023F0F85350
S3150800450043EA0463C2F89030AAE7054A4C1E136FC3
S3150800451023F4806343EA84231367A1E700ED00E0F0
S31508004520008000500090005008B50121022000F0DC
S3150800453095F94FF42070FFF761FB054B187044F0AE
S31508004540A0FD44F0ACFD4FF48032024B1A6708BD5B
S315080045502CA300200090005008B54FF4C070FFF758
S31508004560BDFBBDE808400449884294BF01210221E9
S315080045704FF42070FFF766BF80F0FA0238B504469C
S3150800458058F088F90546FFF783F8C0F10201284676
S3150800459044F07FFD0121002000F0A0F92CB1FFF7BF
S315080045A0DBFFBDE83840FFF79FBC034B4FF4207094
S315080045B01978FFF747FFF4E72CA300204FF4C02231
S315080045C070B50546FFF7FCF9314B04465A6603F504
S315080045D098335A68012A04D12E494A605A689207C4
S315080045E0FCD48020FFF790FC052807D144F049FD4C
S315080045F044F055FD4FF48032254B1A67264B24F0BC
S3150800460040749D4230D0254B9D4230D058F01CF95D
S315080046108542064603D90121284600F05FF9204B5A
S31508004620DA6812F0060FFBD199689C609A686240B6
S3150800463012F4F81F1ED12846FCF74EFE8020FFF71D
S3150800464063FC05280DD158F025F90446FFF720F834
S31508004650C0F10201204644F01CFDFFF77DFFFFF77D
S3150800466043FCAE420CD270BD44F00074CEE744F071
S315080046708074CBE780209960FFF746FC052805D0B3
S31508004680BDE870400121002000F028B93546DAE778
S315080046900090005000E0015040420F0080841E0048
S315080046A000000150304B314A984251D020D8A3F52A
S315080046B0B703A3F55863984246D00DD82C4B9842B9
S315080046C031D02C4B984239D02B4B4FF400219842CD
S315080046D01DD00023516622E0284B4FF40021984252
S315080046E0F7D1274BD3F8BC30516623F0407316E058
S315080046F0244B984230D0244B984231D0234B4FF468
S3150800470000219842E5D11E4BD3F8C830ECE71C4B84
S31508004710D3F8A030516623F0407343F000734FF08E
S31508004720B442936070474FF40021154BD3F8A0307C
S31508004730516623F0407343F08073F0E7104BD3F8CB
S31508004740A0304FF40021CFE70D4BD3F8B830F8E787
S315080047500B4BD3F8C030F4E7094BD3F8CC30F0E76D
S31508004760074BD3F8D030ECE7C0EA2101009000509F
S3150800477080841E0000093D0040420F000024F4001A
S315080047800080E00F0048E801005A620280BA8C01F6
S31508004790024A536B0342FCD1704700BF00400950E0
S315080047A0044A4178536F23F4407343EA012353675D
S315080047B0704700BF0040005010B50E4A0446136902
S315080047C043F00403136158F06BFE44F06DFC0A4B8A
S315080047D05B6E5B0142BF094B094AC3F8202430BF10
S315080047E044F063FC05F010FD1CB9BDE8104058F014
S315080047F051B810BD00ED00E00080005000E0035005
S315080048000000FF0F10B50C4A0446136943F0040371
S3150800481013610A4B5B6E5B0142BF094B094AC3F839
S31508004820202458F03DFE30BF05F0EEFC1CB9BDE86B
S31508004830104058F02FB810BD00ED00E00080005081
S3150800484000E003500000FF0F034A0179D36E23F0FE
S3150800485030030B43D366704700400050F8B5044652
S315080048601C4BD3F88420D106FBD4D3F88430C3F389
S3150800487081139C422CD057F0EDFF012C064602D13D
S31508004880214644F006FC5AF0D0FC4FF00072124B59
S3150800489007465A66204644F00BFC4FF480630D4DDC
S315080048A0621E93402B676B6E9A0103D4D5F8843049
S315080048B09B060AD538465AF0B3FC022C08D1304676
S315080048C0BDE8F840002144F0E4BBD5F88430EAE7B7
S315080048D0F8BD00BF004000500060005010B50C46FF
S315080048E008B957F0B7FF074B21461B783BB1064B73
S315080048F0984204D80120BDE81040FFF7AFBF022058
S31508004900F9E700BF2DA30020005A62020278034B84
S31508004910012100201A70FFF7E1BF00BF2DA3002078
S315080049204FF0004238B5244B244C5A664AF6CD332C
S31508004930656C014605F00105236428BB0120FFF7D5
S3150800494027FF6368DB0715D51D4B586008461D4BC6
S31508004950226BD2070CD4984208D1072415B1174BFD
S31508004960194A1A6455F0E0FC204638BD0130EFE7D5
S315080049709842F2D00024F1E70132236B13F00803C2
S3150800498005D08A42F8D1E8E700220E49F5E78A42BF
S31508004990E3D020210A4A91620121A2F58052516092
S315080049A00649084A886A800603D49342D5D001335B
S315080049B0F8E79342DDE700BF009000500040095039
S315080049C00060095040420F003254FFFF4FF000428A
S315080049D038B5164B01465A664AF6CD33144C154A75
S315080049E0656C236443780B205B0043F00103D363B3
S315080049F0FFF7CEFE63688A7823F4F87343EA021356
S31508004A006360CA784B7943EA0223A3600A798B79F3
S31508004A1043EA022323610878FFF782FFEB0744BFC6
S31508004A20054B236455F080FC012038BD00900050EA
S31508004A3000400950004000503254FFFF4FF000423A
S31508004A4070B5124B04465D6E03F580535A664AF6F6
S31508004A50CD330F4980204E6C0B64FFF799FE0B6A25
S31508004A6023F00F030F2C94BF234343F00F030B626D
S31508004A70F30744BF074B0B64002DA2BF4FF000425B
S31508004A80054B5A6655F050FC70BD00BF00800050BB
S31508004A90004009503254FFFF00A000504FF000427A
S31508004AA070B5104B04465D6E03F580535A664AF698
S31508004AB0CD330D4980204E6C0B64FFF769FE0B6AF7
S31508004AC023F4F85343EA04230B62F30744BF074B66
S31508004AD00B64002DA2BF4FF00042054B5A6655F0F5
S31508004AE023FC70BD00800050004009503254FFFF7F
S31508004AF000A0005010B544F0E0FA042300F58051F8
S31508004B0000F500520B6113610B6113610B611361B0
S31508004B100B611361202341F2020103610023C36084
S31508004B20836041614FF4A021836183654162054931
S31508004B30C36103628362C36243630365D16403632B
S31508004B4010BD00BFFF3F0D0370B505461446084665
S31508004B5041B9354B9D4218D0344B9D4208BF57206A
S31508004B60FFF7BCF8AB6813F0010F6B6830D0B0FBE9
S31508004B70F4F4D80704F1FF344FEA046407D42B6928
S31508004B8023F07F4323432B6170BD5620E8E7282195
S31508004B90284644F08EFAAB6C990715D1AB6CDA0748
S31508004BA014D4AB6C13F0020F14BF06260026284651
S31508004BB044F083FA2B69314623F07F4323432B6164
S31508004BC0BDE8704044F0B0BA0526F0E70926EEE7DE
S31508004BD0AB6DDB07AB6848BF640003F0E003402B0E
S31508004BE01BD004D8DBB1202BCED1082304E0602BE0
S31508004BF017D0802BC8D1012363434101B1FBF3F2DF
S31508004C000B4B203A284603EAC202012144F051FA26
S31508004C102A63BDE8704044F04CBA0623ECE710233B
S31508004C20EAE70423E8E700BF0000015B00000A503A
S31508004C30F8FF7F0070B5436804460D460E691BB140
S31508004C4040F6FF7144F035FA2046FFF753FF226914
S31508004C506B7BA97B22F087020B43134343F0800347
S31508004C6023611EBBA368EA7B23F00303134343F0C7
S31508004C700103A36063692A7B23F00F03134363616F
S31508004C80D5E901122046FFF75FFF0521204644F0CB
S31508004C902EFA282144F00DFA2B78A36344F009FA7A
S31508004CA0A36CDB4313F4405FFAD170BD2A6923690C
S31508004CB0117F23F0F80343EAC11311780B431179E6
S31508004CC043EA4113517AD27B43EA011343EA82133A
S31508004CD02361E268296922F0F042D1E9053022F41D
S31508004CE07022034313430A7B43EA82234A7B43EA3F
S31508004CF0C233E360A368EA7B23F00303134343F05C
S31508004D000103A3602B69A2685B8803F4C0431343BD
S31508004D10A3602A69A368527943EA8223A3602969B2
S31508004D20626A8B79C8791B01000203F0700300F4EC
S31508004D30E06022F4772222F4EE62034313430A7AF0
S31508004D40120302F4E04213434A7F120402F470226B
S31508004D501343636263692A7B23F00F03134363617A
S31508004D602B695B89A3612B695A7B4AB31A4A944219
S31508004D700FD19B7B194A03F00F0353672B69DA7B24
S31508004D80002A3FF47DAF1B7C144A03F00F03136718
S31508004D9076E7134A94427FF473AF9B7BA2F5CE2243
S31508004DA003F00F03C2F880302B69DB7B002B3FF43E
S31508004DB067AF2B69094A1B7C03F00F03D3675FE7CC
S31508004DC0DA7B002A3FF45CAF034A9442DBD0044BFB
S31508004DD09C42EED054E700BF0000015B00900350F0
S31508004DE000000A50072A2DE9F041154698464FF06B
S31508004DF0030401F003072DD89600B44000FA06F222
S31508004E0021461C4844F09FF921461B4807FA06F23A
S31508004E1044F099F9194B1A499DF81800B8F1000F92
S31508004E2018BF1946012303FA05F50D60154B1649F7
S31508004E30002818BF0B461D60144B1031C3F82054C8
S31508004E409DF81C0003F22443002818BF0B461D607A
S31508004E50BDE8F081A2F10806B600B44000FA06F2F1
S31508004E6021460B4844F06FF921460A4807FA06F22C
S31508004E70CEE700BF00C4035008C4035010D4035043
S31508004E8010E4035014E4035014D4035000E0035014
S31508004E9004C403500CC403502DE9F04105460F46DF
S31508004EA01E4690464AB101233022194C8B4002FB1C
S31508004EB0004436B304F5825423600F21072F05EB0F
S31508004EC0450388BFA7F108044FEA0313114895BFA5
S31508004ED0BC00A40004330C3308FA04F2A1401844B9
S31508004EE044F031F9B8F1000F09D101233021084AFD
S31508004EF0BB4001FB05223EB102F582521360BDE8B4
S31508004F00F08104F50154D7E702F50152F6E700BF30
S31508004F1000C0035030C00350F8B505460E46144687
S31508004F205AB303F00307836823F4407383605AF087
S31508004F307CF9AA6882EA072303F440735340AB60FE
S31508004F405AF06EF936B9B5F1B64F17D12E20FEF7DD
S31508004F50C5FE0646AB680C4BDA5D62430DD0A2EB84
S31508004F60C403013B3344B3FBF2F3AA68013B92073F
S31508004F7002D5002B08BF0123AB61F8BD034B9D4248
S31508004F80E8D12F20E3E700BF540306080080065047
S31508004F9038B500230E4A036400F50053DA634A78ED
S31508004FA004460D4600F108037AB903F58053022238
S31508004FB01A602046D5E901122B7BFFF7ADFF204684
S31508004FC02978BDE8384044F0CDB803F50053EEE73C
S31508004FD0FFFF1F00B0F1B64F70B519D0804B98424D
S31508004FE040F0FA807F4B9A68C16B11F4C06F15D0F8
S31508004FF08E050FD5FD225A7009221A700022026406
S3150800500093F90110012900D15A7093F9010070BD76
S31508005010754BE8E74D05EFD5FE22ECE71C78082C22
S3150800502000F2D680DFE814F0090021004700550099
S31508005030720081009F00A900CC0051881288CC0616
S315080050400CD5120A02F0060242F0F002012119708C
S315080050504263C1601A78092AD0D064E002F0FE02E1
S31508005060890748BF42F00102F0E70E0609D58021FC
S3150800507000F50052D1634FF608721A800222C26008
S31508005080E8E74D064FD5402400F50051CC6351881A
S31508005090CC0604D50221197012784263DAE78E0726
S315080050A069D507211970197902EBC1021289012AFB
S315080050B039D10822E3E70D06D9D44C0633D5402466
S315080050C000F50051CC635188890754D5032119701E
S315080050D08AE754881188E60643BF090A01F00601E3
S315080050E041F0F00101F0FE01650709D51C7941F090
S315080050F0010102EBC4021289012A04BF0822C26018
S3150800510004221A700122C2604163A3E70C06AED4DA
S31508005110490608D5402400F50051CC6351884E074E
S3150800512029D507221A70012071E719795D8802EBE3
S31508005130C1042689AE420FD800240131C9B25C8069
S31508005140197154886507C1D4E60702D401297FF688
S315080051504BAF08221A7091E76268691C5980525D44
S3150800516042630622DEE70D0681D44C06DBD54024D1
S3150800517000F50051CC630521A9E78906D3D520257A
S31508005180197900F5005402EBC1010989466AE563FD
S315080051905C88A142DDD91D7902EBC5025268651CFF
S315080051A05D8016555A888A42D3D204220129C260E4
S315080051B03FF450AF5A8801398A427FF44BAF78E7FB
S315080051C0CA05B0D54FF4807100F50052D16313E7D4
S315080051D04FF609321A8011E76FF0030017E700BF90
S315080051E0008006501027002004270020B0F1B64F93
S315080051F010B407D01A4B98422ED06FF003005DF812
S31508005200044B7047174B0269D20744BF2022C2607D
S315080052104A88940702D50C89002CEED0520702D58D
S315080052200A8A002AE9D04FF480721A60002299602F
S315080052301A71C023C3604369DB050FD4202200F529
S315080052400053DA63084ADA63036C43F4FC630364C5
S315080052505DF8044BFFF7BEBE044BD4E7436AEAE7A2
S315080052600080065004270020FFFF1F00102700209B
S3150800527010B5012104462020FEF716FD0121212044
S31508005280FEF712FD0122114B15205A6022781206EC
S315080052909A606178A27842EA01429A61FF229A628C
S315080052A000229A631A644FF000425A654FF0FF32A3
S315080052B003F500531A6504F04BFB1520E17845F019
S315080052C0D5FEBDE81040152004F018BB00000450B8
S315080052D04FF48032054B9A6641F6713203F51C335A
S315080052E0DA63012203F50053DA6070470090005034
S315080052F041F671320121064BDA6303F50052D1609B
S315080053000022DA634FF48032A3F518339A667047A1
S3150800531000000350013831289ABF024B185C002060
S31508005320704700BF58030608021E30B54FF000004C
S315080053300CBF1025042547F60774084952B9831D82
S3150800534051F82330234023B101308542F6D14FF07E
S31508005350FF3030BD00F11603F2E700BF00800350AE
S3150800536038B5C2F30625044602F0070241B942EAF7
S31508005370052242F440220634074B43F8242038BD60
S315080053801146284643F0F8FE02462846FFF7C2FFB4
S31508005390163442EA0022EFE7008003504FF48032C9
S315080053A0064B5A6603F5E6239B69C3F3851282709A
S315080053B003F03F021B0B42700370704700900050C9
S315080053C0014B986CD96C70470080E00F0120034BA5
S315080053D09B680A3303F01F03984070470080E00F6C
S315080053E0012100F5805310B5596040F6AA6341F2D1
S315080053F0050243610023094C8360C365C26000F55A
S3150800540000520361C361C3649464054C8365A0427A
S3150800541004BF03654365516010BD00BFFFFF01006F
S3150800542000C0055038B50D46FFF7DAFF012200F532
S3150800543080535A602B8AA97B826843F0010343EAAA
S3150800544081231343836083682A7D044643EA4273B3
S315080054508360AB7C5BB1194B984202BFEA7CA3F52B
S315080054601033C3F8C821C36D43F08003C3652B7B93
S31508005470204643F48053E360D5E9011243F09EFECB
S315080054806B7B0BB1102363616B7D1BB1A36843F47F
S315080054908033A360AB7D1BB1A36843F40043A360CC
S315080054A0EB7D2A7E1B07120503F0E04302F4E002B7
S315080054B01343A3652B78636138BD00BF00C0055050
S315080054C00123054A411100F01F00834052F82100CC
S315080054D0034342F8213070471C270020044B1B6801
S315080054E01BB1044B0360002070470120704700BFC2
