S02A00006275696C642F64656275672F616D617A6F6E5F7369646577616C6B5F736F635F6F6F622E733337D9
S21400000000100020AD0D0000133C0400133C04005B
S214000010133C0400133C0400133C0400133C04008F
S214000020133C0400133C0400133C0400817E0500CE
S214000030133C0400133C0400117E050003AB0500CE
S214000040133C0400D1430000133C0400133C04009E
S214000050133C04007D480400133C0400133C0400D9
S214000060133C0400133C040019860000133C0400F3
S214000070133C0400133C0400133C0400133C04002F
S214000080133C0400133C0400133C0400133C04001F
S214000090133C04005D140000133C0400133C0400F1
S2140000A0133C04004513000029130000133C040011
S2140000B0133C0400133C0400133C040075EA0300E0
S2140000C07763050073630500DDE103008D630500BB
S2140000D07B63050035EA03007F630500E5C6030081
S2140000E0B5EA0300133C0400133C0400133C040070
S2140000F0133C0400133C0400133C0400133C0400AF
S214000100133C0400133C0400133C0400133C04009E
S214000110133C0400133C0400133C0400133C04008E
S214000120CDF40000133C0400133C0400133C040010
S208000130133C040073
S214000134F0B5114A114C124E00F00105E3695F0751
S21400014413D40DB9334213D103EA00078F4207D103
S2140001540B4A1A40002A0CBF00206FF00100F0BDC5
S214000164013AEBD16FF00200F9E74FF0FF30F6E703
S2140001746FF00100F3E700BF80969800000003507C
S2140001840200010070B50B4BD96911F480310DD112
S21400019401244FF48072084E084DF46020462C6407
S2140001A41A61FFF7C5FF3464EC6070BD6FF00100A0
S2140001B4FBE700BF0000035000100350002003506C
S2140001C438B541F6713301220C4C0021E569E3632E
S2140001D40B4B05F48035DA6002236061212023612D
S2140001E4FFF7A6FF10B92120FFF7A2FF0122054B57
S2140001F4DA600DB10023E36338BD00BF000003508E
S214000204001003500020035070B5134C6061E3697E
S2140002145B071ED40E4656F8043B8D18A361AE4207
S2140002240BD10423002121202361FFF781FF58B955
S214000234BDE870402120FFF77BBF08210846FFF782
S21400024477FF10B10423236170BD56F8043BA36105
S214000254E5E74FF0FF30F7E7000003502DE9F843D9
S214000264154641F67132164B8946DF69DA63012278
S214000274064603F58053DFF8508007F48037DA60CB
S21400028455B9284601220F4BDA601FB10022A3F5A8
S2140002940053DA63BDE8F88306F5005404EA08045C
S2140002A4A41BAC4228BF2C46494622463046FFF7DC
S2140002B4ABFF0028E6D12644A1442D1BE0E700BF8F
S2100002C4000003500020035000E0FFFF85
S2140002D02DE9F04F93B0CDE90A32DDE91C530E93B9
S2140002E053EC102BCDE90801104619468DED060B90
S2140002F01E9E0FF059FF80B1DDE906014FF0FF3278
S214000300C54B0FF079FF40B9DDE906014FF0FF322B
S2140003106FF480130FF052FF70B1DDE908019DED18
S214000320060B0E9B1E96CDE91C53DDE90A3213B070
S214000330BDE8F04F00F088B90022DDE90601002391
S2140003400FF03CFF002800F03381DDE906A303F13F
S214000350004BCBF30A5016F48063A0F2FF3008BFC0
S21400036006250F930FF04EFC9BA3D3E900230FF056
S214000370B3FC9BA3D3E900230FF0F8FACBF31304E6
S214000380894644F07F5180460022A44B504641F4F3
S21400039040110FF0E9FA94A3D3E900230FF09CFC78
S2140003A002460B46404649460FF0E0FA0FF02EFF95
S2140003B004460FF027FC8EA3D3E900238046894627
S2140003C00FF08AFC0022964B0FF0D0FA0FF01EFFBB
S2140003D089A3D3E900230746494640460FF07CFC34
S2140003E08046384689460FF00DFC85A3D3E90023E6
S2140003F00FF072FC02460B46404649460FF0B4FA30
S21400040002460B46CDE90C230FF066FCDDE90C2313
S21400041080468946104619460FF0A8FA0022CDE914
S2140004201001804B404649460FF080FD00227E4B6F
S2140004300FF09CFA02460B46404649460FF076FD02
S21400044000227A4B0FF092FA02460B464046494687
S2140004500FF06CFDDDE90C238046894600204FF046
S21400046080410FF081FA02460B46404649460FF09F
S2140004707DFA02460B46DDE910010FF057FD07F244
S214000480FF3700226A4B0FF071FA00223B050FF08F
S21400049023FC52465B46804689460FF0ADFE002898
S2140004A040F08980CDE90C8904F16303C72B34BF83
S2140004B00427052731051BD553A3D3E9002350464F
S2140004C059460FF08FFE00287FD051A3D3E90023B2
S2140004D0504659460FF072FE002876D00027A542F7
S2140004E0C6BF2C1B04F1FF3500253C4646F480664B
S2140004F00E9B9F422CBF4FF00008A3EB070816F098
S214000500020903D0002F18BF4FF000083CB1DDE908
S2140005100C23504659460FF009FD82468B46DDE90E
S2140005200601002200230FF049FE10B10BF1004334
S2140005309B46DDE9080126F40063CDE90183DDE989
S2140005400A324BEC10AB009500F07EF802465FB323
S214000550DDE9091316F0200F00F10105089E0CBF17
S21400056065204520B047DDE90801052300220593F4
S2140005700A23002CCDE9023207F1FF374FEAD47385
S214000580B8BF64422A46019304970A9B009447F03A
S2140005905EFF0246B9F1000F06D00B9BC41A0B9BF8
S2140005A01A190E9BA34245D8104613B0BDE8F08F2B
S2140005B0DDE906ABCDE60022404649461A4B0FF071
S2140005C0B5FC013CCDE90C016EE7002D90D00F9BE9
S2140005D0002B8DD0013D8BE7FB799F501344D33F12
S2140005E0B3C8608B288AC63F61436F63A787D23F34
S2140005F071A379094F930A401655B5BBB16B0240FB
S214000600EF39FAFE422EE63F2D431CEBE2361A3F48
S2140006100000000080842E41FFFFEF7F0000F83FBF
S2140006200000E03F00002C4000002440000018407E
S2140006300000F03F2020DDE90913089DA84701349B
S214000640ADE700BF000000002DE9F04F5BEC10ABFB
S21400065097B0CDE90501DDE92057CDE907235046DF
S21400066052465B465946229E0FF09EFD70B9032304
S214000670CDE902760193B04B0093DDE90501DDE993
S214000680072347F004FE17B0BDE8F08F4FF0FF32A7
S2140006906FF48013504659460FF090FD28B104239E
S2140006A0CDE902760193A54BE6E74FF0FF325046C0
S2140006B05946A34B0FF0A0FD68B1A24A06F004030A
S2140006C0002B08BF0322A04B1CBF13460422CDE913
S2140006D002760192D0E7504693A3D3E90023594609
S2140006E00FF08AFD38B992A3D3E900235046594645
S2140006F00FF064FD68B1DDE90723DDE905014BEC89
S21400070010ABCDE92176209517B0BDE8F04FFFF786
S214000710DFBD00220023504659460FF04FFD00284B
S21400072000F09A805B465246002000210FF01CF92C
S214000730012382468B46099316F4806400F08E806F
S214000740092D40F28E80002430210EABA5F109025F
S2140007500134202C03F8011BA5EB040901D09442B8
S214000760F6D1594650460FF051FD784B054603EB3F
S214000770C90393ED007B8DED0A7B0FF043FA02462A
S2140007800B46504659460FF0EFF8DDE90A230FF006
S214000790A3FA02460B46CDE90C230FF05FFD804618
S2140007A00FF020FA02460B46DDE90C010FF0DCF8EC
S2140007B002460B46CDE90C230022654B0FF01CFDCC
S2140007C0002851D008F1010840460FF00BFA024607
S2140007D00B46DDE90A010FF0FBFC10B14FF00008F4
S2140007E00135B9F1000F50D128460FF00BFA02463A
S2140007F00B46504659460FF0B7F80022544B804639
S21400080089460FF0DBFC30B1002240464946504B8B
S2140008100FF0F2FC10B1E80700D501350A210EAB47
S2140008201A19202C0AD095FBF1F001FB1055303533
S21400083002F8015B013405460028F2D106F00302F7
S214000840012A57D1002F55D0099A12B916F00C0F6D
S21400085000D0013F302245E009906DE74FF00609D1
S2140008607FE7A94600247CE70022DDE90C01384B2F
S2140008700FF0A4FC0028B4D1B8F1000F02D018F095
S214000880010FAED008F10108ABE70A210EAB2344F6
S214000890202C0ED0B8FBF1F001FB1082B8F1090F46
S2140008A002F1300209F1FF3904F1010403F8012BCB
S2140008B011D83021A1440EAA202CAFD0A14504F1B6
S2140008C001030AD11C4609F158030DEB03092E2338
S2140008D009F8203CA2E78046DAE7A1541C46EBE77D
S2140008E01A550134A74205D9202CF9D1CDE9027654
S2140008F00194C1E6202CF9D0099A3AB12D2104F1D1
S21400090058026A4402F8201C0134EFE7710704D548
S21400091004F158022B216A44F4E73207E6D504F1C5
S214000920580220216A44EDE70000000065CDCD4165
S2140009300000000065CDCDC1D1BB0500D5BB0500CC
S214000940FFFFEF7FC8BB0500CDBB0500E0BB050081
S2140009500000E03F0000000010B51D4C00202146BE
S2140009605AF00EF818B146201A4948F023FB2368BF
S214000970194AB3FBF2F3236020680FF033F910A393
S214000980D3E900230FF0A8F90FA3D3E900230EF054
S214000990EDFF0FF063FC114B114A1860D2F8FC30E3
S2140009A043F08073C2F8FC304FF060430D4AC3F842
S2140009B0B02F0D4A136843F00103136010BD00BF4B
S2140009C0EC51B81E85EBE93FF6285C8FC2F51C405B
S2140009D064640020C8CF050040420F006064002019
S2140009E000ED00E055CEACC5001000E000000000B1
S2140009F070B590B004460D464BF047FA002848D034
S214000A001422002109A848F03CFDD4E907014FF65E
S214000A10FF73ADF8263010AB03E903008DF82550C0
S214000A201DF0DAF80026A063059003AA012001A9AC
S214000A30CDE90666CDE90166CDE90366089611F0B4
S214000A40CDFB054638B30696ADF81C6043F6FF733B
S214000A5003208DF8200005A909A8ADF81E3021F066
S214000A60A9F810B9012384F84430636B5A1C4FF67A
S214000A70FF7218BF01336363B4F84C3093421CBF57
S214000A8001339BB2A4F84C3094F84130013384F81B
S214000A90413010B070BD019B02990693C80319A39C
S214000AA0D3E90023490C0FF0F9FB16A3D3E9002382
S214000AB00499ADF81C00C803490C0FF0EFFB039B2C
S214000AC000EBC333B3F5804F0DD30B4A93420DD9D9
S214000AD00A4A93420DD90A4A9342B7D803200D22F8
S214000AE0D3409BB2B5E728462A46F9E701200522FF
S214000AF0F6E702200A22F3E7E0FF070000FCFF000B
S214000B0000E0FF0700CA9A3B00000000000000005B
S214000B10002370B5424C05468AB0E36318B10088DE
S214000B2023602FF053FA2FF0F1FA3E4854F039FEC6
S214000B303D4E3E4B304633603D4B73602AF046FCDC
S214000B400021304635F0CCFD33A3D3E90023A06264
S214000B50C4E9062351F0BCF9D4E90623194310432F
S214000B60C4E90601CDE900014FF0FF334FF0FF3234
S214000B70A06A54F0D9FE02224FF0FF31A06A54F06A
S214000B80EDFE01202EF0FCFE4FF4007300222949F2
S214000B90A06A55F075F8B0F5007F39D1002394228D
S214000BA0079309933C23CDE90332059396230693D6
S214000BB05023A06A03A9089336F07CF935B3287C45
S214000BC02FF0B6FA0546F0B9A06A55F0FCF82FF0FB
S214000BD03DFB2EF0B7FE20B14FF4807000212CF0C4
S214000BE065FE2EF0BFFE20B14FF4006000212CF011
S214000BF05DFE51F035FA012054F06BFC0E4A0F49A9
S214000C00A06A51F059F928460AB070BDFF20D7E710
S214000C100725F8E7AFF300800DD50155200000004A
S214000C2008170020690345EC84990020B9F70200F4
S214000C309499002084970020611E0500A11E0500DF
S214000C400348044B834202D0034B03B11847704756
S214000C50F4220120F422012000000000064B074980
S214000C60C91A891048BF0131491003D0044B0BB193
S214000C7001481847704700BFF4220120F4220120E3
S214000C800000000010B5064C237843B9FFF7D8FFE4
S214000C90044B13B10448AFF300800123237010BD4A
S214000CA0BAA1002000000000B05D060008B5054BA4
S214000CB01BB105490548AFF30080BDE80840FFF7C3
S214000CC0CDBF00BF00000000781C0020B05D06000D
S214000CD0A3F5803A704700BF174B002B08BF134B95
S214000CE09D46FFF7F5FF00218B460F461348144A32
S214000CF0121A48F0C6FB0E4B002B00D098470D4B3F
S214000D00002B00D098470020002104000D000D485D
S214000D10002802D00C48AFF300800FF0C7FE20007A
S214000D20290047F02BFD0FF067FC00BF000008000D
S214000D30000000000000000000100020001000204E
S214000D4034000120000000000000000008B5034841
S214000D5045F01DFEBDE8084047F0C3BC2CB90500B1
S214000D60014845F014BE00BF2CB90500BFF34F8FF5
S214000D700549064BCA6802F4E0621343CB60BFF332
S214000D804F8F00BFFDE700BF00ED00E00400FA054E
S214000D900348044A0449121A921042F03BBF00BFAF
S214000DA034010000D00200003400012008B500F035
S214000DB02FF8FFF7EDFF124B12498B4212D300209B
S214000DC0114B12498B4218D3FFF786FF186850F86C
S214000DD02240586840F82240013298688242F5D393
S214000DE00C33EAE70022F8E71C6844F822000132D8
S214000DF05C68A242F8D30833E4E70022F8E700BFB5
S214000E00B85D0600C45D0600C45D0600C45D06004D
S214000E1070B5124B124A134D9A60D3F8882005F528
S214000E20005442F47002C3F888206FF00102226674
S214000E3041F2FF7262660222C3F8D020BFF34F8FE2
S214000E40BFF36F8F4FF44036032006F04DFF0320AC
S214000E50E66006F01FFF2E6170BD00BF00ED00E0EB
S214000E600000000000800044014B1860704700BF7F
S214000E70E0010120054B1860054B1B6F03F00703CC
S214000E80032B01D157F03EB8704700BFE8010120A0
S214000E9000800050002307B52948019345F077FDF0
S214000EA04FF44073012204216846ADF8003000F08C
S214000EB0A1F80122234B0520C3F8442401A959F0C8
S214000EC05FFD002839D1204BD3F8F02042F0010214
S214000ED0C3F8F020D3F8FC2042F08072C3F8FC2060
S214000EE01A4AA3F55D431A60019B194A03F5D523F8
S214000EF003F2FC43B3FBF2F3164A013B13610223F1
S214000F00C2F8F0304FF48073C2F804334FF06043F9
S214000F10114AC3F8B02F114AC3F8802ED3F8002E1A
S214000F2042F48072C3F8002EFF2283F82020D3F804
S214000F30002E22F48072C3F8002E03B05DF804FB86
S214000F402CB9050000D0035000ED00E0FF03004080
S214000F50F8590D00000004E055CEACC509000100AC
S214000F602DE9F04104460C254FF00108124E0CB353
S214000F7014F001000BD0002024F0010405FB0062F1
S214000F805768002FF3D09168C0B2B847EFE7224603
S214000F90013020284FEA520201D0D307F8D508FACC
S214000FA000F20F2824EA0204E8D9103805FB006294
S214000FB0B432E5E7BDE8F081901C002008B50C4887
S214000FC045F0E5FC192006F073FE28B1192006F05E
S214000FD08BFE192006F05EFE1A2006F069FE28B188
S214000FE01A2006F081FE1A2006F054FE002008BDE6
S214000FF02CB905002DE9F0410E461746054608B304
S2140010000F2921D80378DBB1013BDBB2022B1BD8BA
S2140010100F4AD35C6A78D340DB0715D50D4BD3F85F
S21400102010439CB959F046FB80463A46284631465E
S21400103002F068FF404659F038FB2046BDE8F081D4
S2140010407F23E7E72224F8E72124F6E70224F4E7E3
S21400105008B6050000C0035010B5044600B3037878
S214001060E3B1013BDBB2022B1CD80F4AD35C62789B
S214001070D340DB0716D559F01DFB01226178237893
S2140010808A4030214B4341F2100103F1A04303F59F
S21400109070335A5059F009FB002010BD7F23E6E755
S2140010A02220FAE72120F8E708B6050010B5044626
S2140010B000B30378E3B1013BDBB2022B1CD80F4A26
S2140010C0D35C6278D340DB0716D559F0F3FA0122D9
S2140010D0617823788A4030214B4342F2100103F1B5
S2140010E0A04303F570335A5059F0DFFA002010BDC4
S2140010F07F23E6E72220FAE72120F8E708B6050076
S21400110010B5044600B30378E3B1013BDBB2022B13
S2140011101CD80F4AD35C6278D340DB0716D559F04B
S214001120C9FA0122617823788A4030214B4343F282
S214001130100103F1A04303F570335A5059F0B5FA85
S214001140002010BD7F23E6E72220FAE72120F8E7FB
S21400115008B6050038B50D46044608B301B3037853
S214001160E3B1013BDBB2022B1CD80F4AD35C62789A
S214001170D340DB0716D559F09DFA30222378534327
S21400118003F1A04303F570331B696278D34003F084
S21400119001032B7059F089FA002038BD7F23E6E75B
S2140011A02220FAE72120F8E708B605002DE9F041ED
S2140011B00D46164698460446002854D0002952D0BC
S2140011C00278002A46D0531EDBB2022B03D9FF2A30
S2140011D007D0212045E0254AD35C4278D340DA0781
S2140011E0F7D5022E01D9042EF3D159F063FA2378ED
S2140011F00746FF2B05D032462046296802F0C8FE77
S21400120028602B68013309D12378FF2B06D1184BB1
S2140012106078D3F8241443F0FBFB286029684B1C45
S2140012201BD00C23134A03FB0121C1F80480296854
S21400123003FB0122069B93602378FF2B05D0012336
S2140012402A6893400C4AC2F82434384659F02DFADE
S214001250002006E07F234278C0E7384659F025FA9A
S2140012602D20BDE8F0812220FBE700BF08B6050070
S21400127000C00350901C002000D003502DE9F04120
S2140012800D4690461F460446002845D0002943D008
S2140012900378002B37D0591EC9B2022903D9FF2B79
S2140012A007D0212036E01D4B42785B5CD340DA073E
S2140012B0F7D559F0FFF923780646FF2B05D04246AE
S2140012C02046296802F0D0FE286029684B1C1DD0F5
S2140012D00C23134A03FB0121C1F8B870296803FBED
S2140012E00122069BC2F8BC302378FF2B06D00123D0
S2140012F02A68103293400B4AC2F82434304659F01C
S214001300D4F9002006E07F234278CFE7304659F034
S214001310CCF92D20BDE8F0812220FBE708B60500B9
S214001320901C002000D0035008B502F0D1FD044BFD
S21400133000F05530C3F82004BDE80840FFF710BEA3
S21400134000E0035008B502F0C3FD044B00F0AA30DD
S214001350C3F82004BDE80840FFF702BE00E00350D3
S21400136013B504460A4845F012FBA2780421B2FAE7
S21400137082F2237852098DF8043063780DEB010071
S2140013808DF80530FFF736FE002002B010BD00BF16
S2140013902CB9050038B5124B05461B78DBB1E0B119
S2140013A059F088F90F4A00231146147B54B92B6074
S2140013B001251A0101EB03131D738C5059F075F9C2
S2140013C0204638BD0133082B02F11002EDD159F04A
S2140013D06CF90548F5E70548F3E70548F1E700BF6F
S2140013E0BBA10020F81E0020048000F0028000F060
S2140013F0018000F0154B13B51868002301908DF896
S214001400043059F057F9124B1C7824B159F04DF9B5
S214001410104802B010BD01221A7059F046F90E4B62
S21400142001A81C731C7783F82C4083F83C4083F893
S2140014304C4083F85C4083F86C4083F87C4008237B
S2140014408DF8073002F0EAFB2046E2E70BB605000F
S214001450BBA10020038000F0F81E00202DE9F0411B
S214001460174B1F6D5B6D1F4000D5FEE7012600255C
S214001470144CDFF85880374218D0C8F850602368FC
S214001480A3B1A168284601316268A1609847637BD2
S214001490012B0BD150B90C4B03EB45131A7B60F3B1
S2140014A041021A731A7F60F341021A770135082D3C
S2140014B04FEA460604F11004DDD1BDE8F08100BF16
S2140014C000000450F81E0020F81D002000200450E4
S2140014D01FB54FF6FF730F28ADF80830039009DCF0
S2140014E000910022084B03A902A8FFF75FFE05B093
S2140014F05DF804FB1038039000910022024B03A90C
S21400150002A8FFF7BBFEF2E7EF3C04002DE9F04F20
S214001510144605460E469B46C36B87B001225B69A0
S21400152002A960689847EB6B01225B6903A9304605
S214001530984702A843F028F8074648B10023A37549
S21400154063754FF0FF33A360002007B0BDE8F08F4F
S21400155003A843F026F80123A375237E04EBC303F8
S214001560DE611F846368B3420ED1206003A843F097
S2140015703AF84FF0FF332075A360237D043B022B1F
S21400158026D80023A375DFE723681A1A534253416F
S214001590A37503A843F027F8237D834218BFA775D9
S2140015A003A843F002F8074602A842F0FEFF87426F
S2140015B018BF002303A818BFA37542F0FEFF074616
S2140015C002A842F0FAFF87421CBF0023A375D4E7A7
S2140015D003A842F0EAFF80B1EB6B022230465B695B
S2140015E004A9984704A842F0EFFF0346207D03288D
S2140015F039D8DFE800F03838040903A8F3E7CC222E
S214001600237E04EBC3031A8401F0ACFA109B187017
S21400161003A8277E42F0BDFF04EBC70787F8220029
S214001620237E03A804EBC303B3F8209093F822703C
S21400163042F0BBFF804603A842F0BFFF8246B8F1E7
S214001640000F15D0EB6B022230465B6904A9984761
S21400165004A842F07EFF6075637D6BB90023A37516
S2140016604FF0000839E0227E04EBC2021384CBE779
S21400167003A842F059FFEEE794F81680B8F1000F81
S214001680EED0B9F1000F09D1E7B10123627EE37510
S214001690002A45D19F4219D1677615E06B6C06EBA0
S2140016A00A025B4286EA02010B421CBF0023A375B6
S2140016B06B6C591E0A409B1A9945CFD8A37D002B08
S2140016C0E2D1CDE7E37D43B94FF000084B465246E2
S2140016D03146284642F043FCA060A27D12B1236941
S2140016E04B4423611349237E097899421ED901335E
S2140016F02376BBF1000F1BD0D2B1E37DC3B1B8F1A6
S214001700000F15D1032F13D0A1684B1C10D0109BCF
S2140017102246009328460123FFF7F8FEA07507E04F
S214001720012FDAD0032F08BFA376CDE70023A375D9
S214001730A07D0AE730B605002DE9F04F0E46984624
S21400174000238BB004464FF0FF31104617468DF845
S214001750133001F0F1F9B6F5801F3BD3B21C53D11C
S214001760E56A6B1C57D12046616A42F03EFB05468F
S214001770B31C18BF0123DFF810910193636A626CF3
S2140017800293236805A902FB053AE36B05225B6911
S2140017905046984705A842F092FF42F0B5FF5046E3
S2140017A042F0BDFF4FF0000B824601464B1C05D0B1
S2140017B0636C81EA0A025B42134232D02946204615
S2140017C042F013FB029BAB424DD0BBF1000F4DD154
S2140017D00546D3E7314605AA04F1080042F026FE86
S2140017E00146481C10D0384601F0A6F901223946B9
S2140017F020460DF1130342F004FC28B19DF8133087
S21400180088F80030002003E0237C002BA8D12D2090
S2140018100BB0BDE8F08F2368ED1A636CB5FBF3F5EB
S214001820A6E7484601F088F90DF11303494620461D
S214001830019A42F0E6FB034690B1B21C03D0D9F8F9
S2140018400020B2420CD19DF8132003930D4B88F86C
S214001850002049461A68384647F01EFE039B9B4602
S214001860D9F80810A2E7BBF1000FD0D0B6F5801F5C
S214001870C8D2314698F800307A6804F1080001F0C2
S2140018807FF8BFE72CB60500EC2500202DE9F341D4
S2140018900446174698460E46194D816AE36A8B42FF
S2140018A02AD04B1C18E0284601F046F901222946AA
S2140018B020460DF1070342F0A4FB30B1434629460B
S2140018C020469DF80720B847B0B1A9684A1C05D045
S2140018D0012E0AD0E36A9942E5D10DE069682046F8
S2140018E042F010FB012E0146D8D16B6881EA030254
S2140018F0636C5B421A42D1D002B0BDE8F08100BFF3
S214001900C02500202DE9F0419046036B826B0768E6
S2140019109A4288BF8363426C436A90B002FB0377A7
S214001920C36B0E46052201A95B69044638469847F4
S21400193001A842F0C4FE01280146307057D0656CFD
S214001940E26B2368606AD2F814C005FB00300522FB
S21400195006A9E04706A842F0B2FE01284FF00005AF
S21400196023D0D4E90A3201219342CDE90B458DF804
S21400197034800E958DF83C102AD11946204642F048
S214001980C1FA236B626C14339B1AE06223630C9BD0
S21400199053B99DF83C303BB1626A616C2368E06BDA
S2140019A001FB023142F043FE0C9DE36B05225B69AE
S2140019B001A93846984701A842F081FE30702846B3
S2140019C0236BA26B9A4288BFA36310B0BDE8F08178
S2140019D0237C33B91C490BAA04F1080001F028F84F
S2140019E0D5E72046194A0BABFFF750FFCFE7237C1D
S2140019F023BB2246164904F1080001F019F8616A73
S214001A00204642F013FA616A421C204642F0DCF996
S214001A10054620B9236B626C1344143B23632046AF
S214001A20A16A42F06FFA2368A062C01A636CB0FB2A
S214001A30F3F06062204642F0A8FAB6E7002320469C
S214001A40044AFFF723FFDAE7192200009521000079
S214001A508D4004002740040073B50D46D11E4A424F
S214001A601C461B7E4A419A4227D129682368994220
S214001A7023D36368994220D8114E0DF107033246EE
S214001A80FFF75AFEC8B972686B689A4215D19DF87E
S214001A900730DA1E53425341227E93420DD16369CA
S214001AA001336361D4E90323934206D22968A2680E
S214001AB042F82310236901332361012002B070BD70
S214001AC0182600202DE9F04F9A468BB09DF850302E
S214001AD0DFF850B10293DBF81030804653450D46D0
S214001AE01646C0F09980D146DBF804300193B9F170
S214001AF0000F00F08D80D8F83C3001225B6907A902
S214001B000198984707A842F04CFDDBF80030984251
S214001B1040F0858007A842F050FD0428074614D1FF
S214001B2007A842F051FD019B029A04463B44002A56
S214001B303FD1864212D91446361A4046019942F0E1
S214001B40E1F9A9EB04090190D1E7D8F83C3002226C
S214001B505B69019808A9984708A8E2E7841B5445E2
S214001B6028BF5446032C03EB0607AAEB040A4FEAE9
S214001B7094021CD9D8F83C30294638465B69984709
S214001B8024F0030304F003061F441D44002ED4D0A3
S214001B90D8F83C3001225B6908A938469847324697
S214001BA0284608A9354447F077FC0026C5E72646B0
S214001BB0ECE7074600F00302039203442A18049257
S214001BC00593049BDD1B059BD81B039B9F420FD1EF
S214001BD0002FB2D0D8F83C30012208A95B6998479C
S214001BE03A46284608A947F022FC78B93D44A4E7BF
S214001BF0D8F83C30012208A95B6998470422284699
S214001C0008A947F014FC08B9043FDAE74FF0360994
S214001C1048460BB0BDE8F08F4FF06309F8E74FF089
S214001C206F09F5E7442600202DE9F0410F461646D9
S214001C309846044688B060B390F83450FDB1012150
S214001C4042F098F800210E9BCDE90511CDE9023748
S214001C509DF83C30CDF804808DF81C30237C04962B
S214001C608BB90D4901AA04F1080000F0E1FEDDE998
S214001C700553E06B002E08BF1D4642F015FA2846B5
S214001C8008B0BDE8F0812046044A01ABFFF7FEFD30
S214001C90EDE70546F3E700BF55400400591A00007B
S214001CA02DE9F04F99B00F4609920A69416C0E93E0
S214001CB01439D31DB3FBF1F3013302EBC302036BFC
S214001CC004469342C0F00D820023DFF820940D9363
S214001CD0E36A48461946079300F02EFFD7E9033615
S214001CE004930E9B022B4ED1CC2E40F08A81099B8A
S214001CF0002B42D03946204642F034FA656C079AEB
S214001D006B1E13401490ED1AE36B01225B6916A953
S214001D107868984716A842F048FC00280CBF0423B1
S214001D200823782E06933DD9012300254FF0080A94
S214001D3005933B6805990E98C9F80030C9F81060FD
S214001D4042F055FC4FEA9A0310930023DDF81CB0CE
S214001D5089F814000B930F9308930C93616C4A1E3A
S214001D600BEA02028B1A002E38D05544AB4240D8FC
S214001D70236B5B1A13442363ABE0049B1B6814932A
S214001D8008230693D0E7656C079A6B1E1340782EDF
S214001D90A5EB030516D8FB7D7BB9099B002BB3D1B9
S214001DA004230693331DAB4210D9A6B1082DBBD829
S214001DB004250023AA460593BBE7099B002BA3D165
S214001DC00823EEE7099B002B9ED1D9E70025059551
S214001DD04FF0040AADE704250596F9E75345C7D347
S214001DE0B0460BEB0A030393089B002B18BF032394
S214001DF013E0A3EB0A039E42B0460BEB0A0228BF91
S214001E0098469E420392EFD90123D9F8102089F80C
S214001E101730964271D1C9F804B0089399F8173074
S214001E20002B6CD099F818200899D31C09EBC30333
S214001E300132C3F804B0A3F80880997289F8182014
S214001E40B8F1000F14D00E9B022B5BD10B9B7BB915
S214001E500F9B4344032B0BD9E36B01229B6903982A
S214001E6014A998470546002840F03D8101230B93AE
S214001E70089B16A80193059B009399F814204346E7
S214001E80396800F00FFEE36B58469B69109A16A956
S214001E909847051E0D9B18BF5B4652460D93594644
S214001EA04346204642F05BF8236B08F10302A3EB9F
S214001EB00A0322F003029B1AC9F808002363002DC8
S214001EC040F011810F9BDDF80CB04344A6EB0806EA
S214001ED00F935946204642F015F800258346002EFB
S214001EE07FF43CAF814A04F1080093685268E362CD
S214001EF039680E9B00F044FDDEE002238DE7C9F84A
S214001F0004B09DE7099B002B30D1049BB8F1030F6A
S214001F1043440A9327D9DDE90301E36B4FEA9802AD
S214001F209B6998470546002865D118F003025FD0E4
S214001F30049B28F003052B440493039B1D444FF099
S214001F40FF33049915A8159347F0A6FAE36B2846C5
S214001F509B69012215A9984705460A9B0493002D04
S214001F6086D0039B99E74246039DE8E7039B0A93C6
S214001F7007F120031193FB7D78689BB100233D7E1B
S214001F800C9AD9B28D4211D9119903F1010C31F88E
S214001F903310914226D9069907EBC303D8690A4441
S214001FA0104403E00C9B069A13441844E36B01228A
S214001FB05B6915A99847159B012213930C9B0A98F9
S214001FC004330C93E36B13A99B699847039B0A9A07
S214001FD043449B1A042B054607D978B913460433A5
S214001FE00A93C8E76346521ACBE70A9B0393B6E701
S214001FF00A9B04933CE70A9B0493B2E70A9B03936D
S214002000AFE7702604F1080303932368079A606C11
S214002010A2EB030ABAFBF0FA00FB0A3042F07FFBA1
S214002020E16A8046204641F06DFFA26A82424AD0AD
S214002030626CD9F80830511E0B40216B2568891A4E
S2140020400B4423630D9BE0625D1BB5FBF2F5AA45CE
S21400205036D1079BB3EB080A12D0E36B4FEA9A021D
S21400206041469B6998478346E36A079A5344E3626E
S214002070236B03989B1A4344236342F0A8F9DA467D
S2140020802368616CE06B01FB053142F0BDFA204627
S21400209041F07BFE204641F078FF2063BAF1000F46
S2140020A011D03A69616CD31D1439B3FBF1F30133D7
S2140020B002EBC3029042A8D2304619B0BDE8F08FBA
S2140020C04FF0000ADCE73A69616CD31D1439B3FBA4
S2140020D0F1F3013302EBC302236B9342BFF4F8AD76
S2140020E0EAE71C26E8E72E468CE700BFEC25002032
S2140020F02DE9F3471E4643690446B3428846174611
S2140021009DF828903DD300258DF80750204641F0D5
S21400211008FED4F830A082450AD2236AB5EB430FF6
S21400212006D2002220460DF10701FFF7EBFB30B385
S2140021309DF80730012B05D1002220460DF107013E
S214002140FFF7E0FBB9F1030F06D03146204641F019
S214002150D3FD256B854218D30D4D4FF0FF31284631
S21400216000F0EAFC4B46002229462046C5E90376E5
S214002170C5F8008002B0BDE8F047FFF791BD013515
S214002180C4E7622002B0BDE8F0871C20FAE700BF73
S21400219018260020032A2DE9F34106460D46174669
S2140021A01C4606D1237A012B23D0012002B0BDE8BD
S2140021B0F081DFF86080096842460DF10703FFF7FB
S2140021C0BBFA60600028EDD19DF80720237A032A29
S2140021D0E8D0D8F804106A689142E3D1012B296947
S2140021E0D4F80CC007D172690CEB0103934202D9F4
S2140021F02074207CDAE708316144E1603B46012226
S21400220029463046FFF74CFD60600028CAD0002003
S214002210CCE700BF18260020F7B5089C032A164610
S214002220256805D1237A012B22D0012003B0F0BD0A
S214002230254F28463A460DF10703FFF77DFA606002
S2140022400028EFD1D4F800E07868DEF82810DEF831
S21400225044C04840CCF100031840227AE2D1012A5B
S21400226008D1E2683B6913446A69934202D9207434
S214002270207CDBE7DEF80020DEF82C30891A9B1A7B
S214002280B3FBFCF3B1FBFCF18B420DD1696CEB6A3E
S2140022904A1E13402A6B521A13442B63256828469D
S2140022A0A96A41F02FFEE8623A69E36808321344EF
S2140022B0E3600122334604492068FFF7F1FC6060C2
S2140022C00028AFD00020B1E7182600202DE9F04FF7
S2140022D04FF0FF334FF6FF720025044600F1080664
S2140022E0C0E909238BB0C3620562056330460F461A
S2140022F042F06DF8204641F048FD20BB20463946A6
S21400230041F0C3FD204641F040FD20BB5E200BB0EF
S214002310BDE8F08FE26B2368606CD2F814C000FB57
S2140023200530052205A9E04705A842F0C8F90128AE
S21400233028D12946204641F079FD421C29462046F0
S21400234041F042FD0135E3699D42E3D3204641F06A
S2140023501CFD0028D2D000254FF0FF394FF6FF7342
S214002360CA46A846C4E90853E369984514D3A5EBC2
S2140023700905012D36D84FF6FF72636A934246D19F
S2140023806720C4E742F0C5F90028DBD0294620467E
S21400239041F04CFD0246D1E72368E26B606C57695A
S2140023A000FB0830052205A9B84705A842F087F9C2
S2140023B0834605A842F05AF90746584642F0A4F963
S2140023C068B1574538BFC4F82480B94528BFB94618
S2140023D0BD4238BF3D46BA46236A0133236208F140
S2140023E00108C1E74FF6FF7300256362E3699D426B
S2140023F0C1D2676C2068E36B052207FB05005B69AA
S21400240005A9984705A842F031F90135EEE7E26BD9
S214002410676C2068694607FB030055690522A847D4
S214002420684642F023F9626A2368606C504D00FBF0
S214002430023042F074F94FF0FF33A062E3622A469E
S2140024406FF00101204605ABFFF776F900284FD163
S214002450AD6829462046E56241F073FC206320B94A
S2140024602046E16A41F04EFDE0622946204641F0F2
S21400247049FD0546A36A9D423CD16569626CE91C2C
S214002480143AB1FBF2F14FF0000805EBC105033535
S214002490B5FBF2F5C1460235E36999453CD3A8453C
S2140024A05AD22046616A41F0A0FC0027064604F195
S2140024B0400AB84512D8626C2368694602FB0639A2
S2140024C0E36B05225B6948469847684642F0CEF8BB
S2140024D0534602464946E06B42F023F93146204611
S2140024E041F083FC0137AF420646E2D364200EE794
S2140024F0A56AAEE72946204641F023FC236B294611
S214002500034407462363204641F0FCFC0546002FA3
S214002510B0D1C4E90B07ADE7636C2768052203FB5F
S2140025200977E36B05A95B693846984705A842F02A
S214002530C6F842F0E9F860B1384642F0F0F80146D5
S214002540204641F0FEFB636C143B984208BF08F13E
S214002550010809F101099FE7304641F038FF0023E2
S21400256020461946034AFFF791F90020CFE600BF40
S21400257018260020F13F040000232DE9F041614AAF
S2140025800E4617680446136018B921252846BDE88C
S214002590F08190F834500DB309680268914240F01B
S2140025A0A98071684268914240F0A480B168826850
S2140025B0914240F09F80F168C268914240F09A8054
S2140025C031694269914240F09580B169C26B91428F
S2140025D040F0908072691D468261D7E7D0F8388057
S2140025E05022294646F04DFFC4F83880336804F17F
S2140025F00800236073686360336963617369A3616D
S214002600D6E9021241F0F5FEB36904F14000E36337
S2140026109B68984794F8432020B1E561002AB4D01F
S2140026205B25B3E7656C002DF7D06668B6FBF5F35F
S214002630E361002AA9D0B542F2D82268B2FBF5F1D0
S21400264005FB1122002A57D105FB1363002B53D13B
S214002650204641F066FBA369043303449E424DD3F3
S21400266040F634726369CC3B934249D8B5F5805F37
S214002670D6D30321204641F07DFBD4E90001E36B6D
S2140026801B6898470546E36B0220DB6898471DB138
S214002690002384F834301DE039462046FFF716FE46
S2140026A06428054604D139462046FFF70FFE054646
S2140026B0636C143B002DEBD1226A204602FB03F626
S2140026C041F02FFBA369043303449E4206D284F8EC
S2140026D034505A25E06B41F0E7FC57E70123D4E974
S2140026E00001094A84F8343013680133136041F05E
S2140026F01AFFEFE75D2549E7592547E75A2545E7DD
S2140027005F2543E77C1F0020781F00202DE9FF414E
S2140027100F4690461E46054698B390F8343093B35D
S214002720B1F5801F31D21A4C022141F023FB22461C
S214002730394628460DF10F03FEF7FEFF024678B134
S214002740012342460093394633462846FFF7D0FC1D
S2140027500446E86B41F0A8FC204604B0BDE8F081D2
S2140027609DF80F30012BEBD12169B142E8D10093DF
S214002770414633462846FFF7A5F904460028DFD130
S214002780E7E72124E8E71124E6E72924E4E700BF89
S214002790442600202DE9FF410C4616461F460546F6
S2140027A080B390F834307BB3B1F5801F2ED2DFF8BB
S2140027B06080012141F0DEFA2146424628460DF1AE
S2140027C00F03FEF7B9FF044670B99DF80F30012BD2
S2140027D011D1D8F81030BB4212D1024600903146D3
S2140027E02846FFF76FF90446E86B41F05DFC20468B
S2140027F004B0BDE8F081022B14BF2D246024F3E75B
S2140028006324F1E72124F2E71124F0E72924EEE718
S214002810442600202DE9F04385B00C4617461E4698
S2140028200546DDF8308098B390F8343093B3B1F5B0
S214002830801F31D2DFF86490012141F09BFA2146D7
S2140028404A4628460DF10F03FEF776FF044688B980
S2140028509DF80F30012B14D1D9F8102006EB080391
S2140028609A4213D300904346324639462846FFF72D
S21400287029F90446E86B41F017FC204605B0BDE890
S214002880F083022B14BF2D246024F3E76324F1E7C2
S2140028902124F2E71124F0E72924EEE7442600205D
S2140028A02DE9F3411F4600230C46164605463B60BD
S2140028B050B390F834304BB3B1F5801F28D2DFF810
S2140028C05480012141F056FA2146424628460DF131
S2140028D00703FEF731FF0446A0B99DF80730032B27
S2140028E010D0022B0AD10123336004233B60E86B2F
S2140028F041F0DAFB204602B0BDE8F0813060D8F83F
S2140029001030F3E72D24F2E72124F3E71124F1E752
S2140029102924EFE74426002030B50C46054685B04E
S21400292028B390F8343023B3B1F5801F23D20221A8
S21400293041F020FA0DF10F03214628460F4AFEF714
S214002940FBFE034688B99DF80F20032A0DD003220C
S2140029502146009202462846FFF7CAFB0446E86B6B
S21400296041F0A2FB204605B030BD2D24F7E7212418
S214002970F8E71124F6E72924F4E700BF44260020F0
S2140029802DE9F0414668002E3AD0056898464FF08B
S214002990000CAE4655F83C40C4F31307013401D092
S2140029A0B94222D00CF1010C66450EF1080EF1D1A9
S2140029B000273C4603E0A64207F108071DD055F85D
S2140029C0343001340133F6D16FEA01316FEA113148
S2140029D0E9510168CB59C3F3130343EA0853CB51BB
S2140029E003683B445A60BDE8F08141EA0851CEF8DE
S2140029F00010036803EBCC03F4E7B8F1030F03D130
S214002A0001230372BDE8F08100273C4603E0A6429E
S214002A1007F10807F4D055F834300134C3F3075CE7
S214002A20BCF1030FF3D11B0D1B050B43EB51D0E795
S214002A302DE9F0410646406882B0C0B10F46904688
S214002A400024336853F8345003EBC403C5F307522D
S214002A50C5F31301013504F1010406D05B68304666
S214002A60CDF80080B84710B170688442E9D302B050
S214002A70BDE8F081024B1968024B1868FFF77CBD71
S214002A80EC0101200C02012008B557F000FE014BB6
S214002A90186008BD70260020014B186857F0F2BD7C
S214002AA07026002073B504462248012A00EAC111A8
S214002AB09DF8185023F07C4007D9961E012E28D981
S214002AC0073303F07F03194308E09DF81C300A43E0
S214002AD0DB0603F0C053134343F060410023C4E910
S214002AE000108DF80730B5B1202221460DF1070001
S214002AF041F031FE1A220DF10700211D41F02BFE98
S214002B00082063689DF8072043EA8263636002B08A
S214002B1070BD1143E2E71B220DF10700214641F08C
S214002B201AFE23689DF80720042043EAC263236048
S214002B30EDE700BF80FFFF0738B5094B0D461A6862
S214002B400021044646F09DFC4FF0FF320023C4E906
S214002B5000252361A260E3822383A37638BD00BFED
S214002B602CB605000138C0B205289ABF014B185C88
S214002B700120704731B605002DE9F041074615469D
S214002B8000240E46596888B0490A012922464FEAB1
S214002B90510104F10104F8D8DC78997824031B88E5
S214002BA0C90201F4006104F480540C43C3F30A0321
S214002BB05203234492B24FF000089C18274B6FEA4A
S214002BC00444039325F07843ED4302A90DF1070072
S214002BD01B2202938DF8078041F0BDFD9DF807206B
S214002BE0029B02A943EAC2630DF107001B2225F0EF
S214002BF07845049302958DF8078041F0ACFD9DF86A
S214002C000720029B6FEA144443EAC26305934FF021
S214002C10FF330794069307A9BB69012206F110004B
S214002C209847BB6905A90446012206F108009847A3
S214002C30BB69404518BF044604A90122301D9847C9
S214002C400122404518BF0446BB69304603A9984791
S214002C50404508BF204608B0BDE8F08101009AB2A2
S214002C60F0B505466F4F89B001AE0C460FCF0FC6C4
S214002C7097E8070086E80700002D00F0D18014B919
S214002C80694809B0F0BD002684220021284646F097
S214002C90F8FBAE652368654A934200F0988002F51B
S214002CA08042934200F0988002F580429342E7D13A
S214002CB04FF4C02302265E495E4AC5E90B23296508
S214002CC02368A4462B6000232F1D85F85C30BCE8E3
S214002CD00F000FC79CE80F0087E80F00637E012BEC
S214002CE008BF8DF81230A37E3BB1012B7AD0022BA1
S214002CF07BD0032BC4D14FF44073ADF81430237E41
S214002D004D48012B03BF00238DF811304FF4E133FB
S214002D10E368039343F03BFE2B6D986843F037FE61
S214002D2023691A1F0C2AABD8033B206801A98DF82B
S214002D30103041F004FEA36923F47F0323F47F439D
S214002D4023B92A68936843F480339360237A217901
S214002D5006F12E0241EA0341384BE07E03EB4212B5
S214002D605160617A6279760142EA014200283FD1D9
S214002D701E44C6F8BC25A27AA37943EA0243C6F8E5
S214002D80C035E27AE37943EA0243C6F8B0351D233C
S214002D90C6F8AC350121284641F0FBFC00287FF43C
S214002DA070AF57F087FC264B1A7872BB01221A7058
S214002DB057F07BFC05F0B8FBFEF71CFB002105F185
S214002DC02400FEF7E7FA014610B31E4859E74FF411
S214002DD080231D491D4A70E74FF4A02301261C4995
S214002DE01C4A6AE74FF4007387E74FF4807384E762
S214002DF03344C3F8BC25A17AA27942EA0142C3F85B
S214002E00C0251C22C3F8AC25C4E757F04EFCD3E718
S214002E1005F12800FEF7BEFA00283FF432AFD4E7EB
S214002E200D482EE738B60500022000F00080055059
S214002E30F8B80500020006002CB9050000C00350D3
S214002E40BCA10020092000F010B905000200040013
S214002E5004B9050002000500012000F00021084624
S214002E60F0B52F4C2F4A2368156845B11D68002D14
S214002E704BD09D889688AE4284BF13460121013010
S214002E80052802F10802EFD101B1236000210D46AA
S214002E902548264A0368166846B11E68002E37D0B5
S214002EA09E889788B7423CBF134601210135052D01
S214002EB002F10802EFD101B1036023681A6852B329
S214002EC01B499C888A6F1B4B22F0FF7203EA04435F
S214002ED022F4803213438B674FF050234FF00042AA
S214002EE09A6603681A68C2B111499B888A6FC3F351
S214002EF0080322F4FF7222F0010213438B674FF09F
S214002F0050234FF080429A66F0BD13460121B6E783
S214002F1013460121CAE7084BE0E7074BF1E700BF7D
S214002F2078260020A4260020742600207C26002078
S214002F30004000500000FF010060005008B500F09F
S214002F40D5FDDFED117AB4EEE70AF1EE10FA17D4EC
S214002F50DFED0E7AB4EE670AF1EE10FA37FE800A5D
S214002F60F6EE007A30EE270ADFED097A30EE270A11
S214002F70BDEEC00A10EE103AA3F1800040B208BDC4
S214002F80B0EE670AECE700BF000000C30000FE4298
S214002F900000004310B5164A936E526E134013F0AD
S214002FA0804113D0134B186804683CB100210822F6
S214002FB046F067FAFFF7C2FF0021A0474FF08042B5
S214002FC00D4B5A66BDE81040FFF748BF002BF9DAF4
S214002FD00A4B1868046834B1082246F052FAFFF724
S214002FE0ADFF0121A0474FF00042034BE9E700BFC9
S214002FF00040005074260020006000507826002014
S21400300038B5104B0546D3F800310C4603F00303E1
S214003010022B0BD0032B0DD0012B0FD154F08CFFBD
S214003020032305B1286004B1236038BD54F0D2FFF5
S2140030300723F6E754F086FF0623F2E70123002075
S214003040EFE700BF0080005038B5134B0546D3F8B5
S21400305020010C4600F0070004281AD8DFE800F02C
S21400306003090D111500012305B1286004B1236082
S21400307038BD54F021FF0423F6E754F05DFF032328
S214003080F2E754F063FF0523EEE754F051FF022306
S214003090EAE700231846E7E70080005038B5104BF3
S2140030A00546D3F840310C4603F00303022B0BD041
S2140030B0032B0DD0012B0FD157F00FFB082305B1C2
S2140030C0286004B1236038BD54F084FF0723F6E778
S2140030D057F006FB0923F2E701230020EFE700BFC5
S2140030E00080005038B5104B0546D3F860310C46CA
S2140030F003F00303022B0BD0032B0DD0012B0FD1B3
S21400310057F0EBFA082305B1286004B1236038BDF8
S21400311054F060FF0723F6E757F0E2FA0923F2E7D8
S21400312001230020EFE700BF0080005041F6713316
S21400313030B5124A124DD469D3639368A84204F49A
S214003140803423F4401306D893600E4AD2F818321F
S21400315023F002030AE043F4801393600A4B98427C
S214003160F3D9084AD2F8183243F00203C2F81832EC
S21400317014B10022014BDA6330BD00BF00000350DB
S214003180005A620200C0075080F0FA022E4B9842A6
S2140031904AD022D82D4B984240D014D82C4B984277
S2140031A039D00AD82B4B984232D02B4B98422FD08E
S2140031B02A4B98422CD000207047294B9842FAD1CF
S2140031C0284B186F7047284B98422AD0274B9842B6
S2140031D0F1D1244BD3F880007047254B98422BD072
S2140031E009D8244B984223D0234B9842E3D11D4B59
S2140031F0D3F88C007047214B984221D003F5740316
S21400320003F510539842D6D1164BD3F89800704762
S214003210144B986D7047134B586E7047114B586F90
S2140032207047104B986F70470E4BD3F8840070476A
S2140032300C4BD3F8880070470A4BD3F890007047C1
S214003240084BD3F8940070470048E8010024F400C7
S214003250C0CF6A0080841E0000093D0040420F0077
S214003260405DC6000080E00FC0EA210180BA8C01F4
S214003270007E560380D54302006CDC020090D0032B
S21400328037B50C460021114B0191D3F88031054625
S21400329003F00303022B0ED0032B11D0012B03D116
S2140032A001A8FFF7D1FE0D210DB1019B2B6004B1E3
S2140032B0216003B030BD54F049FE05210190F3E7CC
S2140032C054F036FE02210190EEE700BF0080005069
S2140032D038B5104B0546D3F840320C4603F00303CE
S2140032E0022B0BD0032B0DD0012B0FD157F0F5F985
S2140032F0082305B1286004B1236038BD54F06AFE87
S2140033000723F6E757F0ECF90923F2E700231846FF
S214003310EFE700BF0080005038B5144B0546D3F8E1
S21400332000020C4600F0070004281BD8DFE800F077
S21400333003090D111500012305B1286004B12360AF
S21400334038BD57F0CAF90823F6E754F043FE0723C2
S214003350F2E757F0C5F90923EEE754F0D3FD0C2346
S214003360800AE9E700231846E6E700BF0080005021
S21400337038B5144B0546D3F808020C4600F0070093
S21400338004281BD8DFE800F003090D1115000123FF
S21400339005B1286004B1236038BD57F09EF90823B4
S2140033A0F6E754F017FE0723F2E757F099F90923DA
S2140033B0EEE754F0A7FD0C23800AE9E70023184641
S2140033C0E6E700BF00800050032814D005D8012887
S2140033D005D0022809D0002005E00F28FBD1084BB5
S2140033E0186FC0F3013001307047054BD3F89000DA
S2140033F0C0F30460F7E7024B186FC0F38020F2E7D3
S214003400008000501FB500230193252817D8DFE859
S21400341000F0131A1D272C363B51565B60656A7800
S214003420161A401616561A272C27361A5127783B96
S2140034303B3B3B2727275B6054F044FD01900198F7
S21400344005B05DF804FB54F05DFDF7E754F03AFD77
S21400345002460220FFF7B8FFB2FBF0F20192EEE759
S21400346054F050FD02460320F4E754F04BFD0246AC
S2140034700320FFF7A9FFB2FBF0F25208EEE70021A7
S21400348001A8FFF7FDFEDAE7002101A8FFF7DCFD43
S214003490D5E702934FF0E0231B695B0705D554F090
S2140034A031FD0290029B0193C9E703A902A8FFF72A
S2140034B0F5FDF7E7002101A8FFF7F0FDBFE70021C3
S2140034C001A8FFF70FFEBAE7002101A8FFF724FFC7
S2140034D0B5E7002101A8FFF74BFFB0E7002101A8E0
S2140034E0FFF78EFDABE7094BD3F8803003F00303FC
S2140034F0022BA8D0032B01D000209FE754F026FD16
S2140035009CE7002101A8FFF7E3FE98E70080005043
S21400351008B50120FFF776FFBDE80840034988425A
S21400352094BF01210221032000F002B880F0FA02C5
S214003530032810B50C4627D004D8012804D002284A
S21400354017D010BD0F28FCD141F09AF941F0A0F930
S214003550124A013C136F23F4405343EA04331367C3
S21400356054F0D0FC0021FFF7E1FDBDE81040FFF766
S214003570CFBF0A4A4C1ED2F8903023F0F85343EAE5
S2140035800463C2F89030DCE7044A4C1E136F23F441
S214003590806343EA84231367D3E700BF00800050AC
S2140035A01FB500230193252821D8DFE800F013205B
S2140035B02020202A2F454A4F54595E71202034205F
S2140035C0204A202020202A204520712F2F2F2F2010
S2140035D020204F54314B1B6F03F00703013B032B96
S2140035E005D8DFE803F00C02080A042301930198CB
S2140035F005B05DF804FB0323F8E70623F6E702238D
S214003600F4E7002001A9FFF73BFEF0E7002001A940
S214003610FFF71AFDEBE702934FF0E0231B695B0709
S21400362005D554F06FFC0B230393039BDEE703A939
S21400363002A8FFF733FDF8E7002001A9FFF72EFDEB
S214003640D5E7002001A9FFF74DFDD0E7002001A92E
S214003650FFF762FECBE7002001A9FFF789FEC6E769
S214003660002001A9FFF7CCFCC1E70C4BD3F8803053
S21400367003F00303022B03D0032B05D00023B5E78A
S21400368054F040FC0B23B1E754F060FC0523ADE793
S214003690002001A9FFF71CFEA9E700BF008000502C
S2140036A008B50320FFF790FE034B187041F0E8F8CA
S2140036B0BDE8084041F0ECB8BDA1002010B50446B6
S2140036C054F020FC0021FFF731FD1CB1BDE810408E
S2140036D0FFF71EBF034B0320BDE810401978FFF725
S2140036E027BF00BFBDA10020024A536A23F0010392
S2140036F05362704700C0075008B5FFF751FF072810
S2140037000ABF024B4FF6FF70188808BDC20C012096
S21400371008B5FFF745FF03280ABF024B4FF6FF70B8
S214003720188808BDC00C012038B50546FFF72EFDE9
S214003730204B04465A68012A04D11F494A609A69F8
S2140037409207FCD10020FFF72BFF042803D141F09D
S21400375097F841F09DF8194A24F0407395421FD01F
S214003760174A95421FD0174AD16811F0060FFBD1B1
S2140037709068936091684B4013F4F81F16D1284662
S214003780FDF772FB0020FFF70BFF042810D154F062
S214003790B9FB0021FFF7CAFCBDE83840FFF7B8BE0A
S2140037A043F00073DFE743F08073DCE79060E9E7FF
S2140037B038BD00BF00C0015000E0015040420F007D
S2140037C080841E000000015010B504460020FFF75C
S2140037D0E7FE03287AD045F60E030221434AC2F8D4
S2140037E08030434B9962012103F580539962936DB3
S2140037F0D903FCD4D4E900131B0543EA0163E17B3B
S2140038000B43217B43EA0143617B43EA0133A17BFF
S21400381043EA811313619169D4E904031B0643EA62
S214003820806301F000410B43A17E0B43217E43EAF7
S2140038300143617E43EA01239361136AE16923F041
S2140038400D030B43003918BF0121E07E43EA8003D5
S21400385043EAC1031362E36994F82000002B36D1D3
S21400386094F82130916A1B0121F0330143EA40139A
S2140038700B4343F0010393621E491C4A936D31EAE1
S2140038800303FBD102211A4B9962936D5B00FCD4B3
S2140038901369A16823F4700343EA015313614FF0E0
S2140038A00042134B9A6194F8223013B90222124B4D
S2140038B09A6294F8233013B901220F4B9A6294F857
S2140038C024301BB1094B0D4AC3F8802010BD936A03
S2140038D094F8231023F033030B4394F8221043EAA2
S2140038E0401343EA41039362E9E700BF00C000507B
S2140038F000D000500300014000E00050F1A7FFFF99
S214003900014B93F900007047BEA100204FF4D1513F
S21400391010B50224174A4378516217494F2B4C6062
S2140039204FF0010428BF4F2301F580514C60116908
S214003930C903FCD4017843EA01235361D0E901139B
S2140039401B0143EA0123417B0B43017B43EA41030E
S2140039509360C37B817B1B0143EA4113417C0B438D
S214003960017C43EA41035360837C13B16FF4D15367
S214003970536210BD0000025000100250014B188028
S214003980704700BFC20C0120014B1880704700BF73
S214003990C00C0120284B984242D01AD8A3F5B70392
S2140039A0A3F55863984237D00CD8244B984225D0BC
S2140039B0234B98422AD0234B984217D00023224A02
S2140039C093607047214B9842F8D1214BD3F8BC3016
S2140039D01FE0204B984227D01F4B984228D01F4B01
S2140039E09842EBD11A4BD3F8C83012E0184BD3F8F4
S2140039F0A03023F0407343F00073E0E7144BD3F895
S214003A00A03023F0407343F08073D8E7104BD3F810
S214003A10A03023F04073D2E70D4BD3F8B830F8E768
S214003A200B4BD3F8C030F4E7094BD3F8CC30F0E7B3
S214003A30074BD3F8D030ECE7C0EA210180841E00A3
S214003A4000093D0040420F000040015A0024F400E7
S214003A500080E00F0048E801005A620280BA8C013C
S214003A6010B50C4A0446136943F00403136154F07E
S214003A70D3FF40F011FF084B084AC3F8202430BF9C
S214003A8040F00BFF04F012FD1CB9BDE8104054F0E6
S214003A9039BA10BD00ED00E000E003500000FFFF63
S214003AA010B50A4A0446136943F004031361084B31
S214003AB0084AC3F8202454F0AFFF30BF04F0F6FCE9
S214003AC01CB9BDE8104054F01DBA10BD00ED00E072
S214003AD000E003500000FFFF034A0179D36E23F095
S214003AE030030B43D366704700400050064BDFEDB3
S214003AF0077AD3F88830C3F30A0300EE103ABAEE1A
S214003B00CF0A30EE670A7047004000503393884370
S214003B10072A2DE9F0410D46144698460FD803268D
S214003B209700BE4000FA07F23146154840F0B8FE4E
S214003B3005F0030231461348BA4040F0B1FE124B7E
S214003B4012499DF81800B8F1000F18BF1946012356
S214003B5003FA04F40C600E4B0E49002818BF0B46FF
S214003B601C600D4B1031C3F820449DF81C0003F276
S214003B702443002818BF0B461C60BDE8F08100BF38
S214003B8000C4035008C4035010D4035010E403507C
S214003B9014E4035014D4035000E00350F8B5044670
S214003BA00D461F4616464AB101238B403021184A5F
S214003BB001FB0022F7B141F21001535004EB44031D
S214003BC0072D4FF00F014FEA031316D8A80006FA88
S214003BD000F281400F48184440F062FE4EB90123BF
S214003BE030210B4AAB4001FB042277B141F21001B1
S214003BF05350F8BD42F21001DFE7A5F1080080003F
S214003C0006FA00F281400448E5E742F21001EFE7C9
S214003C1000C0035004C003500CC00350012210B56E
S214003C20114B04465A60027812069A6041788278F0
S214003C30152042EA01429A61FF229A6200229A63A4
S214003C401A644FF000425A654FF0FF3203F50053F6
S214003C501A6504F049F81520E17842F0DDFEBDE86B
S214003C601040152004F016B80000045041F67132DA
S214003C70034BDA63012203F50053DA60704700BF96
S214003C800000035041F671320121044BDA6303F55C
S214003C900052D1600022DA63704700BF0000035074
S214003CA0013825289ABF024B185C0020704700BFD9
S214003CB054B60500021E30B54FF000000CBF0C25B0
S214003CC0042547F60774084952B9831D51F8233076
S214003CD0234023B101308542F6D14FF0FF3030BD8E
S214003CE000F11203F2E700BF0080035038B5C2F3BC
S214003CF00625044602F0070241B942EA052242F4CC
S214003D0040220634074B43F8242038BD1146284687
S214003D1040F0D5FD02462846FFF7C2FF123442EABD
S214003D200022EFE700800350CB784A785B0143EA35
S214003D3082030A7813430A7943EA02130C224243A9
S214003D4002F1B04213630B78012B02BF8A78024B54
S214003D5043F82020704700BFD080035008B54FF0CE
S214003D60B0435A686AB958B15B680BB140F0D0FDF1
S214003D7001210D4B596040F0CBFD4FF0B043D960A8
S214003D8008BD5B680BB140F0C3FD0028F0D140F0E1
S214003D90BFFD4FF0B0430222DA6040F0B9FD0122C9
S214003DA0024B5A60ECE700BF001000580020005895
S214003DB04FF0B04110B54B680BB140F0A9FD0122A1
S214003DC00B4B5A608378C478934043EA8403447864
S214003DD02343047943EA0413447943EAC4038B601B
S214003DE0044B5A600378C3F10203CB6010BD00BFDA
S214003DF00020005800100058054B5B69C3F385127D
S214003E00827003F03F021B0B42700370704700BFC6
S214003E1000C00750014B986CD96C70470080E00FCB
S214003E200120034B9B680A3303F01F03984070473A
S214003E300080E00F0D4B984208D1A3F50033C3F87D
S214003E408411C36D43F08003C3657047084B9842E6
S214003E5004D1A3F51033C3F89411F2E7054B98424A
S214003E6004BFA3F52033C3F8A411EAE70080055089
S214003E7000C0055000000650012200F580535A602D
S214003E8040F6AA6341F20502436100230D498360B0
S214003E90C365C26000F500520361C361C3649164E8
S214003EA009498365884203D103650023436506E01C
S214003EB006498842F8D001F580418842F4D00123B3
S214003EC053607047FFFF01000080055000C005509A
S214003ED0034BD3F82424D3F820041040704700BFC7
S214003EE000C00350064BDA6E02F03002202A06D0DD
S214003EF0DA6E22F0300208B142F01002DA6670473D
S214003F00004000502DE9F0411E4B0446D3F8103314
S214003F104B1E0E2B0D4617461FD919B34FF000083F
S214003F202046E7B156F0DFFB63782678072B06EBD2
S214003F3046064FF00F014FEA061615D89B001248AA
S214003F4008FA03F29940304440F045FDBDB92046DA
S214003F508FB1BDE8F04156F0C6BB8846E0E740F0BA
S214003F6049FDE1E78846DFE7083B9B00074808FA7B
S214003F7003F29940E7E7BDE8F04140F03BBDBDE8FD
S214003F80F08100BF00C0035004C003500CC00350B3
S214003F902DE9F041204B1646D3F810234A1C05465F
S214003FA00C46407804D1D3F8241440F031FD044682
S214003FB0002C2EDB072C14DC03274FEA84082A7813
S214003FC007FA08F73946154802FA08F240F003FDEA
S214003FD06A78394602F00302114802FA08F240F005
S214003FE0FAFC012316F0050F0E4A18BF0E4903FA15
S214003FF004F30CBFC2F81034C1F8103416F0060FE4
S21400400018BF094AC2F814340123064AA340C2F86E
S21400401020342046BDE8F08100C0035000C40350A1
S21400402008C4035000E0035000D0035038B50546DE
S2140040300C4C0140D4F8303423EA0003C4F8303482
S214004040D4F830341943C4F83014D4F82C3403436D
S214004050C4F82C34012004F50054FFF743FFC4F8DD
S214004060205438BD00C0035070B5124B0646D3F836
S214004070103340F0E7FC0446481C154603D1621C8A
S21400408005D1204670BD631CFBD08C420ED1304655
S214004090032185F00102FFF735FF012004F110032C
S2140040A005FA03F19840FFF7C1FFEAE74FF0FF3447
S2140040B0E7E700BF00C00350064B5B691A0B0270AF
S2140040C003F03F0242704FF6FF72C3F3851342803F
S2140040D08380704700C0075040F6B732064B5B68D7
S2140040E09BB293429FBF4FF47A72B3FBF2F3034A3C
S2140040F0D05C88BF002070470080E00F7AB60500CD
S214004100014B986CD96C70470080E00F70B5044680
S21400411051F077FD064630B90FCC044D0FC594E834
S2140041200F0085E80F00304670BD00BFCC2600208B
S21400413047F6FF739A42F0B572D0022972D83A4B0E
S2140041405B5C022B6ED8394DDF0005EBC304A1780B
S21400415015F83330012938BF0121012B13D1002572
S214004160E078401AA84202D80844C0B2F0BD431B0B
S2140041706668A0EB530336F913609642D4BF1D461B
S21400418003F1FF30EEE760680028EFD0B0F900409A
S214004190944204DBB0F902409442B8BF14468388C8
S2140041A03D44FF2B19BFC8224FF0280CB0F906205B
S2140041B0B0F908C0A2EB04030CBF0126002693FB4F
S2140041C0FCF333446E781BB29E4201DD002B01DA0D
S2140041D0731E1BB24FF47A7C01339BB2071D5D1E23
S2140041E02DB24FEAC50E00EBC505EA88AD689E42C3
S2140041F014FB025222EAE27202F15C02B2FBFCF20B
S21400420004DD37F8335001339542E8D200EB0E0355
S2140042109888904228BF1046884238BF0846A4E7D0
S214004220FF20A3E70020A1E77DB60500CC260020EE
S2140042300229F0B560D8314B595C02295CD8304B66
S21400424013F83100012816D103EBC1039C78D87807
S214004250012C214638BF0121904294BFC1EB0001DA
S214004260C1EB0201001BCAB28242C8BF00225B68D3
S21400427033F91200F0BD002A3CD003EBC1035968A5
S214004280002939D09878904202D3B1F90200F1E7BC
S214004290DC78B1F900009442ECD95C788B88013C5C
S2140042A0A3F1FF06734201F10405E4B2734101F184
S2140042B00C07DEB2B44216D805EBC3034FF47A758A
S2140042C06A43B3F902405B68D21A04EBD47302EB7C
S2140042D0630292FBF4F29042CCDBB1F9020090420A
S2140042E0C8DC10B2C6E737F833C05E1C9445E3D38B
S2140042F03346DEE70348BDE70348BBE77DB6050067
S214004300CC2600200CFEFFFF0080FFFF08B5044807
S214004310FFF7FCFEBDE80840012051F084BC00BF5A
S21400432080B6050000487047C40C0120F8B554F06C
S214004330C1FE012806461CD954F0F0FE041E02DA1F
S21400434001252846F8BD1F4B1B78002B37D1502778
S2140043501D4DE819AD65EF6554F0AAFF286680B9D3
S2140043600125012EEDD9204654F0FAFE0028E8DAA1
S214004370E6E7144B1B7803F0FF04002BE7D000257C
S214004380DFE7124D10220021284645F07AF805F1A5
S21400439010032A4600210120C5E9023755F06CF8C3
S2140043A028660028DCD00321012042F035FB0120DE
S2140043B003F070FC0122034B00251A70D1E700259C
S2140043C0D1E700BFBFA1002050270020EC26002028
S2140043D008B54FF098435B6CD90208D554F06AFED6
S2140043E00238012803D8094B186E55F0D3F84FF061
S2140043F098435A6CD202FCD55B6D054A03F47023D1
S21400440013600120BDE8084003F06EBCEC260020D7
S214004410100201202DE9F04393B08946DDE91A87A2
S2140044201D460446002858D0002956D0B8F1000F83
S21400443053D0002F51D013F00F034ED128482949EE
S2140044400FAE002A08BF0146A360C4E90013484621
S2140044503146E36140F0C1FC00283BD120460F996D
S21400446056F04FF92946204656F04BF9694648461D
S21400447001F0F0F870BB6946204640F0E6FE48467C
S21400448003A940F0A9FD28BB204603A940F0DDFEA5
S214004490CDF830804FF0010845F00055CDF8348057
S2140044A006AB0E950CAA07CA83E8070019462046F5
S2140044B040F0CBFE0F9709ABCDF84080119596E8FB
S2140044C0070083E807002046194640F0C8FE20464D
S2140044D053F094FD13B0BDE8F0832120FAE700BF47
S2140044E000010004000101042DE9F04F97B0894651
S2140044F090461F460546DDF880A0002800F0BB80E9
S214004500002900F0B8803AB1229B002B00F0B3805F
S214004510239B002B00F0AF80BAF1000F00F0AB80B9
S214004520219B002B00F0A78067B13C680026229BE9
S21400453043440293464507D307B13C60002017B0BA
S214004540BDE8F08F3C46F1E75CB1229B219A9B5D6B
S214004550125D01345340239A04F00F04935501363C
S214004560E8E7A8EB060BBBF10F0F58D9434B4846BC
S214004570C5E90034AC60EC6113A940F02EFC0028BD
S214004580DDD1284613992BF00F0B56F0BAF8594692
S214004590284656F0B6F8484604A901F05BF800280D
S2140045A0CDD1284604A940F050FE484607A940F061
S2140045B013FD0028C3D1284607A940F046FE012374
S2140045C022992F4ACDF828A00B930C928A190D92A7
S2140045D028464BF000520AA90E9303920F9240F021
S2140045E034FE28460DA940F030FE239B039A991905
S2140045F00123109111931292214A284610A9CDF852
S2140046004CA01493159240F02AFE284613A940F0B9
S21400461026FE284653F0F2FC5E4400288FD1229BEB
S21400462003EB060B239B1E44029B5B4501D14646CB
S21400463080E7ACB9219B2246CDE900A3494610236A
S2140046402846FFF7E7FE00287FF479AF0AF110024C
S21400465012F8013D0133DBB213700BB95245F7D1A6
S214004660219A1BF8013B125D0134534006F8013BCA
S21400467004F00F04D8E7212061E700BF030300041D
S214004680100000202DE9F04F97B0894615469A464F
S2140046900446209FDDF88880DDF890B0269E00282E
S2140046A000F09D80002900F09A80002E40F08A805D
S2140046B0002B00F09480B8F1000F0AD0219B002B4D
S2140046C000F08D80002A40F09F80F10700F187807F
S2140046D002E0002A40F08580FB1F062B7FD8524B55
S2140046E00BEB05029A427AD80023504A4846C4E9A2
S2140046F00023A360E36113A940F06FFB00285ED19E
S2140047002046139955F0FDFF204646EA074155F02E
S214004710F8FF4146204655F0F4FF2946204655F05E
S214004720F0FF484601A900F095FF002847D1204633
S21400473001A940F08AFD484604A940F04DFC002837
S2140047403DD14FF00109204604A940F07EFD239B91
S21400475045F000550793219BCDF8209020460995FB
S2140047600DA90A9347F0005748F00053CDF82C9057
S2140047700C93CDF834A0CDF838900F9740F065FD37
S21400478020460AA940F061FD204607A940F05DFDDD
S214004790259B204610A946F00056CDF840B0CDF82F
S2140047A0449012951393CDF85090159640F057FD0F
S2140047B0204613A940F053FD204653F01FFC17B0C7
S2140047C0BDE8F08F259B53B1BAF1000F07D0B8F1C2
S2140047D0000F01D0219B13B1B5B9022E20D12120A4
S2140047E0EDE7239B002BFAD0BBF1000FF7D0C7F103
S2140047F00F03DBB2032B3FF668AF0122DB0002FAA1
S21400480003F3AB42EBD9E8E7239B002BE7D0BBF1E1
S214004810000FE4D0C7F10F03DBB2032BDDD8ECE7C3
S214004820102E7FF652AFDAE7008001200000050464
S2140048302DE9F04F99B0884615469B460446229FC0
S214004840DDF89890289E60B159B1279B4BB1BBF11B
S214004850000F06D0249B0BB1239B13B11DB9022E6B
S21400486013D121239AE0259B002BFAD0B9F1000F33
S214004870F7D0C7F10F03DBB2032BF0D80122DB0021
S21400488002FA03F3AB42ECD9E9E7731E0F2BE8D824
S21400489016F0010AE5D1FB1F062BE2D8414B09EBC7
S2140048A005029A42DDD8404B4046C4E9003AC4F8B7
S2140048B008A0C4F81CA015A940F08FFA03460028EB
S2140048C06CD12046159955F01CFF204646EA074154
S2140048D055F017FF2046249955F013FF2946204629
S2140048E055F00FFF404603A900F0B4FE034600282B
S2140048F054D1204603A940F0A8FC404606A940F043
S2140049006BFB0346002849D14FF00108204606A954
S21400491040F09BFC259B2046099345F00053CDF8BC
S214004920288001930B93239B0FA90C93249B47F09D
S214004930005743F00052CDF834800E92CDF83CB0CC
S214004940CDF84080119740F080FC20460CA940F03E
S2140049507CFC204609A940F078FC019B204612A961
S214004960CDF84890CDF84C80149340F078FC279B07
S214004970204615A946F000561593CDF85880179690
S21400498040F063FC204653F039FB034630B10190FB
S2140049902A465146484644F074FD019B184619B015
S2140049A0BDE8F08F00800120000006042DE9F041EC
S2140049B08CB0884616461D460446129F00284BD0EB
S2140049C0002949D0002A47D0002F45D00B68103B5D
S2140049D0102B41D8214A22FA03F3D9073CD50023ED
S2140049E01F4A8360C0E90023C36109A9404640F01E
S2140049F0F4F970BB2046099955F083FE29462046F7
S214004A0055F07FFE6946404600F024FE08BB694626
S214004A10204640F01AFC404603A940F0DDFAC0B933
S214004A20204603A940F011FC06960126204606A95A
S214004A3045F000550796089540F007FC094B2046C0
S214004A4009A909970A960B9340F009FC204653F0F3
S214004A50D5FA0CB0BDE8F0812120FAE7010101008B
S214004A600000040410000020F0B50C4617461E4651
S214004A70054695B0002874D0002972D0002A70D060
S214004A80002B6ED0036B0F2B5BD80023364A3846BC
S214004A90C4E90023A360E36111A940F09EF9002851
S214004AA05BD12046119955F02CFE296B20460F2924
S214004AB084BF01F00F01103155F023FE384602A9DD
S214004AC000F0C8FD002848D1204602A940F0BDFBF2
S214004AD0384605A940F080FA00283ED1204605A9B0
S214004AE040F0B3FB0122214B089509920A932B6BE9
S214004AF005F1100003F00F0141F000510B900F2B51
S214004B000C920D910E900F9243F00052109226D9FF
S214004B100A9B08A923F0005320460A9340F095FB11
S214004B200BA9204640F091FB0123119612930F4BE0
S214004B30204611A9139340F092FB204653F05EFAEC
S214004B400BE000F120030190009301221023394668
S214004B502046FFF75FFC002897D015B0F0BD0EA9E1
S214004B60DFE72120F9E700BF000004041000002062
S214004B702DE9F04F9BB00C4690461F460546DDF8E3
S214004B809090002800F0B280002900F0AF80002A44
S214004B9000F0AC80002B00F0A980026B02EB09034A
S214004BA01B09B3EB121F02F00F0600F097800023DC
S214004BB04F4A8B60C1E90023CB61404617A940F0FD
S214004BC00CF90346002840F0858006EB090B2046CA
S214004BD017992BF00F0A55F094FD5146204655F0D4
S214004BE090FD404602A900F035FD0346002871D12D
S214004BF0204602A940F029FB404605A940F0ECF902
S214004C000346002866D14FF00108019005A920460A
S214004C1040F01BFB374A204608A90895CDF82480AB
S214004C200A9240F012FB46F00051AAEB060605F188
S214004C30100346F000560B93CDF830800D910E977A
S214004C40CDF83C8010960D99204621F000510D912C
S214004C500BA9009340F0F9FA20460EA940F0F5FAA9
S214004C60019B244A1193AAF1100343F00053CDF898
S214004C704880139305F120031493CDF854801692C0
S214004C80139B204643F080431393139B11A923F0F4
S214004C900053139340F0E3FA204614A940F0DFFADD
S214004CA0144A17A920461795CDF86080199240F04F
S214004CB0D6FA204653F0A2F9AAEB0B01494401901C
S214004CC0ABEB0A020098394444F0E6FB019B2A6BE2
S214004CD04A442A6318461BB0BDE8F08F10304A4697
S214004CE03946304444F0D8FB0023F0E72123F1E7AF
S214004CF003020004100000202DE9F0438DB0894621
S214004D00DDE914581F460446002851D000294FD02C
S214004D10B8F1000F4CD00BB9002D49D1531EDBB2B1
S214004D20042B45D82349CE5C169B9E4240D8224B86
S214004D30484603EB02232360002309A9C4E9013394
S214004D40E36140F04AF880BB2046099955F0D9FC4B
S214004D502946204655F0D5FC6946484600F07AFCC0
S214004D6018BB6946204640F070FA484603A940F052
S214004D7033F9D0B9204603A940F067FA0697012711
S214004D80204606A945F00055079746F000560895B8
S214004D9040F05BFA204609A9CDF824800A970B96C6
S214004DA040F05DFA204653F029F90DB0BDE8F083D7
S214004DB02120FAE76CB70500000102032DE9F04F49
S214004DC09BB00D46DDE9296A90461F460446DDF88D
S214004DD09C90002800F02481002900F02181249B6B
S214004DE0002B00F01D812B9B002B00F01981B9F1E0
S214004DF0000F03D0269B002B00F0128137B1289BB2
S214004E00002B00F00D81002E00F00A81AAF10403A9
S214004E100C2B00F20581259B0C2B40F001812B68A2
S214004E20103B102B00F2FC807F4A22FA03F3D907CE
S214004E3040F1F680B8F1010F7CD17C4B284643EA5E
S214004E400A232360002316A9C4E90133E3613FF077
S214004E50C4FF8346002840F0DF802046169955F0B0
S214004E6050FC4946204655F04CFC3946204655F045
S214004E7048FC284604A900F0EDFB8346002840F0D5
S214004E80CB80204604A940F0E0F9284607A940F068
S214004E90A3F88346002840F0BF80204607A940F0CC
S214004EA0D4F9249B20460A93614B0AA9CDF82C809E
S214004EB00C9340F0CAF9269B20460D930DA949F0A5
S214004EC00053CDF838800F9340F0BFF9289B20465A
S214004ED047F0005B10A91093CDF84480CDF848B099
S214004EE040F0B3F92B9B2046139313A94AF00053C6
S214004EF0CDF85080159340F0A8F91696CDF85C8052
S214004F00CDF860B01EB9189B43F080431893204636
S214004F1016A940F0A4F9204653F070F8834638B13D
S214004F202C2805D03A460021304644F0AAFA73E011
S214004F302896002600233F4A0DF158084146284689
S214004F40C4E90023A360E3613FF047FF83460028DF
S214004F5062D12046169955F0D4FB4946204655F0B6
S214004F60D0FB3946204655F0CCFB284601A900F078
S214004F7071FB834600284FD1204601A940F065F911
S214004F80284604A940F028F88346002844D1012585
S214004F90204604A940F059F9249B20460793244B49
S214004FA007A90895099340F050F9269B20460A93D6
S214004FB00AA949F000530B950C9340F046F9289B3C
S214004FC047F0005920460DA90D930E95CDF83C905C
S214004FD040F03BF910961195CDF848901EB9129BFB
S214004FE043F080431293204610A940F038F901237D
S214004FF0CDF84C801493104B204613A9159340F01F
S2140050002EF9204652F0FAFF834600288AD15246EF
S21400501041462B9844F040FA58461BB0BDE8F08F46
S2140050204FF0210BF8E700BF010101000000030468
S2140050300C00002000000204100000202DE9F04FB4
S21400504097B00D46DDE9249716469A460446DDF8E5
S2140050508880002800F0A380002900F0A080002BA4
S21400506000F09D80269B002B00F09980B8F1000F81
S21400507003D0219B002B00F092803EB1239B002B97
S21400508000F08D80B9F1000F00F089803B1F0C2BDB
S21400509000F28580209B0C2B40F081802B68103B13
S2140050A0102B7CD83F4A22FA03F3DB0777D53E4B1A
S2140050B0284643EA07232360002313A9C4E90133E3
S2140050C0E3613FF08AFE8346002864D120461399A8
S2140050D055F017FB4146204655F013FB3146204657
S2140050E055F00FFB284601A900F0B4FA83460028C5
S2140050F051D1204601A940F0A8F8284604A93FF05F
S2140051006BFF8346002846D10125204604A940F0BF
S2140051109CF8264B204607A9CDF81CA008950993B5
S21400512040F093F8219B20460A930AA948F00053C2
S2140051300B950C9340F089F8239B204646F00058C8
S2140051400DA90D930E95CDF83C8040F07EF8269B79
S214005150204647F0005710A910931195129740F07B
S21400516074F8CDF84C901495CDF85480B9F1000F32
S21400517003D1159B43F080431593204613A940F0B6
S2140051806EF8204652F03AFF834620B132460021A0
S214005190484644F076F9584617B0BDE8F08F4FF011
S2140051A0210BF8E701010100000003040C000020B9
S2140051B02DE9FF474FF000080E4617460446CDF887
S2140051C00080002859D022B90025284604B0BDE842
S2140051D0F087002951D032F0030902F0030A1FD0ED
S2140051E04FF0E063C0E9003801230191C0F8088061
S2140051F00293C0F81C8049F0005301A9039340F0C5
S2140052002EF84946204655F07CFA204652F0F6FE27
S214005210054628B14A464146304644F032F9D4E7BE
S214005220BAF1000FD0D04FF000084FF0E063C4E9A9
S21400523000380123CDF804D00293114B204601A973
S214005240C4F80880C4F81C80039340F008F80421D2
S214005250204655F056FA204652F0D0FE054608B1D4
S2140052603A46D8E7009A4E44EB00013522FA03F39B
S214005270AA4506F8013BF7D1A6E72125A5E700BF1A
S214005280040000202DE9F0410F460178044601395C
S21400529090468AB0042947D8DFE801F00332373C4D
S2140052A041004025142621490C3400225D43C7E9FD
S2140052B00122FA6138463960294655F022FA012360
S2140052C0384646F0005604A945F00055CDF804804F
S2140052D002930395049405930696079408930996FB
S2140052E03FF0B3FF384601A93FF0AFFF384607A9A5
S2140052F03FF0B5FF384652F081FE0AB0BDE8F081B7
S214005300402520260A490C34CFE7402520260949A7
S2140053100C34CAE78025402607491434C5E78025A3
S214005320402606491434C0E72120E6E700020103C0
S2140053300003010300040103000501030006010346
S21400534038B5054661B158B100242022C0E90144B1
S21400535004490C3044F0A0F8032320462B7038BDD7
S2140053602120FCE736B8050038B5054671B168B1AE
S21400537000244022C0E90144C0E903440449143033
S21400538044F08AF8052320462B7038BD2120FCE720
S214005390F6B705002DE9FF478A46904604460028E2
S2140053A06AD0002968D0002A66D00278013A042A1A
S2140053B062D8DFE802F0034C51565C00142600F178
S2140053C00C07021D40259E4256D800218E466809CD
S2140053D04FEAD5090DEBD50352F821C001310EEB8B
S2140053E0CC0E03F801EC4FEA5C1E03F802EC4FEA21
S2140053F05C3E03F803EC88424FEA5C5E03F804ED7B
S2140054004FEA5C7EE8D112686B1E1340A5EB0902DA
S2140054109A4296BFA5EB4005D31AC3EB4503514607
S2140054202046164A3FF085FB054660B94B466A465D
S214005430514620463FF07DFB054620B932463946A8
S214005440404644F029F8284604B0BDE8F0871C26FC
S21400545000F10C07021DB5E7202600F10C07021D1F
S214005460B0E7302600F11407021D8025ABE7402682
S21400547000F11407021DF8E72125E4E776B70500DA
S2140054802DE9F04387B00D4691461E460446DDF8EA
S2140054903880002836D0B8F1000F33D002B98BBB65
S2140054A06B1EDBB2042B2DD8174AD75C0F9B9F428E
S2140054B028D80023280200F1407000F5807031469D
S2140054C0C4E901332060E361204655F01AF9012350
S2140054D06946204646F0005647F00057CDF8009043
S2140054E001930296CDF80C80049305973FF0ADFE2D
S2140054F0204603A93FF0B3FE204652F07FFD07B0DA
S214005500BDE8F0832120FAE771B70500F0B50F4635
S21400551016461D46044693B010B9212013B0F0BDC0
S2140055200029FAD0002AF8D0002BF6D00023314606
S2140055301A4638463FF0F6FB0028EFD1304602A95F
S2140055403FF067FB0028E9D1EB68022B0AD03968E8
S2140055503F48029A81426B6902D01830814270D16E
S2140055609A42DAD82B68002BD7D14FF060623846C3
S214005570C4E90023A360E36101A93FF02EFC0028E4
S214005580CCD10199204621F4F061019155F0B9F88B
S214005590694628463FF021FC0028BFD120460099E6
S2140055A055F0AFF8384609A900F054F80028B5D1F0
S2140055B0204609A93FF049FE38460CA93FF00CFDED
S2140055C00028ABD120460CA93FF03FFEEB684BB15C
S2140055D0284606A900F03EF800289FD1204606A9D6
S2140055E03FF033FE304603A93FF0F6FC002895D185
S2140055F0B368DA040CD59B0427D50621F369326913
S2140056001B6801FB03225B0043F0005303920593E3
S214005610204603A93FF019FE28460FA93FF0DCFC00
S21400562000287FF47BAF20460FA93FF018FE032525
S214005630204652F0E3FC01287FF470AF013DF7D11D
S2140056406CE7B3EB420F8DD267E7292066E700BF11
S214005650200000B090B189B101234B60C368013BC4
S214005660012B08D88269064B1AB10A6000208B60AD
S2140056707047044AF9E74FF00053F7E721207047D8
S2140056800800002058B8050070B50E4615460446BA
S2140056908AB000285BD0002959D0002A57D00123B1
S2140056A029461A4630463FF03DFB00284DD1B368E8
S2140056B013F4C04F4BD0AB6803F4C043B3F5005FA0
S2140056C045D1254BA060C4E90030E06107A930460B
S2140056D03FF083FB002838D12046079955F011F893
S2140056E0304601A9FFF7B6FF78BB20463FF0ADFD78
S2140056F0304604A93FF070FC38BB204604A93FF0B2
S214005700A4FDEB681BBBAB6803F4C043B3F5005FB6
S2140057101DD1694628463FF0A7FAB0B9009B6A69D2
S2140057209A4216D32A6943F0005307920122204674
S21400573007A90892032509933FF091FD204652F0F1
S2140057405DFC012801D1013DF8D10AB070BD2120D1
S214005750FBE71D20F9E700BF000001022DE9F0433A
S21400576091B00D46DDE918760446DDF8688000281D
S2140057706ED000296CD0B8F1000F69D00FB9002E9A
S21400578066D1296801F07041B1F1404F5BD0002B23
S2140057905BD1531E042B5BD8120202F1C06202F5E5
S2140057A0807200232846C4E901332260E3610DA914
S2140057B03FF013FB002843D120460D9954F0A1FF7B
S2140057C03146204654F09DFF284601A9FFF742FFC8
S2140057D0002835D1204601A93FF037FD284604A908
S2140057E03FF0FAFB60BB4FF00109204604A93FF0EA
S2140057F02CFD46F00056204607A90797CDF82090C6
S21400580009963FF022FD2B680A9703F07043B3F128
S214005810404FCDF82C900C9603D120460AA93FF0B5
S21400582014FD0123CDF834800E931B9B204643F0D5
S21400583000530DA90F933FF012FD204652F0DEFBF9
S21400584011B0BDE8F083034AABE74FF0C062A8E7AB
S2140058502120F5E7000002062DE9F0418CB00D4648
S214005860DDE912860446149F002869D0002967D017
S214005870B8F1000F01D1002E62D1002F60D0A968C8
S21400588089045DD5296801F07041B1F1404F4DD0D3
S214005890002B4DD1531E042B52D82A4B03EB022269
S2140058A000232846C4E901332260E36109A93FF0DA
