S02A00006275696C642F64656275672F616D617A6F6E5F7369646577616C6B5F736F635F6F6F622E733337D9
S3150800000000080020190E0008B9510408B95104085F
S31508000010B9510408B9510408B9510408B95104087A
S31508000020B9510408B9510408B951040879A8050852
S31508000030B9510408B95104081DA80508AFBF050839
S31508000040B9510408B9510408B9510408D15D040826
S31508000050B9510408B9510408B9510408B95104083A
S31508000060B9510408B9510408B9510408B95104082A
S31508000070B9510408B9510408B9510408B95104081A
S31508000080B9510408B9510408B9510408B95104080A
S31508000090B9510408B9510408B9510408B9510408FA
S315080000A0B9510408B9510408C5130008A513000876
S315080000B0B9510408B9510408510D0408011004087F
S315080000C0917105089571050895100408A171050830
S315080000D099710508D10F04089D710508DD180408F3
S315080000E0C1190408B9510408B9510408B9510408DA
S315080000F0B951040849780408B9510408B9510408E3
S31508000100B9510408B9510408B9510408B951040889
S31508000110B9510408B9510408B9510408B951040879
S31508000120B9510408B9510408B9510408B951040869
S3150800013055FA0008B9510408B9510408B951040818
S31508000140B9510408B9510408B9510408894A000884
S31508000150B9510408B951040851BF0508F1EB030861
S31508000160B9510408B9510408A5700508AB7005080B
S31108000170B9510408B9510408B951040833
S3150800017CF0B5114A114C124E00F00105E3695F0700
S3150800018C13D40DB9334213D103EA00078F4207D1B2
S3150800019C0B4A1A40002A0CBF00206FF00100F0BD74
S315080001AC013AEBD16FF00200F9E74FF0FF30F6E7B2
S315080001BC6FF00100F3E700BF80969800000003502B
S315080001CC0200010070B50B4BD96911F480310DD1C1
S315080001DC01244FF48072084E084DF46020462C64B6
S315080001EC1A61FFF7C5FF3464EC6070BD6FF001004F
S315080001FCFBE700BF0000035000100350002003501B
S3150800020C4FF4803238B50E4B0E4C9A66E56941F6BA
S3150800021C713315400122E3630B4B0021DA6002238C
S3150800022C606121202361FFF7A3FF10B92120FFF796
S3150800023C9FFF0122054BDA600DB10023E36338BD3D
S3150800024C009000500000035000100350002003508B
S3150800025C70B5134C6061E3695B071ED40E4656F8FD
S3150800026C043B8D18A361AE420BD104230021212037
S3150800027C2361FFF77DFF58B9BDE870402120FFF7D1
S3150800028C77BF08210846FFF773FF10B104232361D3
S3150800029C70BD56F8043BA361E5E74FF0FF30F7E76E
S315080002AC000003502DE9F84315464FF48032184BDD
S315080002BC89469A6603F51C33DF690646174041F6EC
S315080002CC7132DA63012203F58053DFF84C80DA6069
S315080002DC55B9284601220F4BDA601FB10022A3F547
S315080002EC0053DA63BDE8F88306F5005404EA0804FB
S315080002FCA41BAC4228BF2C46494622463046FFF77B
S3150800030CA7FF0028E6D12644A1442D1BE0E700BF31
S3110800031C009000500020035000E0FFFF96
S315080003282DE9F04F93B0CDE90A32DDE91C530E9357
S3150800033853EC102BCDE90801104619468DED060B2E
S315080003481E9E10F0EDF980B1DDE906014FF0FF3287
S31508000358C54B10F00DFA40B9DDE906014FF0FF323A
S315080003686FF4801310F0E6F970B1DDE908019DED28
S31508000378060B0E9B1E96CDE91C53DDE90A3213B00F
S31508000388BDE8F04F00F088B90022DDE90601002330
S3150800039810F0D0F9002800F03381DDE906A303F14F
S315080003A8004BCBF30A5016F48063A0F2FF3008BF5F
S315080003B806250F930FF0E2FE9BA3D3E900230FF05F
S315080003C847FF9BA3D3E900230FF08CFDCBF3130457
S315080003D8894644F07F5180460022A44B504641F492
S315080003E840110FF07DFD94A3D3E900230FF030FFE9
S315080003F802460B46404649460FF074FD10F0C2F90E
S3150800040804460FF0BBFE8EA3D3E90023804689462F
S315080004180FF01EFF0022964B0FF064FD10F0B2F99C
S3150800042889A3D3E900230746494640460FF010FF3B
S315080004388046384689460FF0A1FE85A3D3E90023EE
S315080004480FF006FF02460B46404649460FF048FDA0
S3150800045802460B46CDE90C230FF0FAFEDDE90C231C
S3150800046880468946104619460FF03CFD0022CDE91C
S315080004781001804B4046494610F014F800227E4B7E
S315080004880FF030FD02460B464046494610F00AF87A
S3150800049800227A4B0FF026FD02460B46404649468F
S315080004A810F000F8DDE90C238046894600204FF055
S315080004B880410FF015FD02460B46404649460FF0A7
S315080004C811FD02460B46DDE910010FF0EBFF07F2B6
S315080004D8FF3700226A4B0FF005FD00223B050FF097
S315080004E8B7FE52465B468046894610F041F9002811
S315080004F840F08980CDE90C8904F16303C72B34BF22
S315080005080427052731051BD553A3D3E900235046ED
S31508000518594610F023F900287FD051A3D3E90023C0
S315080005285046594610F006F9002876D00027A54205
S31508000538C6BF2C1B04F1FF3500253C4646F48066E9
S315080005480E9B9F422CBF4FF00008A3EB070816F036
S31508000558020903D0002F18BF4FF000083CB1DDE9A7
S315080005680C23504659460FF09DFF82468B46DDE917
S3150800057806010022002310F0DDF810B10BF1004344
S315080005889B46DDE9080126F40063CDE90183DDE928
S315080005980A324BEC10AB009500F07EF802465FB3C2
S315080005A8DDE9091316F0200F00F10105089E0CBFB6
S315080005B865204520B047DDE9080105230022059393
S315080005C80A23002CCDE9023207F1FF374FEAD47324
S315080005D8B8BF64422A46019304970A9B009449F0D7
S315080005E815F90246B9F1000F06D00B9BC41A0B9BE6
S315080005F81A190E9BA34245D8104613B0BDE8F08FCA
S31508000608DDE906ABCDE60022404649461A4B0FF00F
S3150800061849FF013CCDE90C016EE7002D90D00F9BF0
S31508000628002B8DD0013D8BE7FB799F501344D33FB0
S31508000638B3C8608B288AC63F61436F63A787D23FD2
S3150800064871A379094F930A401655B5BBB16B024099
S31508000658EF39FAFE422EE63F2D431CEBE2361A3FE7
S315080006680000000080842E41FFFFEF7F0000F83F5E
S315080006780000E03F00002C4000002440000018401D
S315080006880000F03F2020DDE90913089DA84701343A
S31508000698ADE700BF000000002DE9F04F5BEC10AB9A
S315080006A897B0CDE90501DDE92057CDE9072350467E
S315080006B852465B465946229E10F032F870B9032313
S315080006C8CDE902760193B04B0093DDE90501DDE932
S315080006D8072348F0BBFF17B0BDE8F08F4FF0FF328D
S315080006E86FF480135046594610F024F828B10423AD
S315080006F8CDE902760193A54BE6E74FF0FF3250465F
S315080007085946A34B10F034F868B1A24A06F0040318
S31508000718002B08BF0322A04B1CBF13460422CDE9B1
S3150800072802760192D0E7504693A3D3E900235946A7
S3150800073810F01EF838B992A3D3E900235046594653
S315080007480FF0F8FF68B1DDE90723DDE905014BEC91
S3150800075810ABCDE92176209517B0BDE8F04FFFF725
S31508000768DFBD00220023504659460FF0E3FF002854
S3150800077800F09A805B465246002000210FF0B0FB35
S31508000788012382468B46099316F4806400F08E800E
S31508000798092D40F28E80002430210EABA5F10902FE
S315080007A80134202C03F8011BA5EB040901D0944257
S315080007B8F6D1594650460FF0E5FF784B054603EB48
S315080007C8C90393ED007B8DED0A7B0FF0D7FC024633
S315080007D80B46504659460FF083FBDDE90A230FF00E
S315080007E837FD02460B46CDE90C230FF0F3FF80468A
S315080007F80FF0B4FC02460B46DDE90C010FF070FB5E
S3150800080802460B46CDE90C230022654B0FF0B0FFD4
S31508000818002851D008F1010840460FF09FFC02460F
S315080008280B46DDE90A010FF08FFF10B14FF00008FB
S315080008380135B9F1000F50D128460FF09FFC024642
S315080008480B46504659460FF04BFB0022544B804640
S3150800085889460FF06FFF30B1002240464946504B93
S315080008680FF086FF10B1E80700D501350A210EAB4F
S315080008781A19202C0AD095FBF1F001FB10553035D2
S3150800088802F8015B013405460028F2D106F0030296
S31508000898012A57D1002F55D0099A12B916F00C0F0C
S315080008A800D0013F302245E009906DE74FF0060970
S315080008B87FE7A94600247CE70022DDE90C01384BCE
S315080008C80FF038FF0028B4D1B8F1000F02D018F09D
S315080008D8010FAED008F10108ABE70A210EAB234495
S315080008E8202C0ED0B8FBF1F001FB1082B8F1090FE5
S315080008F802F1300209F1FF3904F1010403F8012B6A
S3150800090811D83021A1440EAA202CAFD0A14504F154
S3150800091801030AD11C4609F158030DEB03092E23D6
S3150800092809F8203CA2E78046DAE7A1541C46EBE71B
S315080009381A550134A74205D9202CF9D1CDE90276F2
S315080009480194C1E6202CF9D0099A3AB12D2104F16F
S3150800095858026A4402F8201C0134EFE7710704D5E7
S3150800096804F158022B216A44F4E73207E6D504F164
S31508000978580220216A44EDE70000000065CDCD4104
S315080009880000000065CDCDC149D605084DD6050835
S31508000998FFFFEF7F40D6050845D6050858D605084F
S315080009A80000E03F0000000010B51D4C002021465D
S315080009B85BF0D2F918B146201A4949F0CFF82368EE
S315080009C8194AB3FBF2F3236020680FF0C7FB10A39C
S315080009D8D3E900230FF03CFC0FA3D3E900230FF05B
S315080009E881FA0FF0F7FE114B114A1860D2F8FC305D
S315080009F843F08073C2F8FC304FF060430D4AC3F8E1
S31508000A08B02F0D4A136843F00103136010BD00BFE9
S31508000A18EC51B81E85EBE93FF6285C8FC2F51C40F9
S31508000A28704A002030EA050840420F006C4A002048
S31508000A3800ED00E055CEACC5001000E0000000004F
S31508000A48F0B5354F354D97F90030354E354A55F8D6
S31508000A582310306885B037F03BF8044648B102469B
S31508000A68314900200EF0A4FF6FF00505284605B0A9
S31508000A78F0BD97F9003055F8231079B1306855F06C
S31508000A882FFC4FF6FF7398420146EDD0306837F0D1
S31508000A98D1F9024610B125492046E3E70CF0E0FCF7
S31508000AA805460028E0D11AA3D3E90023CDE9002397
S31508000AB84FF0FF324FF0FF33306855F0A5FC044677
S31508000AC810B102461A49CCE7009003464FF48072E3
S31508000AD81849306855F07CFE10B102461649DBE71E
S31508000AE837F080FE044610B102461449B9E7144B9C
S31508000AF830681A889B7803A9ADF80C208DF80E3053
S31508000B0836F03EFC02460028B0D00E49C4E700BFBE
S31508000B182805015500020000140801204C0E012082
S31508000B28380E0120E5D5000862ED0508A0ED050890
S31508000B38DEED0508E04E0020F9ED050835EE050856
S31508000B489CEF050855EE050870B590B004460D46A5
S31508000B584CF0D7F8002848D01422002109A849F0F3
S31508000B68CCFBD4E907014FF6FF73ADF8263010AB76
S31508000B7803E903008DF825501DF0EAFA0026A0635C
S31508000B88059003AA012001A9CDE90666CDE9016603
S31508000B98CDE90366089611F0DDFD054638B30696D5
S31508000BA8ADF81C6043F6FF7303208DF8200005A9ED
S31508000BB809A8ADF81E3021F035F910B9012384F8D3
S31508000BC84430636B5A1C4FF6FF7218BF01336363D0
S31508000BD8B4F84C3093421CBF01339BB2A4F84C308E
S31508000BE894F84130013384F8413010B070BD019B48
S31508000BF802990693C80319A3D3E90023490C0FF0F1
S31508000C0809FE16A3D3E900230499ADF81C00C80306
S31508000C18490C0FF0FFFD039B00EBC333B3F5804F78
S31508000C280DD30B4A93420DD90A4A93420DD90A4A5B
S31508000C389342B7D803200D22D3409BB2B5E728467E
S31508000C482A46F9E701200522F6E702200A22F3E7F1
S31508000C58E0FF070000FCFF0000E0FF0700CA9A3B18
S31508000C68000000000000000007B588B10BA3D3E90F
S31508000C7800230949C1E90223CDE900234FF0FF32D1
S31508000C884FF0FF33086955F0BFFB03B05DF804FB66
S31508000C9800220023EDE700BFA00F00200DD501555F
S31508000CA8200000000348044B834202D0034B03B1DB
S31508000CB818477047802E0120802E0120000000006A
S31508000CC8064B0749C91A891048BF0131491003D08C
S31508000CD8044B0BB101481847704700BF802E012006
S31508000CE8802E01200000000010B5064C237843B971
S31508000CF8FFF7D8FF044B13B10448AFF3008001236C
S31508000D08237010BD348E0020000000007C9D060864
S31508000D1808B5054B1BB105490548AFF30080BDE882
S31508000D280840FFF7CDBF00BF00000000B014002040
S31508000D387C9D0608A3F5803A704700BF174B002B21
S31508000D4808BF134B9D46FFF7F5FF00218B460F4654
S31508000D581348144A121A49F0D0FA0E4B002B00D041
S31508000D6898470D4B002B00D0984700200021040017
S31508000D780D000D48002802D00C48AFF3008010F08B
S31508000D8851F92000290047F01DF90FF0F1FE00BFC0
S31508000D98000008000000000000000000000800200D
S31508000DA800080020C40B0120000000000000000015
S31508000DB808B503485AF0D5FFBDE8084048F06CBEA8
S31508000DC8E4D2050801485AF0CCBF00BFE4D20508AA
S31508000DD8BFF34F8F0549064BCA6802F4E06213430E
S31508000DE8CB60BFF34F8F00BFFDE700BF00ED00E003
S31508000DF80400FA050348044A0449121A921044F0F2
S31508000E08D8B900BF7C01000828030008C40B0120D4
S31508000E1808B5154B83F30A8800F030F8FFF7EAFFA0
S31508000E28124B13498B4212D30020124B12498B429C
S31508000E3818D3FFF783FF186850F82240586840F817
S31508000E482240013298688242F5D30C33EAE7002239
S31508000E58F8E71C6844F8220001325C68A242F8D315
S31508000E680833E4E70022F8E700000020849D060816
S31508000E78909D0608909D0608909D06084FF48041A7
S31508000E8870B5124B124A134D9A60D3F8882005F5A7
S31508000E98005442F47002C3F888200F4A91664FF04E
S31508000EA8FF3222660D4A62660222C3F8D020BFF3D3
S31508000EB84F8FBFF36F8F4FF44036002007F0D6FBED
S31508000EC80020E66007F0A8FB2E6170BD00ED00E083
S31508000ED80000000800800044009000507FFF7F0350
S31508000EE8014B1860704700BF800D0120054B18603C
S31508000EF8054B1B6F03F00703032B01D158F084B980
S31508000F08704700BF880D01200080005030B505687D
S31508000F1887B0AB8804461848ADF80C305AF021FF5C
S31508000F280022012103A800F075F80DF10B0103A8AA
S31508000F3800F026F99DF80B3083F001032B70AB7986
S31508000F48022B15D14FF0FF330022CDE9043304A94B
S31508000F580A4B009403A800F0C9F9049B00940133CE
S31508000F680CBF04220122054B05A903A800F036F98F
S31508000F78002007B030BD00BFE4D20508E9510408CF
S31508000F882DE9F04104460C254FF00108124E0CB322
S31508000F9814F001000BD0002024F0010405FB0062C0
S31508000FA85768002FF3D09168C0B2B847EFE72246D2
S31508000FB8013020284FEA520201D0D307F8D508FA9B
S31508000FC800F20F2824EA0204E8D9103805FB006263
S31508000FD8B432E5E7BDE8F081C814002008B50C4826
S31508000FE85AF0BFFE1A2007F025FB28B11A2007F089
S31508000FF83DFB1A2007F010FB1B2007F01BFB28B146
S315080010081B2007F033FB1B2007F006FB002008BD52
S31508001018E4D205082DE9F0410E461746054618B3E9
S315080010280F2923D80378E3B1013BDBB2022B1DD87D
S31508001038104A32F813306A78D340DB0716D50E4BB8
S31508001048D3F81043A4B95AF0EDFC80463A46284628
S31508001058314603F019FA40465AF0DFFC2046BDE847
S31508001068F08140F2FF73E6E72224F7E72124F5E743
S315080010780224F3E7A8CF050800C0035010B50446B4
S31508001088E8B10378C3B1013BDBB2022B19D80E4A83
S3150800109832F813306278D340DB0712D55AF0C2FC0F
S315080010A80122637821789A4030235943074B5A50CE
S315080010B85AF0B3FC002010BD40F2FF73EAE722207D
S315080010C8F9E72120F7E700BFA8CF050840D0035065
S315080010D810B50446E8B10378C3B1013BDBB2022B6D
S315080010E819D80E4A32F813306278D340DB0712D57E
S315080010F85AF098FC0122637821789A40302359439C
S31508001108074B5A505AF089FC002010BD40F2FF736D
S31508001118EAE72220F9E72120F7E700BFA8CF050864
S3150800112840E0035038B50D46044618B311B30378A2
S31508001138EBB1013BDBB2022B1ED8104A32F813304A
S315080011486278D340DB0717D55AF06CFC302223782F
S31508001158534303F1A04303F570331B6C6278D340FD
S3150800116803F001032B705AF058FC002038BD40F2F2
S31508001178FF73E5E72220F9E72120F7E7A8CF050856
S3150800118838B50D46044618B311B30378EBB1013BDD
S31508001198DBB2022B1ED8104A32F813306278D340D5
S315080011A8DB0717D55AF03EFC30222378534303F160
S315080011B8A04303F570335B6C6278D34003F00103F0
S315080011C82B705AF02AFC002038BD40F2FF73E5E779
S315080011D82220F9E72120F7E7A8CF05082DE9F041ED
S315080011E80D46164698460446002856D0002954D077
S315080011F80278002A47D0531EDBB2022B03D9FF2AEE
S3150800120808D0212047E0264A32F813304278D340DE
S31508001218DA07F6D5022E01D9042EF2D15AF002FCC5
S3150800122823780746FF2B05D032462046296803F05F
S315080012386BF928602B68013309D12378FF2B06D16F
S31508001248184B6078D3F8241444F022FE28602968DD
S315080012584B1C1CD00C23144A03FB0121C1F804803B
S31508001268296803FB0122069B93602378FF2B05D088
S3150800127801232A6893400D4AC2F8243438465AF09E
S31508001288CCFB002007E040F2FF734278BFE73846F8
S315080012985AF0C3FB2D20BDE8F0812220FBE700BFEA
S315080012A8A8CF050800C00350C814002000D0035072
S315080012B80F2810B5044613D85AF0B4FB0123094A77
S315080012C8A340C2F82034C2F824340C22064B02FB89
S315080012D804330024C3E901445AF09FFB204610BD95
S315080012E82120FCE700E00350C81400202DE9F0414E
S315080012F80D4690461F460446002847D0002945D083
S315080013080378002B38D0591EC9B2022903D9FF2BF6
S3150800131808D0212038E01E4B427833F81130D340E4
S31508001328DA07F6D55AF07EFB23780646FF2B05D052
S3150800133842462046296803F06DF9286029684B1C3F
S315080013481ED00C23134A03FB0121C1F8B87029687B
S3150800135803FB0122069BC2F8BC302378FF2B06D074
S3150800136801232A68103293400B4AC2F824343046BF
S315080013785AF053FB002007E040F2FF734278CEE7A5
S3150800138830465AF04AFB2D20BDE8F0812220FBE7BB
S31508001398A8CF0508C814002000D0035008B503F0E4
S315080013A859F8054B00F0553020F0A040C3F8200442
S315080013B8BDE80840FFF7E4BD00E0035008B503F0B0
S315080013C849F8054B00F0AA3020F02040C3F820045D
S315080013D8BDE80840FFF7D4BD00E0035013B504463E
S315080013E80A485AF0BEFCA2780421B2FA82F2237897
S315080013F852098DF8043063780DEB01008DF8053035
S31508001408FFF708FE002002B010BD00BFE4D20508A9
S315080014182DE9F04F144605460E469B46C36B87B022
S3150800142801225B6902A960689847EB6B01225B6930
S3150800143803A93046984702A844F0C1FB074648B1B5
S315080014480023A37563754FF0FF33A360002007B028
S31508001458BDE8F08F03A844F0BFFB0123A375237EDC
S3150800146804EBC303DE611F846368B3420ED12060B0
S3150800147803A844F0D3FB4FF0FF332075A360237D00
S31508001488043B022B26D80023A375DFE723681A1A1C
S3150800149853425341A37503A844F0C0FB237D8342F6
S315080014A818BFA77503A844F09BFB074602A844F093
S315080014B897FB874218BF002303A818BFA37544F0F3
S315080014C897FB074602A844F093FB87421CBF0023F4
S315080014D8A375D4E703A844F083FB80B1EB6B02221B
S315080014E830465B6904A9984704A844F088FB034674
S315080014F8207D032839D8DFE800F03838040903A81E
S31508001508F3E7CC22237E04EBC3031A8401F0F2FA2C
S31508001518109B187003A8277E44F056FB04EBC707F0
S3150800152887F82200237E03A804EBC303B3F82090A8
S3150800153893F8227044F054FB804603A844F058FBFD
S315080015488246B8F1000F15D0EB6B022230465B696C
S3150800155804A9984704A844F017FB6075637D6BB91E
S315080015680023A3754FF0000839E0227E04EBC20277
S315080015781384CBE703A844F0F2FAEEE794F816804A
S31508001588B8F1000FEED0B9F1000F09D1E7B1012380
S31508001598627EE375002A45D19F4219D1677615E020
S315080015A86B6C06EB0A025B4286EA02010B421CBF19
S315080015B80023A3756B6C591E0A409B1A9945CFD808
S315080015C8A37D002BE2D1CDE7E37D43B94FF00008B0
S315080015D84B4652463146284643F0DCFFA060A27DBA
S315080015E812B123694B4423611349237E097899422A
S315080015F81ED901332376BBF1000F1BD0D2B1E37D88
S31508001608C3B1B8F1000F15D1032F13D0A1684B1C2D
S3150800161810D0109B2246009328460123FFF7F8FEB0
S31508001628A07507E0012FDAD0032F08BFA376CDE708
S315080016380023A375A07D0AE7D0CF05082DE9F04F4A
S315080016480E46984600238BB004464FF0FF311046E5
S3150800165817468DF8133001F037FAB6F5801F3BD3D5
S31508001668B21C53D1E56A6B1C57D12046616A43F010
S31508001678D7FE0546B31C18BF0123DFF8109101935E
S31508001688636A626C0293236805A902FB053AE36B51
S3150800169805225B695046984705A844F02BFB44F099
S315080016A84EFB504644F056FB4FF0000B8246014667
S315080016B84B1C05D0636C81EA0A025B42134232D09E
S315080016C82946204643F0ACFE029BAB424DD0BBF1FF
S315080016D8000F4DD10546D3E7314605AA04F108009F
S315080016E844F0BFF90146481C10D0384601F0ECF919
S315080016F80122394620460DF1130343F09DFF28B110
S315080017089DF8133088F80030002003E0237C002B6E
S31508001718A8D12D200BB0BDE8F08F2368ED1A636CAD
S31508001728B5FBF3F5A6E7484601F0CEF90DF1130324
S3150800173849462046019A43F07FFF034690B1B21CFA
S3150800174803D0D9F80020B2420CD19DF81320039390
S315080017580D4B88F8002049461A68384648F0D8FDDF
S31508001768039B9B46D9F80810A2E7BBF1000FD0D017
S31508001778B6F5801FC8D2314698F800307A6804F161
S31508001788080001F0C5F8BFE7CCCF0508A41C00205F
S315080017982DE9F3410446174698460E46194D816ABF
S315080017A8E36A8B422AD04B1C18E0284601F08CF9CC
S315080017B80122294620460DF1070343F03DFF30B1C3
S315080017C84346294620469DF80720B847B0B1A96878
S315080017D84A1C05D0012E0AD0E36A9942E5D10DE0E4
S315080017E86968204643F0A9FE012E0146D8D16B68E0
S315080017F881EA0302636C5B421A42D1D002B0BDE8A3
S31508001808F08100BF781C00202DE9F0419046036B53
S31508001818826B07689A4288BF8363426C436A90B0B2
S3150800182802FB0377C36B0E46052201A95B690446CA
S315080018383846984701A844F05DFA012801463070F1
S3150800184857D0656CE26B2368606AD2F814C005FB4A
S315080018580030052206A9E04706A844F04BFA0128F5
S315080018684FF0000523D0D4E90A3201219342CDE985
S315080018780B458DF834800E958DF83C102AD11946FB
S31508001888204643F05AFE236B626C14339B1AE062B7
S3150800189823630C9B53B99DF83C303BB1626A616C73
S315080018A82368E06B01FB023144F0DCF90C9DE36B1D
S315080018B805225B6901A93846984701A844F01AFA2F
S315080018C830702846236BA26B9A4288BFA36310B070
S315080018D8BDE8F081237C33B91C490BAA04F108003A
S315080018E801F06EF8D5E72046194A0BABFFF750FF0B
S315080018F8CFE7237C23BB2246164904F1080001F0EA
S315080019085FF8616A204643F0ACFD616A421C2046CE
S3150800191843F075FD054620B9236B626C1344143BE6
S3150800192823632046A16A43F008FE2368A062C01A0A
S31508001938636CB0FBF3F06062204643F041FEB6E7FD
S3150800194800232046044AFFF723FFDAE78520000824
S3150800195801200008CB5604086556040873B50D46D9
S31508001968D11E4A421C461B7E4A419A4227D12968FB
S315080019782368994223D36368994220D8114E0DF1FA
S3150800198807033246FFF75AFEC8B972686B689A4267
S3150800199815D19DF80730DA1E53425341227E9342E9
S315080019A80DD1636901336361D4E90323934206D2EF
S315080019B82968A26842F823102369013323610120A4
S315080019C802B070BDD01C00202DE9F04F9A468BB0A6
S315080019D89DF85030DFF850B10293DBF81030804696
S315080019E853450D461646C0F09980D146DBF80430B3
S315080019F80193B9F1000F00F08D80D8F83C30012228
S31508001A085B6907A90198984707A844F0E5F8DBF841
S31508001A180030984240F0858007A844F0E9F8042881
S31508001A28074614D107A844F0EAF8019B029A044627
S31508001A383B44002A3FD1864212D91446361A4046F4
S31508001A48019943F07AFDA9EB04090190D1E7D8F882
S31508001A583C3002225B69019808A9984708A8E2E77A
S31508001A68841B544528BF5446032C03EB0607AAEBE8
S31508001A78040A4FEA94021CD9D8F83C302946384655
S31508001A885B69984724F0030304F003061F441D44C2
S31508001A98002ED4D0D8F83C3001225B6908A938460C
S31508001AA898473246284608A9354448F031FC0026A6
S31508001AB8C5E72646ECE7074600F003020392034407
S31508001AC82A1804920593049BDD1B059BD81B039BC8
S31508001AD89F420FD1002FB2D0D8F83C30012208A96E
S31508001AE85B6998473A46284608A948F0DCFB78B95E
S31508001AF83D44A4E7D8F83C30012208A95B69984711
S31508001B080422284608A948F0CEFB08B9043FDAE7B4
S31508001B184FF0360948460BB0BDE8F08F4FF0630919
S31508001B28F8E74FF06F09F5E7FC1C00202DE9F041AE
S31508001B380F4616469846044688B060B390F834505F
S31508001B48FDB1012143F031FC00210E9BCDE90511B9
S31508001B58CDE902379DF83C30CDF804808DF81C3065
S31508001B68237C04968BB90D4901AA04F1080000F0F4
S31508001B7827FFDDE90553E06B002E08BF1D4643F035
S31508001B88AEFD284608B0BDE8F0812046044A01ABF8
S31508001B98FFF7FEFDEDE70546F3E700BF9356040891
S31508001BA8651900082DE9F04F99B00F4609920A6998
S31508001BB8416C0E931439D31DB3FBF1F3013302EBD1
S31508001BC8C302036B04469342C0F0B3810023DFF8CF
S31508001BD824940D93E36A48461946079300F074FF60
S31508001BE8D7E9033604930E9B022B4ED1CC2E40F030
S31508001BF88A81099B002B42D03946204643F0CDFD01
S31508001C08656C079A6B1E13401490ED1AE36B012254
S31508001C185B6916A97868984716A843F0E1FF002873
S31508001C280CBF04230823782E06933DD901230025E3
S31508001C384FF0080A05933B6805990E98C9F80030CD
S31508001C48C9F8106043F0EEFF4FEA9A031093002391
S31508001C58DDF81CB089F814000B930F9308930C93BE
S31508001C68616C4A1E0BEA02028B1A002E38D05544BC
S31508001C78AB4240D8236B5B1A13442363ABE0049B3F
S31508001C881B68149308230693D0E7656C079A6B1E9E
S31508001C981340782EA5EB030516D8FB7D7BB9099B5F
S31508001CA8002BB3D104230693331DAB4210D9A6B132
S31508001CB8082DBBD804250023AA460593BBE7099B2C
S31508001CC8002BA3D10823EEE7099B002B9ED1D9E761
S31508001CD8002505954FF0040AADE704250596F9E7AA
S31508001CE85345C7D3B0460BEB0A030393089B002B4F
S31508001CF818BF032313E0A3EB0A039E42B0460BEB77
S31508001D080A0228BF98469E420392EFD90123D9F8BA
S31508001D18102089F81730964271D1C9F804B008938B
S31508001D2899F81730002B6CD099F818200899D31C05
S31508001D3809EBC3030132C3F804B0A3F80880997203
S31508001D4889F81820B8F1000F14D00E9B022B5BD126
S31508001D580B9B7BB90F9B4344032B0BD9E36B0122DF
S31508001D689B69039814A998470546002840F0E3801C
S31508001D7801230B93089B16A80193059B009399F8D2
S31508001D8814204346396800F055FEE36B58469B69AC
S31508001D98109A16A99847051E0D9B18BF5B4652460A
S31508001DA80D9359464346204643F0F4FB236B08F146
S31508001DB80302A3EB0A0322F003029B1AC9F80800D8
S31508001DC82363002D40F0B7800F9BDDF80CB0434421
S31508001DD8A6EB08060F935946204643F0AEFB0025A6
S31508001DE88346002E7FF43CAF824A04F108009368C4
S31508001DF85268E36239680E9B00F08AFD84E0022384
S31508001E088DE7C9F804B09DE7099B002B30D1049BE0
S31508001E18B8F1030F43440A9327D9DDE90301E36BB5
S31508001E284FEA98029B6998470546002865D118F035
S31508001E3803025FD0049B28F003052B440493039BF5
S31508001E481D444FF0FF33049915A8159348F060FA16
S31508001E58E36B28469B69012215A9984705460A9BFC
S31508001E680493002D86D0039B99E74246039DE8E72D
S31508001E78039B0A9307F120031193FB7D78689BB1AE
S31508001E8800233D7E0C9AD9B28D4211D9119903F1D6
S31508001E98010C31F83310914226D9069907EBC3038A
S31508001EA8D8690A44104403E00C9B069A134418445C
S31508001EB8E36B01225B6915A99847159B01221393C1
S31508001EC80C9B0A9804330C93E36B13A99B699847F0
S31508001ED8039B0A9A43449B1A042B054607D978B9E3
S31508001EE8134604330A93C8E76346521ACBE70A9B94
S31508001EF80393B6E70A9B04933CE70A9B0493B2E765
S31508001F080A9B0393AFE77026304619B0BDE8F08FF1
S31508001F184FF0000A4FE03A69616CD31D1439B3FBD8
S31508001F28F1F3013302EBC302236B9342BFF452AEBB
S31508001F385DE01C26E8E73D2D59D104F10803039313
S31508001F482368079A606CA2EB030ABAFBF0FA00FB4F
S31508001F580A3043F0FFFEE16A8046204643F0EDFA70
S31508001F68A26A8242D7D0626CD9F80830511E0B4053
S31508001F78216B2668891A0B4423630D9BE0629E1B16
S31508001F88B6FBF2F6B245C3D1079BB3EB080A12D0E3
S31508001F98E36B4FEA9A0241469B6998478346E36A88
S31508001FA8079A5344E362236B03989B1A43442363B3
S31508001FB843F028FDDA462368616CE06B01FB0631BD
S31508001FC843F03DFE204643F0FBF9204643F0F8FA75
S31508001FD82063BAF1000F9ED03A69616CD31D143993
S31508001FE8B3FBF1F3013302EBC3029042A8D22E46A3
S31508001FF88AE700BFA41C0020032A2DE9F3410646F8
S315080020080D4617461C4606D1237A012B23D00120F4
S3150800201802B0BDE8F081DFF86080096842460DF134
S315080020280703FFF70BFB60600028EDD19DF8072032
S31508002038237A032AE8D0D8F804106A689142E3D1CB
S31508002048012B2969D4F80CC007D172690CEB010376
S31508002058934202D92074207CDAE708316144E160AA
S315080020683B46012229463046FFF79CFD606000285A
S31508002078CAD00020CCE700BFD01C0020F7B5089CC2
S31508002088032A1646256805D1237A012B22D0012072
S3150800209803B0F0BD254F28463A460DF10703FFF76A
S315080020A8CDFA60600028EFD1D4F800E07868DEF849
S315080020B82810DEF844C04840CCF100031840227ABC
S315080020C8E2D1012A08D1E2683B6913446A69934256
S315080020D802D92074207CDBE7DEF80020DEF82C30F5
S315080020E8891A9B1AB3FBFCF3B1FBFCF18B420DD1A1
S315080020F8696CEB6A4A1E13402A6B521A13442B63FF
S3150800210825682846A96A43F018FAE8623A69E3682E
S3150800211808321344E3600122334604492068FFF76E
S3150800212841FD60600028AFD00020B1E7D01C002030
S315080021382DE9F04F4FF0FF334FF6FF72002504469E
S3150800214800F10806C0E909238BB0C3620562056376
S3150800215830460F4643F056FC204643F031F920BB7B
S315080021682046394643F0ACF9204643F029F920BB06
S315080021785E200BB0BDE8F08FE26B2368606CD2F87E
S3150800218814C000FB0530052205A9E04705A843F059
S31508002198B1FD012828D12946204643F062F9421C98
S315080021A82946204643F02BF90135E3699D42E3D3D6
S315080021B8204643F005F90028D2D000254FF0FF390C
S315080021C84FF6FF73CA46A846C4E90853E369984513
S315080021D814D3A5EB0905012D36D84FF6FF72636AA5
S315080021E8934246D16720C4E743F0AEFD0028DBD00A
S315080021F82946204643F035F90246D1E72368E26BBB
S31508002208606C576900FB0830052205A9B84705A878
S3150800221843F070FD834605A843F043FD0746584634
S3150800222843F08DFD68B1574538BFC4F82480B945D1
S3150800223828BFB946BD4238BF3D46BA46236A013368
S31508002248236208F10108C1E74FF6FF7300256362A8
S31508002258E3699D42C1D2676C2068E36B052207FBD8
S3150800226805005B6905A9984705A843F01AFD0135D5
S31508002278EEE7E26B676C2068694607FB0300556959
S315080022880522A847684643F00CFD626A2368606C15
S31508002298504D00FB023043F05DFD4FF0FF33A0625E
S315080022A8E3622A466FF00101204605ABFFF7C6F937
S315080022B800284FD1AD6829462046E56243F05CF808
S315080022C8206320B92046E16A43F037F9E0622946D7
S315080022D8204643F032F90546A36A9D423CD1656912
S315080022E8626CE91C143AB1FBF2F14FF0000805EBF1
S315080022F8C1050335B5FBF2F5C1460235E3699945CB
S315080023083CD3A8455AD22046616A43F089F8002783
S31508002318064604F1400AB84512D8626C236869462D
S3150800232802FB0639E36B05225B6948469847684607
S3150800233843F0B7FC534602464946E06B43F00CFDAA
S315080023483146204643F06CF80137AF420646E2D3D9
S3150800235864200EE7A56AAEE72946204643F00CF83E
S31508002368236B2946034407462363204643F0E5F8CA
S315080023780546002FB0D1C4E90B07ADE7636C27689B
S31508002388052203FB0977E36B05A95B693846984775
S3150800239805A843F0AFFC43F0D2FC60B1384643F0D9
S315080023A8D9FC0146204642F0E7FF636C143B984285
S315080023B808BF08F1010809F101099FE7304643F00B
S315080023C821FB002320461946034AFFF7E1F90020B6
S315080023D8CFE600BFD01C00202F5604082DE9F0418F
S315080023E80025634B0E46D3F8008004461D6018B9CD
S315080023F821252846BDE8F08190F8347007B30A68A5
S3150800240803689A4240F0AA804A6843689A4240F0AC
S31508002418A5808A6883689A4240F0A080CA68C3681B
S315080024289A4240F09B800A6943699A4240F096802E
S315080024388A69C36B9A4240F091804B698361D8E7F1
S31508002448856B6822394647F058FFA563336804F157
S315080024580800236073686360336963617369A361FD
S31508002468D6E9021243F0E0FAB36904F14000E363DF
S315080024789B68984720B9676C17B16368B3FBF7F789
S3150800248894F84330E761002BB2D00023656C2366C5
S31508002498002D6BD0002F69D02368B3FBF5F205FB36
S315080024A81233002B5CD16768B7FBF5F605FB167681
S315080024B8002E55D1204642F04FFFA3690433034442
S315080024C89F424FD340F634726369CC3B93424BD84C
S315080024D8B5F5805F4AD30321204642F066FFD4E962
S315080024E80001E36B1B6898470546E36B0220DB6827
S315080024F898472DB184F83460E06B43F0F0F878E734
S3150800250841462046FFF714FE6428054604D141468D
S315080025182046FFF70DFE0546636C143BD5B9226ABB
S31508002528204602FB03F642F017FFA3690433034467
S315080025389E4203D284F834505A25DDE70123D4E9AC
S3150800254800010C4A84F8343013680133136043F0E9
S3150800255805FBD1E7002384F83430CDE75D2548E745
S31508002568592546E75A2544E75F2542E75B2540E7AC
S3150800257834160020301600202DE9FF410C46164671
S315080025881F46054680B390F834307BB3B1F5801FF3
S315080025982ED2DFF86080012142F007FF2146424625
S315080025A828460DF10F03FFF749F8044670B99DF858
S315080025B80F30012B11D1D8F81030BB4212D1024680
S315080025C8009031462846FFF7FFF90446E86B43F0C2
S315080025D886F8204604B0BDE8F081022B14BF2D24E6
S315080025E86024F3E76324F1E72124F2E71124F0E7EE
S315080025F82924EEE7FC1C00202DE9F04385B00C469B
S3150800260817461E460546DDF8308098B390F83430EC
S3150800261893B3B1F5801F31D2DFF86490012142F0F7
S31508002628C4FE21464A4628460DF10F03FFF706F869
S31508002638044688B99DF80F30012B14D1D9F8102013
S3150800264806EB08039A4213D30090434632463946A6
S315080026582846FFF7B9F90446E86B43F040F82046E0
S3150800266805B0BDE8F083022B14BF2D246024F3E7D8
S315080026786324F1E72124F2E71124F0E72924EEE799
S31508002688FC1C00202DE9F3411F4600230C4616467C
S3150800269805463B6050B390F834304BB3B1F5801F0C
S315080026A828D2DFF85480012142F07FFE21464246AF
S315080026B828460DF10703FEF7C1FF0446A0B99DF8A1
S315080026C80730032B10D0022B0AD1012333600423C9
S315080026D83B60E86B43F003F8204602B0BDE8F0819A
S315080026E83060D8F81030F3E72D24F2E72124F3E711
S315080026F81124F1E72924EFE7FC1C002073B50446EA
S31508002708056B42F029FE636E03449D428CBF002385
S315080027180123854294BF00252D1A207C84F8503061
S31508002728656584F85800A8B100230C4E1A46194660
S315080027382046009643F0FEF8002305461A46194631
S315080027482046009643F0FFF8E3682844984294BF69
S315080027580020C01AE06502B070BD00BFFFFF0F0079
S315080027682DE9F3471E4643690446B3428846174689
S315080027789DF828904ED300258DF80750204642F03C
S31508002788EBFDD4F830A082450AD2236AB5EB430F8D
S3150800279806D2002220460DF10701FFF735F8B8B32F
S315080027A89DF80730012B05D1002220460DF10701B7
S315080027B8FFF72AF8B9F1030F06D03146204642F04A
S315080027C8B6FD256B854227D3144D4FF0FF312846B1
S315080027D800F07AF94B46294600222046C5E90376D1
S315080027E8C5F80080FFF7DEF9236E054663B1204673
S315080027F8FFF784FF94F8503013B994F858301BB192
S31508002808236E04F150009847284602B0BDE8F087C1
S315080028180135B3E76225F7E71C25F5E7D01C002044
S315080028282DE9FF410F4690461E46054698B390F88F
S31508002838343093B3B1F5801F31D21A4C022142F0D5
S31508002848B4FD2246394628460DF10F03FEF7F6FE73
S31508002858024678B10123424600933946334628464C
S31508002868FFF77EFF0446E86B42F039FF204604B0BE
S31508002878BDE8F0819DF80F30012BEBD12169B142F3
S31508002888E8D10093414633462846FFF79DF80446A3
S315080028980028DFD1E7E72124E8E71124E6E7292419
S315080028A8E4E700BFFC1C002030B50C46054685B099
S315080028B828B390F8343023B3B1F5801F23D2022108
S315080028C842F073FD0DF10F03214628460F4AFEF71D
S315080028D8B5FE034688B99DF80F20032A0DD00322B2
S315080028E82146009202462846FFF73AFF0446E86B57
S315080028F842F0F5FE204605B030BD2D24F7E7212421
S31508002908F8E71124F6E72924F4E700BFFC1C0020A1
S315080029182DE9F0414668002E3AD0056898464FF0EA
S31508002928000CAE4655F83C40C4F31307013401D0F1
S31508002938B94222D00CF1010C66450EF1080EF1D108
S3150800294800273C4603E0A64207F108071DD055F8BC
S31508002958343001340133F6D16FEA01316FEA1131A7
S31508002968E9510168CB59C3F3130343EA0853CB511A
S3150800297803683B445A60BDE8F08141EA0851CEF83D
S315080029880010036803EBCC03F4E7B8F1030F03D18F
S3150800299801230372BDE8F08100273C4603E0A642FE
S315080029A807F10807F4D055F834300134C3F3075C47
S315080029B8BCF1030FF3D11B0D1B050B43EB51D0E7F5
S315080029C82DE9F0410646406882B0C0B10F469046E8
S315080029D80024336853F8345003EBC403C5F307528D
S315080029E8C5F31301013504F1010406D05B683046C6
S315080029F8CDF80080B84710B170688442E9D302B0B0
S31508002A08BDE8F081024B1968024B1868FFF7E6BC67
S31508002A188C0D0120AC0D012008B558F0F0FF014BCC
S31508002A28186008BD281D0020014B186858F0E2BF39
S31508002A38281D002073B504462248012A00EAC11158
S31508002A489DF8185023F07C4007D9961E012E28D9E0
S31508002A58073303F07F03194308E09DF81C300A433F
S31508002A68DB0603F0C053134343F060410023C4E96F
S31508002A7800108DF80730B5B1202221460DF1070060
S31508002A8843F084F91A220DF10700211D43F07EF957
S31508002A98082063689DF8072043EA8263636002B0EA
S31508002AA870BD1143E2E71B220DF10700214643F0EA
S31508002AB86DF923689DF80720042043EAC26323605A
S31508002AC8EDE700BF80FFFF0738B5094B0D461A68C2
S31508002AD80021044647F011FC4FF0FF320023C4E9F1
S31508002AE800252361A260E3822383A37638BD00BF4D
S31508002AF8CCCF05080138C0B205289ABF014B185C27
S31508002B0801207047D1CF05082DE9F041074615463B
S31508002B1800240E46596888B0490A012922464FEA10
S31508002B28510104F10104F8D8DC78997824031B8844
S31508002B38C90201F4006104F480540C43C3F30A0380
S31508002B485203234492B24FF000089C18274B6FEAA9
S31508002B580444039325F07843ED4302A90DF10700D1
S31508002B681B2202938DF8078043F010F99DF8072079
S31508002B78029B02A943EAC2630DF107001B2225F04E
S31508002B887845049302958DF8078043F0FFF89DF879
S31508002B980720029B6FEA144443EAC26305934FF081
S31508002BA8FF330794069307A9BB69012206F11000AB
S31508002BB89847BB6905A90446012206F10800984703
S31508002BC8BB69404518BF044604A90122301D984729
S31508002BD80122404518BF0446BB69304603A99847F1
S31508002BE8404508BF204608B0BDE8F08101009AB202
S31508002BF800210846F0B52F4C2F4A2368156845B1B9
S31508002C081D68002D4BD09D889688AE4284BF134612
S31508002C1801210130052802F10802EFD101B123602C
S31508002C2800210D462548264A0368166846B11E68D7
S31508002C38002E37D09E889788B7423CBF1346012195
S31508002C480135052D02F10802EFD101B103602368A9
S31508002C581A6852B31B499C888A6F1B4B22F0FF726D
S31508002C6803EA044322F4803213438B674FF0502358
S31508002C784FF000429A6603681A68C2B111499B88E0
S31508002C888A6FC3F3080322F4FF7222F00102134382
S31508002C988B674FF050234FF080429A66F0BD134673
S31508002CA80121B6E713460121CAE7084BE0E7074BB7
S31508002CB8F1E700BF301D00205C1D00202C1D0020F8
S31508002CC8341D0020004000500000FF01006000503D
S31508002CD808B501F099FADFED117AB4EEE70AF1EED4
S31508002CE810FA17D4DFED0E7AB4EE670AF1EE10FA89
S31508002CF837FE800AF6EE007A30EE270ADFED097A03
S31508002D0830EE270ABDEEC00A10EE103AA3F180008D
S31508002D1840B208BDB0EE670AECE700BF000000C382
S31508002D280000FE420000004310B5164A936E526E24
S31508002D38134013F0804113D0134B186804683CB14C
S31508002D480021082247F0D9FAFFF7C2FF0021A04759
S31508002D584FF080420D4B5A66BDE81040FFF748BF52
S31508002D68002BF9DA0A4B1868046834B1082247F0C8
S31508002D78C4FAFFF7ADFF0121A0474FF00042034B05
S31508002D88E9E700BF004000502C1D002000600050F5
S31508002D98301D0020044BD3F88420D206FBD4D3F880
S31508002DA88400C0F3811070470040005038B5174BAF
S31508002DB80546D3F828310C4603F00703013B052BD3
S31508002DC820D8DFE803F003131B0F0B1756F0F6F9A4
S31508002DD8052305B1286004B1236038BD56F0EEF91D
S31508002DE80623F6E756F034FA0723F2E756F026FAEA
S31508002DF80323EEE756F022FA0423EAE756F01AFA0E
S31508002E080223E6E700231846E3E700BF00800050E0
S31508002E18002337B50193164B0546D3F820320C46DE
S31508002E2803F00703042B21D8DFE803F0030B111678
S31508002E381B0001230DB1019A2A6004B1236003B06F
S31508002E4830BD002101A8FFF7B1FF1123F2E756F0BC
S31508002E58FFF907230190EDE758F0F7FD0A230190DB
S31508002E68E8E756F03DFA09230190E3E70023E1E78E
S31508002E780080005038B5104B0546D3F850320C463A
S31508002E8803F00303022B12D0032B08D0012B0AD018
S31508002E980023184605B1286004B1236038BD58F0E8
S31508002EA8D7FD0B23F6E758F0D0FD0A23F2E756F0CC
S31508002EB817FA0923EEE700BF0080005038B5104B13
S31508002EC80546D3F880300C4603F00303022B0BD0D3
S31508002ED8032B0DD0012B0FD156F076F90D2305B12A
S31508002EE8286004B1236038BD56F0B2F90723F6E71F
S31508002EF856F064F90623F2E700231846EFE700BF01
S31508002F080080005038B5104B0546D3F800310C46FA
S31508002F1803F00303022B0BD0032B0DD0012B0FD183
S31508002F2856F08CF9032305B1286004B1236038BD2F
S31508002F3856F0D6F90923F6E756F086F90823F2E794
S31508002F4801230020EFE700BF0080005038B5184B72
S31508002F580546D3F820010C4600F00700062823D8B2
S31508002F68DFE800F0040A0E16121A1E00012305B13E
S31508002F78286004B1236038BD56F020F90523F6E722
S31508002F8856F05CF90323F2E756F062F90723EEE7F1
S31508002F9856F050F90223EAE756F010F90623E6E751
S31508002FA856F04CF90423E2E700231846DFE700BF8A
S31508002FB80080005038B5104B0546D3F840310C460A
S31508002FC803F00303022B0BD0032B0DD0012B0FD1D3
S31508002FD858F03BFD0A2305B1286004B1236038BDC3
S31508002FE856F07EF90923F6E758F032FD0B23F2E787
S31508002FF801230020EFE700BF00800050002337B503
S315080030080193164B0546D3F860320C4603F00703BE
S31508003018013B032B1FD8DFE803F0020E1914002121
S3150800302801A8FFF793FF0F230DB1019A2A6004B18F
S31508003038236003B030BD002101A8FFF7BBFF1023AA
S31508003048F2E756F005F907230190EDE756F0F2F88E
S3150800305802230190E8E70023E6E700BF0080005056
S3150800306838B5104B0546D3F860310C4603F0030310
S31508003078022B0BD0032B0DD0012B0FD158F0E5FCF2
S315080030880A2305B1286004B1236038BD56F028F92B
S315080030980923F6E758F0DCFC0B23F2E701230020A6
S315080030A8EFE700BF008000502E4B98424AD022D83E
S315080030B82D4B984240D014D82C4B984239D00AD870
S315080030C82B4B984232D02B4B98422FD02A4B9842FA
S315080030D82CD000207047294B9842FAD1284B186FF4
S315080030E87047284B98422AD0274B9842F1D1244B4F
S315080030F8D3F880007047254B98422BD009D8244B23
S31508003108984223D0234B9842E3D11D4BD3F88C0021
S315080031187047214B984221D003F5740303F51053E1
S315080031289842D6D1164BD3F898007047144B986D29
S315080031387047134B586E7047114B586F7047104BB2
S31508003148986F70470E4BD3F8840070470C4BD3F82A
S31508003158880070470A4BD3F890007047084BD3F895
S31508003168940070470048E8010024F400C0CF6A00BC
S3150800317880841E0000093D0040420F00405DC600DD
S315080031880080E00FC0EA210180BA8C01007E560350
S3150800319880D54302006CDC020090D00373B50D4657
S315080031A80021114B0191D3F88041064604F0030427
S315080031B8022C13D0032C0CD0012C13D101A8FFF72D
S315080031C8C5FE0F240EB1019B336005B12C6002B011
S315080031D870BD56F03DF807240190F3E756F02AF833
S315080031E80190EFE70C46EDE70080005038B5104B24
S315080031F80546D3F840320C4603F00303022B0BD0DE
S31508003208032B0DD0012B0FD158F01FFC0A2305B14B
S31508003218286004B1236038BD56F062F80923F6E73A
S3150800322858F016FC0B23F2E701230020EFE700BF4E
S315080032380080005038B5144B0546D3F800020C46F2
S3150800324800F0070004281BD8DFE800F003090D1171
S315080032581500012305B1286004B1236038BD58F06C
S31508003268F4FB0A23F6E756F03BF80923F2E758F089
S31508003278EFFB0B23EEE755F0C7FF0E23800AE9E7B5
S3150800328800231846E6E700BF0080005038B5144BFF
S315080032980546D3F808020C4600F0070004281BD890
S315080032A8DFE800F003090D111500012305B12860B0
S315080032B804B1236038BD58F0C8FB0A23F6E756F070
S315080032C80FF80923F2E758F0C3FB0B23EEE755F08E
S315080032D89BFF0E23800AE9E700231846E6E700BFA6
S315080032E800800050B0F5207F1FD009D8B0F5007FC0
S315080032F815D003D868B1B0F5C07F0AD000200CE015
S31508003308B0F5607FFAD10B4BD3F88000C0F30110F3
S3150800331803E0084B186FC0F3033001307047054BBC
S31508003328D3F89000C0F30460F7E7024B186FC0F3B0
S315080033388020F2E70080005002464FF48030104B98
S3150800334810B598660020FFF7CDFF504341F6713255
S315080033580C4BDC69DA635A6804F4803422F44012A8
S3150800336859B90949884294BF00200120000502433B
S315080033785A600CB10022DA6310BD0449F2E700BFAF
S315080033880090005000000350005A6202002D3101D7
S31508003398430905D0012B0CD0022B084B18BF002374
S315080033A800F01F0039B103F58053012282401A60E4
S315080033B87047034BF4E703F50053F6E768800050B7
S315080033C8648000501FB50021B0F5807FCDE9001153
S315080033D800F00B816AD8002800F0DE8020386028C3
S315080033E878D8602876D8DFE810F0D700E500D70047
S315080033F8E500F600F600F600F600F600E50092008D
S31508003408EB0011011601EB00E500E500E500750083
S315080034187500750075007500750075001101E500E1
S31508003428E500E5003B019D00E5007500750075009F
S3150800343875007500750075007500750075007500CE
S3150800344875002001F600D700D700D7001B01EB004E
S31508003458EB002501BA00FB00CE00CE00750075000A
S3150800346875007500D700750075007500750075003C
S31508003478750075007500750075007500750075008E
S31508003488750075007500750075007500750075007E
S31508003498750075007500750075007500750075006E
S315080034A875007500750075007500D300B0F5F06FE6
S315080034B800F0D6803BD8B0F5806F00F08C801BD81A
S315080034C8B0F5207F76D009D8B0F5C07F64D0B0F5BE
S315080034D8007F64D0009805B05DF804FBB0F5407F1E
S315080034E86ED0B0F5607FF5D101A80021FFF7E6FC9C
S315080034F84FF46070019A57E0B0F5C06F00F0868007
S315080035080AD8B0F5A06F6BD0B0F5B06FE2D100213C
S315080035186846FFF743FEDDE7B0F5D06F7BD0B0F518
S31508003528E06FD7D100216846FFF760FED2E7B0F50D
S31508003538206F7FD00CD8B0F5106F71D0B0F5186F22
S3150800354873D0B0F5086FC5D16846FFF7DBFCC1E74D
S31508003558B0F5306F73D010D8B0F5286FBAD10021FE
S31508003568424B0391D3F8703203F00303012B02D1BF
S3150800357803A8FFF71FFD039B41E0B0F5386F45D058
S31508003588B0F5406FA6D100216846FFF70FFCA1E702
S3150800359855F01AFE00909DE755F036FEFAE755F005
S315080035A813FE02464FF40070FFF79CFEB2FBF0F2DA
S315080035B800928FE755F028FE02464FF42070F3E78D
S315080035C855F022FE02464FF42070FFF78BFEB2FB39
S315080035D8F0F25208ECE700216846FFF7B7FC79E7EE
S315080035E800216846FFF714FC74E74FF0E0230291C0
S315080035F81B695B0705D555F007FE0290029B0093E9
S3150800360868E703A902A8FFF7D5FCF7E7002168468B
S31508003618FFF7D0FC5EE700216846FFF70BFE59E77F
S3150800362800216846FFF732FE54E700216846FFF78F
S3150800363821FC4FE700216846FFF7E0FC4AE70B4BF9
S31508003648D3F8903203F00303012B04D0022B05D1DB
S3150800365855F0FEFD9EE755F0EDFD9BE7084699E710
S3150800366800216846FFF7FCFC34E700BF00800050DD
S3150800367808B58020FFF7A6FE034B98429EBF4FF475
S315080036888032024B1A6708BD005A620200A0005031
S315080036981FB503460020B3F5607F019000F0F4805B
S315080036A87BD8582B68D8382B06D8243B092B49D9F8
S315080036B8019805B05DF804FB393B1F2BF8D801A221
S315080036C852F823F075380008B9360008B9360008E4
S315080036D8B93600087F380008A3380008B936000844
S315080036E8B9360008B9360008B9360008B9360008E8
S315080036F8B9360008B9360008B9360008B9360008D8
S31508003708B9360008B9360008B9360008B9360008C7
S31508003718AD380008C7370008B9360008B9360008B2
S31508003728B93600080B380008B9360008B936000853
S31508003738B7380008C1380008993800082D38000835
S315080037482D380008092BB3D801A252F823F000BF78
S31508003758C7370008C7370008C7370008C73700083B
S31508003768C7370008B936000861380008B9360008AE
S3150800377875380008E5370008802B58D0B3F5807FE0
S3150800378896D14FF0E02302901B695B0769D555F07F
S315080037983BFD0C230393039B56E0B3F5086F6FD0E4
S315080037A821D8B3F5C06F61D00ED8B3F5A06F6FD026
S315080037B8B3F5B06F50D0B3F5806F7FF479AF0020BA
S315080037C801A9FFF7C3FB73E7B3F5E06F65D0B3F557
S315080037D8F06F50D0B3F5D06F7FF46AAF002001A917
S315080037E8FFF728FD64E7B3F5286F65D00ED8B3F55B
S315080037F8186F57D0B3F5206F59D0B3F5106F7FF40B
S3150800380857AF002001A9FFF741FD51E7B3F5306F1F
S3150800381864D0FFF44DAFB3F5386F27D0B3F5406FD2
S315080038287FF446AF002001A9FFF7C0FA40E7344BFA
S315080038381B6F03F00703013B032B3FF639AFDFE89D
S3150800384803F0090205070523019331E70323FBE77C
S315080038580823F9E70223F7E7002001A9FFF79EFCEA
S3150800386826E703A902A8FFF7A5FB94E7002001A904
S31508003878FFF7A0FB1CE7002001A9FFF7F1FB17E7F4
S3150800388801A9FFF73FFB13E701A9FFF717FB0FE7A6
S31508003898002001A9FFF7BCFA0AE7002001A9FFF7EB
S315080038A8A5FC05E7002001A9FFF7E4FA00E70020D0
S315080038B801A9FFF7A3FBFBE6114BD3F8703203F017
S315080038C80303012B04D0022B0CBF14230023BBE7E8
S315080038D8002103A8FFF76EFB1023B5E7084BD3F8BA
S315080038E8903203F00303012B06D0022B02D155F0C0
S315080038F8AFFC07200190DBE655F09CFC0220F9E7AF
S31508003908008000504FF48032074B0849586E03F57B
S3150800391880535A664B6A23F001034B62C3035CBFA4
S31508003928034B5A66704700BF0080005000C0075016
S3150800393800A0005008B5FFF7ABFE09280ABF024BDE
S315080039484FF6FF70188808BDFA17012008B5FFF763
S315080039589FFE03280ABF024B4FF6FF70188808BD5A
S31508003968F8170120F8B504468020FFF791FE0328CA
S3150800397800F091804FF48012574B584D5A6645F619
S315080039880E034FF0A062C5F88030554B9A624FF483
S31508003998803203F580539A62AB6DDA03FCD4AE6DB8
S315080039A816F08046FBD1D4E900231B0543EA0263D7
S315080039B8E27B4C481343227B4B4F43EA0243627B24
S315080039C843EA0233A27B43EA82132B61AA69D4E944
S315080039D804131B0643EA816302F000421343A27EDE
S315080039E84FF440611343227E43EA0243627E43EA68
S315080039F80223AB614FF4006242F0E8F92B6AE269E8
S31508003A0823F00F031343003A18BF0122E17E43EA65
S31508003A18810343EAC2032B62E369002B3CD194F87D
S31508003A28243094F82010AA6ADB0043EA41133A4086
S31508003A38134394F821202D4943EA021343F48033AB
S31508003A48264AAB62936D31EA0303FBD14FF08071C6
S31508003A58234881621369A56823F4700343EA05536A
S31508003A6813614FF00043836194F822300BB9204B59
S31508003A78996294F823303BB94FF480321C4B9A620A
S31508003A88164A936D5B00FCD494F825301BB1134B8A
S31508003A98184AC3F88020F8BD022B08D12E614FF4C6
S31508003AA808524FF47F411448AE6142F08FF90B492A
S31508003AB894F822308A6A94F820001B063A4043EAAA
S31508003AC84013134394F8242043EAC20394F82320A6
S31508003AD843EA02438B62D7E7009000500040005A39
S31508003AE80050005A3840005AC7FFFEFE030001007E
S31508003AF80060005AF1A7FFFF3440005A014B93F9BA
S31508003B0800007047661801204FF400011B4A4378E5
S31508003B1810B551664FF4D151022402F5B8325162F4
S31508003B2817494F2B4C604FF0010428BF4F2301F566
S31508003B3880514C601169C903FCD4017843EA012312
S31508003B485361D0E901131B0143EA0123417B0B4367
S31508003B58017B43EA41039360C37B817B1B0143EAEC
S31508003B684113417C0B43017C43EA41035360837C40
S31508003B7813B16FF4D153536210BD00BF00900050C3
S31508003B8800100250014B1880704700BFFA17012031
S31508003B98014B1880704700BFF8170120B0F5207F41
S31508003BA810B50C465DD008D8B0F5007F4ED003D8BE
S31508003BB8C0B1B0F5C07F15D010BDB0F5607FFBD198
S31508003BC82C4B4C1ED3F8FC202B4912F0807F4FEA69
S31508003BD8041427D1D1F8803023F030032343C1F8E1
S31508003BE88030E9E742F001F942F00DF94FF48031E7
S31508003BF8224B214A1967136F013C23F4704343EAA1
S31508003C080433136755F000FB0446FFF7C3F8C0F101
S31508003C180201204642F0F1F800F04AF8BDE81040E3
S31508003C28FFF726BDD3F8FC2022F08072C3F8FC20E3
S31508003C38D1F8802022F030022243C1F88020D3F838
S31508003C48FC2042F08072C3F8FC20B5E70A4A4C1EED
S31508003C58D2F8903023F0F85343EA0463C2F8903058
S31508003C68AAE7054A4C1E136F23F4806343EA8423A4
S31508003C781367A1E700ED00E00080005000900050AF
S31508003C8808B50121022000F073F94FF42070FFF7F8
S31508003C9829FB054B187042F0A8F842F0B4F84FF41F
S31508003CA88032024B1A6708BD358E002000900050F6
S31508003CB808B54FF4C070FFF785FBBDE8084004490E
S31508003CC8884294BF012102214FF42070FFF766BF8E
S31508003CD880F0FA0238B5044655F096FA0546FFF715
S31508003CE859F8C0F10201284642F087F80121002058
S31508003CF800F07EF92CB1FFF7DBFFBDE83840FFF787
S31508003D08B7BC034B4FF420701978FFF747FFF4E761
S31508003D18358E00204FF4C02270B50546FFF7C4F962
S31508003D28314B04465A6603F598335A68012A04D172
S31508003D382E494A605A689207FCD48020FFF7A8FCE7
S31508003D48052807D142F051F842F05DF84FF4803261
S31508003D58254B1A67264B24F040749D4230D0254BD4
S31508003D689D4230D055F02AFA8542064603D90121E4
S31508003D78284600F03DF9204BDA6812F0060FFBD109
S31508003D8899689C609A68624012F4F81F1ED1284602
S31508003D98FDF7A6F88020FFF77BFC05280DD155F01E
S31508003DA833FA0446FEF7F6FFC0F10201204642F050
S31508003DB824F8FFF77DFFFFF75BFCAE420CD270BD17
S31508003DC844F00074CEE744F08074CBE7802099600D
S31508003DD8FFF75EFC052805D0BDE8704001210020E4
S31508003DE800F006B93546DAE70090005000E00150C1
S31508003DF840420F0080841E0000000150304B314AB3
S31508003E08984251D020D8A3F5B703A3F5586398422A
S31508003E1846D00DD82C4B984231D02C4B984239D0E5
S31508003E282B4B4FF4002198421DD00023516622E0FF
S31508003E38284B4FF400219842F7D1274BD3F8BC30CA
S31508003E48516623F0407316E0244B984230D0244B31
S31508003E58984231D0234B4FF400219842E5D11E4BA6
S31508003E68D3F8C830ECE71C4BD3F8A030516623F0DA
S31508003E78407343F000734FF0B442936070474FF4B1
S31508003E880021154BD3F8A030516623F0407343F050
S31508003E988073F0E7104BD3F8A0304FF40021CFE732
S31508003EA80D4BD3F8B830F8E70B4BD3F8C030F4E726
S31508003EB8094BD3F8CC30F0E7074BD3F8D030ECE70A
S31508003EC8C0EA21010090005080841E0000093D00C8
S31508003ED840420F000024F4000080E00F0048E80183
S31508003EE8005A620280BA8C01024A536B0342FCD11B
S31508003EF8704700BF00400950044A4178536F23F4BD
S31508003F08407343EA01235367704700BF00400050D7
S31508003F1810B50E4A0446136943F00403136155F0B5
S31508003F28C7FF41F075FF0A4B5B6E5B0142BF094B41
S31508003F38094AC3F8202430BF41F06BFF04F082FD1C
S31508003F481CB9BDE8104055F05FB910BD00ED00E09A
S31508003F580080005000E003500000FF0F034A017973
S31508003F68D36E23F030030B43D366704700400050E6
S31508003F78F8B504461C4BD3F88420D106FBD4D3F8ED
S31508003F888430C3F381139C422CD055F01DF9012CBB
S31508003F98064602D1214641F030FF57F030FD4FF072
S31508003FA80072124B07465A66204641F035FF4FF411
S31508003FB880630D4D621E93402B676B6E9A0103D47E
S31508003FC8D5F884309B060AD5384657F013FD022CD7
S31508003FD808D13046BDE8F840002141F00EBFD5F8B3
S31508003FE88430EAE7F8BD00BF004000500060005082
S31508003FF810B50C4608B955F0E7F8074B21461B7863
S315080040083BB1064B984204D80120BDE81040FFF79B
S31508004018AFBF0220F9E700BF368E0020005A6202B9
S315080040280278034B012100201A70FFF7E1BF00BF91
S31508004038368E00204FF0004238B5244B244C5A6679
S315080040484AF6CD33656C014605F00105236428BB9D
S315080040580120FFF749FF6368DB0715D51D4B586034
S3150800406808461D4B226BD2070CD4984208D1072460
S3150800407815B1174B194A1A6433F0F4FE204638BDB1
S315080040880130EFE79842F2D00024F1E70132236BBA
S3150800409813F0080305D08A42F8D1E8E700220E494A
S315080040A8F5E78A42E3D020210A4A91620121A2F55E
S315080040B8805251600649084A886A800603D49342A2
S315080040C8D5D00133F8E79342DDE700BF00900050EA
S315080040D8004009500060095040420F003254FFFF63
S315080040E84FF0004238B5164B01465A664AF6CD33A4
S315080040F8144C154A656C236443780B205B0043F01F
S315080041080103D363FFF7F0FE63688A7823F4F8732C
S3150800411843EA02136360CA784B7943EA0223A36029
S315080041280A798B7943EA022323610878FFF782FF25
S31508004138EB0744BF054B236433F094FE012038BDD2
S315080041480090005000400950004000503254FFFFCC
S315080041584FF0004270B5124B04465D6E03F5805366
S315080041685A664AF6CD330F4980204E6C0B64FFF722
S31508004178BBFE0B6A23F00F030F2C94BF234343F0AF
S315080041880F030B62F30744BF074B0B64002DA2BF4E
S315080041984FF00042054B5A6633F064FE70BD00BF07
S315080041A800800050004009503254FFFF00A000501C
S315080041B84FF0004270B5104B04465D6E03F5805308
S315080041C85A664AF6CD330D4980204E6C0B64FFF7C4
S315080041D88BFE0B6A23F4F85343EA04230B62F307AE
S315080041E844BF074B0B64002DA2BF4FF00042054B96
S315080041F85A6633F037FE70BD0080005000400950FB
S315080042083254FFFF00A00050064BDFED077AD3F8BB
S315080042188830C3F30A0300EE103ABAEECF0A30EE36
S31508004228670A7047004000503393884338B501251C
S31508004238C3B29D401D4B0C461D658300096803F1F2
S31508004248A04303F58823596030214843637B00F16E
S31508004258A04000F580200366E37AA17A1B0543EAA5
S315080042680143217B22F0030243EA4153C3650267EF
S3150800427857F0D8FB0E4B5D65227A02B11D64627A47
S3150800428802B19D632279A37943EA0243074A9361F7
S315080042986179E37943EA014305498B61054B55631F
S315080042A89D64BDE8384057F0B8BB00BF00200450ED
S315080042B8001004500000045010B50124C0B2844010
S315080042C857F0B0FB074BDA6A224208D15B6B9C436E
S315080042D80CBF0124002457F0A0FB204610BD00247B
S315080042E8F9E700BF000004504FF48032054B9A6680
S315080042F841F6713203F51C33DA63012203F50053DC
S31508004308DA6070470090005041F671320121064B79
S31508004318DA6303F50052D1600022DA634FF480327B
S31508004328A3F518339A6670470000035001383128F8
S315080043389ABF024B185C0020704700BFD7CF050804
S31508004348021E30B54FF000000CBF0C25042547F6B1
S315080043580774084952B9831D51F82330234023B1FD
S3150800436801308542F6D14FF0FF3030BD00F1120317
S31508004378F2E700BF0080035010B5C2F306230446CF
S3150800438802F0070241B942EA032242F440220634FF
S31508004398074B43F8242010BD1146184641F03DFD49
S315080043A802461846FFF7C2FF123442EA0022EFE730
S315080043B80080035010B542EA03420A4C51B90A4B29
S315080043C843F82020D4F84826012383401343C4F829
S315080043D8483610BD054B43F82020D4F848260C303B
S315080043E8F2E700BF00C003504CC603507CC6035012
S315080043F84FF48032084B5A6603F5E6239B69C3F3E4
S31508004408461203F00F010A434280C3F30342C3F37B
S31508004418033342700370704700900050014B986C44
S31508004428D96C70470080E00F0120034B9B680A335C
S3150800443803F01F03984070470080E00F0122437875
S3150800444801789A4030235943014B5A50704700BFA8
S3150800445840E00350034BD3F82424D3F82004104033
S31508004468704700BF00C00350064BDA6E02F03002F0
S31508004478202A06D0DA6E22F0300208B142F010027D
S31508004488DA667047004000502DE9F0411C4B044697
S31508004498D3F810334B1E0E2B0D46164623D939B3BF
S315080044A84FF00008204606B354F04AFF0F216778F4
S315080044B82378072F03EB430388BF083F4FEA031304
S315080044C8104895BFBF00BF0004330C3308FA07F23B
S315080044D8B940184441F0CDFC85B9204656B1BDE827
S315080044E8F04154F02DBF8846DCE7FFF7A7FFDDE764
S315080044F88846DBE7BDE8F041FFF7A0BFBDE8F081D5
S3150800450800C0035030C003502DE9F0412B4B174625
S31508004518D3F810234A1C06460C46407804D1D3F82B
S31508004528241441F0B5FC0446002C2FDB072C4FF069
S31508004538030532782DDC4FEA840805FA08F529467A
S315080045481F4802FA08F241F094FC294672781D4879
S3150800455802F0030202FA08F241F08BFC012317F075
S31508004568050F194A18BF194903FA04F30CBFC2F80C
S315080045781034C1F8103417F0060F18BF134AC2F8DA
S3150800458814340123104AA340C2F820342046BDE853
S31508004598F081A4F108084FEA880805FA08F52946BB
S315080045A80B4802FA08F241F064FC7278294602F0D0
S315080045B80302084802FA08F2CEE700BF00C0035013
S315080045C800C4035008C4035000E0035000D0035049
S315080045D804C403500CC4035038B505460C4C0140B6
S315080045E8D4F8303423EA0003C4F83034D4F8303425
S315080045F81943C4F83014D4F82C340343C4F82C34BB
S31508004608012004F50054FFF72FFFC4F8205438BDDD
S3150800461800C0035070B5124B0646D3F8103341F064
S3150800462851FC0446481C154603D1621C05D1204690
S3150800463870BD631CFBD08C420ED13046032185F031
S315080046480102FFF721FF012004F1100305FA03F11F
S315080046589840FFF7C1FFEAE74FF0FF34E7E700BFE6
S3150800466800C00350054B9A689107FCD45A6892070C
S31508004678F9D4DA69002AF6D1704700BF00800A50D3
S3150800468808B503494B6854F067FE02230B6108BD59
S3150800469800800A5008B5FFF7E5FF0122024B03F52B
S315080046A880514A601A6108BD00800A5008B5044B53
S315080046B85868012803D1FFF7E3FF024B586008BD85
S315080046C800800A5000A00A5038B5074DFFF7CAFF00
S315080046D86B680446012B03D1FFF7E8FFFFF7C2FF13
S315080046E82378EB6038BD00BF00800A5010B554F037
S315080046F83DFEB8B94A680B7812B1127843EAC20384
S315080047084A7843EA42038A6812B1127843EA82135E
S31508004718CA7843EA82030A6912B1127843EA42233D
S31508004728014A936410BD00BF00800A504FF48032D6
S315080047380A4B5A6603F5E6239B69C3F303320270EC
S31508004748C3F303424270C3F3461203F00F0313433D
S3150800475843804FF6FF738380704700BF0090005070
S31508004768014B986CD96C70470080E00F70B5044609
S3150800477851F0B3FF064640B90FCC054D0FC50FCC0F
S315080047880FC594E80F0085E80F00304670BD00BFD6
S31508004798841D002047F6FF739A42F0B56FD00929A1
S315080047A86FD8394B5B5C042B6BD8384DDF0005EBAB
S315080047B8C30415F83330A178012B13D10025E07806
S315080047C8401AA84202D80844C0B2F0BD431B66681E
S315080047D8A0EB530336F913609642D4BF1D4603F17E
S315080047E8FF30EEE760680028EFD0B0F90040944241
S315080047F804DBB0F902409442B8BF144683883D44A6
S31508004808FF2B19BFC8224FF0280CB0F90620B0F9BB
S3150800481808C0A2EB04030CBF0126002693FBFCF391
S3150800482833446E781BB29E4201DD002B01DA731EF3
S315080048381BB24FF47A7C01339BB2071D5D1E2DB25D
S315080048484FEAC50E00EBC505EA88AD689E4214FB1B
S31508004858025222EAE27202F15C02B2FBFCF204DDC1
S3150800486837F8335001339542E8D200EB0E0398889F
S31508004878904228BF1046884238BF0846A4E7FF205A
S31508004888A3E70020A1E700BF09D00508841D00207A
S315080048980929F0B555D82C4B585C042851D82B4C07
S315080048A804EBC00114F830004B6801280FD1C8780A
S315080048B88C78904294BFC4EB0001C4EB0201001B3C
S315080048C8CAB28242C8BF002233F91200F0BD002BD3
S315080048D837D08878904202D3B3F90200F6E7CC7845
S315080048E8B3F900009442F1D94C789988013CA1F1B2
S315080048F8FF06714203F10405E4B2714103F10C079E
S31508004908CEB2B44216D805EBC1014FF47A756A439C
S31508004918B1F902404968521A04EBD47102EB6102F4
S3150800492892FBF4F29042D1DBB3F902009042CDDC57
S3150800493810B2CBE737F831C04E1C9445E3D331465D
S31508004948DEE70348C2E700BF09D00508841D002032
S315080049580080FFFF08B50448FFF708FFBDE80840D0
S31508004968012051F0CFBE00BF14D005080048704793
S31508004978FC17012001282DE9F34147F60773074676
S3150800498814BF062400249046114AA01D52F8206038
S315080049981E4019D1CDB2042132460DEB01008DF81F
S315080049A804708DF80550FCF735FB4246314620461B
S315080049B8FFF7E2FC2B463A4631462046FFF7FAFC53
S315080049C8204602B0BDE8F08101340C2CDDD1F7E7AA
S315080049D800800350F8B5264B1B6855F00FFE0128D2
S315080049E806461CD957F0E9FA041E02DA01252846B4
S315080049F8F8BD204B1B78002B37D150271E4DE819D8
S31508004A08AD65EF6557F082FB286680B90125012E4A
S31508004A18EDD9204657F0E7FA0028E8DAE6E7154B15
S31508004A281B7803F0FF04002BE7D00025DFE7134DBA
S31508004A3810220021284645F060FC05F110032A4695
S31508004A4800210120AB60EF6057F010FC28660028AB
S31508004A58DCD00321432042F0F7FE432003F0DCFDB7
S31508004A680122044B00251A70D1E70025D1E700BFBB
S31508004A78B00D0120378E0020181E0020B41D002016
S31508004A8808B54FF098435B6CD90208D555F0B6FDC2
S31508004A980238012803D8094B186E57F066FC4FF000
S31508004AA898435A6CD202FCD55B6D054A03F4702309
S31508004AB813604320BDE8084003F0D8BDB41D0020A4
S31508004AC8B00D01202DE9F0418CB08846DDE9127653
S31508004AD81D460446002847D0002945D0002F43D054
S31508004AE8002E41D013F00F033ED120482049A36079
S31508004AF8002A08BF01462362C4E90013404609A9EB
S31508004B0841F077FB68BB2046099956F0DCFF294631
S31508004B18204656F0D8FF6946404601F0FFF800BB24
S31508004B286946204641F07BFD404603A941F048FC0A
S31508004B38B8B9204603A941F072FD06970127204611
S31508004B4845F0005506A90797089541F068FD2046DF
S31508004B5809A909960A970B9556F0DEFF204654F0E0
S31508004B6879FC0CB0BDE8F0812120FAE700010004C1
S31508004B78000101042DE9F04F97B0894690461F4673
S31508004B880546DDF880A0002800F0BB80002900F063
S31508004B98B8803AB1229B002B00F0B380239B002BE8
S31508004BA800F0AF80BAF1000F00F0AB80219B002B14
S31508004BB800F0A78067B13C680026229B434402930D
S31508004BC8464507D307B13C60002017B0BDE8F08F0B
S31508004BD83C46F1E75CB1229B219A9B5D125D013444
S31508004BE85340239A04F00F0493550136E8E7A8EBD7
S31508004BF8060BBBF10F0F58D9434B4846C5E9003495
S31508004C08AC602C6213A941F0F4FA0028DDD12846D5
S31508004C1813992BF00F0B56F056FF5946284656F0AF
S31508004C2852FF484604A901F079F80028CDD128464C
S31508004C3804A941F0F4FC484607A941F0C1FB00283D
S31508004C48C3D1284607A941F0EAFC012322992F4A2D
S31508004C58CDF828A00B930C928A190D9228464BF08A
S31508004C6800520AA90E9303920F9241F0D8FC2846DF
S31508004C780DA941F0D4FC239B039A99190123109195
S31508004C8811931292214A284610A9CDF84CA01493DC
S31508004C98159256F041FF284613A956F03DFF2846B7
S31508004CA854F0D8FB5E4400288FD1229B03EB060BF1
S31508004CB8239B1E44029B5B4501D1464680E7ACB957
S31508004CC8219B2246CDE900A3494610232846FFF72B
S31508004CD8F9FE00287FF479AF0AF1100212F8013DAF
S31508004CE80133DBB213700BB95245F7D1219A1BF879
S31508004CF8013B125D0134534006F8013B04F00F04EA
S31508004D08D8E7212061E700BF03030004100000204C
S31508004D182DE9F04F97B0894615469A460446209FCE
S31508004D28DDF88880DDF890B0269E002800F09D8082
S31508004D38002900F09A80002E40F08A80002B00F0A7
S31508004D489480B8F1000F0AD0219B002B00F08D80C3
S31508004D58002A40F09F80F10700F1878002E0002AC8
S31508004D6840F08580FB1F062B7FD8524B0BEB0502BC
S31508004D789A427AD80023504A4846C4E90023A360D1
S31508004D88236213A941F035FA00285ED12046139903
S31508004D9856F099FE204646EA074156F094FE4146E3
S31508004DA8204656F090FE2946204656F08CFE484680
S31508004DB801A900F0B3FF002847D1204601A941F010
S31508004DC82EFC484604A941F0FBFA00283DD14FF0CD
S31508004DD80109204604A941F022FC239B45F0005509
S31508004DE80793219BCDF82090204609950DA90A938B
S31508004DF847F0005748F00053CDF82C900C93CDF89F
S31508004E0834A0CDF838900F9741F009FC20460AA936
S31508004E1841F005FC204607A941F001FC259B2046E0
S31508004E2810A946F00056CDF840B0CDF84490129532
S31508004E381393CDF85090159656F06EFE204613A992
S31508004E4856F06AFE204654F005FB17B0BDE8F08F09
S31508004E58259B53B1BAF1000F07D0B8F1000F01D05E
S31508004E68219B13B1B5B9022E20D12120EDE7239B4A
S31508004E78002BFAD0BBF1000FF7D0C7F10F03DBB24E
S31508004E88032B3FF668AF0122DB0002FA03F3AB42B5
S31508004E98EBD9E8E7239B002BE7D0BBF1000FE4D05A
S31508004EA8C7F10F03DBB2032BDDD8ECE7102E7FF62C
S31508004EB852AFDAE700000420000005042DE9F04F98
S31508004EC899B0884615469B460446229FDDF8989071
S31508004ED8289E60B159B1279B4BB1BBF1000F06D08C
S31508004EE8249B0BB1239B13B11DB9022E13D1212381
S31508004EF89AE0259B002BFAD0B9F1000FF7D0C7F135
S31508004F080F03DBB2032BF0D80122DB0002FA03F306
S31508004F18AB42ECD9E9E7731E0F2BE8D816F0010A5D
S31508004F28E5D1FB1F062BE2D8414B09EB05029A424D
S31508004F38DDD8404B4046C4E9003AC4F808A0C4F88E
S31508004F4820A015A941F055F9034600286CD120463A
S31508004F58159956F0B8FD204646EA074156F0B3FDBE
S31508004F682046249956F0AFFD2946204656F0ABFD53
S31508004F78404603A900F0D2FE0346002854D120462D
S31508004F8803A941F04CFB404606A941F019FA034625
S31508004F98002849D14FF00108204606A941F03FFBF1
S31508004FA8259B2046099345F00053CDF828800193A0
S31508004FB80B93239B0FA90C93249B47F0005743F0A8
S31508004FC80052CDF834800E92CDF83CB0CDF840802A
S31508004FD8119741F024FB20460CA941F020FB2046F6
S31508004FE809A941F01CFB019B204612A9CDF8489057
S31508004FF8CDF84C80149356F08FFD279B204615A9AB
S3150800500846F000561593CDF85880179641F007FBD9
S31508005018204654F01FFA034630B101902A465146F5
S31508005028484645F06AF9019B184619B0BDE8F08F5D
S3150800503800000420000006042DE9F0418CB08846DB
S3150800504816461D460446129F00284BD0002949D00B
S31508005058002A47D0002F45D00B68103B102B41D8A3
S31508005068214A22FA03F3D9073CD500231F4A83604D
S31508005078C0E90023036209A9404641F0BAF870BBA3
S315080050882046099956F01FFD2946204656F01BFD6D
S315080050986946404600F042FE08BB6946204641F08C
S315080050A8BEFA404603A941F08BF9C0B9204603A9C0
S315080050B841F0B5FA06960126204606A945F0005598
S315080050C80796089541F0ABFA094B204609A90997AE
S315080050D80A960B9356F020FD204654F0BBF90CB0FF
S315080050E8BDE8F0812120FAE7010101000000040467
S315080050F810000020F0B50C4617461E46054695B022
S31508005108002874D0002972D0002A70D0002B6ED0DF
S31508005118036B0F2B5BD80023364A3846C4E90023AD
S31508005128A360236211A941F064F800285BD12046E0
S31508005138119956F0C8FC296B20460F2984BF01F03F
S315080051480F01103156F0BFFC384602A900F0E6FDFB
S31508005158002848D1204602A941F061FA384605A92F
S3150800516841F02EF900283ED1204605A941F057FA04
S315080051780122214B089509920A932B6B05F1100019
S3150800518803F00F0141F000510B900F2B0C920D9173
S315080051980E900F9243F00052109226D90A9B08A93E
S315080051A823F0005320460A9341F039FA0BA9204602
S315080051B841F035FA0123119612930F4B204611A98F
S315080051C8139356F0A9FC204654F044F90BE000F175
S315080051D82003019000930122102339462046FFF741
S315080051E871FC002897D015B0F0BD0EA9DFE721207D
S315080051F8F9E700BF00000404100000202DE9F04F6D
S315080052089BB00C4690461F460546DDF89090002848
S3150800521800F0B280002900F0AF80002A00F0AC80C8
S31508005228002B00F0A980026B02EB09031B09B3EBFC
S31508005238121F02F00F0600F0978000234F4A8B6072
S31508005248C1E900230B62404617A940F0D2FF03467E
S31508005258002840F0858006EB090B204617992BF0A5
S315080052680F0A56F030FC5146204656F02CFC4046AC
S3150800527802A900F053FD0346002871D1204602A969
S3150800528841F0CDF9404605A941F09AF803460028A9
S3150800529866D14FF00108019005A9204641F0BFF9EB
S315080052A8374A204608A90895CDF824800A9241F07D
S315080052B8B6F946F00051AAEB060605F1100346F0C2
S315080052C800560B93CDF830800D910E97CDF83C809B
S315080052D810960D99204621F000510D910BA90093BF
S315080052E841F09DF920460EA941F099F9019B244AF7
S315080052F81193AAF1100343F00053CDF8488013938D
S3150800530805F120031493CDF854801692139B204672
S3150800531843F080431393139B11A923F00053139367
S3150800532856F0FAFB204614A956F0F6FB144A17A9B4
S3150800533820461795CDF86080199256F0EDFB204661
S3150800534854F088F8AAEB0B0149440190ABEB0A0222
S315080053580098394444F0DCFF019B2A6B4A442A63C7
S3150800536818461BB0BDE8F08F10304A463946304417
S3150800537844F0CEFF0023F0E72123F1E703020004F7
S31508005388100000202DE9F0438DB08946DDE9145850
S315080053981F460446002851D000294FD0B8F1000FFF
S315080053A84CD00BB9002D49D1531EDBB2042B45D876
S315080053B82349CE5C169B9E4240D8224B484603EBAF
S315080053C802232360002309A9C4E90133236240F0B4
S315080053D810FF80BB2046099956F075FB29462046DA
S315080053E856F071FB6946484600F098FC18BB6946B2
S315080053F8204641F014F9484603A940F0E1FFD0B920
S31508005408204603A941F00BF906970127204606A965
S3150800541845F00055079746F00056089541F0FFF8FD
S31508005428204609A9CDF824800A970B9656F074FBEE
S31508005438204654F00FF80DB0BDE8F0832120FAE7AE
S31508005448C0D10508000102032DE9F04F9BB00D46AF
S31508005458DDE9296A90461F460446DDF89C9000282F
S3150800546800F02481002900F02181249B002B00F0FC
S315080054781D812B9B002B00F01981B9F1000F03D071
S31508005488269B002B00F0128137B1289B002B00F0D1
S315080054980D81002E00F00A81AAF104030C2B00F2F4
S315080054A80581259B0C2B40F001812B68103B102B9E
S315080054B800F2FC807F4A22FA03F3D90740F1F68006
S315080054C8B8F1010F7CD17C4B284643EA0A232360AE
S315080054D8002316A9C4E90133236240F08AFE8346ED
S315080054E8002840F0DF802046169956F0ECFA49461F
