S02A00006275696C642F64656275672F616D617A6F6E5F7369646577616C6B5F736F635F6F6F622E733337D9
S21400000000100020A96D00007D8D04007D8D040089
S2140000107D8D04007D8D04007D8D04007D8D0400A3
S2140000207D8D04007D8D04007D8D0400918005008B
S2140000307D8D04007D8D04002180050031A805001B
S2140000407D8D0400F9A700007D8D04007D8D0400E1
S2140000507D8D0400B79A04007D8D04007D8D04001C
S2140000607D8D04007D8D040065F000007D8D04000C
S2140000707D8D04007D8D04007D8D04007D8D040043
S2140000807D8D04007D8D04007D8D04007D8D040033
S2140000907D8D0400617500007D8D04007D8D04005B
S2140000A07D8D0400497400002D7400007D8D0400D1
S2140000B07D8D04007D8D04007D8D0400E1700400BC
S2140000C00D760500097605004968040023760500CC
S2140000D011760500A1700400157605004D4D04004C
S2140000E0217104007D8D04007D8D04007D8D04004B
S2140000F07D8D04007D8D04007D8D04007D8D0400C3
S2140001007D8D04007D8D04007D8D04007D8D0400B2
S2140001107D8D04007D8D04007D8D04007D8D0400A2
S214000120511600007D8D04007D8D04007D8D040039
S2080001307D8D0400B8
S214000134F0B5114A114C124E00F00105E3695F0751
S21400014413D40DB9334213D103EA00078F4207D103
S2140001540B4A1A40002A0CBF00206FF00100F0BDC5
S214000164013AEBD16FF00200F9E74FF0FF30F6E703
S2140001746FF00100F3E700BF80969800000003507C
S2140001840200010070B50B4BD96911F480310DD112
S21400019401244FF48072084E084DF46020462C6407
S2140001A41A61FFF7C5FF3464EC6070BD6FF00100A0
S2140001B4FBE700BF0000035000100350002003506C
S2140001C438B541F6713301220C4C0021E569E3632E
S2140001D40B4B05F48035DA6002236061212023612D
S2140001E4FFF7A6FF10B92120FFF7A2FF0122054B57
S2140001F4DA600DB10023E36338BD00BF000003508E
S214000204001003500020035070B5134C6061E3697E
S2140002145B071ED40E4656F8043B8D18A361AE4207
S2140002240BD10423002121202361FFF781FF58B955
S214000234BDE870402120FFF77BBF08210846FFF782
S21400024477FF10B10423236170BD56F8043BA36105
S214000254E5E74FF0FF30F7E7000003502DE9F843D9
S214000264154641F67132164B8946DF69DA63012278
S214000274064603F58053DFF8508007F48037DA60CB
S21400028455B9284601220F4BDA601FB10022A3F5A8
S2140002940053DA63BDE8F88306F5005404EA08045C
S2140002A4A41BAC4228BF2C46494622463046FFF7DC
S2140002B4ABFF0028E6D12644A1442D1BE0E700BF8F
S2100002C4000003500020035000E0FFFF85
S2140002D0013800D0FCE7704710B51D4C00202146C1
S2140002E05AF0C9F918B146201A4948F08DFB236820
S2140002F0194AB3FBF2F3236020681DF09BFC10A3A1
S214000300D3E900231DF02AFA0FA3D3E900231DF03A
S21400031055FB1DF009FD114B114A1860D2F8FC3050
S21400032043F08073C2F8FC304FF060430D4AC3F8C8
S214000330B02F0D4A136843F00103136010BD00BFD1
S214000340EC51B81E85EBE93FF6285C8FC2F51C40E1
S2140003506C21002095D6050040420F006821002041
S21400036000ED00E055CEACC5001000E00000000037
S21400037070B54B4B90B004460D461B680F934FF07C
S21400038000034FF087FF002848D01422002108A859
S2140003904DF03FFDD4E907014FF6FF73ADF822306C
S2140003A00DAB83E803008DF821502BF06BFA002686
S2140003B0A06304906946012002AACDE90566CDE94E
S2140003C00066CDE9026607961FF0B4FE054670B3D8
S2140003D00596ADF8186043F6FF7303208DF81C00F1
S2140003E004A908A8ADF81A302FF012F810B90123A6
S2140003F084F84030636B5A1C4FF6FF7218BF013307
S2140004006363B4F8583093421CBF01339BB2A4F820
S214000410583094F83D30013384F83D30204B1A684C
S2140004200F9B5A404FF0000332D046F0BDFE009BB3
S21400043001990593C80318A3D3E90023490C1DF0BE
S21400044093FC15A3D3E900230399ADF81800C8035D
S214000450490C1DF089FC029B00EBC333B3F5804FBB
S2140004600DD3104A93420DD90F4A93420DD90F4A25
S2140004709342B0D803200D22D3409BB2AEE7284665
S2140004802A46F9E701200522F6E702200A22F3E7CA
S21400049010B070BDAFF3008000CA9A3B00000000A9
S2140004A034930020E0FF070000FCFF0000E0FF0799
S2140004B0002370B5404C05468AB0E36318B1008847
S2140004C023603DF0CDFC3D4856F085FB3C4E3D4B51
S2140004D0304633603C4B736038F0AAFE002130464D
S2140004E03EF012FC32A3D3E90023A062C4E906233F
S2140004F055F051FED4E9062319431043C4E906011A
S214000500CDE900014FF0FF334FF0FF32A06A56F0FE
S21400051025FC02224FF0FF31A06A56F039FC01207C
S2140005203DF064F94FF4007300222849A06A56F0A3
S2140005300FFDB0F5007F39D100239422079309936D
S2140005403C23CDE903320593962306935023A06AF5
S21400055003A908933EF0C2FF35B3287C3DF052FE57
S2140005600546F0B9A06A56F096FD3DF0F9FD3DF05F
S2140005701FF920B14FF4807000213BF0C9F83DF020
S21400058027F920B14FF4006000213BF0C1F855F088
S214000590CFFE012056F0B7F90D4A0E49A06A55F075
S2140005A0EEFD28460AB070BDFF20D7E70725F8E71E
S2140005B00DD5015520000000D8180020690345EC31
S2140005C0088E002025D60300188E0020088C0020F8
S2140005D027610500676105000348044B834202D08B
S2140005E0034B03B118477047943D0120943D01200A
S2140005F000000000064B0749C91A891048BF0131A0
S214000600491003D0044B0BB101481847704700BF90
S214000610943D0120943D01200000000010B5064CDA
S214000620237843B9FFF7D8FF044B13B10448AFF360
S21400063000800123237010BD0294002000000000FB
S214000640506D060008B5054B1BB105490548AFF3CC
S2140006500080BDE80840FFF7CDBF00BF00000000E7
S214000660401E0020506D0600A3F5803A704700BF7C
S214000670174B002B08BF134B9D46FFF7F5FF0021D5
S2140006808B460F461348144A121A4DF0C2FB0E4B07
S214000690002B00D098470D4B002B00D09847002029
S2140006A0002104000D000D48002802D00C48AFF3CE
S2140006B000801DF0FBFC2000290048F00AFB1DF01E
S2140006C0E3FC00BF0000080000000000000000007F
S2140006D00010002000100020C81B012000000000B1
S2140006E0000000000048704748B305000048704707
S2140006F000B4050000487047F0B305000B4B0246F7
S2140007001B7883B10A4B1B78834234BF002001203C
S214000710084B1B7833B1084B1B78134113F0010FBD
S21400072008BF002070470120F2E700BF76270120AF
S214000730752701200295002074270120094B10B56B
S21400074019680023084A994201D1212007E052F88F
S214000750044B2468844203D1044B1860002010BD6B
S2140007600133F0E7D4F00500B01E0120581E00202B
S214000770014B1868704700BF581E0020012208B5BC
S214000780074B1A700022074B1A700422064B1A7089
S2140007901F22064B1A700DF0B1FE054B186008BDFF
S2140007A07627012002950020752701207427012056
S2140007B0581E002008B50022FF2105205AF065FCCF
S2140007C0014B186008BD00BF5C1E00202DE9F041FB
S2140007D0C0B0FF22002168464DF01BFB154B0022DF
S2140007E0694618685AF037FA01281BD10025124EC0
S2140007F056F83570684639464DF0ADFA06EBC50832
S214000800044690B1D8F804604EB138464DF054FA1C
S214000810044420464DF050FA01462046B047E8B260
S21400082006F0D2F840B0BDE8F0810135082DDFD1E2
S214000830F8E700BF5C1E002094F0050030B50D46BA
S2140008400446C1B0FF22002168464DF0E2FAFE2DB4
S2140008502A46214628BFFE2268464DF01CFA002391
S21400086005481A46694600685AF005F9431E58427C
S214000870584141B030BD00BF5C1E00202DE9FF414D
S21400088000221D4D1D4F009511461D4B386848F03F
S21400089053FE042106464BF0B0FD044638B9194A0B
S2140008A0194900F087FE204604B0BDE8F0814FF0FD
S2140008B00008009501463246114B386848F03CFE69
S2140008C04546B04506D120464BF079FDAB1E584252
S2140008D05841E9E703AB54F82810386802AA08F034
S2140008E061F8029B184304D1039B802B04BF01359B
S2140008F0EDB208F10108E4E7FF700800E41D0120EE
S214000900003108001ABC050082B4050007B50422B1
S21400091026200DEB020104F05DF9042205490DEBDB
S21400092002004DF04CFAB0FA80F0400903B05DF8D2
S21400093004FB00BF60BE05009307F7B506461446E5
S21400094021D0274D274928684BF0A8FC264928685F
S2140009504BF0A4FC00F088FD47F05FFA234B244AD6
S21400096000932449DF2328684BF098FC224A234949
S21400097028684BF093FC23463246214928684BF002
S2140009808DFC00BEFDE713460A4681001D480BF0AD
S214000990E1F9074610B3124D124928684BF07EFC69
S2140009A0114928684BF07AFC00F05EFD47F035FAF6
S2140009B00E4B0F4A00930F49E72328684BF06EFC56
S2140009C0114A0E4928684BF069FC009723463246C8
S2140009D00E4928684BF062FC00BEFDE703B0F0BD90
S2140009E0581E00201D6C0600AAB40500EBBB0500CF
S2140009F0AFB4050026B5050032B5050053B50500B1
S214000A006BB50500601E0020BCB50500D0B505001E
S214000A102DE9F0430220C7B0614900F0CBFD614BE1
S214000A20614802930BF0BEF9064600B35F4C60497E
S214000A3020684BF033FC5F4920684BF02FFC00F039
S214000A4013FD47F0EAF95C4B5C4A00935C49D023FF
S214000A5020684BF023FC5B4A5B4920684BF01EFC89
S214000A6032465A4920684BF019FC00BEFDE70220CA
S214000A70574900F09FFD0124564FDFF87C91B96876
S214000A8001BB4FF4807206A84DF0C3F93D79D7F844
S214000A9000802A4606A91FFA88F004F09BF8AA07E9
S214000AA01CBF25F00305043520462A4606A9FFF795
S214000AB043FF2346424649460220009500F07AFD51
S214000AC004EB95040336752E07F10C07D7D142497F
S214000AD0424EB14205910CD902A904220020FFF72C
S214000AE02BFF02203E49A20000F064FD47B0BDE89F
S214000AF0F0833C4D04AB286803AA07F053FF039924
S214000B0001434AD1049B802B47D14FF4807206A83C
S214000B104DF07FF9049B0599286806AA07F0BCFEED
S214000B2008B3224C224920684BF0B8FB21492068C4
S214000B304BF0B4FB00F098FC47F06FF92A4B1F4AC5
S214000B4000931F494FF4E47320684BF0A7FB274A35
S214000B501D4920684BF0A2FB059A254920684BF0FA
S214000B609DFB00BEFDE7049D2046AB071CBF25F09D
S214000B70030504350134042205A9FFF7DDFE2046EF
S214000B802A4606A9FFF7D8FE23460220059A1949E9
S214000B90009500F00FFD04EB95040599013198E7E8
S214000BA015B60500BEBAFECA601E0020581E0020FC
S214000BB01D6C0600AAB40500FBBB0500AFB405001B
S214000BC026B50500BCB5050053B5050030B60500D2
S214000BD05DB6050088BC050000310800FE70080000
S214000BE069B70500E41D01200BBC0500C9B6050069
S214000BF0DDB605001AB705007AB6050073B51446CB
S214000C0012F00302054607D18500D3B29C4202F1DA
S214000C10010223D802B070BD134E144930684BF061
S214000C203DFB134930684BF039FB00F01DFC47F0E4
S214000C30F4F8104B104A00931049F52330684BF037
S214000C402DFB0F4A0F4930684BF028FB23462A46F7
S214000C500D4930684BF022FB00BEFDE7E81800F1B6
S214000C607E600078C854D0E7581E00201D6C060031
S214000C70AAB4050046BC0500AFB4050026B50500BD
S214000C8032B5050053B50500AAB705002DE9F04FAB
S214000C90DFF890A202208F49C7B000F08BFCDAF88C
S214000CA0000048F05BFC064608B38B4C8B49206876
S214000CB04BF0F4FA8A4920684BF0F0FA00F0D4FBC7
S214000CC047F0ABF8874B884A009388494FF4F8738F
S214000CD020684BF0E3FA864A864920684BF0DEFA35
S214000CE03246854920684BF0D9FA00BEFDE702205F
S214000CF0824900F05FFC0125B346814FB9680029A0
S214000D004CD14FF4807206A84DF083F897F8048013
S214000D10284618F0030F0EBFC14628F0030909F154
S214000D2004094A4606A9FFF769FF3B684246039353
S214000D3006A9BDF80C0003F003FF43460446039AD9
S214000D400220704900F036FC05EB9905002C39D0DE
S214000D50614D624928684BF0A1FA614928684BF05A
S214000D609DFA00F081FB47F058F85E4B5E4A009310
S214000D705E4940F2092328684BF090FA624A5D49C2
S214000D8028684BF08BFA0C2272435D4923468A583A
S214000D9028685E494BF082FA00BEFDE797F80480AB
S214000DA0D7F8009042461FFA89F003F0C9FE434682
S214000DB004464A4602205649D84400F0FBFB1FFA78
S214000DC088FBC3E70136272E07F10C0796D105F1FD
S214000DD042080422284605A90594FFF70FFF4FF4A2
S214000DE08072002106A84DF014F8802206A9681C1F
S214000DF0FFF704FF059E80233146DAF8000006AAB6
S214000E0007F006FD074618B3334C344920684BF00C
S214000E1045FA334920684BF041FA00F025FB46F0CE
S214000E20FCFF304B304A0093304940F215232068CF
S214000E304BF034FA2E4A2F4920684BF02FFA0097D1
S214000E4080233246334920684BF028FA00BEFDE77F
S214000E50DAF8000048F0BEFB48B3DAF8000048F0C5
S214000E6098FB074618B31C4C1C4920684BF016FA32
S214000E701B4920684BF012FA00F0F6FA46F0CDFF58
S214000E80184B194A009319494FF4067320684BF023
S214000E9005FA174A174920684BF000FA0097802396
S214000EA032461D4920684BF0F9F900BEFDE7802365
S214000EB0324602201949213500F07CFBA84588D12E
S214000EC0022017490BEB880200F074FB47B0BDE820
S214000ED0F08F00BFFAB70500581E00201D6C0600F4
S214000EE0AAB40500C7BB0500AFB4050026B50500CB
S214000EF0C9B6050053B5050016B805004EB805007E
S214000F0088BC050073B8050009B9050012B90500CC
S214000F10BEB805004CB9050090B90500DEB905005D
S214000F2028BA0500E41D012010B5002486B0CDE9DE
S214000F30034403AB059493E8070003F0C1FD204685
S214000F40042202A9FFF75AFE514C029BA34228D066
S214000F500220504900F02EFBFFF790FC002855D1E8
S214000F604D4C4E4920684BF099F94D4920684BF09E
S214000F7095F900F079FA46F050FF4A4B4A4A00933A
S214000F804A4940F27D1320684BF088F94849494A9F
S214000F9020684BF083F9484920684BF07FF900BE83
S214000FA0FDE70220454900F005FBFFF7AFFC0028EF
S214000FB057D10220424900F0FDFA0422002002A97F
S214000FC0FFF71CFE029BA3425BD0334C33492068DC
S214000FD04BF064F9324920684BF060F900F044FAAF
S214000FE046F01BFF374B304A009330494FF4C87326
S214000FF020684BF053F92E49334A20684BF04EF9DF
S214001000324920684BF04AF900BEFDE7FFF77EFC48
S21400101000BB214C214920684BF040F9204920684C
S2140010204BF03CF900F020FA46F0F7FE1D4B1E4A46
S21400103000931E494FF4C07320684BF02FF91C49EB
S2140010401C4A20684BF02AF9214920684BF026F903
S21400105000BEFDE702201F4900F0ACFAFFF7D8FCFF
S214001060A3E7FFF70BFC0028A3D002201A4900F0E4
S214001070A1FA0220194A1A4906B0BDE8104000F04D
S21400108099BA0220174900F095FAFFF7FFFDF0E73E
S214001090BEBAFECA72BA0500581E00201D6C0600B5
S2140010A0AAB4050033BC0500AFB4050026B505009C
S2140010B053B50500AABA0500B6BA05008CBA0500F5
S2140010C02CBB0500D7BB050066BB050077BB05003B
S2140010D0DDBA050010BB050047BB050055BC050082
S2140010E0B5BB050098BB050038B5154C00228C2111
S2140010F0042059F0CAFF234643F8040B4FF48072CD
S214001100002118464CF085FE0422002311460320D9
S21400111008F0EEFD10220B4B04F58275C3F8A020F4
S214001120002009F057F8284609F0BCF8284606497A
S21400113048F046FF6FF07F420023C4E9422338BDE3
S214001140841E002000D00350C0E705002DE9F04FB4
S2140011507F4CB1B0002220680DA959F07CFD012813
S21400116040F0F48004F5827048F067FD0D9D012D77
S2140011702FD0022D7AD025BB0EA84CF09DFD14343E
S21400118006B260191022002110354CF042FE702D78
S214001190F7D100246F4D05F17008002E11DD102EDA
S2140011A03246A8BF1022211D0DAB97B2284619441F
S2140011B010353C444CF06FFDF71B4545A4B23EB2DB
S2140011C0EBD10D9B012B40F0AB80012031B0BDE888
S2140011D0F08F8025604E40F64F72002130464CF06E
S2140011E018FE30460EA901F009FB96F84E3F4FF068
S2140011F00009B5FBF3F51022002107A84CF009FE04
S21400120004F5827048F019FD04F5827305F1050AAD
S214001210059396F84E3F5FFA89F8434523D905FBB8
S21400122008F74FF0000B7C1D574413E005FB02F156
S214001230481D2944053108900A91304641460794D6
S214001240099746F037FF18B1059807A948F0A0FDA2
S2140012500BF1010B96F84E1F5FFA8BF29142E5D820
S21400126009F10109D5E708F0DDFFAAE718220021F9
S21400127007A84CF0CEFD9DF8B820384907A81DF009
S214001280D9F81022002104F184004CF0C2FD07A812
S2140012904CF012FD07A9024604F184004CF0FBFC5A
S2140012A09DF8B9202E4907A81DF0C4F81022002189
S2140012B004F194004CF0ADFD07A84CF0FDFC07A926
S2140012C0024604F194004CF0E6FC9DF8BA2025494D
S2140012D007A81DF0AFF81022002104F1A4004CF07E
S2140012E098FD07A84CF0E8FC07A9024604F1A40004
S2140012F04CF0D1FCBDF8BC201B4907A81DF09AF89D
S2140013001022002104F1B4004CF083FD07A84CF035
S214001310D3FC07A9024604F1B4004CF0BCFC50E72D
S21400132000242646114D05F580772946E2B20023B3
S2140013303846CDE901660096013448F04EFE102C82
S21400134005F11005F1D108F06DFF3EE700203DE7FE
S214001350841E0020981E002003950020E0C1050092
S214001360F1C10500FFC105000DC20500881E002062
S21400137010B5A4B004468C22002101A84CF049FD0B
S21400138002232146062222A801934CF084FC002367
S21400139003481A4601A9006859F06DFB24B010BD39
S2140013A0841E002030B504460025A5B08C220021FE
S2140013B001A84CF02EFD204601954CF07DFC214600
S2140013C0024602A84CF067FC04482B462A4601A9B0
S2140013D0006859F050FB25B030BD00BF841E0020C9
S2140013E010B5A4B004468C22002101A84CF011FDD3
S2140013F00123204601934CF05FFC2146024602A8DA
S2140014004CF049FC002304481A4601A9006859F02C
S21400141032FB24B010BD00BF841E00200EB417B5EA
S21400142004460A480FF0C0FC50B100F011F8002046
S21400143000F014F806AA20460599019200F082F8FA
S21400144003B0BDE8104003B0704700BF20C20500DF
S214001450014B1860704700BFB81F0020014B186092
S214001460704700BFB41F0020002213B50B4B69461F
S21400147010461C68CDE900221EF05CFE019A084B5F
S2140014804FF47A71B2FBF3F22046009B01FB032275
S214001490044902B0BDE810404AF000BF581E0020C4
S2140014A040420F0024C2050038B50C4603283BD83E
S2140014B0DFE800F00219242F0120FFF71FF998B388
S2140014C0FFF7D2FF194D46F0A8FC194928684AF0E4
S2140014D0E5FE214628684AF0E1FE28681549BDE881
S2140014E038404AF0DBBE0220FFF708F9E0B1FFF70C
S2140014F0BBFF0E4D46F091FC0F49E7E70320FFF7D0
S214001500FDF888B1FFF7B0FF084D46F086FC0B49A2
S214001510DCE70420FFF7F2F830B1FFF7A5FF034D34
S21400152046F07BFC0649D1E738BD00BF581E0020B8
S2140015302DC205001D6C060032C2050037C205002C
S2140015403CC2050070B50D461646174BC0B00446A3
S2140015501868FFF7F3F8154B18780FF087FB2A4644
S21400156033464FF4807168461CF0CEFDFFF700F955
S21400157005460F480FF018FC854210D1EFF3118591
S2140015804FF0200181F3118869462046FFF78CFF53
S21400159085F3118800200FF069FB40B070BD6946E6
S2140015A02046FFF781FFF5E7B81F0020B41F002094
S2140015B020C205000EB417B504460A480FF0F4FB27
S2140015C050B1FFF745FF0220FFF748FF06AA204666
S2140015D005990192FFF7B6FF03B0BDE8104003B0CF
S2140015E0704700BF20C205000CB413B504460C4873
S2140015F00FF0DAFB70B1FFF72BFF0120FFF72EFF8D
S214001600631E022B05AA94BF20460020049901926F
S214001610FFF798FF02B0BDE8104002B0704700BF69
S21400162020C2050008B5074B1968074B186807F075
S21400163025F828B1BDE8084001200449FFF7BABFE5
S21400164008BD00BFC41D0120E41D012041C20500E5
S21400165010B5084B1B6803B1984758F058FF04466E
S2140016600021012056F0D0FE2046BDE8104058F07C
S21400167049BF00BFBC1F002010B50A4C23787BB9B9
S21400168038200CF003FF052138204AF0BAFD382038
S2140016900CF0D2FE02200449FFF78CFF01232370D2
S2140016A0002010BD52A400205BC2050010B5044601
S2140016B088B10A4B1B784BB1094B38201C600CF0E4
S2140016C0E5FE38200CF0B8FE002010BDFFF7D4FF72
S2140016D00028F1D0F9E76FF00800F6E752A40020E2
S2140016E0BC1F002008B538200CF0D0FE38200CF0C7
S2140016F091FE0020014B186008BD00BFBC1F0020F3
S21400170010B50C4B1B788BB10B4B1B6873B158F0A4
S214001710FEFE01210446084656F076FE204658F0A6
S214001720F1FE38200CF0A4FE002010BD6FF027005C
S214001730FBE700BF52A40020BC1F002010B5044CDD
S21400174023781BB1FFF7CEFF00232370002010BDC7
S21400175052A40020B1F5004F08B52BD201280CD1B9
S2140017600A2303FB01F003230230B0FBF3F0B0F5CD
S214001770004FA8BF4FF0FF3008BD0238062812D829
S214001780DFE800F004110A1111100C000B2303FB14
S21400179001F001304010EAE7C800E8E70D2303FB3C
S2140017A001F0E4E749B140F26131054B054A0648CD
S2140017B01CF0B8FC4FF0FF30DEE71820DCE700BF77
S2140017C076C20500BBC905007CC2050008B54B1EE5
S2140017D0272B06D94FF47D71114B124A12481CF084
S2140017E0A1FC112307310138B1FBF3F107280FD80C
S2140017F0DFE800F004080E0A0E0E130C0B4B53F82D
S214001800210008BD0A4BFAE70A4BF8E70A4BF6E751
S2140018104FF47F71094B034AE0E70020F1E700BF71
S21400182019C605007CC905007CC2050070C9050004
S21400183064C9050058C905004CC9050076C20500F4
S214001840102970B502D830FA01F405D0BA210D4B34
S2140018500D4A0E481CF066FC01394C1C00D170BDC8
S2140018601D6820FA01F4EE10ED4304F0010405F0C3
S2140018700705AC40955D01392C4394551C6801342E
S2140018801C60EAE7DDC2050024C905007CC205002D
S21400189008B5431E272B024606D94FF4AA71134BF0
S2140018A0134A14481CF03EFC00F108034343012A87
S2140018B003F104034FEA03100CD0072192FBF1F169
S2140018C0192302314B430A3B4B43373BC01A062AC7
S2140018D0C8BF2438A0F1D003B3F5E64F04D94FF4BF
S2140018E0AE71054B024ADCE708BD00BF21C3050008
S2140018F0E1C805007CC205005EC3050038B5047863
S214001900A4F115059C2D03D88C4201D9944206D823
S21400191040F20D310B4B0C4A0C481CF003FC012521
S21400192002FB0411CC10013401F00701025D05FA38
S21400193001F123B142EA0103DBB2035538BD22EAC6
S2140019400103FAE77FC30500B1C805007CC20500A5
S21400195010B5426801EB4101914206DA40F2CE2111
S214001960154B164A16481CF0DDFB002A21DD83685D
S21400197093421ED1C16802EB4203994219D1036912
S214001980934216D14369934213D101689400B1EB98
S214001990820F80690BDB8242CCBF00230123844286
S2140019A008DC9142B4BF00200120184410BD00237B
S2140019B0F5E700230020F8E7CDC305006DC8050055
S2140019C07CC20500032938B505460C4606D940F208
S2140019D049110B4B0B4A0C481CF0A4FBFFF758FFB1
S2140019E029225443094A031E22445057084AB8BFC6
S2140019F007332244525710FB02F0C0EBE30038BD19
S214001A00DDC3050037C905007CC2050074CA0500A1
S214001A10D0C9050010B50378A3F115049C2C03D893
S214001A208B4201D9934206D84FF44171074B084ABE
S214001A3008481CF077FB02FB031100EBE10040783E
S214001A4001F00701084100F0010010BD7FC305004A
S214001A50C2C805007CC2050008B530B940F2F121C5
S214001A60074B084A08481CF05DFB0078A0F11503F8
S214001A709C2B04D940F2F321044B024AF2E708BD3E
S214001A80EDC3050032C805007CC20500FCC3050096
S214001A902DE9F74FD3B2072B88461746019006D993
S214001AA040F26121384B394A39481CF03BFB084666
S214001AB0FFF7D2FF00258146DFF8D8B0013F4D453D
S214001AC002DB03B0BDE8F08F0026B2462A46514638
S214001AD00198FFF79FFFF0B9062F05D8DFE807F05B
S214001AE00A222A2F35424A000AEB0504E44304F092
S214001AF0010403E005F0010484F001042A4651467F
S214001B004046FFF787FF84EA00032A4651464046D0
S214001B10DBB2FFF7F3FE0AF1010AD1452E44D5D118
S214001B200135CCE70BFB0AF4B4F1553F8CBF00241B
S214001B300124E3E70AEB05040BFB04F4F4E70324B3
S214001B40BAFBF4F404EB6504D0E70323B6FBF3F327
S214001B5003EB430306F00102F31ADA420CBF01243A
S214001B600024CBE70324B6FBF4F404EB4404C4EBF4
S214001B704604BBE70322B6FBF2F202EB42020AEB94
S214001B800504B21A1444B1E755C4050063C805003D
S214001B907CC20500ABAAAAAACBB2072B2DE9F0415E
S214001BA0154606D940F206213C4B3D4A3D481CF0FE
S214001BB0B9FA3D4B53F8203040F2375041EAC301A2
S214001BC00C460A2362124243013B82EA4404F9D1DE
S214001BD044EA812484F4A846E41386F0120604D06E
S214001BE040F20D21314B2E4AE0E746FA04F3224636
S214001BF00821284603F001030134FFF77FFE062C78
S214001C00F3D1072208212846C6F38013FFF776FE95
S214001C10082228461146C6F3C013FFF76FFE0822B7
S214001C2007212846C6F30023FFF768FE092446FA74
S214001C3004F3C4F10E010822284603F00103013420
S214001C40FFF75CFE0F2CF2D12846FFF705FF0127B1
S214001C5004467B1E46FA03F3E11B0822284603F0DF
S214001C6001030137FFF74AFE092FF2D10727C7F114
S214001C700F0346FA03F3E21B0821284603F001038C
S214001C80FFF73CFE013FF2D12846A4F108020123EB
S214001C90BDE8F0410821FFF731BE00BF55C405007E
S214001CA054C805007CC2050044C8050076C405007B
S214001CB02DE9F04F97B0CDE901329DF984300E46FC
S214001CC003939DF888300746DDF890B0059330B949
S214001CD029B1CE21A34BA44AA4481CF023FA019BA9
S214001CE0002B04DD209A934201DC282A03DDCF2155
S214001CF09F4B9D4AF0E7029B032B04D8039B0133BE
S214001D00DBB2082B3CD9D0219A4B974AE4E740F245
S214001D10DD31944B984ADFE7D8F80430D8F80CA0A9
S214001D20B3F5004F04D340F2E231944B924AD3E726
S214001D30BAF5004F04D340F2E331914B8E4ACBE71D
S214001D40019998F800000693FFF740FD1028069BBF
S214001D5004D940F2E5318B4B874ABDE70122824029
S214001D60934220DA043050440444B4F5004F08F19E
S214001D70100818DA09F101090FE0019B01330193FD
S214001D80DDE90101FFF71EFE04900FB9002EBED15B
S214001D904FF000093D46B8464C464E45BCD1049B24
S214001DA0B4EBC30F09DD019B209A9342E5D10020D6
S214001DB08BF8000017B0BDE8F08F0127059B5BB1DC
S214001DC05FFA87F841460198FFF7FCFDB4EBC00FB9
S214001DD0029BD8BF434602930137042FEED100275B
S214001DE0019B00219A00113252430732D210584606
S214001DF001324CF00EF80D97B74206D10D9BA34268
S214001E002DD0F221604B584A66E75A460DAB0421A6
S214001E102878FFF715FD01992878FFF7D7FC5A4672
S214001E2001460DAB6868FFF70BFD4FF00008EB6846
S214001E30434502DC01371035DEE7AA684FEAE803BF
S214001E40D05C6FEA0803012103F0070318415A46E5
S214001E500DAB0840FFF7F4FC08F10108E7E7DDE901
S214001E600101FFF7AFFDB4EBC00F4FEAC00503DD7D
S214001E70F621464B3C4A2FE7291B0429A8BF04211C
S214001E805A4600200DABFFF7DBFC0D995A464B4235
S214001E9003F0070301F0070158BF594249420DAB52
S214001EA0002001F00701FFF7CBFC0D9B5B0717D066
S214001EB0FC21374B2C4A0FE720465A4608210DAB2B
S214001EC0FFF7BEFC84F0FD040D9BAB42F4DB019BE8
S214001ED0013B272B06D94FF494712E4B2E4AFBE676
S214001EE0EC24F1E72923029A019953432B4A08462A
S214001EF01A4457562A4A13445D56FFF7C9FC04464F
S214001F00DDE90101FFF75EFD6B1E1D2B06900493B5
S214001F1004D940F26711234B234ADDE601264FF031
S214001F2000092A4600210EA84BF073FF049B583385
S214001F306B4403F8206C4FF0000A0DF1380898F84F
S214001F400000314645F06BFF0AF1010A554508F8D6
S214001F50010B40F3DC8298F80030584008F8010C7A
S214001F60EDE700BF86C405009AC905007CC20500DF
S214001F709FC4050006C505008DC905004AC50500B5
S214001F8071C505009AC50500B6C50500CDC5050096
S214001F90E8C50500F8C5050010C90500D0C905004C
S214001FA074CA05005EC60500F6C80500DDE907230D
S214001FB0B242D8BF013300212A46204605934FF08F
S214001FC000084BF026FF059B434532DC32460023D3
S214001FD00599994252DC069B04EB050CF218234641
S214001FE013F8010B23999C4588543A44F8D1059B75
S214001FF001369944B742D9DC5946019845F067FF47
S2140020000198FFF745FC041E5846B8BF0734FFF793
S21400201023FD00260746E410E300451E0493002D2A
S21400202038DCB6EBC40F70D040F25721B64BB74A37
S21400203052E619F808202378204653400A99049A55
S21400204009934BF0CCFE4FF000024FF0000A049BC1
S214002050E254621E0EAB13F80A0009990B9245F083
S214002060DEFE0B9A0AF1010A12F8013F554580EA96
S21400207003001070EEDC08F10108A4E70899239825
S214002080994204BF0799521A19F803100133815474
S2140020903A449DE7062D08BF05254FF0010905EBDC
S2140020A0090303F00203059309F1FF38474501DCF5
S2140020B0023DB4E7059AA7EB0903002A08BF984635
S2140020C04FF0000AA5EB0A01424658460691FFF774
S2140020D0A1FC88B9049B0699B3420DDD239AF31040
S2140020E0D35CF24302F0070213415846424603F01F
S2140020F00103FFF703FC0136BAF1000F02D009F125
S2140021000109D1E74FF0010ADCE75846FFF7A4FCC7
S21400211007250446C61FB542C0F2B1806FF003051E
S21400212004EB05090826EF1C09EB0508C6F10400B8
S2140021304BF0BEFD824628464BF0BAFD824503DAD8
S21400214028464BF0B5FD8246BAF1020F02D0BAF12E
S214002150040F10D1C6F1070A3A465146584645F0D4
S21400216037FF3A465846A11B45F032FF42465146D5
S214002170584645F02DFF013ED8D20135052DD1D168
S2140021800DF1380A5146019845F061FE071E00F32E
S214002190B080019B062B29DD1D4641F625710C23D8
S2140021A0EA124A43013B82EA4505F9D1019B45EA1A
S2140021B00335AF1440F0A280A4F10808A4F10B0682
S2140021C005F0010931464B463A465846FFF796FB5E
S2140021D032464B46394658460136FFF78FFB464592
S2140021E04FEA6505ECD10137062FE7D12399019810
S2140021F045F06DFE039B013340F07D816FF0004398
S2140022004FF0000A04934FFA8AF31A465946239869
S2140022100193FFF73DFCDDE901105A46FFF7BCFCD1
S2140022205846FFF719FC4FF000080546444645455A
S21400223076DC4FF00008454500F3BA80002705F12C
S214002240FF394F45C0F2FC8000273E46BD4200F3F2
S2140022501C816FF0090314206D436B4300FB0630AE
S2140022604BF0F9FC2B18013B93FBF5F3013B092BD4
S21400227040F21A8140F2C321254B264A2CE52A4615
S214002280002306215846FFF739FB2946002306227D
S2140022905846FFF733FB02353DE7049B0026AB426A
S2140022A01BD04FF0FF394FF0FF381AF806201AF807
S2140022B0051059EA08030CBF012300234144584681
S2140022C04A4408F10108FFF719FBB8F1020FECD1F8
S2140022D009F10109B9F1020FE5D10136B74204D080
S2140022E0002DDED1049BB342DBD10135AF42D4DCF6
S2140022F04FE700257B1E2E460493EEE74FF4F97158
S214002300054B064AE8E400BF99C60500D3C8050099
S214002310BAC6050088C80500AAC6050098C8050004
S21400232000261C2200210EA84BF073FD3746B1464E
S214002330424639465846FFF76DFB484521D10136DF
S214002340052E1BD103340137BD42F1D1B9F1000F80
S21400235005D030462A460EA945F02DFE00263A4600
S2140023600EA9B81945F027FE39460EA8FFF7F0FA71
S214002370282308F1010803FB004458E7E3DD013495
S214002380E1E72A4630460EA945F015FEB9F1000FE2
S21400239006D129460EA8FFF7DBFA282303FB0044E4
S2140023A0424639465846FFF735FB01268146CAE7BE
S2140023B000261C2200210EA84BF02BFD3746B14606
S2140023C03A4641465846FFF725FB484521D1013697
S2140023D0052E1BD103340137BD42F1D1B9F1000FF0
S2140023E005D030462A460EA945F0E5FD00263A46B9
S2140023F00EA9B81945F0DFFD39460EA8FFF7A8FA72
S214002400282308F1010803FB004414E7E3DD013448
S214002410E1E72A4630460EA945F0CDFDB9F1000F9A
S21400242006D129460EA8FFF793FA282303FB00449B
S2140024303A4641465846FFF7EDFA01268146CAE776
S21400244000267B1C059331463A465846FFF7E2FACB
S2140024500696013680463A4631465846FFF7DAFA7F
S21400246080450ED1DDE905215846FFF7D3FA8045B1
S21400247007D131465846059AFFF7CCFA804508BF83
S21400248003344E45DFDB0137DBE64FF000083A4603
S21400249041465846FFF7BEFA00B1013608F101087A
S2140024A04545F4D10137D1E60A2202FB0344274B07
S2140024B09C4204D940F2C521254B264A0CE4049BD5
S2140024C059469C42B8BF019B019A23980AF1010A1B
S2140024D0BCBF04940393FFF7DBFABAF1080F7FF44E
S2140024E092AE9DF80C30072B05D94FF48C711A4B21
S2140024F01A4AFFF7F1BB5946039A2398FFF7C8FA22
S214002500DDE902015A46FFF747FB012052E4304658
S214002510022145F084FC09F101094D4506463FF7C6
S2140025200AAD002CB8BF0734E41094FBF7F307FBA2
S21400253013445B1B0893069B3A1B0BEB0304631CBC
S2140025400026D94607920A9354E500BFB832270002
S214002550CBC6050088C8050055C405009AC9050005
S21400256038B530B940F2FB21084B094A09481BF040
S214002570D9FD0378994206D2934204D9FFF74AFA66
S21400258000F0010038BD0020FAE700BFEDC30500EB
S2140025901EC805007CC2050008B528B1013810F831
S2140025A0013F43B9012008BD40F22B31044B054AD8
S2140025B005481BF0B7FD303B092BF0D90020F2E7A9
S2140025C0EDC605000AC805007CC2050038B530B166
S2140025D0094D441E14F8011F41B901200BE040F2DA
S2140025E03631064B064A07481BF09CFD28464BF042
S2140025F045FB0028EED138BDFAC60500EDC605003D
S214002600F1C705007CC2050008B5FFF7A3F8431C18
S2140026100BD0B0F5004F06D34FF45171034B044A6C
S21400262004481BF07FFD0730C00808BD28C705001A
S214002630D1C705007CC205002DE9FF4105461646B8
S2140026400C4631B94FF45F712C4B2D4A2D481BF0C8
S21400265069FD08464BF030FB8046012041468DF868
S2140026600000FFF777F8431C074604D140F281319B
S214002670254B234AEAE70028CDF8048005DDC21D75
S21400268000213046D2084BF0C4FB00214FF00A0868
S21400269008460391013C14F8013F7BB931B101EBC8
S2140026A04101324603AB0131FFF7CAF8039BBB4238
S2140026B01AD040F29631154B114AC7E7303BDAB2D2
S2140026C0092A04D940F28B31114B0D4ABEE701317D
S2140026D0032908FB0030DED10A21324603ABFFF7A0
S2140026E0AFF800200146D6E7029604AB13E90F00C8
S2140026F085E80F00284604B0BDE8F08147C705000E
S214002700BBC705007CC2050056C7050078C7050094
S21400271063C705002DE9FF47064617460D4631B943
S21400272040F29E312E4B2F4A2F481BF0FBFC0846EA
S2140027304BF0C2FA0446022021468DF80000FFF74F
S21400274009F8B0F1FF3F804604D140F2A331274B91
S214002750244AE9E70028019405DDC21D0021384619
S214002760D2084BF056FB0024A146DFF888A003945D
S214002770013D15F8011F71B92CB13A4606214846AD
S21400278003ABFFF75DF8039B43451FD04FF46E7114
S214002790174B144AC8E717484BF070FA20B940F2B6
S2140027A0AD31154B0F4ABFE72D23A0EB0A0003FB04
S2140027B009094CB148464FF000093A460B2103ABD5
S2140027C0FFF73EF84C46D4E70124D2E7029704AB65
S2140027D013E90F0086E80F00304604B0BDE8F08726
S2140027E0EDC60500A0C705007CC2050056C705005B
S2140027F078C70500FAC6050093C705001FB504464E
S214002800084694B189B101234FF0FF32CDE9022387
S21400281028220749CDE900320023224645F0E6FB90
S2140028202046FFF719F984F84E0F04B010BD00BF1C
S21400283053A4002030B50D4689B004462249022034
S214002840FEF7ECFD02202149FEF7E8FD02201E49B6
S214002850FEF7E4FD2A461E4D02201E49FEF7DEFD69
S2140028602A4602201C49FEF7D9FD02201649FEF72B
S214002870D5FD15490220FEF7D1FD284600954BF000
S2140028801BFA18220021019002A84BF0C2FA6FF042
S214002890004302250293012302AA694620468DF8CA
S2140028A00C5004931DF006FA024638B100200B497E
S2140028B0FEF7B4FDBDF8140009B030BD2846BDF8DB
S2140028C014200749F4E700BF9CDC050018CB050080
S2140028D0C01F002038CB050049CB050054CB0500AF
S2140028E06CCB050038B50024064D00224FF48671E7
S2140028F0052058F0CAFB0134E4B2032C45F8040B5B
S214002900F3D138BDCC2000202DE9F0410646022444
S214002910204D214F00221F4957F8240058F09BF9FC
S214002920012833D157F00CF9D5F8083123BB1B49E1
S2140029300220FEF773FD1A490220FEF76FFD2246BD
S21400294002201849FEF76AFD02201449FEF766FDCC
S214002950B5F800113046FFF76DFFA5F8040157F0F3
S214002960EFF8C5F8080157F824000123BDE8F04148
S2140029700022084958F07FB80B4AC31A9342F2D98E
S21400298006490220FEF74AFD0849D5E7013CC1D2B8
S214002990BDE8F081C01F0020CC2000209CDC050094
S2140029A083CB0500A3CB05008F5F0100C3CB0500DA
S2140029B02DE9F041174E07460D460024B046C4B038
S2140029C0002256F8040B01A958F0DAF801281DD1A8
S2140029D0BDF80831BB4219D1642258F8240001A979
S2140029E025B958F038F944B0BDE8F08158F033F90D
S2140029F001280346F7D1002258F82400439201A983
S214002A0064228DF80A5158F036F8ECE70134032CAE
S214002A10D6D1E8E7CC20002070B50646C4B00D46F7
S214002A20144600214FF4867201A84BF0F2F93146A5
S214002A3001A84BF0DDF8002306481A4650F824009B
S214002A4001A94393419558F016F8431E5842584141
S214002A5044B070BDCC20002070B5042805460C4656
S214002A60164690B017D8B1B14022002168464BF008
S214002A70D0F90A4B684653F825104BF0F0F821467B
S214002A8068464BF0ECF868464BF016F932460146BD
S214002A906846FFF7C1FF10B070BD00BF18CC050038
S214002AA00122002101484BF0B4B900BFA1B30020B9
S214002AB0F0B50A46044691B018B3402921D9002142
S214002AC04BF0A7F9202200210DEB02004BF0A1F9F4
S214002AD020226946042002F07DF8202268460DEB8D
S214002AE002014BF06CF960B16D46074F04F14006E9
S214002AF02046394615F8012B02341BF09BFCB442E5
S214002B00F6D111B0F0BD00BF2CCC0500F0B50A46DA
S214002B10044685B040B30A2926D900214BF079F93E
S214002B200522002102A84BF074F9684602F086F8E8
S214002B30D0B905236A462B214FF4005002F08EFED2
S214002B4090B90522684602A94BF039F960B16D4686
S214002B50064F04F10A062046394615F8012B0234C2
S214002B601BF068FCB442F6D105B0F0BD2CCC0500D5
S214002B7010B50A46044650B3FF2928D100214BF071
S214002B8048F9204612494BF06AF8204611494BF0A6
S214002B9066F8204610494BF062F820460F494BF085
S214002BA05EF820460E494BF05AF820460D494BF089
S214002BB056F820460C494BF052F820460B494BF08D
S214002BC04EF82046BDE8104009494BF048B810BD05
S214002BD031CC05003ACC050049CC050055CC0500A3
S214002BE069CC050083CC050092CC0500A1CC05007D
S214002BF0C3CC0500002307B50648028D0093114696
S214002C0050F057F8002814BF6FF00200002003B001
S214002C105DF804FBD8200020002307B51A461946A5
S214002C200093054850F045F8002814BF6FF00200E6
S214002C30002003B05DF804FBD820002038B5044619
S214002C4012480D46036893F838300BB1002038BDA3
S214002C50037D13F0FD0F07D001210C484FF050FF05
S214002C6038B16FF00500F2E750F024FA0028F3D0F0
S214002C70F7E70A2001F0FCFD2A46214603484FF0FC
S214002C80D8FF0028E2D06FF00200E0E7D82000204E
S214002C9040F2FF3108B5044850F046F8002814BF4B
S214002CA06FF00500002008BDD82000200C4B98428D
S214002CB00ED80C4B98420DD80B4B98420CD80B4BA9
S214002CC098420BD80A4B984294BF052004207047C0
S214002CD0002070470120704702207047032070478D
S214002CE000E9A43580F8A9328044E52D000B6B1B63
S214002CF08047A11913B50DF1070101F03BFE02460E
S214002D0048B99DF8073033B1044CE1680C311DF02A
S214002D1011FAA369984702B010BD00BFD820002062
S214002D2000487047D820002037B501240E4D2B6888
S214002D300DF10701D86901F01DFE9DF80730184314
S214002D4010F0FF000BD00A2001F092FD40F2D17384
S214002D500134A4B29C42EAD16FF0050002E0B4F55B
S214002D60FA6FF9D003B030BDD8200020014BD861EF
S214002D70704700BFD82000202DE9F7431F4E1D46A0
S214002D8033688446586D0F4614469DF8288060B315
S214002D90BCF1000F29D09B6D05EB01094B4527D3ED
S214002DA00A4661464AF077FF34B133682A46586DC2
S214002DB0214638444AF06FFFD6E900104B6DCDF837
S214002DC000901A4607682831B847A0B9B8F1000F36
S214002DD007D034B133682A46596D204641444AF03C
S214002DE05AFF002003B0BDE8F0836FF00100F9E75A
S214002DF06FF00400F6E76FF00200F3E7D82000203B
S214002E0038B50C46014600B9B4B90D4D2B68186AA2
S214002E10802805D001F0C8FD10B16FF0020038BD63
S214002E202B68586A802801D10020F8E7214601F077
S214002E30BBFD0028F8D0F0E76FF00100EFE700BF19
S214002E40D8200020014B1860704700BFD820002013
S214002E50014B187D704700BFD8200020024B187A1F
S214002E60003818BF01207047D8200020012838B548
S214002E70044612D1104D014628464FF0CFFF10B140
S214002E806FF0050038BD40F2F3332C722B85FFF748
S214002E90B1FE0028F4D10020F4E750B9064D0146F3
S214002EA028464FF0BBFF0028EAD140F2FB332872D9
S214002EB0ECE74FF0FF30E5E7D820002038B5114D9D
S214002EC004462B7D012B19D1E86AFFF7EFFE024678
S214002ED02046FFF7EBFE824207D1214609484FF015
S214002EE078FF48B16FF0050038BD2146284636F019
S214002EF069F80028F1D0F5E7EC62F5E76FF0060018
S214002F00F2E700BFD8200020431E062B9FBF054BCC
S214002F101B1893F94430002094BF0B706FF001002B
S214002F20704700BFD8200020431E022BF0B522D8E1
S214002F3000221227114B196891F85D60D3B2B34294
S214002F4002D34FF0FF3015E007FB02F40D6E01329E
S214002F502B192C5D8442F1D1094A03F11005144661
S214002F6018685968083303C4AB422246F7D10020DC
S214002F701B882380F0BD6FF00100FBE7D8200020FF
S214002F801C21002013B51F4C237D012B30D1214678
S214002F9051F8203B5B68984700282CDB236A019396
S214002FA023681B78012B0DD0022B27D13823154818
S214002FB001A98DF803304FF012FE28B16FF0020021
S214002FC002B010BD1823F2E7012340F6E7010D48D2
S214002FD00DF103024FF01CFE0028EFD194F82520D7
S214002FE094F9241007484FF028FF0028E8D0E5E7BA
S214002FF06FF00600E4E76FF00100E1E74FF0FF3006
S214003000DEE700BFD820002010B50E4C237D022B33
S21400301011D0FFF73DFE014670B9FFF7F1FE0146FD
S21400302050B9042120464FF05CFD38B9204645F0E3
S2140030307EF8022323750021084610BD6FF00501B7
S214003040FAE700BFD820002038B5184D2B7D012B9D
S21400305022D013F0FD0F0CD1284650F02BF818B1F3
S2140030606FF00504204638BD2B7D022B04BF0123DC
S2140030702B75FFF70DFE04460028F3D10146FFF737
S214003080BFFE04460028EDD10A2001F0F1FB2B7D9F
S214003090012B03D101232B750024E3E721460348C7
S2140030A04FF02EFD0028F5D0DAE700BFD82000202C
S2140030B008B502460B4650B149B1002105484FF00D
S2140030C0D9FD002814BF6FF00200002008BD6FF085
S2140030D00100FBE7D820002070B5124D0646688D2B
S2140030E095F82A10000AFFF7A9FD0446A8B90120A2
S2140030F095F82610FFF784FE044670B9FFF7C8FD62
S214003100044650B94FF47A71B601B6FBF1F1284681
S2140031104FF005FD18B904232B75204670BD6FF0DF
S2140031200504FAE7D820002070B5184D0646297A1F
S2140031302846B1FA81F149094FF017FD18B16FF032
S2140031400504204670BD688D95F82A10000AFFF722
S21400315075FD04460028F4D101460120FFF750FE15
S21400316004460028EDD1FFF793FD04460028E8D179
S2140031704FF47A71B601B6FBF1F128464FF0E2FC47
S2140031800028DCD103232B75DBE700BFD820002006
S2140031902DE9F341274E0546337A8846002B43D166
S2140031A0084645F069F8044630B9012130464FF02C
S2140031B0DCFC28B16FF00504204602B0BDE8F081C3
S2140031C0708D96F82A10000AFFF738FD044600288E
S2140031D0F2D101460120FFF713FE04460028EBD18A
S2140031E0FFF756FD04460028E6D14FF40172034669
S2140031F00090114630464FF05CFDC0B94FF47A732C
S214003200A96830468901B1FBF3F14FF09BFC00281A
S214003210D0D10FCD06F130070FC72B68C6F81C803B
S2140032203B6003233375C7E76FF00104C4E76FF014
S2140032300204C1E7D820002038B5164D297A284662
S214003240B1FA81F149094FF090FC18B16FF005040E
S214003250204638BD688D95F82A10000AFFF7EEFC68
S21400326004460028F4D101460120FFF7C9FD0446B4
S2140032700028EDD1FFF70CFD04460028E8D16FF0DA
S2140032807F4128464FF05EFC0028DFD103232B75D4
S214003290DEE700BFD820002038B50F4D688D95F8C2
S2140032A02A10000AFFF7CAFC044678B90146012036
S2140032B0FFF7A6FD044648B9FFF7EAFC044628B91E
S2140032C028464FF061FC18B905232B75204638BDFB
S2140032D06FF00504FAE700BFD820002013B5094CAC
S2140032E00DF1060120464FF0C9FE40B92368BDF82F
S2140032F0060093F90330C01A00B202B010BD47F6BC
S214003300FF70FAE7D820002037B5FFF785FC514C50
S2140033100546E0B920460DF106014FF017FDB0B99D
S214003320BDF80630DA0700F18A80590600F185807C
S2140033309A0515D5237D042B00F08380E369102BB6
S21400334040F081804FF48033E361FFF7C5FE237DB4
S214003350022B02D0FFF74EFC0546284603B030BDD0
S214003360980672D4227A012A30D11907EFD41A06A9
S2140033701BD5D805E26906D4102A08D004204FF4DD
S2140033808033E3610EE0102A08D00320F7E73248C6
S214003390FFF7A2FE4FF48033E361D8E74FF48033A3
S2140033A00320E36123699847D1E703F04203022B29
S2140033B0CDD1284845F0DEF90146002847D1032242
S2140033C0E06808304AF025FD0220EBE7002ABED16F
S2140033D0190703D5204644F0A9FFB8E75A070DD5CC
S2140033E0E369102BB3D1FFF779FFE36858724FF407
S2140033F08033E361FFF728FE0820D3E79B07A6D5B6
S2140034000022E16810460C311CF094FE0DF1050117
S214003410104844F0CDFF014618B9E0680622023095
S214003420D0E710F1080F12D19DF80530032B02D01B
S214003430053B012B0BD86FF007050520B2E70120EE
S214003440B0E70620AEE70720ACE70A20AAE70D465D
S2140034507DE700BFD8200020404B4C00014BB3F95D
S21400346054007047D8200020431E062B9FBF054BF4
S2140034701B1893F94B30002094BF0B706FF00100BF
S214003480704700BFD8200020F0B505460B4F064613
S2140034903C6840340FCC0FC523683A682B6092F81E
S2140034A03830022B05D1D36BC3EB031333610020F6
S2140034B0F0BD012BFBD10F23F8E700BFD82000207A
S2140034C013B518B96FF0010002B010BD0029F9D08D
S2140034D0002AF7D001235F4C23722368C4E9032037
S2140034E093F85C00A161FFF71FFD2368D869802868
S2140034F02DD12368586A802804D0012101F0EAF90A
S2140035000028DFD12368186A802804D0012101F042
S214003510E1F90028D6D123685869802804D0012113
S21400352001F0D8F90028CDD123685A68002AC9D0FE
S2140035309B6893B148489847236848481B69D3E975
S21400354000219047014660B16FF00200BCE7002101
S21400355001F0C0F90028CCD0B4E741F2122363850D
S214003560EAE7FFF74DFC0028AED13A484FF0A0FD41
S21400357003460028E8D140F2F33220682285032172
S214003580374A806901F030FA0028DDD12075FFF750
S2140035905BFD002898D101212E484FF0F4FB48BB74
S2140035A023682C4859784FF0FCFA024610BB0146B7
S2140035B028484FF018FDE8B92368264899784FF058
S2140035C043FEB8B9236893F8383073B3214835F012
S2140035D0CBFD236893F83820022A0ED1DA6B93F8D5
S2140035E03A101C484FF0DEFB20B97F2119484FF0F7
S2140035F0E7FA90B16FF0050066E793F83900802887
S21400360008D0002101F0A2F92368002193F83900C0
S21400361001F060F901220221E3E70E480DF10601F0
S2140036204FF04AFD0B4835F09FFD2368DB685BB919
S21400363094F94700FFF7A6FC00287FF445AF02B0D8
S214003640BDE81040FFF7D6BA984700287FF43CAF95
S214003650EEE700BFD820002002210020DC2000205A
S214003660F52C00004CF25032036893420AD146F221
S214003670A81342689A4222D1837A1A2B14BF0020DC
S214003680032070470F4A93420BD149F27C234268CD
S2140036909A4214D1807AA0F119035842584180000A
S2140036A07047094A93420AD14FF2244342689A422D
S2140036B005D1837A092B14BF00200520704700200F
S2140036C0704700BFF049020090D0030010B5E8B183
S2140036D004290FD0052913D0032917D14CF25034F2
S2140036E046F2A8111A230B22C0E9004183724272E7
S2140036F0002010BD49F27C2119230922054CF3E76E
S21400370009234FF224411A46034CEDE76FF00100FF
S214003710EFE700BFF049020090D0030008B500684C
S2140037200023034AA1FB00011AF01EFB08BD00BFE0
S21400373040420F0068B142780378C3EBC203054AE3
S214003740143B52F82330B1FBF3F043438B4238BFAF
S21400375001307047D8CC050003460A4600200149D0
S214003760FDF728BF38CD050078B1036883B14368FC
S21400377073B1836863B1C36853B1036943B14369E6
S21400378033B1054B5860002070476FF00800704753
S2140037906FF00A00704700BF482100202DE9F04175
S2140037A0164607460D4B0E4C0D1E0E4A4FF00200F5
S2140037B008BF1A460C49FDF7FDFE314604F10E001F
S2140037C00622A781A5724AF066FA6368A07A04F119
S2140037D00E019B68BDE8F041184700BF52CD0500BA
S2140037E0482100201E6C060056CD05002DE9F0414C
S2140037F04FF00008194C1A4F3B685FFA88F593F8AB
S21400380026302068AB4206D818B148F0D8FD002311
S2140038102360BDE8F08150B10C266E4330448068CA
S21400382028B148F0CCFD0022236833449A60236810
S21400383053B10C266E433344586828B148F0BFFD98
S2140038400022236833445A6022681AB10C230021F0
S2140038506B43D15208F10108CEE700BF4421002097
S2140038604821002010B5084C2078FF2803D011F01E
S214003870B3FAFF232370FFF7B9FF11F0BBFC00205B
S214003880024B187010BD00BF77270120ABB3002095
S2140038902DE9F0472C4D0746A87A0B4630B92B4940
S2140038A0FDF788FE6FF01700BDE8F08771B16AB1CA
S2140038B0298991420AD300244FF01808286890F806
S2140038C026E0E1B28E4508D8214900E021490020D3
S2140038D0FDF770FE6FF00A00E6E7866A6101715C2C
S2140038E006EB441CB94205D100269CF81290F1B2B2
S2140038F0894501D80134E4E7DCF8141006F1010A22
S21400390008FB0611C97CB9B10C201349096800FBF5
S21400391004114968287B31F816100EF023FD044682
S21400392060B16B680020DB68984700200B49FDF704
S21400393041FE4FF0FF30B7E75646D8E76B680120E8
S214003940DB6898472046AFE74821002075CD050084
S214003950CDCD050090CD050044210020ABCD05005F
S21400396008B5054B0146187B11F072FA003818BFEF
S2140039700120404208BD00BF4821002010B50D4C74
S2140039802378FF2B0AD1204611F062F930B10A499C
S2140039900020FDF70FFE4FF0FF3010BD022120780B
S2140039A011F042FA08B10549F2E70122044B1A70F9
S2140039B0F3E700BF77270120F9CD050022CE0500EA
S2140039C0A9B300202DE9F04F99B002AF0C467860FD
S2140039D0C0B1B9B1AF4E33898B4213D333689A79ED
S2140039E082B15A7A72B19A7A62B1002293F82600AE
S2140039F0D1B2884210D80020A749FDF7DBFD6FF052
S214003A000B0005E00020A549FDF7D4FD6FF00A0085
S214003A105C37BD46BDE8F08F996A5501495D1D7A51
S214003A2001328D42E4D19E4D2B78FF2B0AD12846D9
S214003A3011F00EF930B19B490020FDF7BBFD4FF0A9
S214003A40FF30E5E73368DB79032B25D8DFE803F0A2
S214003A502602302D4FF00308934BB8F1010F18687B
S214003A609B8807F1180AB861BB83B863BB873ED151
S214003A70DFF8689299F800B0BBF1000F26D1062156
S214003A808A4B084607F11402C7F814B011F01EFC62
S214003A90864B80B18649CFE78649CDE7287811F076
S214003AA077F900283BD08449C6E74FF00208D3E7F1
S214003AB04FF00108D0E77A69052A01D87F49BCE7AC
S214003AC05A7989F8008062F03F025A710622504601
S214003AD076494AF0E0F807F1380328780093414623
S214003AE09AE80C0011F026F9C8B17549A4E7B8F1B8
S214003AF0030FF0D106214FF0000B5346084607F19E
S214003B001402C7F814B011F0E1FB0028C2D17B699B
S214003B10052BD3D97B7F03F03F037B77DBE74FF0A2
S214003B200008684B28785A681B891146CDF8008033
S214003B3011F0A6F808B164497EE70721287811F04D
S214003B40C1F808B1614977E7B8826421287807F19F
S214003B50140211F0CBF808B15D496DE701461F224B
S214003B60386007F118004AF054F90622FA734FF449
S214003B70817207F10F013A8307F11A0001224AF019
S214003B808AF80322FA763A77326804F1020A926AD1
S214003B905FFA8AFA528807F1100152BA3A8207F1A0
S214003BA01D0002224AF077F80AF1070202F4FC72BE
S214003BB03B68E846ADEB020D0DF1080B1946524680
S214003BC058464AF026F971238DF80830012322461C
S214003BD079688DF809300DF10A004AF05CF8BAF100
S214003BE0000F1ED0FF2352465946033407F121002A
S214003BF0FC7787F820304AF04EF8CAF1160200210A
S214003C00287807F11803C2F11F0211F0F7F80146F1
S214003C1048B130490020FDF7CDFC4FF0FF30C546D7
S214003C20F6E61822EBE71F2207F138004AF0F1F813
S214003C303368186860B91F220121287807F1380315
S214003C40C2F11F0211F0DAF80028E8D02249E1E7B5
S214003C504AF032F80028EED0336818684AF02CF89C
S214003C603368044618684AF027F80923013087F8B5
S214003C703930336887F838001E6830464AF01CF83A
S214003C803146024607F13A004AF005F8C4F11D0233
S214003C90D2E700BF48210020E3CF050046CE05004E
S214003CA077270120F9CD050011D60500A3B3002023
S214003CB0B3CE050070CE05008ECE0500D3CE05002F
S214003CC0FACE0500302100202FCF050055CF050085
S214003CD075CF050095CF0500BCCF0500A2B3002028
S214003CE02DE9F04FAC4E99B0336893F8263033B9CF
S214003CF0FFF77CFD6FF00A0019B0BDE8F08F0023D7
S214003D009846ADF848300C9333689DF8304093F8E9
S214003D102630A3420CD800254FF00C089F4F33687E
S214003D20ECB293F82630A34200F21A820020E3E7B2
S214003D3012A811F0BBF8002840F0948033686701A1
S214003D409B6A03EB44135B78022B47D0032B62D0AD
S214003D50012B7DD10DF150090222014648464AF05A
S214003D6058F80C2233689B6A3B445B885BBAADF814
S214003D7050308A4B1B6802FB0433CDE900930223C4
S214003D800022BDF84800114611F0A8F805460028A4
S214003D906ED1BDF8480011F0CDF90B90002840F028
S214003DA0B7800C234FF0180B5C43DFF8F0913368B4
S214003DB05FFA85FA9B6A3B449B7C53455ED8DFF8E6
S214003DC0DCA133689DF82CB09B6A3B441B7E5B45A8
S214003DD000F2F4800C9B01330C9395E70DF150092B
S214003DE00422014648464AF014F833689B6A3B446E
S214003DF09A8852BAADF85020DA788DF852200C2204
S214003E009B788DF85330654B1B6802FB0433CDE975
S214003E1000930423B4E70DF15009014610224846EA
S214003E2049F0F7FF494633689B6A3B4403F11202A8
S214003E30023312F8010D934201F8010BF9D10C225E
S214003E40564B1B6802FB0433CDE90093102397E71B
S214003E50FFF7CCFCBDF84810514844F0F4FD4FF095
S214003E60FF3049E7FFF7C2FCBDF848104D48F4E7BD
S214003E70FFF7BCFCBDF848104B48EEE712A811F05F
S214003E8015F8002840F0818033680BFB0AF19B6A26
S214003E903B445869431893F813C05A7C4FEA0C1CED
S214003EA00AB14CF0020C9A7C0AB14CF0080C1A7D50
S214003EB00AB14CF0040C405C012830D19978624677
S214003EC08DF850105B788DF85130D9F8003003EB40
S214003ED0040E195BDEF80430009003EB4A03CDE9CC
S214003EE0058303230293BDF85030CDE90388ADF86F
S214003EF00430BDF84800002311F01AF800283ED11F
S214003F00BDF8480011F016F9013500283FF44FAF10
S214003F10FFF76CFC25490020FDF74CFB9FE70328C4
S214003F2027D114A903F1100013F801EF834201F81A
S214003F3001EBF9D1D9F800300DF1040E19191B5B0D
S214003F400D934B68CDE9068803EB4A03CDE9088359
S214003F500323059318AB13E90F008EE80F00012327
S214003F60624600930D990023BDF8480011F01AF838
S214003F70C4E7FFF73BFCBDF848100D486DE7FFF7B8
S214003F8035FCBDF848100B4867E7FFF72FFCBDF877
S214003F904810094861E700BF48210020442100205E
S214003FA001D0050024D00500B1D0050061D0050081
S214003FB0E4D005000ED1050043D1050012A810F08C
S214003FC075FF002840F0C6804FF42053ADF83C3013
S214003FD042F60103ADF8403042F60303ADF84A005E
S214003FE0ADF84C00DAF80000ADF8443002210DF1CF
S214003FF04A030FAA005B0EF07FF9DAF8000013AB55
S2140040000221005B10AA0EF077F9BDF84A50BDF801
S2140040104C309D4228BF1D46F5B14FF6FF73013D5B
S214004020ADB2002D08BF1D464FF00009DAF800308B
S214004030185B02210DF14E0311AAADF84E900EF05A
S2140040405BF960B9BDF84E304BB1AB4207D80133CF
S2140040501FFA83F94846ECE74FF6FF75E4E7B9F137
S214004060000F05D1FFF7C2FBBDF848104F48F4E635
S2140040701421336801FB0BF19B6A3B44D869431853
S2140040805A7C9D7C6ABB75BB425C012A30D19A780B
S21400409049468DF850205B7803228DF85130DAF8C7
S2140040A00030BDF8480023449B68019203EB4B03A5
S2140040B005930023BDF85020CDE90333ADF800206A
S2140040C002932A4610F0AEFF00283DD1BDF8480006
S2140040D011F030F80B9B01330B9300283FF471AEC0
S2140040E016E71DB1012242F00205CDE70125CBE718
S2140040F0032A23D114A8024603F1100111F801C9BE
S2140041008B4200F801CBF9D1DAF800304FF0000C02
S21400411023449B68CDE906CC03EB4B0308930323AB
S214004120CDF814C004930FCA8DE80F0063462A46E4
S2140041304946BDF8480010F0ABFFC5E7FFF756FB51
S214004140BDF848101A4888E6FFF750FBBDF848103F
S214004150184882E6FFF74AFBBDF8481016487CE68A
S21400416012A810F0A3FED0B908FB04F43B68BDF813
S2140041704800195B10F0CAFF58B9BDF8480010F0A7
S214004180D9FF013500283FF4CAADFFF72FFB0B49D6
S214004190C1E6FFF72BFBBDF8481009485DE6FFF7C0
S2140041A025FBBDF84810074857E600BF87D1050035
S2140041B0ADD10500D3D105000BD205004BD20500CA
S2140041C098D20500B6D2050010B50A4B1878FF281D
S2140041D002D0094C23780BB9002010BD10F0EAFD80
S2140041E030B100200549FDF7E5F94FF0FF30F4E760
S2140041F02070F1E777270120A9B30020F9D2050047
S2140042002DE9F04F04464FF0000987B0354E019374
S2140042109DF84430109F02933368DDF848809B6A0F
S214004220DFF8C4B093F800A015460091BAB2336820
S2140042309B6A997C5FFA89F399421AD84FF0000975
S214004240DFF8A4B033689B6A1A7E5FFA89F39A4255
S21400425020D8029B002B42D0002C40D0009BE0B21E
S214004260032B32D00022294607B0BDE8F04F0EF0EF
S21400427061B8DBF80010496831F81330AB4206D15C
S2140042807368414650461B6803929847039A09F1A3
S2140042900109CCE7DBF80020926832F81330AB4215
S2140042A010D1022F0ED13A4641460DF1160049F0C4
S2140042B0F2FCBDF8161073684A1E514250465B6801
S2140042C05141984709F10109BCE700222946019BA4
S2140042D0CDE9107807B0BDE8F04F0EF059B807B03A
S2140042E0BDE8F08F482100204421002010B5044688
S2140042F010F080FF0020034B21461870BDE81040E8
S214004300FDF758B9ABB3002030B500EB8000450090
S21400431015F5827F87B039DB0DF1160300930DF19A
S214004320120205AB0DF10E0104A810F097FF18B1AC
S2140043304FF0FF3007B030BDBDF91230AB42164B20
S214004340C8BFADF812501C781CB1FFF73DFF00281F
S214004350EED112480378FF2B07D110F079FC20B17C
S21400436000200F49FDF726F9E2E72946BDF91200BD
S2140043700DF10E0304AA10F049FF18B10948FFF723
S214004380B5FFD5E72CB1FFF7F9FAD3E76FF00B00CE
S214004390D0E72046CEE700BFA9B30020772701204C
S2140043A01CD305003AD305002DE9F04F044685B02E
S2140043B048B97149FDF7FEF86FF00A006F4B1C70A4
S2140043C005B0BDE8F08F02206D49FDF7F3F894F8CC
S2140043D026006C4FA38800EB400080003C603B81C9
S2140043E047F0DBFF684D2860002845D16749FDF798
S2140043F0E1F84FF0FF30E3E708FB03F62A684FEAE0
S214004400431B22F8069091193A680191926A02EBD2
S2140044104313987C400047F0C0FF01994860286825
S214004420821953683BB9019347F0C9FF019B58496D
S21400443018462B60DBE73B6801929B6A0AF1010A8B
S2140044405B44187E400047F0A8FF019A2B689060F6
S2140044503344D3F808B0BBF1000F12D1586847F0C8
S214004460AEFF28680644C6F804B047F0A8FF5846D2
S2140044704849C5F800B0BAE74FF0000A4FF00C08FC
S214004480D1463B6893F826205FFA8AF39A42B3D85F
S214004490414B1B782BB11422404804F1080149F027
S2140044A0FAFB364D3E4B2C7819784CB9A9B110F072
S2140044B09FFEA8B120463B49FDF77CF82C7098E794
S2140044C0394B3A483A4A002908BF03460020394982
S2140044D0FDF770F800232B708BE7334A334BF5E774
S2140044E001218DF80A0003900DF10A03084603AA7D
S2140044F010F0ECFE18B1FFF779F92F4807E02F49C6
S21400450038890DF0DFFE28B1FFF770F92C48FFF769
S214004510EDFE6EE710F05AFE18B1FFF767F929486E
S214004520F5E703210E2010F029FE18B1FFF75EF91B
S2140045302548ECE70221082010F034FE18B1FFF7FA
S21400454055F92248E3E7ADF80A00ADF80C006421FF
S2140045501F4803AB0DF10A0210F058FE044618B1CE
S214004560FFF744F91B48D2E7012302201A492B70B3
S214004570FDF720F8204623E793D30500ABB30020D1
S214004580B6D305004821002044210020DED30500D4
S2140045900CD4050041D405007827012030210020E6
S2140045A0AAB30020A0D405001E6C060077D3050031
S2140045B059D3050072D40500ABD505005021002064
S2140045C0BDD40500E1D405000BD505003ED5050099
S2140045D0FCFEFFFF6AD5050092D5050008B50A4B1C
S2140045E09A7A2AB902200949FCF7E4FF002008BDA0
S2140045F0187B10F049FC0028F8D000200449FCF78E
S214004600D9FF4FF0FF30F2E74821002075CD0500B6
S214004610CBD5050030B503686B4A23F47F4323F0FF
S21400462007039342044687B000F0858030D8A2F591
S2140046307D02934200F0BF8009D8A2F50022934283
S21400464053D002F5A02293425AD007B030BD5F4A3D
S2140046509342FAD15E4B1B78FF2B09D00079984223
S21400466006D15C4C23781BB110F0A4FB002323700A
S2140046700022594B1A70594B594A19685B684869A9
S2140046805B6989695060916007B0BDE830401847A3
S214004690544A934265D002F1007293426DD002F103
S2140046A07D429342D1D1C379122B6BD0162B6BD09F
S2140046B003F0BF03122BC8D10025484922798B8905
S2140046C09A42C2D106220E3104A849F0E4FA022129
S2140046D004F10B03CDE90153A37A00932389B4F8C0
S2140046E005202079FFF78CFDAFE743893E4901930B
S2140046F003890093C38882880220FCF75BFFA4E747
S214004700334D2B78FF2BA0D0827B9A429DD1011D82
S214004710062204A849F0BFFA207B2E4C012104AAE9
S214004720FFF73CF82378002B8FD0287810F042FB58
S2140047300023237089E72D4D0622294604A849F058
S214004740AAFA002104AAA079FFF728F80122224B32
S2140047501A7055F80E2C224BD168126959609A606F
S21400476073E7C379022B7FF470AF01201B4B5B68A5
S214004770DB6807B0BDE830401847184B00205B6880
S214004780DB68F6E7012598E7144902798B899A4297
S2140047907FF45BAF06220E3104A849F07CFA04F1E0
S2140047A00B03029301230193A37A03210093238929
S2140047B0B4F8052095E7094BB0F805005B681B695F
S2140047C007B0BDE830401847A0000601A00004016D
S2140047D077270120A9B30020782701204821002050
S2140047E030210020A0000A03F0D505005621002045
S2140047F00122014B1A707047AAB3002018B1034B70
S2140048000360002070476FF00A007047741D012097
S21400481008B555F080FE074BD3E8EF2F511CC3E8D0
S214004820E01F0028F8D1082A03D93B20024944F0AB
S214004830EBF808BD5C21002017D6050008B50A4B2A
S214004840D3E8EF2F511EC3E8E01F0028F8D11AB9AD
S2140048504120064944F0D8F8012A03D1BDE80840B3
S21400486055F05DBE08BD00BF5C21002017D60500D0
S21400487030B5094B094A1B68126843439B1A084A1D
S21400488008481360436808490B6043680D6814685D
S2140048905B1BA342F9D330BD6C21002068210020A9
S2140048A064210020001000E06021002070B506465C
S2140048B00025074C2379B34204D1236913B1284657
S2140048C0A16998470135062D04F11C04F2D170BD8C
S2140048D0241E0120012908B50AD8052808D81C225C
S2140048E0054B02FB0030417144F0CEF8002008BDB5
S2140048F06FF00A00FBE700BF241E0120012908B55F
S2140049000AD8052808D81C22054B02FB0030817106
S21400491044F0BAF8002008BD6FF00A00FBE700BFBD
S214004920241E0120012908B50AD8052808D81C220B
S214004930054B02FB0030C17144F0A6F8002008BD0C
S2140049406FF00A00FBE700BF241E0120022908B50D
S2140049500AD8052808D81C22054B02FB0030017235
S21400496044F092F8002008BD6FF00A00FBE700BF95
S214004970241E0120052810B50FD81C225043084BD2
S2140049801A5C1C18302300205A43064B9B58227989
S214004990D34003F001030B7010BD6FF00A00FBE775
S2140049A0241E012014C00350052810B514D81C225C
S2140049B050430B4B30241A18185C137901229A4086
S2140049C0084B04FB003321B141F2100100205A507D
S2140049D010BD42F21001F9E76FF00A00F8E700BFD9
S2140049E0241E012000C0035003292DE9F3471E466C
S2140049F024D8154B052813F80190144B01F0010834
S214004A0013F801A01DD81C2303FB00F4104F114916
S214004A103D1928792A6185F8149085F81580AE61CD
S214004A2002F0D8FD2A79CDE9009A4346385D114652
S214004A3005F018F9002002B0BDE8F0876FF0050019
S214004A40F9E76FF00A00F6E70DD7050009D705006D
S214004A50241E0120AD480000052813B510D81C23DD
S214004A6001215843084C23181A790191197D0091A9
S214004A70205C11465B7D05F0F5F8002002B010BD05
S214004A806FF00A00FAE700BF241E0120052873B560
S214004A9011D81C23002503FB00F4084E33191A799D
S214004AA00195197D0091305D11465B7D05F0DAF8C1
S214004AB0284602B070BD6FF00A00FAE7241E0120F7
S214004AC030B5194C87B006AB03E90700236893F8A6
S214004AD0345055B904F050F8024630B12846134910
S214004AE007B0BDE83040FCF765BD0022104B11460C
S214004AF0009320684FF4292344F01EFD83B25BB177
S214004B001A4602200B49FCF755FD02200A4907B059
S214004B10BDE83040FCF782BC0120084907B0BDE87C
S214004B203040FCF747BD00BFE41D012011D705004B
S214004B30FFFF0A0031D705005DD705006CD70500DA
S214004B40B0F5E04F134637B50CD346F6FF73009327
S214004B50002302461A491846FCF72CFD4FF0FF309A
S214004B6003B030BD01B132B900201649FCF722FD72
S214004B706FF00100F4E7144D0A4600F52921286875
S214004B8003F046FE044638B1024610490020FCF702
S214004B9011FD6FF00200E3E7286844F01BFD08B93A
S214004BA00020DDE7286844F0F4FC02460028F7D031
S214004BB020460749FCF7FEFC6FF00300D0E700BF75
S214004BC093D70500D1D70500E41D0120F6D70500D0
S214004BD018D80500F0B5B0F5E04F0D46164685B07E
S214004BE00AD346F6FF730093002302461049184680
S214004BF0FCF7E0FC05B0F0BD01B132B900200D496C
S214004C0005B0BDE8F040FCF7D5BC0B4F00F52924F5
S214004C1003AB2146386802AA03F0C4FE029B002BB1
S214004C20E8D133462A462146386803F035FEE1E7E8
S214004C303BD8050078D80500E41D012030B5354B7B
S214004C400546186889B01B7905220290049002A9CF
S214004C5001208DF80C308DF81430FFF7BBFF0522CD
S214004C6004A902A849F0ABF80446B0B905F07CF9EF
S214004C704FF6BF73ADF80830FF238DF80A30C0F347
S214004C8007238DF80B308DF80C000522284602A964
S214004C9049F001F8204609B030BD43F029FFB0F1D5
S214004CA0807F03D0012801D00124EEE7002306A967
S214004CB0082201200193FFF78DFF042206A90DEBC1
S214004CC0020048F0E8FF0422019B0DEB02011BBA2C
S214004CD006A8019348F0DFFF042207A90DEB0200A7
S214004CE048F0D9FF0422019B0DEB02011BBA07A86E
S214004CF0019348F0D0FF9DF81830052203F01F03FB
S214004D0063F05F0306A902A88DF8183048F0C3FFC9
S214004D10CAE700BFF1EC050038B50D460446F0B111
S214004D20E9B101210420FFF711FE01210420FFF75D
S214004D30D1FD01210846FFF7CDFD00210120FFF738
S214004D40F1FD01210846FFF72FFE2A68054BDA60C1
S214004D50054A07CA83E807000020236038BD6FF0C5
S214004D600A00FBE7702100209CD8050070B5036997
S214004D700446ADF53A7D002B65D00378012B3ED076
S214004D80022B63D1334D02A843F016FF4FF6F8719D
S214004D90A2684FF48853B1EBC20F4FF6FF71ADF81F
S214004DA008304FEAC20338BF0B4602A84FF48051C2
S214004DB0EDB2ADF80A3045F0607643F005FF616865
S214004DC001ABC66047F049FE014698B94FF4B2728F
S214004DD061A849F01EF84FF4B27261A908A848F01D
S214004DE05AFF3246019908A847F043FF48B1019898
S214004DF00BF03AF84FF0FF300DF53A7D70BD164DCA
S214004E00C1E708A8D4E9031247F036FF0028EED120
S214004E10D4E9051204F1180308A847F04FFF00284C
S214004E20E5D10D4A45F00075954214BF4025202572
S214004E30A3690198AB42DAD10BF016F8003818BF18
S214004E4001204042D8E76FF00900D5E76FF0050073
S214004E50D2E700BF0B0000020900000270B516463C
S214004E604FF4B272ADF5327D0D46044600210DEBCF
S214004E70020048F0CEFF4FF4B27268460DEB020116
S214004E8048F009FF314668462A6847F0F2FE20B12E
S214004E904FF0FF300DF5327D70BD6846D4E905123F
S214004EA047F0EAFE0028F3D1D4E90712684604F179
S214004EB0200347F003FF0028EAD12B68206A13F48A
S214004EC07C1106D0C3F30541401A18BF4FF0FF30DF
S214004ED0E0E70D4A1A40B2F1607F0DD10B4ADBB213
S214004EE043F0007393420DD003F17E43043B0F2B37
S214004EF0EAD8074AD15CE7E7A2F170735A425A41F2
S214004F001101E1E71021DFE70000C07F0300000287
S214004F10A8D8050070B585690446D6B025B96FF0E7
S214004F200904204656B070BD04A843F045FE4FF471
S214004F301053ADF810302378012B04D0022B17D075
S214004F406FF00504EDE74FF6F8714FF6FF72A368B1
S214004F50474D8B4288BF13469BB2ADF8123063783C
S214004F600395022B079511D853BB6FF00A04D8E7B8
S214004F70236A9D42D3D84FF6F8714FF6FF72A368A6
S214004F803C4D8B4288BF13469BB2E6E7032BECD121
S214004F904FF4805104A843F017FEA268616802AB84
S214004FA0D20847F05AFDE8B92046029A03A9FFF74F
S214004FB055FF0446002853D002980AF055FFB0E784
S214004FC0012B0CBF4FF480714FF4007104A843F01E
S214004FD0FBFDA268616802ABD20804A847F03DFD5D
S214004FE0014610B14FF0FF349BE7982230A8029E8E
S214004FF048F00FFF982230A90AA848F04CFE6378C4
S2140050002A46012B31460AA806D148F004F830B1EA
S21400501002980AF029FFE5E748F000F8F7E70AA843
S214005020D4E9031247F0FDFF0028F1D104F1200572
S2140050300195236A0AA800936169D4E9062348F01B
S2140050400EF80028E4D1226AA3699A42E0D12B46E2
S214005050E1690AA848F02EF80028D9D1A36923628E
S21400506002980AF001FF041E18BF0124644258E7A4
S2140050700002C0030010C0040122014B1A707047E2
S214005080ACB3002010B5044C23781BB10BF098F994
S21400509000232370002010BDADB3002010B5094CCE
S2140050A0247844B150B149B148F0A2F9003818BF8D
S2140050B00120404210BD6FF01800FBE76FF00800BB
S2140050C0F8E700BFADB3002037B50D4D2B7813B110
S2140050D0002003B030BD0BF0B9F9044668B90421CE
S2140050E001230DEB01002B70FFF7D8FF18B90198CC
S2140050F019F0C0F9ECE72C70EBE74FF0FF30E8E76B
S214005100ADB3002037B51D4B04461B7833B340B310
S214005110416831B3C36823B382682AB30078012894
S2140051201AD0022823D1164D04F1100001902069F0
S2140051300090284647F006FDE0B9124BEDB245F068
S21400514000759D4214BF402520252069401B18BFCE
S2140051504FF0FF3003B030BD0A4DE5E76FF01800A2
S214005160F8E76FF00800F5E76FF00900F2E76FF078
S2140051700500EFE74FF0FF30ECE700BFADB30020CF
S2140051800B00000209000002084A127842B150B132
S214005190426842B1C26832B1436923B1FFF7E6BD47
S2140051A06FF0180070476FF008007047ADB300202E
S2140051B0084A127842B150B1426842B1426932B1EF
S2140051C0C36923B1FFF7A6BE6FF0180070476FF0F3
S2140051D008007047ADB3002070B57A4B04461B78C4
S2140051E090B0002B00F0EB8000285ED04368002BC8
S2140051F05BD0C369002B58D0436A002B55D0836917
S214005200002B00F0D680066A002E00F0D280C36A1B
S214005210002B00F0CE800AA843F0CEFC4FF41053CB
S214005220ADF828302378012B20D0023B012B00F26A
S214005230C3804FF6F8714FF6FF72A368256B8B425A
S21400524088BF13462D0405F47C1545F0A865ADF817
S2140052502A3045F4807563780D95012B19D0022B02
S21400526067D06FF00A05284610B070BD4FF6F8718B
S2140052704FF6FF72A368256B8B4288BF13462D043A
S21400528005F47C1545F0A865ADF82A3045F40075A0
S214005290E1E74FF480710AA843F096FCA06A236BFE
S2140052A0184447F07AF8064610B96FF00805DAE7B2
S2140052B0A268616809ABD2080AA847F0CEFB0028AE
S2140052C074D104F128030693226BA36A294613447B
S2140052D0CDE90463236A09980393E3690293A369FB
S2140052E0019363690093D4E9032347F00EFF226A13
S2140052F0054620B9236BA16A1344994203D0A262E3
S2140053004FF0FF350AE03146A262606A48F0C3FCFF
S214005310A16A226BE06A314448F0BDFC09980AF0A5
S214005320A3FD002818BF4FF0FF35304647F047F87A
S21400533099E74FF400710AA843F046FC206B30440E
S21400534047F02BF806460028AFD0D4E9071248F0FD
S214005350A2FCD4E90B12206A304448F09CFCA268F8
S214005360616809ABD2080AA847F077FBF0B904F1E8
S21400537028030693A36A29460593636A099804934B
S214005380226B236A1344CDE90263A3690193636920
S2140053900093D4E9032347F03BFF0028B0D1A36A6B
S2140053A0256A5D1B18BF4FF0FF35B7E74FF0FF3596
S2140053B0BBE76FF0090556E76FF0050553E76FF09A
S2140053C0180550E7ADB30020F0B5684B04461B78CF
S2140053D09DB0002B00F0C380002800F0C380456815
S2140053E0002D00F0BF80C368002B00F0BB8043692F
S2140053F0002B00F0B7800369002B00F0AB8005A8F7
S21400540043F0DAFB2378032B05D0042B62D06FF031
S21400541005001DB0F0BDFF23ADF81630544B05A8AF
S21400542008936378012B0BBF47F2421344F24213F2
S2140054304FF480614FF400610CBFADF81430ADF846
S214005440143043F0C1FB6378012B1ED1484F494E00
S2140054503378002B73D02B68049304F1180302935F
S214005460A36939460193636904980093D4E903233A
S21400547047F02FFD10B9A369402B1CD03378002BC2
S21400548065D104980AF0F0FC61E0022B40D1294671
S214005490A26804AB05A847F0E0FA3549002856D1C3
S2140054A0A3690498019363690093D4E9032347F042
S2140054B04FFD0028E5D162782E4B022A1B7801D0DA
S2140054C0002B4AD104980AF0CFFC003818BF012000
S2140054D040429EE74FF48073ADF81630264B05A881
S2140054E008936378012B0BBF47F2121344F2121392
S2140054F04FF480614FF400610CBFADF81430ADF886
S214005500143043F061FB6378012B16D0022B02D0D7
S2140055106FF00A007DE704232946A2680DF12D00EE
S2140055208DF82C3048F0B7FBA2680BA904AB01320B
S21400553005A847F092FA1049B0E70F4F87E72946CB
S214005540A26804AB05A847F088FA002885D04FF07B
S214005550FF305EE76FF009005BE7002059E76FF069
S214005560180056E76FF0080053E700BFADB3002001
S21400557000080006ACB300200906000670B5374BDD
S21400558004461B789CB0002B61D0002862D0466889
S214005590002E5FD0C368002B5CD04369002B59D027
S2140055A005A843F009FB4FF4804105A843F00CFB27
S2140055B023782B4D012B089529D0022B44D1294B5B
S2140055C031460593A26804AB47F047FA38BBD4E9E6
S2140055D0031204230DF12D008DF82C3048F05BFBF0
S2140055E004F1180223690292A269013301926269EA
S2140055F000920BAA2846049947F093FE03460498A7
S21400560013B9A369202B18D00AF02EFC07E0164B1E
S21400561031460593A26804AB47F01FFA18B14FF065
S214005620FF301CB070BD04F118030293A369019308
S21400563063690093D4E90323DCE70AF015FC00381D
S21400564018BF01204042ECE76FF00500E9E76FF075
S2140056501800E6E76FF00800E3E700BFADB30020F0
S21400566000000209127100014171FF00F0B5604BA5
S21400567004461B789BB0002B00F0B380002800F097
S214005680B3804368002B00F0AF80C368002B00F0A7
S214005690AB8003A843F090FA2378013B032B00F27B
S2140056A09D80DFE803F0544B022C524B1B781BB353
S2140056B00322049B0892DAB222B923F0FF0343F0D8
S2140056C00103049345F031F94FF48061000240F085
S2140056D001000490484B03A8039343F075FA474B28
S2140056E0694603A806930AF05FFE002831D04FF003
S2140056F0FF3528461BB0F0BD40F20141EAE73D4BBE
S2140057001B78C3B10422049B0892DAB222B923F0B4
S214005710FF0343F00103049345F007F94FF480516B
S214005720000240F001000490354B03A8039343F0B9
S2140057304BFA344BD4E741F20101F5E7304B44F223
S214005740010103A8039343F03FFA2F4BC8E72F4B02
S214005750F5E7284F60683B7803B32378033B012BBB
S2140057601CD80422694648F096FA26690098402E0E
S21400577002AB2DD1412209A947F044F9226905461A
S2140057800DF12501E06848F086FA02966DB92569A4
S214005790029BED1A18BF4FF0FF3508E00146A268DD
S2140057A0009801AB47F0CEF868B14FF0FF353B7874
S2140057B01BB12378033B012B9BD900980AF054FBBE
S2140057C0002896D093E7A268019B9A42EDD1CCE7D9
S2140057D03246E16847F016F90546D7E76FF005054B
S2140057E087E76FF0180584E76FF0080581E700BFCC
S2140057F0ADB30020ACB300204271FF0000080006E5
S2140058001271000109060006000002094171FF003E
S21400581037B50F4D2B6893F83430B3B903F0ACF9B5
S214005820041E18BF0124644200220A4B114600934E
S21400583028684FF4222343F07FFE074982B20220F5
S214005840FBF7B8FE204603B030BD0024ECE700BFEF
S214005850E41D0120FF8F0A00B8D805002DE9F047A7
S214005860002486B0B0F5E04F0E4615461F4603945A
S21400587000F5222A0DD346F6FF7302460093204613
S21400588023462449FBF796FE6FF0090006B0BDE8F4
S214005890F08732B910462049FBF78CFE6FF00800FF
S2140058A0F4E7DFF8788003AB5146D8F8000002AA88
