S02A00006275696C642F64656275672F616D617A6F6E5F7369646577616C6B5F736F635F6F6F622E733337D9
S21400000000100020A5550000436E0400436E040057
S214000010436E0400436E0400436E0400436E040007
S214000020436E0400436E0400436E0400F15B05005B
S214000030436E0400436E0400815B0500598305008F
S214000040436E0400198C0000436E0400436E0400E7
S214000050436E0400AD7A0400436E0400436E040051
S214000060436E0400436E040085D40000436E040013
S214000070436E0400436E0400436E0400436E0400A7
S214000080436E0400436E0400436E0400436E040097
S214000090436E0400555C0000436E0400436E04008B
S2140000A0436E04003D5B0000215B0000436E0400CD
S2140000B0436E0400436E0400436E04009154040033
S2140000C06F5105006B510500F94B04008551050082
S2140000D0735105005154040077510500FD300400AB
S2140000E0D1540400436E0400436E0400436E0400C3
S2140000F0436E0400436E0400436E0400436E040027
S214000100436E0400436E0400436E0400436E040016
S214000110436E0400436E0400436E0400436E040006
S21400012001140000436E0400436E0400436E040096
S208000130436E040011
S214000134F0B5114A114C124E00F00105E3695F0751
S21400014413D40DB9334213D103EA00078F4207D103
S2140001540B4A1A40002A0CBF00206FF00100F0BDC5
S214000164013AEBD16FF00200F9E74FF0FF30F6E703
S2140001746FF00100F3E700BF80969800000003507C
S2140001840200010070B50B4BD96911F480310DD112
S21400019401244FF48072084E084DF46020462C6407
S2140001A41A61FFF7C5FF3464EC6070BD6FF00100A0
S2140001B4FBE700BF0000035000100350002003506C
S2140001C438B541F6713301220C4C0021E569E3632E
S2140001D40B4B05F48035DA6002236061212023612D
S2140001E4FFF7A6FF10B92120FFF7A2FF0122054B57
S2140001F4DA600DB10023E36338BD00BF000003508E
S214000204001003500020035070B5134C6061E3697E
S2140002145B071ED40E4656F8043B8D18A361AE4207
S2140002240BD10423002121202361FFF781FF58B955
S214000234BDE870402120FFF77BBF08210846FFF782
S21400024477FF10B10423236170BD56F8043BA36105
S214000254E5E74FF0FF30F7E7000003502DE9F843D9
S214000264154641F67132164B8946DF69DA63012278
S214000274064603F58053DFF8508007F48037DA60CB
S21400028455B9284601220F4BDA601FB10022A3F5A8
S2140002940053DA63BDE8F88306F5005404EA08045C
S2140002A4A41BAC4228BF2C46494622463046FFF7DC
S2140002B4ABFF0028E6D12644A1442D1BE0E700BF8F
S2100002C4000003500020035000E0FFFF85
S2140002D010B51D4C0020214657F07DFF18B1462072
S2140002E01A4946F01AFC2368194AB3FBF2F3236056
S2140002F020681BF077FE10A3D3E900231BF006FC52
S2140003000FA3D3E900231BF031FD1BF0E5FE114BD4
S214000310114A1860D2F8FC3043F08073C2F8FC3003
S2140003204FF060430D4AC3F8B02F0D4A136843F0F0
S2140003300103136010BD00BFEC51B81E85EBE93F0A
S214000340F6285C8FC2F51C403C200020D9A805008A
S21400035040420F003820002000ED00E055CEACC52E
S214000360001000E00000000070B54B4B90B0044653
S2140003700D461B680F934FF000034DF03CFD002820
S21400038048D01422002108A84BF0F4FAD4E907015B
S2140003904FF6FF73ADF822300DAB83E803008DF8FF
S2140003A0215029F047FC0026A063049069460120EE
S2140003B002AACDE90566CDE90066CDE90266079694
S2140003C01EF090F8054670B30596ADF8186043F633
S2140003D0FF7303208DF81C0004A908A8ADF81A3096
S2140003E02DF0EEF910B9012384F84030636B5A1CE7
S2140003F04FF6FF7218BF01336363B4F85830934268
S2140004001CBF01339BB2A4F8583094F83D3001333A
S21400041084F83D30204B1A680F9B5A404FF000037B
S21400042032D045F099F8009B01990593C80318A3AC
S214000430D3E90023490C1BF06FFE15A3D3E9002374
S2140004400399ADF81800C803490C1BF065FE029B23
S21400045000EBC333B3F5804F0DD3104A93420DD94A
S2140004600F4A93420DD90F4A9342B0D803200D226B
S214000470D3409BB2AEE728462A46F9E7012005227C
S214000480F6E702200A22F3E710B070BDAFF3008053
S21400049000CA9A3B00000000B8A10020E0FF070059
S2140004A000FCFF0000E0FF07002370B5404C054647
S2140004B08AB0E36318B1008823603BF0A9FE3D488C
S2140004C054F03AF93C4E3D4B304633603C4B73603B
S2140004D037F086F8002130463CF0EEFD32A3D3E933
S2140004E00023A062C4E9062353F006FCD4E90623E1
S2140004F019431043C4E90601CDE900014FF0FF336C
S2140005004FF0FF32A06A54F0DAF902224FF0FF31C2
S214000510A06A54F0EEF901203BF040FB4FF4007364
S21400052000222849A06A54F0C4FAB0F5007F39D1F9
S21400053000239422079309933C23CDE903320593C5
S214000540962306935023A06A03A908933DF09EF9CC
S21400055035B3287C3CF02EF80546F0B9A06A54F076
S2140005604BFB3BF0D5FF3BF0FBFA20B14FF480701D
S214000570002139F0A5FA3BF003FB20B14FF40060F0
S214000580002139F09DFA53F084FC012053F06CFFF3
S2140005900D4A0E49A06A53F0A3FB28460AB070BD68
S2140005A0FF20D7E70725F8E70DD501552000000006
S2140005B0D8180020690345EC8C9C0020D5B90300B0
S2140005C09C9C00208C9A0020893C0500C93C0500B4
S2140005D00348044B834202D0034B03B118477047CD
S2140005E05C2101205C21012000000000064B074929
S2140005F0C91A891048BF0131491003D0044B0BB10A
S21400060001481847704700BF5C2101205C2101208B
S2140006100000000010B5064C237843B9FFF7D8FF5A
S214000620044B13B10448AFF300800123237010BDC0
S21400063074A2002000000000F43A060008B5054B3E
S2140006401BB105490548AFF30080BDE80840FFF739
S214000650CDBF00BF00000000401E0020F43A060098
S214000660A3F5803A704700BF174B002B08BF134B0B
S2140006709D46FFF7F5FF00218B460F461348144AA8
S214000680121A4BF077F90E4B002B00D098470D4B03
S214000690002B00D098470020002104000D000D48D4
S2140006A0002802D00C48AFF300801BF0D7FE2000D5
S2140006B0290046F0A2FB1BF0BFFE00BF00000800AA
S2140006C000000000000000000010002000100020C5
S2140006D09CFF00200000000000000000004870475B
S2140006E0688E050013B501F06BF900230446072257
S2140006F0022035498DF8073000F034FE08234FF409
S214000700B0618DF80730204601230DF1070250F046
S2140007104FF838B100202D4900F024FE4FF0FF308E
S21400072002B010BD9DF807304FF4B06143F00803E7
S2140007308DF80730204601230DF1070250F019F816
S2140007400028E7D1012340F2835120460DF107022D
S21400075050F02EF80028DDD19DF8073040F2835186
S21400076023F008038DF80730204601230DF1070219
S2140007704FF0FFFF0028CDD107234FF412618DF80C
S2140007800730204601230DF107024FF0F2FF002844
S214000790C0D101234FF4126120460DF1070250F03C
S2140007A007F80028B6D19DF807304FF4126143F0E1
S2140007B008038DF80730204601230DF107024FF09D
S2140007C0D8FF0028ACD0A5E7108F05003A8F0500AB
S2140007D000487047788F050000487047688F05000E
S2140007E00B4B02461B7883B10A4B1B78834234BFFF
S2140007F000200120084B1B7833B1084B1B781341AF
S21400080013F0010F08BF002070470120F2E700BF79
S214000810420B0120410B012074A30020400B012055
S214000820094B10B519680023084A994201D12120C6
S21400083007E052F8044B2468844203D1044B186046
S214000840002010BD0133F0E7C0BE05008C02012079
S214000850581E0020014B1868704700BF581E002025
S214000860012208B5074B1A700022074B1A700422A3
S214000870064B1A701F22064B1A700CF04FF8054BE9
S214000880186008BD420B012074A30020410B012014
S214000890400B0120581E002008B50022FF2105202D
S2140008A058F087F9014B186008BD00BF5C1E002099
S2140008B02DE9F041C0B0FF22002168464BF05AF8FF
S2140008C0154B00226946186857F059FF01281BD1BE
S2140008D00025124E56F83570684639464AF0ECFF49
S2140008E006EBC508044690B1D8F804604EB1384609
S2140008F04AF093FF044420464AF08FFF0146204604
S214000900B047E8B204F0CCFD40B0BDE8F081013558
S214000910062DDFD1F8E700BF5C1E002090BE050064
S21400092030B50D460446C1B0FF22002168464BF0A4
S21400093021F8FE2D2A46214628BFFE2268464AF0A8
S2140009405FFF002305481A466946006857F027FEF1
S214000950431E5842584141B030BD00BF5C1E0020C7
S2140009602DE9FF4100221D4D1D4F009511461D4BE0
S214000970386846F0DCFD0421064649F025FB0446AF
S21400098038B9194A194900F0EDFC204604B0BDE814
S214000990F0814FF00008009501463246114B38684A
S2140009A046F0C5FD4546B04506D1204649F0EEFA6C
S2140009B0AB1E58425841E9E703AB54F82810386894
S2140009C002AA06F069FB029B184304D1039B802B06
S2140009D004BF0135EDB208F10108E4E7FF70080036
S2140009E0A40101200031080092970500FA8F050047
S2140009F007B5042226200DEB020102F03BFF04227D
S214000A0005490DEB02004AF08BFFB0FA80F0400972
S214000A1003B05DF804FB00BFD89905009307F7B54F
S214000A200646144621D0274D2749286849F01DFA66
S214000A302649286849F019FA00F0EEFB45F0C5FB98
S214000A40234B244A00932449DF23286849F00DFAF3
S214000A50224A2349286849F008FA234632462149A3
S214000A60286849F002FA00BEFDE713460A468100F0
S214000A701D4809F07FFB074610B3124D124928683F
S214000A8049F0F3F91149286849F0EFF900F0C4FB82
S214000A9045F09BFB0E4B0F4A00930F49E72328684F
S214000AA049F0E3F9114A0E49286849F0DEF9009743
S214000AB0234632460E49286849F0D7F900BEFDE7BE
S214000AC003B0F0BD581E0020C13906002290050074
S214000AD063970500279005009E900500AA900500E4
S214000AE0CB900500E3900500601E002034910500C1
S214000AF0489105002DE9F0430220C7B0614900F097
S214000B0031FC614B6148029309F05CFB064600B37A
S214000B105F4C6049206849F0A8F95F49206849F0B1
S214000B20A4F900F079FB45F050FB5C4B5C4A00935F
S214000B305C49D023206849F098F95B4A5B492068F5
S214000B4049F093F932465A49206849F08EF900BEBA
S214000B50FDE70220574900F005FC0124564FDFF858
S214000B607C91B96801BB4FF4807206A84AF002FF78
S214000B703D79D7F800802A4606A91FFA88F002F0C9
S214000B8079FEAA071CBF25F00305043520462A4631
S214000B9006A9FFF743FF2346424649460220009532
S214000BA000F0E0FB04EB95040336752E07F10C0706
S214000BB0D7D14249424EB14205910CD902A904222E
S214000BC00020FFF72BFF02203E49A20000F0CAFBE0
S214000BD047B0BDE8F0833C4D04AB286803AA06F096
S214000BE05BFA039901434AD1049B802B47D14FF40B
S214000BF0807206A84AF0BEFE049B0599286806AADD
S214000C0006F0C4F908B3224C2249206849F02DF9B1
S214000C102149206849F029F900F0FEFA45F0D5FA96
S214000C202A4B1F4A00931F494FF4E473206849F08B
S214000C301CF9274A1D49206849F017F9059A2549E5
S214000C40206849F012F900BEFDE7049D2046AB0778
S214000C501CBF25F0030504350134042205A9FFF75F
S214000C60DDFE20462A4606A9FFF7D8FE23460220C8
S214000C70059A1949009500F075FB04EB9504059953
S214000C80013198E78D910500BEBAFECA601E0020AD
S214000C90581E0020C13906002290050073970500F3
S214000CA0279005009E90050034910500CB90050026
S214000CB0A8910500D59105000098050000310800B0
S214000CC0FE700800E1920500A4010120839705004C
S214000CD0419205005592050092920500F29105009A
S214000CE073B5144612F00302054607D18500D3B249
S214000CF09C4202F1010223D802B070BD134E144983
S214000D00306849F0B2F81349306849F0AEF800F0A0
S214000D1083FA45F05AFA104B104A00931049F5230F
S214000D20306849F0A2F80F4A0F49306849F09DF83C
S214000D3023462A460D49306849F097F800BEFDE77D
S214000D40E81800F17E600078C854D0E7581E0020EE
S214000D50C139060022900500BE97050027900500C1
S214000D609E900500AA900500CB90050022930500F2
S214000D702DE9F04FDFF890A202208F49C7B000F0AF
S214000D80F1FADAF8000046F0E4FB064608B38B4CAE
S214000D908B49206849F069F88A49206849F065F867
S214000DA000F03AFA45F011FA874B884A00938849D2
S214000DB04FF4F873206849F058F8864A8649206848
S214000DC049F053F832468549206849F04EF800BE8F
S214000DD0FDE70220824900F0C5FA0125B346814F9F
S214000DE0B96800294CD14FF4807206A84AF0C2FDBB
S214000DF097F80480284618F0030F0EBFC14628F067
S214000E00030909F104094A4606A9FFF769FF3B688A
S214000E104246039306A9BDF80C0002F0E1FC4346E7
S214000E200446039A0220704900F09CFA05EB9905E7
S214000E30002C39D0614D6249286849F016F861499E
S214000E40286849F012F800F0E7F945F0BEF95E4B65
S214000E505E4A00935E4940F20923286849F005F887
S214000E60624A5D49286849F000F80C2272435D49E1
S214000E7023468A5828685E4948F0F7FF00BEFDE71B
S214000E8097F80480D7F8009042461FFA89F002F0DF
S214000E90A7FC434604464A4602205649D84400F07A
S214000EA061FA1FFA88FBC3E70136272E07F10C0705
S214000EB096D105F142080422284605A90594FFF7B5
S214000EC00FFF4FF48072002106A84AF053FD8022DF
S214000ED006A9681CFFF704FF059E80233146DAF852
S214000EE0000006AA06F00EF8074618B3334C34493D
S214000EF0206848F0BAFF3349206848F0B6FF00F093
S214000F008BF945F062F9304B304A0093304940F295
S214000F101523206848F0A9FF2E4A2F49206848F07C
S214000F20A4FF0097802332463349206848F09DFF8F
S214000F3000BEFDE7DAF8000046F047FB48B3DAF8F3
S214000F40000046F021FB074618B31C4C1C492068DD
S214000F5048F08BFF1B49206848F087FF00F05CF9DB
S214000F6045F033F9184B194A009319494FF40673A4
S214000F70206848F07AFF174A1749206848F075FF3E
S214000F800097802332461D49206848F06EFF00BE59
S214000F90FDE78023324602201949213500F0E2F9A8
S214000FA0A84588D1022017490BEB880200F0DAF931
S214000FB047B0BDE8F08F00BF72930500581E0020B2
S214000FC0C1390600229005003F97050027900500CE
S214000FD09E90050041920500CB9005008E9305007B
S214000FE0C693050000980500EB9305008194050064
S214000FF08A94050036940500C494050008950500FB
S21400100056950500A0950500A401012010B5002402
S21400101086B0CDE9034403AB059493E8070002F0DD
S2140010209FFB2046042202A9FFF75AFE514C029B62
S214001030A34228D00220504900F094F9FFF790FC14
S214001040002855D14D4C4E49206848F00EFF4D49BA
S214001050206848F00AFF00F0DFF845F0B6F84A4B83
S2140010604A4A00934A4940F27D13206848F0FDFE44
S2140010704849494A206848F0F8FE4849206848F040
S214001080F4FE00BEFDE70220454900F06BF9FFF7CD
S214001090AFFC002857D10220424900F063F9042231
S2140010A0002002A9FFF71CFE029BA3425BD0334C34
S2140010B03349206848F0D9FE3249206848F0D5FE0A
S2140010C000F0AAF845F081F8374B304A00933049D3
S2140010D04FF4C873206848F0C8FE2E49334A20688B
S2140010E048F0C3FE3249206848F0BFFE00BEFDE768
S2140010F0FFF77EFC00BB214C2149206848F0B5FE76
S2140011002049206848F0B1FE00F086F845F05DF80A
S2140011101D4B1E4A00931E494FF4C073206848F0CA
S214001120A4FE1C491C4A206848F09FFE21492068FE
S21400113048F09BFE00BEFDE702201F4900F012F9B2
S214001140FFF7D8FCA3E7FFF70BFC0028A3D002208C
S2140011501A4900F007F90220194A1A4906B0BDE8F4
S214001160104000F0FFB80220174900F0FBF8FFF728
S214001170FFFDF0E7BEBAFECAEA950500581E00203D
S214001180C139060022900500AB97050027900500A0
S2140011909E900500CB900500229605002E96050031
S2140011A004960500A49605004F970500DE960500F8
S2140011B0EF9605005596050088960500BF96050033
S2140011C0CD9705002D970500109705000EB417B5AE
S2140011D004460A480DF0D6FF50B100F011F8002082
S2140011E000F014F806AA20460599019200F082F84D
S2140011F003B0BDE8104003B0704700BF589D05001F
S214001200014B1860704700BF881E0020014B186015
S214001210704700BF841E0020002213B50B4B6946A2
S21400122010461C68CDE900221DF05CF9019A084BB7
S2140012304FF47A71B2FBF3F22046009B01FB0322C7
S214001240044902B0BDE8104048F00FBE581E00200A
S21400125040420F005C9D050038B50C4603283BD87D
S214001260DFE800F00219242F0120FFF7B9FA98B33F
S214001270FFF7D2FF194D44F0A8FF1949286848F037
S214001280F4FD2146286848F0F0FD28681549BDE8B9
S214001290384048F0EABD0220FFF7A2FAE0B1FFF7B7
S2140012A0BBFF0E4D44F091FF0F49E7E70320FFF721
S2140012B097FA88B1FFF7B0FF084D44F086FF0B4958
S2140012C0DCE70420FFF78CFA30B1FFF7A5FF034DEB
S2140012D044F07BFF0649D1E738BD00BF581E00200A
S2140012E0659D0500C13906006A9D05006F9D0500D5
S2140012F0749D050070B50D461646174BC0B00446E3
S2140013001868FFF78DFA154B18780DF09DFE2A46E3
S21400131033464FF4807168461BF0CEF8FFF79AFA12
S21400132005460F480DF02EFF854210D1EFF31185CC
S2140013304FF0200181F3118869462046FFF78CFFA5
S21400134085F3118800200DF07FFE40B070BD694621
S2140013502046FFF781FFF5E7881E0020841E002048
S214001360589D05000EB417B504460A480DF00AFF4E
S21400137050B1FFF745FF0220FFF748FF06AA2046B8
S21400138005990192FFF7B6FF03B0BDE8104003B021
S214001390704700BF589D05000CB413B504460C48B2
S2140013A00DF0F0FE70B1FFF72BFF0120FFF72EFFC8
S2140013B0631E022B05AA94BF2046002004990192C2
S2140013C0FFF798FF02B0BDE8104002B0704700BFBC
S2140013D0589D050008B5074B1968074B186805F0B7
S2140013E0C7FC28B1BDE8084001200449FFF7BABF92
S2140013F008BD00BF84010120A4010120799D0500DD
S21400140010B5084B1B6803B1984756F030FE0446EB
S2140014100021012054F0A8FD2046BDE8104056F0FB
S21400142021BE00BF8C1E002010B50A4C23787BB965
S21400143038200BF03BFA0521382048F0C9FC38204C
S2140014400BF00AFA02200449FFF78CFF01232370F1
S214001450002010BD75A30020939D050010B504461E
S21400146088B10A4B1B784BB1094B38201C600BF037
S2140014701DFA38200BF0F0F9002010BDFFF7D4FF5E
S2140014800028F1D0F9E76FF00800F6E775A3002012
S2140014908C1E002008B538200BF008FA38200BF018
S2140014A0C9F90020014B186008BD00BF8C1E002043
S2140014B010B50C4B1B788BB10B4B1B6873B156F0F9
S2140014C0D6FD01210446084654F04EFD204656F04F
S2140014D0C9FD38200BF0DCF9002010BD6FF02700A6
S2140014E0FBE700BF75A300208C1E002010B5044C3F
S2140014F023781BB1FFF7CEFF00232370002010BD1A
S21400150075A3002030B50D4689B004462249022056
S214001510FFF75CFE02202149FFF758FE02201E4915
S214001520FFF754FE2A461E4D02201E49FFF74EFEC8
S2140015302A4602201C49FFF749FE02201649FFF7FB
S21400154045FE15490220FFF741FE284600954AF061
S21400155064F918220021019002A84AF00BFA6FF0F5
S214001560004302250293012302AA694620468DF80D
S2140015700C5004931CF076FD024638B100200B494F
S214001580FFF724FEBDF8140009B030BD2846BDF8AC
S21400159014200749F4E700BFB2AE0500AE9D050073
S2140015A0901E0020CE9D0500DF9D0500EA9D0500EB
S2140015B0029E050038B50024064D00224FF48671C1
S2140015C0052057F0F6FA0134E4B2032C45F8040B74
S2140015D0F3D138BD9C1F00202DE9F04106460224B9
S2140015E0204D214F00221F4957F8240057F0C7F816
S2140015F0012833D156F054F8D5F8083123BB1B49DF
S2140016000220FFF7E3FD1A490220FFF7DFFD22461E
S21400161002201849FFF7DAFD02201449FFF7D6FD2D
S214001620B5F800113046FFF76DFFA5F8040156F037
S21400163037F8C5F8080157F824000123BDE8F04143
S2140016400022084956F0ABBF0B4AC31A9342F2D9A0
S21400165006490220FFF7BAFD0849D5E7013CC1D28A
S214001660BDE8F081901E00209C1F0020B2AE050051
S214001670199E0500399E05008F5F0100599E0500E2
S2140016802DE9F041174E07460D460024B046C4B07B
S214001690002256F8040B01A957F006F801281DD1C0
S2140016A0BDF80831BB4219D1642258F8240001A9BC
S2140016B025B957F064F844B0BDE8F08157F05FF8FC
S2140016C001280346F7D1002258F82400439201A9C6
S2140016D064228DF80A5156F062FFECE70134032CC1
S2140016E0D6D1E8E79C1F002070B50646C4B00D466C
S2140016F0144600214FF4867201A84AF03BF93146A1
S21400170001A84AF03BF8002306481A4650F8240081
S21400171001A94393419556F042FF431E5842584153
S21400172044B070BD9C1F002070B5042805460C46CA
S214001730164690B017D8B1B14022002168464AF04C
S21400174019F90A4B684653F825104AF04AF821461C
S21400175068464AF046F868464AF05FF83246014660
S2140017606846FFF7C1FF10B070BD00BFAC9E050015
S2140017700122002101484AF0FDB800BF76A30020F0
S214001780F0B50A46044691B018B3402921D9002185
S2140017904AF0F0F8202200210DEB02004AF0EAF8A9
S2140017A020226946042002F065F8202268460DEBE8
S2140017B002014AF0B5F860B16D46074F04F14006E5
S2140017C02046394615F8012B02341BF00BF8B442BC
S2140017D0F6D111B0F0BD00BFC09E0500F0B50A46B8
S2140017E0044685B040B30A2926D900214AF0C2F83B
S2140017F00522002102A84AF0BDF8684602F06EF8FD
S214001800D0B905236A462B214FF4005002F076FE2D
S21400181090B90522684602A94AF082F860B16D4682
S214001820064F04F10A062046394615F8012B023405
S2140018301AF0D8FFB442F6D105B0F0BDC09E050040
S21400184010B50A460446D0B1FF2918D100214AF047
S21400185091F820460A4949F0C4FF2046094949F054
S214001860C0FF2046084949F0BCFF2046074949F01A
S214001870B8FF2046BDE81040054949F0B2BF10BD8C
S214001880C59E0500CE9E0500DD9E0500E99E05006E
S214001890F89E0500002307B50648028D0093114602
S2140018A04EF0B8FF002814BF6FF00200002003B00F
S2140018B05DF804FBA81F0020002307B51A4619464A
S2140018C0009305484EF0A6FF002814BF6FF00200F4
S2140018D0002003B05DF804FBA81F002038B50446BE
S2140018E012480D46036893F838300BB1002038BD17
S2140018F0037D13F0FD0F07D001210C484EF0B1FE1A
S21400190038B16FF00500F2E74FF085F90028F3D004
S214001910F7E70A2001F0FCFD2A46214603484EF070
S21400192039FF0028E2D06FF00200E0E7A81F002091
S21400193040F2FF3108B504484EF0A7FF002814BF58
S2140019406FF00500002008BDA81F00200C4B984231
S2140019500ED80C4B98420DD80B4B98420CD80B4B1C
S21400196098420BD80A4B984294BF05200420704733
S2140019700020704701207047022070470320704700
S21400198000E9A43580F8A9328044E52D000B6B1BD6
S2140019908047A11913B50DF1070101F03BFE024681
S2140019A048B99DF8073033B1044CE1680C311CF09F
S2140019B099FDA369984702B010BD00BFA81F00207C
S2140019C000487047A81F002037B501240E4D2B682D
S2140019D00DF10701D86901F01DFE9DF80730184388
S2140019E010F0FF000BD00A2001F092FD40F2D173F8
S2140019F00134A4B29C42EAD16FF0050002E0B4F5CF
S214001A00FA6FF9D003B030BDA81F0020014BD86193
S214001A10704700BFA81F00202DE9F7431F4E1D4644
S214001A2033688446586D0F4614469DF8288060B388
S214001A30BCF1000F29D09B6D05EB01094B4527D360
S214001A400A46614649F0DCFE34B133682A46586DD2
S214001A502146384449F0D4FED6E900104B6DCDF847
S214001A6000901A4607682831B847A0B9B8F1000FA9
S214001A7007D034B133682A46596D2046414449F0B0
S214001A80BFFE002003B0BDE8F0836FF00100F9E769
S214001A906FF00400F6E76FF00200F3E7A81F0020DF
S214001AA038B50C46014600B9B4B90D4D2B68186A16
S214001AB0802805D001F0C8FD10B16FF0020038BDD7
S214001AC02B68586A802801D10020F8E7214601F0EB
S214001AD0BBFD0028F8D0F0E76FF00100EFE700BF8D
S214001AE0A81F0020014B1860704700BFA81F0020E9
S214001AF0014B187D704700BFA81F0020024B187AC4
S214001B00003818BF01207047A81F0020012838B5EC
S214001B10044612D1104D014628464EF030FF10B153
S214001B206FF0050038BD40F2F3332C722B85FFF7BB
S214001B30B1FE0028F4D10020F4E750B9064D014666
S214001B4028464EF01CFF0028EAD140F2FB332872EC
S214001B50ECE74FF0FF30E5E7A81F002038B5114D41
S214001B6004462B7D012B19D1E86AFFF7EFFE0246EB
S214001B702046FFF7EBFE824207D1214609484EF089
S214001B80D9FE48B16FF0050038BD2146284635F02D
S214001B90F1FB0028F1D0F5E7EC62F5E76FF0060000
S214001BA0F2E700BFA81F0020431E062B9FBF054B71
S214001BB01B1893F94430002094BF0B706FF001009F
S214001BC0704700BFA81F0020431E022BF0B522D886
S214001BD000221227114B196891F85D60D3B2B34208
S214001BE002D34FF0FF3015E007FB02F40D6E013212
S214001BF02B192C5D8442F1D1094A03F110051446D5
S214001C0018685968083303C4AB422246F7D100204F
S214001C101B882380F0BD6FF00100FBE7A81F0020A3
S214001C20EC1F002013B51F4C237D012B30D121461D
S214001C3051F8203B5B68984700282CDB236A019309
S214001C4023681B78012B0DD0022B27D1382315488B
S214001C5001A98DF803304EF073FD28B16FF0020035
S214001C6002B010BD1823F2E7012340F6E7010D4845
S214001C700DF103024EF07DFD0028EFD194F82520EB
S214001C8094F9241007484EF089FE0028E8D0E5E7CE
S214001C906FF00600E4E76FF00100E1E74FF0FF3079
S214001CA0DEE700BFA81F002010B50E4C237D022BD8
S214001CB011D0FFF73DFE014670B9FFF7F1FE014671
S214001CC050B9042120464EF0BDFC38B9204644F0F9
S214001CD0B7FA022323750021084610BD6FF00501F0
S214001CE0FAE700BFA81F002038B5184D2B7D012B42
S214001CF022D013F0FD0F0CD128464EF08CFF18B101
S214001D006FF00504204638BD2B7D022B04BF01234F
S214001D102B75FFF70DFE04460028F3D10146FFF7AA
S214001D20BFFE04460028EDD10A2001F0F1FB2B7D12
S214001D30012B03D101232B750024E3E7214603483A
S214001D404EF08FFC0028F5D0DAE700BFA81F002071
S214001D5008B502460B4650B149B1002105484EF081
S214001D603AFD002814BF6FF00200002008BD6FF097
S214001D700100FBE7A81F002070B5124D0646688DCF
S214001D8095F82A10000AFFF7A9FD0446A8B9012015
S214001D9095F82610FFF784FE044670B9FFF7C8FDD5
S214001DA0044650B94FF47A71B601B6FBF1F12846F5
S214001DB04EF066FC18B904232B75204670BD6FF0F4
S214001DC00504FAE7A81F002070B5184D0646297AC4
S214001DD02846B1FA81F149094EF078FC18B16FF047
S214001DE00504204670BD688D95F82A10000AFFF796
S214001DF075FD04460028F4D101460120FFF750FE89
S214001E0004460028EDD1FFF793FD04460028E8D1EC
S214001E104FF47A71B601B6FBF1F128464EF043FC5A
S214001E200028DCD103232B75DBE700BFA81F0020AA
S214001E302DE9F341274E0546337A8846002B43D1D9
S214001E40084644F0A2FA044630B9012130464EF066
S214001E503DFC28B16FF00504204602B0BDE8F081D5
S214001E60708D96F82A10000AFFF738FD0446002801
S214001E70F2D101460120FFF713FE04460028EBD1FD
S214001E80FFF756FD04460028E6D14FF401720346DC
S214001E900090114630464EF0BDFCC0B94FF47A7340
S214001EA0A96830468901B1FBF3F14EF0FCFB00282F
S214001EB0D0D10FCD06F130070FC72B68C6F81C80AF
S214001EC03B6003233375C7E76FF00104C4E76FF088
S214001ED00204C1E7A81F002038B5164D297A284607
S214001EE0B1FA81F149094EF0F1FB18B16FF0050423
S214001EF0204638BD688D95F82A10000AFFF7EEFCDC
S214001F0004460028F4D101460120FFF7C9FD044627
S214001F100028EDD1FFF70CFD04460028E8D16FF04D
S214001F207F4128464EF0BFFB0028DFD103232B75E8
S214001F30DEE700BFA81F002038B50F4D688D95F866
S214001F402A10000AFFF7CAFC044678B901460120A9
S214001F50FFF7A6FD044648B9FFF7EAFC044628B991
S214001F6028464EF0C2FB18B905232B75204638BD0F
S214001F706FF00504FAE700BFA81F002013B5094C50
S214001F800DF1060120464EF02AFE40B92368BDF842
S214001F90060093F90330C01A00B202B010BD47F62F
S214001FA0FF70FAE7A81F002037B5FFF785FC514CF5
S214001FB00546E0B920460DF106014EF078FCB0B9B2
S214001FC0BDF80630DA0700F18A80590600F18580F0
S214001FD09A0515D5237D042B00F08380E369102B2A
S214001FE040F081804FF48033E361FFF7C5FE237D28
S214001FF0022B02D0FFF74EFC0546284603B030BD44
S214002000980672D4227A012A30D11907EFD41A061C
S2140020101BD5D805E26906D4102A08D004204FF450
S2140020208033E3610EE0102A08D00320F7E7324839
S214002030FFF7A2FE4FF48033E361D8E74FF4803316
S2140020400320E36123699847D1E703F04203022B9C
S214002050CDD1284844F017FC0146002847D103227A
S214002060E068083049F086FC0220EBE7002ABED183
S214002070190703D5204644F0E2F9B8E75A070DD50C
S214002080E369102BB3D1FFF779FFE36858724FF47A
S2140020908033E361FFF728FE0820D3E79B07A6D529
S2140020A00022E16810460C311CF01CFA0DF1050107
S2140020B0104844F006FA014618B9E06806220230D5
S2140020C0D0E710F1080F12D19DF80530032B02D08F
S2140020D0053B012B0BD86FF007050520B2E7012062
S2140020E0B0E70620AEE70720ACE70A20AAE70D46D1
S2140020F07DE700BFA81F0020404B4C00014BB3F902
S21400210054007047A81F0020431E062B9FBF054B98
S2140021101B1893F94B30002094BF0B706FF0010032
S214002120704700BFA81F0020F0B505460B4F0646B7
S2140021303C6840340FCC0FC523683A682B6092F891
S2140021403830022B05D1D36BC3EB03133361002069
S214002150F0BD012BFBD10F23F8E700BFA81F00201E
S21400216013B518B96FF0010002B010BD0029F9D000
S214002170002AF7D001235F4C23722368C4E90320AA
S21400218093F85C00A161FFF71FFD2368D8698028DB
S2140021902DD12368586A802804D0012101F0EAF97D
S2140021A00028DFD12368186A802804D0012101F0B6
S2140021B0E1F90028D6D123685869802804D0012187
S2140021C001F0D8F90028CDD123685A68002AC9D072
S2140021D09B6893B148489847236848481B69D3E9E9
S2140021E000219047014660B16FF00200BCE7002175
S2140021F001F0C0F90028CCD0B4E741F21223638581
S214002200EAE7FFF74DFC0028AED13A484EF001FD54
S21400221003460028E8D140F2F332206822850321E5
S214002220374A806901F030FA0028DDD12075FFF7C3
S2140022305BFD002898D101212E484EF055FB48BB87
S21400224023682C4859784EF05DFA024610BB0146CA
S21400225028484EF079FCE8B92368264899784EF06D
S214002260A4FDB8B9236893F8383073B3214835F025
S21400227053F9236893F83820022A0ED1DA6B93F8C4
S2140022803A101C484EF03FFB20B97F2119484EF00B
S21400229048FA90B16FF0050066E793F83900802899
S2140022A008D0002101F0A2F92368002193F8390034
S2140022B001F060F901220221E3E70E480DF1060164
S2140022C04EF0ABFC0B4835F027F92368DB685BB9AA
S2140022D094F94700FFF7A6FC00287FF445AF02B04C
S2140022E0BDE81040FFF7D6BA984700287FF43CAF09
S2140022F0EEE700BFA81F0020D21F0020AC1F002062
S214002300951900004CF25032036893420AD146F207
S214002310A81342689A4222D1837A1A2B14BF00204F
S214002320032070470F4A93420BD149F27C23426840
S2140023309A4214D1807AA0F119035842584180007D
S2140023407047094A93420AD14FF2244342689A42A0
S21400235005D1837A092B14BF002005207047002082
S214002360704700BFF049020090D0030010B5E8B1F6
S21400237004290FD0052913D0032917D14CF2503465
S21400238046F2A8111A230B22C0E90041837242725A
S214002390002010BD49F27C2119230922054CF3E7E1
S2140023A009234FF224411A46034CEDE76FF0010073
S2140023B0EFE700BFF049020090D0030008B50068C0
S2140023C00023034AA1FB000119F0A6FE08BD00BFCA
S2140023D040420F0068B142780378C3EBC203054A57
S2140023E0143B52F82330B1FBF3F043438B4238BF23
S2140023F0013070471C9F050003460A46002001492D
S214002400FEF7B0BF7C9F050078B1036883B14368D0
S21400241073B1836863B1C36853B1036943B1436959
S21400242033B1054B5860002070476FF008007047C6
S2140024306FF00A00704700BF182000202DE9F04119
S214002440164607460D4B0E4C0D1E0E4A4FF0020068
S21400245008BF1A460C49FEF785FF314604F10E0008
S2140024600622A781A57249F0CBF96368A07A04F129
S2140024700E019B68BDE8F041184700BF969F050017
S21400248018200020C23906009A9F05002DE9F04169
S2140024904FF00008194C1A4F3B685FFA88F593F81E
S2140024A026302068AB4206D818B147F06FFD0023EF
S2140024B02360BDE8F08150B10C266E43304480683E
S2140024C028B147F063FD0022236833449A602368EE
S2140024D053B10C266E433344586828B147F056FD76
S2140024E00022236833445A6022681AB10C23002164
S2140024F06B43D15208F10108CEE700BF142000203C
S2140025001820002010B5084C2078FF2803D010F0C3
S2140025103BFEFF232370FFF7B9FF11F043F80020BE
S214002520024B187010BD00BF430B012080A3002093
S2140025302DE9F0472C4D0746A87A0B4630B92B49B3
S214002540FEF710FF6FF01700BDE8F08771B16AB1B3
S214002550298991420AD300244FF01808286890F879
S21400256026E0E1B28E4508D8214900E02149002046
S214002570FEF7F8FE6FF00A00E6E7866A6101715C16
S21400258006EB441CB94205D100269CF81290F1B225
S214002590894501D80134E4E7DCF8141006F1010A95
S2140025A008FB0611C97CB9B10C201349096800FB69
S2140025B004114968287B31F816100EF0ABF8044673
S2140025C060B16B680020DB68984700200B49FEF777
S2140025D0C9FE4FF0FF30B7E75646D8E76B680120D4
S2140025E0DB6898472046AFE718200020B99F050013
S2140025F011A00500D49F050014200020EF9F0500C1
S21400260008B5054B0146187B10F0FAFD003818BFD8
S2140026100120404208BD00BF1820002010B50D4C18
S2140026202378FF2B0AD1204610F0EAFC30B10A4985
S2140026300020FEF797FE4FF0FF3010BD02212078F5
S21400264010F0CAFD08B10549F2E70122044B1A70E2
S214002650F3E700BF430B01203DA0050066A0050080
S2140026607EA300202DE9F04F99B002AF0C467860AB
S214002670C0B1B9B1AF4E33898B4213D333689A7960
S21400268082B15A7A72B19A7A62B1002293F8260021
S214002690D1B2884210D80020A749FEF763FE6FF03B
S2140026A00B0005E00020A549FEF75CFE6FF00A006F
S2140026B05C37BD46BDE8F08F996A5501495D1D7AC5
S2140026C001328D42E4D19E4D2B78FF2B0AD128464D
S2140026D010F096FC30B19B490020FEF743FE4FF009
S2140026E0FF30E5E73368DB79032B25D8DFE803F016
S2140026F02602302D4FF00308934BB8F1010F1868EF
S2140027009B8807F1180AB861BB83B863BB873ED1C4
S214002710DFF8689299F800B0BBF1000F26D10621C9
S2140027208A4B084607F11402C7F814B010F0A6FF4B
S214002730864B80B18649CFE78649CDE7287810F0EA
S214002740FFFC00283BD08449C6E74FF00208D3E7D9
S2140027504FF00108D0E77A69052A01D87F49BCE71F
S2140027605A7989F8008062F03F025A710622504674
S214002770764949F045F807F1380328780093414632
S2140027809AE80C0010F0AEFCC8B17549A4E7B8F1A1
S214002790030FF0D106214FF0000B5346084607F111
S2140027A01402C7F814B010F069FF0028C2D17B6984
S2140027B0052BD3D97B7F03F03F037B77DBE74FF016
S2140027C00008684B28785A681B891146CDF80080A7
S2140027D010F02EFC08B164497EE70721287810F037
S2140027E049FC08B1614977E7B8826421287807F187
S2140027F0140210F053FC08B15D496DE701461F2234
S214002800386007F1180049F0B5F80622FA734FF45D
S214002810817207F10F013A8307F11A00012248F08E
S214002820EFFF0322FA763A77326804F1020A926AD8
S2140028305FFA8AFA528807F1100152BA3A8207F113
S2140028401D00022248F0DCFF0AF1070202F4FC72C7
S2140028503B68E846ADEB020D0DF1080B19465246F3
S214002860584649F087F871238DF808300123224630
S21400287079688DF809300DF10A0048F0C1FFBAF109
S214002880000F1ED0FF2352465946033407F121009D
S214002890FC7787F8203048F0B3FFCAF11602002113
S2140028A0287807F11803C2F11F0210F07FFC0146DA
S2140028B048B130490020FEF755FD4FF0FF30C546C1
S2140028C0F6E61822EBE71F2207F1380049F052F827
S2140028D03368186860B91F220121287807F1380389
S2140028E0C2F11F0210F062FC0028E8D02249E1E79E
S2140028F048F093FF0028EED03368186848F08DFF44
S21400290033680446186848F088FF0923013087F8C2
S2140029103930336887F838001E68304648F07DFF47
S2140029203146024607F13A0048F06AFFC4F11D023C
S214002930D2E700BF1820002027A205008AA00500C5
S214002940430B01203DA0050055A8050078A30020F4
S214002950F7A00500B4A00500D2A0050017A1050049
S2140029603EA105000020002073A1050099A10500E6
S214002970B9A10500D9A1050000A2050077A3002093
S2140029802DE9F04FAC4E99B0336893F8263033B942
S214002990FFF77CFD6FF00A0019B0BDE8F08F00234A
S2140029A09846ADF848300C9333689DF8304093F85D
S2140029B02630A3420CD800254FF00C089F4F3368F2
S2140029C0ECB293F82630A34200F21A820020E3E726
S2140029D012A810F043FC002840F09480336867018A
S2140029E09B6A03EB44135B78022B47D0032B62D021
S2140029F0012B7DD10DF1500902220146484648F0D0
S214002A00B9FF0C2233689B6A3B445B885BBAADF81F
S214002A1050308A4B1B6802FB0433CDE90093022337
S214002A200022BDF84800114610F030FC054600288C
S214002A306ED1BDF8480010F055FD0B90002840F010
S214002A40B7800C234FF0180B5C43DFF8F091336827
S214002A505FFA85FA9B6A3B449B7C53455ED8DFF859
S214002A60DCA133689DF82CB09B6A3B441B7E5B451B
S214002A7000F2F4800C9B01330C9395E70DF150099E
S214002A8004220146484648F075FF33689B6A3B447B
S214002A909A8852BAADF85020DA788DF852200C2277
S214002AA09B788DF85330654B1B6802FB0433CDE9E9
S214002AB000930423B4E70DF150090146102248465E
S214002AC048F058FF494633689B6A3B4403F11202BC
S214002AD0023312F8010D934201F8010BF9D10C22D2
S214002AE0564B1B6802FB0433CDE90093102397E78F
S214002AF0FFF7CCFCBDF84810514844F02DF84FF0D5
S214002B00FF3049E7FFF7C2FCBDF848104D48F4E730
S214002B10FFF7BCFCBDF848104B48EEE712A810F0D3
S214002B209DFB002840F0818033680BFB0AF19B6A0E
S214002B303B445869431893F813C05A7C4FEA0C1C60
S214002B400AB14CF0020C9A7C0AB14CF0080C1A7DC3
S214002B500AB14CF0040C405C012830D199786246EA
S214002B608DF850105B788DF85130D9F8003003EBB3
S214002B70040E195BDEF80430009003EB4A03CDE93F
S214002B80058303230293BDF85030CDE90388ADF8E2
S214002B900430BDF84800002310F0A2FB00283ED108
S214002BA0BDF8480010F09EFC013500283FF44FAFFA
S214002BB0FFF76CFC25490020FEF7D4FB9FE70328AF
S214002BC027D114A903F1100013F801EF834201F88E
S214002BD001EBF9D1D9F800300DF1040E19191B5B81
S214002BE00D934B68CDE9068803EB4A03CDE90883CD
S214002BF00323059318AB13E90F008EE80F0001239B
S214002C00624600930D990023BDF8480010F0A2FB21
S214002C10C4E7FFF73BFCBDF848100D486DE7FFF72B
S214002C2035FCBDF848100B4867E7FFF72FFCBDF8EA
S214002C304810094861E700BF182000201420002033
S214002C4045A2050068A20500F5A20500A5A205009C
S214002C5028A3050052A3050087A3050012A810F0BC
S214002C60FDFA002840F0C6804FF42053ADF83C3003
S214002C7042F60103ADF8403042F60303ADF84A00D1
S214002C80ADF84C00DAF80000ADF8443002210DF142
S214002C904A030FAA005B0DF007FDDAF8000013AB3D
S214002CA00221005B10AA0DF0FFFCBDF84A50BDF8EB
S214002CB04C309D4228BF1D46F5B14FF6FF73013DCF
S214002CC0ADB2002D08BF1D464FF00009DAF80030FF
S214002CD0185B02210DF14E0311AAADF84E900DF0CF
S214002CE0E3FC60B9BDF84E304BB1AB4207D80133B8
S214002CF01FFA83F94846ECE74FF6FF75E4E7B9F1AB
S214002D00000F05D1FFF7C2FBBDF848104F48F4E6A8
S214002D101421336801FB0BF19B6A3B44D8694318C6
S214002D205A7C9D7C6ABB75BB425C012A30D19A787E
S214002D3049468DF850205B7803228DF85130DAF83A
S214002D400030BDF8480023449B68019203EB4B0318
S214002D5005930023BDF85020CDE90333ADF80020DD
S214002D6002932A4610F036FB00283DD1BDF84800F5
S214002D7010F0B8FB0B9B01330B9300283FF471AEA9
S214002D8016E71DB1012242F00205CDE70125CBE78B
S214002D90032A23D114A8024603F1100111F801C931
S214002DA08B4200F801CBF9D1DAF800304FF0000C76
S214002DB023449B68CDE906CC03EB4B03089303231F
S214002DC0CDF814C004930FCA8DE80F0063462A4658
S214002DD04946BDF8480010F033FBC5E7FFF756FB41
S214002DE0BDF848101A4888E6FFF750FBBDF84810B3
S214002DF0184882E6FFF74AFBBDF8481016487CE6FE
S214002E0012A810F02BFAD0B908FB04F43B68BDF802
S214002E104800195B10F052FB58B9BDF8480010F096
S214002E2061FB013500283FF4CAADFFF72FFB0B49C5
S214002E30C1E6FFF72BFBBDF8481009485DE6FFF733
S214002E4025FBBDF84810074857E600BFCBA3050092
S214002E50F1A3050017A405004FA405008FA40500E4
S214002E60DCA40500FAA4050010B50A4B1878FF2864
S214002E7002D0094C23780BB9002010BD10F072F96F
S214002E8030B100200549FEF76DFA4FF0FF30F4E749
S214002E902070F1E7430B01207EA300203DA505002E
S214002EA02DE9F04F04464FF0000987B0354E0193E8
S214002EB09DF84430109F02933368DDF848809B6A83
S214002EC0DFF8C4B093F800A015460091BAB2336894
S214002ED09B6A997C5FFA89F399421AD84FF00009E9
S214002EE0DFF8A4B033689B6A1A7E5FFA89F39A42C9
S214002EF020D8029B002B42D0002C40D0009BE0B292
S214002F00032B32D00022294607B0BDE8F04F0DF063
S214002F10E9BBDBF80010496831F81330AB4206D144
S214002F207368414650461B6803929847039A09F116
S214002F300109CCE7DBF80020926832F81330AB4288
S214002F4010D1022F0ED13A4641460DF1160048F038
S214002F5057FCBDF8161073684A1E514250465B680F
S214002F605141984709F10109BCE700222946019B17
S214002F70CDE9107807B0BDE8F04F0DF0E1BB07B023
S214002F80BDE8F08F182000201420002010B504465D
S214002F9010F008FB0020034B21461870BDE81040D7
S214002FA0FEF7E0B980A3002030B500EB80004500B6
S214002FB015F5827F87B039DB0DF1160300930DF10E
S214002FC0120205AB0DF10E0104A810F01FFB18B19C
S214002FD04FF0FF3007B030BDBDF91230AB42164B94
S214002FE0C8BFADF812501C781CB1FFF73DFF002893
S214002FF0EED112480378FF2B07D110F001F820B16C
S21400300000200F49FEF7AEF9E2E72946BDF91200A7
S2140030100DF10E0304AA10F0D1FA18B10948FFF713
S214003020B5FFD5E72CB1FFF7F9FAD3E76FF00B0041
S214003030D0E72046CEE700BF7EA30020430B01204A
S21400304060A505007EA505002DE9F04F044685B075
S21400305048B97149FEF786F96FF00A006F4B1C708D
S21400306005B0BDE8F08F02206D49FEF77BF994F8B5
S21400307026006C4FA38800EB400080003C603B813C
S21400308046F072FF684D2860002845D16749FEF774
S21400309069F94FF0FF30E3E708FB03F62A684FEACA
S2140030A0431B22F8069091193A680191926A02EB46
S2140030B04313987C400046F057FF01994860286803
S2140030C0821953683BB9019346F060FF019B58494B
S2140030D018462B60DBE73B6801929B6A0AF1010AFF
S2140030E05B44187E400046F03FFF019A2B689060D4
S2140030F03344D3F808B0BBF1000F12D1586846F03D
S21400310045FF28680644C6F804B046F03FFF584618
S2140031104849C5F800B0BAE74FF0000A4FF00C086F
S214003120D1463B6893F826205FFA8AF39A42B3D8D2
S214003130414B1B782BB11422404804F1080148F09B
S2140031405FFB364D3E4B2C7819784CB9A9B110F080
S21400315027FAA8B120463B49FEF704F92C7098E7F9
S214003160394B3A483A4A002908BF034600203949F5
S214003170FEF7F8F800232B708BE7334A334BF5E75E
S21400318001218DF80A0003900DF10A03084603AAF0
S21400319010F074FA18B1FFF779F92F4807E02F49B5
S2140031A038890DF067FA28B1FFF770F92C48FFF759
S2140031B0EDFE6EE710F0E2F918B1FFF767F929485F
S2140031C0F5E703210E2010F0B1F918B1FFF75EF90C
S2140031D02548ECE70221082010F0BCF918B1FFF7EB
S2140031E055F92248E3E7ADF80A00ADF80C00642173
S2140031F01F4803AB0DF10A0210F0E0F9044618B1BF
S214003200FFF744F91B48D2E7012302201A492B7026
S214003210FEF7A8F8204623E7D7A5050080A30020E0
S214003220FAA50500182000201420002022A605007C
S21400323050A6050085A60500440B012000200020AE
S2140032407FA30020E4A60500C2390600BBA5050042
S2140032509DA50500B6A60500EFA7050020200020C6
S21400326001A7050025A705004FA7050082A70500B2
S214003270FCFEFFFFAEA70500D6A7050008B50A4B63
S2140032809A7A2AB902200949FEF76CF8002008BD90
S214003290187B0FF0D1FF0028F8D000200449FEF775
S2140032A061F84FF0FF30F2E718200020B99F0500C4
S2140032B00FA8050030B503686B4A23F47F4323F05C
S2140032C007039342044687B000F0858030D8A2F505
S2140032D07D02934200F0BF8009D8A2F500229342F7
S2140032E053D002F5A02293425AD007B030BD5F4AB1
S2140032F09342FAD15E4B1B78FF2B09D00079984297
S21400330006D15C4C23781BB10FF02CFF00232370F2
S2140033100022594B1A70594B594A19685B6848691C
S2140033205B6989695060916007B0BDE83040184716
S214003330544A934265D002F1007293426DD002F176
S2140033407D429342D1D1C379122B6BD0162B6BD012
S21400335003F0BF03122BC8D10025484922798B8978
S2140033609A42C2D106220E3104A848F049FA022138
S21400337004F10B03CDE90153A37A00932389B4F833
S21400338005202079FFF78CFDAFE743893E4901937E
S21400339003890093C38882880220FDF7E3FFA4E731
S2140033A0334D2B78FF2BA0D0827B9A429DD1011DF6
S2140033B0062204A848F024FA207B2E4C012104AAF9
S2140033C0FFF73CF82378002B8FD028780FF0CAFE42
S2140033D00023237089E72D4D0622294604A848F0CD
S2140033E00FFA002104AAA079FFF728F80122224B41
S2140033F01A7055F80E2C224BD168126959609A60E3
S21400340073E7C379022B7FF470AF01201B4B5B6818
S214003410DB6807B0BDE830401847184B00205B68F3
S214003420DB68F6E7012598E7144902798B899A420A
S2140034307FF45BAF06220E3104A848F0E1F904F1F0
S2140034400B03029301230193A37A0321009323899C
S214003450B4F8052095E7094BB0F805005B681B69D2
S21400346007B0BDE830401847A0000601A0000401E0
S214003470430B01207EA30020440B012018200020CF
S21400348000200020A0000A0334A805002620002003
S2140034900122014B1A7070477FA3002018B1034B1E
S2140034A00360002070476FF00A0070474401012057
S2140034B008B554F0E0FD074BD3E8EF2F511CC3E8E6
S2140034C0E01F0028F8D1082A03D93B20024943F020
S2140034D024FB08BD2C2000205BA8050008B50A4B7D
S2140034E0D3E8EF2F511EC3E8E01F0028F8D11AB921
S2140034F04120064943F011FB012A03D1BDE80840EC
S21400350054F0BDBD08BD00BF2C2000205BA8050000
S21400351030B5094B094A1B68126843439B1A084A90
S21400352008481360436808490B6043680D681468D0
S2140035305B1BA342F9D330BD3C200020382000207E
S21400354034200020001000E03020002070B5064631
S2140035500025074C2379B34204D1236913B12846CA
S214003560A16998470135062D04F11C04F2D170BDFF
S214003570E4010120012908B50AD8052808D81C222C
S214003580054B02FB0030417143F007FB002008BDED
S2140035906FF00A00FBE700BFE4010120012908B52F
S2140035A00AD8052808D81C22054B02FB003081717A
S2140035B043F0F3FA002008BD6FF00A00FBE700BFF7
S2140035C0E4010120012908B50AD8052808D81C22DC
S2140035D0054B02FB0030C17143F0DFFA002008BD46
S2140035E06FF00A00FBE700BFE4010120022908B5DE
S2140035F00AD8052808D81C22054B02FB00300172A9
S21400360043F0CBFA002008BD6FF00A00FBE700BFCE
S214003610E4010120052810B50FD81C225043084BA2
S2140036201A5C1C18302300205A43064B9B582279FC
S214003630D34003F001030B7010BD6FF00A00FBE7E8
S214003640E401012014C00350052810B514D81C222C
S21400365050430B4B30241A18185C137901229A40F9
S214003660084B04FB003321B141F2100100205A50F0
S21400367010BD42F21001F9E76FF00A00F8E700BF4C
S214003680E401012000C0035003292DE9F3471E463C
S21400369024D8154B052813F80190144B01F00108A7
S2140036A013F801A01DD81C2303FB00F4104F11498A
S2140036B03D1928792A6185F8149085F81580AE6141
S2140036C002F002FB2A79CDE9009A4346385D11469E
S2140036D004F042FE002002B0BDE8F0876FF005005F
S2140036E0F9E76FF00A00F6E751A905004DA90500B5
S2140036F0E40101204D350000052813B510D81C2321
S21400370001215843084C23181A790191197D00911C
S214003710205C11465B7D04F01FFE002002B010BD49
S2140037206FF00A00FAE700BFE4010120052873B530
S21400373011D81C23002503FB00F4084E33191A7910
S2140037400195197D0091305D11465B7D04F004FE05
S214003750284602B070BD6FF00A00FAE7E4010120C7
S21400376030B5194C87B006AB03E90700236893F819
S214003770345055B903F07AFD024630B12846134955
S21400378007B0BDE83040FDF7EDBD0022104B1146F6
S214003790009320684FF4292343F0C9FE83B25BB13F
S2140037A01A4602200B49FDF7DDFD02200A4907B044
S2140037B0BDE83040FDF70ABD0120084907B0BDE866
S2140037C03040FDF7CFBD00BFA401012055A905007C
S2140037D0FFFF0A0075A90500A1A90500B0A905000C
S2140037E0B0F5E04F134637B50CD346F6FF7300939B
S2140037F0002302461A491846FDF7B4FD4FF0FF3085
S21400380003B030BD01B132B900201649FDF7AAFD5C
S2140038106FF00100F4E7144D0A4600F529212868E8
S21400382003F070FB044638B1024610490020FDF74D
S21400383099FD6FF00200E3E7286843F0C6FE08B97A
S2140038400020DDE7286843F09FFE02460028F7D0F8
S21400385020460749FDF786FD6FF00300D0E700BF5E
S214003860D7A9050015AA0500A40101203AAA05005B
S2140038705CAA0500F0B5B0F5E04F0D46164685B0DB
S2140038800AD346F6FF7300930023024610491846F3
S214003890FDF768FD05B0F0BD01B132B900200D4955
S2140038A005B0BDE8F040FDF75DBD0B4F00F52924DF
S2140038B003AB2146386802AA03F0EEFB029B002BFE
S2140038C0E8D133462A462146386803F05FFBE1E735
S2140038D07FAA0500BCAA0500A401012030B5354B1F
S2140038E00546186889B01B7905220290049002A943
S2140038F001208DF80C308DF81430FFF7BBFF052241
S21400390004A902A848F00CF80446B0B904F0A6FED4
S2140039104FF6BF73ADF80830FF238DF80A30C0F3BA
S21400392007238DF80B308DF80C000522284602A9D7
S21400393047F066FF204609B030BD43F062F9B0F1AB
S214003940807F03D0012801D00124EEE7002306A9DA
S214003950082201200193FFF78DFF042206A90DEB34
S214003960020047F04DFF0422019B0DEB02011BBA3B
S21400397006A8019347F044FF042207A90DEB0200B6
S21400398047F03EFF0422019B0DEB02011BBA07A87D
S214003990019347F035FF9DF81830052203F01F030A
S2140039A063F05F0306A902A88DF8183047F028FFD9
S2140039B0CAE700BF01BB050038B50D460446F0B1A6
S2140039C0E9B101210420FFF711FE01210420FFF7D1
S2140039D0D1FD01210846FFF7CDFD00210120FFF7AC
S2140039E0F1FD01210846FFF72FFE2A68054BDA6035
S2140039F0054A07CA83E807000020236038BD6FF039
S214003A000A00FBE740200020E0AA050070B5036925
S214003A100446ADF53A7D002B65D00378012B3ED0E9
S214003A20022B63D1334D02A843F04FF94FF6F871DD
S214003A30A2684FF48853B1EBC20F4FF6FF71ADF892
S214003A4008304FEAC20338BF0B4602A84FF4805135
S214003A50EDB2ADF80A3045F0607643F03EF96168A5
S214003A6001ABC66046F0E0FD014698B94FF4B2726D
S214003A7061A847F07FFF4FF4B27261A908A847F02B
S214003A80BFFE3246019908A846F0DAFE48B1019812
S214003A900AF0D8FB4FF0FF300DF53A7D70BD164D9D
S214003AA0C1E708A8D4E9031246F0CDFE0028EED1FF
S214003AB0D4E9051204F1180308A846F0E6FE00282B
S214003AC0E5D10D4A45F00075954214BF40252025E6
S214003AD0A3690198AB42DAD10AF0B4FB003818BFEC
S214003AE001204042D8E76FF00900D5E76FF00500E7
S214003AF0D2E700BF0B0000020900000270B51646B0
S214003B004FF4B272ADF5327D0D46044600210DEB42
S214003B10020047F02FFF4FF4B27268460DEB020129
S214003B2047F06EFE314668462A6846F089FE20B1A8
S214003B304FF0FF300DF5327D70BD6846D4E90512B2
S214003B4046F081FE0028F3D1D4E90712684604F156
S214003B50200346F09AFE0028EAD12B68206A13F468
S214003B607C1106D0C3F30541401A18BF4FF0FF3052
S214003B70E0E70D4A1A40B2F1607F0DD10B4ADBB286
S214003B8043F0007393420DD003F17E43043B0F2BAA
S214003B90EAD8074AD15CE7E7A2F170735A425A4165
S214003BA01101E1E71021DFE70000C07F03000002FB
S214003BB0ECAA050070B585690446D6B025B96FF045
S214003BC00904204656B070BD04A843F07EF84FF4B2
S214003BD01053ADF810302378012B04D0022B17D0E9
S214003BE06FF00504EDE74FF6F8714FF6FF72A36825
S214003BF0474D8B4288BF13469BB2ADF812306378B0
S214003C000395022B079511D853BB6FF00A04D8E72B
S214003C10236A9D42D3D84FF6F8714FF6FF72A36819
S214003C203C4D8B4288BF13469BB2E6E7032BECD194
S214003C304FF4805104A843F050F8A268616802ABC4
S214003C40D20846F0F1FCE8B92046029A03A9FFF72D
S214003C5055FF0446002853D002980AF0F3FAB0E75E
S214003C60012B0CBF4FF480714FF4007104A843F091
S214003C7034F8A268616802ABD20804A846F0D4FC07
S214003C80014610B14FF0FF349BE7982230A8029E01
S214003C9047F070FE982230A90AA847F0B1FD637875
S214003CA02A46012B31460AA806D146F09BFF30B1C2
S214003CB002980AF0C7FAE5E746F097FFF7E70AA882
S214003CC0D4E9031246F094FF0028F1D104F1200550
S214003CD00195236A0AA800936169D4E9062346F091
S214003CE0A5FF0028E4D1226AA3699A42E0D12B46B8
S214003CF0E1690AA846F0C5FF0028D9D1A369236266
S214003D0002980AF09FFA041E18BF0124644258E77E
S214003D100002C0030010C0040122014B1A70704755
S214003D2081A3002010B5044C23781BB10AF036FDA1
S214003D3000232370002010BD82A3002010B5094C7C
S214003D40247844B150B149B147F039F9003818BF6A
S214003D500120404210BD6FF01800FBE76FF008002E
S214003D60F8E700BF82A3002037B50D4D2B7813B1BE
S214003D70002003B030BD0AF057FD044668B90421A0
S214003D8001230DEB01002B70FFF7D8FF18B901983F
S214003D9018F048FDECE72C70EBE74FF0FF30E8E753
S214003DA082A3002037B51D4B04461B7833B340B3BF
S214003DB0416831B3C36823B382682AB30078012808
S214003DC01AD0022823D1164D04F110000190206964
S214003DD00090284646F09DFCE0B9124BEDB245F047
S214003DE000759D4214BF402520252069401B18BF42
S214003DF04FF0FF3003B030BD0A4DE5E76FF0180016
S214003E00F8E76FF00800F5E76FF00900F2E76FF0EB
S214003E100500EFE74FF0FF30ECE700BF82A300207D
S214003E200B00000209000002084A127842B150B1A5
S214003E30426842B1C26832B1436923B1FFF7E6BDBA
S214003E406FF0180070476FF00800704782A30020DC
S214003E50084A127842B150B1426842B1426932B162
S214003E60C36923B1FFF7A6BE6FF0180070476FF066
S214003E700800704782A3002070B57A4B04461B7872
S214003E8090B0002B00F0EB8000285ED04368002B3B
S214003E905BD0C369002B58D0436A002B55D083698A
S214003EA0002B00F0D680066A002E00F0D280C36A8F
S214003EB0002B00F0CE800AA842F007FF4FF4105304
S214003EC0ADF828302378012B20D0023B012B00F2DE
S214003ED0C3804FF6F8714FF6FF72A368256B8B42CE
S214003EE088BF13462D0405F47C1545F0A865ADF88B
S214003EF02A3045F4807563780D95012B19D0022B76
S214003F0067D06FF00A05284610B070BD4FF6F871FE
S214003F104FF6FF72A368256B8B4288BF13462D04AD
S214003F2005F47C1545F0A865ADF82A3045F4007513
S214003F30E1E74FF480710AA842F0CFFEA06A236B37
S214003F40184446F011F8064610B96FF00805DAE78F
S214003F50A268616809ABD2080AA846F065FB00288B
S214003F6074D104F128030693226BA36A29461344EE
S214003F70CDE90463236A09980393E3690293A3696E
S214003F80019363690093D4E9032346F0A5FE226AF1
S214003F90054620B9236BA16A1344994203D0A26256
S214003FA04FF0FF350AE03146A262606A47F028FC0F
S214003FB0A16A226BE06A314447F022FC09980AF0B5
S214003FC041F9002818BF4FF0FF35304645F0DEFFB8
S214003FD099E74FF400710AA842F07FFE206B304448
S214003FE045F0C2FF06460028AFD0D4E9071247F0D6
S214003FF007FCD4E90B12206A304447F001FCA268A3
S214004000616809ABD2080AA846F00EFBF0B904F1C5
S21400401028030693A36A29460593636A09980493BE
S214004020226B236A1344CDE90263A3690193636993
S2140040300093D4E9032346F0D2FE0028B0D1A36A49
S214004040256A5D1B18BF4FF0FF35B7E74FF0FF3509
S214004050BBE76FF0090556E76FF0050553E76FF00D
S214004060180550E782A30020F0B5684B04461B787D
S2140040709DB0002B00F0C380002800F0C380456888
S214004080002D00F0BF80C368002B00F0BB804369A2
S214004090002B00F0B7800369002B00F0AB8005A86A
S2140040A042F013FE2378032B05D0042B62D06FF06A
S2140040B005001DB0F0BDFF23ADF81630544B05A823
S2140040C008936378012B0BBF47F2421344F2421366
S2140040D04FF480614FF400610CBFADF81430ADF8BA
S2140040E0143042F0FAFD6378012B1ED1484F494E3A
S2140040F03378002B73D02B68049304F118030293D3
S214004100A36939460193636904980093D4E90323AD
S21400411046F0C6FC10B9A369402B1CD03378002BA0
S21400412065D104980AF08EF861E0022B40D129464A
S214004130A26804AB05A846F077FA3549002856D1A0
S214004140A3690498019363690093D4E9032346F0B6
S214004150E6FC0028E5D162782E4B022A1B7801D0B7
S214004160002B4AD104980AF06DF8003818BF0120D9
S21400417040429EE74FF48073ADF81630264B05A8F4
S21400418008936378012B0BBF47F2121344F2121305
S2140041904FF480614FF400610CBFADF81430ADF8F9
S2140041A0143042F09AFD6378012B16D0022B02D011
S2140041B06FF00A007DE704232946A2680DF12D0062
S2140041C08DF82C3047F01CFBA2680BA904AB01321B
S2140041D005A846F029FA1049B0E70F4F87E72946A9
S2140041E0A26804AB05A846F01FFA002885D04FF059
S2140041F0FF305EE76FF009005BE7002059E76FF0DD
S214004200180056E76FF0080053E700BF82A30020AF
S2140042100008000681A300200906000670B5374B8B
S21400422004461B789CB0002B61D0002862D04668FC
S214004230002E5FD0C368002B5CD04369002B59D09A
S21400424005A842F042FD4FF4804105A842F045FD26
S21400425023782B4D012B089529D0022B44D1294BCE
S21400426031460593A26804AB46F0DEF938BBD4E9C4
S214004270031204230DF12D008DF82C3047F0C0FA00
S21400428004F1180223690292A2690133019262695D
S21400429000920BAA2846049946F02AFE0346049884
S2140042A013B9A369202B18D009F0CCFF07E0164BF2
S2140042B031460593A26804AB46F0B6F918B14FF044
S2140042C0FF301CB070BD04F118030293A36901937C
S2140042D063690093D4E90323DCE709F0B3FF0038F1
S2140042E018BF01204042ECE76FF00500E9E76FF0E9
S2140042F01800E6E76FF00800E3E700BF82A300209F
S21400430000000209127100014171FF00F0B5604B18
S21400431004461B789BB0002B00F0B380002800F00A
S214004320B3804368002B00F0AF80C368002B00F01A
S214004330AB8003A842F0C9FC2378013B032B00F2B4
S2140043409D80DFE803F0544B022C524B1B781BB3C6
S2140043500322049B0892DAB222B923F0FF0343F04B
S2140043600103049344F0C8F84FF48061000240F063
S21400437001000490484B03A8039342F0AEFC474B61
S214004380694603A806930AF0FDF9002831D04FF0DD
S214004390FF3528461BB0F0BD40F20141EAE73D4B31
S2140043A01B78C3B10422049B0892DAB222B923F028
S2140043B0FF0343F00103049344F09EF84FF480514A
S2140043C0000240F001000490354B03A8039342F02E
S2140043D084FC344BD4E741F20101F5E7304B44F25C
S2140043E0010103A8039342F078FC2F4BC8E72F4B3C
S2140043F0F5E7284F60683B7803B32378033B012B2F
S2140044001CD80422694647F0FBF926690098402E1E
S21400441002AB2DD1412209A946F0DBF822690546F8
S2140044200DF12501E06847F0EBF902966DB92569B4
S214004430029BED1A18BF4FF0FF3508E00146A26850
S214004440009801AB46F065F868B14FF0FF353B7851
S2140044501BB12378033B012B9BD9009809F0F2FE91
S214004460002896D093E7A268019B9A42EDD1CCE74C
S2140044703246E16846F0ADF80546D7E76FF0050529
S21400448087E76FF0180584E76FF0080581E700BF3F
S21400449082A3002081A300204271FF0000080006CE
S2140044A01271000109060006000002094171FF00B2
S2140044B037B50F4D2B6893F83430B3B902F0D6FEFB
S2140044C0041E18BF0124644200220A4B11460093C2
S2140044D028684FF4222343F02AF8074982B20220C4
S2140044E0FCF740FF204603B030BD0024ECE700BFD9
S2140044F0A4010120FF8F0A00FCAA05002DE9F04761
S214004500002486B0B0F5E04F0E4615461F460394CD
S21400451000F5222A0DD346F6FF7302460093204686
S21400452023462449FCF71EFF6FF0090006B0BDE8DD
S214004530F08732B910462049FCF714FF6FF00800E8
S214004540F4E7DFF8788003AB5146D8F8000002AAFB
S21400455002F0A2FD039B33BB2D2019E0CDF800909E
S21400456023465146D8F8000004AA02F04FFD60B971
S214004570BDF81430B3420ED100972A465146D8F8FB
S214004580000004F1080302F041FD039BA342E3D9B7
S21400459042F045FBCAE7049B08331C44039BA34236
S2140045A003D82D20F1E74FF00809039BA342D5D886
S2140045B00020EAE72EAB050077AB0500A40101203A
S2140045C02DE9F043002487B0B0F5E04F0E461546BF
S2140045D0039400F522270DD346F6FF730246009398
S2140045E0204623461E49FCF7BDFE6FF0090007B0C3
S2140045F0BDE8F08332B910461A49FCF7B3FE6FF0F7
S2140046000800F4E7DFF8608003AB3946D8F800000E
S21400461002AA02F041FD039BF3B92D2042F0FFFAF7
S214004620E5E7CDF8009023463946D8F8000004AAFE
S21400463002F0ECFC28B9BDF81420049BB24204D169
S2140046402B60039BA342E8D9E8E708331C44039B8E
S214004650A342E6D80020F4E74FF00809F7E700BFCA
S2140046609FAB0500ECAB0500A4010120B0F5E04FC0
S21400467007B502460DD20D4B00F52221186802F050
S21400468047FD2D2808BF002003B05DF804EB42F07C
S214004690C6BA46F6FF730093002305491846FCF792
S2140046A061FE6FF0090003B05DF804FBA401012071
S2140046B018AC05002DE9F047002586B0B0F5E04FB0
S2140046C002468946CDE9025500F522270CD346F668
S2140046D0FF732846009334492B46FCF743FE6FF0E1
S2140046E0090006B0BDE8F087DFF8C0803946D8F884
S2140046F0000003AB02AA02F0CFFC044608B12D2846
S21400470045D10121039845F05FFC0546002849D0B5
S21400471000264FF0080A039BB34234D9CDF800A018
S21400472033463946D8F8000004AA02F06FFC044667
S21400473048BBBDF814304B4530D1009603462A4698
S2140047403946D8F8000002F061FC0446D8B9039A4E
S2140047500499083A521A921B009201F10803D8F8FD
S214004760000039463344AA1902F050FC044650B9FA
S214004770039B049A083B9B1A39462A46D8F8000041
S21400478002F0C0FB0446039BB34298BF2D24284684
S21400479045F0FCFB204642F042FAA2E7049B0833B1
S2140047A01E44B8E77024F2E763AC0500A4010120BC
S2140047B02DE9F04F82468B4690461E4687B0002B6A
S2140047C000F0B780302B03D9D2205B4942F0A5F920
S2140047D04AB910465949FCF7C5FD6FF0080528464A
S2140047E007B0BDE8F08F30220021554847F0C2F8E8
S2140047F0334659465046524AFFF780FE0546E0B912
S214004800324641464E4847F08BF80028E7D0002352
S214004810BAF5E04FCDE902330496ADF814B00AF5C8
S21400482022290DD346F6FF72184600924549524695
S214004830FCF798FD6FF00905D1E76FF00705E6E78E
S214004840414F4946386803AB02AA02F025FC2D28E2
S21400485004461AD106F108040121204645F0B4FBAF
S2140048600546002863D0082204A946F0C9FF324650
S214004870414605F1080046F0C3FF23462A4649464E
S214004880386802F03FFB04461FE008BB039B5BB999
S214004890039B0121083303EB060A504645F094FBC0
S2140048A00546D0B9702410E0002DF1D15946504687
S2140048B0FFF700FF044640B94946386803AB02AA32
S2140048C002F0EAFB04460028E2D0284645F05EFBEC
S2140048D0204642F0A4F9054681E7039BF3B9039806
S2140048E0082204A9284446F08BFF03983246083075
S2140048F04146284446F084FF53462A4649463868CF
S21400490002F000FB04460028DFD1386842F05DFE66
S2140049100028DAD0386842F037FEB4E70246494647
S214004920386802F033FB04460028CED1D7E770245F
S214004930CEE76FF00A0552E7AFAC050028AD0500DC
S21400494083A3002050AD0500A401012013B591F803
S21400495034300C46A3B191F835308BB9012281F87A
S2140049603520CDE900330A4A0B4604F11000896B66
S21400497051F012FF20B140F22710064942F0CDF860
S2140049802146236BE06B02B0BDE81040184700BF1D
S2140049904D49000099AD0500034660B159B1C263A8
S2140049A0064A016392E8030083E80300083383E8BD
S2140049B00300002070476FF00A0070472CAE050019
S2140049C0F0B50F4616461D4604468BB018B96FF074
S2140049D00A000BB0F0BD002AF9D042F0A5F9002875
S2140049E0F5D196E8030084E803003DB195E803009E
S2140049F004F1080383E803000123A386002394E858
S214004A0003000022CDE90223CDE904230023012F71
S214004A1008AF0CBF0A26002687E80300CDE9063358
S214004A204DB1D4E902232549B3FBF1F34FF47A7173
S214004A3001FB0233A36306A800F048F8079B38463C
S214004A4003F5BB53103306A9079328F01BFB00B3EE
S214004A50384606A928F08CFB4FF47A72099B089812
S214004A60B3FBF2F10023154D05FB0012CDE904233C
S214004A70DDE90423D903124BD003C01841EA5241A2
S214004A804FF000030D4A41F1000117F045FBCDE958
S214004A900201DDE90201002501462346CDE9006555
S214004AA0084A04F1100053F005FC08B9002090E70E
S214004AB028460549FCF756FCF8E700BF40420F00C1
S214004AC03F420F004D4900000DAE0500F8B5044604
S214004AD018B94F200E4942F020F851F0FDFD074668
S214004AE00E4651F013FE3146054602460023384670
S214004AF017F012FB1F46074E2060A2FB060100239C
S214004B002A4606FB071117F007FB60600020F8BD79
S214004B1034AE050000CA9A3B08B538B146F0C8FE68
S214004B200346054A10681BB942F0C5F9012008BDC6
S214004B3042F0AFF9FAE700BFC4BE050038B546F04C
S214004B40B7FE05460F4C002180B2FCF799FD2146C2
S214004B500220FCF73BFB02200B49FCF737FB214603
S214004B600220FCF733FB2A4602200849FCF72EFBFE
S214004B7021460220FCF72AFB21460220FCF726FBF2
S214004B80012038BDA9AE0500D2AE0500FBAE05007B
S214004B9030B59BB045F068FA02206649FCF716FB74
S214004BA00220654A6549FCF711FB0220644A654904
S214004BB0FCF70CFB4122002109A846F0DBFE412150
S214004BC009A8FCF7DDFD02205F4909AAFCF7FEFAFA
S214004BD00B22002102A846F0CDFE0B2102A8FCF70E
S214004BE0FDFD0220594902AAFCF7F0FA1022002126
S214004BF005A846F0BFFEFBF7EBFD089005A818F0E9
S214004C0069FE044628B3524D024652490020FCF77E
S214004C10DDFA5149286845F028F95049286845F0DA
S214004C2024F9FCF7F9FA41F0D0FA4D4B4D4A0093BF
S214004C304D497623286845F018F94C4A4C492868AF
S214004C4045F013F922464349286845F00EF900BEA0
S214004C50FDE702204749FCF7B9FAFCF7D7F90A2323
S214004C604FF480620093444923464448019454F02C
S214004C7072F80128054625D002462046344C4049A5
S214004C80FCF7A4FA3449206845F0EFF83349206869
S214004C9045F0EBF8FCF7C0FA41F097FA304B314A92
S214004CA0009331498623206845F0DFF8354A3049BD
S214004CB0206845F0DAF82A463149206845F0D5F8EC
S214004CC000BEFDE702203049FCF780FA05234FF4CA
S214004CD0006200932D4923462D48019454F03BF87A
S214004CE001281FD01A4C1C49206845F0BEF81B4905
S214004CF0206845F0BAF8FCF78FFA41F066FA184BD0
S214004D00184A009318499023206845F0AEF81849D1
S214004D101C4A206845F0A9F81E49206845F0A5F809
S214004D2000BEFDE702201C49FCF750FA45F0A9F941
S214004D301BB030BD13AF05002BAF050035AF050027
S214004D404FAF050055AF05007AAF05008CAF0500E4
S214004D50581E00209CAF0500C139060022900500B1
S214004D60FCB00500C6AF05009E90050038B00500F3
S214004D70CB90050053B0050068B00500A14F0000B9
S214004D806DB0050092B00500A3B00500B5B00500F3
S214004D90ED6D0400C1B00500E2B0050073B506462F
S214004DA00C46104D02202946FCF710FA02200E4948
S214004DB0FCF70CFA29460220FCF708FA019623793C
S214004DC000200093A38922680849FCF7FFF92946CA
S214004DD00220FCF7FBF92946022002B0BDE870402D
S214004DE0FCF7F4B9A9AE050005B105002EB1050023
S214004DF037B504460F4D02202946FCF7E7F9022096
S214004E000D49FCF7E3F929460220FCF7DFF9237980
S214004E1002200093A38922680849FCF7D7F929469F
S214004E200220FCF7D3F92946022003B0BDE8304043
S214004E30FCF7CCB9A9AE050061B105008AB1050042
S214004E4008B502200349FCF7C1F9BDE8084044F064
S214004E50BDBF00BFB2B1050030B504460D4689B0EF
S214004E6002201949FCF7B2F902201849FCF7AEF9FE
S214004E7002201549FCF7AAF9B4F91430022006936B
S214004E80B4F9123012490593E37B0493A37B039392
S214004E90237C0293237901936B680093A38922688D
S214004EA0FCF794F96B6823B102202A680949FCF7DD
S214004EB08DF902200449FCF789F9D5E9000109B00B
S214004EC0BDE83040FBF72CBDA9AE0500C7B1050014
S214004ED0F0B105008601060070B51F4C86B0694625
S214004EE0A06847F0B9F9BDF804305BB9029B013BF6
S214004EF0012B09D89DF8003033B9184B03211868E8
S214004F0041F04DFF06B070BD2669012EFAD1237D13
S214004F10134D93B152F0C4FB2B68C01A43F6972387
S214004F209842EFD90D4B0621186841F038FF002350
S214004F30237552F0B5FB2860E4E752F0B1FB2B680E
S214004F40C01A40F2DB539842DCD9044B052118689E
S214004F5041F025FF2675ECE7542000206C20002049
S214004F6050200020014B186841F0B7BFC4BE0500B2
S214004F7007B508220021684646F0FCFC02F002FC59
S214004F8006490246684617F02DFC002269460220B4
S214004F90FCF7CAFB03B05DF804FB00BFD191050027
S214004FA02DE9F04300259D4BA3B00A939C4B9D4CE6
S214004FB00B939D4B02200C939C4B9D490D939D4B50
S214004FC0C4E900550E939C4BA5600F939B4B25732D
S214004FD0059309ABCDE90635109509940495089517
S214004FE0FCF7F4F802209649FCF7F0F80220954901
S214004FF0FCF7ECF894490220FCF7E8F8FBF7ECFB2A
S2140050000890FBF76BFB2A460790012114202575B4
S21400501053F0CFFD8D4F386000BB8D4C8D49206816
S21400502044F023FF8C49206844F01FFFFCF7F4F897
S21400503041F0CBF8894B8A4A00938A4940F295138F
S214005040206844F012FF8849884A206844F00DFF23
S2140050508749206844F009FF00BEFDE70226854B1D
S2140050606060012226734FF47A71009382482B46C3
S21400507053F0BDFE814A1060B0B98149FCF7A6F82E
S21400508000208049FCF7A2F8A068002840F08E8136
S2140050907D490020FCF79AF818F068FC002052F0D2
S2140050A03FFA23B0BDE8F08330467849FCF78EF827
S2140050B0774B012200934FF4FA712B46754853F054
S2140050C096FEDFF81C82C8F8000008B97249D5E7DA
S2140050D030467249FCF77AF8714B0122009364213E
S2140050E02B46704853F083FEDFF8F891C9F80000AD
S2140050F008B96D49C2E76D493046FCF767F8D8F83D
S214005100008052F0CDFA2B4602460121404600951B
S21400511052F078FE61493046FCF758F8D9F800801E
S21400512052F0BEFA2B46024601214046009552F048
S21400513069FE30465E49FCF749F80121386841F0BF
S2140051402EFE049B022B00F0D380A06858B118F006
S21400515011FF3246034610B15649002010E0304693
S2140051605549FCF733F80027022511A904A8119722
S214005170049518F02FFC48B103462A4638464F4996
S214005180FCF724F80023A360049379E72A46284610
S2140051904B49FCF71BF80DF10E020123052111986F
S2140051A08DF80E5019F074F80246D0B1811D04D067
S2140051B044490020FCF70AF8E4E701204249FCF7DE
S2140051C005F804230DF10F028DF80F300921012395
S2140051D0119819F05DF80246C8B1831D08D03B4906
S2140051E0E7E728469DF80E203949FBF7EFFFE8E78A
S2140051F001203849FBF7EAFF11980221A06018F059
S2140052004BFE0222034600286ED03349A5E7022053
S2140052109DF80F203149FBF7D9FFEDE7E36D040059
S214005220594E000054200020F14D00009D4D000016
S2140052306AB20500F1530000414E00000102020070
S2140052407DB2050090B20500A3B205006C200020D8
S214005250581E0020C1390600229005005DB80500E2
S214005260BBB205009E900500CB90050030B305004C
S21400527046B30500714F00005CB3050074200020A3
S2140052806EB305009EB6050053B705009CB3050037
S214005290654F0000C2B30500D0B30500EEB30500AD
S2140052A0D94E000004B4050011B405002EB4050064
S2140052B043B4050058B4050093B40500BBB405001C
S2140052C0F4B405001AB505004BB50500B4B50500E5
S2140052D089B50500E5B505004EB6050023B6050000
S2140052E0782000207020002010463549FBF76EFF1E
S2140052F00223344D344E354F236107234FF0FF32DF
S21400530060680DF10F018DF80F3053F038FA012860
S214005310F3D19DF80F20531E052B42D8DFE803F08B
S2140053201303072F323BA06846F03CFFE5E7237BDC
S214005330012B03D1A068FCF74FF9DEE701202449D2
S214005340FBF744FFD9E702202249FBF73FFF432241
S214005350002111A846F00EFB1F4911A846F041FA9D
S21400536011A846F05AFA11AB53FA80F04121FCF727
S21400537007FA0222432111A8FCF7B6F9BDE7394621
S2140053800220DDE731460220FBF720FF0121A0685E
S21400539046F03DFFB1E729460220FBF717FF002144
S2140053A0F5E700200D49FBF711FFA6E7049946F044
S2140053B0A5FEA06818F0DEFD0023A36068E600BF27
S2140053C07EB605001DB70500FDB60500E5B605006E
S2140053D0B6B60500C9B60500E2B605003EB705003C
S2140053E0024B0421186841F0DABC00BF6C20002094
S2140053F013B503780446032B16D8DFE803F002073C
S2140054000D3D01230B731E49022002E002200873A3
S2140054101C49FBF7DBFE07E0886846F0D1FE1A4918
S21400542002460020FBF7D2FE23790BB9FFF7D8FF20
S21400543002201649FBF7CAFE02201549FBF7C6FEF6
S21400544002201249FBF7C2FE227802201149FBF720
S214005450BDFEA36802200093637922790E49FBF70C
S214005460B5FE02200949FBF7B1FE0220074902B04B
S214005470BDE81040FBF7AABE03230B730749C3E73A
S21400548070B7050086B70500A0B70500A9AE0500F1
S214005490DFB7050008B805002BB80500C1B7050042
S2140054A0022837B5044610D005281DD001280AD199
S2140054B0194B1D6852F0F4F8002302462146284690
S2140054C0009352F09FFC03B030BD002313480093B6
S2140054D01A460321006852F095FC114B186803B079
S2140054E0BDE8304041F0E7BC0E4B0121186841F0A2
S2140054F056FC0A4B00241D6852F0D2F8234602469A
S21400550001212846009452F07DFC0348009423466F
S214005510224603210068D4E774200020782000206B
S214005520C4BE05006C20002008B5034844F00BFC00
S214005530BDE8084046F0CBB8B4BB0500014844F0CF
S21400554002BC00BFB4BB0500BFF34F8F0549064B36
S214005550CA6802F4E0621343CB60BFF34F8F00BF0C
S214005560FDE700BF00ED00E00400FA0540B1054A83
S2140055701378012B04D80370013300201370704792
S21400558001207047B3A300200348044A0449121AB6
S214005590921041F057BC00BF34010000D00200005A
S2140055A09CFF002008B500F02FF8FFF7EDFF124B28
S2140055B012498B4212D30020114B12498B4218D34A
S2140055C0FBF752F8186850F82240586840F8224016
S2140055D0013298688242F5D30C33EAE70022F8E7F6
S2140055E01C6844F8220001325C68A242F8D30833F3
S2140055F0E4E70022F8E700BFFC3A0600083B060096
S214005600083B0600083B060070B5124B124A134DC5
S2140056109A60D3F8882005F5005442F47002C3F867
S21400562088206FF00102226641F2FF726266022253
S214005630C3F8D020BFF34F8FBFF36F8F4FF44036C1
S214005640032007F033F90320E66007F005F92E6122
S21400565070BD00BF00ED00E00000000000800044C8
S214005660014B1860704700BF78010120054B186099
S214005670054B1B6F03F00703032B01D150F0FABA5A
S214005680704700BF8001012000800050002307B54E
S2140056902948019344F057FB4FF44073012204213C
S2140056A06846ADF8003000F0A1F80122234B052033
S2140056B0C3F8442401A952F08EFD002839D1204BAE
S2140056C0D3F8F02042F00102C3F8F020D3F8FC2013
S2140056D042F08072C3F8FC201A4AA3F55D431A60B4
S2140056E0019B194A03F5D52303F2FC43B3FBF2F3FF
S2140056F0164A013B13610223C2F8F0304FF4807360
S214005700C2F804334FF06043114AC3F8B02F114A71
S214005710C3F8802ED3F8002E42F48072C3F8002E11
S214005720FF2283F82020D3F8002E22F48072C3F8DC
S214005730002E03B05DF804FBB4BB050000D0035098
S21400574000ED00E0FF030040F8590D00000004E003
S21400575055CEACC5090001002DE9F04104460C25E4
S2140057604FF00108124E0CB314F001000BD00020CD
S21400577024F0010405FB00625768002FF3D09168FF
S214005780C0B2B847EFE72246013020284FEA52025F
S21400579001D0D307F8D508FA00F20F2824EA02044D
S2140057A0E8D9103805FB0062B432E5E7BDE8F081C1
S2140057B07C20002008B50C4844F0C5FA192007F0F4
S2140057C059F828B1192007F071F8192007F044F8A5
S2140057D01A2007F04FF828B11A2007F067F81A20A9
S2140057E007F03AF8002008BDB4BB05002DE9F041EB
S2140057F00E461746054608B30F2921D80378DBB1B5
S214005800013BDBB2022B1BD80F4AD35C6A78D3402D
S214005810DB0715D50D4BD3F810439CB952F03AFC74
S21400582080463A462846314602F090FF404652F0FF
S2140058302CFC2046BDE8F0817F23E7E72224F8E72A
S2140058402124F6E70224F4E76EB8050000C00350F2
S21400585010B5044600B30378E3B1013BDBB2022B7C
S2140058601CD80F4AD35C6278D340DB0716D552F0BB
S21400587011FC0122617823788A4030214B4341F2A3
S214005880100103F1A04303F570335A5052F0FDFBAC
S214005890002010BD7F23E6E72220FAE72120F8E764
S2140058A06EB8050010B5044600B30378E3B1013BBB
