S02A00006275696C642F64656275672F616D617A6F6E5F7369646577616C6B5F736F635F6F6F622E733337D9
S3150800000000100020E554000805920408059204082B
S315080000100592040805920408059204080592040846
S31508000020059204080592040805920408B1730508A8
S31508000030059204080592040841730508759D05088C
S31508000040059204080592040805920408219E0408EE
S315080000500592040805920408059204080592040806
S3150800006005920408059204080592040805920408F6
S3150800007005920408059204080592040805920408E6
S3150800008005920408059204080592040805920408D6
S3150800009005920408059204080592040805920408C6
S315080000A00592040805920408DD5A0008BD5A00089E
S315080000B005920408059204083D720408ED740408C4
S315080000C0576905085B6905088175040867690508A5
S315080000D05F690508BD74040863690508BD7D0408E1
S315080000E0A57E0408059204080592040805920408EA
S315080000F005920408C9BA040805920408059204087A
S315080001000592040805920408059204080592040855
S315080001100592040805920408059204080592040845
S315080001200592040805920408059204080592040835
S315080001309914000805920408059204080592040813
S3150800014005920408059204080592040821920008FD
S315080001500592040805920408419D05080D510408F6
S3150800016005920408059204086B6805087168050875
S311080001700592040805920408059204088C
S3150800017CF0B5114A114C124E00F00105E3695F0700
S3150800018C13D40DB9334213D103EA00078F4207D1B2
S3150800019C0B4A1A40002A0CBF00206FF00100F0BD74
S315080001AC013AEBD16FF00200F9E74FF0FF30F6E7B2
S315080001BC6FF00100F3E700BF80969800000003502B
S315080001CC0200010070B50B4BD96911F480310DD1C1
S315080001DC01244FF48072084E084DF46020462C64B6
S315080001EC1A61FFF7C5FF3464EC6070BD6FF001004F
S315080001FCFBE700BF0000035000100350002003501B
S3150800020C4FF4803238B50E4B0E4C9A66E56941F6BA
S3150800021C713315400122E3630B4B0021DA6002238C
S3150800022C606121202361FFF7A3FF10B92120FFF796
S3150800023C9FFF0122054BDA600DB10023E36338BD3D
S3150800024C009000500000035000100350002003508B
S3150800025C70B5134C6061E3695B071ED40E4656F8FD
S3150800026C043B8D18A361AE420BD104230021212037
S3150800027C2361FFF77DFF58B9BDE870402120FFF7D1
S3150800028C77BF08210846FFF773FF10B104232361D3
S3150800029C70BD56F8043BA361E5E74FF0FF30F7E76E
S315080002AC000003502DE9F84315464FF48032184BDD
S315080002BC89469A6603F51C33DF690646174041F6EC
S315080002CC7132DA63012203F58053DFF84C80DA6069
S315080002DC55B9284601220F4BDA601FB10022A3F547
S315080002EC0053DA63BDE8F88306F5005404EA0804FB
S315080002FCA41BAC4228BF2C46494622463046FFF77B
S3150800030CA7FF0028E6D12644A1442D1BE0E700BF31
S3110800031C009000500020035000E0FFFF96
S3150800033010B51D4C0020214659F00DFC18B1462079
S315080003401A4948F00BFC2368194AB3FBF2F32360F9
S3150800035020681CF0FFFA10A3D3E900231CF08EF8DE
S315080003600FA3D3E900231CF0B9F91CF06DFB114B60
S31508000370114A1860D2F8FC3043F08073C2F8FC309A
S315080003804FF060430D4AC3F8B02F0D4A136843F087
S315080003900103136010BD00BFEC51B81E85EBE93FA1
S315080003A0F6285C8FC2F51C4000200020D2C705083D
S315080003B040420F00FC1F002000ED00E055CEACC502
S315080003C0001000E000000000F7B502F0A5FF0446A3
S315080003D0E8B9234B234F93F90010234B234A53F8CC
S315080003E0211038683EF066F81BA3D3E90023CDE94F
S315080003F0002338684FF0FF324FF0FF3355F099FC71
S31508000400054648B102462046194900F0F7FF6FF045
S315080004100504204603B0F0BD02464FF48073154923
S31508000420386855F0DEFD18B9134900F0E7FFEEE726
S315080004303EF0D4FD064618B1024610492846E4E7C0
S315080004400121386855F016FB02460028E1D03046EF
S315080004500B49DAE7AFF300802805015500020000D2
S315080004608A7600204C21002084F4002051340008AC
S31508000470ADCB05084C200020C8CB0508E2CB050803
S3150800048002CC05080000000070B54B4B90B004463E
S315080004900D461B680F934FF000034FF044FB0028EE
S315080004A048D01422002108A84DF0FCF8D4E9070129
S315080004B04FF6FF73ADF822300DAB83E803008DF8D5
S315080004C021502AF06FF80026A0630490694601209F
S315080004D002AACDE90566CDE90066CDE9026607966A
S315080004E01EF0B8FC054670B30596ADF8186043F6DD
S315080004F0FF7303208DF81C0004A908A8ADF81A306C
S315080005002DF016FE10B9012384F84030636B5A1C8F
S315080005104FF6FF7218BF01336363B4F8583093423D
S315080005201CBF01339BB2A4F8583094F83D30013310
S3150800053084F83D30204B1A680F9B5A404FF0000351
S3150800054032D047F013FD009B01990593C80318A301
S31508000550D3E90023490C1CF097FA15A3D3E9002325
S315080005600399ADF81800C803490C1CF08DFA029BD4
S3150800057000EBC333B3F5804F0DD3104A93420DD920
S315080005800F4A93420DD90F4A9342B0D803200D2241
S31508000590D3409BB2AEE728462A46F9E70120052252
S315080005A0F6E702200A22F3E710B070BDAFF3008029
S315080005B000CA9A3B00000000B8750020E0FF07005B
S315080005C000FCFF0000E0FF07002370B5404C05461D
S315080005D08AB0E36318B1008823603CF0F1F83D481F
S315080005E055F0E4FA3C4E3D4B304633603C4B736065
S315080005F037F088FB002130463DF016F932A3D3E9DF
S315080006000023A062C4E9062354F096FDD4E9062324
S3150800061019431043C4E90601CDE900014FF0FF3341
S315080006204FF0FF32A06A55F084FB02224FF0FF31EB
S31508000630A06A55F098FB01203BF042FE4FF4007388
S3150800064000222849A06A55F0CCFCB0F5007F39D1C4
S3150800065000239422079309933C23CDE9033205939B
S31508000660962306935023A06A03A908933DF094FDA8
S3150800067035B3287C3CF056FB0546F0B9A06A55F020
S3150800068071FD3CF0FDFA3BF0FDFD20B14FF48070A2
S31508000690002139F0A7FD3BF005FE20B14FF40060BC
S315080006A0002139F09FFD54F014FE012055F007F99A
S315080006B00D4A0E49A06A54F033FD28460AB070BDAB
S315080006C0FF20D7E70725F8E70DD5015520000000DC
S315080006D0D8180020690345ECA8700020F9C0030863
S315080006E0B8700020A86E0020C950050809510508F1
S315080006F00348044B834202D0034B03B118477047A3
S31508000700981401209814012000000000064B0749A0
S31508000710C91A891048BF0131491003D0044B0BB1DF
S3150800072001481847704700BF981401209814012003
S315080007300000000010B5064C237843B9FFF7D8FF30
S31508000740044B13B10448AFF300800123237010BD96
S315080007507676002000000000E079060808B5054B0B
S315080007601BB105490548AFF30080BDE80840FFF70F
S31508000770CDBF00BF00000000801E0020E0790608FB
S31508000780A3F5803A704700BF174B002B08BF134BE1
S315080007909D46FFF7F5FF00218B460F461348144A7E
S315080007A0121A4CF07FFF0E4B002B00D098470D4BCA
S315080007B0002B00D098470020002104000D000D48AA
S315080007C0002802D00C48AFF300801CF0FFFA200086
S315080007D0290048F0FEFC1CF0E7FA00BF00000800FC
S315080007E0000000000000000000100020001000209B
S315080007F0B8F2002000000000000000000048704722
S3150800080088A805080048704730A9050800487047B9
S3150800081074F400200B4B02461B7883B10A4B1B78F5
S31508000820834234BF00200120084B1B7833B1084BA4
S315080008301B78134113F0010F08BF002070470120F1
S31508000840F2E700BF7AFE002079FE002077760020C6
S3150800085078FE0020094B10B519680023084A99420A
S3150800086001D1212007E052F8044B2468844203D1C1
S31508000870044B1860002010BD0133F0E75CE2050860
S3150800088048F50020981E0020014B1868704700BFE5
S31508000890981E0020012208B5074B1A700022074B44
S315080008A01A700422064B1A701F22064B1A700CF097
S315080008B0C7FC054B186008BD7AFE00207776002035
S315080008C079FE002078FE0020981E002008B5002238
S315080008D0FF21052059F07BFE014B186008BD00BFBB
S315080008E09C1E00202DE9F041C0B0FF220021684679
S315080008F04CF0D8FE154B00226946186859F04DFC95
S3150800090001281BD10025124E56F83570684639461F
S315080009104CF06AFE06EBC508044690B1D8F80460A8
S315080009204EB138464CF011FE044420464CF00DFEFC
S3150800093001462046B047E8B204F052FD40B0BDE893
S31508000940F0810135062DDFD1F8E700BF9C1E002097
S315080009502CE2050830B50D460446C1B0FF22002139
S3150800096068464CF09FFEFE2D2A46214628BFFE22E9
S3150800097068464CF0DDFD002305481A4669460068BE
S3150800098059F01BFB431E5842584141B030BD00BFC9
S315080009909C1E00202DE9FF4100221D4D1D4F00958C
S315080009A011461D4B386848F0F1FF042106464BF006
S315080009B08BF9044638B9194A194900F01FFD204633
S315080009C004B0BDE8F0814FF00008009501463246B4
S315080009D0114B386848F0DAFF4546B04506D120463F
S315080009E04BF054F9AB1E58425841E9E703AB54F8AB
S315080009F02810386802AA06F065FA029B184304D143
S31508000A00039B802B04BF0135EDB208F10108E4E72A
S31508000A10FF70080008F50020003108003BB1050802
S31508000A2066A9050807B5042226200DEB020102F087
S31508000A30B3FE042205490DEB02004CF009FEB0FA9C
S31508000A4080F0400903B05DF804FB00BF80B30508D9
S31508000A509307F7B506460D46144621D02A4D2B496D
S31508000A6028684BF082F82A4928684BF07EF800F08F
S31508000A701FFC48F06FF8274B274A00932749DF23C6
S31508000A8028684BF072F8264A264928684BF06DF814
S31508000A9023463246244928684BF067F800BEFDE72E
S31508000AA007F0B8FFB0002246294600F17E6059F0EB
S31508000AB0E3FE074610B3144D144928684BF055F861
S31508000AC0134928684BF051F800F0F2FB48F042F859
S31508000AD0104B114A00931149E32328684BF045F857
S31508000AE0124A104928684BF040F8009723463246C8
S31508000AF00F4928684BF039F800BEFDE703B0BDE89A
S31508000B00F04007F097BF00BF981E0020AC78060893
S31508000B108EA905080CB1050893A905080AAA0508AF
S31508000B2016AA050837AA05084FAA0508A0AA05089F
S31508000B30B3AA05082DE9F0430220C7B0754900F0AD
S31508000B405DFC754B754802934AF0B5FF064600B33F
S31508000B50734C744920684BF008F8734920684BF0C9
S31508000B6004F800F0A5FB47F0F5FF704B704A0093B8
S31508000B707049CB2320684AF0F8FF6F4A6F4920680E
S31508000B804AF0F3FF32466E4920684AF0EEFF00BE8F
S31508000B90FDE74FF07E6059F073FE054600B3604CE2
S31508000BA0604920684AF0E1FF5F4920684AF0DDFFA6
S31508000BB000F07EFB47F0CEFF5C4B5D4A00935D4933
S31508000BC0CD2320684AF0D1FF5E4A5C4920684AF086
S31508000BD0CCFF2A465C4920684AF0C7FF00BEFDE7FD
S31508000BE002205A4900F00AFC0124594FDFF8849183
S31508000BF0B96801BB4FF4807206A84CF053FD3D79E5
S31508000C00D7F800802A4606A91FFA88F002F0C4FD24
S31508000C10AA071CBF25F00305043520462A4606A95F
S31508000C20FFF716FF2346424649460220009500F084
S31508000C30E5FB04EB95040336752E07F10C07D7D1AF
S31508000C404449454EB14205910CD902A90422002017
S31508000C50FFF7FEFE02204149A20000F0CFFB47B095
S31508000C60BDE8F0833E4D04AB286803AA06F02AF9CE
S31508000C70039901434AD1049B802B47D14FF48072D4
S31508000C8006A84CF00FFD049B0599286806AA06F0ED
S31508000C9093F808B3224C234920684AF066FF224994
S31508000CA020684AF062FF00F003FB47F053FF2D4B24
S31508000CB01F4A00931F494FF4E47320684AF055FF12
S31508000CC0294A1E4920684AF050FF059A2749206894
S31508000CD04AF04BFF00BEFDE7049D2046AB071CBF4C
S31508000CE025F0030504350134042205A9FFF7B0FEF3
S31508000CF020462A4606A9FFF7ABFE23460220059A98
S31508000D001B49009500F07AFB04EB9504059901311F
S31508000D1098E700BFF7AA0508BEBAFECA4CDF050861
S31508000D20981E0020AC7806088EA905081CB105088F
S31508000D3093A905080AAA050812AB050837AA0508E3
S31508000D4025AB0508A0AA050852AB05087EAB050821
S31508000D50A8B1050800310800FE7008008AAC05082D
S31508000D6008F500202CB10508EAAB0508FEAB050816
S31508000D703BAC05089BAB050873B5144612F0030295
S31508000D80054607D18500D3B29C4202F1010223D859
S31508000D9002B070BD134E144930684AF0E6FE134996
S31508000DA030684AF0E2FE00F083FA47F0D3FE104BB3
S31508000DB0104A00931049F52330684AF0D6FE0F4AC8
S31508000DC00F4930684AF0D1FE23462A460D49306855
S31508000DD04AF0CBFE00BEFDE7E81800F17E60007819
S31508000DE0C854D0E7981E0020AC7806088EA90508D6
S31508000DF067B1050893A905080AAA050816AA0508E9
S31508000E0037AA0508CBAC05082DE9F04FDFF890A204
S31508000E1002208F49C7B000F0F1FADAF8000048F06E
S31508000E20C7FD064608B38B4C8B4920684AF09DFEE1
S31508000E308A4920684AF099FE00F03AFA47F08AFE95
S31508000E40874B884A009388494FF4F87320684AF01C
S31508000E508CFE864A864920684AF087FE32468549CE
S31508000E6020684AF082FE00BEFDE70220824900F0B3
S31508000E70C5FA0125B346814FB96800294CD14FF40C
S31508000E80807206A84CF00EFC97F80480284618F0E5
S31508000E90030F0EBFC14628F0030909F104094A46A3
S31508000EA006A9FFF769FF3B684246039306A9BDF802
S31508000EB00C0002F027FC43460446039A02207049B8
S31508000EC000F09CFA05EB9905002C39D0614D624972
S31508000ED028684AF04AFE614928684AF046FE00F04A
S31508000EE0E7F947F037FE5E4B5E4A00935E4940F2EB
S31508000EF0092328684AF039FE624A5D4928684AF09B
S31508000F0034FE0C2272435D4923468A5828685E4996
S31508000F104AF02BFE00BEFDE797F80480D7F800904C
S31508000F2042461FFA89F002F0EDFB434604464A465C
S31508000F3002205649D84400F061FA1FFA88FBC3E735
S31508000F400136272E07F10C0796D105F1420804222F
S31508000F50284605A90594FFF70FFF4FF48072002174
S31508000F6006A84CF09FFB802206A9681CFFF704FF21
S31508000F70059E80233146DAF8000006AA05F0D8FE59
S31508000F80074618B3334C344920684AF0EEFD334916
S31508000F9020684AF0EAFD00F08BF947F0DBFD304B9C
S31508000FA0304A0093304940F2152320684AF0DDFDA7
S31508000FB02E4A2F4920684AF0D8FD009780233246EA
S31508000FC0334920684AF0D1FD00BEFDE7DAF8000093
S31508000FD048F02AFD48B3DAF8000048F004FD074651
S31508000FE018B31C4C1C4920684AF0BFFD1B492068F1
S31508000FF04AF0BBFD00F05CF947F0ACFD184B194A06
S31508001000009319494FF4067320684AF0AEFD174A53
S31508001010174920684AF0A9FD0097802332461D49E2
S3150800102020684AF0A2FD00BEFDE780233246022072
S315080010301949213500F0E2F9A84588D10220174957
S315080010400BEB880200F0DAF947B0BDE8F08F00BF75
S315080010501BAD0508981E0020AC7806088EA9050861
S31508001060E8B0050893A905080AAA0508EAAB050821
S3150800107037AA050837AD05086FAD0508A8B10508F4
S3150800108094AD05082AAE050833AE0508DFAD050898
S315080010906DAE0508B1AE0508FFAE050849AF0508EF
S315080010A008F5002010B5002486B0CDE9034403AB4B
S315080010B0059493E8070002F0E5FA2046042202A9FF
S315080010C0FFF75AFE514C029BA34228D002205049F2
S315080010D000F094F9FFF75EFC002855D14D4C4E49B7
S315080010E020684AF042FD4D4920684AF03EFD00F06E
S315080010F0DFF847F02FFD4A4B4A4A00934A4940F227
S315080011007D1320684AF031FD4849494A20684AF06B
S315080011102CFD484920684AF028FD00BEFDE702205C
S31508001120454900F06BF9FFF77DFC002857D10220EE
S31508001130424900F063F90422002002A9FFF71CFEC9
S31508001140029BA3425BD0334C334920684AF00DFD1D
S31508001150324920684AF009FD00F0AAF847F0FAFC7F
S31508001160374B304A009330494FF4C87320684AF029
S31508001170FCFC2E49334A20684AF0F7FC32492068BD
S315080011804AF0F3FC00BEFDE7FFF74CFC00BB214C20
S31508001190214920684AF0E9FC204920684AF0E5FC24
S315080011A000F086F847F0D6FC1D4B1E4A00931E49F0
S315080011B04FF4C07320684AF0D8FC1C491C4A2068C2
S315080011C04AF0D3FC214920684AF0CFFC00BEFDE76F
S315080011D002201F4900F012F9FFF7ACFCA3E7FFF75E
S315080011E0D9FB0028A3D002201A4900F007F90220EB
S315080011F0194A1A4906B0BDE8104000F0FFB80220A7
S31508001200174900F0FBF8FFF7FFFDF0E7BEBAFECA84
S3150800121093AF0508981E0020AC7806088EA9050825
S3150800122054B1050893A905080AAA050837AA0508A6
S31508001230CBAF0508D7AF0508ADAF05084DB0050813
S31508001240F8B0050887B0050898B00508FEAF050888
S3150800125031B0050868B0050876B10508D6B00508A6
S31508001260B9B005080EB417B504460A480EF03EFC98
S3150800127050B100F011F8002000F014F806AA204634
S315080012800599019200F082F803B0BDE8104003B05A
S31508001290704700BF00B70508014B1860704700BFCC
S315080012A0A41E0020014B1860704700BFA01E002036
S315080012B0002213B50B4B694610461C68CDE900227F
S315080012C01DF0C8FD019A084B4FF47A71B2FBF3F290
S315080012D02046009B01FB0322044902B0BDE81040EA
S315080012E04AF043BC981E002040420F0004B7050888
S315080012F038B50C4603283BD8DFE800F00219242F3E
S315080013000120FFF787FA98B3FFF7D2FF194D47F088
S3150800131021FC194928684AF028FC214628684AF021
S3150800132024FC28681549BDE838404AF01EBC02204E
S31508001330FFF770FAE0B1FFF7BBFF0E4D47F00AFC66
S315080013400F49E7E70320FFF765FA88B1FFF7B0FF13
S31508001350084D47F0FFFB0B49DCE70420FFF75AFA74
S3150800136030B1FFF7A5FF034D47F0F4FB0649D1E777
S3150800137038BD00BF981E00200DB70508AC780608D2
S3150800138012B7050817B705081CB7050870B50D4646
S315080013901646174BC0B004461868FFF75BFA154B9C
S315080013A018780EF061FB2A4633464FF4807168467A
S315080013B01BF03AFDFFF768FA05460F480EF096FB54
S315080013C0854210D1EFF311854FF0200181F3118882
S315080013D069462046FFF78CFF85F3118800200EF03A
S315080013E043FB40B070BD69462046FFF781FFF5E72D
S315080013F0A41E0020A01E002000B705080EB417B5CD
S3150800140004460A480EF072FB50B1FFF745FF02206A
S31508001410FFF748FF06AA204605990192FFF7B6FF8F
S3150800142003B0BDE8104003B0704700BF00B7050819
S315080014300CB413B504460C480EF058FB70B1FFF710
S315080014402BFF0120FFF72EFF631E022B05AA94BF70
S315080014502046002004990192FFF798FF02B0BDE8E4
S31508001460104002B0704700BF00B7050808B5074B23
S315080014701968074B186805F091FB28B1BDE80840C4
S3150800148001200449FFF7BABF08BD00BFE8F40020F1
S3150800149008F5002021B70508024B1B6803B1184759
S315080014A0704700BFA81E002010B50A4C23787BB9E8
S315080014B03C200BF08DFE05213C204AF009FB3C2020
S315080014C00BF05CFE02200449FFF798FF0123237006
S315080014D0002010BD787600203BB7050810B50446F5
S315080014E088B10A4B1B784BB1094B3C201C600BF0AA
S315080014F06FFE3C200BF042FE002010BDFFF7D4FF24
S315080015000028F1D0F9E76FF00800F6E778760020B2
S31508001510A81E002008B53C200BF05AFE3C200BF014
S315080015201BFE0020014B186008BD00BFA81E002046
S3150800153008B5074B1B783BB1064B1B6823B13C200B
S315080015400BF038FE002008BD6FF02700FBE700BF50
S3150800155078760020A81E002010B5044C23781BB10D
S31508001560FFF7D8FF00232370002010BD78760020EF
S3150800157030B50D4689B0044622490220FFF772FEAF
S3150800158002202149FFF76EFE02201E49FFF76AFE78
S315080015902A461E4D02201E49FFF764FE2A460220EF
S315080015A01C49FFF75FFE02201649FFF75BFE154947
S315080015B00220FFF757FE284600954BF0C6FF182273
S315080015C00021019002A84CF06DF86FF00043022547
S315080015D00293012302AA694620468DF80C5004930B
S315080015E01DF0F8F9024638B100200B49FFF73AFE1C
S315080015F0BDF8140009B030BD2846BDF814200749C7
S31508001600F4E700BF42D2050856B70508AC1E00200D
S3150800161076B7050887B7050892B70508AAB7050873
S3150800162038B50024064D00224FF48671052058F07F
S31508001630CEFF0134E4B2032C45F8040BF3D138BDD0
S31508001640B81F00202DE9F04106460224204D214FFF
S3150800165000221F4957F8240058F09FFD012833D16E
S3150800166057F0ECFCD5F8083123BB1B490220FFF7DD
S31508001670F9FD1A490220FFF7F5FD2246022018490E
S31508001680FFF7F0FD02201449FFF7ECFDB5F800114D
S315080016903046FFF76DFFA5F8040157F0CFFCC5F8F3
S315080016A0080157F824000123BDE8F0410022084943
S315080016B058F083BC0B4AC31A9342F2D90649022052
S315080016C0FFF7D0FD0849D5E7013CC1D2BDE8F08156
S315080016D0AC1E0020B81F002042D20508C1B7050875
S315080016E0E1B705088F5F010001B805082DE9F0414B
S315080016F0174E07460D460024B046C4B0002256F8D9
S31508001700040B01A958F0DEFC01281DD1BDF80831EB
S31508001710BB4219D1642258F8240001A925B958F00A
S315080017203CFD44B0BDE8F08158F037FD012803467A
S31508001730F7D1002258F82400439201A964228DF8B3
S315080017400A5158F03AFCECE70134032CD6D1E8E705
S31508001750B81F002070B50646C4B00D4614460021D1
S315080017604FF4867201A84BF09DFF314601A84BF055
S315080017709DFE002306481A4650F8240001A9439303
S31508001780419558F01AFC431E5842584144B070BD62
S31508001790B81F002070B5042805460C46164690B0BA
S315080017A017D8B1B14022002168464BF07BFF0A4B9F
S315080017B0684653F825104BF0ACFE214668464BF0B8
S315080017C0A8FE68464BF0C1FE324601466846FFF75A
S315080017D0C1FF10B070BD00BF54B805080122002132
S315080017E001484BF05FBF00BF79760020F0B50A4686
S315080017F0044691B018B3402921D900214BF052FF75
S31508001800202200210DEB02004BF04CFF20226946F6
S31508001810042001F0C1FF202268460DEB02014BF0BF
S3150800182017FF60B16D46074F04F14006204639465A
S3150800183015F8012B02341BF05DFCB442F6D111B049
S31508001840F0BD00BF68B80508F0B50A46044685B07D
S3150800185040B30A2926D900214BF024FF052200218E
S3150800186002A84BF01FFF684601F0CAFFD0B905234E
S315080018706A462B214FF4005002F0A8FD90B90522C4
S31508001880684602A94BF0E4FE60B16D46064F04F1C6
S315080018900A062046394615F8012B02341BF02AFCA5
S315080018A0B442F6D105B0F0BD68B8050810B50A46C9
S315080018B0044610B3FF2920D100214BF0F3FE204641
S315080018C00E494BF026FE20460D494BF022FE2046D7
S315080018D00C494BF01EFE20460B494BF01AFE2046DB
S315080018E00A494BF016FE204609494BF012FE2046DF
S315080018F0BDE8104007494BF00CBE10BD6DB8050891
S3150800190076B8050885B8050891B80508A5B8050884
S31508001910BFB80508CEB8050803460A46002001499F
S31508001920FFF76CBD75BE050878B1036883B14368D7
S3150800193073B1836863B1C36853B1036943B143693B
S3150800194033B1054B5860002070476FF008007047A8
S315080019506FF00A00704700BFDC1F00202DE9F04138
S31508001960164607460D4B0E4C0D1E0E4A4FF002004A
S3150800197008BF1A460C49FFF741FD314604F10E002F
S315080019800622A781A5724BF0D3FD6368A07A04F1FD
S315080019900E019B68BDE8F041184700BF8FBE0508D9
S315080019A0DC1F0020AD78060893BE05082DE9F04136
S315080019B04FF00008194C1A4F3B685FFA88F593F800
S315080019C026302068AB4206D818B14AF05FF90023E2
S315080019D02360BDE8F08150B10C266E433044806820
S315080019E028B14AF053F90022236833449A602368E1
S315080019F053B10C266E433344586828B14AF046F969
S31508001A000022236833445A6022681AB10C23002145
S31508001A106B43D15208F10108CEE700BFD81F00205A
S31508001A20DC1F002010B5084C2078FF2803D012F0E0
S31508001A3063F8FF232370FFF7B9FF12F06BFA002053
S31508001A40024B187010BD00BF7BFE00208376002075
S31508001A502DE9F0472C4D0746A87A0B4630B92B4995
S31508001A60FFF7CCFC6FF01700BDE8F08771B16AB1DB
S31508001A70298991420AD300244FF01808286890F85B
S31508001A8026E0E1B28E4508D8214900E02149002028
S31508001A90FFF7B4FC6FF00A00E6E7866A6101715C3D
S31508001AA006EB441CB94205D100269CF81290F1B207
S31508001AB0894501D80134E4E7DCF8141006F1010A77
S31508001AC008FB0611C97CB9B10C201349096800FB4B
S31508001AD004114968287B31F816100FF0D3FA04462A
S31508001AE060B16B680020DB68984700200B49FFF758
S31508001AF085FC4FF0FF30B7E75646D8E76B680120FC
S31508001B00DB6898472046AFE7DC1F0020B2BE050811
S31508001B100ABF0508CDBE0508D81F0020E8BE05087F
S31508001B2008B5054B0146187B12F022F8003818BF95
S31508001B300120404208BD00BFDC1F002010B50D4C37
S31508001B402378FF2B0AD1204611F012FF30B10A493B
S31508001B500020FFF753FC4FF0FF3010BD022120781C
S31508001B6011F0F2FF08B10549F2E70122044B1A7099
S31508001B70F3E700BF7BFE002036BF05085FBF0508F8
S31508001B80817600202DE9F04F99B002AF0C467860B7
S31508001B90C0B1B9B1AF4E33898B4213D333689A7942
S31508001BA082B15A7A72B19A7A62B1002293F8260003
S31508001BB0D1B2884210D80020A749FFF71FFC6FF062
S31508001BC00B0005E00020A549FFF718FC6FF00A0096
S31508001BD05C37BD46BDE8F08F996A5501495D1D7AA7
S31508001BE001328D42E4D19E4D2B78FF2B0AD128462F
S31508001BF011F0BEFE30B19B490020FFF7FFFB4FF006
S31508001C00FF30E5E73368DB79032B25D8DFE803F0F7
S31508001C102602302D4FF00308934BB8F1010F1868D0
S31508001C209B8807F1180AB861BB83B863BB873ED1A6
S31508001C30DFF8689299F800B0BBF1000F26D10621AB
S31508001C408A4B084607F11402C7F814B012F0CEF909
S31508001C50864B80B18649CFE78649CDE7287811F0CB
S31508001C6027FF00283BD08449C6E74FF00208D3E790
S31508001C704FF00108D0E77A69052A01D87F49BCE701
S31508001C805A7989F8008062F03F025A710622504656
S31508001C9076494BF04DFC07F1380328780093414606
S31508001CA09AE80C0011F0D6FEC8B17549A4E7B8F158
S31508001CB0030FF0D106214FF0000B5346084607F1F3
S31508001CC01402C7F814B012F091F90028C2D17B6942
S31508001CD0052BD3D97B7F03F03F037B77DBE74FF0F8
S31508001CE00008684B28785A681B891146CDF8008089
S31508001CF011F056FE08B164497EE70721287811F0ED
S31508001D0071FE08B1614977E7B8826421287807F13E
S31508001D10140211F07BFE08B15D496DE701461F22EA
S31508001D20386007F118004BF0BDFC0622FA734FF431
S31508001D30817207F10F013A8307F11A0001224BF06D
S31508001D40F7FB0322FA763A77326804F1020A926AB6
S31508001D505FFA8AFA528807F1100152BA3A8207F1F5
S31508001D601D0002224BF0E4FB0AF1070202F4FC72A2
S31508001D703B68E846ADEB020D0DF1080B19465246D5
S31508001D8058464BF08FFC71238DF808300123224604
S31508001D9079688DF809300DF10A004BF0C9FBBAF1E4
S31508001DA0000F1ED0FF2352465946033407F121007F
S31508001DB0FC7787F820304BF0BBFBCAF116020021EE
S31508001DC0287807F11803C2F11F0211F0A7FE014691
S31508001DD048B130490020FFF711FB4FF0FF30C546E8
S31508001DE0F6E61822EBE71F2207F138004BF05AFCFB
S31508001DF03368186860B91F220121287807F138036B
S31508001E00C2F11F0211F08AFE0028E8D02249E1E754
S31508001E104BF09BFB0028EED0336818684BF095FB17
S31508001E203368044618684BF090FB0923013087F89D
S31508001E303930336887F838001E6830464BF085FB22
S31508001E403146024607F13A004BF072FBC4F11D0217
S31508001E50D2E700BFDC1F002020C1050883BF0508A4
S31508001E607BFE002036BF05084EC705087B76002096
S31508001E70F0BF0508ADBF0508CBBF050810C00508AB
S31508001E8037C00508C41F00206CC0050892C00508A5
S31508001E90B2C00508D2C00508F9C005087A76002040
S31508001EA02DE9F04FAC4E99B0336893F8263033B924
S31508001EB0FFF77CFD6FF00A0019B0BDE8F08F00232C
S31508001EC09846ADF848300C9333689DF8304093F83F
S31508001ED02630A3420CD800254FF00C089F4F3368D4
S31508001EE0ECB293F82630A34200F21A820020E3E708
S31508001EF012A811F06BFE002840F094803368670141
S31508001F009B6A03EB44135B78022B47D0032B62D002
S31508001F10012B7DD10DF150090222014648464BF0AE
S31508001F20C1FB0C2233689B6A3B445B885BBAADF8FD
S31508001F3050308A4B1B6802FB0433CDE90093022319
S31508001F400022BDF84800114611F058FE0546002843
S31508001F506ED1BDF8480011F07DFF0B90002840F0C7
S31508001F60B7800C234FF0180B5C43DFF8F091336809
S31508001F705FFA85FA9B6A3B449B7C53455ED8DFF83B
S31508001F80DCA133689DF82CB09B6A3B441B7E5B45FD
S31508001F9000F2F4800C9B01330C9395E70DF1500980
S31508001FA00422014648464BF07DFB33689B6A3B4456
S31508001FB09A8852BAADF85020DA788DF852200C2259
S31508001FC09B788DF85330654B1B6802FB0433CDE9CB
S31508001FD000930423B4E70DF1500901461022484640
S31508001FE04BF060FB494633689B6A3B4403F1120297
S31508001FF0023312F8010D934201F8010BF9D10C22B4
S31508002000564B1B6802FB0433CDE90093102397E770
S31508002010FFF7CCFCBDF84810514846F0BEFD4FF01E
S31508002020FF3049E7FFF7C2FCBDF848104D48F4E712
S31508002030FFF7BCFCBDF848104B48EEE712A811F0B4
S31508002040C5FD002840F0818033680BFB0AF19B6AC6
S315080020503B445869431893F813C05A7C4FEA0C1C42
S315080020600AB14CF0020C9A7C0AB14CF0080C1A7DA5
S315080020700AB14CF0040C405C012830D199786246CC
S315080020808DF850105B788DF85130D9F8003003EB95
S31508002090040E195BDEF80430009003EB4A03CDE921
S315080020A0058303230293BDF85030CDE90388ADF8C4
S315080020B00430BDF84800002311F0CAFD00283ED1BF
S315080020C0BDF8480011F0C6FE013500283FF44FAFB1
S315080020D0FFF76CFC25490020FFF790F99FE70328D6
S315080020E027D114A903F1100013F801EF834201F870
S315080020F001EBF9D1D9F800300DF1040E19191B5B63
S315080021000D934B68CDE9068803EB4A03CDE90883AE
S315080021100323059318AB13E90F008EE80F0001237C
S31508002120624600930D990023BDF8480011F0CAFDD8
S31508002130C4E7FFF73BFCBDF848100D486DE7FFF70D
S3150800214035FCBDF848100B4867E7FFF72FFCBDF8CC
S315080021504810094861E700BFDC1F0020D81F00208F
S315080021603EC1050861C10508EEC105089EC10508FE
S3150800217021C205084BC2050880C2050812A811F03D
S3150800218025FD002840F0C6804FF42053ADF83C30BA
S3150800219042F60103ADF8403042F60303ADF84A00B3
S315080021A0ADF84C00DAF80000ADF8443002210DF124
S315080021B04A030FAA005B0EF02FFFDAF8000013ABF4
S315080021C00221005B10AA0EF027FFBDF84A50BDF8A1
S315080021D04C309D4228BF1D46F5B14FF6FF73013DB1
S315080021E0ADB2002D08BF1D464FF00009DAF80030E1
S315080021F0185B02210DF14E0311AAADF84E900EF0B0
S315080022000BFF60B9BDF84E304BB1AB4207D801336E
S315080022101FFA83F94846ECE74FF6FF75E4E7B9F18C
S31508002220000F05D1FFF7C2FBBDF848104F48F4E68A
S315080022301421336801FB0BF19B6A3B44D8694318A8
S315080022405A7C9D7C6ABB75BB425C012A30D19A7860
S3150800225049468DF850205B7803228DF85130DAF81C
S315080022600030BDF8480023449B68019203EB4B03FA
S3150800227005930023BDF85020CDE90333ADF80020BF
S3150800228002932A4611F05EFD00283DD1BDF84800AC
S3150800229011F0E0FD0B9B01330B9300283FF471AE60
S315080022A016E71DB1012242F00205CDE70125CBE76D
S315080022B0032A23D114A8024603F1100111F801C913
S315080022C08B4200F801CBF9D1DAF800304FF0000C58
S315080022D023449B68CDE906CC03EB4B030893032301
S315080022E0CDF814C004930FCA8DE80F0063462A463A
S315080022F04946BDF8480011F05BFDC5E7FFF756FBF8
S31508002300BDF848101A4888E6FFF750FBBDF8481094
S31508002310184882E6FFF74AFBBDF8481016487CE6DF
S3150800232012A811F053FCD0B908FB04F43B68BDF8B9
S315080023304800195B11F07AFD58B9BDF8480011F04C
S3150800234089FD013500283FF4CAADFFF72FFB0B497D
S31508002350C1E6FFF72BFBBDF8481009485DE6FFF715
S3150800236025FBBDF84810074857E600BFC4C2050854
S31508002370EAC2050810C3050848C3050888C3050846
S31508002380D5C30508F3C3050810B50A4B1878FF2806
S3150800239002D0094C23780BB9002010BD11F09AFB26
S315080023A030B100200549FFF729F84FF0FF30F4E770
S315080023B02070F1E77BFE00208176002036C40508F0
S315080023C02DE9F04F04464FF0000987B0354E0193CA
S315080023D09DF84430109F02933368DDF848809B6A65
S315080023E0DFF8C4B093F800A015460091BAB2336876
S315080023F09B6A997C5FFA89F399421AD84FF00009CB
S31508002400DFF8A4B033689B6A1A7E5FFA89F39A42AA
S3150800241020D8029B002B42D0002C40D0009BE0B273
S31508002420032B32D00022294607B0BDE8F04F0EF044
S3150800243011BEDBF80010496831F81330AB4206D1FB
S315080024407368414650461B6803929847039A09F1F8
S315080024500109CCE7DBF80020926832F81330AB426A
S3150800246010D1022F0ED13A4641460DF116004BF017
S315080024705FF8BDF8161073684A1E514250465B68ED
S315080024805141984709F10109BCE700222946019BF9
S31508002490CDE9107807B0BDE8F04F0EF009BE07B0D9
S315080024A0BDE8F08FDC1F0020D81F002010B50446B9
S315080024B011F030FD0020034B21461870BDE810408E
S315080024C0FEF79CBF8376002030B500EB8000450000
S315080024D015F5827F87B039DB0DF1160300930DF1F0
S315080024E0120205AB0DF10E0104A811F047FD18B153
S315080024F04FF0FF3007B030BDBDF91230AB42164B76
S31508002500C8BFADF812501C781CB1FFF73DFF002874
S31508002510EED112480378FF2B07D111F029FA20B122
S3150800252000200F49FEF76AFFE2E72946BDF91200C7
S315080025300DF10E0304AA11F0F9FC18B10948FFF7CA
S31508002540B5FFD5E72CB1FFF7F9FAD3E76FF00B0023
S31508002550D0E72046CEE700BF817600207BFE00202C
S3150800256059C4050877C405082DE9F04F044685B017
S3150800257048B97149FEF742FF6FF00A006F4B1C70AD
S3150800258005B0BDE8F08F02206D49FEF737FF94F8D5
S3150800259026006C4FA38800EB400080003C603B811E
S315080025A049F062FB684D2860002845D16749FEF767
S315080025B025FF4FF0FF30E3E708FB03F62A684FEAEA
S315080025C0431B22F8069091193A680191926A02EB28
S315080025D04313987C400049F047FB019948602868F6
S315080025E0821953683BB9019349F050FB019B58493E
S315080025F018462B60DBE73B6801929B6A0AF1010AE1
S315080026005B44187E400049F02FFB019A2B689060C6
S315080026103344D3F808B0BBF1000F12D1586849F01B
S3150800262035FB28680644C6F804B049F02FFB58461F
S315080026304849C5F800B0BAE74FF0000A4FF00C0851
S31508002640D1463B6893F826205FFA8AF39A42B3D8B4
S31508002650414B1B782BB11422404804F108014AF07B
S3150800266067FF364D3E4B2C7819784CB9A9B111F055
S315080026704FFCA8B120463B49FEF7C0FE2C7098E7F0
S31508002680394B3A483A4A002908BF034600203949D7
S31508002690FEF7B4FE00232B708BE7334A334BF5E77E
S315080026A001218DF80A0003900DF10A03084603AAD2
S315080026B011F09CFC18B1FFF779F92F4807E02F496C
S315080026C038890EF08FFC28B1FFF770F92C48FFF710
S315080026D0EDFE6EE711F00AFC18B1FFF767F9294815
S315080026E0F5E703210E2011F0D9FB18B1FFF75EF9C3
S315080026F02548ECE70221082011F0E4FB18B1FFF7A2
S3150800270055F92248E3E7ADF80A00ADF80C00642154
S315080027101F4803AB0DF10A0211F008FC044618B174
S31508002720FFF744F91B48D2E7012302201A492B7008
S31508002730FEF764FE204623E7D0C40508837600200A
S31508002740F3C40508DC1F0020D81F00201BC5050898
S3150800275049C505087EC505087CFE0020C41F002063
S3150800276082760020DDC50508AD780608B4C40508DC
S3150800277096C40508AFC50508E8C60508E41F002085
S31508002780FAC505081EC6050848C605087BC6050815
S31508002790FCFEFFFFA7C60508CFC6050808B50A4B05
S315080027A09A7A2AB902200949FEF728FE002008BDB0
S315080027B0187B11F0F9F90028F8D000200449FEF733
S315080027C01DFE4FF0FF30F2E7DC1F0020B2BE050801
S315080027D008C7050830B503686B4A23F47F4323F01E
S315080027E007039342044687B000F0858030D8A2F5E7
S315080027F07D02934200F0BF8009D8A2F500229342D9
S3150800280053D002F5A02293425AD007B030BD5F4A92
S315080028109342FAD15E4B1B78FF2B09D00079984278
S3150800282006D15C4C23781BB111F054F900232370B0
S315080028300022594B1A70594B594A19685B684869FE
S315080028405B6989695060916007B0BDE830401847F8
S31508002850544A934265D002F1007293426DD002F158
S315080028607D429342D1D1C379122B6BD0162B6BD0F4
S3150800287003F0BF03122BC8D10025484922798B895A
S315080028809A42C2D106220E3104A84AF051FE02210C
S3150800289004F10B03CDE90153A37A00932389B4F815
S315080028A005202079FFF78CFDAFE743893E49019360
S315080028B003890093C38882880220FEF79FFDA4E758
S315080028C0334D2B78FF2BA0D0827B9A429DD1011DD8
S315080028D0062204A84AF02CFE207B2E4C012104AACD
S315080028E0FFF73CF82378002B8FD0287811F0F2F800
S315080028F00023237089E72D4D0622294604A84AF0AD
S3150800290017FE002104AAA079FFF728F80122224B16
S315080029101A7055F80E2C224BD168126959609A60C4
S3150800292073E7C379022B7FF470AF01201B4B5B68FA
S31508002930DB6807B0BDE830401847184B00205B68D5
S31508002940DB68F6E7012598E7144902798B899A42EC
S315080029507FF45BAF06220E3104A84AF0E9FD04F1C4
S315080029600B03029301230193A37A0321009323897E
S31508002970B4F8052095E7094BB0F805005B681B69B4
S3150800298007B0BDE830401847A0000601A0000401C2
S315080029907BFE0020817600207CFE0020DC1F0020C4
S315080029A0C41F0020A0000A032DC70508EA1F00203F
S315080029B00122014B1A7070478276002018B1034B2A
S315080029C00360002070476FF00A00704794F40020F7
S315080029D008B557F01EF8074BD3E8EF2F511CC3E88C
S315080029E0E01F0028F8D1082A03D93B20024946F0FF
S315080029F0B5F808BDF01F002054C7050808B50A4BEE
S31508002A00D3E8EF2F511EC3E8E01F0028F8D11AB902
S31508002A104120064946F0A2F8012A03D1BDE808403C
S31508002A2056F0FBBF08BD00BFF01F002054C70508BD
S31508002A3030B5094B094A1B68126843439B1A084A72
S31508002A4008481360436808490B6043680D681468B2
S31508002A505B1BA342F9D330BD00200020FC1F0020D9
S31508002A60F81F0020001000E0F41F002000487047FF
S31508002A700420002008B518B95920034946F06EF815
S31508002A80024B186008BD00BF46C805080420002090
S31508002A90014B187D704700BF0420002010B9034B76
S31508002AA0187170474FF0FF30704700BF04200020B0
S31508002AB038B50B4D044695F83430012B04D1094B33
S31508002AC0094A0344934205D8204600F05FFD20B921
S31508002AD0EC6138BD6FF00100FBE76FF00500F8E721
S31508002AE004200020408539CA4092D20073B50024DC
S31508002AF0C31E022B06460D468DF806408DF8074084
S31508002B0013D80DF106000DF1070146F040FA9DF9BC
S31508002B100630074A2B70324492F9342020469342F5
S31508002B20A8BF13462B7002B070BD6FF00100FAE71C
S31508002B3004200020002330B5044685B00DF10F01AE
S31508002B400DF10E008DF80E308DF80F3046F01FFA95
S31508002B509DF90F20A24208DD009401209DF90E3050
S31508002B601149FEF74BFC9DF90F409DF90E30A34223
S31508002B7008DA009401209DF90F200C49FEF73EFC67
S31508002B809DF90E400A4D95F90030A34202D1002066
S31508002B9005B030BD204600F01BFC08B92C70F6E7DE
S31508002BA06FF00500F4E700BFD4C805081FC905087B
S31508002BB08476002010B5074C237D022B04D046F0FE
S31508002BC0FEF918B902232375002010BD6FF0050021
S31508002BD0FBE700BF0420002010B5074C237D012B1E
S31508002BE004D046F0F1F918B901232375002010BD69
S31508002BF06FF00500FBE700BF0420002008B500F0D1
S31508002C0061FC18B90422034B1A7508BD6FF005005C
S31508002C10FBE700BF0420002008B500F083FC18B9C4
S31508002C200322034B1A7508BD6FF00500FBE700BFCA
S31508002C3004200020F8B50446084645F0E4FF0F4690
S31508002C40054688B9A06800F06DFC054670B90FCC3A
S31508002C50DFF820C00CF120060FC62368CCF81870E0
S31508002C60336003238CF814302846F8BD6FF0050549
S31508002C70FAE700BF0420002007B50DF1060000F0B2
S31508002C80EFFC38B100200649FEF7B8FB47F6FF739C
S31508002C90ADF80630BDF9060003B05DF804FB00BFC9
S31508002CA06AC90508F0B51E46002387B033700F467B
S31508002CB01446FFF7FDFE20B16FF00505284607B05C
S31508002CC0F0BD45F0AFFF05460028F5D134B901231C
S31508002CD0224618461D49FEF791FB01241C4BB4FBFE
S31508002CE0F3F2049203FB12424FF47A73B4FBF3F146
S31508002CF003FB114422445A430592002269461046B2
S31508002D001CF0A8F810B16FF00705D7E70120FFF708
S31508002D108FFEFFF7B1FF0022044602A910461CF0F9
S31508002D2099F80028EFD1694602A82AF0D9FEBC42D4
S31508002D30C4DC02A904A82AF05DFE0028E6D1012316
S31508002D403370FFF749FF0028B8D0B5E787C90508EB
S31508002D5040420F00014BB3F944007047042000209D
S31508002D60C31E022B9FBF054B1B1893F93B3000204F
S31508002D7094BF0B706FF00100704700BF042000205D
S31508002D80431E022BF0B521D800221227114B1968D1
S31508002D904E78D3B2B34202D34FF0FF3015E007FBAB
S31508002DA002F44D6801322B192C5D8442F1D10A4A8E
S31508002DB003F11005144618685968083303C4AB4272
S31508002DC02246F7D100201B882380F0BD6FF0010052
S31508002DD0FBE700BF042000203820002030B5044659
S31508002DE0044B1D6808350FCD0FC42B6800202360DF
S31508002DF030BD00BF0420002013B550B34AB30023EA
S31508002E00154CC4E902202371236821611878FFF75D
S31508002E10B7FF18B16FF0050002B010BD00F052FA06
S31508002E200028F7D1FDF7D0FA0028F3D12075FFF76F
S31508002E30D3FE0028EED103200DF10701FFF756FE59
S31508002E400028E7D19DF90700FFF774FE0028E3D0B4
S31508002E50E0E76FF00100DFE70420002073B50026E5
S31508002E60846801230DF1030204F1140101A8ADF8E9
S31508002E7004608DF8036000F0AFF9C0B284F813015E
S31508002E8070B19DF8040046F043F8C0F307159DF8A5
S31508002E90040046F03DF83DB1012D1DD084F81361BC
S31508002EA06FF0070002B070BD94F81331043B0D496A
S31508002EB0DBB284F8133191F900309DF903207BB118
S31508002EC0134403EBD37343F3470362725A32002069
S31508002ED00B702372A272E5E794F81331023BE6E71A
S31508002EE01346F2E7857600204CF250320368934287
S31508002EF00AD146F2A81342689A4222D1837A1A2B3B
S31508002F0014BF0020032070470F4A93420BD149F2A1
S31508002F107C2342689A4214D1807AA0F11903584258
S31508002F20584180007047094A93420AD14FF2244318
S31508002F3042689A4205D1837A092B14BF00200520DE
S31508002F4070470020704700BFF049020090D0030088
S31508002F5010B5E8B104290FD0052913D0032917D1D4
S31508002F604CF2503446F2A8111A230B22C0E900414C
S31508002F7083724272002010BD49F27C21192309226E
S31508002F80054CF3E709234FF224411A46034CEDE7B3
S31508002F906FF00100EFE700BFF049020090D0030090
S31508002FA008B500680023034AA1FB000119F06CFD6F
S31508002FB008BD00BF40420F0010B50446FFF756FD96
S31508002FC0024B1C70BDE8104003691847867600203E
S31508002FD010B5074C206852F077FC10B1206852F003
S31508002FE06FFC20680122BDE8104000213AF0D8BCE9
S31508002FF04C210020F8B5064610071F46144602F075
S31508003000080339D5FFF732FD0022054681681046C8
S315080030100C311BF01FFF2846FFF720FF014628BB8F
S31508003020A868062202304AF03DFB0220FFF7C4FFDB
S31508003030FFF7CEFF14F0A84357D000202E49FEF71D
S31508003040DDF90620FFF7B8FFFFF7C2FFBB0552D52B
S315080030500022304611463BF0B7FA024600284AD00D
S31508003060BDE8F84000202549FEF7C8B900202449E4
S31508003070FEF7C4F90520D9E702F02000034313D070
S31508003080FFF7F4FC83690546102B09D1FFF7F4FD19
S31508003090AB6858724FF480330820AB61FFF78CFF9A
S315080030A00122184B1A70C5E7174B13400343C1D0CA
S315080030B002F48063034305D01449FEF79FF90520FF
S315080030C0FFF77AFFE10306D500201149FEF796F9C6
S315080030D00520FFF771FFE205ACD500200D49FEF784
S315080030E08DF90520FFF768FFA4E704F080741C43F8
S315080030F0ACD00120A6E7F8BD1ECA05082FCA0508E8
S31508003100BFC905088B76002000050100D5C905084A
S31508003110F0C9050807CA050810B5FFF7A7FC0C4A49
S315080031201478A4B98269102A0AD14FF480328261D0
S315080031302046FFF741FF2046BDE81040FFF75EBD79
S315080031400720FFF739FFBDE81040FFF741BF10BD64
S315080031508B760020F7B50C46014630B34CB30023F6
S31508003160032C019323D80426224601A84AF0E0F945
S315080031700DEB060100224FF0FF330F4F90B2A0422D
S315080031802EBF0020885C000643400820002B00F173
S31508003190FF304FEA4303B8BF7B4010F0FF00F5D17C
S315080031A0013290B2B042E9D3D84303B0F0BD264607
S315080031B0E0E72046F9E700BFB71DC10410B5FFF7E1
S315080031C055FC044A0346107818B1BDE81040DB6880
S315080031D0184710BD867600202DE9F047DFF8E0A0F5
S315080031E08EB080460C461646012103AADAF800007E
S315080031F099463BF09DFA9DF80C20074610B1931F9F
S31508003200012B07D929490020FEF7F8F800200EB04F
S31508003210BDE8F087014608AADAF800003BF0A8FAEC
S3150800322010B102462249EEE7BDF80E30FF2B39D819
S31508003230009022463946DAF800003BF0D1FABDF88C
S315080032400E300246834201D01A49DCE702222146A3
S3150800325040464AF06DF9B9F1000F1ED0BDF80E10C0
S31508003260621E0239C4F10104A31899420FDCB8F8AA
S31508003270000040BA80B245F05EFEC0F30F2300029C
S3150800328000F4E06018439DF82E303370BFE7D0781D
S3150800329045F03EFE02F8010FE6E748460649FEF706
S315080032A0ADF8B3E71A460549AEE700BF47CA0508B1
S315080032B06ECA050892CA0508BACA0508DBCA05080F
S315080032C04C21002038B50F4C0F4D2378BBB90F4958
S315080032D00F483AF0A9FA286058B90E49FEF78EF851
S315080032E06FF005040122002128683AF059FB2046B0
S315080032F038BD3AF029FB0028FBD0012323700024AF
S31508003300F0E700BF897600204C210020BF8E040814
S31508003310C4F4002008CB0508F7B5244E3778002FEB
S3150800332041D1234B93F90020511C07D12149384636
S31508003330FEF764F86FF0050003B0F0BD1E4D0120DE
S3150800334052F0E9FD1D4928683BF0CEF910B1024656
S315080033501B49ECE7286852F02BFEC307074607D53A
S3150800336028683BF0A7F9024610B116490020DFE7A6
S3150800337017F4881F15D0FF2328680DF107018DF86B
S3150800338007303BF0D3F848B901469DF8072028686E
S315080033903AF09EFB024620B10B49E7E702460B4985
S315080033A0E4E7012333700020C6E700BF88760020D3
S315080033B08A76002020CB05084C2100200700110042
S315080033C03FCB05085BCB050878CB050893CB0508EA
S315080033D0F7B51A4E0546FFF749FB34787CB90168FC
S315080033E0174B1C31186852F043FD024638B115498F
S315080033F00020FEF703F86FF0050003B0F0BD124F8A
S3150800340097F90030AB4215D000210DF1070045F0C1
S31508003410BEFD9DF907400A4BAC42A8BF2C4604EBFB
S3150800342084011868490052F04FFD024608B1074961
S31508003430DEE73C70012300203370DEE78776002044
S315080034404C2100201ECC05088C76002038CC0508B7
S31508003450024B93F90000FFF7BBBF00BF8C76002034
S3150800346070B515460E460021C0B00446FB2201A8D9
S3150800347000914AF017F94DB1022502222146684605
S315080034804AF056F8B21EAA420FDC6C460B480123D6
S3150800349032462146006852F08EFD68B90849FDF7A4
S315080034A0ADFF6FF0050040B070BD605D45F030FDC2
S315080034B00DF805000135E6E70020F4E74C21002069
S315080034C055CC050870B50546114EFFF781FD114923
S315080034D0002320220988306852F0FAF9044638B1E8
S315080034E0024600200C49FDF789FF6FF0050001E050
S315080034F00DB9002070BD0122084B306805F1DC01CA
S315080035003AF032FA02460028F3D020460449EAE7A0
S315080035104C2100202876002071CC0508C18E0408AD
S3150800352090CC0508F8B50026124B05461E70124FBA
S31508003530FFF74EFD114B32461988386852F025FAC6
S31508003540044638B1024630460D49FDF757FF6FF07D
S31508003550050001E00DB90020F8BD0122094B3868C5
S3150800356005F1DC013AF000FA02460028F3D02046BD
S315080035700549EAE78B7600204C21002028760020B2
S31508003580AACC05081931000890CC0508074B93F911
S315080035900020074B53F822309B685A689B68801AAC
S315080035A0B0FBF3F0034B1880002070478A760020A2
S315080035B084F400202876002070B5184B0546187844
S315080035C018B100221A70002026E0154E2B683268C2
S315080035D0934205D04CF250329342124C08D12070D7
S315080035E0FFF7F6FCFCF7F0FEA0B92B683360EAE7B4
S315080035F00D4A934202D101232370F1E70B4A934205
S3150800360001D10223F8E794F900200949FDF7F6FEEF
S31508003610FF2323706FF0050070BD00BF7DFE0020FC
S31508003620D4F400208A760020F049020090D00300E6
S3150800363020CB050810B5084B01880446186852F0D7
S315080036406CFC024630B1002023880449FDF7D6FEFB
S315080036506FF0050010BD00BF4C210020C8CC05083E
S3150800366010B5074B04460121186852F0A9F910F560
S31508003670007F1DBF8310238000206FF0050010BD5A
S315080036804C21002030B5194C87B006AB03E907007A
S31508003690236893F8345055B903F0FEFC024630B15E
S315080036A02846134907B0BDE83040FDF7A7BE0022FB
S315080036B0104B1146009320684FF4292346F066F90B
S315080036C083B25BB11A4602200B49FDF797FE02202A
S315080036D00A4907B0BDE83040FDF7C4BD01200849D6
S315080036E007B0BDE83040FDF789BE00BF08F50020E9
S315080036F0F2CC0508FFFF0A0012CD05083ECD0508E5
S315080037004DCD0508B0F5E04F134637B50CD346F650
S31508003710FF730093002302461A491846FDF76EFE0A
S315080037204FF0FF3003B030BD01B132B90020164961
S31508003730FDF764FE6FF00100F4E7144D0A4600F544
S315080037402921286803F0F4FA044638B102461049DC
S315080037500020FDF753FE6FF00200E3E7286846F005
S3150800376063F908B90020DDE7286846F03CF9024607
S315080037700028F7D020460749FDF740FE6FF0030002
S31508003780D0E700BF74CD0508B2CD050808F50020BE
S31508003790D7CD0508F9CD0508F0B5B0F5E04F0D46CB
S315080037A0164685B00AD346F6FF73009300230246F1
S315080037B010491846FDF722FE05B0F0BD01B132B931
S315080037C000200D4905B0BDE8F040FDF717BE0B4FC8
S315080037D000F5292403AB2146386802AA03F072FBD8
S315080037E0029B002BE8D133462A462146386803F067
S315080037F0E3FAE1E71CCE050859CE050808F50020CE
S3150800380030B5354B0546186889B01B7905220290F4
S31508003810049002A901208DF80C308DF81430FFF7BA
S31508003820BBFF052204A902A849F012FF0446B0B955
S3150800383005F08AF94FF6BF73ADF80830FF238DF807
S315080038400A30C0F307238DF80B308DF80C000522DB
S31508003850284602A949F06CFE204609B030BD45F05D
S31508003860E8FBB0F1807F03D0012801D00124EEE700
S31508003870002306A9082201200193FFF78DFF0422E1
S3150800388006A90DEB020049F053FE0422019B0DEB3D
S3150800389002011BBA06A8019349F04AFE042207A9A9
S315080038A00DEB020049F044FE0422019B0DEB0201D8
S315080038B01BBA07A8019349F03BFE9DF8183005226C
S315080038C003F01F0363F05F0306A902A88DF81830FA
S315080038D049F02EFECAE700BFBDDE050870B50369CC
S315080038E00446ADF53A7D002B65D00378012B3ED012
S315080038F0022B63D1334D02A845F0D3FB4FF6F8717E
S31508003900A2684FF48853B1EBC20F4FF6FF71ADF8BA
S3150800391008304FEAC20338BF0B4602A84FF480515D
S31508003920EDB2ADF80A3045F0607645F0C2FB616845
S3150800393001ABC66048F0F8FC014698B94FF4B2727C
S3150800394061A849F0AFFE4FF4B27261A908A849F020
S31508003950EFFD3246019908A848F0F2FD48B10198F2
S315080039600BF080F94FF0FF300DF53A7D70BD164D1E
S31508003970C1E708A8D4E9031248F0E5FD0028EED10E
S31508003980D4E9051204F1180308A848F0FEFD00283A
S31508003990E5D10D4A45F00075954214BF402520250E
S315080039A0A3690198AB42DAD10BF05CF9003818BF6D
S315080039B001204042D8E76FF00900D5E76FF005000F
S315080039C0D2E700BF0B0000020900000270B51646D8
S315080039D04FF4B272ADF5327D0D46044600210DEB6B
S315080039E0020049F05FFE4FF4B27268460DEB020121
S315080039F049F09EFD314668462A6848F0A1FD20B187
S31508003A004FF0FF300DF5327D70BD6846D4E90512DA
S31508003A1048F099FD0028F3D1D4E90712684604F165
S31508003A20200348F0B2FD0028EAD12B68206A13F477
S31508003A307C1106D0C3F30541401A18BF4FF0FF307A
S31508003A40E0E70D4A1A40B2F1607F0DD10B4ADBB2AE
S31508003A5043F0007393420DD003F17E43043B0F2BD2
S31508003A60EAD8074AD15CE7E7A2F170735A425A418D
S31508003A701101E1E71021DFE70000C07F0300000223
S31508003A807DCE050870B585690446D6B025B96FF0B0
S31508003A900904204656B070BD04A845F002FB4FF451
S31508003AA01053ADF810302378012B04D0022B17D011
S31508003AB06FF00504EDE74FF6F8714FF6FF72A3684D
S31508003AC0474D8B4288BF13469BB2ADF812306378D8
S31508003AD00395022B079511D853BB6FF00A04D8E754
S31508003AE0236A9D42D3D84FF6F8714FF6FF72A36842
S31508003AF03C4D8B4288BF13469BB2E6E7032BECD1BD
S31508003B004FF4805104A845F0D4FAA268616802AB64
S31508003B10D20848F009FCE8B92046029A03A9FFF73B
S31508003B2055FF0446002853D002980BF09BF8B0E7DF
S31508003B30012B0CBF4FF480714FF4007104A845F0B7
S31508003B40B8FAA268616802ABD20804A848F0ECFB90
S31508003B50014610B14FF0FF349BE7982230A8029E29
S31508003B6049F0A0FD982230A90AA849F0E1FC63783B
S31508003B702A46012B31460AA806D148F0B3FE30B1D1
S31508003B8002980BF06FF8E5E748F0AFFEF7E70AA8EA
S31508003B90D4E9031248F0ACFE0028F1D104F120055F
S31508003BA00195236A0AA800936169D4E9062348F0B7
S31508003BB0BDFE0028E4D1226AA3699A42E0D12B46C9
S31508003BC0E1690AA848F0DDFE0028D9D1A369236275
S31508003BD002980BF047F8041E18BF0124644258E700
S31508003BE00002C0030010C0040122014B1A7070477E
S31508003BF08D76002010B5044C23781BB10BF0DEFA45
S31508003C0000232370002010BD8E76002010B5094CC5
S31508003C10247844B150B149B149F051F8003818BF79
S31508003C200120404210BD6FF01800FBE76FF0080056
S31508003C30F8E700BF8E76002037B50D4D2B7813B107
S31508003C40002003B030BD0BF0FFFA044668B9042122
S31508003C5001230DEB01002B70FFF7D8FF18B9019867
S31508003C6019F068FAECE72C70EBE74FF0FF30E8E75D
S31508003C708E76002037B51D4B04461B7833B340B308
S31508003C80416831B3C36823B382682AB30078012830
S31508003C901AD0022823D1164D04F11000019020698C
S31508003CA00090284648F0B5FBE0B9124BEDB245F056
S31508003CB000759D4214BF402520252069401B18BF6A
S31508003CC04FF0FF3003B030BD0A4DE5E76FF018003E
S31508003CD0F8E76FF00800F5E76FF00900F2E76FF014
S31508003CE00500EFE74FF0FF30ECE700BF8E760020C7
S31508003CF00B00000209000002084A127842B150B1CE
S31508003D00426842B1C26832B1436923B1FFF7E6BDE2
S31508003D106FF0180070476FF0080070478E76002025
S31508003D20084A127842B150B1426842B1426932B18A
S31508003D30C36923B1FFF7A6BE6FF0180070476FF08E
S31508003D40080070478E76002070B57A4B04461B78BB
S31508003D5090B0002B00F0EB8000285ED04368002B63
S31508003D605BD0C369002B58D0436A002B55D08369B2
S31508003D70002B00F0D680066A002E00F0D280C36AB7
S31508003D80002B00F0CE800AA845F08BF94FF41053AB
S31508003D90ADF828302378012B20D0023B012B00F206
S31508003DA0C3804FF6F8714FF6FF72A368256B8B42F6
S31508003DB088BF13462D0405F47C1545F0A865ADF8B3
S31508003DC02A3045F4807563780D95012B19D0022B9E
S31508003DD067D06FF00A05284610B070BD4FF6F87127
S31508003DE04FF6FF72A368256B8B4288BF13462D04D6
S31508003DF005F47C1545F0A865ADF82A3045F400753C
S31508003E00E1E74FF480710AA845F053F9A06A236BDD
S31508003E10184447F029FF064610B96FF00805DAE797
S31508003E20A268616809ABD2080AA848F07DFA00289A
S31508003E3074D104F128030693226BA36A2946134416
S31508003E40CDE90463236A09980393E3690293A36996
S31508003E50019363690093D4E9032348F0BDFD226A00
S31508003E60054620B9236BA16A1344994203D0A2627E
S31508003E704FF0FF350AE03146A262606A49F058FB06
S31508003E80A16A226BE06A314449F052FB09980AF0AC
S31508003E90E9FE002818BF4FF0FF35304647F0F6FE1A
S31508003EA099E74FF400710AA845F003F9206B3044EE
S31508003EB047F0DAFE06460028AFD0D4E9071249F0E3
S31508003EC037FBD4E90B12206A304449F031FBA2686B
S31508003ED0616809ABD2080AA848F026FAF0B904F1D5
S31508003EE028030693A36A29460593636A09980493E7
S31508003EF0226B236A1344CDE90263A36901936369BC
S31508003F000093D4E9032348F0EAFD0028B0D1A36A58
S31508003F10256A5D1B18BF4FF0FF35B7E74FF0FF3531
S31508003F20BBE76FF0090556E76FF0050553E76FF035
S31508003F30180550E78E760020F0B5684B04461B78C6
S31508003F409DB0002B00F0C380002800F0C3804568B0
S31508003F50002D00F0BF80C368002B00F0BB804369CA
S31508003F60002B00F0B7800369002B00F0AB8005A892
S31508003F7045F097F82378032B05D0042B62D06FF011
S31508003F8005001DB0F0BDFF23ADF81630544B05A84B
S31508003F9008936378012B0BBF47F2421344F242138E
S31508003FA04FF480614FF400610CBFADF81430ADF8E2
S31508003FB0143045F07EF86378012B1ED1484F494EE0
S31508003FC03378002B73D02B68049304F118030293FB
S31508003FD0A36939460193636904980093D4E90323D6
S31508003FE048F0DEFB10B9A369402B1CD03378002BB0
S31508003FF065D104980AF036FE61E0022B40D12946C5
S31508004000A26804AB05A848F08FF93549002856D1AF
S31508004010A3690498019363690093D4E9032348F0DC
S31508004020FEFB0028E5D162782E4B022A1B7801D0C8
S31508004030002B4AD104980AF015FE003818BF012053
S3150800404040429EE74FF48073ADF81630264B05A81C
S3150800405008936378012B0BBF47F2121344F212132D
S315080040604FF480614FF400610CBFADF81430ADF821
S31508004070143045F01EF86378012B16D0022B02D0B7
S315080040806FF00A007DE704232946A2680DF12D008A
S315080040908DF82C3049F04CFAA2680BA904AB013212
S315080040A005A848F041F91049B0E70F4F87E72946B8
S315080040B0A26804AB05A848F037F9002885D04FF068
S315080040C0FF305EE76FF009005BE7002059E76FF005
S315080040D0180056E76FF0080053E700BF8E760020F9
S315080040E0000800068D7600200906000670B5374BD5
S315080040F004461B789CB0002B61D0002862D0466825
S31508004100002E5FD0C368002B5CD04369002B59D0C2
S3150800411005A844F0C6FF4FF4804105A844F0C9FF3E
S3150800412023782B4D012B089529D0022B44D1294BF6
S3150800413031460593A26804AB48F0F6F838BBD4E9D3
S31508004140031204230DF12D008DF82C3049F0F0F9F7
S3150800415004F1180223690292A26901330192626985
S3150800416000920BAA2846049948F042FD0346049893
S3150800417013B9A369202B18D00AF074FD07E0164B73
S3150800418031460593A26804AB48F0CEF818B14FF053
S31508004190FF301CB070BD04F118030293A3690193A4
S315080041A063690093D4E90323DCE70AF05BFD003872
S315080041B018BF01204042ECE76FF00500E9E76FF011
S315080041C01800E6E76FF00800E3E700BF8E760020E8
S315080041D000000209127100014171FF00F0B5604B41
S315080041E004461B789BB0002B00F0B380002800F033
S315080041F0B3804368002B00F0AF80C368002B00F043
S31508004200AB8003A844F04DFF2378013B032B00F253
S315080042109D80DFE803F0544B022C524B1B781BB3EE
S315080042200322049B0892DAB222B923F0FF0343F073
S315080042300103049346F0ACFA4FF48061000240F0A3
S3150800424001000490484B03A8039344F032FF474B00
S31508004250694603A806930AF0A5FF002831D04FF057
S31508004260FF3528461BB0F0BD40F20141EAE73D4B59
S315080042701B78C3B10422049B0892DAB222B923F050
S31508004280FF0343F00103049346F082FA4FF480518A
S31508004290000240F001000490354B03A8039344F054
S315080042A008FF344BD4E741F20101F5E7304B44F2FD
S315080042B0010103A8039344F0FCFE2F4BC8E72F4BDC
S315080042C0F5E7284F60683B7803B32378033B012B57
S315080042D01CD80422694649F02BF926690098402E15
S315080042E002AB2DD1412209A947F0F3FF2269054601
S315080042F00DF12501E06849F01BF902966DB92569AB
S31508004300029BED1A18BF4FF0FF3508E00146A26878
S31508004310009801AB47F07DFF68B14FF0FF353B7859
S315080043201BB12378033B012B9BD900980AF09AFC12
S31508004330002896D093E7A268019B9A42EDD1CCE774
S315080043403246E16847F0C5FF0546D7E76FF0050531
S3150800435087E76FF0180584E76FF0080581E700BF67
S315080043608E7600208D7600204271FF000008000638
S315080043701271000109060006000002094171FF00DA
S3150800438037B50F4D2B6893F83430B3B902F084FE75
S31508004390041E18BF0124644200220A4B11460093EA
S315080043A028684FF4222345F0F1FA074982B2022021
S315080043B0FDF724F8204603B030BD0024ECE700BF23
S315080043C008F50020FF8F0A008DCE05082DE9F04775
S315080043D0002486B0B0F5E04F0E4615461F460394F6
S315080043E000F5222A0DD346F6FF73024600932046AF
S315080043F023462449FDF702F86FF0090006B0BDE828
S31508004400F08732B910462049FCF7F8FF6FF008002C
S31508004410F4E7DFF8788003AB5146D8F8000002AA23
S3150800442002F050FD039B33BB2D2019E0CDF8009018
S3150800443023465146D8F8000004AA02F0FDFC60B9EC
S31508004440BDF81430B3420ED100972A465146D8F823
S31508004450000004F1080302F0EFFC039BA342E3D932
S3150800446044F0F5FDCAE7049B08331C44039BA342AA
S3150800447003D82D20F1E74FF00809039BA342D5D8AE
S315080044800020EAE7BFCE050808CF050808F5002092
S315080044902DE9F043002487B0B0F5E04F0E461546E7
S315080044A0039400F522270DD346F6FF7302460093C0
S315080044B0204623461E49FCF7A1FF6FF0090007B006
S315080044C0BDE8F08332B910461A49FCF797FF6FF03A
S315080044D00800F4E7DFF8608003AB3946D8F8000037
S315080044E002AA02F0EFFC039BF3B92D2044F0AFFDBE
S315080044F0E5E7CDF8009023463946D8F8000004AA27
S3150800450002F09AFC28B9BDF81420049BB24204D1E3
S315080045102B60039BA342E8D9E8E708331C44039BB6
S31508004520A342E6D80020F4E74FF00809F7E700BFF2
S3150800453030CF05087DCF050808F50020B0F5E04F17
S3150800454007B502460DD20D4B00F52221186802F078
S31508004550F5FC2D2808BF002003B05DF804EB44F0F5
S3150800456076BD46F6FF730093002305491846FCF707
S3150800457045FF6FF0090003B05DF804FB08F500205D
S31508004580A9CF05082DE9F047002586B0B0F5E04F1C
S3150800459002468946CDE9025500F522270CD346F690
S315080045A0FF732846009334492B46FCF727FF6FF024
S315080045B0090006B0BDE8F087DFF8C0803946D8F8AC
S315080045C0000003AB02AA02F07DFC044608B12D28C0
S315080045D045D10121039847F077FB0546002849D0C5
S315080045E000264FF0080A039BB34234D9CDF800A041
S315080045F033463946D8F8000004AA02F01DFC0446E2
S3150800460048BBBDF814304B4530D1009603462A46C0
S315080046103946D8F8000002F00FFC0446D8B9039AC8
S315080046200499083A521A921B009201F10803D8F825
S31508004630000039463344AA1902F0FEFB044650B975
S31508004640039B049A083B9B1A39462A46D8F8000069
S3150800465002F06EFB0446039BB34298BF2D242846FE
S3150800466047F014FB204644F0F2FCA2E7049B08330B
S315080046701E44B8E77024F2E7F4CF050808F50020D1
S315080046802DE9F04F82468B4690461E4687B0002B92
S3150800469000F0B780302B03D9D2205B4944F05EFA8C
S315080046A04AB910465949FCF7A9FE6FF0080528468D
S315080046B007B0BDE8F08F30220021554848F0F2FFD8
S315080046C0334659465046524AFFF780FE0546E0B93A
S315080046D0324641464E4848F0BBFF0028E7D0002343
S315080046E0BAF5E04FCDE902330496ADF814B00AF5F1
S315080046F022290DD346F6FF721846009245495246BE
S31508004700FCF77CFE6FF00905D1E76FF00705E6E7D1
S31508004710414F4946386803AB02AA02F0D3FB2D285D
S3150800472004461AD106F108040121204647F0CCFABE
S315080047300546002863D0082204A948F0F9FE324647
S31508004740414605F1080048F0F3FE23462A46494645
S31508004750386802F0EDFA04461FE008BB039B5BB914
S31508004760039B0121083303EB060A504647F0ACFACF
S315080047700546D0B9702410E0002DF1D159465046AF
S31508004780FFF700FF044640B94946386803AB02AA5A
S3150800479002F098FB04460028E2D0284647F076FA4D
S315080047A0204644F054FC054681E7039BF3B9039879
S315080047B0082204A9284448F0BBFE0398324608306C
S315080047C04146284448F0B4FE53462A4649463868C6
S315080047D002F0AEFA04460028DFD1386845F024F91D
S315080047E00028DAD0386845F0FEF8B4E702464946AC
S315080047F0386802F0E1FA04460028CED1D7E77024DB
S31508004800CEE76FF00A0552E740D00508B9D005088B
S315080048108F760020E1D0050808F5002013B591F839
S3150800482034300C46A3B191F835308BB9012281F8A2
S315080048303520CDE900330A4A0B4604F11000896B8E
S3150800484053F028FC20B140F22710064944F086F9B7
S315080048502146236BE06B02B0BDE81040184700BF45
S315080048601D4800082AD10508034660B159B1C2633C
S31508004870064A016392E8030083E80300083383E8E5
S315080048800300002070476FF00A007047BCD1050886
S31508004890F0B50F4616461D4604468BB018B96FF09C
S315080048A00A000BB0F0BD002AF9D044F029FC002814
S315080048B0F5D196E8030084E803003DB195E80300C6
S315080048C004F1080383E803000123A386002394E880
S315080048D003000022CDE90223CDE904230023012F9A
S315080048E008AF0CBF0A26002687E80300CDE9063381
S315080048F04DB1D4E902232549B3FBF1F34FF47A719C
S3150800490001FB0233A36306A800F048F8079B384664
S3150800491003F5BB53103306A9079329F06BF800B3C8
S31508004920384606A929F0DCF84FF47A72099B0898EC
S31508004930B3FBF2F10023154D05FB0012CDE9042364
S31508004940DDE90423D903124BD003C01841EA5241CA
S315080049504FF000030D4A41F1000118F095F8CDE932
S315080049600201DDE90201002501462346CDE900657D
S31508004970084A04F1100055F07CF908B9002090E7C0
S3150800498028460549FCF73AFDF8E700BF40420F0004
S315080049903F420F001D4800089ED10508F8B5044699
S315080049A018B94F200E4944F0D9F853F013FB0746BF
S315080049B00E4653F029FB3146054602460023384683
S315080049C018F062F81F46074E2060A2FB0601002376
S315080049D02A4606FB071118F057F860600020F8BD54
S315080049E0C4D1050800CA9A3B08B538B148F0F8FDA5
S315080049F00346054A10681BB944F08FFC012008BD20
S31508004A0044F079FCFAE700BF90E2050838B548F0AB
S31508004A10E7FD05460F4C002180B2FCF767FE2146EC
S31508004A200220FCF71FFC02200B49FCF71BFC214661
S31508004A300220FCF717FC2A4602200849FCF712FC5C
S31508004A4021460220FCF70EFC21460220FCF70AFC50
S31508004A50012038BD39D2050862D205088BD205086F
S31508004A6030B59BB047F080F902206649FCF7FAFB9F
S31508004A700220654A6549FCF7F5FB0220644A654948
S31508004A80FCF7F0FB4122002109A848F00BFE412162
S31508004A9009A8FCF7ABFE02205F4909AAFCF7E2FB6E
S31508004AA00B22002102A848F0FDFD0B2102A8FCF705
S31508004AB0CBFE0220594902AAFCF7D4FB102200219A
S31508004AC005A848F0EFFDFBF79DFE089005A819F02C
S31508004AD0B9FB044628B3524D024652490020FCF75A
S31508004AE0C1FB5149286847F040F85049286847F003
S31508004AF03CF8FCF7DDFB44F02DF84D4B4D4A00938E
S31508004B004D497623286847F030F84C4A4C492868BE
S31508004B1047F02BF822464349286847F026F800BE96
S31508004B20FDE702204749FCF79DFBFCF7BBFA0A2381
S31508004B304FF480620093444923464448019455F053
S31508004B4018FE0128054625D002462046344C404921
S31508004B50FCF788FB3449206847F007F83349206892
S31508004B6047F003F8FCF7A4FB43F0F4FF304B314A57
S31508004B70009331498623206846F0F7FF354A3049C5
S31508004B80206846F0F2FF2A463149206846F0EDFFD4
S31508004B9000BEFDE702203049FCF764FB05234FF40D
S31508004BA0006200932D4923462D48019455F0E1FDF6
S31508004BB001281FD01A4C1C49206846F0D6FF1B490D
S31508004BC0206846F0D2FFFCF773FB43F0C3FF184B8F
S31508004BD0184A009318499023206846F0C6FF1849DA
S31508004BE01C4A206846F0C1FF1E49206846F0BDFFF2
S31508004BF000BEFDE702201C49FCF734FB47F0C1F86C
S31508004C001BB030BDA3D20508BBD20508C5D205081E
S31508004C10DFD20508E5D205080AD305081CD305081E
S31508004C20981E00202CD30508AC7806088EA905081E
S31508004C308CD4050856D305080AAA0508C8D305085A
S31508004C4037AA0508E3D30508F8D30508714E000806
S31508004C50FDD3050822D4050833D4050845D405082C
S31508004C60C591040851D4050872D4050873B50646DB
S31508004C700C46104D02202946FCF7F4FA02200E498C
S31508004C80FCF7F0FA29460220FCF7ECFA019623799C
S31508004C9000200093A38922680849FCF7E3FA29460D
S31508004CA00220FCF7DFFA2946022002B0BDE8704070
S31508004CB0FCF7D8BA39D2050895D40508BED4050834
S31508004CC037B504460F4D02202946FCF7CBFA0220D9
S31508004CD00D49FCF7C7FA29460220FCF7C3FA2379DF
S31508004CE002200093A38922680849FCF7BBFA2946E3
S31508004CF00220FCF7B7FA2946022003B0BDE8304087
S31508004D00FCF7B0BA39D20508F1D405081AD5050852
S31508004D1008B502200349FCF7A5FABDE8084046F0A5
S31508004D20D5BE00BF42D5050830B504460D4689B044
S31508004D3002201949FCF796FA02201849FCF792FA5C
S31508004D4002201549FCF78EFAB4F9143002200693AE
S31508004D50B4F9123012490593E37B0493A37B0393BA
S31508004D60237C0293237901936B680093A3892268B5
S31508004D70FCF778FA6B6823B102202A680949FCF720
S31508004D8071FA02200449FCF76DFAD5E9000109B069
S31508004D90BDE83040FBF7DEBD39D2050857D5050812
S31508004DA080D505085225060870B51F4C86B0694699
S31508004DB0A06849F0E9F8BDF804305BB9029B013BED
S31508004DC0012B09D89DF8003033B9184B0321186810
S31508004DD044F0D1F906B070BD2669012EFAD1237DBB
S31508004DE0134D93B154F02AF92B68C01A43F697234A
S31508004DF09842EFD90D4B0621186844F0BCF90023F8
S31508004E00237554F01BF92860E4E754F017F92B686A
S31508004E10C01A40F2DB539842DCD9044B05211868C6
S31508004E2044F0A9F92675ECE7542100206C210020EE
S31508004E3050210020014B186844F081BA90E2050819
S31508004E4007B508220021684648F02CFC02F0B2FAA1
S31508004E5006490246684618F04DF9002269460220BE
S31508004E60FCF798FC03B05DF804FB00BF69AE0508C3
S31508004E702DE9F0430025AA4BA3B00A93A94BAA4CE7
S31508004E800B93AA4B02200C93A94BAA490D93AA4B44
S31508004E90C4E900550E93A94BA5600F93A84B25733B
S31508004EA0059309ABCDE9063510950994049508953F
S31508004EB0FCF7D8F90220A349FCF7D4F9A249022045
S31508004EC0FCF7D0F9FBF7A2FC0890FBF797FC2A46FB
S31508004ED0079001211420257555F079FB9B4F386002
S31508004EE000BB9B4C9B49206846F03FFE9A492068C8
S31508004EF046F03BFEFCF7DCF943F02CFE974B984A4C
S31508004F000093984940F29513206846F02EFE96497C
S31508004F10964A206846F029FE9549206846F025FEFF
S31508004F2000BEFDE70226934B6060012226734FF40C
S31508004F307A71009390482B4655F067FC8F4A1060AB
S31508004F40B0B98F49FCF78EF900208E49FCF78AF92B
S31508004F50A068002840F093818B490020FCF782F96D
S31508004F6019F0BCF9002053F0A9FF23B0BDE8F0837F
S31508004F7030468649FCF776F9854B012200934FF4B3
S31508004F80FA712B46834855F040FCDFF86482C8F86E
S31508004F90000008B98049D5E730468049FCF762F930
S31508004FA07F4B0122009364212B467E4855F02DFC49
S31508004FB0DFF84092C9F8000008B97B49C2E77B4987
S31508004FC03046FCF74FF9D8F8008054F037F82B46EE
S31508004FD0024601214046009554F0E2FB6F493046EF
S31508004FE0FCF740F9D9F8008054F028F82B46024619
S31508004FF001214046009554F0D3FB30466C49FCF736
S3150800500031F90121386844F0B6F8049B022B6BD0BD
S31508005010A06858B119F066FC3246034610B16549D6
S31508005020002010E030466449FCF71CF900270225E9
S3150800503011A904A81197049519F084F948B10346F3
S315080050402A4638465D49FCF70DF90023A360049308
S315080050507AE72A4628465A49FCF704F90DF10E0262
S315080050600123052111988DF80E5019F0C9FD024645
S31508005070D0B1811D04D053490020FCF7F3F8E4E7CA
S3150800508001205149FCF7EEF804230DF10F028DF8C3
S315080050900F3009210123119819F0B2FD0246C0B15B
S315080050A0831D08D04949E7E728469DF80E20484958
S315080050B0FCF7D8F8E8E701204649FCF7D3F8119839
S315080050C00221A06019F0A0FB0222034640B1424922
S315080050D0A6E702209DF80F204049FCF7C3F8EEE743
S315080050E010463F49FCF7BEF802233E4D3E4E3F4F61
S315080050F0236107234FF0FF3260680DF10F018DF829
S315080051000F3055F04AF80128F3D19DF80F20531EA9
S31508005110052B00F2AF80DFE803F07F6F739B9EA735
S31508005120BB910408294D000854210020C14C0008F1
S315080051306D4C0008FAD5050831530008114D0008D2
S31508005140010202000DD6050820D605086C210020AC
S31508005150981E0020AC7806088EA90508E5DB050828
S3150800516038D605080AAA050837AA0508ADD60508D7
S31508005170C3D60508414E0008D9D605087421002073
S31508005180EBD605081BDA0508D0DA050819D705088D
S31508005190354E00083FD705084DD705086BD70508D3
S315080051A0A94D000881D705088ED70508ABD705088D
S315080051B0C0D70508D5D7050810D8050838D8050872
S315080051C071D8050897D80508C8D8050831D905083B
S315080051D006D9050862D90508CBD90508A0D9050856
S315080051E0FBD905089ADA05087ADA050862DA0508A5
S315080051F07821002070210020A06848F06BFE78E72F
S31508005200237B012B03D1A068FCF71CFA71E7012068
S315080052101F49FCF727F86CE702201E49FCF722F81D
S315080052204322002111A848F03DFA1B4911A848F06D
S3150800523070F911A848F089F911AB53FA80F04121A9
S31508005240FCF7D4FA0222432111A8FCF783FA50E7A7
S3150800525039460220DDE731460220FCF703F8012132
S31508005260A06848F06CFE44E729460220FBF7FAFFDF
S315080052700021F5E700200949FBF7F4FF39E704990F
S3150800528048F0D4FDA06819F02DFB0023A36063E65F
S3150800529033DA050846DA05085FDA0508BBDA0508D1
S315080052A030B5044685B010220021684648F0FAF960
S315080052B0204643F0BAFF01281DD1124B9C420DD15E
S315080052C0114D12492A78684617F014FF02226946DA
S315080052D00320FCF75FFA2B7801332B700C4B9C42AA
S315080052E009D10C4B1A7842B1002201201A70022209
S315080052F00949FCF74FFA05B030BD012002220749DB
S315080053001870F6E778E20508C0760020EDDA050899
S3150800531060E20508BF76002035AA0508BDB805086D
S31508005320024B0421186843F026BF00BF6C210020F9
S3150800533013B503780446032B16D8DFE803F00207F3
S315080053400D3D01230B731E49022002E0022008735B
S315080053501C49FBF787FF07E0886848F0C9FD1A492A
S3150800536002460020FBF77EFF23790BB9FFF7D8FF2B
S3150800537002201649FBF776FF02201549FBF772FF54
S3150800538002201249FBF76EFF227802201149FBF72B
S3150800539069FFA36802200093637922790E49FBF717
S315080053A061FF02200949FBF75DFF0220074902B0A9
S315080053B0BDE81040FBF756BF03230B730749C3E745
S315080053C0F8DA05080EDB050828DB050839D20508D2
S315080053D067DB050890DB0508B3DB050849DB05082C
S315080053E0022837B5044610D005281DD001280AD151
S315080053F0194B1D6853F022FE002302462146284613
S31508005400009354F0CDF903B030BD00231348009340
S315080054101A460321006854F0C3F9114B186803B003
S31508005420BDE8304043F079BF0E4B0121186843F0C0
S31508005430A2FE0A4B00241D6853F000FE23460246CE
S3150800544001212846009454F0ABF9034800942346FA
S31508005450224603210068D4E7742100207821002021
S3150800546090E205086C21002008B5034846F023FBA6
S31508005470BDE8084047F0ABBF50DF0508014846F0D5
S315080054801ABB00BF50DF0508BFF34F8F0549064B0F
S31508005490CA6802F4E0621343CB60BFF34F8F00BFC4
S315080054A0FDE700BF00ED00E00400FA0540B1054A3B
S315080054B01378012B04D8037001330020137070474A
S315080054C001207047C17600200348044A0449121A8D
S315080054D0921043F098BE00BF7C010008280300081C
S315080054E0B8F2002008B500F02FF8FFF7EDFF124BD1
S315080054F012498B4212D30020114B12498B4218D302
