S02A00006275696C642F64656275672F616D617A6F6E5F7369646577616C6B5F736F635F6F6F622E733337D9
S21400000000080020B90C000073020400730204000C
S21400001073020400730204007302040073020400F7
S21400002073020400730204007302040041630500B7
S2140000307302040073020400E5620500E37905001C
S21400004073020400394000007302040073020400C7
S21400005073020400D30E040073020400730204004B
S2140000607302040073020400B97E000073020400E9
S2140000707302040073020400730204007302040097
S2140000807302040073020400730204007302040087
S21400009073020400011300007302040073020400DC
S2140000A073020400E9110000CD1100007302040081
S2140000B07302040073020400730204007DCA030086
S2140000C0372E0500332E0500E1C103004D2E050036
S2140000D03B2E05003DCA03003F2E0500CDA60300BB
S2140000E0BDCA030073020400730204007302040016
S2140000F07302040073020400730204007302040017
S2140001007302040073020400730204007302040006
S21400011073020400730204007302040073020400F6
S2140001206DEE000073020400730204007302040004
S208000130730204004D
S214000134F0B5114A114C124E00F00105E3695F0751
S21400014413D40DB9334213D103EA00078F4207D103
S2140001540B4A1A40002A0CBF00206FF00100F0BDC5
S214000164013AEBD16FF00200F9E74FF0FF30F6E703
S2140001746FF00100F3E700BF80969800000003507C
S2140001840200010070B50B4BD96911F480310DD112
S21400019401244FF48072084E084DF46020462C6407
S2140001A41A61FFF7C5FF3464EC6070BD6FF00100A0
S2140001B4FBE700BF0000035000100350002003506C
S2140001C438B541F6713301220C4C0021E569E3632E
S2140001D40B4B05F48035DA6002236061212023612D
S2140001E4FFF7A6FF10B92120FFF7A2FF0122054B57
S2140001F4DA600DB10023E36338BD00BF000003508E
S214000204001003500020035070B5134C6061E3697E
S2140002145B071ED40E4656F8043B8D18A361AE4207
S2140002240BD10423002121202361FFF781FF58B955
S214000234BDE870402120FFF77BBF08210846FFF782
S21400024477FF10B10423236170BD56F8043BA36105
S214000254E5E74FF0FF30F7E7000003502DE9F843D9
S214000264154641F67132164B8946DF69DA63012278
S214000274064603F58053DFF8508007F48037DA60CB
S21400028455B9284601220F4BDA601FB10022A3F5A8
S2140002940053DA63BDE8F88306F5005404EA08045C
S2140002A4A41BAC4228BF2C46494622463046FFF7DC
S2140002B4ABFF0028E6D12644A1442D1BE0E700BF8F
S2100002C4000003500020035000E0FFFF85
S2140002D02DE9F04F93B0CDE90A32DDE91C530E93B9
S2140002E053EC102BCDE90801104619468DED060B90
S2140002F01E9E0FF029FC80B1DDE906014FF0FF32AB
S214000300C54B0FF049FC40B9DDE906014FF0FF325E
S2140003106FF480130FF022FC70B1DDE908019DED4B
S214000320060B0E9B1E96CDE91C53DDE90A3213B070
S214000330BDE8F04F00F088B90022DDE90601002391
S2140003400FF00CFC002800F03381DDE906A303F172
S214000350004BCBF30A5016F48063A0F2FF3008BFC0
S21400036006250F930FF01EF99BA3D3E900230FF089
S21400037083F99BA3D3E900230EF0C8FFCBF3130445
S214000380894644F07F5180460022A44B504641F4F3
S21400039040110EF0B9FF94A3D3E900230FF06CF9D7
S2140003A002460B46404649460EF0B0FF0FF0FEFBF5
S2140003B004460FF0F7F88EA3D3E90023804689465B
S2140003C00FF05AF90022964B0EF0A0FF0FF0EEFB4E
S2140003D089A3D3E900230746494640460FF04CF967
S2140003E08046384689460FF0DDF885A3D3E900231A
S2140003F00FF042F902460B46404649460EF084FF8F
S21400040002460B46CDE90C230FF036F9DDE90C2346
S21400041080468946104619460EF078FF0022CDE940
S2140004201001804B404649460FF050FA00227E4BA2
S2140004300EF06CFF02460B46404649460FF046FA61
S21400044000227A4B0EF062FF02460B4640464946B3
S2140004500FF03CFADDE90C238046894600204FF079
S21400046080410EF051FF02460B46404649460EF0CC
S2140004704DFF02460B46DDE910010FF027FA07F2A2
S214000480FF3700226A4B0EF041FF00223B050FF0BB
S214000490F3F852465B46804689460FF07DFB0028FF
S2140004A040F08980CDE90C8904F16303C72B34BF83
S2140004B00427052731051BD553A3D3E9002350464F
S2140004C059460FF05FFB00287FD051A3D3E90023E5
S2140004D0504659460FF042FB002876D00027A5422A
S2140004E0C6BF2C1B04F1FF3500253C4646F480664B
S2140004F00E9B9F422CBF4FF00008A3EB070816F098
S214000500020903D0002F18BF4FF000083CB1DDE908
S2140005100C23504659460FF0D9F982468B46DDE942
S2140005200601002200230FF019FB10B10BF1004367
S2140005309B46DDE9080126F40063CDE90183DDE989
S2140005400A324BEC10AB009500F07EF802465FB323
S214000550DDE9091316F0200F00F10105089E0CBF17
S21400056065204520B047DDE90801052300220593F4
S2140005700A23002CCDE9023207F1FF374FEAD47385
S214000580B8BF64422A46019304970A9B009444F03D
S2140005907FFC0246B9F1000F06D00B9BC41A0B9BDA
S2140005A01A190E9BA34245D8104613B0BDE8F08F2B
S2140005B0DDE906ABCDE60022404649461A4B0FF071
S2140005C085F9013CCDE90C016EE7002D90D00F9B1C
S2140005D0002B8DD0013D8BE7FB799F501344D33F12
S2140005E0B3C8608B288AC63F61436F63A787D23F34
S2140005F071A379094F930A401655B5BBB16B0240FB
S214000600EF39FAFE422EE63F2D431CEBE2361A3F48
S2140006100000000080842E41FFFFEF7F0000F83FBF
S2140006200000E03F00002C4000002440000018407E
S2140006300000F03F2020DDE90913089DA84701349B
S214000640ADE700BF000000002DE9F04F5BEC10ABFB
S21400065097B0CDE90501DDE92057CDE907235046DF
S21400066052465B465946229E0FF06EFA70B9032337
S214000670CDE902760193B04B0093DDE90501DDE993
S214000680072344F025FB17B0BDE8F08F4FF0FF328C
S2140006906FF48013504659460FF060FA28B10423D1
S2140006A0CDE902760193A54BE6E74FF0FF325046C0
S2140006B05946A34B0FF070FA68B1A24A06F004033D
S2140006C0002B08BF0322A04B1CBF13460422CDE913
S2140006D002760192D0E7504693A3D3E90023594609
S2140006E00FF05AFA38B992A3D3E900235046594678
S2140006F00FF034FA68B1DDE90723DDE905014BECBC
S21400070010ABCDE92176209517B0BDE8F04FFFF786
S214000710DFBD00220023504659460FF01FFA00287E
S21400072000F09A805B465246002000210EF0ECFD59
S214000730012382468B46099316F4806400F08E806F
S214000740092D40F28E80002430210EABA5F109025F
S2140007500134202C03F8011BA5EB040901D09442B8
S214000760F6D1594650460FF021FA784B054603EB72
S214000770C90393ED007B8DED0A7B0EF013FF024656
S2140007800B46504659460EF0BFFDDDE90A230EF033
S21400079073FF02460B46CDE90C230FF02FFA804676
S2140007A00EF0F0FE02460B46DDE90C010EF0ACFD45
S2140007B002460B46CDE90C230022654B0FF0ECF900
S2140007C0002851D008F1010840460EF0DBFE024634
S2140007D00B46DDE90A010FF0CBF910B14FF0000827
S2140007E00135B9F1000F50D128460EF0DBFE024667
S2140007F00B46504659460EF087FD0022544B804665
S21400080089460FF0ABF930B1002240464946504BBE
S2140008100FF0C2F910B1E80700D501350A210EAB7A
S2140008201A19202C0AD095FBF1F001FB1055303533
S21400083002F8015B013405460028F2D106F00302F7
S214000840012A57D1002F55D0099A12B916F00C0F6D
S21400085000D0013F302245E009906DE74FF00609D1
S2140008607FE7A94600247CE70022DDE90C01384B2F
S2140008700FF074F90028B4D1B8F1000F02D018F0C8
S214000880010FAED008F10108ABE70A210EAB2344F6
S214000890202C0ED0B8FBF1F001FB1082B8F1090F46
S2140008A002F1300209F1FF3904F1010403F8012BCB
S2140008B011D83021A1440EAA202CAFD0A14504F1B6
S2140008C001030AD11C4609F158030DEB03092E2338
S2140008D009F8203CA2E78046DAE7A1541C46EBE77D
S2140008E01A550134A74205D9202CF9D1CDE9027654
S2140008F00194C1E6202CF9D0099A3AB12D2104F1D1
S21400090058026A4402F8201C0134EFE7710704D548
S21400091004F158022B216A44F4E73207E6D504F1C5
S214000920580220216A44EDE70000000065CDCD4165
S2140009300000000065CDCDC14D900500519005002A
S214000940FFFFEF7F44900500499005005890050092
S2140009500000E03F0000000010B51D4C00202146BE
S21400096056F070FF18B146201A4945F052F8236831
S214000970194AB3FBF2F3236020680EF003FE10A3BF
S214000980D3E900230EF078FE0FA3D3E900230EF080
S214000990BDFC0FF033F9114B114A1860D2F8FC3049
S2140009A043F08073C2F8FC304FF060430D4AC3F842
S2140009B0B02F0D4A136843F00103136010BD00BF4B
S2140009C0EC51B81E85EBE93FF6285C8FC2F51C405B
S2140009D07C49002044A4050040420F0078490020CE
S2140009E000ED00E055CEACC5001000E000000000B1
S2140009F070B590B004460D4647F090FF002848D0EA
S214000A001422002109A845F085FAD4E907014FF61B
S214000A10FF73ADF8263010AB03E903008DF82550C0
S214000A201CF0AAFD0026A063059003AA012001A9D8
S214000A30CDE90666CDE90166CDE90366089611F0B4
S214000A409DF8054638B30696ADF81C6043F6FF736E
S214000A5003208DF8200005A909A8ADF81E3020F067
S214000A6079FD10B9012384F84430636B5A1C4FF6A5
S214000A70FF7218BF01336363B4F84C3093421CBF57
S214000A8001339BB2A4F84C3094F84130013384F81B
S214000A90413010B070BD019B02990693C80319A39C
S214000AA0D3E90023490C0FF0C9F816A3D3E90023B5
S214000AB00499ADF81C00C803490C0FF0BFF8039B5F
S214000AC000EBC333B3F5804F0DD30B4A93420DD9D9
S214000AD00A4A93420DD90A4A9342B7D803200D22F8
S214000AE0D3409BB2B5E728462A46F9E701200522FF
S214000AF0F6E702200A22F3E7E0FF070000FCFF000B
S214000B0000E0FF0700CA9A3B00000000000000005B
S214000B1007B588B10BA3D3E900230949C1E902232D
S214000B20CDE900234FF0FF324FF0FF33086951F054
S214000B3030FC03B05DF804FB00220023EDE700BFA5
S214000B40200F00200DD50155200000000348044B5F
S214000B50834202D0034B03B1184770477C2801201C
S214000B607C28012000000000064B0749C91A89109E
S214000B7048BF0131491003D0044B0BB10148184758
S214000B80704700BF7C2801207C2801200000000060
S214000B9010B5064C237843B9FFF7D8FF044B13B1C2
S214000BA00448AFF300800123237010BDB6870020F1
S214000BB0000000005C32060008B5054B1BB1054975
S214000BC00548AFF30080BDE80840FFF7CDBF00BF83
S214000BD000000000701100205C320600A3F5803A89
S214000BE0704700BF174B002B08BF134B9D46FFF7FF
S214000BF0F5FF00218B460F461348144A121A45F09B
S214000C0089F90E4B002B00D098470D4B002B00D0D7
S214000C1098470020002104000D000D48002802D04F
S214000C200C48AFF300800FF011FC2000290042F0C2
S214000C3026FD0FF0B1F900BF00000800000000001C
S214000C400000000000080020000800202806012000
S214000C50000000000000000008B5034856F0F7FD4D
S214000C60BDE8084044F05ABAE88C0500014856F042
S214000C70EEBD00BFE88C0500BFF34F8F0549064B5D
S214000C80CA6802F4E0621343CB60BFF34F8F00BF25
S214000C90FDE700BF00ED00E00400FA050348044A43
S214000CA00449121A92103FF0E5BA00BF3401000062
S214000CB0D00200002806012008B5154B83F30A88E9
S214000CC000F030F8FFF7EAFF124B13498B4212D3BD
S214000CD00020124B12498B4218D3FFF783FF186887
S214000CE050F82240586840F8224001329868824204
S214000CF0F5D30C33EAE70022F8E71C6844F8220034
S214000D0001325C68A242F8D30833E4E70022F8E731
S214000D1000000020643206007032060070320600C2
S214000D207032060070B5124B124A134D9A60D3F813
S214000D30882005F5005442F47002C3F888206FF04E
S214000D400102226641F2FF7262660222C3F8D020D8
S214000D50BFF34F8FBFF36F8F4FF44036032006F07C
S214000D60FBFD0320E66006F0CDFD2E6170BD00BFE2
S214000D7000ED00E00000000000800044014B186019
S214000D80704700BFD8070120054B1860054B1B6F46
S214000D9003F00703032B01D154F0A4B8704700BF3B
S214000DA0E007012000800050002307B52948019382
S214000DB056F04DFD4FF44073012204216846ADF80D
S214000DC0003000F0A1F80122234B0520C3F844248C
S214000DD001A956F037FD002839D1204BD3F8F02072
S214000DE042F00102C3F8F020D3F8FC2042F08072F3
S214000DF0C3F8FC201A4AA3F55D431A60019B194A02
S214000E0003F5D52303F2FC43B3FBF2F3164A013B8A
S214000E1013610223C2F8F0304FF48073C2F8043333
S214000E204FF06043114AC3F8B02F114AC3F8802E22
S214000E30D3F8002E42F48072C3F8002EFF2283F807
S214000E402020D3F8002E22F48072C3F8002E03B0C0
S214000E505DF804FBE88C050000D0035000ED00E0D0
S214000E60FF030040F8590D00000004E055CEACC565
S214000E70090001002DE9F04104460C254FF0010859
S214000E80124E0CB314F001000BD0002024F0010425
S214000E9005FB00625768002FF3D09168C0B2B847D0
S214000EA0EFE72246013020284FEA520201D0D3074E
S214000EB0F8D508FA00F20F2824EA0204E8D9103818
S214000EC005FB0062B432E5E7BDE8F081881100203A
S214000ED008B50C4856F0BBFC192006F021FD28B1D9
S214000EE0192006F039FD192006F00CFD1A2006F030
S214000EF017FD28B11A2006F02FFD1A2006F002FD75
S214000F00002008BDE88C05002DE9F0410E46174686
S214000F10054608B30F2921D80378DBB1013BDBB2C5
S214000F20022B1BD80F4AD35C6A78D340DB0715D553
S214000F300D4BD3F810439CB956F0DCFA80463A467F
S214000F402846314602F064FE404656F0CEFA204669
S214000F50BDE8F0817F23E7E72224F8E72124F6E7BF
S214000F600224F4E7E889050000C0035010B50446E3
S214000F7000B30378E3B1013BDBB2022B1CD80F4A67
S214000F80D35C6278D340DB0716D556F0B3FA01225D
S214000F90617823788A4030214B4341F2100103F1F7
S214000FA0A04303F570335A5056F09FFA002010BD48
S214000FB07F23E6E72220FAE72120F8E7E889050004
S214000FC010B5044600B30378E3B1013BDBB2022B55
S214000FD01CD80F4AD35C6278D340DB0716D556F090
S214000FE089FA0122617823788A4030214B4342F205
S214000FF0100103F1A04303F570335A5056F075FA0A
S214001000002010BD7F23E6E72220FAE72120F8E73C
S214001010E889050038B50D46044608B301B30378E1
S214001020E3B1013BDBB2022B1CD80F4AD35C6278DB
S214001030D340DB0716D556F05DFA302223785343AB
S21400104003F1A04303F570331B696278D34003F0C5
S21400105001032B7056F049FA002038BD7F23E6E7DF
S2140010602220FAE72120F8E7E889050038B50D4682
S214001070044608B301B30378E3B1013BDBB2022BAD
S2140010801CD80F4AD35C6278D340DB0716D556F0DF
S21400109031FA30222378534303F1A04303F570332B
S2140010A05B696278D34003F001032B7056F01DFA9B
S2140010B0002038BD7F23E6E72220FAE72120F8E764
S2140010C0E88905002DE9F0410D4616469846044687
S2140010D0002854D0002952D00278002A46D0531E49
S2140010E0DBB2022B03D9FF2A07D0212045E0254A90
S2140010F0D35C4278D340DA07F7D5022E01D9042E06
S214001100F3D156F0F7F923780746FF2B05D0324681
S2140011102046296802F0C2FD28602B68013309D1F9
S2140011202378FF2B06D1184B6078D3F824143FF0B1
S21400113062FF286029684B1C1BD00C23134A03FB54
S2140011400121C1F80480296803FB0122069B9360F5
S2140011502378FF2B05D001232A6893400C4AC2F857
S2140011602434384656F0C1F9002006E07F23427842
S214001170C0E7384656F0B9F92D20BDE8F0812220A8
S214001180FBE700BFE889050000C003508811002077
S21400119000D0035010B5044656F0ACF9034BC3F824
S2140011A0244456F0A2F9002010BD00BF00D0035022
S2140011B010B5044656F09EF9034BC3F8244456F087
S2140011C094F9002010BD00BF00E0035008B502F0FF
S2140011D015FD044B00F05530C3F82004BDE8084068
S2140011E0FFF748BE00E0035008B502F007FD044BC9
S2140011F000F0AA30C3F82004BDE80840FFF73ABE66
S21400120000E0035013B504460A4856F020FBA278C7
S2140012100421B2FA82F2237852098DF804306378FA
S2140012200DEB01008DF80530FFF76EFE002002B0D2
S21400123010BD00BFE88C050038B5124B05461B787C
S214001240DBB1E0B156F056F90F4A00231146147B85
S21400125054B92B6001251A0101EB03131D738C5042
S21400126056F043F9204638BD0133082B02F1100230
S214001270EDD156F03AF90548F5E70548F3E7054895
S214001280F1E700BFB7870020F0130020048000F0CD
S214001290028000F0018000F0154B13B5186800239B
S2140012A001908DF8043056F025F9124B1C7824B1C5
S2140012B056F01BF9104802B010BD01221A7056F005
S2140012C014F90E4B01A81C731C7783F82C4083F886
S2140012D03C4083F84C4083F85C4083F86C4083F8CD
S2140012E07C4008238DF8073002F072FB2046E2E7C8
S2140012F0EB890500B7870020038000F0F01300207C
S2140013002DE9F041174B1F6D5B6D1F4000D5FEE7C2
S21400131001260025144CDFF85880374218D0C8F84C
S21400132050602368A3B1A168284601316268A160B5
S2140013309847637B012B0BD150B90C4B03EB45133D
S2140013401A7B60F341021A731A7F60F341021A7720
S2140013500135082D4FEA460604F11004DDD1BDE83C
S214001360F08100BF00000450F0130020F0120020AF
S214001370002004502DE9F04F144605460E469B46C5
S214001380C36B87B001225B6902A960689847EB6B64
S21400139001225B6903A93046984702A83FF01FFC6C
S2140013A0074648B10023A37563754FF0FF33A3606B
S2140013B0002007B0BDE8F08F03A83FF01DFC012316
S2140013C0A375237E04EBC303DE611F846368B34208
S2140013D00ED1206003A83FF031FC4FF0FF3320759C
S2140013E0A360237D043B022B26D80023A375DFE7EA
S2140013F023681A1A53425341A37503A83FF01EFCF4
S214001400237D834218BFA77503A83FF0F9FB074664
S21400141002A83FF0F5FB874218BF002303A818BFB9
S214001420A3753FF0F5FB074602A83FF0F1FB8742A5
S2140014301CBF0023A375D4E703A83FF0E1FB80B1EF
S214001440EB6B022230465B6904A9984704A83FF07C
S214001450E6FB0346207D032839D8DFE800F038385D
S214001460040903A8F3E7CC22237E04EBC3031A8403
S21400147001F0F2FA109B187003A8277E3FF0B4FB29
S21400148004EBC70787F82200237E03A804EBC303F8
S214001490B3F8209093F822703FF0B2FB804603A882
S2140014A03FF0B6FB8246B8F1000F15D0EB6B022278
S2140014B030465B6904A9984704A83FF075FB607541
S2140014C0637D6BB90023A3754FF0000839E0227ED8
S2140014D004EBC2021384CBE703A83FF050FBEEE711
S2140014E094F81680B8F1000FEED0B9F1000F09D1CC
S2140014F0E7B10123627EE375002A45D19F4219D1E8
S214001500677615E06B6C06EB0A025B4286EA020120
S2140015100B421CBF0023A3756B6C591E0A409B1A16
S2140015209945CFD8A37D002BE2D1CDE7E37D43B923
S2140015304FF000084B465246314628463FF03AF8F0
S214001540A060A27D12B123694B4423611349237E18
S214001550097899421ED901332376BBF1000F1BD0C0
S214001560D2B1E37DC3B1B8F1000F15D1032F13D06C
S214001570A1684B1C10D0109B2246009328460123DE
S214001580FFF7F8FEA07507E0012FDAD0032F08BF9B
S214001590A376CDE70023A375A07D0AE7108A050091
S2140015A02DE9F04F0E46984600238BB004464FF0C8
S2140015B0FF31104617468DF8133001F037FAB6F5AE
S2140015C0801F3BD3B21C53D1E56A6B1C57D1204613
S2140015D0616A3EF035FF0546B31C18BF0123DFF8ED
S2140015E010910193636A626C0293236805A902FB5B
S2140015F0053AE36B05225B695046984705A83FF01D
S21400160089FB3FF0ACFB50463FF0B4FB4FF0000BBD
S214001610824601464B1C05D0636C81EA0A025B4297
S214001620134232D0294620463EF00AFF029BAB42C8
S2140016304DD0BBF1000F4DD10546D3E7314605AA84
S21400164004F108003FF01DFA0146481C10D0384649
S21400165001F0ECF90122394620460DF113033EF065
S214001660FBFF28B19DF8133088F80030002003E017
S214001670237C002BA8D12D200BB0BDE8F08F23686B
S214001680ED1A636CB5FBF3F5A6E7484601F0CEF914
S2140016900DF1130349462046019A3EF0DDFF03464E
S2140016A090B1B21C03D0D9F80020B2420CD19DF8FC
S2140016B0132003930D4B88F8002049461A683846D5
S2140016C044F033FC039B9B46D9F80810A2E7BBF115
S2140016D0000FD0D0B6F5801FC8D2314698F800303B
S2140016E07A6804F1080001F0C5F8BFE70C8A050027
S2140016F0E41A00202DE9F3410446174698460E46A4
S214001700194D816AE36A8B422AD04B1C18E02846A2
S21400171001F08CF90122294620460DF107033EF020
S2140017209BFF30B14346294620469DF80720B84720
S214001730B0B1A9684A1C05D0012E0AD0E36A9942C6
S214001740E5D10DE0696820463EF007FF012E014610
S214001750D8D16B6881EA0302636C5B421A42D1D02F
S21400176002B0BDE8F08100BFB81A00202DE9F041B4
S2140017709046036B826B07689A4288BF8363426C0D
S214001780436A90B002FB0377C36B0E46052201A99D
S2140017905B6904463846984701A83FF0BBFA012823
S2140017A00146307057D0656CE26B2368606AD2F8E9
S2140017B014C005FB0030052206A9E04706A83FF046
S2140017C0A9FA01284FF0000523D0D4E90A320121F6
S2140017D09342CDE90B458DF834800E958DF83C107C
S2140017E02AD1194620463EF0B8FE236B626C1433AD
S2140017F09B1AE06223630C9B53B99DF83C303BB1C7
S214001800626A616C2368E06B01FB02313FF03AFAD2
S2140018100C9DE36B05225B6901A93846984701A831
S2140018203FF078FA30702846236BA26B9A4288BF46
S214001830A36310B0BDE8F081237C33B91C490BAA22
S21400184004F1080001F06EF8D5E72046194A0BAB04
S214001850FFF750FFCFE7237C23BB2246164904F14F
S214001860080001F05FF8616A20463EF00AFE616AF1
S214001870421C20463EF0D3FD054620B9236B626C21
S2140018801344143B23632046A16A3EF066FE236899
S214001890A062C01A636CB0FBF3F0606220463EF0B4
S2140018A09FFEB6E700232046044AFFF723FFDAE749
S2140018B0E11F00005D1F0000E30604007D06040033
S2140018C073B50D46D11E4A421C461B7E4A419A42BB
S2140018D027D129682368994223D36368994220D880
S2140018E0114E0DF107033246FFF75AFEC8B972686B
S2140018F06B689A4215D19DF80730DA1E5342534161
S214001900227E93420DD1636901336361D4E90323D8
S214001910934206D22968A26842F82310236901334D
S2140019202361012002B070BD101B00202DE9F04F8E
S2140019309A468BB09DF85030DFF850B10293DBF832
S2140019401030804653450D461646C0F09980D14665
S214001950DBF804300193B9F1000F00F08D80D8F861
S2140019603C3001225B6907A90198984707A83FF019
S21400197043F9DBF80030984240F0858007A83FF036
S21400198047F90428074614D107A83FF048F9019BF9
S214001990029A04463B44002A3FD1864212D9144696
S2140019A0361A404601993EF0D8FDA9EB040901908D
S2140019B0D1E7D8F83C3002225B69019808A998471D
S2140019C008A8E2E7841B544528BF5446032C03EBC3
S2140019D00607AAEB040A4FEA94021CD9D8F83C3052
S2140019E0294638465B69984724F0030304F003064B
S2140019F01F441D44002ED4D0D8F83C3001225B6929
S214001A0008A9384698473246284608A9354444F07F
S214001A108CFA0026C5E72646ECE7074600F00302E8
S214001A20039203442A1804920593049BDD1B059B2E
S214001A30D81B039B9F420FD1002FB2D0D8F83C3062
S214001A40012208A95B6998473A46284608A944F047
S214001A5037FA78B93D44A4E7D8F83C30012208A903
S214001A605B6998470422284608A944F029FA08B971
S214001A70043FDAE74FF0360948460BB0BDE8F08F72
S214001A804FF06309F8E74FF06F09F5E73C1B0020BD
S214001A902DE9F0410F4616469846044688B060B3D6
S214001AA090F83450FDB101213EF08FFC00210E9BD2
S214001AB0CDE90511CDE902379DF83C30CDF804801C
S214001AC08DF81C30237C04968BB90D4901AA04F1CD
S214001AD0080000F027FFDDE90553E06B002E08BF85
S214001AE01D463EF00CFE284608B0BDE8F0812046B4
S214001AF0044A01ABFFF7FEFDEDE70546F3E700BF3E
S214001B00AB060400C11800002DE9F04F99B00F464F
S214001B1009920A69416C0E931439D31DB3FBF1F395
S214001B20013302EBC302036B04469342C0F0B38159
S214001B300023DFF824940D93E36A4846194607937A
S214001B4000F074FFD7E9033604930E9B022B4ED1A8
S214001B50CC2E40F08A81099B002B42D03946204685
S214001B603EF02BFE656C079A6B1E13401490ED1A20
S214001B70E36B01225B6916A97868984716A83FF0C0
S214001B803FF800280CBF04230823782E06933DD97F
S214001B90012300254FF0080A05933B6805990E9827
S214001BA0C9F80030C9F810603FF04CF84FEA9A03C5
S214001BB010930023DDF81CB089F814000B930F93E4
S214001BC008930C93616C4A1E0BEA02028B1A002ED5
S214001BD038D05544AB4240D8236B5B1A134423637A
S214001BE0ABE0049B1B68149308230693D0E7656C50
S214001BF0079A6B1E1340782EA5EB030516D8FB7DBF
S214001C007BB9099B002BB3D104230693331DAB424B
S214001C1010D9A6B1082DBBD804250023AA460593E3
S214001C20BBE7099B002BA3D10823EEE7099B002BFB
S214001C309ED1D9E7002505954FF0040AADE70425A7
S214001C400596F9E75345C7D3B0460BEB0A03039353
S214001C50089B002B18BF032313E0A3EB0A039E4246
S214001C60B0460BEB0A0228BF98469E420392EFD975
S214001C700123D9F8102089F81730964271D1C9F897
S214001C8004B0089399F81730002B6CD099F81820F8
S214001C900899D31C09EBC3030132C3F804B0A3F8B8
S214001CA00880997289F81820B8F1000F14D00E9B9E
S214001CB0022B5BD10B9B7BB90F9B4344032B0BD9A9
S214001CC0E36B01229B69039814A9984705460028F0
S214001CD040F0E38001230B93089B16A80193059B15
S214001CE0009399F814204346396800F055FEE36BDC
S214001CF058469B69109A16A99847051E0D9B18BF53
S214001D005B4652460D935946434620463EF052FCEB
S214001D10236B08F10302A3EB0A0322F003029B1ACB
S214001D20C9F808002363002D40F0B7800F9BDDF84C
S214001D300CB04344A6EB08060F93594620463EF0E7
S214001D400CFC00258346002E7FF43CAF824A04F14B
S214001D50080093685268E36239680E9B00F08AFDBB
S214001D6084E002238DE7C9F804B09DE7099B002BA9
S214001D7030D1049BB8F1030F43440A9327D9DDE919
S214001D800301E36B4FEA98029B69984705460028D3
S214001D9065D118F003025FD0049B28F003052B449E
S214001DA00493039B1D444FF0FF33049915A8159325
S214001DB044F0BBF8E36B28469B69012215A99847B7
S214001DC005460A9B0493002D86D0039B99E742465E
S214001DD0039DE8E7039B0A9307F120031193FB7D1D
S214001DE078689BB100233D7E0C9AD9B28D4211D9FA
S214001DF0119903F1010C31F83310914226D9069956
S214001E0007EBC303D8690A44104403E00C9B069A08
S214001E1013441844E36B01225B6915A99847159B88
S214001E20012213930C9B0A9804330C93E36B13A9BB
S214001E309B699847039B0A9A43449B1A042B0546C2
S214001E4007D978B9134604330A93C8E76346521A8B
S214001E50CBE70A9B0393B6E70A9B04933CE70A9BEF
S214001E600493B2E70A9B0393AFE77026304619B097
S214001E70BDE8F08F4FF0000A4FE03A69616CD31D61
S214001E801439B3FBF1F3013302EBC302236B934225
S214001E90BFF452AE5DE01C26E8E73D2D59D104F1B3
S214001EA0080303932368079A606CA2EB030ABAFB45
S214001EB0F0FA00FB0A303EF05DFFE16A80462046FD
S214001EC03EF04BFBA26A8242D7D0626CD9F808304B
S214001ED0511E0B40216B2668891A0B4423630D9B09
S214001EE0E0629E1BB6FBF2F6B245C3D1079BB3EB8E
S214001EF0080A12D0E36B4FEA9A0241469B6998475C
S214001F008346E36A079A5344E362236B03989B1A5B
S214001F10434423633EF086FDDA462368616CE06B3B
S214001F2001FB06313EF09BFE20463EF059FA204665
S214001F303EF056FB2063BAF1000F9ED03A69616C02
S214001F40D31D1439B3FBF1F3013302EBC302904205
S214001F50A8D22E468AE700BFE41A0020032A2DE9FD
S214001F60F34106460D4617461C4606D1237A012B3A
S214001F7023D0012002B0BDE8F081DFF86080096858
S214001F8042460DF10703FFF70BFB60600028EDD11A
S214001F909DF80720237A032AE8D0D8F804106A6848
S214001FA09142E3D1012B2969D4F80CC007D172699C
S214001FB00CEB0103934202D92074207CDAE7083147
S214001FC06144E1603B46012229463046FFF79CFD0E
S214001FD060600028CAD00020CCE700BF101B00209D
S214001FE0F7B5089C032A1646256805D1237A012BE7
S214001FF022D0012003B0F0BD254F28463A460DF109
S2140020000703FFF7CDFA60600028EFD1D4F800E0B0
S2140020107868DEF82810DEF844C04840CCF10003AB
S2140020201840227AE2D1012A08D1E2683B691344BB
S2140020306A69934202D92074207CDBE7DEF8002030
S214002040DEF82C30891A9B1AB3FBFCF3B1FBFCF1CB
S2140020508B420DD1696CEB6A4A1E13402A6B521AEA
S21400206013442B6325682846A96A3EF076FAE86290
S2140020703A69E36808321344E360012233460449B0
S2140020802068FFF741FD60600028AFD00020B1E770
S214002090101B00202DE9F04F4FF0FF334FF6FF7274
S2140020A00025044600F10806C0E909238BB0C36288
S2140020B00562056330460F463EF0B4FC20463EF00F
S2140020C08FF920BB204639463EF00AFA20463EF0FD
S2140020D087F920BB5E200BB0BDE8F08FE26B23686B
S2140020E0606CD2F814C000FB0530052205A9E04755
S2140020F005A83EF00FFE012828D1294620463EF0CE
S214002100C0F9421C294620463EF089F90135E369AC
S2140021109D42E3D320463EF063F90028D2D0002546
S2140021204FF0FF394FF6FF73CA46A846C4E9085376
S214002130E369984514D3A5EB0905012D36D84FF66B
S214002140FF72636A934246D16720C4E73EF00CFEF6
S2140021500028DBD0294620463EF093F90246D1E718
S2140021602368E26B606C576900FB0830052205A9FE
S214002170B84705A83EF0CEFD834605A83EF0A1FD73
S214002180074658463EF0EBFD68B1574538BFC4F8E1
S2140021902480B94528BFB946BD4238BF3D46BA4639
S2140021A0236A0133236208F10108C1E74FF6FF7383
S2140021B000256362E3699D42C1D2676C2068E36BC9
S2140021C0052207FB05005B6905A9984705A83EF0B0
S2140021D078FD0135EEE7E26B676C2068694607FB21
S2140021E0030055690522A84768463EF06AFD626A04
S2140021F02368606C504D00FB02303EF0BBFD4FF094
S214002200FF33A062E3622A466FF00101204605AB69
S214002210FFF7C6F900284FD1AD6829462046E5628B
S2140022203EF0BAF8206320B92046E16A3EF095F900
S214002230E062294620463EF090F90546A36A9D4294
S2140022403CD16569626CE91C143AB1FBF2F14FF0BF
S214002250000805EBC1050335B5FBF2F5C1460235AE
S214002260E36999453CD3A8455AD22046616A3EF0B8
S214002270E7F80027064604F1400AB84512D8626C13
S2140022802368694602FB0639E36B05225B6948460C
S214002290984768463EF015FD534602464946E06BB1
S2140022A03EF06AFD314620463EF0CAF80137AF429E
S2140022B00646E2D364200EE7A56AAEE72946204626
S2140022C03EF06AF8236B29460344074623632046FC
S2140022D03EF043F90546002FB0D1C4E90B07ADE741
S2140022E0636C2768052203FB0977E36B05A95B6926
S2140022F03846984705A83EF00DFD3EF030FD60B12B
S21400230038463EF037FD014620463EF045F8636C01
S214002310143B984208BF08F1010809F101099FE73C
S21400232030463EF07FFB002320461946034AFFF75F
S214002330E1F90020CFE600BF101B0020470604008E
S2140023402DE9F0410025634B0E46D3F80080044685
S2140023501D6018B921252846BDE8F08190F8347034
S21400236007B30A6803689A4240F0AA804A6843683E
S2140023709A4240F0A5808A6883689A4240F0A0801E
S214002380CA68C3689A4240F09B800A6943699A42C9
S21400239040F096808A69C36B9A4240F091804B6900
S2140023A08361D8E7856B6822394643F0B3FDA563A1
S2140023B0336804F1080023607368636033696361FF
S2140023C07369A361D6E902123EF03EFBB36904F1DD
S2140023D04000E3639B68984720B9676C17B1636851
S2140023E0B3FBF7F794F84330E761002BB2D0002335
S2140023F0656C2366002D6BD0002F69D02368B3FB75
S214002400F5F205FB1233002B5CD16768B7FBF5F6D7
S21400241005FB1676002E55D120463DF0ADFFA3698C
S214002420043303449F424FD340F634726369CC3B77
S21400243093424BD8B5F5805F4AD3032120463DF042
S214002440C4FFD4E90001E36B1B6898470546E36BBD
S2140024500220DB6898472DB184F83460E06B3EF0CC
S2140024604EF978E741462046FFF714FE64280546F5
S21400247004D141462046FFF70DFE0546636C143B2B
S214002480D5B9226A204602FB03F63DF075FFA36924
S214002490043303449E4203D284F834505A25DDE7C1
S2140024A00123D4E900010C4A84F834301368013360
S2140024B013603EF063FBD1E7002384F83430CDE7A9
S2140024C05D2548E7592546E75A2544E75F2542E754
S2140024D05B2540E774140020701400202DE9FF41AE
S2140024E00C4616461F46054680B390F834307BB33C
S2140024F0B1F5801F2ED2DFF8608001213DF065FF28
S2140025002146424628460DF10F03FFF749F80446D8
S21400251070B99DF80F30012B11D1D8F81030BB429E
S21400252012D10246009031462846FFF7FFF90446CE
S214002530E86B3EF0E4F8204604B0BDE8F081022BDC
S21400254014BF2D246024F3E76324F1E72124F2E787
S2140025501124F0E72924EEE73C1B00202DE9F04388
S21400256085B00C4617461E460546DDF8308098B303
S21400257090F8343093B3B1F5801F31D2DFF8649011
S21400258001213DF022FF21464A4628460DF10F0361
S214002590FFF706F8044688B99DF80F30012B14D1D2
S2140025A0D9F8102006EB08039A4213D3009043464E
S2140025B0324639462846FFF7B9F90446E86B3EF03E
S2140025C09EF8204605B0BDE8F083022B14BF2D24EC
S2140025D06024F3E76324F1E72124F2E71124F0E70F
S2140025E02924EEE73C1B00202DE9F3411F4600237B
S2140025F00C46164605463B6050B390F834304BB355
S214002600B1F5801F28D2DFF8548001213DF0DDFEB1
S2140026102146424628460DF10703FEF7C1FF044651
S214002620A0B99DF80730032B10D0022B0AD1012346
S214002630336004233B60E86B3EF061F8204602B04E
S214002640BDE8F0813060D8F81030F3E72D24F2E7CB
S2140026502124F3E71124F1E72924EFE73C1B0020AF
S21400266073B50446056B3DF087FE636E03449D42DA
S2140026708CBF00230123854294BF00252D1A207CA1
S21400268084F85030656584F85800A8B100230C4ED5
S2140026901A461946204600963EF05CF90023054689
S2140026A01A461946204600963EF05DF9E36828442F
S2140026B0984294BF0020C01AE06502B070BD00BF0B
S2140026C0FFFF0F002DE9F3471E4643690446B34259
S2140026D0884617469DF828904ED300258DF807505B
S2140026E020463DF049FED4F830A082450AD2236A3F
S2140026F0B5EB430F06D2002220460DF10701FFF787
S21400270035F8B8B39DF80730012B05D100222046D6
S2140027100DF10701FFF72AF8B9F1030F06D031468D
S21400272020463DF014FE256B854227D3144D4FF00E
S214002730FF31284600F07AF94B462946002220460B
S214002740C5E90376C5F80080FFF7DEF9236E054677
S21400275063B12046FFF784FF94F8503013B994F81D
S21400276058301BB1236E04F150009847284602B03B
S214002770BDE8F0870135B3E76225F7E71C25F5E7E6
S214002780101B00202DE9FF410F4690461E460546C9
S21400279098B390F8343093B3B1F5801F31D21A4C09
S2140027A002213DF012FE2246394628460DF10F035F
S2140027B0FEF7F6FE024678B10123424600933946FC
S2140027C033462846FFF77EFF0446E86B3DF097FF4A
S2140027D0204604B0BDE8F0819DF80F30012BEBD108
S2140027E02169B142E8D10093414633462846FFF7B7
S2140027F09DF804460028DFD1E7E72124E8E7112406
S214002800E6E72924E4E700BF3C1B002030B50C4671
S214002810054685B028B390F8343023B3B1F5801F51
S21400282023D202213DF0D1FD0DF10F0321462846AB
S2140028300F4AFEF7B5FE034688B99DF80F20032A17
S2140028400DD003222146009202462846FFF73AFFA3
S2140028500446E86B3DF053FF204605B030BD2D24FE
S214002860F7E72124F8E71124F6E72924F4E700BF68
S2140028703C1B00202DE9F0414668002E3AD0056842
S21400288098464FF0000CAE4655F83C40C4F313078C
S214002890013401D0B94222D00CF1010C66450EF18C
S2140028A0080EF1D100273C4603E0A64207F10807D0
S2140028B01DD055F8343001340133F6D16FEA0131BA
S2140028C06FEA1131E9510168CB59C3F3130343EAA8
S2140028D00853CB5103683B445A60BDE8F08141EA97
S2140028E00851CEF80010036803EBCC03F4E7B8F108
S2140028F0030F03D101230372BDE8F08100273C4695
S21400290003E0A64207F10807F4D055F83430013446
S214002910C3F3075CBCF1030FF3D11B0D1B050B4380
S214002920EB51D0E72DE9F0410646406882B0C0B1D1
S2140029300F4690460024336853F8345003EBC40324
S214002940C5F30752C5F31301013504F1010406D09F
S2140029505B683046CDF80080B84710B17068844296
S214002960E9D302B0BDE8F081024B1968024B186843
S214002970FFF7E6BCE40701200408012008B554F080
S214002980A6FD014B186008BD681B0020014B1868A7
S21400299054F098BD681B002073B504462248012AEF
S2140029A000EAC1119DF8185023F07C4007D9961E06
S2140029B0012E28D9073303F07F03194308E09DF85A
S2140029C01C300A43DB0603F0C053134343F0604158
S2140029D00023C4E900108DF80730B5B12022214647
S2140029E00DF107003EF0E2F91A220DF10700211D55
S2140029F03EF0DCF9082063689DF8072043EA82630E
S214002A00636002B070BD1143E2E71B220DF10700C0
S214002A1021463EF0CBF923689DF80720042043EAC0
S214002A20C2632360EDE700BF80FFFF0738B5094BA0
S214002A300D461A680021044643F06CFA4FF0FF3248
S214002A400023C4E900252361A260E3822383A376E2
S214002A5038BD00BF0C8A05000138C0B205289ABFF1
S214002A60014B185C01207047118A05002DE9F041E2
S214002A700746154600240E46596888B0490A0129BB
S214002A8022464FEA510104F10104F8D8DC7899781F
S214002A9024031B88C90201F4006104F480540C432B
S214002AA0C3F30A035203234492B24FF000089C1863
S214002AB0274B6FEA0444039325F07843ED4302A9BD
S214002AC00DF107001B2202938DF807803EF06EF989
S214002AD09DF80720029B02A943EAC2630DF1070096
S214002AE01B2225F07845049302958DF807803EF06A
S214002AF05DF99DF80720029B6FEA144443EAC2631F
S214002B0005934FF0FF330794069307A9BB6901228C
S214002B1006F110009847BB6905A90446012206F194
S214002B2008009847BB69404518BF044604A901221F
S214002B30301D98470122404518BF0446BB69304601
S214002B4003A99847404508BF204608B0BDE8F08175
S214002B5001009AB2F0B50546704F89B001AE0C463A
S214002B600FCF0FC697E8070086E80700002D00F095
S214002B70D28014B96A4809B0F0BD0026842200212C
S214002B80284643F0C7F9AE652368664A934200F0CC
S214002B90998002F58042934200F0998002F58042C7
S214002BA09342E7D14FF4C02302265F495F4AC5E946
S214002BB00B2329652368A4462B6000232F1D85F868
S214002BC05C30BCE80F000FC79CE80F0087E80F00DA
S214002BD0637E012B08BF8DF81230A37E3BB1012B1C
S214002BE07BD0022B7CD0032BC4D14FF44073ADF8BE
S214002BF01430237E4E48012B03BF00238DF811307E
S214002C004FF4E133E368039354F021FE2B6D98688C
S214002C1054F01DFE23691A1F0C2AABD8033B20680C
S214002C2001A98DF810303EF07DF9A36923F47F03E7
S214002C3023F47F432BB94FF480322B6803F580537F
S214002C409A60237A217906F12E0241EA0341394B34
S214002C50E07E03EB42125160617A6279760142EAC5
S214002C60014200283FD11E44C6F8BC25A27AA379AB
S214002C7043EA0243C6F8C035E27AE37943EA024300
S214002C80C6F8B0351D23C6F8AC35012128463EF0FF
S214002C90ABF800287FF46FAF54F02CFC264B1A7864
S214002CA072BB01221A7054F020FC05F091F8FEF772
S214002CB0F3FA002105F12400FEF7BEFA014610B330
S214002CC01E4858E74FF480231D491E4A6FE74FF40D
S214002CD0A02301261C491D4A69E74FF4007386E7C6
S214002CE04FF4807383E73344C3F8BC25A17AA279F6
S214002CF042EA0142C3F8C0251C22C3F8AC25C4E74B
S214002D0054F0F3FBD3E705F12800FEF795FA002808
S214002D103FF431AFD4E70E482DE700BF188A050010
S214002D20022000F000800550B08C0500020006006E
S214002D30E88C050000C00350B8870020092000F08A
S214002D40C88C050002000400BC8C050002000500CB
S214002D50012000F000210846F0B52F4C2F4A2368CA
S214002D60156845B11D68002D4BD09D889688AE42EB
S214002D7084BF134601210130052802F10802EFD175
S214002D8001B1236000210D462548264A03681668CF
S214002D9046B11E68002E37D09E889788B7423CBF43
S214002DA0134601210135052D02F10802EFD101B1CC
S214002DB0036023681A6852B31B499C888A6F1B4BB2
S214002DC022F0FF7203EA044322F4803213438B6737
S214002DD04FF050234FF000429A6603681A68C2B15B
S214002DE011499B888A6FC3F3080322F4FF7222F00E
S214002DF0010213438B674FF050234FF080429A66D0
S214002E00F0BD13460121B6E713460121CAE7084B79
S214002E10E0E7074BF1E700BF701B00209C1B00207B
S214002E206C1B0020741B0020004000500000FF01B7
S214002E300060005008B500F0B9FDDFED117AB4EE81
S214002E40E70AF1EE10FA17D4DFED0E7AB4EE670A51
S214002E50F1EE10FA37FE800AF6EE007A30EE270A18
S214002E60DFED097A30EE270ABDEEC00A10EE103A02
S214002E70A3F1800040B208BDB0EE670AECE700BFE1
S214002E80000000C30000FE420000004310B5164AD2
S214002E90936E526E134013F0804113D0134B186894
S214002EA004683CB10021082243F034F8FFF7C2FF63
S214002EB00021A0474FF080420D4B5A66BDE81040F7
S214002EC0FFF748BF002BF9DA0A4B1868046834B1DC
S214002ED0082243F01FF8FFF7ADFF0121A0474FF08F
S214002EE00042034BE9E700BF004000506C1B002087
S214002EF000600050701B002038B5104B0546D3F814
S214002F0000310C4603F00303022B0BD0032B0DD02D
S214002F10012B0FD152F000F8032305B1286004B14D
S214002F20236038BD52F046F80723F6E751F0FAFF63
S214002F300623F2E701230020EFE700BF00800050E1
S214002F4038B5134B0546D3F820010C4600F00700B1
S214002F5004281AD8DFE800F003090D111500012334
S214002F6005B1286004B1236038BD51F095FF0423F5
S214002F70F6E751F0D1FF0323F2E751F0D7FF052320
S214002F80EEE751F0C5FF0223EAE700231846E7E71D
S214002F900080005038B5104B0546D3F840310C463B
S214002FA003F00303022B0BD0032B0DD0012B0FD104
S214002FB054F0B3FA082305B1286004B1236038BD85
S214002FC051F0F8FF0723F6E754F0AAFA0923F2E7D0
S214002FD001230020EFE700BF0080005038B5104BFB
S214002FE00546D3F860310C4603F00303022B0BD0E2
S214002FF0032B0DD0012B0FD154F08FFA082305B107
S214003000286004B1236038BD51F0D4FF0723F6E7EB
S21400301054F086FA0923F2E701230020EFE700BF09
S2140030200080005041F6713330B5124A124DD46913
S214003030D3639368A84204F4803423F4401306D87C
S21400304093600E4AD2F8183223F002030AE043F4E3
S214003050801393600A4B9842F3D9084AD2F8183284
S21400306043F00203C2F8183214B10022014BDA63AF
S21400307030BD00BF00000350005A620200C0075077
S21400308080F0FA022E4B98424AD022D82D4B984216
S21400309040D014D82C4B984239D00AD82B4B9842A3
S2140030A032D02B4B98422FD02A4B98422CD000205F
S2140030B07047294B9842FAD1284B186F7047284B17
S2140030C098422AD0274B9842F1D1244BD3F880005F
S2140030D07047254B98422BD009D8244B984223D0D2
S2140030E0234B9842E3D11D4BD3F88C007047214BFD
S2140030F0984221D003F5740303F510539842D6D1B5
S214003100164BD3F898007047144B986D7047134BC6
S214003110586E7047114B586F7047104B986F70473A
S2140031200E4BD3F8840070470C4BD3F888007047DA
S2140031300A4BD3F890007047084BD3F894007047BA
S2140031400048E8010024F400C0CF6A0080841E0016
S21400315000093D0040420F00405DC6000080E00FC1
S214003160C0EA210180BA8C01007E560380D5430256
S214003170006CDC020090D00337B50C460021114BE2
S2140031800191D3F88031054603F00303022B0ED0DD
S214003190032B11D0012B03D101A8FFF7D1FE0D217F
S2140031A00DB1019B2B6004B1216003B030BD51F01E
S2140031B0BDFE05210190F3E751F0AAFE0221019021
S2140031C0EEE700BF0080005038B5104B0546D3F838
S2140031D040320C4603F00303022B0BD0032B0DD01A
S2140031E0012B0FD154F099F9082305B1286004B1DA
S2140031F0236038BD51F0DEFE0723F6E754F090F961
S2140032000923F2E700231846EFE700BF00800050CE
S21400321038B5144B0546D3F800020C4600F00700FC
S21400322004281BD8DFE800F003090D111500012360
S21400323005B1286004B1236038BD54F06EF9082348
S214003240F6E751F0B7FE0723F2E754F069F90923D1
S214003250EEE751F047FE0C23800AE9E70023184604
S214003260E6E700BF0080005038B5144B0546D3F89B
S21400327008020C4600F0070004281BD8DFE800F020
S21400328003090D111500012305B1286004B1236060
S21400329038BD54F042F90823F6E751F08BFE0723B9
S2140032A0F2E754F03DF90923EEE751F01BFE0C233C
S2140032B0800AE9E700231846E6E700BF00800050D2
S2140032C0032814D005D8012805D0022809D00020EC
S2140032D005E00F28FBD1084B186FC0F30130013012
S2140032E07047054BD3F89000C0F30460F7E7024B35
S2140032F0186FC0F38020F2E7008000501FB500234F
S2140033000193252817D8DFE800F0131A1D272C365E
S2140033103B51565B60656A78161A401616561A2791
S2140033202C27361A5127783B3B3B3B2727275B60E9
S21400333051F0B8FD0190019805B05DF804FB51F01E
S214003340D1FDF7E751F0AEFD02460220FFF7B8FFC9
S214003350B2FBF0F20192EEE751F0C4FD0246032004
S214003360F4E751F0BFFD02460320FFF7A9FFB2FBCA
S214003370F0F25208EEE7002101A8FFF7FDFEDAE7BB
S214003380002101A8FFF7DCFDD5E702934FF0E0230C
S2140033901B695B0705D551F0A5FD0290029B0193C2
S2140033A0C9E703A902A8FFF7F5FDF7E7002101A882
S2140033B0FFF7F0FDBFE7002101A8FFF70FFEBAE711
S2140033C0002101A8FFF724FFB5E7002101A8FFF7B9
S2140033D04BFFB0E7002101A8FFF78EFDABE7094BD6
S2140033E0D3F8803003F00303022BA8D0032B01D0C0
S2140033F000209FE751F09AFD9CE7002101A8FFF707
S214003400E3FE98E70080005008B50120FFF776FF3E
S214003410BDE808400349884294BF012102210320E9
S21400342000F002B880F0FA02032810B50C4627D048
S21400343004D8012804D0022817D010BD0F28FCD1CC
S2140034403DF049FD3DF04FFD124A013C136F23F459
S214003450405343EA0433136751F044FD0021FFF75D
S214003460E1FDBDE81040FFF7CFBF0A4A4C1ED2F878
S214003470903023F0F85343EA0463C2F89030DCE758
S214003480044A4C1E136F23F4806343EA84231367B5
S214003490D3E700BF008000501FB500230193252806
S2140034A021D8DFE800F013202020202A2F454A4F9D
S2140034B054595E7120203420204A202020202A20C3
S2140034C04520712F2F2F2F2020204F54314B1B6F5C
S2140034D003F00703013B032B05D8DFE803F00C02DB
S2140034E0080A04230193019805B05DF804FB032342
S2140034F0F8E70623F6E70223F4E7002001A9FFF722
S2140035003BFEF0E7002001A9FFF71AFDEBE7029368
S2140035104FF0E0231B695B0705D551F0E3FC0B2356
S2140035200393039BDEE703A902A8FFF733FDF8E742
S214003530002001A9FFF72EFDD5E7002001A9FFF71F
S2140035404DFDD0E7002001A9FFF762FECBE7002083
S21400355001A9FFF789FEC6E7002001A9FFF7CCFC0A
S214003560C1E70C4BD3F8803003F00303022B03D0E3
S214003570032B05D00023B5E751F0B4FC0B23B1E7CD
S21400358051F0D4FC0523ADE7002001A9FFF71CFE8F
S214003590A9E700BF0080005008B50320FFF790FEA3
S2140035A0034B18703DF097FCBDE808403DF09BBC0F
S2140035B0B987002010B5044651F094FC0021FFF7AF
S2140035C031FD1CB1BDE81040FFF71EBF034B0320C2
S2140035D0BDE810401978FFF727BF00BFB987002065
S2140035E0024A536A23F001035362704700C0075033
S2140035F008B5FFF751FF07280ABF024B4FF6FF70CA
S214003600188808BD4E12012008B5FFF745FF0328AD
S2140036100ABF024B4FF6FF70188808BD4C120120F7
S21400362038B50546FFF72EFD204B04465A68012A9A
S21400363004D11F494A609A699207FCD10020FFF71F
S2140036402BFF042803D13DF046FC3DF04CFC194A04
S21400365024F0407395421FD0174A95421FD0174A50
S214003660D16811F0060FFBD19068936091684B40CB
S21400367013F4F81F16D12846FDF780FB0020FFF74D
S2140036800BFF042810D151F02DFC0021FFF7CAFCD7
S214003690BDE83840FFF7B8BE43F00073DFE743F0FD
S2140036A08073DCE79060E9E738BD00BF00C00150DA
S2140036B000E0015040420F0080841E0000000150D0
S2140036C010B504460020FFF7E7FE03287AD045F63B
S2140036D00E030221434AC2F88030434B996201210F
S2140036E003F580539962936DD903FCD4D4E9001393
S2140036F01B0543EA0163E17B0B43217B43EA01435D
S214003700617B43EA0133A17B43EA8113136191692C
S214003710D4E904031B0643EA806301F000410B432F
S214003720A17E0B43217E43EA0143617E43EA0123E7
S2140037309361136AE16923F00D030B43003918BF48
S2140037400121E07E43EA800343EAC1031362E36992
S21400375094F82000002B36D194F82130916A1B0192
S21400376021F0330143EA40130B4343F00103936215
S2140037701E491C4A936D31EA0303FBD102211A4B02
S2140037809962936D5B00FCD41369A16823F47003FF
S21400379043EA015313614FF00042134B9A6194F8C9
S2140037A0223013B90222124B9A6294F8233013B9CE
S2140037B001220F4B9A6294F824301BB1094B0D4A34
S2140037C0C3F8802010BD936A94F8231023F03303C7
S2140037D00B4394F8221043EA401343EA41039362F2
S2140037E0E9E700BF00C0005000D0005003000140D1
S2140037F000E00050F1A7FFFF014B93F9000070476F
S214003800BA8700204FF4D15110B50224174A4378E6
S214003810516217494F2B4C604FF0010428BF4F23CD
S21400382001F580514C601169C903FCD4017843EA64
S21400383001235361D0E901131B0143EA0123417BB5
S2140038400B43017B43EA41039360C37B817B1B01EF
S21400385043EA4113417C0B43017C43EA4103536036
S214003860837C13B16FF4D153536210BD0000025035
S21400387000100250014B1880704700BF4E12012006
S214003880014B1880704700BF4C120120284B98420D
S21400389042D01AD8A3F5B703A3F55863984237D099
S2140038A00CD8244B984225D0234B98422AD0234B41
S2140038B0984217D00023224A93607047214B9842C3
S2140038C0F8D1214BD3F8BC301FE0204B984227D0CC
S2140038D01F4B984228D01F4B9842EBD11A4BD3F877
S2140038E0C83012E0184BD3F8A03023F0407343F0F2
S2140038F00073E0E7144BD3F8A03023F0407343F096
S2140039008073D8E7104BD3F8A03023F04073D2E78B
S2140039100D4BD3F8B830F8E70B4BD3F8C030F4E7CC
S214003920094BD3F8CC30F0E7074BD3F8D030ECE7B0
S214003930C0EA210180841E0000093D0040420F00BD
S2140039400040015A0024F4000080E00F0048E8011F
S214003950005A620280BA8C0110B50C4A04461369FC
S21400396043F00403136152F06FF83DF0C0FA084BC1
S214003970084AC3F8202430BF3DF0BAFA04F066F9CE
S2140039801CB9BDE8104051F0ADBA10BD00ED00E026
S21400399000E003500000FFFF034A0179D36E23F0D6
S2140039A030030B43D366704700400050064BDFEDF4
S2140039B0077AD3F88830C3F30A0300EE103ABAEE5B
S2140039C0CF0A30EE670A70470040005033938843B2
S2140039D0012210B5114B04465A60027812069A600E
S2140039E041788278152042EA01429A61FF229A6263
S2140039F000229A631A644FF000425A654FF0FF3275
S214003A0003F500531A6503F0A7FF1520E1783FF091
S214003A1077FABDE81040152003F074BF000004508C
S214003A2041F67132034BDA63012203F50053DA6084
S214003A30704700BF0000035041F671320121044B6D
S214003A40DA6303F50052D1600022DA63704700BFE4
S214003A5000000350CB784A785B0143EA82030A7879
S214003A6013430A7943EA02130C22424302F1B0429E
S214003A7013630B78012B02BF8A78024B43F8202091
S214003A80704700BFD080035008B54FF0B0435A6867
S214003A906AB958B15B680BB13DF02DFA01210D4BA8
S214003AA059603DF028FA4FF0B043D96008BD5B6816
S214003AB00BB13DF020FA0028F0D13DF01CFA4FF093
S214003AC0B0430222DA603DF016FA0122024B5A6039
S214003AD0ECE700BF00100058002000584FF0B0413F
S214003AE010B54B680BB13DF006FA01220B4B5A603D
S214003AF08378C478934043EA840344782343047964
S214003B0043EA0413447943EAC4038B60044B5A60C7
S214003B100378C3F10203CB6010BD00BF002000583D
S214003B2000100058054B5B69C3F38512827003F0E2
S214003B303F021B0B42700370704700BF00C0075067
S214003B40014B986CD96C70470080E00F0120034B46
S214003B509B680A3303F01F03984070470080E00F0D
S214003B600D4B984208D1A3F50033C3F88411802387
S214003B7000F58050C3657047084B984204D1A3F502
S214003B801033C3F89411F2E7054B984204BFA3F52F
S214003B902033C3F8A411EAE70080055000C00550A2
S214003BA000000650012200F580535A6040F6AA63D2
S214003BB041F20502436100230D498360C365C2607C
S214003BC000F500520361C361C364916409498365CB
S214003BD0884203D103650023436506E00649884210
S214003BE0F8D001F580418842F4D001235360704735
S214003BF0FFFF01000080055000C00550034BD3F8BE
S214003C002424D3F820041040704700BF00C003509F
S214003C102DE9F0411E4B0446D3F810334B1E0E2BF5
S214003C200D4617461FD919B34FF000082046E7B1D6
S214003C3053F079FC63782678072B06EB46064FF0A0
S214003C400F014FEA061615D89B00124808FA03F231
S214003C50994030443DF0B2F9BDB920468FB1BDE879
S214003C60F04153F060BC8846E0E73DF0B6F9E1E786
S214003C708846DFE7083B9B00074808FA03F29940AE
S214003C80E7E7BDE8F0413DF0A8B9BDE8F08100BF28
S214003C9000C0035004C003500CC003502DE9F0418F
S214003CA0204B1646D3F810234A1C05460C4640788F
S214003CB004D1D3F824143DF09EF90446002C2EDBE4
S214003CC0072C14DC03274FEA84082A7807FA08F73B
S214003CD03946154802FA08F23DF070F96A78394616
S214003CE002F00302114802FA08F23DF067F90123D8
S214003CF016F0050F0E4A18BF0E4903FA04F30CBF60
S214003D00C2F81034C1F8103416F0060F18BF094A6E
S214003D10C2F814340123064AA340C2F820342046D1
S214003D20BDE8F08100C0035000C4035008C403502F
S214003D3000E0035000D00350064B5B691A0B02707C
S214003D4003F03F0242704FF6FF72C3F385134280C2
S214003D508380704700C00750014B986CD96C704741
S214003D600080E00F70B504464EF0F2FB064630B910
S214003D700FCC044D0FC594E80F0085E80F003046C1
S214003D8070BD00BFC41B002047F6FF739A42F0B513
S214003D9076D0022976D83C4B5B5C022B72D83B4D22
S214003DA0DF0005EBC304A67815F83330012E314644
S214003DB038BF0121012B16D1E078401A0021884235
S214003DC005D8012E2CBF80190130C0B2F0BD431AB1
S214003DD06568A0EB530335F913509542D4BF1946D6
S214003DE003F1FF30EBE760680028EFD0B0F9004041
S214003DF0944204DBB0F902409442B8BF144683886C
S214003E003D44FF2B19BFC8224FF0280CB0F90620FE
S214003E10B0F908C0A2EB04030CBF0126002693FBF2
S214003E20FCF333446E781BB29E4201DD002B01DAB0
S214003E30731E1BB24FF47A7C01339BB2071D5D1EC6
S214003E402DB24FEAC50E00EBC505EA88AD689E4266
S214003E5014FB025222EAE27202F15C02B2FBFCF2AE
S214003E6004DD37F8335001339542E8D200EB0E03F9
S214003E709888904228BF1046884238BF0846A4E774
S214003E80FF20A3E70020A1E7348A0500C41B00201A
S214003E900229F0B560D8314B595C02295CD8304B0A
S214003EA013F83100012816D103EBC1039C78D878AB
S214003EB0012C214638BF0121904294BFC1EB00017E
S214003EC0C1EB0201001BCAB28242C8BF00225B6877
S214003ED033F91200F0BD002A3CD003EBC103596849
S214003EE0002939D09878904202D3B1F90200F1E760
S214003EF0DC78B1F900009442ECD95C788B88013C00
S214003F00A3F1FF06734201F10405E4B2734101F127
S214003F100C07DEB2B44216D805EBC3034FF47A752D
S214003F206A43B3F902405B68D21A04EBD47302EB1F
S214003F30630292FBF4F29042CCDBB1F902009042AD
S214003F40C8DC10B2C6E737F833C05E1C9445E3D32E
S214003F503346DEE70348BDE70348BBE7348A05007F
S214003F60C41B00200CFEFFFF0080FFFF08B50448BE
S214003F70FFF7F8FEBDE8084001204EF0EDBA00BF9E
S214003F80388A05000048704750120120F8B5264BC5
S214003F901B6852F09BF8012806461CD953F02BFDEF
S214003FA0041E02DA01252846F8BD204B1B78002B9C
S214003FB037D150271E4DE819AD65EF6553F0C4FDA7
S214003FC0286680B90125012EEDD9204653F029FD3B
S214003FD00028E8DAE6E7154B1B7803F0FF04002B11
S214003FE0E7D00025DFE7134D10220021284641F0D8
S214003FF091FF05F110032A4600210120AB60EF6017
S21400400053F052FE28660028DCD0032101203EF043
S21400401077FF012003F076FC0122044B00251A707E
S214004020D1E70025D1E700BF08080120BB870020A4
S214004030481C0020E41B002008B54FF098435B6C3A
S214004040D90208D552F042F80238012803D8094BA5
S214004050186E53F0A8FE4FF098435A6CD202FCD567
S2140040605B6D054A03F4702313600120BDE8084029
S21400407003F072BCE41B0020080801202DE9F04183
S2140040808CB08846DDE912761D460446002847D0E7
S214004090002945D0002F43D0002E41D013F00F0347
S2140040A03ED120482049A360002A08BF014623626B
S2140040B0C4E90013404609A93DF023F968BB204631
S2140040C0099953F076FA2946204653F072FA694663
S2140040D0404601F0E1F800BB694620463DF031FB62
S2140040E0404603A93DF0F4F9B8B9204603A93DF0CF
S2140040F028FB06970127204645F0005506A9079796
S21400410008953DF01EFB204609A909960A970B95CF
S21400411053F078FA204650F08BFF0CB0BDE8F081E3
S2140041202120FAE700010004000101042DE9F04F08
S21400413097B0894690461F460546DDF880A00028C1
S21400414000F0BB80002900F0B8803AB1229B002B1B
S21400415000F0B380239B002B00F0AF80BAF1000F75
S21400416000F0AB80219B002B00F0A78067B13C6875
S2140041700026229B43440293464507D307B13C6082
S214004180002017B0BDE8F08F3C46F1E75CB1229BFB
S214004190219A9B5D125D01345340239A04F00F046C
S2140041A093550136E8E7A8EB060BBBF10F0F58D97D
S2140041B0434B4846C5E90034AC602C6213A93DF079
S2140041C0A0F80028DDD1284613992BF00F0B53F0EA
S2140041D0F0F95946284653F0ECF9484604A901F090
S2140041E05BF80028CDD1284604A93DF0AAFA484637
S2140041F007A93DF06DF90028C3D1284607A93DF070
S214004200A0FA012322992F4ACDF828A00B930C92EE
S2140042108A190D9228464BF000520AA90E93039273
S2140042200F923DF08EFA28460DA93DF08AFA239BA0
S214004230039A99190123109111931292214A284644
S21400424010A9CDF84CA01493159253F0DBF928462C
S21400425013A953F0D7F9284650F0EAFE5E4400282A
S2140042608FD1229B03EB060B239B1E44029B5B45D0
S21400427001D1464680E7ACB9219B2246CDE900A392
S214004280494610232846FFF7F9FE00287FF479AF49
S2140042900AF1100212F8013D0133DBB213700BB9BC
S2140042A05245F7D1219A1BF8013B125D0134534069
S2140042B006F8013B04F00F04D8E7212061E700BFB1
S2140042C003030004100000202DE9F04F97B0894644
S2140042D015469A460446209FDDF88880DDF890B0A3
S2140042E0269E002800F09D80002900F09A80002E6F
S2140042F040F08A80002B00F09480B8F1000F0AD0BE
S214004300219B002B00F08D80002A40F09F80F10753
S21400431000F1878002E0002A40F08580FB1F062B14
S2140043207FD8524B0BEB05029A427AD80023504AAC
S2140043304846C4E90023A360236213A93CF0E1FFCA
S21400434000285ED12046139953F033F9204646EAFA
S214004350074153F02EF94146204653F02AF92946E4
S214004360204653F026F9484601A900F095FF00289C
S21400437047D1204601A93DF0E4F9484604A93DF09E
S214004380A7F800283DD14FF00109204604A93DF0CA
S214004390D8F9239B45F000550793219BCDF8209034
S2140043A0204609950DA90A9347F0005748F0005398
S2140043B0CDF82C900C93CDF834A0CDF838900F970C
S2140043C03DF0BFF920460AA93DF0BBF9204607A9F3
S2140043D03DF0B7F9259B204610A946F00056CDF8CB
S2140043E040B0CDF8449012951393CDF850901596A2
S2140043F053F008F9204613A953F004F9204650F06C
S21400440017FE17B0BDE8F08F259B53B1BAF1000F29
S21400441007D0B8F1000F01D0219B13B1B5B9022E19
S21400442020D12120EDE7239B002BFAD0BBF1000F13
S214004430F7D0C7F10F03DBB2032B3FF668AF0122BC
S214004440DB0002FA03F3AB42EBD9E8E7239B002B31
S214004450E7D0BBF1000FE4D0C7F10F03DBB2032BAC
S214004460DDD8ECE7102E7FF652AFDAE700800120A9
S214004470000005042DE9F04F99B0884615469B4686
S2140044800446229FDDF89890289E60B159B1279B7C
S2140044904BB1BBF1000F06D0249B0BB1239B13B18D
S2140044A01DB9022E13D121239AE0259B002BFAD0AA
S2140044B0B9F1000FF7D0C7F10F03DBB2032BF0D82A
S2140044C00122DB0002FA03F3AB42ECD9E9E7731EE4
S2140044D00F2BE8D816F0010AE5D1FB1F062BE2D811
S2140044E0414B09EB05029A42DDD8404B4046C4E9F1
S2140044F0003AC4F808A0C4F820A015A93CF001FFB3
S214004500034600286CD12046159953F052F82046F1
S21400451046EA074153F04DF82046249953F049F8EF
S2140045202946204653F045F8404603A900F0B4FE5D
S2140045300346002854D1204603A93DF002F9404620
S21400454006A93CF0C5FF0346002849D14FF00108F4
S214004550204606A93DF0F5F8259B2046099345F030
S2140045600053CDF8288001930B93239B0FA90C933F
S214004570249B47F0005743F00052CDF834800E924B
S214004580CDF83CB0CDF8408011973DF0DAF82046E3
S2140045900CA93DF0D6F8204609A93DF0D2F8019BBB
S2140045A0204612A9CDF84890CDF84C80149353F0CD
S2140045B029F8279B204615A946F000561593CDF8F6
S2140045C0588017963DF0BDF8204650F031FD034662
S2140045D030B101902A465146484641F09BFC019B6B
S2140045E0184619B0BDE8F08F0080012000000604D0
S2140045F02DE9F0418CB0884616461D460446129FAB
S21400460000284BD0002949D0002A47D0002F45D09B
S2140046100B68103B102B41D8214A22FA03F3D90726
S2140046203CD500231F4A8360C0E90023036209A922
S21400463040463CF066FE70BB2046099952F0B9FF32
S2140046402946204652F0B5FF6946404600F024FE53
S21400465008BB694620463DF074F8404603A93CF086
S21400466037FFC0B9204603A93DF06BF80696012631
S214004670204606A945F00055079608953DF061F8D6
S214004680094B204609A909970A960B9352F0BAFFE0
S214004690204650F0CDFC0CB0BDE8F0812120FAE7B2
S2140046A0010101000000040410000020F0B50C46D3
S2140046B017461E46054695B0002874D0002972D0CD
S2140046C0002A70D0002B6ED0036B0F2B5BD8002314
S2140046D0364A3846C4E90023A360236211A93CF099
S2140046E010FE00285BD12046119952F062FF296B1C
S2140046F020460F2984BF01F00F01103152F059FFF8
S214004700384602A900F0C8FD002848D1204602A974
S2140047103DF017F8384605A93CF0DAFE00283ED1F1
S214004720204605A93DF00DF80122214B0895099277
S2140047300A932B6B05F1100003F00F0141F00051B6
S2140047400B900F2B0C920D910E900F9243F000528F
S214004750109226D90A9B08A923F0005320460A93F4
S2140047603CF0EFFF0BA920463CF0EBFF012311962F
S21400477012930F4B204611A9139352F043FF204685
S21400478050F056FC0BE000F120030190009301224C
S214004790102339462046FFF771FC002897D015B045
S2140047A0F0BD0EA9DFE72120F9E700BF00000404F2
S2140047B0100000202DE9F04F9BB00C4690461F4697
S2140047C00546DDF89090002800F0B280002900F041
S2140047D0AF80002A00F0AC80002B00F0A980026BAE
S2140047E002EB09031B09B3EB121F02F00F0600F0E1
S2140047F0978000234F4A8B60C1E900230B62404636
S21400480017A93CF07EFD0346002840F0858006EBA5
S214004810090B204617992BF00F0A52F0CAFE514694
S214004820204652F0C6FE404602A900F035FD03467B
S214004830002871D1204602A93CF083FF404605A916
S2140048403CF046FE0346002866D14FF00108019072
S21400485005A920463CF075FF374A204608A908956A
S214004860CDF824800A923CF06CFF46F00051AAEB8B
S214004870060605F1100346F000560B93CDF830807F
S2140048800D910E97CDF83C8010960D99204621F09C
S21400489000510D910BA900933CF053FF20460EA942
S2140048A03CF04FFF019B244A1193AAF1100343F0FA
S2140048B00053CDF84880139305F120031493CDF8E8
S2140048C054801692139B204643F080431393139B09
S2140048D011A923F00053139352F094FE204614A916
S2140048E052F090FE144A17A920461795CDF860801E
S2140048F0199252F087FE204650F09AFBAAEB0B0165
S21400490049440190ABEB0A020098394441F00DFB94
S214004910019B2A6B4A442A6318461BB0BDE8F08FF9
S21400492010304A463946304441F0FFFA0023F0E79B
S2140049302123F1E703020004100000202DE9F043D4
S2140049408DB08946DDE914581F460446002851D02C
S21400495000294FD0B8F1000F4CD00BB9002D49D12B
S214004960531EDBB2042B45D82349CE5C169B9E42D1
S21400497040D8224B484603EB02232360002309A9B4
S214004980C4E9013323623CF0BCFC80BB2046099995
S21400499052F00FFE2946204652F00BFE6946484666
S2140049A000F07AFC18BB694620463CF0CAFE484632
S2140049B003A93CF08DFDD0B9204603A93CF0C1FE0A
S2140049C006970127204606A945F00055079746F0AA
S2140049D0005608953CF0B5FE204609A9CDF824807F
S2140049E00A970B9652F00EFE204650F021FB0DB0B3
S2140049F0BDE8F0832120FAE7248B050000010203BE
S214004A002DE9F04F9BB00D46DDE9296A90461F461A
S214004A100446DDF89C90002800F02481002900F070
S214004A202181249B002B00F01D812B9B002B00F086
S214004A301981B9F1000F03D0269B002B00F01281DC
S214004A4037B1289B002B00F00D81002E00F00A8164
S214004A50AAF104030C2B00F20581259B0C2B40F0D9
S214004A6001812B68103B102B00F2FC807F4A22FA53
S214004A7003F3D90740F1F680B8F1010F7CD17C4BE7
S214004A80284643EA0A232360002316A9C4E9013313
S214004A9023623CF036FC8346002840F0DF80204648
S214004AA0169952F086FD4946204652F082FD394658
S214004AB0204652F07EFD284604A900F0EDFB834612
S214004AC0002840F0CB80204604A93CF03AFE284659
S214004AD007A93CF0FDFC8346002840F0BF80204636
S214004AE007A93CF02EFE249B20460A93614B0AA998
S214004AF0CDF82C800C933CF024FE269B20460D938C
S214004B000DA949F00053CDF838800F933CF019FEFC
S214004B10289B204647F0005B10A91093CDF84480F0
S214004B20CDF848B03CF00DFE2B9B2046139313A9FE
S214004B304AF00053CDF8508015933CF002FE1696CE
S214004B40CDF85C80CDF860B01EB9189B43F080436A
S214004B501893204616A952F055FD204650F068FAE4
S214004B60834638B12C2805D03A460021304641F01D
S214004B70D1F973E02896002600233F4A0DF1580825
S214004B8041462846C4E90023A36023623CF0B9FBF3
S214004B908346002862D12046169952F00AFD4946FF
S214004BA0204652F006FD3946204652F002FD2846C1
S214004BB001A900F071FB834600284FD1204601A9C9
S214004BC03CF0BFFD284604A93CF082FC8346002842
S214004BD044D10125204604A93CF0B3FD249B204681
S214004BE00793244B07A9089509933CF0AAFD269B3A
S214004BF020460A930AA949F000530B950C933CF003
S214004C00A0FD289B47F0005920460DA90D930E9550
S214004C10CDF83C903CF095FD10961195CDF8489057
S214004C201EB9129B43F080431293204610A952F0FF
S214004C30E9FC0123CDF84C801493104B204613A9B1
S214004C40159352F0DFFC204650F0F2F98346002818
S214004C508AD1524641462B9841F067F958461BB018
S214004C60BDE8F08F4FF0210BF8E700BF010101000F
S214004C70000003040C0000200000020410000020C6
S214004C802DE9F04F97B00D46DDE9249716469A4673
S214004C900446DDF88880002800F0A380002900F094
S214004CA0A080002B00F09D80269B002B00F09980B2
S214004CB0B8F1000F03D0219B002B00F092803EB18C
S214004CC0239B002B00F08D80B9F1000F00F0898047
S214004CD03B1F0C2B00F28580209B0C2B40F0818024
S214004CE02B68103B102B7CD83F4A22FA03F3DB07D5
S214004CF077D53E4B284643EA07232360002313A9B3
S214004D00C4E9013323623CF0FCFA8346002864D1F0
S214004D102046139952F04DFC4146204652F049FC7D
S214004D203146204652F045FC284601A900F0B4FA68
S214004D308346002851D1204601A93CF002FD2846B2
S214004D4004A93CF0C5FB8346002846D10125204631
S214004D5004A93CF0F6FC264B204607A9CDF81CA07B
S214004D60089509933CF0EDFC219B20460A930AA97E
S214004D7048F000530B950C933CF0E3FC239B204635
S214004D8046F000580DA90D930E95CDF83C803CF0EA
S214004D90D8FC269B204647F0005710A91093119583
S214004DA012973CF0CEFCCDF84C901495CDF854807C
S214004DB0B9F1000F03D1159B43F0804315932046AD
S214004DC013A952F01FFC204650F032F9834620B15A
S214004DD032460021484641F09DF8584617B0BDE8D7
S214004DE0F08F4FF0210BF8E70101010000000304EB
S214004DF00C0000202DE9FF474FF000080E4617462E
S214004E000446CDF80080002859D022B9002528464F
S214004E1004B0BDE8F087002951D032F0030902F053
S214004E20030A1FD04FF0E063C0E900380123019168
S214004E30C0F808800293C0F8208049F0005301A90A
S214004E40039352F0DFFB4946204652F0B2FB204661
S214004E5050F0EEF8054628B14A464146304641F045
S214004E6059F8D4E7BAF1000FD0D04FF000084FF051
S214004E70E063C4E900380123CDF804D00293114B57
S214004E80204601A9C4F80880C4F82080039352F095
S214004E90B9FB0421204652F08CFB204650F0C8F89F
S214004EA0054608B13A46D8E7009A4E44EB0001356D
S214004EB022FA03F3AA4506F8013BF7D1A6E7212517
S214004EC0A5E700BF040000202DE9F0410F46017859
S214004ED00446013990468AB0042947D8DFE801F035
S214004EE00332373C41004025142621490C34002269
S214004EF05D43C7E901223A6238463960294652F0D6
S214004F0058FB0123384646F0005604A945F00055E4
S214004F10CDF80480029303950494059306960794AF
S214004F20089309963CF00DFC384601A93CF009FCB4
S214004F30384607A952F066FB384650F079F80AB0B2
S214004F40BDE8F081402520260A490C34CFE74025ED
S214004F50202609490C34CAE7802540260749143420
S214004F60C5E78025402606491434C0E72120E6E739
S214004F70000201030003010300040103000501030E
S214004F800006010338B5054661B158B10024202259
S214004F90C0E9014404490C3040F0C7FF0323204613
S214004FA02B7038BD2120FCE7EE8B050038B5054692
S214004FB071B168B100244022C0E90144C0E903444D
S214004FC00449143040F0B1FF052320462B7038BD4D
S214004FD02120FCE7AE8B05002DE9FF478A46904668
S214004FE0044600286AD0002968D0002A66D00278D5
S214004FF0013A042A62D8DFE802F0034C51565C00FE
S214005000142600F10C07021D40259E4256D80021AA
S2140050108E4668094FEAD5090DEBD50352F821C034
S21400502001310EEBCC0E03F801EC4FEA5C1E03F8E0
S21400503002EC4FEA5C3E03F803EC88424FEA5C5E03
S21400504003F804ED4FEA5C7EE8D112686B1E13404D
S214005050A5EB09029A4296BFA5EB4005D31AC3EB0F
S214005060450351462046164A3BF0F7FF054660B911
S2140050704B466A46514620463BF0EFFF054620B9B0
S21400508032463946404640F050FF284604B0BDE858
S214005090F0871C2600F10C07021DB5E7202600F15C
S2140050A00C07021DB0E7302600F11407021D80250C
S2140050B0ABE7402600F11407021DF8E72125E4E7D8
S2140050C02E8B05002DE9F04387B00D4691461E460F
S2140050D00446DDF83880002836D0B8F1000F33D00B
S2140050E002B98BBB6B1EDBB2042B2DD8174AD75CDC
S2140050F00F9B9F4228D80023280200F1407000F53D
S21400510080703146C4E9013320602362204652F0A5
S21400511050FA01236946204646F0005647F00057ED
S214005120CDF8009001930296CDF80C800493059775
S2140051303CF007FB204603A952F064FA20464FF0E5
S21400514077FF07B0BDE8F0832120FAE7298B05003A
S214005150F0B50F4616461D46044693B010B92120FA
S21400516013B0F0BD0029FAD0002AF8D0002BF6D0F4
S214005170002331461A4638463CF068F80028EFD13E
S214005180304602A93BF0D9FF0028E9D1EB68022B94
S2140051900AD039683F48029A81426B6902D01830BB
S2140051A0814270D19A42DAD82B68002BD7D14FF0C3
S2140051B060623846C4E90023A360236201A93CF07C
S2140051C0A0F80028CCD10199204621F4F061019185
S2140051D052F0EFF9694628463CF093F80028BFD114
S2140051E02046009952F0E5F9384609A900F054F82F
S2140051F00028B5D1204609A93CF0A3FA38460CA9E8
S2140052003CF066F90028ABD120460CA93CF099FA90
S214005210EB684BB1284606A900F03EF800289FD15F
S214005220204606A93CF08DFA304603A93CF050F91A
S214005230002895D1B368DA040CD59B0427D506213F
S214005240F36932691B6801FB03225B0043F00053DD
S21400525003920593204603A93CF073FA28460FA94B
S2140052603CF036F900287FF47BAF20460FA952F0B9
S214005270C9F9032520464FF0DBFE01287FF470AF06
S214005280013DF7D16CE7B3EB420F8DD267E72920DB
S21400529066E700BF200000B090B189B101234B60E3
S2140052A0C368013B012B08D88269064B1AB10A6015
S2140052B000208B607047044AF9E74FF00053F7E789
S2140052C02120704708000020108C050070B50E469F
S2140052D0154604468AB000285BD0002959D0002A1B
S2140052E057D0012329461A4630463BF0AFFF002828
S2140052F04DD1B36813F4C04F4BD0AB6803F4C04332
S214005300B3F5005F45D1254BA060C4E900302062AC
S21400531007A930463BF0F5FF002838D1204607990C
S21400532052F047F9304601A9FFF7B6FF78BB204692
S2140053303CF007FA304604A93CF0CAF838BB2046D1
S21400534004A93CF0FEF9EB681BBBAB6803F4C04352
S214005350B3F5005F1DD1694628463BF019FFB0B98A
S214005360009B6A699A4216D32A6943F00053079253
S2140053700122204607A908920325099352F042F914
S21400538020464FF055FE012801D1013DF8D10AB064
S21400539070BD2120FBE71D20F9E700BF00000102D9
S2140053A02DE9F04391B00D46DDE918760446DDF8A8
S2140053B0688000286ED000296CD0B8F1000F69D044
S2140053C00FB9002E66D1296801F07041B1F1404F47
S2140053D05BD0002B5BD1531E042B5BD8120202F16C
S2140053E0C06202F5807200232846C4E901332260B9
S2140053F023620DA93BF085FF002843D120460D9976
S21400540052F0D7F83146204652F0D3F8284601A984
S214005410FFF742FF002835D1204601A93CF091F95C
S214005420284604A93CF054F860BB4FF0010920461A
S21400543004A93CF086F946F00056204607A90797CF
S214005440CDF8209009963CF07CF92B680A9703F07B
S2140054507043B3F1404FCDF82C900C9603D1204604
S2140054600AA93CF06EF90123CDF834800E931B9BFD
S214005470204643F000530DA90F9352F0C3F8204680
S2140054804FF0D6FD11B0BDE8F083034AABE74FF00E
S214005490C062A8E72120F5E7000002062DE9F041EA
S2140054A08CB00D46DDE912860446149F002869D0AC
S2140054B0002967D0B8F1000F01D1002E62D1002F6D
S2140054C060D0A96889045DD5296801F07041B1F102
S2140054D0404F4DD0002B4DD1531E042B52D82A4B93
S2140054E003EB022200232846C4E90133226023622C
S2140054F009A93BF006FF002837D12046099952F04B
S21400550058F83146204652F054F869462846FFF7C8
S214005510C3FE50BB694620463CF013F9284603A953
S2140055203BF0D6FF08BB204603A93CF00AF901234E
S21400553046F00056CDF818800793089609970A9308
S214005540159B43F000530B932B6803F07043B3F1A5
S214005550404F11D109A920463CF0F3F806A9204691
S2140055603CF0EFF820464FF063FD0CB0BDE8F0814C
S214005570064AB7E7064AB5E706A920463CF0E1F832
S21400558009A9ECE72120F0E7000101060000030668
S214005590000001067FB50E461D460446F0B102B96E
S2140055A0E3B901230192029345F0005303930023CD
S2140055B00B4AA360C4E900232362204601A93CF0FD
S2140055C0C0F83146204651F0F4FF2046294651F0F7
S2140055D0F0FF20464FF02CFD04B070BD2120FBE705
S2140055E00000094310B5044668B10023074A8360EB
S2140055F0C0E900230362064951F0DBFF2046BDE800
S21400560010404FF015BD212010BD00BF00000A431A
S214005610AD7E1EDE38B5134DFEF7B8FC124B134AAE
S2140056201349144804F03AF92B7803F0FF04BBB989
S21400563050F04CFD012802D952F0DDF904462B78D3
S2140056402BB90D4B0D481B68984701232B7050F063
S2140056503DFD012804D92046BDE8384052F0E1B9A6
S21400566038BD00BFBC87002075170400571704001C
S2140056708F1704009917040044080120AC47002047
S21400568006289ABF024B33F810000020704700BF70
S214005690188C0500F8B5184F3B7803F0FF0413B1DB
S2140056A000242046F8BD50F011FD012806461AD900
S2140056B052F0A1F9051E1CDB3B786BB950230F4C4A
S2140056C0E018A465E36552F03FFA2066012408B1AD
S2140056D03C700024012EE4D9284652F0A2F9002896
S2140056E0B8BF0224DDE73B7803F0FF05002BD7D1D7
S2140056F0E4E70D24D5E700BFBD870020B01C0020DE
S214005700012300F01F02A0F506200949A0F550600D
S2140057104009934051F820201A4341F820200549BB
S21400572051F8202022EA030241F82020704700BFEB
S214005730281D0020141D00200121A0F506230E4A76
S214005740A3F550635B0900F01F00814052F8230068
S214005750014342F823100949D1E900300344886820
S2140057600344C868096903445B1802BFC2E90033F2
S214005770C2E9023313617047141D0020281D002063
S2140057802DE9F04FA9B003921D4604460822DDF825
S214005790CC80CDE90401414021FA02F34B40980742
S2140057A002F1080218BF9B00202A1C44F4D1812372
S2140057B0B4FBF3F303EBC313E41A7A4B04F50624A5
S2140057C01B7804F55064002B39D1FDF7CDF806465A
S2140057D0002840F0DB800146402208A840F09AFBF3
S2140057E04022314618A840F095FB6F4FDFF8D09165
S2140057F0BB460BF10F0ACDF800A0102208A95B46A5
S214005800D9F800003BF0A6F800220146103708AE93
S214005810914242D1CDF800A05B461022D9F8000094
S21400582018A93BF0A0F84FF0000A834618AED345FF
S2140058303DD15E4B9F42DBD101225A4B1A704FF08E
S214005840810A0027DFF87CB1A4F50626A6F550638A
S2140058505B095BF8232004F01F01CA40D2073BD443
S214005860534A52F82330CB40DB0727D58123002F3D
S21400587008BF2746A6F6FF44B4FBF3F303EBC313B7
S214005880E41A04F50624BAF1010A04F55064DBD1E3
S214005890039BABB1A7B13C461AE056F8040BCDE922
S2140058A00612FFF72DFF079A06990132B0E756F861
