S02A00006275696C642F64656275672F616D617A6F6E5F7369646577616C6B5F736F635F6F6F622E733337D9
S3150800000000080020011100081B3F04081B3F0408D4
S315080000101B3F04081B3F04081B3F04081B3F04083A
S315080000201B3F04081B3F04081B3F040879A5050865
S315080000301B3F04081B3F04081DA50508EFBC05085F
S315080000401B3F04081B3F04081B3F04081B3F04080A
S315080000501B3F04081B3F04081B3F04081B3F0408FA
S315080000601B3F04081B3F04081B3F04081B3F0408EA
S315080000701B3F04081B3F04081B3F04081B3F0408DA
S315080000801B3F04081B3F04081B3F04081B3F0408CA
S315080000901B3F0408D51800081B3F04081B3F04082B
S315080000A01B3F0408E1160008C11600081B3F040898
S315080000B01B3F040805FA0308B1040408276E05085F
S315080000C0236E050841FC03083D6E05082B6E0508DE
S315080000D0810404082F6E0508F1040408590504086C
S315080000E01B3F04081B3F04081B3F04081B3F04086A
S315080000F03F6C04081B3F04081B3F04081B3F040809
S315080001001B3F04081B3F04081B3F04081B3F040849
S315080001101B3F04081B3F04081B3F04081B3F040839
S315080001201B3F04081B3F0408591201081B3F04081B
S315080001301B3F04081B3F04081B3F04081B3F040819
S315080001401B3F04086D5B00081B3F040891BC0508AB
S3150800015075DF03081B3F0408116E0508176E0508AE
S315080001601B3F04081B3F04081B3F04081B3F0408E9
S31508000170F0B5114A114C124E00F00105E3695F070C
S3150800018013D40DB9334213D103EA00078F4207D1BE
S315080001900B4A1A40002A0CBF00206FF00100F0BD80
S315080001A0013AEBD16FF00200F9E74FF0FF30F6E7BE
S315080001B06FF00100F3E700BF809698000000035037
S315080001C00200010070B50B4BD96911F480310DD1CD
S315080001D001244FF48072084E084DF46020462C64C2
S315080001E01A61FFF7C5FF3464EC6070BD6FF001005B
S315080001F0FBE700BF00000350001003500020035027
S315080002004FF4803238B50E4B0E4C9A66E56941F6C6
S31508000210713315400122E3630B4B0021DA60022398
S31508000220606121202361FFF7A3FF10B92120FFF7A2
S315080002309FFF0122054BDA600DB10023E36338BD49
S315080002400090005000000350001003500020035097
S3150800025070B5134C6061E3695B071ED40E4656F809
S31508000260043B8D18A361AE420BD104230021212043
S315080002702361FFF77DFF58B9BDE870402120FFF7DD
S3150800028077BF08210846FFF773FF10B104232361DF
S3150800029070BD56F8043BA361E5E74FF0FF30F7E77A
S315080002A0000003502DE9F84315464FF48032184BE9
S315080002B089469A6603F51C33DF690646174041F6F8
S315080002C07132DA63012203F58053DFF84C80DA6075
S315080002D055B9284601220F4BDA601FB10022A3F553
S315080002E00053DA63BDE8F88306F5005404EA080407
S315080002F0A41BAC4228BF2C46494622463046FFF787
S31508000300A7FF0028E6D12644A1442D1BE0E700BF3D
S31108000310009000500020035000E0FFFFA2
S31508000320013800D0FCE770472DE9F04F93B0CDE9CE
S315080003300A32DDE91C530E9353EC102BCDE9080164
S31508000340104619468DED060B1E9E12F07BFE80B1F7
S31508000350DDE906014FF0FF32C54B12F09BFE40B9AE
S31508000360DDE906014FF0FF326FF4801312F074FED8
S3150800037070B1DDE908019DED060B0E9B1E96CDE9D1
S315080003801C53DDE90A3213B0BDE8F04F00F088B916
S315080003900022DDE90601002312F05EFE002800F0C7
S315080003A03381DDE906A303F1004BCBF30A5016F4BB
S315080003B08063A0F2FF3008BF06250F9312F070FB8A
S315080003C09BA3D3E9002312F0D5FB9BA3D3E9002313
S315080003D012F01AFACBF31304894644F07F5180468B
S315080003E00022A44B504641F4401112F00BFA94A394
S315080003F0D3E9002312F0BEFB02460B4640464946A7
S3150800040012F002FA12F050FE044612F049FB8EA3CF
S31508000410D3E900238046894612F0ACFB0022964BAE
S3150800042012F0F2F912F040FE89A3D3E90023074639
S315080004304946404612F09EFB80463846894612F0E9
S315080004402FFB85A3D3E9002312F094FB02460B4643
S315080004504046494612F0D6F902460B46CDE90C232A
S3150800046012F088FBDDE90C238046894610461946BA
S3150800047012F0CAF90022CDE91001804B40464946E0
S3150800048012F0A2FC00227E4B12F0BEF902460B4681
S315080004904046494612F098FC00227A4B12F0B4F90D
S315080004A002460B464046494612F08EFCDDE90C230F
S315080004B08046894600204FF0804112F0A3F9024693
S315080004C00B464046494612F09FF902460B46DDE9BF
S315080004D0100112F079FC07F2FF3700226A4B12F07E
S315080004E093F900223B0512F045FB52465B468046CF
S315080004F0894612F0CFFD002840F08980CDE90C89A5
S3150800050004F16303C72B34BF0427052731051BD520
S3150800051053A3D3E900235046594612F0B1FD0028EB
S315080005207FD051A3D3E900235046594612F094FDD3
S31508000530002876D00027A542C6BF2C1B04F1FF353C
S3150800054000253C4646F480660E9B9F422CBF4FF022
S315080005500008A3EB070816F0020903D0002F18BFFE
S315080005604FF000083CB1DDE90C235046594612F01D
S315080005702BFC82468B46DDE906010022002312F099
S315080005806BFD10B10BF100439B46DDE9080126F42B
S315080005900063CDE90183DDE90A324BEC10AB009527
S315080005A000F07EF802465FB3DDE9091316F0200F66
S315080005B000F10105089E0CBF65204520B047DDE91E
S315080005C008010523002205930A23002CCDE90232EF
S315080005D007F1FF374FEAD473B8BF64422A4601933E
S315080005E004970A9B009448F0F5FA0246B9F1000F01
S315080005F006D00B9BC41A0B9B1A190E9BA34245D80F
S31508000600104613B0BDE8F08FDDE906ABCDE6002253
S31508000610404649461A4B12F0D7FB013CCDE90C017E
S315080006206EE7002D90D00F9B002B8DD0013D8BE7F8
S31508000630FB799F501344D33FB3C8608B288AC63FC3
S3150800064061436F63A787D23F71A379094F930A4025
S315080006501655B5BBB16B0240EF39FAFE422EE63F9E
S315080006602D431CEBE2361A3F0000000080842E4121
S31508000670FFFFEF7F0000F83F0000E03F00002C403E
S3150800068000002440000018400000F03F2020DDE96B
S315080006900913089DA8470134ADE700BF0000000014
S315080006A02DE9F04F5BEC10AB97B0CDE90501DDE91C
S315080006B02057CDE90723504652465B465946229EA7
S315080006C012F0C0FC70B90323CDE902760193B04B52
S315080006D00093DDE90501DDE9072348F09BF917B02A
S315080006E0BDE8F08F4FF0FF326FF48013504659463D
S315080006F012F0B2FC28B10423CDE902760193A54B8A
S31508000700E6E74FF0FF3250465946A34B12F0C2FCBB
S3150800071068B1A24A06F00403002B08BF0322A04BC7
S315080007201CBF13460422CDE902760192D0E7504653
S3150800073093A3D3E90023594612F0ACFC38B992A327
S31508000740D3E900235046594612F086FC68B1DDE924
S315080007500723DDE905014BEC10ABCDE921762095A1
S3150800076017B0BDE8F04FFFF7DFBD00220023504663
S31508000770594612F071FC002800F09A805B465246F2
S315080007800020002112F03EF8012382468B46099389
S3150800079016F4806400F08E80092D40F28E800024C5
S315080007A030210EABA5F109020134202C03F8011BF8
S315080007B0A5EB040901D09442F6D15946504612F0E9
S315080007C073FC784B054603EBC90393ED007B8DED6F
S315080007D00A7B12F065F902460B465046594612F056
S315080007E011F8DDE90A2312F0C5F902460B46CDE9F0
S315080007F00C2312F081FC804612F042F902460B46A1
S31508000800DDE90C0111F0FEFF02460B46CDE90C238B
S315080008100022654B12F03EFC002851D008F1010871
S31508000820404612F02DF902460B46DDE90A0112F0A0
S315080008301DFC10B14FF000080135B9F1000F50D179
S31508000840284612F02DF902460B465046594611F035
S31508000850D9FF0022544B8046894612F0FDFB30B181
S31508000860002240464946504B12F014FC10B1E807E6
S3150800087000D501350A210EAB1A19202C0AD095FB92
S31508000880F1F001FB1055303502F8015B01340546DD
S315080008900028F2D106F00302012A57D1002F55D0BD
S315080008A0099A12B916F00C0F00D0013F302245E024
S315080008B009906DE74FF006097FE7A94600247CE713
S315080008C00022DDE90C01384B12F0C6FB0028B4D132
S315080008D0B8F1000F02D018F0010FAED008F10108E8
S315080008E0ABE70A210EAB2344202C0ED0B8FBF1F05F
S315080008F001FB1082B8F1090F02F1300209F1FF3944
S3150800090004F1010403F8012B11D83021A1440EAAE1
S31508000910202CAFD0A14504F101030AD11C4609F1E8
S3150800092058030DEB03092E2309F8203CA2E780465D
S31508000930DAE7A1541C46EBE71A550134A74205D954
S31508000940202CF9D1CDE902760194C1E6202CF9D004
S31508000950099A3AB12D2104F158026A4402F8201C7A
S315080009600134EFE7710704D504F158022B216A44D4
S31508000970F4E73207E6D504F1580220216A44EDE788
S315080009800000000065CDCD410000000065CDCDC159
S31508000990D5E70508D9E70508FFFFEF7FCCE7050887
S315080009A0D1E70508E0E705080000E03F0000000081
S315080009B010B51D4C002021465BF052F818B14620B0
S315080009C01A4948F0E6FE2368194AB3FBF2F3236096
S315080009D0206812F055F810A3D3E9002312F0CAF8DC
S315080009E00FA3D3E9002311F00FFF12F085FB114B7B
S315080009F0114A1860D2F8FC3043F08073C2F8FC3014
S31508000A004FF060430D4AC3F8B02F0D4A136843F000
S31508000A100103136010BD00BFEC51B81E85EBE93F1A
S31508000A20F6285C8FC2F51C40A449002004FD050881
S31508000A3040420F00A049002000ED00E055CEACC5AD
S31508000A40001000E00000000070B590B004460D46A6
S31508000A504BF088FF002848D01422002109A849F045
S31508000A607DFAD4E907014FF6FF73ADF8263010ABCF
S31508000A7003E903008DF825501FF0FCFF0026A0634C
S31508000A80059003AA012001A9CDE90666CDE901660C
S31508000A90CDE90366089614F0EFFA054638B30696CC
S31508000AA0ADF81C6043F6FF7303208DF8200005A9F6
S31508000AB009A8ADF81E3023F0CBFF10B9012384F83E
S31508000AC04430636B5A1C4FF6FF7218BF01336363D9
S31508000AD0B4F84C3093421CBF01339BB2A4F84C3097
S31508000AE094F84130013384F8413010B070BD019B51
S31508000AF002990693C80319A3D3E90023490C12F0F7
S31508000B001BFB16A3D3E900230499ADF81C00C80300
S31508000B10490C12F011FB039B00EBC333B3F5804F6E
S31508000B200DD30B4A93420DD90A4A93420DD90A4A64
S31508000B309342B7D803200D22D3409BB2B5E7284687
S31508000B402A46F9E701200522F6E702200A22F3E7FA
S31508000B50E0FF070000FCFF0000E0FF0700CA9A3B21
S31508000B60000000000000000007B588B10BA3D3E918
S31508000B7000230949C1E90223CDE900234FF0FF32DA
S31508000B804FF0FF33086955F028FC03B05DF804FB05
S31508000B9000220023EDE700BF200F00200DD50155E8
S31508000BA0200000000348044B834202D0034B03B1E4
S31508000BB018477047A0500120A050012000000000EF
S31508000BC0064B0749C91A891048BF0131491003D095
S31508000BD0044B0BB101481847704700BFA0500120CD
S31508000BE0A05001200000000010B5064C237843B938
S31508000BF0FFF7D8FF044B13B10448AFF30080012375
S31508000C00237010BDDC88002000000000C4AC060874
S31508000C1008B5054B1BB105490548AFF30080BDE88B
S31508000C200840FFF7CDBF00BF00000000801100207C
S31508000C30C4AC0608A3F5803A704700BF174B002BD3
S31508000C4008BF134B9D46FFF7F5FF00218B460F465D
S31508000C501348144A121A49F081F90E4B002B00D09A
S31508000C6098470D4B002B00D0984700200021040020
S31508000C700D000D48002802D00C48AFF3008012F092
S31508000C8063FE2000290046F09CFB12F003FC00BF1F
S31508000C900000080000000000000000000008002016
S31508000CA000080020F82D01200000000000000000C8
S31508000CB008B504485AF0D9FE48F0C7F8BDE8084018
S31508000CC000F044B944E4050801485AF0CEBE00BF16
S31508000CD044E405082DE9F04304468BB0234E03ADE2
S31508000CE0884617460FCE0FC596E8070085E8070021
S31508000CF01F4EA389D6F82057ADF8043023891D481E
S31508000D00ADF80830D4F800905AF0AFFE60685AF093
S31508000D10ACFE042100220DEB010000F059FB002275
S31508000D20042102A800F054FB0123484603A98DF8C4
S31508000D301A30CDF81480ADF81C7004F075FA00204E
S31508000D40627A237A05F0040543EA0243C6F838377F
S31508000D50627B237B45F0180543EA0243C6F834371D
S31508000D60C6F820570BB0BDE8F08300BFE8CC0508ED
S31508000D7000C0035044E4050813B5044659F0C2F808
S31508000D8000230122217BCDE900324900B0FBF1F1B5
S31508000D90024A03485AF0F8FE02B010BD758E0508DF
S31508000DA0AC11002037B504460F4B01A85B880F4DE0
S31508000DB0ADF8043000F03EFB607B08F0DDFF04234D
S31508000DC002220DF106012846ADF8063042F0E5FF8D
S31508000DD0284642F0FCFFA07B08F0CEFF01A800F0F1
S31508000DE051FB002003B030BD04CD0508B42F012007
S31508000DF073B50646154C164863883546ADF8003077
S31508000E005AF033FEB16800221248FFF763FF00224A
S31508000E100421684600F0DCFA042123880E4C0DEB09
S31508000E2001000022ADF8043000F0D2FA0FCD0FC44D
S31508000E3001222B6830462360084B1A70FFF79CFF87
S31508000E403046FFF7AFFF002002B070BD04CD05089D
S31508000E5044E40508B42F012098110020DD880020FD
S31508000E602DE9F74F144605469846284B06885B88B1
S31508000E700134ADF80430037901A85E430F46A4B2E5
S31508000E8000F0D8FA687B08F077FF230243F00103E5
S31508000E9002221F480DF10601ADF806304FF0000B8F
S31508000EA042F07BFF01342402DFF86490F610A4B206
S31508000EB008F1FF3AC3450FD1154842F088FFA87BD1
S31508000EC008F05AFF01A800F0DDFA114842F084FF45
S31508000ED0002003B0BDE8F08F39463246484642F056
S31508000EE05CFFDA450CBF4FF6FF7344F0FF0302229E
S31508000EF048460DF1060104F58074ADF8063037440E
S31508000F0042F04BFF0BF1010BA4B2D3E704CD050861
S31508000F10B42F0120034B04481B78002B08BF002080
S31508000F20704700BFDD8800209811002030B5064DB7
S31508000F3087B001AC0FCD0FC42B6801A82360FFF75B
S31508000F4057FF07B030BD00BF08CD05082DE9F04FA3
S31508000F50544E97B0354609AC0FCD0FC42B6806F131
S31508000F60140523600EAC0FCD0FC495E80F00DFF80B
S31508000F704C8184E80F004C485AF077FD40465AF0F9
S31508000F8074FD4FF48073494FADF83C30484B3846F2
S31508000F900B9309A90EAB0D9303F0C2FD0421B6F815
S31508000FA034B00DEB01000122ADF804B000F010FAE0
S31508000FB0B6F836A00022012102A8ADF808A000F074
S31508000FC007FAB6F838900122042103A8ADF80C9068
S31508000FD000F0FEF9758F0122042104A8354CADF8FE
S31508000FE0105000F0F5F9344B4FF44870C4F8C83483
S31508000FF04FF00213C4F8C434A3F58033C4F8CC34D4
S315080010001C23C4F8B43408F0B7FE08A8ADF820507D
S3150800101000F038FA142008F0AFFE08A8ADF8205002
S3150800102000F008FA232008F0A7FE08A8ADF820501B
S3150800103000F028FAB921384643F0C6FE08A8ADF8EC
S31508001040205000F0F7F9002205A81146ADF814B0B3
S3150800105000F0BEF9002206A81146ADF818A000F067
S31508001060B7F90122002107A8ADF81C9000F0B0F9E5
S315080010700122002108A8ADF8205000F0A9F9384649
S3150800108003F0AEFC00234046C4F8B434C4F8C834B0
S31508001090C4F8C434C4F8CC345AF0EAFC17B0BDE836
S315080010A0F08F00BF1CCD050844E4050800000A506F
S315080010B0E070720000C003500200030048E405080F
S315080010C0BFF34F8F0549064BCA6802F4E062134323
S315080010D0CB60BFF34F8F00BFFDE700BF00ED00E018
S315080010E00400FA050348044A0449121A921042F009
S315080010F015BF00BF700100081C030008F82D012069
S3150800110008B5154B83F30A8800F030F8FFF7EAFFB5
S31508001110124B13498B4212D30020124B12498B42B1
S3150800112018D3FFF78BFD186850F82240586840F826
S315080011302240013298688242F5D30C33EAE700224E
S31508001140F8E71C6844F8220001325C68A242F8D32A
S315080011500833E4E70022F8E700000020CCAC0608D4
S31508001160D8AC0608D8AC0608D8AC06084FF48041B7
S3150800117070B5124B124A134D9A60D3F8882005F5BC
S31508001180005442F47002C3F888200F4A91664FF063
S31508001190FF3222660D4A62660222C3F8D020BFF3E8
S315080011A04F8FBFF36F8F4FF44036002008F0A4FA34
S315080011B00020E66008F076FA2E6170BD00ED00E0CA
S315080011C0000000080080004400900050F7FF370038
S315080011D0014B1860704700BFC82F0120054B1860E7
S315080011E0054B1B6F03F00703032B01D157F080BE95
S315080011F0704700BFD02F01200080005030B5056829
S3150800120087B0AB8804461848ADF80C305AF02DFC68
S315080012100022012103A800F0DBF80DF10B0103A859
S3150800122042F034FF9DF80B3083F001032B70AB7945
S31508001230022B15D14FF0FF330022CDE9043304A960
S315080012400A4B009403A800F0E5F9049B00940133C7
S315080012500CBF04220122054B05A903A800F03AF9A0
S31508001260002007B030BD00BF44E405084B3F040822
S31508001270002307B5294801935AF0F7FB4FF440734A
S31508001280012204216846ADF8003000F0A1F80122D9
S31508001290234B0520C3F8442401A95AF0E1FB002892
S315080012A039D1204BD3F8F02042F00102C3F8F020E0
S315080012B0D3F8FC2042F08072C3F8FC201A4AA3F542
S315080012C05D431A60019B194A03F5D52303F2FC43D3
S315080012D0B3FBF2F3164A013B13610223C2F8F0305E
S315080012E04FF48073C2F804334FF06043114AC3F8D1
S315080012F0B02F114AC3F8802ED3F8002E42F480721C
S31508001300C3F8002EFF2283F82020D3F8002E22F4FB
S315080013108072C3F8002E03B05DF804FB44E40508A8
S3150800132000D0035000ED00E0FF030040F8590D001F
S31508001330000004E055CEACC5090001002DE9F041D6
S3150800134004460C254FF00108124E0CB314F00100A8
S315080013500BD0002024F0010405FB00625768002F1B
S31508001360F3D09168C0B2B847EFE72246013020288B
S315080013704FEA520201D0D307F8D508FA00F20F282F
S3150800138024EA0204E8D9103805FB0062B432E5E71E
S31508001390BDE8F081CC11002008B50C485AF065FB71
S315080013A0192008F08DF928B1192008F0A5F9192097
S315080013B008F078F91A2008F083F928B11A2008F0FD
S315080013C09BF91A2008F06EF9002008BD44E40508C8
S315080013D02DE9F0410E469046054618B30F2923D845
S315080013E00378E3B1012B03D0022B18D0032B1BD1B2
S315080013F03F236A78D340DB0716D50D4BD3F8104345
S31508001400A4B95AF093F9074642462846314604F0ED
S31508001410E7F838465AF085F92046BDE8F08140F2EB
S31508001420FF33E6E72224F7E72124F5E70224F3E76A
S3150800143000C0035010B50446E8B10378C3B1012BC8
S3150800144003D0022B14D0032B17D13F236278D34045
S31508001450DB0712D55AF06AF90122637821789A4097
S3150800146030235943064B5A505AF05BF9002010BDF9
S3150800147040F2FF33EAE72220F9E72120F7E700BF29
S3150800148040D0035010B50446E8B10378C3B1012B28
S3150800149003D0022B14D0032B17D13F236278D340F5
S315080014A0DB0712D55AF042F90122637821789A406F
S315080014B030235943064B5A505AF033F9002010BDD1
S315080014C040F2FF33EAE72220F9E72120F7E700BFD9
S315080014D040E003502DE9F0410D461646984604466D
S315080014E0002855D0002953D002784AB1012A46D09F
S315080014F0022A05D0032A42D0FF2A07D0212045E038
S3150800150040F2FF336278D340DA07F7D5022E01D9C5
S31508001510042EF3D15AF00AF923780746FF2B05D093
S3150800152032462046296804F09BF828602B68013368
S3150800153009D12378FF2B06D1164B6078D3F82414EB
S3150800154043F0BFFE286029684B1C1BD00C23124AA7
S3150800155003FB0121C1F80480296803FB0122069BCD
S3150800156093602378FF2B05D001232A6893400B4A02
S31508001570C2F8243438465AF0D4F8002006E03F234F
S315080015806278C0E738465AF0CCF82D20BDE8F081DD
S315080015902220FBE700C00350CC11002000D00350E6
S315080015A00F2810B5044613D85AF0C0F80123094A83
S315080015B0A340C2F82034C2F824340C22064B02FB9E
S315080015C004330024C3E901445AF0ABF8204610BDA1
S315080015D02120FCE700E00350CC11002010B504469A
S315080015E05AF0A4F8034BC3F824445AF09AF800209A
S315080015F010BD00BF00D0035010B504465AF096F847
S31508001600034BC3F824445AF08CF8002010BD00BFE1
S3150800161000E003502DE9F0410D4690461F4604466A
S31508001620002846D0002944D0017849B1012937D08D
S31508001630022905D0032933D0FF2907D0212036E017
S3150800164040F2FF336278D340DA07F7D55AF06EF8DE
S3150800165023780646FF2B05D042462046296804F023
S3150800166085F8286029684B1C1DD00C23124A03FBF9
S315080016700121C1F8B870296803FB0122069BC2F84C
S31508001680BC302378FF2B06D001232A6810329340FA
S315080016900A4AC2F8243430465AF043F8002006E0D5
S315080016A03F236278CFE730465AF03BF82D20BDE855
S315080016B0F0812220FBE700BFCC11002000D00350A8
S315080016C008B503F073FF054B00F0553020F05020A5
S315080016D0C3F82004BDE80840FFF730BE00E0035019
S315080016E008B503F063FF054B00F0AA3020F0A020F0
S315080016F0C3F82004BDE80840FFF720BE00E0035009
S3150800170070B503680446B3F1B64F86B049D0264A89
S31508001710934244D1012525485AF0A7F9A388012206
S31508001720ADF80030E3880A216846ADF80430FFF7C3
S315080017304FFE01220A2101A8FFF74AFE0A2668463B
S31508001740FFF7A0FE642008F017FB6846FFF772FE55
S31508001750642008F011FB013EF1D10323144A02EB81
S315080017600511C1F8E834607923794F3543EA004317
S31508001770C1F8EC34E179A3792D0143EA01435351C9
S3150800178040F20113ADF80830E36820680493A368B3
S3150800179002A90393237C8DF8143003F015FB06B0D9
S315080017A070BD00250348B7E7008006503CE40508ED
S315080017B000C0035040E4050838B5054603F032FC7E
S315080017C0044C012801D1013C00D138BD284603F05C
S315080017D01DFBF6E7E193040013B504460A485AF0E0
S315080017E044F9A2780421B2FA82F2237852098DF8D4
S315080017F0043063780DEB01008DF80530FFF7E8FD3E
S31508001800002002B010BD00BF44E4050838B5124BED
S3150800181005461B78DBB1E0B159F088FF0F4A002373
S315080018201146147B54B92B6001251A0101EB0313E9
S315080018301D738C5059F075FF204638BD0133082BAF
S3150800184002F11002EDD159F06CFF0548F5E705489D
S31508001850F3E70548F1E700BFDE88002034140020CE
S31508001860048000F0028000F0018000F0154B13B5EB
S315080018701868002301908DF8043059F057FF124B71
S315080018801C7824B159F04DFF104802B010BD012252
S315080018901A7059F046FF0E4B01A81C731C7783F883
S315080018A02C4083F83C4083F84C4083F85C4083F82E
S315080018B06C4083F87C4008238DF8073003F0F6FB6C
S315080018C02046E2E758CD0508DE880020038000F0B0
S315080018D0341400202DE9F041174B1F6D5B6D1F4036
S315080018E000D5FEE701260025144CDFF8588037425C
S315080018F018D0C8F850602368A3B1A16828460131FA
S315080019006268A1609847637B012B0BD150B90C4BD9
S3150800191003EB45131A7B60F341021A731A7F60F3CF
S3150800192041021A770135082D4FEA460604F11004DC
S31508001930DDD1BDE8F08100BF00000450341400205A
S3150800194034130020002004502DE9F04F14460546B4
S315080019500E469B46C36B87B001225B6902A9606885
S315080019609847EB6B01225B6903A93046984702A8A2
S3150800197043F049F8074648B10023A37563754FF04D
S31508001980FF33A360002007B0BDE8F08F03A843F03B
S3150800199047F80123A375237E04EBC303DE611F8486
S315080019A06368B3420ED1206003A843F05BF84FF09A
S315080019B0FF332075A360237D043B022B26D8002322
S315080019C0A375DFE723681A1A53425341A37503A880
S315080019D043F048F8237D834218BFA77503A843F050
S315080019E023F8074602A843F01FF8874218BF0023CA
S315080019F003A818BFA37543F01FF8074602A843F0CB
S31508001A001BF887421CBF0023A375D4E703A843F03D
S31508001A100BF880B1EB6B022230465B6904A9984744
S31508001A2004A843F010F80346207D032839D8DFE8D8
S31508001A3000F03838040903A8F3E7CC22237E04EB28
S31508001A40C3031A8401F0F2FA109B187003A8277EC4
S31508001A5042F0DEFF04EBC70787F82200237E03A8BF
S31508001A6004EBC303B3F8209093F8227042F0DCFF2E
S31508001A70804603A842F0E0FF8246B8F1000F15D071
S31508001A80EB6B022230465B6904A9984704A842F02A
S31508001A909FFF6075637D6BB90023A3754FF000083F
S31508001AA039E0227E04EBC2021384CBE703A842F096
S31508001AB07AFFEEE794F81680B8F1000FEED0B9F188
S31508001AC0000F09D1E7B10123627EE375002A45D1EB
S31508001AD09F4219D1677615E06B6C06EB0A025B42EA
S31508001AE086EA02010B421CBF0023A3756B6C591EC4
S31508001AF00A409B1A9945CFD8A37D002BE2D1CDE7A2
S31508001B00E37D43B94FF000084B4652463146284616
S31508001B1042F064FCA060A27D12B123694B442361A4
S31508001B201349237E097899421ED901332376BBF1DE
S31508001B30000F1BD0D2B1E37DC3B1B8F1000F15D1A8
S31508001B40032F13D0A1684B1C10D0109B224600937C
S31508001B5028460123FFF7F8FEA07507E0012FDAD023
S31508001B60032F08BFA376CDE70023A375A07D0AE758
S31508001B707CCD05082DE9F04F0E46984600238BB01C
S31508001B8004464FF0FF31104617468DF8133001F022
S31508001B9037FAB6F5801F3BD3B21C53D1E56A6B1CE6
S31508001BA057D12046616A42F05FFB0546B31C18BF51
S31508001BB00123DFF810910193636A626C029323682C
S31508001BC005A902FB053AE36B05225B69504698476F
S31508001BD005A842F0B3FF42F0D6FF504642F0DEFFBA
S31508001BE04FF0000B824601464B1C05D0636C81EA18
S31508001BF00A025B42134232D02946204642F034FBA1
S31508001C00029BAB424DD0BBF1000F4DD10546D3E741
S31508001C10314605AA04F1080042F047FE0146481C71
S31508001C2010D0384601F0ECF90122394620460DF16C
S31508001C30130342F025FC28B19DF8133088F80030CC
S31508001C40002003E0237C002BA8D12D200BB0BDE893
S31508001C50F08F2368ED1A636CB5FBF3F5A6E74846E3
S31508001C6001F0CEF90DF1130349462046019A42F0D8
S31508001C7007FC034690B1B21C03D0D9F80020B24243
S31508001C800CD19DF8132003930D4B88F80020494684
S31508001C901A68384648F06DF9039B9B46D9F8081030
S31508001CA0A2E7BBF1000FD0D0B6F5801FC8D23146E7
S31508001CB098F800307A6804F1080001F0C5F8BFE723
S31508001CC078CD0508281B00202DE9F3410446174660
S31508001CD098460E46194D816AE36A8B422AD04B1CF8
S31508001CE018E0284601F08CF90122294620460DF114
S31508001CF0070342F0C5FB30B14346294620469DF806
S31508001D000720B847B0B1A9684A1C05D0012E0AD0E9
S31508001D10E36A9942E5D10DE06968204642F031FB55
S31508001D20012E0146D8D16B6881EA0302636C5B42D7
S31508001D301A42D1D002B0BDE8F08100BFFC1A0020DB
S31508001D402DE9F0419046036B826B07689A4288BF7B
S31508001D508363426C436A90B002FB0377C36B0E46FB
S31508001D60052201A95B6904463846984701A842F04E
S31508001D70E5FE01280146307057D0656CE26B236892
S31508001D80606AD2F814C005FB0030052206A9E047B0
S31508001D9006A842F0D3FE01284FF0000523D0D4E967
S31508001DA00A3201219342CDE90B458DF834800E9510
S31508001DB08DF83C102AD11946204642F0E2FA236BE8
S31508001DC0626C14339B1AE06223630C9B53B99DF82B
S31508001DD03C303BB1626A616C2368E06B01FB0231FF
S31508001DE042F064FE0C9DE36B05225B6901A9384647
S31508001DF0984701A842F0A2FE30702846236BA26BD2
S31508001E009A4288BFA36310B0BDE8F081237C33B93A
S31508001E101C490BAA04F1080001F06EF8D5E7204624
S31508001E20194A0BABFFF750FFCFE7237C23BB2246AB
S31508001E30164904F1080001F05FF8616A204642F08D
S31508001E4034FA616A421C204642F0FDF9054620B97B
S31508001E50236B626C1344143B23632046A16A42F049
S31508001E6090FA2368A062C01A636CB0FBF3F0606254
S31508001E70204642F0C9FAB6E700232046044AFFF78F
S31508001E8023FFDAE7B5250008312500080B450408C5
S31508001E90A544040873B50D46D11E4A421C461B7E4E
S31508001EA04A419A4227D129682368994223D363680D
S31508001EB0994220D8114E0DF107033246FFF75AFE14
S31508001EC0C8B972686B689A4215D19DF80730DA1E50
S31508001ED053425341227E93420DD1636901336361B4
S31508001EE0D4E90323934206D22968A26842F823104C
S31508001EF0236901332361012002B070BD541B002001
S31508001F002DE9F04F9A468BB09DF85030DFF850B166
S31508001F100293DBF81030804653450D461646C0F04E
S31508001F209980D146DBF804300193B9F1000F00F02F
S31508001F308D80D8F83C3001225B6907A9019898473B
S31508001F4007A842F06DFDDBF80030984240F0858026
S31508001F5007A842F071FD0428074614D107A842F0E5
S31508001F6072FD019B029A04463B44002A3FD18642F1
S31508001F7012D91446361A4046019942F002FAA9EBDC
S31508001F8004090190D1E7D8F83C3002225B69019830
S31508001F9008A9984708A8E2E7841B544528BF544671
S31508001FA0032C03EB0607AAEB040A4FEA94021CD992
S31508001FB0D8F83C30294638465B69984724F003032D
S31508001FC004F003061F441D44002ED4D0D8F83C3034
S31508001FD001225B6908A9384698473246284608A967
S31508001FE0354447F0C6FF0026C5E72646ECE7074610
S31508001FF000F00302039203442A1804920593049BF3
S31508002000DD1B059BD81B039B9F420FD1002FB2D027
S31508002010D8F83C30012208A95B6998473A46284611
S3150800202008A947F071FF78B93D44A4E7D8F83C30D1
S31508002030012208A95B6998470422284608A947F09F
S3150800204063FF08B9043FDAE74FF0360948460BB094
S31508002050BDE8F08F4FF06309F8E74FF06F09F5E731
S31508002060801B00202DE9F0410F4616469846044687
S3150800207088B060B390F83450FDB1012142F0B9F848
S3150800208000210E9BCDE90511CDE902379DF83C30BC
S31508002090CDF804808DF81C30237C04968BB90D4945
S315080020A001AA04F1080000F027FFDDE90553E06BFB
S315080020B0002E08BF1D4642F036FA284608B0BDE88D
S315080020C0F0812046044A01ABFFF7FEFDEDE7054621
S315080020D0F3E700BFD3440408951E00082DE9F04F26
S315080020E099B00F4609920A69416C0E931439D31DAB
S315080020F0B3FBF1F3013302EBC302036B04469342CD
S31508002100C0F0B3810023DFF824940D93E36A4846B0
S315080021101946079300F074FFD7E9033604930E9B1C
S31508002120022B4ED1CC2E40F08A81099B002B42D03F
S315080021303946204642F055FA656C079A6B1E1340DD
S315080021401490ED1AE36B01225B6916A97868984723
S3150800215016A842F069FC00280CBF04230823782E31
S3150800216006933DD9012300254FF0080A05933B68DD
S3150800217005990E98C9F80030C9F8106042F076FC47
S315080021804FEA9A0310930023DDF81CB089F814006F
S315080021900B930F9308930C93616C4A1E0BEA020289
S315080021A08B1A002E38D05544AB4240D8236B5B1AA5
S315080021B013442363ABE0049B1B681493082306931C
S315080021C0D0E7656C079A6B1E1340782EA5EB0305BE
S315080021D016D8FB7D7BB9099B002BB3D10423069344
S315080021E0331DAB4210D9A6B1082DBBD80425002350
S315080021F0AA460593BBE7099B002BA3D10823EEE764
S31508002200099B002B9ED1D9E7002505954FF0040AB6
S31508002210ADE704250596F9E75345C7D3B0460BEB5A
S315080022200A030393089B002B18BF032313E0A3EBB1
S315080022300A039E42B0460BEB0A0228BF98469E4206
S315080022400392EFD90123D9F8102089F8173096425E
S3150800225071D1C9F804B0089399F81730002B6CD0DF
S3150800226099F818200899D31C09EBC3030132C3F85F
S3150800227004B0A3F80880997289F81820B8F1000FFD
S3150800228014D00E9B022B5BD10B9B7BB90F9B43444F
S31508002290032B0BD9E36B01229B69039814A9984772
S315080022A00546002840F0E38001230B93089B16A8F7
S315080022B00193059B009399F814204346396800F06A
S315080022C055FEE36B58469B69109A16A99847051E52
S315080022D00D9B18BF5B4652460D935946434620460A
S315080022E042F07CF8236B08F10302A3EB0A0322F001
S315080022F003029B1AC9F808002363002D40F0B78033
S315080023000F9BDDF80CB04344A6EB08060F9359461D
S31508002310204642F036F800258346002E7FF43CAF6F
S31508002320824A04F1080093685268E36239680E9B92
S3150800233000F08AFD84E002238DE7C9F804B09DE722
S31508002340099B002B30D1049BB8F1030F43440A9331
S3150800235027D9DDE90301E36B4FEA98029B699847A1
S315080023600546002865D118F003025FD0049B28F0C3
S3150800237003052B440493039B1D444FF0FF33049934
S3150800238015A8159347F0F5FDE36B28469B690122CE
S3150800239015A9984705460A9B0493002D86D0039BEA
S315080023A099E74246039DE8E7039B0A9307F1200352
S315080023B01193FB7D78689BB100233D7E0C9AD9B2B8
S315080023C08D4211D9119903F1010C31F8331091425C
S315080023D026D9069907EBC303D8690A44104403E0D3
S315080023E00C9B069A13441844E36B01225B6915A9F2
S315080023F09847159B012213930C9B0A9804330C9358
S31508002400E36B13A99B699847039B0A9A43449B1A53
S31508002410042B054607D978B9134604330A93C8E747
S315080024206346521ACBE70A9B0393B6E70A9B0493C3
S315080024303CE70A9B0493B2E70A9B0393AFE770262F
S31508002440304619B0BDE8F08F4FF0000A4FE03A6900
S31508002450616CD31D1439B3FBF1F3013302EBC302EC
S31508002460236B9342BFF452AE5DE01C26E8E73D2D90
S3150800247059D104F1080303932368079A606CA2EB09
S31508002480030ABAFBF0FA00FB0A3042F087FBE16A5E
S315080024908046204641F075FFA26A8242D7D0626C18
S315080024A0D9F80830511E0B40216B2668891A0B444F
S315080024B023630D9BE0629E1BB6FBF2F6B245C3D1C1
S315080024C0079BB3EB080A12D0E36B4FEA9A02414620
S315080024D09B6998478346E36A079A5344E362236BEA
S315080024E003989B1A4344236342F0B0F9DA462368FB
S315080024F0616CE06B01FB063142F0C5FA204641F0FB
S3150800250083FE204641F080FF2063BAF1000F9ED07B
S315080025103A69616CD31D1439B3FBF1F3013302EB4D
S31508002520C3029042A8D22E468AE700BF281B002085
S31508002530032A2DE9F34106460D4617461C4606D1E1
S31508002540237A012B23D0012002B0BDE8F081DFF801
S315080025506080096842460DF10703FFF70BFB6060D0
S315080025600028EDD19DF80720237A032AE8D0D8F869
S3150800257004106A689142E3D1012B2969D4F80CC08A
S3150800258007D172690CEB0103934202D92074207CAF
S31508002590DAE708316144E1603B46012229463046C4
S315080025A0FFF79CFD60600028CAD00020CCE700BF7A
S315080025B0541B0020F7B5089C032A1646256805D142
S315080025C0237A012B22D0012003B0F0BD254F2846DF
S315080025D03A460DF10703FFF7CDFA60600028EFD100
S315080025E0D4F800E07868DEF82810DEF844C04840E1
S315080025F0CCF100031840227AE2D1012A08D1E26818
S315080026003B6913446A69934202D92074207CDBE74C
S31508002610DEF80020DEF82C30891A9B1AB3FBFCF38F
S31508002620B1FBFCF18B420DD1696CEB6A4A1E134073
S315080026302A6B521A13442B6325682846A96A41F067
S31508002640A0FEE8623A69E36808321344E3600122AF
S31508002650334604492068FFF741FD60600028AFD083
S315080026600020B1E7541B00202DE9F04F4FF0FF334F
S315080026704FF6FF720025044600F10806C0E9092353
S315080026808BB0C3620562056330460F4642F0DEF83A
S31508002690204641F0B9FD20BB2046394641F034FEBC
S315080026A0204641F0B1FD20BB5E200BB0BDE8F08F9F
S315080026B0E26B2368606CD2F814C000FB0530052273
S315080026C005A9E04705A842F039FA012828D1294684
S315080026D0204641F0EAFD421C2946204641F0B3FD5A
S315080026E00135E3699D42E3D3204641F08DFD00287C
S315080026F0D2D000254FF0FF394FF6FF73CA46A846D9
S31508002700C4E90853E369984514D3A5EB0905012DD7
S3150800271036D84FF6FF72636A934246D16720C4E7FC
S3150800272042F036FA0028DBD02946204641F0BDFDA6
S315080027300246D1E72368E26B606C576900FB0830F4
S31508002740052205A9B84705A842F0F8F9834605A861
S3150800275042F0CBF90746584642F015FA68B1574594
S3150800276038BFC4F82480B94528BFB946BD4238BF2A
S315080027703D46BA46236A0133236208F10108C1E7D8
S315080027804FF6FF7300256362E3699D42C1D2676C09
S315080027902068E36B052207FB05005B6905A99847D6
S315080027A005A842F0A2F90135EEE7E26B676C2068EE
S315080027B0694607FB030055690522A847684642F0A3
S315080027C094F9626A2368606C504D00FB023042F04F
S315080027D0E5F94FF0FF33A062E3622A466FF0010184
S315080027E0204605ABFFF7C6F900284FD1AD68294644
S315080027F02046E56241F0E4FC206320B92046E16A00
S3150800280041F0BFFDE0622946204641F0BAFD054683
S31508002810A36A9D423CD16569626CE91C143AB1FB16
S31508002820F2F14FF0000805EBC1050335B5FBF2F5EB
S31508002830C1460235E36999453CD3A8455AD2204694
S31508002840616A41F011FD0027064604F1400AB845C1
S3150800285012D8626C2368694602FB0639E36B0522C7
S315080028605B6948469847684642F03FF95346024630
S315080028704946E06B42F094F93146204641F0F4FCB3
S315080028800137AF420646E2D364200EE7A56AAEE7F3
S315080028902946204641F094FC236B29460344074603
S315080028A02363204641F06DFD0546002FB0D1C4E9EB
S315080028B00B07ADE7636C2768052203FB0977E36B13
S315080028C005A95B693846984705A842F037F942F0EA
S315080028D05AF960B1384642F061F90146204641F09E
S315080028E06FFC636C143B984208BF08F1010809F1B4
S315080028F001099FE7304641F0A9FF00232046194603
S31508002900034AFFF7E1F90020CFE600BF541B002079
S315080029106F4404082DE9F0410025634B0E46D3F8B1
S31508002920008004461D6018B921252846BDE8F081B7
S3150800293090F8347007B30A6803689A4240F0AA8090
S315080029404A6843689A4240F0A5808A6883689A4232
S3150800295040F0A080CA68C3689A4240F09B800A6922
S3150800296043699A4240F096808A69C36B9A4240F05E
S3150800297091804B698361D8E7856B6822394647F0B1
S31508002980EDFAA563336804F1080023607368636091
S31508002990336963617369A361D6E9021241F068FF7E
S315080029A0B36904F14000E3639B68984720B9676CF4
S315080029B017B16368B3FBF7F794F84330E761002B68
S315080029C0B2D00023656C2366002D6BD0002F69D02A
S315080029D02368B3FBF5F205FB1233002B5CD167685D
S315080029E0B7FBF5F605FB1676002E55D1204641F0C5
S315080029F0D7FBA369043303449F424FD340F634728E
S31508002A006369CC3B93424BD8B5F5805F4AD3032123
S31508002A10204641F0EEFBD4E90001E36B1B689847BA
S31508002A200546E36B0220DB6898472DB184F83460CD
S31508002A30E06B41F078FD78E741462046FFF714FE43
S31508002A406428054604D141462046FFF70DFE054693
S31508002A50636C143BD5B9226A204602FB03F641F0A3
S31508002A609FFBA369043303449E4203D284F834507F
S31508002A705A25DDE70123D4E900010C4A84F83430ED
S31508002A8013680133136041F08DFFD1E7002384F802
S31508002A903430CDE75D2548E7592546E75A2544E70A
S31508002AA05F2542E75B2540E7B8140020B4140020F0
S31508002AB02DE9FF410C4616461F46054680B390F899
S31508002AC034307BB3B1F5801F2ED2DFF86080012148
S31508002AD041F08FFB2146424628460DF10F03FFF7CA
S31508002AE049F8044670B99DF80F30012B11D1D8F872
S31508002AF01030BB4212D10246009031462846FFF7F5
S31508002B00FFF90446E86B41F00EFD204604B0BDE827
S31508002B10F081022B14BF2D246024F3E76324F1E728
S31508002B202124F2E71124F0E72924EEE7801B002090
S31508002B302DE9F04385B00C4617461E460546DDF8D6
S31508002B40308098B390F8343093B3B1F5801F31D202
S31508002B50DFF86490012141F04CFB21464A4628469D
S31508002B600DF10F03FFF706F8044688B99DF80F30F4
S31508002B70012B14D1D9F8102006EB08039A4213D377
S31508002B8000904346324639462846FFF7B9F90446C7
S31508002B90E86B41F0C8FC204605B0BDE8F083022B7F
S31508002BA014BF2D246024F3E76324F1E72124F2E718
S31508002BB01124F0E72924EEE7801B00202DE9F341D4
S31508002BC01F4600230C46164605463B6050B390F850
S31508002BD034304BB3B1F5801F28D2DFF85480012179
S31508002BE041F007FB2146424628460DF10703FEF74A
S31508002BF0C1FF0446A0B99DF80730032B10D0022B5D
S31508002C000AD10123336004233B60E86B41F08BFC57
S31508002C10204602B0BDE8F0813060D8F81030F3E7FE
S31508002C202D24F2E72124F3E71124F1E72924EFE71D
S31508002C30801B002073B50446056B41F0B1FA636E3C
S31508002C4003449D428CBF00230123854294BF00257F
S31508002C502D1A207C84F85030656584F85800A8B190
S31508002C6000230C4E1A4619462046009641F086FD6A
S31508002C70002305461A4619462046009641F087FD68
S31508002C80E3682844984294BF0020C01AE06502B061
S31508002C9070BD00BFFFFF0F002DE9F3471E464369CD
S31508002CA00446B342884617469DF828904ED3002519
S31508002CB08DF80750204641F073FAD4F830A08245C3
S31508002CC00AD2236AB5EB430F06D2002220460DF13D
S31508002CD00701FFF735F8B8B39DF80730012B05D182
S31508002CE0002220460DF10701FFF72AF8B9F1030F74
S31508002CF006D03146204641F03EFA256B854227D359
S31508002D00144D4FF0FF31284600F07AF94B46294614
S31508002D1000222046C5E90376C5F80080FFF7DEF9EC
S31508002D20236E054663B12046FFF784FF94F85030BA
S31508002D3013B994F858301BB1236E04F15000984724
S31508002D40284602B0BDE8F0870135B3E76225F7E704
S31508002D501C25F5E7541B00202DE9FF410F46904638
S31508002D601E46054698B390F8343093B3B1F5801FE4
S31508002D7031D21A4C022141F03CFA224639462846FD
S31508002D800DF10F03FEF7F6FE024678B1012342461F
S31508002D900093394633462846FFF77EFF0446E86B1C
S31508002DA041F0C1FB204604B0BDE8F0819DF80F3024
S31508002DB0012BEBD12169B142E8D100934146334654
S31508002DC02846FFF79DF804460028DFD1E7E72124C7
S31508002DD0E8E71124E6E72924E4E700BF801B002082
S31508002DE030B50C46054685B028B390F8343023B381
S31508002DF0B1F5801F23D2022141F0FBF90DF10F0333
S31508002E00214628460F4AFEF7B5FE034688B99DF8BF
S31508002E100F20032A0DD00322214600920246284697
S31508002E20FFF73AFF0446E86B41F07DFB204605B004
S31508002E3030BD2D24F7E72124F8E71124F6E72924E5
S31508002E40F4E700BF801B00202DE9F0414668002EFC
S31508002E503AD0056898464FF0000CAE4655F83C4007
S31508002E60C4F31307013401D0B94222D00CF1010C86
S31508002E7066450EF1080EF1D100273C4603E0A6424E
S31508002E8007F108071DD055F8343001340133F6D15F
S31508002E906FEA01316FEA1131E9510168CB59C3F381
S31508002EA0130343EA0853CB5103683B445A60BDE811
S31508002EB0F08141EA0851CEF80010036803EBCC0311
S31508002EC0F4E7B8F1030F03D101230372BDE8F081DB
S31508002ED000273C4603E0A64207F10807F4D055F858
S31508002EE034300134C3F3075CBCF1030FF3D11B0D77
S31508002EF01B050B43EB51D0E72DE9F0410646406828
S31508002F0082B0C0B10F4690460024336853F8345057
S31508002F1003EBC403C5F30752C5F31301013504F1E6
S31508002F20010406D05B683046CDF80080B84710B17A
S31508002F3070688442E9D302B0BDE8F081024B196893
S31508002F40024B1868FFF7E6BCD42F0120F42F0120A6
S31508002F5008B558F0D8FB014B186008BDAC1B00201B
S31508002F60014B186858F0CABBAC1B002073B5044661
S31508002F702248012A00EAC1119DF8185023F07C4026
S31508002F8007D9961E012E28D9073303F07F03194364
S31508002F9008E09DF81C300A43DB0603F0C0531343D0
S31508002FA043F060410023C4E900108DF80730B5B13D
S31508002FB0202221460DF1070041F00CFE1A220DF1E0
S31508002FC00700211D41F006FE082063689DF80720CA
S31508002FD043EA8263636002B070BD1143E2E71B22D5
S31508002FE00DF10700214641F0F5FD23689DF80720FD
S31508002FF0042043EAC2632360EDE700BF80FFFF07B2
S3150800300038B5094B0D461A680021044646F0A6FF56
S315080030104FF0FF320023C4E900252361A260E38252
S315080030202383A37638BD00BF78CD05080138C0B222
S3150800303005289ABF014B185C012070477DCD05080D
S315080030402DE9F0410746154600240E46596888B012
S31508003050490A012922464FEA510104F10104F8D828
S31508003060DC78997824031B88C90201F4006104F40A
S3150800307080540C43C3F30A035203234492B24FF01D
S3150800308000089C18274B6FEA0444039325F07843FD
S31508003090ED4302A90DF107001B2202938DF8078064
S315080030A041F098FD9DF80720029B02A943EAC263F6
S315080030B00DF107001B2225F07845049302958DF83B
S315080030C0078041F087FD9DF80720029B6FEA1444AC
S315080030D043EAC26305934FF0FF330794069307A9A3
S315080030E0BB69012206F110009847BB6905A9044689
S315080030F0012206F108009847BB69404518BF0446F7
S3150800310004A90122301D98470122404518BF0446EC
S31508003110BB69304603A99847404508BF204608B012
S31508003120BDE8F08101009AB201292DE9F84304D9D6
S315080031300239012927D9BDE8F883234B234E1C6899
S31508003140234FDFF89880803C14F1800FF3D0D4F831
S3150800315000900521484641F032FE1E4B994510D095
S315080031601D4B994514BF3D46454658F0CCFA2B6889
S3150800317043F018032B6058F0C1FAD4F88040803C1D
S31508003180E2E73546F1E7104B104E1C68104FDFF8A2
S315080031904C80803C14F1800FCDD023680D4A9342B1
S315080031A010D00D4A934214BF3D46454658F0ABFA37
S315080031B02B6823F018032B6058F0A0FAD4F8804047
S315080031C0803CE7E73546F1E7B01B002094C403507E
S315080031D074C403500000015B00000A50B4C40350D5
S315080031E02DE9F041864A0B688EB0934205460C4697
S315080031F006AF03D0834A934240F0E780BC46824E2E
S3150800320005970FCEACE80F0096E80F0010368CE84D
S315080032100F000FCE0DF1040CACE80F00002D00F0E6
S31508003220D28084220021284646F098FE0023AB650A
S31508003230226873498A4214D0724B9A4200F0A280DF
S31508003240724E734B1B681BB97249734806F002FB32
S315080032506F4805F1800140F055FE30460EB0BDE8D6
S31508003260F0814FF4702298466C486D49C5E90B12F7
S315080032702865236827462B6001232E1D85F85C30B8
S315080032800FCF0FC697E80F0086E80F00637E012B65
S3150800329008BF8DF81D30A37E33B1012B79D0022BE0
S315080032A002D0032BCCD10623227E8DF81230012AB8
S315080032B0E36870D15B4A93428CBF04230523059AC1
S315080032C0537700238DF81130574B5848039358F01D
S315080032D0CCFB2B6D986858F0C8FB2369DA1F092ABE
S315080032E0AED8063B8DF81030237E2BB9E37EB3FAB1
S315080032F083F35B098DF81C300121284641F088FCD0
S31508003300064600289DD1237A217941EA03414FEAEE
S31508003310481303F1A04202F57032C2F8AC14617A80
S31508003320607940EA0140C2F8A404A67AA07940EA86
S315080033300640C2F8A804E17E89BBE07AE17941EA51
S315080033400041C2F89814E17E49BB1D23C2F89434A3
S31508003350206801A901F0E4FB58F0E8F9344B1A7823
S315080033602ABB01221A7058F0DCF906F047FCFEF772
S315080033707DFA002105F12400FEF748FA0146C8B196
S315080033802C4E5EE74FF480124FF001082A482B496D
S315080033906CE7042388E700228DF8342095E71C2281
S315080033A003F1A04303F57033C3F89424D0E758F02B
S315080033B0B8F9DCE705F12800FEF728FA06460028E2
S315080033C03FF43FAFDCE71E4E3BE73E46DFF878C0EA
S315080033D0BCE80F000FC69CE8070086E80700002D2A
S315080033E000F0DE8084220021284646F0B7FD00233F
S315080033F0AB652168134A914228D0044E2DE700BFD9
S315080034000000015B00000A5084CD0508022000F088
S31508003410B01B0020F82F0120B41B002074E4050817
S3150800342001000F003F4B4C0040420F0044E40508E2
S31508003430DF880020092000F068E405080100100074
S31508003440012000F000C00550B8CD0508554AA4462D
S315080034502A654FF4802254492E1DC5E90B122268AD
S3150800346085F85C302A60BCE80F000FC69CE80F00A0
S3150800347086E80F00637E012B08BF8DF82630A37EF1
S315080034803BB1012B6CD0022B6DD0032BB5D14FF479
S315080034904073ADF82830237E4448012B03BF002330
S315080034A08DF825304FF4E133E368089358F0DDFAD8
S315080034B02B6D986858F0D9FA23691A1F0C2A9CD8DC
S315080034C0033B394620688DF8243001F0ADFEA36928
S315080034D023F47F0323F47F432BB94FF480322B6800
S315080034E003F580539A60237A2279E17E42EA034201
S315080034F02F4BC3F83827002938D1617A627942EA16
S315080035000142C3F83027A17AA27942EA0142C3F8F8
S315080035103427E17AE27942EA0142C3F824271D22D8
S3150800352001212846C3F8202741F072FB06460028E9
S315080035307FF493AE58F0FAF81E4B1A7822BB012294
S315080035401A7058F0EEF806F059FBFEF78FF90021CD
S3150800355005F12400FEF75AF90146C0B1164E7CE67D
S315080035604FF4007395E74FF4807392E7617A6279B6
S3150800357042EA0142C3F83027A17AA27942EA014217
S31508003580C3F834271C22CBE758F0CBF8DDE705F162
S315080035902800FEF73BF9064600283FF45EAEDDE755
S315080035A0064E5AE650E405080200040044E40508FD
S315080035B000C00350DF880020092000F0012000F039
S315080035C0044BD3F88420D206FBD4D3F88400C0F386
S315080035D0811070470040005038B5174B0546D3F8A0
S315080035E028310C4603F00703013B052B20D8DFE8FA
S315080035F003F003131B0F0B1755F054FC052305B1F5
S31508003600286004B1236038BD55F04CFC0623F6E764
S3150800361055F092FC0723F2E755F084FC0323EEE706
S3150800362055F080FC0423EAE755F078FC0223E6E728
S3150800363000231846E3E700BF00800050002337B593
S315080036400193164B0546D3F820320C4603F00703C0
S31508003650042B21D8DFE803F0030B11161B00012306
S315080036600DB1019A2A6004B1236003B030BD002170
S3150800367001A8FFF7B1FF1223F2E755F05DFC072317
S315080036800190EDE758F065F80A230190E8E755F050
S315080036909BFC09230190E3E70023E1E70080005043
S315080036A038B5104B0546D3F880300C4603F00303B3
S315080036B0022B0BD0032B0DD0012B0FD155F0F8FBA5
S315080036C00E2305B1286004B1236038BD55F034FCDB
S315080036D00723F6E755F0E6FB0623F2E7002318462C
S315080036E0EFE700BF0080005038B5104B0546D3F809
S315080036F000310C4603F00303022B0BD0032B0DD02D
S31508003700012B0FD155F00EFC032305B1286004B137
S31508003710236038BD55F058FC0923F6E755F008FC38
S315080037200823F2E701230020EFE700BF00800050DE
S3150800373038B5184B0546D3F820010C4600F00700AB
S31508003740062823D8DFE800F0040A0E16121A1E000F
S31508003750012305B1286004B1236038BD55F0A2FBEA
S315080037600523F6E755F0DEFB0323F2E755F0E4FB05
S315080037700723EEE755F0D2FB0223EAE755F092FB62
S315080037800623E6E755F0CEFB0423E2E700231846B6
S31508003790DFE700BF0080005038B5104B0546D3F868
S315080037A040310C4603F00303022B0BD0032B0DD03C
S315080037B0012B0FD157F0CDFF0A2305B1286004B1BC
S315080037C0236038BD55F000FC0923F6E757F0C4FF1F
S315080037D00C23F2E701230020EFE700BF008000502A
S315080037E0002337B50193164B0546D3F860320C46CD
S315080037F003F00703013B032B1FD8DFE803F0020E93
S315080038001914002101A8FFF793FF10230DB1019A9F
S315080038102A6004B1236003B030BD002101A8FFF778
S31508003820BBFF1123F2E755F087FB07230190EDE76D
S3150800383055F074FB02230190E8E70023E6E700BF92
S3150800384000800050002337B50193164B0546D3F880
S3150800385094320C4603F00703013B032B1FD8DFE81D
S3150800386003F0020E1914002101A8FFF761FF1023C7
S315080038700DB1019A2A6004B1236003B030BD00215E
S3150800388001A8FFF789FF1123F2E755F055FB072337
S315080038900190EDE755F042FB02230190E8E700238B
S315080038A0E6E700BF0080005038B5104B0546D3F850
S315080038B060310C4603F00303022B0BD0032B0DD00B
S315080038C0012B0FD157F045FF0A2305B1286004B133
S315080038D0236038BD55F078FB0923F6E757F03CFF1F
S315080038E00C23F2E701230020EFE700BF0080005019
S315080038F02E4B98424AD022D82D4B984240D014D805
S315080039002C4B984239D00AD82B4B984232D02B4BA5
S3150800391098422FD02A4B98422CD000207047294B2A
S315080039209842FAD1284B186F7047284B98422AD0EC
S31508003930274B9842F1D1244BD3F880007047254B8A
S3150800394098422BD009D8244B984223D0234B98422F
S31508003950E3D11D4BD3F88C007047214B984221D0F8
S3150800396003F5740303F510539842D6D1164BD3F8D2
S3150800397098007047144B986D7047134B586E7047F4
S31508003980114B586F7047104B986F70470E4BD3F812
S31508003990840070470C4BD3F8880070470A4BD3F85D
S315080039A090007047084BD3F8940070470048E80128
S315080039B00024F400C0CF6A0080841E0000093D0080
S315080039C040420F00405DC6000080E00FC0EA2101BA
S315080039D080BA8C01007E560380D54302006CDC0257
S315080039E00090D00373B50D460021114B0191D3F811
S315080039F08041064604F00304022C13D0032C0CD095
S31508003A00012C13D101A8FFF793FE10240EB1019BD8
S31508003A10336005B12C6002B070BD55F08DFA0724ED
S31508003A200190F3E755F07AFA0190EFE70C46EDE7D7
S31508003A300080005038B5104B0546D3F840320C4686
S31508003A4003F00303022B0BD0032B0DD0012B0FD150
S31508003A5057F07FFE0A2305B1286004B1236038BDFC
S31508003A6055F0B2FA0923F6E757F076FE0C23F2E78B
S31508003A7001230020EFE700BF0080005038B5144B43
S31508003A800546D3F800020C4600F0070004281BD8A8
S31508003A90DFE800F003090D111500012305B12860C0
S31508003AA004B1236038BD57F054FE0A23F6E755F0F3
S31508003AB08BFA0923F2E757F04FFE0C23EEE755F091
S31508003AC017FA0F23800AE9E700231846E6E700BF3E
S31508003AD00080005038B5144B0546D3F808020C464A
S31508003AE000F0070004281BD8DFE800F003090D11D1
S31508003AF01500012305B1286004B1236038BD57F0CD
S31508003B0028FE0A23F6E755F05FFA0923F2E757F08D
S31508003B1023FE0C23EEE755F0EBF90F23800AE9E7BD
S31508003B2000231846E6E700BF00800050B0F5207F66
S31508003B301FD009D8B0F5007F15D003D868B1B0F505
S31508003B40C07F0AD000200CE0B0F5607FFAD10B4B9D
S31508003B50D3F88000C0F3011003E0084B186FC0F3D8
S31508003B60033001307047054BD3F89000C0F304606A
S31508003B70F7E7024B186FC0F38020F2E70080005089
S31508003B8002464FF48030104B10B598660020FFF7B8
S31508003B90CDFF504341F671320C4BDC69DA635A6843
S31508003BA004F4803422F4401259B90949884294BF72
S31508003BB000200120000502435A600CB10022DA6396
S31508003BC010BD0449F2E700BF009000500000035002
S31508003BD0005A6202002D3101430905D0012B0CD091
S31508003BE0022B084B18BF002300F01F0039B103F55C
S31508003BF08053012282401A607047034BF4E703F5AD
S31508003C000053F6E768800050648000501FB5002115
S31508003C10B0F5807F0446CDE9001100F0D2803AD88D
S31508003C205E2833D85E2833D8DFE800F045323232D2
S31508003C303232323232323232323232323232323256
S31508003C4032323232323232323232323245AC45AC2C
S31508003C50BCBCBCBCBCACC64E6BDC4EACACAC3232ED
S31508003C60323232323232ACACAC7EE6AC323232323E
S31508003C70323232323232323232BC454545E14E4E6C
S31508003C80EB8D63C132323232329E4500802870D0C5
S31508003C90009804B010BDB0F5D06F00F0A38035D8F9
S31508003CA0B0F5607F79D01AD8B0F5007F65D005D811
S31508003CB0B0F5C07FECD155F01BF95CE0B0F5207F7C
S31508003CC060D0B0F5407FE3D155F012F902464FF4C3
S31508003CD02070FFF72BFFB2FBF0F252085BE0B0F55D
S31508003CE0B06F69D00AD8B0F5806F5BD0B0F5A06F19
S31508003CF0CED100216846FFF7A1FCC9E7B0F5C06F31
S31508003D00C6D100216846FFF747FDC1E7B0F5106F39
S31508003D106DD00ED8B0F5086F78D0B9D8B0F5E06F89
S31508003D206AD0B0F5F06FB3D100216846FFF7BCFD45
S31508003D30AEE7B0F5406F3AD013D8B0F5206F60D033
S31508003D40B0F5286FA4D10021324B0391D3F8703215
S31508003D5003F00303012B02D103A8FFF71DFD039B04
S31508003D6039E0B0F5486F93D100216846FFF76AFD40
S31508003D708EE755F09DF800908AE755F099F80246C7
S31508003D80204604E055F0B4F802464FF42070FFF7D9
S31508003D90CDFEB2FBF0F200927AE701A8FFF780FCAD
S31508003DA0019AEDE700216846FFF7C2FC70E700219B
S31508003DB06846FFF711FC6BE700216846FFF712FE1D
S31508003DC066E74FF0E02302911B695B0705D555F0BE
S31508003DD08FF80290029B00935AE703A902A8FFF7FF
S31508003DE0DBFCF7E700216846FFF748FE50E70021AD
S31508003DF06846FFF76FFE4BE700216846FFF71AFE95
S31508003E0046E700216846FFF7EBFC41E76846FFF7FF
S31508003E106BFC3DE70080005008B58020FFF7F6FEF2
S31508003E20034B98429EBF4FF48032024B1A6708BD77
S31508003E30005A620200A000501FB503460020B3F5E1
S31508003E40807F019000F0C58065D85D2B56D84C2B35
S31508003E5007D82D2B48D8232B2CD8019805B05DF808
S31508003E6004FB4D3B102BF8D801A252F823F000BFF3
S31508003E70C93F00085B3E00085B3E00085B3E000841
S31508003E80773F00085B3E00085B3E000823400008B9
S31508003E90953F00083B3F0008194000085B3E0008B4
S31508003EA05B3E00085B3E00085B3E00085B3E000880
S31508003EB02D400008243B092BCFD801A252F823F045
S31508003EC0C93F0008C93F0008C93F0008C93F0008A4
S31508003ED0C93F00085B3E0008BF3F00085B3E00087C
S31508003EE0573F0008FF3F00083D2B00F083803E2B1C
S31508003EF0B3D1002001A9FFF79DFDAEE7802BACD119
S31508003F00504B1B6F03F00703013B032BA5D8DFE8D3
S31508003F1003F0544D5052B3F5F06F6BD020D8B3F57B
S31508003F20B06F4CD00ED8B3F5607F71D095D3B3F58A
S31508003F30806F49D0B3F5A06F8FD1002001A9FFF794
S31508003F407DFB8AE7B3F5D06F59D0B3F5E06FD0D0D3
S31508003F50B3F5C06F81D1002001A9FFF71DFC7CE7EE
S31508003F60B3F5206F5DD00BD8B3F5086F4CD0B3F519
S31508003F70106F7FF472AF002001A9FFF7ABFD6CE765
S31508003F80B3F5406F48D0B3F5486F4FD0B3F5286FF7
S31508003F907FF463AF2B4BD3F8703203F00303012B86
S31508003FA049D0022B0CBF1523002300E005230193FB
S31508003FB053E70323FBE70823F9E70223F7E7002083
S31508003FC001A9FFF70FFD48E7002001A9FFF7B0FB9D
S31508003FD043E74FF0E02302901B695B0705D554F0D1
S31508003FE087FF0D230393039BE1E703A902A8FFF7C5
S31508003FF0D3FBF8E7002001A9FFF756FC2DE70020C0
S3150800400001A9FFF73BFD28E701A9FFF76DFB24E7A8
S3150800401001A9FFF745FB20E7002001A9FFF7DCFA15
S315080040201BE7002001A9FFF7DBFB16E7002001A923
S31508004030FFF708FC11E7002103A8FFF7ADFB1123E2
S31508004040B5E700BF008000504FF48032074B08499F
S31508004050586E03F580535A664B6A23F001034B6288
S31508004060C3035CBF034B5A66704700BF008000500D
S3150800407000C0075000A0005008B5FFF7DDFE09286C
S3150800408011D00A38012802D94FF6FF7008BD4FF43F
S315080040908002064B5A6603F5D8335B6ADB07F3D50D
S315080040A04FF4FA70F2E7024B1888EFE700900050D9
S315080040B05E3A012008B5FFF7BFFE03280ABF024B88
S315080040C04FF6FF70188808BD5C3A012038B50446DB
S315080040D08020FFF7B1FE032800F08A804FF4801293
S315080040E0544B4FF0A0615A6645F60E03524AC2F881
S315080040F08030524B99624FF4803103F580539962B0
S31508004100936DD903FCD4916D11F08041FBD1D4E9AC
S3150800411000031B0543EA0063E07B0343207B43EA75
S315080041200043607B43EA0033A07B43EA80131361B4
S315080041309069D4E904531B0643EA856300F00040FE
S315080041400343A07E0343207E43EA0043607E43EA9E
S3150800415000239361136AE06923F00F0303430038D1
S3150800416018BF0120E57E43EA850343EAC0031362CC
S31508004170E369334D002B3CD194F82430916A94F8C6
S315080041802000DB00294043EA40130B4394F8211032
S3150800419043EA011343F4803393622A49264A936D0E
S315080041A031EA0303FBD14FF0807124488162136919
S315080041B0A56823F4700343EA055313614FF00043DF
S315080041C0836194F822300BB91F4B996294F8233017
S315080041D03BB94FF480321C4B9A62174A936D5B00C9
S315080041E0FCD494F825301BB1134B184AC3F8802029
S315080041F038BD022B08D11161154891614FF4085258
S315080042004FF47F4140F079FD0B4994F822308A6AD1
S3150800421094F820001B062A4043EA4013134394F8F7
S31508004220242043EAC20394F8232043EA02438B621C
S31508004230D7E700BF009000500040005A0050005ACF
S31508004240C7FFFEFE030001000060005AF1A7FFFF4A
S315080042503440005A014B93F900007047883A012010
S315080042604FF400011B4A437810B551664FF4D151FB
S31508004270022402F5B832516217494F2B4C604FF0B1
S31508004280010428BF4F2301F580514C601169C90309
S31508004290FCD4017843EA01235361D0E901131B01D9
S315080042A043EA0123417B0B43017B43EA41039360C5
S315080042B0C37B817B1B0143EA4113417C0B43017C91
S315080042C043EA41035360837C13B16FF4D1535362BD
S315080042D010BD00BF0090005000100250014B18801E
S315080042E0704700BF5E3A0120014B1880704700BF37
S315080042F05C3A01204FF4800208B5184B5A6602232F
S31508004300174A5360936813F48033FBD1012822D1EE
S3150800431054F008FE134B984215D003F5122303F503
S31508004320F863984213D0104B00EB8002400AB3FBA7
S31508004330F0F3520A0A49CA620B6301234B62002250
S31508004340074B5A6008BD45F67A13084AF2E745F660
S315080043501A03074AEEE75362F1E700BF00900050E0
S315080043600040025000F0490264666666D8B8050047
S31508004370BBCF0500B0F5207F10B50C465DD008D838
S31508004380B0F5007F4ED003D8C0B1B0F5C07F15D0C8
S3150800439010BDB0F5607FFBD12C4B4C1ED3F8FC202A
S315080043A02B4912F0807F4FEA041427D1D1F88030C8
S315080043B023F030032343C1F88030E9E740F0ACFC32
S315080043C040F0B8FC4FF48031224B214A1967136F2D
S315080043D0013C23F4704343EA0433136754F088FD21
S315080043E00446FFF7EDF8C0F10201204640F09CFCB8
S315080043F000F04AF8BDE81040FFF70EBDD3F8FC20E0
S3150800440022F08072C3F8FC20D1F8802022F0300216
S315080044102243C1F88020D3F8FC2042F08072C3F80A
S31508004420FC20B5E70A4A4C1ED2F8903023F0F85320
S3150800443043EA0463C2F89030AAE7054A4C1E136F94
S3150800444023F4806343EA84231367A1E700ED00E0C1
S31508004450008000500090005008B50121022000F0AD
S3150800446073F94FF42070FFF761FB054B187040F0A5
S3150800447053FC40F05FFC4FF48032024B1A6708BDCC
S31508004480E08800200090005008B54FF4C070FFF790
S31508004490BDFBBDE808400449884294BF01210221BA
S315080044A04FF42070FFF766BF80F0FA0238B504466D
S315080044B054F01EFD0546FFF783F8C0F102012846B1
S315080044C040F032FC0121002000F07EF92CB1FFF704
S315080044D0DBFFBDE83840FFF79FBC034B4FF4207065
S315080044E01978FFF747FFF4E7E08800204FF4C02269
S315080044F070B50546FFF7FCF9314B04465A6603F5D5
S3150800450098335A68012A04D12E494A605A68920794
S31508004510FCD48020FFF790FC052807D140F0FCFB6F
S3150800452040F008FC4FF48032254B1A67264B24F0DE
S3150800453040749D4230D0254B9D4230D054F0B2FC99
S315080045408542064603D90121284600F03DF9204B4D
S31508004550DA6812F0060FFBD199689C609A68624087
S3150800456012F4F81F1ED12846FCF732FE8020FFF70A
S3150800457063FC05280DD154F0BBFC0446FFF720F870
S31508004580C0F10201204640F0CFFBFFF77DFFFFF7A1
S3150800459043FCAE420CD270BD44F00074CEE744F042
S315080045A08074CBE780209960FFF746FC052805D084
S315080045B0BDE870400121002000F006B93546DAE76B
S315080045C00090005000E0015040420F0080841E0019
S315080045D000000150304B314A984251D020D8A3F5FB
S315080045E0B703A3F55863984246D00DD82C4B98428A
S315080045F031D02C4B984239D02B4B4FF4002198429E
S315080046001DD00023516622E0284B4FF40021984222
S31508004610F7D1274BD3F8BC30516623F0407316E028
S31508004620244B984230D0244B984231D0234B4FF438
S3150800463000219842E5D11E4BD3F8C830ECE71C4B55
S31508004640D3F8A030516623F0407343F000734FF05F
S31508004650B442936070474FF40021154BD3F8A0304D
S31508004660516623F0407343F08073F0E7104BD3F89C
S31508004670A0304FF40021CFE70D4BD3F8B830F8E758
S315080046800B4BD3F8C030F4E7094BD3F8CC30F0E73E
S31508004690074BD3F8D030ECE7C0EA21010090005070
S315080046A080841E0000093D0040420F000024F400EB
S315080046B00080E00F0048E801005A620280BA8C01C7
S315080046C0024A536B0342FCD1704700BF00400950B1
S315080046D0044A4178536F23F4407343EA012353672E
S315080046E0704700BF0040005010B50E4A04461369D3
S315080046F043F00403136155F04DFA40F020FB0A4BD2
S315080047005B6E5B0142BF094B094AC3F8202430BFE0
S3150800471040F016FB05F0DCF91CB9BDE8104054F072
S31508004720E7BB10BD00ED00E00080005000E003503C
S315080047300000FF0F034A0179D36E23F030030B43C1
S31508004740D366704700400050F8B504461C4BD3F8B2
S315080047508420D106FBD4D3F88430C3F381139C425A
S315080047602CD054F0A5FB012C064602D1214640F078
S31508004770DBFA56F0C8FF4FF00072124B07465A662E
S31508004780204640F0E0FA4FF480630D4D621E9340D8
S315080047902B676B6E9A0103D4D5F884309B060AD52D
S315080047A0384656F0ABFF022C08D13046BDE8F84033
S315080047B0002140F0B9BAD5F88430EAE7F8BD00BF61
S315080047C0004000500060005010B50C4608B954F07F
S315080047D06FFB074B21461B783BB1064B984204D822
S315080047E00120BDE81040FFF7AFBF0220F9E700BF80
S315080047F0E1880020005A62020278034B012100205A
S315080048001A70FFF7E1BF00BFE18800204FF00042B1
S3150800481038B5244B244C5A664AF6CD33656C0146A6
S3150800482005F00105236428BB0120FFF749FF6368EB
S31508004830DB0715D51D4B586008461D4B226BD20762
S315080048400CD4984208D1072415B1174B194A1A6493
S3150800485051F0E1FD204638BD0130EFE79842F2D02D
S315080048600024F1E70132236B13F0080305D08A42CE
S31508004870F8D1E8E700220E49F5E78A42E3D020217D
S315080048800A4A91620121A2F5805251600649084AF6
S31508004890886A800603D49342D5D00133F8E7934259
S315080048A0DDE700BF00900050004009500060095045
S315080048B040420F003254FFFF4FF0004238B5164B06
S315080048C001465A664AF6CD33144C154A656C23647C
S315080048D043780B205B0043F00103D363FFF7F0FE38
S315080048E063688A7823F4F87343EA02136360CA7824
S315080048F04B7943EA0223A3600A798B7943EA0223B8
S3150800490023610878FFF782FFEB0744BF054B236452
S3150800491051F081FD012038BD00900050004009503B
S31508004920004000503254FFFF4FF0004270B5124B62
S3150800493004465D6E03F580535A664AF6CD330F4931
S3150800494080204E6C0B64FFF7BBFE0B6A23F00F0347
S315080049500F2C94BF234343F00F030B62F30744BFA6
S31508004960074B0B64002DA2BF4FF00042054B5A6659
S3150800497051F051FD70BD00BF008000500040095045
S315080049803254FFFF00A000504FF0004270B5104BA4
S3150800499004465D6E03F580535A664AF6CD330D49D3
S315080049A080204E6C0B64FFF78BFE0B6A23F4F853DA
S315080049B043EA04230B62F30744BF074B0B64002D3D
S315080049C0A2BF4FF00042054B5A6651F024FD70BD58
S315080049D000800050004009503254FFFF00A00050EC
S315080049E010B540F0B5F9042300F5805100F50052E2
S315080049F00B6113610B6113610B6113610B61136129
S31508004A00202341F2020103610023C36083604161F0
S31508004A104FF4A0218361836541620549C36103623E
S31508004A208362C36243630365D164036310BD00BF39
S31508004A30FF3F0D0370B505461446084641B9354B88
S31508004A409D4218D0344B9D4208BF5720FFF7DEF829
S31508004A50AB6813F0010F6B6830D0B0FBF4F4D807DD
S31508004A6004F1FF344FEA046407D42B6923F07F432B
S31508004A7023432B6170BD5620E8E72821284640F0DD
S31508004A8063F9AB6C990715D1AB6CDA0714D4AB6C28
S31508004A9013F0020F14BF06260026284640F058F9E0
S31508004AA02B69314623F07F4323432B61BDE87040D1
S31508004AB040F085B90526F0E70926EEE7AB6DDB077A
S31508004AC0AB6848BF640003F0E003402B1BD004D852
S31508004AD0DBB1202BCED1082304E0602B17D0802B26
S31508004AE0C8D1012363434101B1FBF3F20B4B203AD2
S31508004AF0284603EAC202012140F026F92A63BDE8E6
S31508004B00704040F021B90623ECE71023EAE70423B6
S31508004B10E8E700BF0000015B00000A50F8FF7F00CD
S31508004B2070B5436804460D460E691BB140F6FF7121
S31508004B3040F00AF92046FFF753FF22696B7BA97BF1
S31508004B4022F087020B43134343F0800323611EBB05
S31508004B50A368EA7B23F00303134343F00103A3602E
S31508004B6063692A7B23F00F0313436361D5E90112B6
S31508004B702046FFF75FFF0521204640F003F928216C
S31508004B8040F0E2F82B78A36340F0DEF8A36CDB4331
S31508004B9013F4405FFAD170BD2A692369117F23F0A7
S31508004BA0F80343EAC11311780B43117943EA411319
S31508004BB0517AD27B43EA011343EA82132361E268FE
S31508004BC0296922F0F042D1E9053022F47022034324
S31508004BD013430A7B43EA82234A7B43EAC233E360F0
S31508004BE0A368EA7B23F00303134343F00103A3609E
S31508004BF02B69A2685B8803F4C0431343A3602A6940
S31508004C00A368527943EA8223A3602969626A8B7989
S31508004C10C8791B01000203F0700300F4E06022F477
S31508004C20772222F4EE62034313430A7A120302F44C
S31508004C30E04213434A7F120402F47022134363626C
S31508004C4063692A7B23F00F03134363612B695B892E
S31508004C50A3612B695A7B4AB31A4A94420FD19B7BAC
S31508004C60194A03F00F0353672B69DA7B002A3FF4CE
S31508004C707DAF1B7C144A03F00F03136776E7134ACC
S31508004C8094427FF473AF9B7BA2F5CE2203F00F0309
S31508004C90C2F880302B69DB7B002B3FF467AF2B69AA
S31508004CA0094A1B7C03F00F03D3675FE7DA7B002A08
S31508004CB03FF45CAF034A9442DBD0044B9C42EED0EF
S31508004CC054E700BF0000015B0090035000000A5043
S31508004CD02DE9F04105460F461E4690464AB1012386
S31508004CE03022194C8B4002FB004436B304F582543B
S31508004CF023600F21072F05EB450388BFA7F108049A
S31508004D004FEA0313114895BFBC00A40004330C33C3
S31508004D1008FA04F2A140184440F060F8B8F1000F10
S31508004D2009D101233021084ABB4001FB05223EB1C7
S31508004D3002F582521360BDE8F08104F50154D7E705
S31508004D4002F50152F6E700BF00C0035030C0035019
S31508004D50F8B505460E4614465AB303F003078368AA
S31508004D6023F44073836056F0CEFCAA6882EA0723D0
S31508004D7003F440735340AB6056F0C0FC36B9B5F146
S31508004D80B64F17D12E20FEF741FF0646AB680C4BEF
S31508004D90DA5D62430DD0A2EBC403013B3344B3FB97
S31508004DA0F2F3AA68013B920702D5002B08BF01233C
S31508004DB0AB61F8BD034B9D42E8D12F20E3E700BF66
S31508004DC0D4CD05080080065038B500230E4A036482
S31508004DD000F50053DA634A7804460D4600F10803E5
S31508004DE07AB903F5805302221A602046D5E90112E2
S31508004DF02B7BFFF7ADFF20462978BDE838403FF00A
S31508004E00FCBF03F50053EEE7FFFF1F00B0F1B64FF6
S31508004E1070B519D0804B984240F0FA807F4B9A685B
S31508004E20C16B11F4C06F15D08E050FD5FD225A70CF
S31508004E3009221A700022026493F90110012900D18F
S31508004E405A7093F9010070BD754BE8E74D05EFD52B
S31508004E50FE22ECE71C78082C00F2D680DFE814F076
S31508004E600900210047005500720081009F00A90033
S31508004E70CC0051881288CC060CD5120A02F006021C
S31508004E8042F0F002012119704263C1601A78092ABA
S31508004E90D0D064E002F0FE02890748BF42F0010262
S31508004EA0F0E70E0609D5802100F50052D1634FF6CA
S31508004EB008721A800222C260E8E74D064FD54024E0
S31508004EC000F50051CC635188CC0604D5022119702F
S31508004ED012784263DAE78E0769D5072119701979BE
S31508004EE002EBC1021289012A39D10822E3E70D062D
S31508004EF0D9D44C0633D5402400F50051CC635188EB
S31508004F00890754D5032119708AE754881188E6065B
S31508004F1043BF090A01F0060141F0F00101F0FE0164
S31508004F20650709D51C7941F0010102EBC402128913
S31508004F30012A04BF0822C26004221A700122C26034
S31508004F404163A3E70C06AED4490608D5402400F50C
S31508004F500051CC6351884E0729D507221A700120C3
S31508004F6071E719795D8802EBC1042689AE420FD82C
S31508004F7000240131C9B25C80197154886507C1D40F
S31508004F80E60702D401297FF64BAF08221A7091E78B
S31508004F906268691C5980525D42630622DEE70D0687
S31508004FA081D44C06DBD5402400F50051CC6305219D
S31508004FB0A9E78906D3D52025197900F5005402EB0F
S31508004FC0C1010989466AE5635C88A142DDD91D7974
S31508004FD002EBC5025268651C5D8016555A888A42DE
S31508004FE0D3D204220129C2603FF450AF5A8801394E
S31508004FF08A427FF44BAF78E7CA05B0D54FF4807183
S3150800500000F50052D16313E74FF609321A8011E70B
S315080050106FF0030017E700BF00800650C81B00208A
S31508005020BC1B0020B0F1B64F10B407D01B4B9842FA
S315080050302FD06FF003005DF8044B7047184B0269D8
S31508005040D20744BF2022C2604A88940702D50C8939
S31508005050002CEED0520702D50A8A002AE9D04FF46E
S3150800506080721A60002299601A71C023C36043696E
S31508005070DB0510D4202200F50053DA63094ADA6307
S315080050804FF4FC6200F580531A645DF8044BFFF791
S31508005090BDBE054BD3E7436AE9E700BF008006506B
S315080050A0BC1B0020FFFF1F00C81B002010B50121F4
S315080050B004462020FEF790FD01212120FEF78CFDF5
S315080050C00122114B15205A60227812069A606178DF
S315080050D0A27842EA01429A61FF229A6200229A6302
S315080050E01A644FF000425A654FF0FF3203F5005339
S315080050F01A6504F001FB1520E17841F0A4FDBDE82E
S315080051001040152004F0CEBA000004504FF4803247
S31508005110054B9A6641F6713203F51C33DA630122B0
S3150800512003F50053DA6070470090005041F671327B
S315080051300121064BDA6303F50052D1600022DA63D7
S315080051404FF48032A3F518339A667047000003506F
S31508005150013831289ABF024B185C0020704700BFFF
S31508005160D8CD050838B5C2F30625044602F007026D
S3150800517041B942EA052242F440220634074B43F875
S31508005180242038BD114628463FF041FE02462846EF
S31508005190FFF7DEFF163442EA0022EFE700800350ED
S315080051A04FF48032064B5A6603F5E6239B69C3F330
S315080051B08512827003F03F021B0B42700370704722
S315080051C000900050014B986CD96C70470080E00F36
S315080051D00120034B9B680A3303F01F03984070476E
S315080051E00080E00F012100F5805310B5596040F6A4
S315080051F0AA6341F2050243610023094C8360C36533
S31508005200C26000F500520361C361C3649464054C2F
S315080052108365A04204BF03654365516010BD00BFA6
S31508005220FFFF010000C0055038B50D46FFF7DAFF4D
S315080052300123044600F5805253602B8A8168A87BB7
S3150800524043F0010343EA80230B43A360A368297D47
S3150800525043EA4173A360AB7C4BB1184B9C4202BF37
S31508005260E97CA3F51033C3F8C8118023D3652B7BDB
S31508005270204643F48053E360D5E901123FF0E4FD8C
S315080052806B7B0BB1102363616B7D1BB1A36843F481
S315080052908033A360AB7D1BB1A36843F40043A360CE
S315080052A0EB7D2A7E1B07120503F0E04302F4E002B9
S315080052B01343A3652B78636138BD00BF00C0055052
S315080052C00123054A411100F01F00834052F82100CE
S315080052D0034342F821307047D41B0020044B1B6857
S315080052E01BB1044B0360002070470120704700BFC4
S315080052F0E41B00208488002070B50D4C246884B116
S315080053000C4C85182688B5420DDC6688CD18B54242
S3150800531009DC52B14BB1A0800020E1802281638173
S3150800532070BD0120FCE70420FAE70520F8E700BF76
S31508005330E41B0020848800202DE9F74F9946494B45
S315080053401B68002B00F08A80B9F1000718BF0127F7
S315080053504FF0010BDFF814A17F42BAF80650BAF8ED
S315080053600A300D9E2B449BB20D440093FFB2ADB29A
S315080053701EB9304603B0BDE8F08F009AABB29A4228
S315080053806ED9BAF80840BAF80430241AB44228BFCD
S3150800539034461844344B361B80B203EB0512B9F178
S315080053A0000F0AD0072C26D80444A04216D3284654
S315080053B0FFF786FF01350020DAE7072C1BD80444DF
S315080053C0A042F4D2C108535C00F0070C0BFA0CFC9F
S315080053D023EA0C030130535480B2F1E7C10812F8EE
S315080053E001C000F007030BFA03F343EA0C0301308C
S315080053F0535480B2D9E74FEAD00C02EBD00810F02C
S3150800540007000BD1E20839464046019244F0A6FD52
S3150800541014F00704019ACAD0904412E00BFA00F37C
S3150800542012F80CE0DBB2591E5B420EEA01013B4062
S3150800543008381943044402F80C10E20808F1010878
S31508005440E1D10BFA04F498F80030E4B26242013C68
S3150800545013403C40234388F80030A8E7012688E734
S31508005460042686E7E41B0020E288002084880020C2
S3150800547037B5114D2B68EBB9FBF758FD044610B14B
S31508005480012003B030BDFBF745FD28600028F7D0A2
S3150800549002884188094B20461A801A814A43598056
S315080054A059819C80DC802146CDE90042234622466C
S315080054B0FFF742FF0020E4E7E41B00208488002071
S315080054C02DE9F843002301251A461A4FDFF86C80A8
S315080054D03C68DFF86490D8F80000D61841888E42F8
S315080054E007D3FBB910220021124844F037FD0020EB
