S02A00006275696C642F64656275672F616D617A6F6E5F7369646577616C6B5F736F635F6F6F622E733337D9
S3150800000000100020CD0E000839650408396504087B
S31508000010396504083965040839650408396504082A
S3150800002039650408396504083965040881960508A0
S3150800003039650408396504081196050867C5050871
S3150800004039650408396504083965040855710408D2
S3150800005039650408396504083965040839650408EA
S3150800006039650408396504083965040839650408DA
S3150800007039650408396504083965040839650408CA
S3150800008039650408396504083965040839650408BA
S3150800009039650408396504083965040839650408AA
S315080000A03965040839650408C5140008A51400084C
S315080000B0396504083965040849070408F909040874
S315080000C0A17B0508A57B05088D0A0408B17B0508F0
S315080000D0A97B0508C9090408AD7B0508C9120408E7
S315080000E0B113040839650408396504083965040834
S315080000F039650408758C04083965040839650408E7
S315080001003965040839650408396504083965040839
S315080001103965040839650408396504083965040829
S315080001203965040839650408396504083965040819
S3150800013075FD000839650408396504083965040839
S31508000140396504083965040839650408B94B000897
S31508000150396504083965040833C505087DE50308CB
S315080001603965040839650408B57A0508BB7A0508AF
S3110800017039650408396504083965040877
S3150800017CF0B5114A114C124E00F00105E3695F0700
S3150800018C13D40DB9334213D103EA00078F4207D1B2
S3150800019C0B4A1A40002A0CBF00206FF00100F0BD74
S315080001AC013AEBD16FF00200F9E74FF0FF30F6E7B2
S315080001BC6FF00100F3E700BF80969800000003502B
S315080001CC0200010070B50B4BD96911F480310DD1C1
S315080001DC01244FF48072084E084DF46020462C64B6
S315080001EC1A61FFF7C5FF3464EC6070BD6FF001004F
S315080001FCFBE700BF0000035000100350002003501B
S3150800020C4FF4803238B50E4B0E4C9A66E56941F6BA
S3150800021C713315400122E3630B4B0021DA6002238C
S3150800022C606121202361FFF7A3FF10B92120FFF796
S3150800023C9FFF0122054BDA600DB10023E36338BD3D
S3150800024C009000500000035000100350002003508B
S3150800025C70B5134C6061E3695B071ED40E4656F8FD
S3150800026C043B8D18A361AE420BD104230021212037
S3150800027C2361FFF77DFF58B9BDE870402120FFF7D1
S3150800028C77BF08210846FFF773FF10B104232361D3
S3150800029C70BD56F8043BA361E5E74FF0FF30F7E76E
S315080002AC000003502DE9F84315464FF48032184BDD
S315080002BC89469A6603F51C33DF690646174041F6EC
S315080002CC7132DA63012203F58053DFF84C80DA6069
S315080002DC55B9284601220F4BDA601FB10022A3F547
S315080002EC0053DA63BDE8F88306F5005404EA0804FB
S315080002FCA41BAC4228BF2C46494622463046FFF77B
S3150800030CA7FF0028E6D12644A1442D1BE0E700BF31
S3110800031C009000500020035000E0FFFF96
S315080003302DE9F04F93B0CDE90A32DDE91C530E934F
S3150800034053EC102BCDE90801104619468DED060B26
S315080003501E9E10F073FB80B1DDE906014FF0FF32F7
S31508000360C54B10F093FB40B9DDE906014FF0FF32AB
S315080003706FF4801310F06CFB70B1DDE908019DED98
S31508000380060B0E9B1E96CDE91C53DDE90A3213B007
S31508000390BDE8F04F00F088B90022DDE90601002328
S315080003A010F056FB002800F03381DDE906A303F1BF
S315080003B0004BCBF30A5016F48063A0F2FF3008BF57
S315080003C006250F9310F068F89BA3D3E9002310F0D5
S315080003D0CDF89BA3D3E900230FF012FFCBF3130448
S315080003E0894644F07F5180460022A44B504641F48A
S315080003F040110FF003FF94A3D3E9002310F0B6F8D9
S3150800040002460B46404649460FF0FAFE10F048FBF6
S31508000410044610F041F88EA3D3E9002380468946A6
S3150800042010F0A4F80022964B0FF0EAFE10F038FB05
S3150800043089A3D3E9002307464946404610F096F8B3
S3150800044080463846894610F027F885A3D3E9002365
S3150800045010F08CF802460B46404649460FF0CEFE91
S3150800046002460B46CDE90C2310F080F8DDE90C2393
S3150800047080468946104619460FF0C2FE0022CDE98D
S315080004801001804B4046494610F09AF900227E4BEF
S315080004900FF0B6FE02460B464046494610F090F964
S315080004A000227A4B0FF0ACFE02460B464046494600
S315080004B010F086F9DDE90C238046894600204FF0C6
S315080004C080410FF09BFE02460B46404649460FF018
S315080004D097FE02460B46DDE9100110F071F907F2A6
S315080004E0FF3700226A4B0FF08BFE00223B0510F007
S315080004F03DF852465B468046894610F0C7FA002802
S3150800050040F08980CDE90C8904F16303C72B34BF19
S315080005100427052731051BD553A3D3E900235046E5
S31508000520594610F0A9FA00287FD051A3D3E9002331
S315080005305046594610F08CFA002876D00027A54276
S31508000540C6BF2C1B04F1FF3500253C4646F48066E1
S315080005500E9B9F422CBF4FF00008A3EB070816F02E
S31508000560020903D0002F18BF4FF000083CB1DDE99F
S315080005700C235046594610F023F982468B46DDE98E
S3150800058006010022002310F063FA10B10BF10043B4
S315080005909B46DDE9080126F40063CDE90183DDE920
S315080005A00A324BEC10AB009500F07EF802465FB3BA
S315080005B0DDE9091316F0200F00F10105089E0CBFAE
S315080005C065204520B047DDE908010523002205938B
S315080005D00A23002CCDE9023207F1FF374FEAD4731C
S315080005E0B8BF64422A46019304970A9B00944AF0CE
S315080005F060F80246B9F1000F06D00B9BC41A0B9B94
S315080006001A190E9BA34245D8104613B0BDE8F08FC1
S31508000610DDE906ABCDE60022404649461A4B10F006
S31508000620CFF8013CCDE90C016EE7002D90D00F9B69
S31508000630002B8DD0013D8BE7FB799F501344D33FA8
S31508000640B3C8608B288AC63F61436F63A787D23FCA
S3150800065071A379094F930A401655B5BBB16B024091
S31508000660EF39FAFE422EE63F2D431CEBE2361A3FDF
S315080006700000000080842E41FFFFEF7F0000F83F56
S315080006800000E03F00002C40000024400000184015
S315080006900000F03F2020DDE90913089DA847013432
S315080006A0ADE700BF000000002DE9F04F5BEC10AB92
S315080006B097B0CDE90501DDE92057CDE90723504676
S315080006C052465B465946229E10F0B8F970B9032384
S315080006D0CDE902760193B04B0093DDE90501DDE92A
S315080006E0072349F006FF17B0BDE8F08F4FF0FF3239
S315080006F06FF480135046594610F0AAF928B104231E
S31508000700CDE902760193A54BE6E74FF0FF32504656
S315080007105946A34B10F0BAF968B1A24A06F0040389
S31508000720002B08BF0322A04B1CBF13460422CDE9A9
S3150800073002760192D0E7504693A3D3E9002359469F
S3150800074010F0A4F938B992A3D3E9002350465946C4
S3150800075010F07EF968B1DDE90723DDE905014BEC08
S3150800076010ABCDE92176209517B0BDE8F04FFFF71D
S31508000770DFBD002200235046594610F069F90028CB
S3150800078000F09A805B465246002000210FF036FDA5
S31508000790012382468B46099316F4806400F08E8006
S315080007A0092D40F28E80002430210EABA5F10902F6
S315080007B00134202C03F8011BA5EB040901D094424F
S315080007C0F6D15946504610F06BF9784B054603EBBF
S315080007D0C90393ED007B8DED0A7B0FF05DFE0246A3
S315080007E00B46504659460FF009FDDDE90A230FF07E
S315080007F0BDFE02460B46CDE90C2310F079F980467A
S315080008000FF03AFE02460B46DDE90C010FF0F6FC46
S3150800081002460B46CDE90C230022654B10F036F94B
S31508000820002851D008F1010840460FF025FE02467F
S315080008300B46DDE90A0110F015F910B14FF0000872
S315080008400135B9F1000F50D128460FF025FE0246B2
S315080008500B46504659460FF0D1FC0022544B8046B1
S31508000860894610F0F5F830B1002240464946504B0B
S3150800087010F00CF910B1E80700D501350A210EABC6
S315080008801A19202C0AD095FBF1F001FB10553035CA
S3150800089002F8015B013405460028F2D106F003028E
S315080008A0012A57D1002F55D0099A12B916F00C0F04
S315080008B000D0013F302245E009906DE74FF0060968
S315080008C07FE7A94600247CE70022DDE90C01384BC6
S315080008D010F0BEF80028B4D1B8F1000F02D018F015
S315080008E0010FAED008F10108ABE70A210EAB23448D
S315080008F0202C0ED0B8FBF1F001FB1082B8F1090FDD
S3150800090002F1300209F1FF3904F1010403F8012B61
S3150800091011D83021A1440EAA202CAFD0A14504F14C
S3150800092001030AD11C4609F158030DEB03092E23CE
S3150800093009F8203CA2E78046DAE7A1541C46EBE713
S315080009401A550134A74205D9202CF9D1CDE90276EA
S315080009500194C1E6202CF9D0099A3AB12D2104F167
S3150800096058026A4402F8201C0134EFE7710704D5DF
S3150800097004F158022B216A44F4E73207E6D504F15C
S31508000980580220216A44EDE70000000065CDCD41FC
S315080009900000000065CDCDC169D605086DD60508ED
S315080009A0FFFFEF7F60D6050865D6050878D60508E7
S315080009B00000E03F0000000010B51D4C0020214655
S315080009C05BF0C2FC18B146201A494AF025F823689C
S315080009D0194AB3FBF2F3236020680FF04DFD10A30C
S315080009E0D3E900230FF0C2FD0FA3D3E900230FF0CC
S315080009F007FC10F07DF8114B114A1860D2F8FC304C
S31508000A0043F08073C2F8FC304FF060430D4AC3F8D8
S31508000A10B02F0D4A136843F00103136010BD00BFE1
S31508000A20EC51B81E85EBE93FF6285C8FC2F51C40F1
S31508000A306037002028EA050840420F005C3700208E
S31508000A4000ED00E055CEACC5001000E00000000047
S31508000A50F7B50CF071FF0446E8B9234B234F93F919
S31508000A600010234B234A53F82110386836F06AFFE2
S31508000A701BA3D3E90023CDE9002338684FF0FF32E2
S31508000A804FF0FF3356F0D2F9054648B102462046E4
S31508000A9019490FF021F96FF00504204603B0F0BD9F
S31508000AA002464FF480731549386856F0A2FB18B908
S31508000AB013490FF011F9EEE737F0C8FC064618B1EE
S31508000AC0024610492846E4E70121386856F04FF8EF
S31508000AD002460028E1D030460B49DAE7AFF300803A
S31508000AE028050155000200008BEF0020AC380020D5
S31508000AF0D4F5002071DA000873ED0508AC3700203C
S31508000B008EED0508A8ED0508C8ED050800000000EB
S31508000B1070B590B004460D464DF069F8002848D0E7
S31508000B201422002109A84AF05EFBD4E907014FF612
S31508000B30FF73ADF8263010AB03E903008DF8255096
S31508000B401DF094FC0026A063059003AA012001A9C4
S31508000B50CDE90666CDE90166CDE90366089611F08A
S31508000B6087FF054638B30696ADF81C6043F6FF7353
S31508000B7003208DF8200005A909A8ADF81E3021F03C
S31508000B80DFFA10B9012384F84430636B5A1C4FF618
S31508000B90FF7218BF01336363B4F84C3093421CBF2D
S31508000BA001339BB2A4F84C3094F84130013384F8F1
S31508000BB0413010B070BD019B02990693C80319A372
S31508000BC0D3E90023490C0FF0B3FF16A3D3E900239A
S31508000BD00499ADF81C00C803490C0FF0A9FF039B44
S31508000BE000EBC333B3F5804F0DD30B4A93420DD9AF
S31508000BF00A4A93420DD90A4A9342B7D803200D22CE
S31508000C00D3409BB2B5E728462A46F9E701200522D4
S31508000C10F6E702200A22F3E7E0FF070000FCFF00E0
S31508000C2000E0FF0700CA9A3B000000000000000031
S31508000C30002370B5424C05468AB0E36318B10088B4
S31508000C4023602FF0DFFB2FF04DFD3E4856F02BF8C2
S31508000C503D4E3E4B304633603D4B73602AF07CFE7A
S31508000C600021304636F028F833A3D3E90023A062E2
S31508000C70C4E9062352F094FBD4E90623194310432A
S31508000C80C4E90601CDE900014FF0FF334FF0FF320A
S31508000C90A06A56F0CBF802224FF0FF31A06A56F050
S31508000CA0DFF801202FF032F94FF4007300222949AA
S31508000CB0A06A56F09EFAB0F5007F39D10023942237
S31508000CC0079309933C23CDE90332059396230693AC
S31508000CD05023A06A03A9089336F0A6FC35B3287CEE
S31508000CE02FF012FD0546F0B9A06A56F043FB2FF027
S31508000CF099FD2FF0EDF820B14FF4807000212DF00A
S31508000D009BF82FF0F5F820B14FF4006000212DF084
S31508000D1093F852F00DFC012055F04EFE0E4A0F498D
S31508000D20A06A52F031FB28460AB070BDFF20D7E70B
S31508000D300725F8E7AFF300800DD501552000000020
S31508000D4008170020690345EC946D002045FD02084C
S31508000D50A46D0020946B0020313305087133050813
S31508000D600348044B834202D0034B03B1184770472C
S31508000D701C1601201C16012000000000064B07491E
S31508000D80C91A891048BF0131491003D0044B0BB169
S31508000D9001481847704700BF1C1601201C16012081
S31508000DA00000000010B5064C237843B9FFF7D8FFBA
S31508000DB0044B13B10448AFF300800123237010BD20
S31508000DC0B075002000000000749C060808B5054BA5
S31508000DD01BB105490548AFF30080BDE80840FFF799
S31508000DE0CDBF00BF00000000B81C0020749C060898
S31508000DF0A3F5803A704700BF174B002B08BF134B6B
S31508000E009D46FFF7F5FF00218B460F461348144A07
S31508000E10121A4AF0E8F90E4B002B00D098470D4BF2
S31508000E20002B00D098470020002104000D000D4833
S31508000E30002802D00C48AFF3008010F051FA2000C9
S31508000E40290049F0E5FD10F003F800BF000008008E
S31508000E500000000000000000001000200010002024
S31508000E6040F30020000000000000000008B5034819
S31508000E7047F0F7FEBDE8084049F065BDC4D305084C
S31508000E80014847F0EEBE00BFC4D30508BFF34F8F35
S31508000E900549064BCA6802F4E0621343CB60BFF308
S31508000EA04F8F00BFFDE700BF00ED00E00400FA0524
S31508000EB00348044A0449121A921045F03EBB00BF83
S31508000EC07C0100082803000840F3002008B500F05C
S31508000ED02FF8FFF7EDFF124B12498B4212D3002071
S31508000EE0114B12498B4218D3FFF786FF186850F842
S31508000EF02240586840F82240013298688242F5D369
S31508000F000C33EAE70022F8E71C6844F822000132AD
S31508000F105C68A242F8D30833E4E70022F8E700BF8A
S31508000F207C9C0608889C0608889C0608889C0608F7
S31508000F304FF4804170B5124B124A134D9A60D3F89C
S31508000F40882005F5005442F47002C3F888200F4A39
S31508000F5091664FF0FF3222660D4A62660222C3F896
S31508000F60D020BFF34F8FBFF36F8F4FF4403600206A
S31508000F7007F038FC0020E66007F00AFC2E6170BD19
S31508000F8000ED00E0000000080080004400900050DA
S31508000F907FFF7F03014B1860704700BF00F50020F4
S31508000FA0054B1860054B1B6F03F00703032B01D194
S31508000FB058F0A8BB704700BF08F500200080005015
S31508000FC030B5056887B0AB8804461848ADF80C30CC
S31508000FD047F047FE0022012103A800F075F80DF13D
S31508000FE00B0103A800F050F99DF80B3083F00103BC
S31508000FF02B70AB79022B15D14FF0FF330022CDE9C8
S31508001000043304A90A4B009403A800F0F3F9049BDF
S31508001010009401330CBF04220122054B05A903A83D
S3150800102000F060F9002007B030BD00BFC4D3050842
S31508001030696504082DE9F04104460C254FF00108BE
S31508001040124E0CB314F001000BD0002024F001045A
S3150800105005FB00625768002FF3D09168C0B2B84705
S31508001060EFE72246013020284FEA520201D0D30783
S31508001070F8D508FA00F20F2824EA0204E8D910384D
S3150800108005FB0062B432E5E7BDE8F081D01C00201C
S3150800109008B50C4847F0E5FD1A2007F087FB28B18C
S315080010A01A2007F09FFB1A2007F072FB1B2007F097
S315080010B07DFB28B11B2007F095FB1B2007F068FB7A
S315080010C0002008BDC4D305082DE9F0410E46174691
S315080010D0054618B30F2923D80378E3B1013BDBB2E1
S315080010E0022B1DD8104A32F813306A78D340DB0732
S315080010F016D50E4BD3F81043A4B95AF0CDFF804647
S315080011003A462846314603F021FA40465AF0BFFFD0
S315080011102046BDE8F08140F2FF73E6E72224F7E7B0
S315080011202124F5E70224F3E788D0050800C0035018
S3150800113010B50446E8B10378C3B1013BDBB2022B14
S3150800114019D80E4A32F813306278D340DB0712D525
S315080011505AF0A2FF0122637821789A403023594336
S31508001160074B5A505AF093FF002010BD40F2FF7308
S31508001170EAE72220F9E72120F7E700BF88D005082B
S3150800118040D0035010B50446E8B10378C3B1013B1B
S31508001190DBB2022B19D80E4A32F813306278D340E4
S315080011A0DB0712D55AF078FF0122637821789A4036
S315080011B030235943074B5A505AF069FF002010BD97
S315080011C040F2FF73EAE72220F9E72120F7E700BF9C
S315080011D088D0050840E0035010B50446E8B1037806
S315080011E0C3B1013BDBB2022B19D80E4A32F81330D1
S315080011F06278D340DB0712D55AF04EFF0122637896
S3150800120021789A4030235943074B5A505AF03FFFEA
S31508001210002010BD40F2FF73EAE72220F9E72120FB
S31508001220F7E700BF88D0050840F0035038B50D46EB
S31508001230044618B311B30378EBB1013BDBB2022BBA
S315080012401ED8104A32F813306278D340DB0717D518
S315080012505AF022FF30222378534303F1A04303F5C3
S3150800126070331B6C6278D34003F001032B705AF07D
S315080012700EFF002038BD40F2FF73E5E72220F9E7AC
S315080012802120F7E788D0050838B50D46044618B377
S3150800129011B30378EBB1013BDBB2022B1ED8104A1F
S315080012A032F813306278D340DB0717D55AF0F4FECC
S315080012B030222378534303F1A04303F570335B6C64
S315080012C06278D34003F001032B705AF0E0FE002049
S315080012D038BD40F2FF73E5E72220F9E72120F7E75A
S315080012E088D005082DE9F0410D461646984604466D
S315080012F0002856D0002954D00278002A47D0531E19
S31508001300DBB2022B03D9FF2A08D0212047E0264A60
S3150800131032F813304278D340DA07F6D5022E01D9CF
S31508001320042EF2D15AF0B8FE23780746FF2B05D0D3
S3150800133032462046296803F049F928602B680133AC
S3150800134009D12378FF2B06D1184B6078D3F82414DB
S3150800135045F064FF286029684B1C1CD00C23144AEE
S3150800136003FB0121C1F80480296803FB0122069BBF
S3150800137093602378FF2B05D001232A6893400D4AF2
S31508001380C2F8243438465AF082FE002007E040F2BC
S31508001390FF734278BFE738465AF079FE2D20BDE83C
S315080013A0F0812220FBE700BF88D0050800C0035063
S315080013B0D01C002000D003500F2810B5044613D8BF
S315080013C05AF06AFE0123094AA340C2F82034C2F83B
S315080013D024340C22064B02FB04330024C3E90144DF
S315080013E05AF055FE204610BD2120FCE700E00350C8
S315080013F0D01C00202DE9F0410D4690461F460446B4
S31508001400002847D0002945D00378002B38D0591E2C
S31508001410C9B2022903D9FF2B08D0212038E01E4B78
S31508001420427833F81130D340DA07F6D55AF034FE4D
S3150800143023780646FF2B05D042462046296803F046
S315080014404BF9286029684B1C1ED00C23134A03FB52
S315080014500121C1F8B870296803FB0122069BC2F86E
S31508001460BC302378FF2B06D001232A68103293401C
S315080014700B4AC2F8243430465AF009FE002007E029
S3150800148040F2FF734278CEE730465AF000FE2D2030
S31508001490BDE8F0812220FBE788D00508D01C002093
S315080014A000D0035008B503F037F8054B00F0553067
S315080014B020F0A040C3F82004BDE80840FFF7BABDF5
S315080014C000E0035008B503F027F8054B00F0AA30F2
S315080014D020F02040C3F82004BDE80840FFF7AABD65
S315080014E000E0035013B504460A4847F0BAFBA27851
S315080014F00421B2FA82F2237852098DF8043063780F
S315080015000DEB01008DF80530FFF7DEFD002002B077
S3150800151010BD00BFC4D305082DE9F04F1446054693
S315080015200E469B46C36B87B001225B6902A96068B9
S315080015309847EB6B01225B6903A93046984702A8D6
S3150800154045F003FD074648B10023A37563754FF0C0
S31508001550FF33A360002007B0BDE8F08F03A845F06D
S3150800156001FD0123A375237E04EBC303DE611F84FB
S315080015706368B3420ED1206003A845F015FD4FF00D
S31508001580FF332075A360237D043B022B26D8002356
S31508001590A375DFE723681A1A53425341A37503A8B4
S315080015A045F002FD237D834218BFA77503A845F0C1
S315080015B0DDFC074602A845F0D9FC874218BF002380
S315080015C003A818BFA37545F0D9FC074602A845F03D
S315080015D0D5FC87421CBF0023A375D4E703A845F0B2
S315080015E0C5FC80B1EB6B022230465B6904A99847BB
S315080015F004A845F0CAFC0346207D032839D8DFE84D
S3150800160000F03838040903A8F3E7CC22237E04EB5C
S31508001610C3031A8401F0ACFA109B187003A8277E3E
S3150800162045F098FC04EBC70787F82200237E03A839
S3150800163004EBC303B3F8209093F8227045F096FCA8
S31508001640804603A845F09AFC8246B8F1000F15D0EB
S31508001650EB6B022230465B6904A9984704A845F05B
S3150800166059FC6075637D6BB90023A3754FF00008BC
S3150800167039E0227E04EBC2021384CBE703A845F0C7
S3150800168034FCEEE794F81680B8F1000FEED0B9F105
S31508001690000F09D1E7B10123627EE375002A45D11F
S315080016A09F4219D1677615E06B6C06EB0A025B421E
S315080016B086EA02010B421CBF0023A3756B6C591EF8
S315080016C00A409B1A9945CFD8A37D002BE2D1CDE7D6
S315080016D0E37D43B94FF000084B465246314628464B
S315080016E045F01EF9A060A27D12B123694B4423611F
S315080016F01349237E097899421ED901332376BBF113
S31508001700000F1BD0D2B1E37DC3B1B8F1000F15D1DC
S31508001710032F13D0A1684B1C10D0109B22460093B0
S3150800172028460123FFF7F8FEA07507E0012FDAD057
S31508001730032F08BFA376CDE70023A375A07D0AE78C
S31508001740B0D005082DE9F04F0E46984600238BB019
S3150800175004464FF0FF31104617468DF8133001F056
S31508001760F1F9B6F5801F3BD3B21C53D1E56A6B1C61
S3150800177057D12046616A45F019F80546B31C18BFCB
S315080017800123DFF810910193636A626C0293236860
S3150800179005A902FB053AE36B05225B6950469847A3
S315080017A005A845F06DFC45F090FC504645F098FCC0
S315080017B04FF0000B824601464B1C05D0636C81EA4C
S315080017C00A025B42134232D02946204644F0EEFF15
S315080017D0029BAB424DD0BBF1000F4DD10546D3E776
S315080017E0314605AA04F1080045F001FB0146481CEC
S315080017F010D0384601F0A6F90122394620460DF1E7
S31508001800130345F0DFF828B19DF8133088F8003047
S31508001810002003E0237C002BA8D12D200BB0BDE8C7
S31508001820F08F2368ED1A636CB5FBF3F5A6E7484617
S3150800183001F088F90DF1130349462046019A45F04F
S31508001840C1F8034690B1B21C03D0D9F80020B242C1
S315080018500CD19DF8132003930D4B88F800204946B8
S315080018601A68384649F0CAFC039B9B46D9F8081003
S31508001870A2E7BBF1000FD0D0B6F5801FC8D231461B
S3150800188098F800307A6804F1080001F07FF8BFE79D
S31508001890ACD00508AC2400202DE9F34104461746D0
S315080018A098460E46194D816AE36A8B422AD04B1C2C
S315080018B018E0284601F046F90122294620460DF18E
S315080018C0070345F07FF830B14346294620469DF880
S315080018D00720B847B0B1A9684A1C05D0012E0AD01E
S315080018E0E36A9942E5D10DE06968204644F0EBFFCA
S315080018F0012E0146D8D16B6881EA0302636C5B420C
S315080019001A42D1D002B0BDE8F08100BF8024002081
S315080019102DE9F0419046036B826B07689A4288BFAF
S315080019208363426C436A90B002FB0377C36B0E462F
S31508001930052201A95B6904463846984701A845F07F
S315080019409FFB01280146307057D0656CE26B23680F
S31508001950606AD2F814C005FB0030052206A9E047E4
S3150800196006A845F08DFB01284FF0000523D0D4E9E1
S315080019700A3201219342CDE90B458DF834800E9544
S315080019808DF83C102AD11946204644F09CFF236B5B
S31508001990626C14339B1AE06223630C9B53B99DF85F
S315080019A03C303BB1626A616C2368E06B01FB023133
S315080019B045F01EFB0C9DE36B05225B6901A93846C1
S315080019C0984701A845F05CFB30702846236BA26B4C
S315080019D09A4288BFA36310B0BDE8F081237C33B96F
S315080019E01C490BAA04F1080001F028F8D5E720469F
S315080019F0194A0BABFFF750FFCFE7237C23BB2246E0
S31508001A00164904F1080001F019F8616A204644F005
S31508001A10EEFE616A421C204644F0B7FE054620B930
S31508001A20236B626C1344143B23632046A16A44F07B
S31508001A304AFF2368A062C01A636CB0FBF3F06062C9
S31508001A40204644F083FFB6E700232046044AFFF702
S31508001A5023FFDAE725220008A12100084F6A0408B7
S31508001A60E969040873B50D46D11E4A421C461B7E19
S31508001A704A419A4227D129682368994223D3636841
S31508001A80994220D8114E0DF107033246FFF75AFE48
S31508001A90C8B972686B689A4215D19DF80730DA1E84
S31508001AA053425341227E93420DD1636901336361E8
S31508001AB0D4E90323934206D22968A26842F8231080
S31508001AC0236901332361012002B070BDD8240020A8
S31508001AD02DE9F04F9A468BB09DF85030DFF850B19B
S31508001AE00293DBF81030804653450D461646C0F083
S31508001AF09980D146DBF804300193B9F1000F00F064
S31508001B008D80D8F83C3001225B6907A9019898476F
S31508001B1007A845F027FADBF80030984240F08580A0
S31508001B2007A845F02BFA0428074614D107A845F05C
S31508001B302CFA019B029A04463B44002A3FD186426E
S31508001B4012D91446361A4046019944F0BCFEA9EB50
S31508001B5004090190D1E7D8F83C3002225B69019864
S31508001B6008A9984708A8E2E7841B544528BF5446A5
S31508001B70032C03EB0607AAEB040A4FEA94021CD9C6
S31508001B80D8F83C30294638465B69984724F0030361
S31508001B9004F003061F441D44002ED4D0D8F83C3068
S31508001BA001225B6908A9384698473246284608A99B
S31508001BB0354449F023FB0026C5E72646ECE70746E9
S31508001BC000F00302039203442A1804920593049B27
S31508001BD0DD1B059BD81B039B9F420FD1002FB2D05C
S31508001BE0D8F83C30012208A95B6998473A46284646
S31508001BF008A949F0CEFA78B93D44A4E7D8F83C30AC
S31508001C00012208A95B6998470422284608A949F0D1
S31508001C10C0FA08B9043FDAE74FF0360948460BB070
S31508001C20BDE8F08F4FF06309F8E74FF06F09F5E765
S31508001C30042500202DE9F0410F461646984604462D
S31508001C4088B060B390F83450FDB1012144F073FDBB
S31508001C5000210E9BCDE90511CDE902379DF83C30F0
S31508001C60CDF804808DF81C30237C04968BB90D4979
S31508001C7001AA04F1080000F0E1FEDDE90553E06B76
S31508001C80002E08BF1D4644F0F0FE284608B0BDE801
S31508001C90F0812046044A01ABFFF7FEFDEDE7054655
S31508001CA0F3E700BF176A0408651A00082DE9F04F24
S31508001CB099B00F4609920A69416C0E931439D31DDF
S31508001CC0B3FBF1F3013302EBC302036B0446934201
S31508001CD0C0F00D820023DFF820940D93E36A48468E
S31508001CE01946079300F02EFFD7E9033604930E9B97
S31508001CF0022B4ED1CC2E40F08A81099B002B42D074
S31508001D003946204644F00FFF656C079A6B1E134050
S31508001D101490ED1AE36B01225B6916A97868984757
S31508001D2016A845F023F900280CBF04230823782EAB
S31508001D3006933DD9012300254FF0080A05933B6811
S31508001D4005990E98C9F80030C9F8106045F030F9C1
S31508001D504FEA9A0310930023DDF81CB089F81400A3
S31508001D600B930F9308930C93616C4A1E0BEA0202BD
S31508001D708B1A002E38D05544AB4240D8236B5B1AD9
S31508001D8013442363ABE0049B1B6814930823069350
S31508001D90D0E7656C079A6B1E1340782EA5EB0305F2
S31508001DA016D8FB7D7BB9099B002BB3D10423069378
S31508001DB0331DAB4210D9A6B1082DBBD80425002384
S31508001DC0AA460593BBE7099B002BA3D10823EEE798
S31508001DD0099B002B9ED1D9E7002505954FF0040AEB
S31508001DE0ADE704250596F9E75345C7D3B0460BEB8F
S31508001DF00A030393089B002B18BF032313E0A3EBE6
S31508001E000A039E42B0460BEB0A0228BF98469E423A
S31508001E100392EFD90123D9F8102089F81730964292
S31508001E2071D1C9F804B0089399F81730002B6CD013
S31508001E3099F818200899D31C09EBC3030132C3F893
S31508001E4004B0A3F80880997289F81820B8F1000F31
S31508001E5014D00E9B022B5BD10B9B7BB90F9B434483
S31508001E60032B0BD9E36B01229B69039814A99847A6
S31508001E700546002840F03D8101230B93089B16A8D0
S31508001E800193059B009399F814204346396800F09E
S31508001E900FFEE36B58469B69109A16A99847051ECC
S31508001EA00D9B18BF5B4652460D935946434620463E
S31508001EB044F036FD236B08F10302A3EB0A0322F074
S31508001EC003029B1AC9F808002363002D40F011810C
S31508001ED00F9BDDF80CB04344A6EB08060F93594652
S31508001EE0204644F0F0FC00258346002E7FF43CAFE4
S31508001EF0814A04F1080093685268E36239680E9BC8
S31508001F0000F044FDDEE002238DE7C9F804B09DE742
S31508001F10099B002B30D1049BB8F1030F43440A9365
S31508001F2027D9DDE90301E36B4FEA98029B699847D5
S31508001F300546002865D118F003025FD0049B28F0F7
S31508001F4003052B440493039B1D444FF0FF33049968
S31508001F5015A8159349F052F9E36B28469B690122A7
S31508001F6015A9984705460A9B0493002D86D0039B1E
S31508001F7099E74246039DE8E7039B0A9307F1200386
S31508001F801193FB7D78689BB100233D7E0C9AD9B2EC
S31508001F908D4211D9119903F1010C31F83310914290
S31508001FA026D9069907EBC303D8690A44104403E007
S31508001FB00C9B069A13441844E36B01225B6915A926
S31508001FC09847159B012213930C9B0A9804330C938C
S31508001FD0E36B13A99B699847039B0A9A43449B1A88
S31508001FE0042B054607D978B9134604330A93C8E77C
S31508001FF06346521ACBE70A9B0393B6E70A9B0493F8
S315080020003CE70A9B0493B2E70A9B0393AFE7702663
S3150800201004F1080303932368079A606CA2EB030A8A
S31508002020BAFBF0FA00FB0A3045F05AF8E16A804636
S31508002030204644F048FCA26A82424AD0626CD9F82B
S315080020400830511E0B40216B2568891A0B442363FF
S315080020500D9BE0625D1BB5FBF2F5AA4536D1079BE1
S31508002060B3EB080A12D0E36B4FEA9A0241469B6922
S3150800207098478346E36A079A5344E362236B0398B7
S315080020809B1A4344236344F083FEDA462368616C53
S31508002090E06B01FB053144F098FF204644F056FBFF
S315080020A0204644F053FC2063BAF1000F11D03A6978
S315080020B0616CD31D1439B3FBF1F3013302EBC30290
S315080020C09042A8D2304619B0BDE8F08F4FF0000A0A
S315080020D0DCE73A69616CD31D1439B3FBF1F30133BC
S315080020E002EBC302236B9342BFF4F8ADEAE71C2662
S315080020F0E8E72E468CE700BFAC2400202DE9F3471D
S315080021001E4643690446B342884617469DF82890FA
S315080021103DD300258DF80750204644F0E3FAD4F85D
S3150800212030A082450AD2236AB5EB430F06D20022B5
S3150800213020460DF10701FFF7EBFB30B39DF807309A
S31508002140012B05D1002220460DF10701FFF7E0FB20
S31508002150B9F1030F06D03146204644F0AEFA256B96
S31508002160854218D30D4D4FF0FF31284600F0EAFCA2
S315080021704B46002229462046C5E90376C5F8008065
S3150800218002B0BDE8F047FFF791BD0135C4E762200C
S3150800219002B0BDE8F0871C20FAE700BFD82400206B
S315080021A0032A2DE9F34106460D4617461C4606D175
S315080021B0237A012B23D0012002B0BDE8F081DFF895
S315080021C06080096842460DF10703FFF7BBFA6060B5
S315080021D00028EDD19DF80720237A032AE8D0D8F8FD
S315080021E004106A689142E3D1012B2969D4F80CC01E
S315080021F007D172690CEB0103934202D92074207C43
S31508002200DAE708316144E1603B4601222946304657
S31508002210FFF74CFD60600028CAD00020CCE700BF5D
S31508002220D8240020F7B5089C032A1646256805D148
S31508002230237A012B22D0012003B0F0BD254F284672
S315080022403A460DF10703FFF77DFA60600028EFD1E3
S31508002250D4F800E07868DEF82810DEF844C0484074
S31508002260CCF100031840227AE2D1012A08D1E268AB
S315080022703B6913446A69934202D92074207CDBE7E0
S31508002280DEF80020DEF82C30891A9B1AB3FBFCF323
S31508002290B1FBFCF18B420DD1696CEB6A4A1E134007
S315080022A02A6B521A13442B6325682846A96A44F0F8
S315080022B00AFBE8623A69E36808321344E3600122DC
S315080022C0334604492068FFF7F1FC60600028AFD068
S315080022D00020B1E7D82400202DE9F04F4FF0FF3356
S315080022E04FF6FF720025044600F10806C0E90923E7
S315080022F08BB0C3620562056330460F4644F048FD5D
S31508002300204644F023FA20BB2046394644F09EFA7C
S31508002310204644F01BFA20BB5E200BB0BDE8F08FC8
S31508002320E26B2368606CD2F814C000FB0530052206
S3150800233005A9E04705A844F0A3FE012828D12946A7
S31508002340204644F054FA421C2946204644F01DFA19
S315080023500135E3699D42E3D3204644F0F7F90028A6
S31508002360D2D000254FF0FF394FF6FF73CA46A8466C
S31508002370C4E90853E369984514D3A5EB0905012D6B
S3150800238036D84FF6FF72636A934246D16720C4E790
S3150800239044F0A0FE0028DBD02946204644F027FA60
S315080023A00246D1E72368E26B606C576900FB083088
S315080023B0052205A9B84705A844F062FE834605A884
S315080023C044F035FE0746584644F07FFE68B1574547
S315080023D038BFC4F82480B94528BFB946BD4238BFBE
S315080023E03D46BA46236A0133236208F10108C1E76C
S315080023F04FF6FF7300256362E3699D42C1D2676C9D
S315080024002068E36B052207FB05005B6905A9984769
S3150800241005A844F00CFE0135EEE7E26B676C206810
S31508002420694607FB030055690522A847684644F034
S31508002430FEFD626A2368606C504D00FB023044F072
S315080024404FFE4FF0FF33A062E3622A466FF00101A8
S31508002450204605ABFFF776F900284FD1AD68294627
S315080024602046E56244F04EF9206320B92046E16A29
S3150800247044F029FAE0622946204644F024FA054643
S31508002480A36A9D423CD16569626CE91C143AB1FBAA
S31508002490F2F14FF0000805EBC1050335B5FBF2F57F
S315080024A0C1460235E36999453CD3A8455AD2204628
S315080024B0616A44F07BF90027064604F1400AB845EC
S315080024C012D8626C2368694602FB0639E36B05225B
S315080024D05B6948469847684644F0A9FD5346024654
S315080024E04946E06B44F0FEFD3146204644F05EF96D
S315080024F00137AF420646E2D364200EE7A56AAEE787
S315080025002946204644F0FEF8236B2946034407462D
S315080025102363204644F0D7F90546002FB0D1C4E915
S315080025200B07ADE7636C2768052203FB0977E36BA6
S3150800253005A95B693846984705A844F0A1FD44F00B
S31508002540C4FD60B1384644F0CBFD0146204644F050
S31508002550D9F8636C143B984208BF08F1010809F1E1
S3150800256001099FE7304644F013FC0023204619462C
S31508002570034AFFF791F90020CFE600BFD8240020D0
S31508002580B369040800232DE9F041614A0E4617682D
S315080025900446136018B921252846BDE8F08190F84D
S315080025A034500DB309680268914240F0A9807168F9
S315080025B04268914240F0A480B1688268914240F036
S315080025C09F80F168C268914240F09A8031694269F9
S315080025D0914240F09580B169C26B914240F090807B
S315080025E072691D468261D7E7D0F83880502229469D
S315080025F048F0F9FDC4F83880336804F10800236010
S3150800260073686360336963617369A361D6E902120B
S3150800261044F0D0FBB36904F14000E3639B68984734
S3150800262094F8432020B1E561002AB4D05B25B3E7CE
S31508002630656C002DF7D06668B6FBF5F3E361002AF2
S31508002640A9D0B542F2D82268B2FBF5F105FB1122F2
S31508002650002A57D105FB1363002B53D1204644F0BB
S3150800266041F8A369043303449E424DD340F63472BD
S315080026706369CC3B934249D8B5F5805FD6D303212D
S31508002680204644F058F8D4E90001E36B1B689847E4
S315080026900546E36B0220DB6898471DB1002384F8E2
S315080026A034301DE039462046FFF716FE64280546F5
S315080026B004D139462046FFF70FFE0546636C143BE6
S315080026C0002DEBD1226A204602FB03F644F00AF8F5
S315080026D0A369043303449E4206D284F834505A252B
S315080026E0E06B44F0C2F957E70123D4E90001094A2F
S315080026F084F8343013680133136044F0F5FBEFE7D0
S315080027005D2549E7592547E75A2545E75F2543E704
S315080027103C1E0020381E00202DE9FF410F4690463A
S315080027201E46054698B390F8343093B3B1F5801F2A
S3150800273031D21A4C022143F0FEFF2246394628467A
S315080027400DF10F03FEF7FEFF024678B1012342465C
S315080027500093394633462846FFF7D0FC0446E86B13
S3150800276044F083F9204604B0BDE8F0819DF80F30A7
S31508002770012BEBD12169B142E8D10093414633469A
S315080027802846FFF7A5F904460028DFD1E7E7212404
S31508002790E8E71124E6E72924E4E700BF042500203A
S315080027A02DE9FF410C4616461F46054680B390F8AC
S315080027B034307BB3B1F5801F2ED2DFF8608001215B
S315080027C043F0B9FF2146424628460DF10F03FEF7AE
S315080027D0B9FF044670B99DF80F30012B11D1D8F80E
S315080027E01030BB4212D10246009031462846FFF708
S315080027F06FF90446E86B44F038F9204604B0BDE8A2
S31508002800F081022B14BF2D246024F3E76324F1E73B
S315080028102124F2E71124F0E72924EEE70425002015
S315080028202DE9F04385B00C4617461E460546DDF8E9
S31508002830308098B390F8343093B3B1F5801F31D215
S31508002840DFF86490012143F076FF21464A46284680
S315080028500DF10F03FEF776FF044688B99DF80F3091
S31508002860012B14D1D9F8102006EB08039A4213D38A
S3150800287000904346324639462846FFF729F904466A
S31508002880E86B44F0F2F8204605B0BDE8F083022B69
S3150800289014BF2D246024F3E76324F1E72124F2E72B
S315080028A01124F0E72924EEE7042500202DE9F34159
S315080028B01F4600230C46164605463B6050B390F863
S315080028C034304BB3B1F5801F28D2DFF8548001218C
S315080028D043F031FF2146424628460DF10703FEF72D
S315080028E031FF0446A0B99DF80730032B10D0022B00
S315080028F00AD10123336004233B60E86B44F0B5F842
S31508002900204602B0BDE8F0813060D8F81030F3E711
S315080029102D24F2E72124F3E71124F1E72924EFE730
S315080029200425002030B50C46054685B028B390F836
S31508002930343023B3B1F5801F23D2022143F0FBFEC6
S315080029400DF10F03214628460F4AFEF7FBFE034604
S3150800295088B99DF80F20032A0DD00322214600923C
S3150800296002462846FFF7CAFB0446E86B44F07DF8A2
S31508002970204605B030BD2D24F7E72124F8E71124B9
S31508002980F6E72924F4E700BF042500202DE9F041E5
S315080029904668002E3AD0056898464FF0000CAE46B9
S315080029A055F83C40C4F31307013401D0B94222D08C
S315080029B00CF1010C66450EF1080EF1D100273C46D4
S315080029C003E0A64207F108071DD055F83430013454
S315080029D00133F6D16FEA01316FEA1131E951016825
S315080029E0CB59C3F3130343EA0853CB5103683B445B
S315080029F05A60BDE8F08141EA0851CEF80010036834
S31508002A0003EBCC03F4E7B8F1030F03D101230372F8
S31508002A10BDE8F08100273C4603E0A64207F1080717
S31508002A20F4D055F834300134C3F3075CBCF1030F16
S31508002A30F3D11B0D1B050B43EB51D0E72DE9F041F4
S31508002A400646406882B0C0B10F46904600243368F7
S31508002A5053F8345003EBC403C5F30752C5F3130107
S31508002A60013504F1010406D05B683046CDF80080D4
S31508002A70B84710B170688442E9D302B0BDE8F08166
S31508002A80024B1968024B1868FFF77CBD0CF500204D
S31508002A902CF5002008B559F0ECFA014B186008BD72
S31508002AA030250020014B186859F0DEBA3025002081
S31508002AB073B504462248012A00EAC1119DF8185048
S31508002AC023F07C4007D9961E012E28D9073303F038
S31508002AD07F03194308E09DF81C300A43DB0603F020
S31508002AE0C053134343F060410023C4E900108DF836
S31508002AF00730B5B1202221460DF1070044F00CFB42
S31508002B001A220DF10700211D44F006FB0820636810
S31508002B109DF8072043EA8263636002B070BD1143E3
S31508002B20E2E71B220DF10700214644F0F5FA236877
S31508002B309DF80720042043EAC2632360EDE700BF3F
S31508002B4080FFFF0738B5094B0D461A680021044671
S31508002B5048F049FB4FF0FF320023C4E90025236102
S31508002B60A260E3822383A37638BD00BFACD00508F4
S31508002B700138C0B205289ABF014B185C012070477E
S31508002B80B1D005082DE9F0410746154600240E4642
S31508002B90596888B0490A012922464FEA510104F1C9
S31508002BA00104F8D8DC78997824031B88C90201F453
S31508002BB0006104F480540C43C3F30A03520323440C
S31508002BC092B24FF000089C18274B6FEA044403930F
S31508002BD025F07843ED4302A90DF107001B22029365
S31508002BE08DF8078044F098FA9DF80720029B02A901
S31508002BF043EAC2630DF107001B2225F078450493CA
S31508002C0002958DF8078044F087FA9DF80720029B05
S31508002C106FEA144443EAC26305934FF0FF330794FF
S31508002C20069307A9BB69012206F110009847BB69FC
S31508002C3005A90446012206F108009847BB694045E4
S31508002C4018BF044604A90122301D984701224045B1
S31508002C5018BF0446BB69304603A99847404508BFD4
S31508002C60204608B0BDE8F08101009AB20021084666
S31508002C70F0B52F4C2F4A2368156845B11D68002DFD
S31508002C804BD09D889688AE4284BF134601210130F9
S31508002C90052802F10802EFD101B1236000210D4693
S31508002CA02548264A0368166846B11E68002E37D09E
S31508002CB09E889788B7423CBF134601210135052DEA
S31508002CC002F10802EFD101B1036023681A6852B312
S31508002CD01B499C888A6F1B4B22F0FF7203EA044348
S31508002CE022F4803213438B674FF050234FF0004293
S31508002CF09A6603681A68C2B111499B888A6FC3F33A
S31508002D00080322F4FF7222F0010213438B674FF087
S31508002D1050234FF080429A66F0BD13460121B6E76C
S31508002D2013460121CAE7084BE0E7074BF1E700BF66
S31508002D303825002064250020342500203C25002065
S31508002D40004000500000FF010060005008B501F087
S31508002D50BBFADFED117AB4EEE70AF1EE10FA17D4F2
S31508002D60DFED0E7AB4EE670AF1EE10FA37FE800A46
S31508002D70F6EE007A30EE270ADFED097A30EE270AFA
S31508002D80BDEEC00A10EE103AA3F1800040B208BDAD
S31508002D90B0EE670AECE700BF000000C30000FE4281
S31508002DA00000004310B5164A936E526E134013F096
S31508002DB0804113D0134B186804683CB100210822DF
S31508002DC048F011FAFFF7C2FF0021A0474FF08042F2
S31508002DD00D4B5A66BDE81040FFF748BF002BF9DADD
S31508002DE00A4B1868046834B1082248F0FCF9FFF762
S31508002DF0ADFF0121A0474FF00042034BE9E700BFB2
S31508002E00004000503425002000600050382500207E
S31508002E10044BD3F88420D206FBD4D3F88400C0F33D
S31508002E20811070470040005038B5174B0546D3F857
S31508002E3028310C4603F00703013B052B20D8DFE8B1
S31508002E4003F003131B0F0B1756F036FC052305B1C9
S31508002E50286004B1236038BD56F02EFC0623F6E739
S31508002E6056F074FC0723F2E756F066FC0323EEE7F8
S31508002E7056F062FC0423EAE756F05AFC0223E6E71A
S31508002E8000231846E3E700BF00800050002337B54B
S31508002E900193164B0546D3F820320C4603F0070378
S31508002EA0042B21D8DFE803F0030B11161B000123BE
S31508002EB00DB1019A2A6004B1236003B030BD002128
S31508002EC001A8FFF7B1FF1123F2E756F03FFC0723ED
S31508002ED00190EDE759F0F3F80A230190E8E756F078
S31508002EE07DFC09230190E3E70023E1E70080005019
S31508002EF038B5104B0546D3F850320C4603F0030399
S31508002F00022B12D0032B08D0012B0AD00023184617
S31508002F1005B1286004B1236038BD59F0D3F80B23F6
S31508002F20F6E759F0CCF80A23F2E756F057FC0923DE
S31508002F30EEE700BF0080005038B5104B0546D3F8C1
S31508002F4080300C4603F00303022B0BD0032B0DD065
S31508002F50012B0FD156F0B6FB0D2305B1286004B13D
S31508002F60236038BD56F0F2FB0723F6E756F0A4FBBC
S31508002F700623F2E700231846EFE700BF008000505B
S31508002F8038B5104B0546D3F800310C4603F0030359
S31508002F90022B0BD0032B0DD0012B0FD156F0CCFBF7
S31508002FA0032305B1286004B1236038BD56F016FC2A
S31508002FB00923F6E756F0C6FB0823F2E701230020AB
S31508002FC0EFE700BF0080005038B5184B0546D3F828
S31508002FD020010C4600F00700062823D8DFE800F099
S31508002FE0040A0E16121A1E00012305B1286004B140
S31508002FF0236038BD56F060FB0523F6E756F09CFBC8
S315080030000323F2E756F0A2FB0723EEE756F090FB00
S315080030100223EAE756F050FB0623E6E756F08CFB58
S315080030200423E2E700231846DFE700BF00800050CC
S3150800303038B5104B0546D3F840310C4603F0030368
S31508003040022B0BD0032B0DD0012B0FD159F037F8DB
S315080030500A2305B1286004B1236038BD56F0BEFBCB
S315080030600923F6E759F02EF80B23F2E7012300208F
S31508003070EFE700BF00800050002337B50193164BD9
S315080030800546D3F860320C4603F00703013B032BD1
S315080030901FD8DFE803F0020E1914002101A8FFF774
S315080030A093FF0F230DB1019A2A6004B1236003B080
S315080030B030BD002101A8FFF7BBFF1023F2E756F049
S315080030C045FB07230190EDE756F032FB02230190FA
S315080030D0E8E70023E6E700BF0080005038B5104B4C
S315080030E00546D3F860310C4603F00303022B0BD0D8
S315080030F0032B0DD0012B0FD158F0E1FF0A2305B1A0
S31508003100286004B1236038BD56F068FB0923F6E74A
S3150800311058F0D8FF0B23F2E701230020EFE700BFA2
S31508003120008000502E4B98424AD022D82D4B984208
S3150800313040D014D82C4B984239D00AD82B4B9842F9
S3150800314032D02B4B98422FD02A4B98422CD00020B5
S315080031507047294B9842FAD1284B186F7047284B6D
S3150800316098422AD0274B9842F1D1244BD3F88000B5
S315080031707047254B98422BD009D8244B984223D028
S31508003180234B9842E3D11D4BD3F88C007047214B53
S31508003190984221D003F5740303F510539842D6D10B
S315080031A0164BD3F898007047144B986D7047134B1D
S315080031B0586E7047114B586F7047104B986F704791
S315080031C00E4BD3F8840070470C4BD3F88800704731
S315080031D00A4BD3F890007047084BD3F89400704711
S315080031E00048E8010024F400C0CF6A0080841E006D
S315080031F000093D0040420F00405DC6000080E00F18
S31508003200C0EA210180BA8C01007E560380D54302AC
S31508003210006CDC020090D00373B50D460021114BFB
S315080032200191D3F88041064604F00304022C13D01A
S31508003230032C0CD0012C13D101A8FFF7C5FE0F24CF
S315080032400EB1019B336005B12C6002B070BD56F01B
S315080032507DFA07240190F3E756F06AFA0190EFE742
S315080032600C46EDE70080005038B5104B0546D3F8FC
S3150800327040320C4603F00303022B0BD0032B0DD070
S31508003280012B0FD158F01BFF0A2305B1286004B1A2
S31508003290236038BD56F0A2FA0923F6E758F012FF64
S315080032A00B23F2E701230020EFE700BF0080005060
S315080032B038B5144B0546D3F800020C4600F0070053
S315080032C004281BD8DFE800F003090D1115000123B7
S315080032D005B1286004B1236038BD58F0F0FE0A2312
S315080032E0F6E756F07BFA0923F2E758F0EBFE0B23D4
S315080032F0EEE756F007FA0E23800AE9E70023184698
S31508003300E6E700BF0080005038B5144B0546D3F8F1
S3150800331008020C4600F0070004281BD8DFE800F076
S3150800332003090D111500012305B1286004B12360B6
S3150800333038BD58F0C4FE0A23F6E756F04FFA0923BB
S31508003340F2E758F0BFFE0B23EEE756F0DBF90E2343
S31508003350800AE9E700231846E6E700BF0080005028
S31508003360B0F5207F1FD009D8B0F5007F15D003D857
S3150800337068B1B0F5C07F0AD000200CE0B0F5607FD8
S31508003380FAD10B4BD3F88000C0F3011003E0084BC9
S31508003390186FC0F3033001307047054BD3F890001F
S315080033A0C0F30460F7E7024B186FC0F38020F2E71A
S315080033B00080005002464FF48030104B10B59866D6
S315080033C00020FFF7CDFF504341F671320C4BDC6904
S315080033D0DA635A6804F4803422F4401259B9094968
S315080033E0884294BF00200120000502435A600CB1B0
S315080033F00022DA6310BD0449F2E700BF00900050CE
S3150800340000000350005A6202002D3101430905D01D
S31508003410012B0CD0022B084B18BF002300F01F000D
S3150800342039B103F58053012282401A607047034B75
S31508003430F4E703F50053F6E768800050648000500F
S315080034401FB50021B0F5807FCDE9001100F00B8192
S315080034506AD8002800F0DE802038602878D86028EE
S3150800346076D8DFE810F0D700E500D700E500F600CB
S31508003470F600F600F600F600E5009200EB001101F2
S315080034801601EB00E500E500E5007500750075001E
S3150800349075007500750075001101E500E500E50089
S315080034A03B019D00E5007500750075007500750007
S315080034B075007500750075007500750075002001AA
S315080034C0F600D700D700D7001B01EB00EB0025015B
S315080034D0BA00FB00CE00CE007500750075007500B9
S315080034E0D7007500750075007500750075007500C4
S315080034F07500750075007500750075007500750016
S315080035007500750075007500750075007500750005
S3150800351075007500750075007500750075007500F5
S31508003520750075007500D300B0F5F06F00F0D68011
S315080035303BD8B0F5806F00F08C801BD8B0F5207FA3
S3150800354076D009D8B0F5C07F64D0B0F5007F64D0D6
S31508003550009805B05DF804FBB0F5407F6ED0B0F575
S31508003560607FF5D101A80021FFF7E6FC4FF46070F3
S31508003570019A57E0B0F5C06F00F086800AD8B0F51A
S31508003580A06F6BD0B0F5B06FE2D100216846FFF7A7
S3150800359043FEDDE7B0F5D06F7BD0B0F5E06FD7D14D
S315080035A000216846FFF760FED2E7B0F5206F7FD0AE
S315080035B00CD8B0F5106F71D0B0F5186F73D0B0F5A0
S315080035C0086FC5D16846FFF7DBFCC1E7B0F5306F79
S315080035D073D010D8B0F5286FBAD10021424B0391A9
S315080035E0D3F8703203F00303012B02D103A8FFF7C7
S315080035F01FFD039B41E0B0F5386F45D0B0F5406F2D
S31508003600A6D100216846FFF70FFCA1E756F05AF845
S3150800361000909DE756F076F8FAE756F053F802461A
S315080036204FF40070FFF79CFEB2FBF0F200928FE7B2
S3150800363056F068F802464FF42070F3E756F062F841
S3150800364002464FF42070FFF78BFEB2FBF0F25208E9
S31508003650ECE700216846FFF7B7FC79E700216846E2
S31508003660FFF714FC74E74FF0E02302911B695B0730
S3150800367005D556F047F80290029B009368E703A920
S3150800368002A8FFF7D5FCF7E700216846FFF7D0FC4C
S315080036905EE700216846FFF70BFE59E700216846FA
S315080036A0FFF732FE54E700216846FFF721FC4FE793
S315080036B000216846FFF7E0FC4AE70B4BD3F8903247
S315080036C003F00303012B04D0022B05D156F03EF874
S315080036D09EE756F02DF89BE7084699E700216846CD
S315080036E0FFF7FCFC34E700BF0080005008B58020D7
S315080036F0FFF7A6FE034B98429EBF4FF48032024B5B
S315080037001A6708BD005A620200A000501FB503469A
S315080037100020B3F5607F019000F0F4807BD8582B29
S3150800372068D8382B06D8243B092B49D9019805B007
S315080037305DF804FB393B1F2BF8D801A252F823F099
S31508003740E93800082D3700082D3700082D370008FE
S31508003750F3380008173900082D3700082D370008F8
S315080037602D3700082D3700082D3700082D3700089B
S315080037702D3700082D3700082D3700082D3700088B
S315080037802D3700082D3700082D3700082139000885
S315080037903B3800082D3700082D3700082D3700085C
S315080037A07F3800082D3700082D3700082B39000808
S315080037B0353900080D390008A1380008A138000875
S315080037C0092BB3D801A252F823F000BF3B380008F2
S315080037D03B3800083B3800083B3800083B380008EF
S315080037E02D370008D53800082D370008E9380008B5
S315080037F059380008802B58D0B3F5807F96D14FF002
S31508003800E02302901B695B0769D555F07BFF0C2303
S315080038100393039B56E0B3F5086F6FD021D8B3F531
S31508003820C06F61D00ED8B3F5A06F6FD0B3F5B06F87
S3150800383050D0B3F5806F7FF479AF002001A9FFF768
S31508003840C3FB73E7B3F5E06F65D0B3F5F06F50D0FF
S31508003850B3F5D06F7FF46AAF002001A9FFF728FD02
S3150800386064E7B3F5286F65D00ED8B3F5186F57D04F
S31508003870B3F5206F59D0B3F5106F7FF457AF00201A
S3150800388001A9FFF741FD51E7B3F5306F64D0FFF4A6
S315080038904DAFB3F5386F27D0B3F5406F7FF446AF19
S315080038A0002001A9FFF7C0FA40E7344B1B6F03F06D
S315080038B00703013B032B3FF639AFDFE803F00902A4
S315080038C005070523019331E70323FBE70823F9E7F7
S315080038D00223F7E7002001A9FFF79EFC26E703A9C4
S315080038E002A8FFF7A5FB94E7002001A9FFF7A0FBB4
S315080038F01CE7002001A9FFF7F1FB17E701A9FFF76D
S315080039003FFB13E701A9FFF717FB0FE7002001A903
S31508003910FFF7BCFA0AE7002001A9FFF7A5FC05E7AF
S31508003920002001A9FFF7E4FA00E7002001A9FFF744
S31508003930A3FBFBE6114BD3F8703203F00303012B0C
S3150800394004D0022B0CBF14230023BBE7002103A8D5
S31508003950FFF76EFB1023B5E7084BD3F8903203F058
S315080039600303012B06D0022B02D155F0EFFE0720E8
S315080039700190DBE655F0DCFE0220F9E700800050F6
S315080039804FF48032074B0849586E03F580535A6640
S315080039904B6A23F001034B62C3035CBF034B5A66B1
S315080039A0704700BF0080005000C0075000A00050BC
S315080039B008B5FFF7ABFE09280ABF024B4FF6FF70A2
S315080039C0188808BD9AFF002008B5FFF79FFE032850
S315080039D00ABF024B4FF6FF70188808BD98FF0020F3
S315080039E0F8B504468020FFF791FE032800F0918081
S315080039F04FF48012574B584D5A6645F60E034FF052
S31508003A00A062C5F88030554B9A624FF4803203F5B0
S31508003A1080539A62AB6DDA03FCD4AE6D16F080461D
S31508003A20FBD1D4E900231B0543EA0263E27B4C4839
S31508003A301343227B4B4F43EA0243627B43EA02333A
S31508003A40A27B43EA82132B61AA69D4E904131B06F5
S31508003A5043EA816302F000421343A27E4FF44061B9
S31508003A601343227E43EA0243627E43EA0223AB61A2
S31508003A704FF4006243F070FB2B6AE26923F00F03F0
S31508003A801343003A18BF0122E17E43EA810343EA61
S31508003A90C2032B62E369002B3CD194F8243094F8D6
S31508003AA02010AA6ADB0043EA41133A40134394F80C
S31508003AB021202D4943EA021343F48033264AAB6298
S31508003AC0936D31EA0303FBD14FF08071234881627D
S31508003AD01369A56823F4700343EA055313614FF08D
S31508003AE00043836194F822300BB9204B996294F80D
S31508003AF023303BB94FF480321C4B9A62164A936DB9
S31508003B005B00FCD494F825301BB1134B184AC3F854
S31508003B108020F8BD022B08D12E614FF408524FF4CD
S31508003B207F411448AE6143F017FB0B4994F82230E5
S31508003B308A6A94F820001B063A4043EA4013134366
S31508003B4094F8242043EAC20394F8232043EA024364
S31508003B508B62D7E7009000500040005A0050005A88
S31508003B603840005AC7FFFEFE030001000060005AF5
S31508003B70F1A7FFFF3440005A014B93F90000704744
S31508003B80060001204FF400011B4A437810B5516620
S31508003B904FF4D151022402F5B832516217494F2B1E
S31508003BA04C604FF0010428BF4F2301F580514C604B
S31508003BB01169C903FCD4017843EA01235361D0E9AA
S31508003BC001131B0143EA0123417B0B43017B43EAB3
S31508003BD041039360C37B817B1B0143EA4113417C0C
S31508003BE00B43017C43EA41035360837C13B16FF4B2
S31508003BF0D153536210BD00BF009000500010025010
S31508003C00014B1880704700BF9AFF0020014B1880AF
S31508003C10704700BF98FF0020B0F5207F10B50C460E
S31508003C205DD008D8B0F5007F4ED003D8C0B1B0F546
S31508003C30C07F15D010BDB0F5607FFBD12C4B4C1E54
S31508003C40D3F8FC202B4912F0807F4FEA041427D1C1
S31508003C50D1F8803023F030032343C1F88030E9E7F8
S31508003C6043F089FA43F095FA4FF48031224B214A02
S31508003C701967136F013C23F4704343EA043313674F
S31508003C8055F040FD0446FFF7C3F8C0F1020120468F
S31508003C9043F079FA00F04AF8BDE81040FFF726BD70
S31508003CA0D3F8FC2022F08072C3F8FC20D1F88020DB
S31508003CB022F030022243C1F88020D3F8FC2042F0DB
S31508003CC08072C3F8FC20B5E70A4A4C1ED2F8903039
S31508003CD023F0F85343EA0463C2F89030AAE7054A8A
S31508003CE04C1E136F23F4806343EA84231367A1E70A
S31508003CF000ED00E0008000500090005008B501215A
S31508003D00022000F095F94FF42070FFF729FB054BC8
S31508003D10187043F030FA43F03CFA4FF48032024B05
S31508003D201A6708BDB17500200090005008B54FF419
S31508003D30C070FFF785FBBDE808400449884294BF78
S31508003D40012102214FF42070FFF766BF80F0FA02C6
S31508003D5038B5044655F0D6FC0546FFF759F8C0F1C4
S31508003D600201284643F00FFA0121002000F0A0F9CD
S31508003D702CB1FFF7DBFFBDE83840FFF7B7BC034BB4
S31508003D804FF420701978FFF747FFF4E7B175002064
S31508003D904FF4C02270B50546FFF7C4F9314B044607
S31508003DA05A6603F598335A68012A04D12E494A609F
S31508003DB05A689207FCD48020FFF7A8FC052807D18B
S31508003DC043F0D9F943F0E5F94FF48032254B1A67E9
S31508003DD0264B24F040749D4230D0254B9D4230D06E
S31508003DE055F06AFC8542064603D90121284600F0AB
S31508003DF05FF9204BDA6812F0060FFBD199689C60D0
S31508003E009A68624012F4F81F1ED12846FDF7C2F8D8
S31508003E108020FFF77BFC05280DD155F073FC04467E
S31508003E20FEF7F6FFC0F10201204643F0ACF9FFF7B2
S31508003E307DFFFFF75BFCAE420CD270BD44F0007408
S31508003E40CEE744F08074CBE780209960FFF75EFCEC
S31508003E50052805D0BDE870400121002000F028B9EA
S31508003E603546DAE70090005000E0015040420F0066
S31508003E7080841E0000000150304B314A984251D0D0
S31508003E8020D8A3F5B703A3F55863984246D00DD8B2
S31508003E902C4B984231D02C4B984239D02B4B4FF4AF
S31508003EA0002198421DD00023516622E0284B4FF48A
S31508003EB000219842F7D1274BD3F8BC30516623F03E
S31508003EC0407316E0244B984230D0244B984231D0A8
S31508003ED0234B4FF400219842E5D11E4BD3F8C83046
S31508003EE0ECE71C4BD3F8A030516623F0407343F03F
S31508003EF000734FF0B442936070474FF40021154B9E
S31508003F00D3F8A030516623F0407343F08073F0E78E
S31508003F10104BD3F8A0304FF40021CFE70D4BD3F860
S31508003F20B830F8E70B4BD3F8C030F4E7094BD3F8B1
S31508003F30CC30F0E7074BD3F8D030ECE7C0EA2101E4
S31508003F400090005080841E0000093D0040420F008A
S31508003F500024F4000080E00F0048E801005A6202DD
S31508003F6080BA8C01024A536B0342FCD1704700BFEA
S31508003F7000400950044A4178536F23F4407343EADA
S31508003F8001235367704700BF0040005010B50E4A22
S31508003F900446136943F00403136156F0B9F943F074
S31508003FA0FDF80A4B5B6E5B0142BF094B094AC3F831
S31508003FB0202430BF43F0F3F805F070F81CB9BDE8CB
S31508003FC0104055F09FBB10BD00ED00E0008000508A
S31508003FD000E003500000FF0F10B50C4A04461369B1
S31508003FE043F0040313610A4B5B6E5B0142BF094B46
S31508003FF0094AC3F8202456F08BF930BF05F04EF86D
S315080040001CB9BDE8104055F07DBB10BD00ED00E0C1
S315080040100080005000E003500000FF0F034A0179BA
S31508004020D36E23F030030B43D3667047004000502D
S31508004030F8B504461C4BD3F88420D106FBD4D3F834
S315080040408430C3F381139C422CD055F03BFB012CE2
S31508004050064602D1214643F096F858F00AF84FF082
S315080040600072124B07465A66204643F09BF84FF4F7
S3150800407080630D4D621E93402B676B6E9A0103D4C5
S31508004080D5F884309B060AD5384657F0EDFF022C42
S3150800409008D13046BDE8F840002143F074B8D5F899
S315080040A08430EAE7F8BD00BF0040005000600050C9
S315080040B010B50C4608B955F005FB074B21461B7889
S315080040C03BB1064B984204D80120BDE81040FFF7E3
S315080040D0AFBF0220F9E700BFB2750020005A62029E
S315080040E00278034B012100201A70FFF7E1BF00BFD9
S315080040F0B27500204FF0004238B5244B244C5A665E
S315080041004AF6CD33656C014605F00105236428BBE4
S315080041100120FFF727FF6368DB0715D51D4B58609D
S3150800412008461D4B226BD2070CD4984208D10724A7
S3150800413015B1174B194A1A6433F040FC204638BDAE
S315080041400130EFE79842F2D00024F1E70132236B01
S3150800415013F0080305D08A42F8D1E8E700220E4991
S31508004160F5E78A42E3D020210A4A91620121A2F5A5
S31508004170805251600649084A886A800603D49342E9
S31508004180D5D00133F8E79342DDE700BF0090005031
S31508004190004009500060095040420F003254FFFFAA
S315080041A04FF0004238B5164B01465A664AF6CD33EB
S315080041B0144C154A656C236443780B205B0043F066
S315080041C00103D363FFF7CEFE63688A7823F4F87396
S315080041D043EA02136360CA784B7943EA0223A36071
S315080041E00A798B7943EA022323610878FFF782FF6D
S315080041F0EB0744BF054B236433F0E0FB012038BDD1
S315080042000090005000400950004000503254FFFF13
S315080042104FF0004270B5124B04465D6E03F58053AD
S315080042205A664AF6CD330F4980204E6C0B64FFF769
S3150800423099FE0B6A23F00F030F2C94BF234343F018
S315080042400F030B62F30744BF074B0B64002DA2BF95
S315080042504FF00042054B5A6633F0B0FB70BD00BF05
S3150800426000800050004009503254FFFF00A0005063
S315080042704FF0004270B5104B04465D6E03F580534F
S315080042805A664AF6CD330D4980204E6C0B64FFF70B
S3150800429069FE0B6A23F4F85343EA04230B62F30717
S315080042A044BF074B0B64002DA2BF4FF00042054BDD
S315080042B05A6633F083FB70BD0080005000400950F9
S315080042C03254FFFF00A00050064BDFED077AD3F803
S315080042D08830C3F30A0300EE103ABAEECF0A30EE7E
S315080042E0670A7047004000503393884370B501252C
S315080042F0C3B29D401E4B0C461D658300096803F139
S31508004300A04303F58823596030211A4E637B01FBCD
S3150800431000600366E37AA17A1B0543EA0143217B21
S3150800432022F0030243EA4153C365026757F0B4FE1D
S31508004330114B5D65237A13B1336C2B433364637A6F
S3150800434013B1B36B2B43B3632279A37943EA0243D0
S31508004350074A93616179E37943EA014306498B6128
S31508004360044B55639D64BDE8704057F090BE00BF8E
S3150800437000200450000004500010045010B5012419
S31508004380C0B2844057F088FE074BDA6A224208D149
S315080043905B6B9C430CBF0124002457F078FE204633
S315080043A010BD0024F9E700BF000004504FF4803226
S315080043B0054B9A6641F6713203F51C33DA6301221E
S315080043C003F50053DA6070470090005041F67132E9
S315080043D00121064BDA6303F50052D1600022DA6345
S315080043E04FF48032A3F518339A66704700000350DD
S315080043F0013831289ABF024B185C0020704700BF6D
S31508004400B7D00508021E30B54FF000000CBF0C25CA
S31508004410042547F60774084952B9831D51F8233015
S31508004420234023B101308542F6D14FF0FF3030BD2D
S3150800443000F11203F2E700BF0080035010B5C2F383
S315080044400623044602F0070241B942EA032242F46F
S3150800445040220634074B43F8242010BD114618465F
S3150800446042F0A1FE02461846FFF7C2FF123442EA9E
S315080044700022EFE70080035010B542EA03420A4CD7
S3150800448051B90A4B43F82020D4F848260123834023
S315080044901343C4F8483610BD054B43F82020D4F81A
S315080044A048260C30F2E700BF00C003504CC6035044
S315080044B07CC603504FF48032084B5A6603F5E62350
S315080044C09B69C3F3461203F00F010A434280C3F304
S315080044D00342C3F3033342700370704700900050E1
S315080044E0014B986CD96C70470080E00F0120034B94
S315080044F09B680A3303F01F03984070470080E00F5B
S315080045000122437801789A4030235943014B5A5087
S31508004510704700BF40E00350034BD3F82424D3F878
S3150800452020041040704700BF00C00350064BDA6EE7
S3150800453002F03002202A06D0DA6E22F0300208B1E4
S3150800454042F01002DA667047004000502DE9F0414B
S315080045501C4B0446D3F810334B1E0E2B0D4616463D
S3150800456023D939B34FF00008204606B355F03CF975
S315080045700F2167782378072F03EB430388BF083F8B
S315080045804FEA0313104895BFBF00BF0004330C332E
S3150800459008FA07F2B940184442F031FE85B92046B8
S315080045A056B1BDE8F04155F01FB98846DCE7FFF77C
S315080045B0A7FFDDE78846DBE7BDE8F041FFF7A0BFC8
S315080045C0BDE8F08100C0035030C003502DE9F0412A
S315080045D02B4B1746D3F810234A1C06460C46407840
S315080045E004D1D3F8241442F019FE0446002C2FDB1C
S315080045F0072C4FF0030532782DDC4FEA840805FABC
S3150800460008F529461F4802FA08F242F0F8FD29463D
S3150800461072781D4802F0030202FA08F242F0EFFD32
S31508004620012317F0050F194A18BF194903FA04F3AD
S315080046300CBFC2F81034C1F8103417F0060F18BFB3
S31508004640134AC2F814340123104AA340C2F820348E
S315080046502046BDE8F081A4F108084FEA880805FA63
S3150800466008F529460B4802FA08F242F0C8FD7278A6
S31508004670294602F00302084802FA08F2CEE700BF0C
S3150800468000C0035000C4035008C4035000E00350A0
S3150800469000D0035004C403500CC4035038B5054673
S315080046A00C4C0140D4F8303423EA0003C4F8303403
S315080046B0D4F830341943C4F83014D4F82C340343EE
S315080046C0C4F82C34012004F50054FFF72FFFC4F872
S315080046D0205438BD00C0035070B5124B0646D3F8B7
S315080046E0103342F0B5FD0446481C154603D1621C3A
S315080046F005D1204670BD631CFBD08C420ED13046D6
S31508004700032185F00102FFF721FF012004F11003C0
S3150800471005FA03F19840FFF7C1FFEAE74FF0FF34C7
S31508004720E7E700BF00C00350054B9A689107FCD421
S315080047305A689207F9D4DA69002AF6D1704700BF99
S3150800474000800A5008B555F05BF80222014B1A6141
S3150800475008BD00BF00800A5008B5FFF7E5FF012233
S31508004760024B03F580514A601A6108BD00800A5061
S3150800477008B5044B5968012903D1FFF7E3FF024B3B
S31508004780596008BD00800A5000A00A5010B5064CB2
S31508004790FFF7CAFF6368012B03D1FFF7E9FFFFF7AD
S315080047A0C3FF0378E36010BD00800A50B8B94A68B1
S315080047B00B7812B1127843EAC2034A7843EA4203F5
S315080047C08A6812B1127843EA82138A7843EA820326
S315080047D0CA6812B1127843EA4223014A93647047C1
S315080047E000800A504FF480320A4B5A6603F5E623D6
S315080047F09B69C3F303320270C3F303424270C3F3E7
S31508004800461203F00F03134343804FF6FF7383806A
S31508004810704700BF0090005040F6B732064B5B6801
S315080048209BB293429FBF4FF47A72B3FBF2F3034AEB
S31508004830D05C88BF002070470080E00FE9D00508EB
S31508004840014B986CD96C70470080E00F1FB58DF846
S3150800485007000DF10F034FF0FF300DF10E020DF1B9
S31508004860070152F04EFDB0B19DF80730092B15D857
S315080048700B4AD25C042A11D80A4B03EBC2035868C8
S3150800488048B1B0F90020084B04301A8030F9022CE0
S31508004890586018465A8005B05DF804FB0020FAE710
S315080048A0ECD00508942500208C25002070B5044618
S315080048B052F027FC064640B90FCC054D0FC50FCC64
S315080048C00FC594E80F0085E80F00304670BD00BF9D
S315080048D09425002047F6FF739A42F0B56FD0092950
S315080048E06FD8394B5B5C042B6BD8384DDF0005EB72
S315080048F0C30415F83330A178012B13D10025E078CD
S31508004900401AA84202D80844C0B2F0BD431B6668E4
S31508004910A0EB530336F913609642D4BF1D4603F144
S31508004920FF30EEE760680028EFD0B0F90040944207
S3150800493004DBB0F902409442B8BF144683883D446C
S31508004940FF2B19BFC8224FF0280CB0F90620B0F982
S3150800495008C0A2EB04030CBF0126002693FBFCF358
S3150800496033446E781BB29E4201DD002B01DA731EBA
S315080049701BB24FF47A7C01339BB2071D5D1E2DB224
S315080049804FEAC50E00EBC505EA88AD689E4214FBE2
S31508004990025222EAE27202F15C02B2FBFCF204DD88
S315080049A037F8335001339542E8D200EB0E03988866
S315080049B0904228BF1046884238BF0846A4E7FF2021
S315080049C0A3E70020A1E700BFECD005089425002046
S315080049D00929F0B555D82C4B585C042851D82B4CCE
S315080049E004EBC00114F830004B6801280FD1C878D1
S315080049F08C78904294BFC4EB0001C4EB0201001B03
S31508004A00CAB28242C8BF002233F91200F0BD002B99
S31508004A1037D08878904202D3B3F90200F6E7CC780B
S31508004A20B3F900009442F1D94C789988013CA1F178
S31508004A30FF06714203F10405E4B2714103F10C0764
S31508004A40CEB2B44216D805EBC1014FF47A756A4363
S31508004A50B1F902404968521A04EBD47102EB6102BB
S31508004A6092FBF4F29042D1DBB3F902009042CDDC1E
S31508004A7010B2CBE737F831C04E1C9445E3D3314624
S31508004A80DEE70348C2E700BFECD0050894250020FE
S31508004A900080FFFF08B50448FFF708FFBDE8084097
S31508004AA0012052F040BB00BFF8D005080048704707
S31508004AB09CFF002001282DE9F34147F607730746B6
S31508004AC014BF062400249046114AA01D52F82060FF
S31508004AD01E4019D1CDB2042132460DEB01008DF8E6
S31508004AE004708DF80550FCF7EFFA42463146204629
S31508004AF0FFF7A4FC2B463A4631462046FFF7BCFC96
S31508004B00204602B0BDE8F08101340C2CDDD1F7E770
S31508004B1000800350F8B555F0C1FF012806461CD998
S31508004B2055F0F0FF041E02DA01252846F8BD1F4B92
S31508004B301B78002B37D150271D4DE819AD65EF6559
S31508004B4056F0A8F8286680B90125012EEDD9204629
S31508004B5055F0FAFF0028E8DAE6E7144B1B7803F06D
S31508004B60FF04002BE7D00025DFE7124D10220021B5
S31508004B70284646F038FB05F110032A460021012095
S31508004B80C5E9023756F06AF928660028DCD0032101
S31508004B90432044F073F8432003F0FAFD0122034B47
S31508004BA000251A70D1E70025D1E700BFB3750020AC
S31508004BB028260020C425002008B54FF098435B6CD2
S31508004BC0D90208D555F06AFF0238012803D8094BDF
S31508004BD0186E56F0D1F94FF098435A6CD202FCD5AC
S31508004BE05B6D054A03F4702313604320BDE8084053
S31508004BF003F0F8BDC425002030F500202DE9F04368
S31508004C0093B08946DDE91A871D460446002858D020
S31508004C10002956D0B8F1000F53D0002F51D013F009
S31508004C200F034ED1284829490FAE002A08BF01466E
S31508004C30A360C4E9001348463146E36142F0D5FC57
S31508004C4000283BD120460F9957F03FFA29462046BF
S31508004C5057F03BFA6946484601F00EF970BB6946BB
S31508004C60204642F0F0FE484603A942F0BDFD28BBA7
S31508004C70204603A942F0E7FECDF830804FF0010840
S31508004C8045F00055CDF8348006AB0E950CAA07CA38
S31508004C9083E807001946204642F0D5FE0F9709AB70
S31508004CA0CDF84080119596E8070083E8070020466E
S31508004CB0194642F0D2FE204654F00AFE13B0BDE86B
S31508004CC0F0832120FAE700BF000100040001010477
S31508004CD02DE9F04F97B0894690461F460546DDF800
S31508004CE080A0002800F0BB80002900F0B8803AB107
S31508004CF0229B002B00F0B380239B002B00F0AF8093
S31508004D00BAF1000F00F0AB80219B002B00F0A780C2
S31508004D1067B13C680026229B43440293464507D365
S31508004D2007B13C60002017B0BDE8F08F3C46F1E7BC
S31508004D305CB1229B219A9B5D125D01345340239AF4
S31508004D4004F00F0493550136E8E7A8EB060BBBF110
S31508004D500F0F58D9434B4846C5E90034AC60EC619F
S31508004D6013A942F042FC0028DDD1284613992BF0FE
S31508004D700F0B57F0AAF95946284657F0A6F94846A0
S31508004D8004A901F079F80028CDD1284604A942F0F3
S31508004D905AFE484607A942F027FD0028C3D12846EF
S31508004DA007A942F050FE012322992F4ACDF828A0E0
S31508004DB00B930C928A190D9228464BF000520AA9B9
S31508004DC00E9303920F9242F03EFE28460DA942F03A
S31508004DD03AFE239B039A9919012310911193129273
S31508004DE0214A284610A9CDF84CA01493159242F0F2
S31508004DF034FE284613A942F030FE284654F068FDD2
S31508004E005E4400288FD1229B03EB060B239B1E448E
S31508004E10029B5B4501D1464680E7ACB9219B2246F9
S31508004E20CDE900A3494610232846FFF7E7FE0028E8
S31508004E307FF479AF0AF1100212F8013D0133DBB2B3
S31508004E4013700BB95245F7D1219A1BF8013B125D35
S31508004E500134534006F8013B04F00F04D8E721203B
S31508004E6061E700BF03030004100000202DE9F04F9E
S31508004E7097B0894615469A460446209FDDF88880ED
S31508004E80DDF890B0269E002800F09D80002900F0ED
S31508004E909A80002E40F08A80002B00F09480B8F1AA
S31508004EA0000F0AD0219B002B00F08D80002A40F0CD
S31508004EB09F80F10700F1878002E0002A40F0858094
S31508004EC0FB1F062B7FD8524B0BEB05029A427AD86A
S31508004ED00023504A4846C4E90023A360E36113A9A6
S31508004EE042F083FB00285ED12046139957F0EDF86F
S31508004EF0204646EA074157F0E8F84146204657F06B
S31508004F00E4F82946204657F0E0F8484601A900F09B
S31508004F10B3FF002847D1204601A942F094FD484630
S31508004F2004A942F061FC00283DD14FF00109204652
S31508004F3004A942F088FD239B45F000550793219B61
S31508004F40CDF82090204609950DA90A9347F00057F9
S31508004F5048F00053CDF82C900C93CDF834A0CDF83A
S31508004F6038900F9742F06FFD20460AA942F06BFD74
S31508004F70204607A942F067FD259B204610A946F062
S31508004F800056CDF840B0CDF8449012951393CDF85D
S31508004F905090159642F061FD204613A942F05DFD3A
S31508004FA0204654F095FC17B0BDE8F08F259B53B109
S31508004FB0BAF1000F07D0B8F1000F01D0219B13B149
S31508004FC0B5B9022E20D12120EDE7239B002BFAD07C
S31508004FD0BBF1000FF7D0C7F10F03DBB2032B3FF687
S31508004FE068AF0122DB0002FA03F3AB42EBD9E8E72C
S31508004FF0239B002BE7D0BBF1000FE4D0C7F10F03CA
S31508005000DBB2032BDDD8ECE7102E7FF652AFDAE7DA
S3150800501000000420000005042DE9F04F99B08846E9
S3150800502015469B460446229FDDF89890289E60B157
S3150800503059B1279B4BB1BBF1000F06D0249B0BB18E
S31508005040239B13B11DB9022E13D121239AE0259B68
S31508005050002BFAD0B9F1000FF7D0C7F10F03DBB276
S31508005060032BF0D80122DB0002FA03F3AB42ECD99A
S31508005070E9E7731E0F2BE8D816F0010AE5D1FB1FE6
S31508005080062BE2D8414B09EB05029A42DDD8404B84
S315080050904046C4E9003AC4F808A0C4F81CA015A9FB
S315080050A042F0A3FA034600286CD12046159957F01A
S315080050B00CF8204646EA074157F007F82046249997
S315080050C057F003F82946204656F0FFFF404603A945
S315080050D000F0D2FE0346002854D1204603A942F028
S315080050E0B2FC404606A942F07FFB0346002849D198
S315080050F04FF00108204606A942F0A5FC259B20464C
S31508005100099345F00053CDF8288001930B93239B10
S315080051100FA90C93249B47F0005743F00052CDF893
S3150800512034800E92CDF83CB0CDF84080119742F00D
S315080051308AFC20460CA942F086FC204609A942F0C2
S3150800514082FC019B204612A9CDF84890CDF84C80E8
S31508005150149342F082FC279B204615A946F0005678
S315080051601593CDF85880179642F06DFC204654F0FA
S31508005170AFFB034630B101902A465146484646F0F1
S3150800518032F8019B184619B0BDE8F08F00000420DC
S31508005190000006042DE9F0418CB0884616461D46E7
S315080051A00446129F00284BD0002949D0002A47D030
S315080051B0002F45D00B68103B102B41D8214A22FA04
S315080051C003F3D9073CD500231F4A8360C0E90023AF
S315080051D0C36109A9404642F008FA70BB20460999FE
S315080051E056F073FF2946204656F06FFF694640463B
S315080051F000F042FE08BB6946204642F024FC4046C1
S3150800520003A942F0F1FAC0B9204603A942F01BFCF3
S3150800521006960126204606A945F0005507960895E4
S3150800522042F011FC094B204609A909970A960B93E7
S3150800523042F013FC204654F04BFB0CB0BDE8F0815D
S315080052402120FAE7010101000000040410000020F3
S31508005250F0B50C4617461E46054695B0002874D08C
S31508005260002972D0002A70D0002B6ED0036B0F2B4A
S315080052705BD80023364A3846C4E90023A360E361B5
S3150800528011A942F0B2F900285BD12046119956F0CF
S315080052901CFF296B20460F2984BF01F00F0110312E
S315080052A056F013FF384602A900F0E6FD002848D15B
S315080052B0204602A942F0C7FB384605A942F094FAEF
S315080052C000283ED1204605A942F0BDFB0122214B0C
S315080052D0089509920A932B6B05F1100003F00F014C
S315080052E041F000510B900F2B0C920D910E900F92DE
S315080052F043F00052109226D90A9B08A923F00053BE
S3150800530020460A9342F09FFB0BA9204642F09BFBDE
S315080053100123119612930F4B204611A9139342F0BD
S315080053209CFB204654F0D4FA0BE000F120030190D0
S3150800533000930122102339462046FFF75FFC002818
S3150800534097D015B0F0BD0EA9DFE72120F9E700BF19
S3150800535000000404100000202DE9F04F9BB00C4615
S3150800536090461F460546DDF89090002800F0B2806A
S31508005370002900F0AF80002A00F0AC80002B00F076
S31508005380A980026B02EB09031B09B3EB121F02F09B
S315080053900F0600F0978000234F4A8B60C1E900236F
S315080053A0CB61404617A942F020F90346002840F091
S315080053B0858006EB090B204617992BF00F0A56F045
S315080053C084FE5146204656F080FE404602A900F06B
S315080053D053FD0346002871D1204602A942F033FB4B
S315080053E0404605A942F000FA0346002866D14FF068
S315080053F00108019005A9204642F025FB374A2046B8
S3150800540008A90895CDF824800A9242F01CFB46F0BC
S315080054100051AAEB060605F1100346F000560B9359
S31508005420CDF830800D910E97CDF83C8010960D99E9
S31508005430204621F000510D910BA9009342F003FB81
S3150800544020460EA942F0FFFA019B244A1193AAF1BD
S31508005450100343F00053CDF84880139305F1200359
S315080054601493CDF854801692139B204643F080433C
S315080054701393139B11A923F00053139342F0EDFAEB
S31508005480204614A942F0E9FA144A17A920461795A6
S31508005490CDF86080199242F0E0FA204654F018FAE6
S315080054A0AAEB0B0149440190ABEB0A020098394478
S315080054B045F0A4FE019B2A6B4A442A6318461BB092
S315080054C0BDE8F08F10304A463946304445F096FE1E
S315080054D00023F0E72123F1E703020004100000206F
S315080054E02DE9F0438DB08946DDE914581F46044678
S315080054F0002851D000294FD0B8F1000F4CD00BB975
