S02A00006275696C642F64656275672F616D617A6F6E5F7369646577616C6B5F736F635F6F6F622E733337D9
S21400000000100020E90C0000951D0400951D04005A
S214000010951D0400951D0400951D0400951D040003
S214000020951D0400951D0400951D04002102000086
S214000030951D0400951D0400B1010000174404003E
S214000040951D0400A1290000951D0400951D0400BF
S214000050951D0400AF1E0400951D0400951D0400A8
S214000060951D0400951D0400A1750000951D040053
S214000070951D0400951D0400951D0400951D0400A3
S214000080951D0400951D0400951D0400951D040093
S214000090951D0400C5100000951D0400951D040064
S2140000A0951D0400E5110000C5110000951D040013
S2140000B0951D0400BD570500951D0400E1100400C1
S2140000C0C3570500BF57050071080400CF57050049
S2140000D0C7570500A5100400CB5705002DEF0300F9
S2140000E021110400951D0400951D0400951D0400B3
S2140000F0951D0400951D0400951D0400951D040023
S214000100951D0400951D0400951D0400951D040012
S214000110951D0400951D0400951D0400951D040002
S214000120F9C80000951D0400951D0400951D0400E7
S214000130951D040000000000000000000000000004
S2140001400B4A1168086806C881F30B88022181F300
S2140001501488203080F30988BFF36F8F4FF00000BB
S21400016080F31188104700BFAFF30080AFF3008024
S2140001709C8E002000000000000000000000000030
S21400018007480068006880F3088862B661B6BFF367
S2140001904F8FBFF36F8F02DF00BF00BFAFF300804B
S2140001A008ED00E000000000000000000000000075
S2140001B0EFF309801EF0100F08BF20ED108AEFF352
S2140001C00B82734620E9FC0F114A116808604FF055
S2140001D0300080F31188BFF34F8FBFF36F8F08F0A6
S2140001E069FC4FF0000080F31188094A116808681E
S2140001F0B0E8FC0F13F0100F08BFB0EC108A82F3C3
S2140002000B8880F309881847AFF30080AFF30080AF
S2140002109C8E00200000000000000000000000008F
S2140002201EF0040F0CBFEFF30880EFF309800449BB
S214000230084700BFAFF30080AFF30080AFF3008045
S214000240F5440400000000002DE9F04F93B0CDE91E
S2140002500A32DDE91C530E9353EC102BCDE908014E
S214000260104619468DED060B1E9E10F0D5FC80B18B
S214000270DDE906014FF0FF32C54B10F0F5FC40B942
S214000280DDE906014FF0FF326FF4801310F0CEFC6C
S21400029070B1DDE908019DED060B0E9B1E96CDE9BB
S2140002A01C53DDE90A3213B0BDE8F04F00F088B900
S2140002B00022DDE90601002310F0B8FC002800F05B
S2140002C03381DDE906A303F1004BCBF30A5016F4A5
S2140002D08063A0F2FF3008BF06250F9310F0CAF91E
S2140002E09BA3D3E9002310F02FFA9BA3D3E90023A6
S2140002F010F074F8CBF31304894644F07F5180461F
S2140003000022A44B504641F4401110F065F894A327
S214000310D3E9002310F018FA02460B464046494639
S21400032010F05CF810F0AAFC044610F0A3F98EA3B7
S214000330D3E900238046894610F006FA0022964B41
S21400034010F04CF810F09AFC89A3D3E90023074676
S2140003504946404610F0F8F980463846894610F07F
S21400036089F985A3D3E9002310F0EEF902460B467F
S2140003704046494610F030F802460B46CDE90C23BD
S21400038010F0E2F9DDE90C2380468946104619464E
S21400039010F024F80022CDE91001804B4046494673
S2140003A010F0FCFA00227E4B10F018F802460B46BE
S2140003B04046494610F0F2FA00227A4B10F00EF84A
S2140003C002460B464046494610F0E8FADDE90C23A3
S2140003D08046894600204FF080410FF0FDFF024620
S2140003E00B46404649460FF0F9FF02460B46DDE94C
S2140003F0100110F0D3FA07F2FF3700226A4B0FF015
S214000400EDFF00223B0510F09FF952465B46804602
S214000410894610F029FC002840F08980CDE90C8937
S21400042004F16303C72B34BF0427052731051BD50A
S21400043053A3D3E900235046594610F00BFC00287E
S2140004407FD051A3D3E900235046594610F0EEFB67
S214000450002876D00027A542C6BF2C1B04F1FF3526
S21400046000253C4646F480660E9B9F422CBF4FF00C
S2140004700008A3EB070816F0020903D0002F18BFE8
S2140004804FF000083CB1DDE90C235046594610F009
S21400049085FA82468B46DDE906010022002310F02D
S2140004A0C5FB10B10BF100439B46DDE9080126F4BD
S2140004B00063CDE90183DDE90A324BEC10AB009511
S2140004C000F07EF802465FB3DDE9091316F0200F50
S2140004D000F10105089E0CBF65204520B047DDE908
S2140004E008010523002205930A23002CCDE90232D9
S2140004F007F1FF374FEAD473B8BF64422A46019328
S21400050004970A9B009446F050F90246B9F1000F92
S21400051006D00B9BC41A0B9B1A190E9BA34245D8F8
S214000520104613B0BDE8F08FDDE906ABCDE600223D
S214000530404649461A4B10F031FA013CCDE90C0111
S2140005406EE7002D90D00F9B002B8DD0013D8BE7E2
S214000550FB799F501344D33FB3C8608B288AC63FAD
S21400056061436F63A787D23F71A379094F930A400F
S2140005701655B5BBB16B0240EF39FAFE422EE63F88
S2140005802D431CEBE2361A3F0000000080842E410B
S214000590FFFFEF7F0000F83F0000E03F00002C4028
S2140005A000002440000018400000F03F2020DDE955
S2140005B00913089DA8470134ADE700BF00000000FE
S2140005C02DE9F04F5BEC10AB97B0CDE90501DDE906
S2140005D02057CDE90723504652465B465946229E91
S2140005E010F01AFB70B90323CDE902760193B04BE5
S2140005F00093DDE90501DDE9072345F0F6FF17B0B6
S214000600BDE8F08F4FF0FF326FF480135046594626
S21400061010F00CFB28B10423CDE902760193A54B1C
S214000620E6E74FF0FF3250465946A34B10F01CFB4E
S21400063068B1A24A06F00403002B08BF0322A04BB1
S2140006401CBF13460422CDE902760192D0E750463D
S21400065093A3D3E90023594610F006FB38B992A3BA
S214000660D3E900235046594610F0E0FA68B1DDE9B8
S2140006700723DDE905014BEC10ABCDE9217620958B
S21400068017B0BDE8F04FFFF7DFBD0022002350464D
S214000690594610F0CBFA002800F09A805B46524686
S2140006A0002000210FF098FE012382468B46099316
S2140006B016F4806400F08E80092D40F28E800024AF
S2140006C030210EABA5F109020134202C03F8011BE2
S2140006D0A5EB040901D09442F6D15946504610F0D5
S2140006E0CDFA784B054603EBC90393ED007B8DED01
S2140006F00A7B0FF0BFFF02460B46504659460FF0E6
S2140007006BFEDDE90A2310F01FF802460B46CDE922
S2140007100C2310F0DBFA80460FF09CFF02460B46D7
S214000720DDE90C010FF058FE02460B46CDE90C231E
S2140007300022654B10F098FA002851D008F1010805
S21400074040460FF087FF02460B46DDE90A0110F02F
S21400075077FA10B14FF000080135B9F1000F50D10B
S21400076028460FF087FF02460B46504659460FF0C4
S21400077033FE0022544B8046894610F057FA30B1BB
S214000780002240464946504B10F06EFA10B1E8077A
S21400079000D501350A210EAB1A19202C0AD095FB7C
S2140007A0F1F001FB1055303502F8015B01340546C7
S2140007B00028F2D106F00302012A57D1002F55D0A7
S2140007C0099A12B916F00C0F00D0013F302245E00E
S2140007D009906DE74FF006097FE7A94600247CE7FD
S2140007E00022DDE90C01384B10F020FA0028B4D1C5
S2140007F0B8F1000F02D018F0010FAED008F10108D2
S214000800ABE70A210EAB2344202C0ED0B8FBF1F048
S21400081001FB1082B8F1090F02F1300209F1FF392D
S21400082004F1010403F8012B11D83021A1440EAACB
S214000830202CAFD0A14504F101030AD11C4609F1D2
S21400084058030DEB03092E2309F8203CA2E7804647
S214000850DAE7A1541C46EBE71A550134A74205D93E
S214000860202CF9D1CDE902760194C1E6202CF9D0EE
S214000870099A3AB12D2104F158026A4402F8201C64
S2140008800134EFE7710704D504F158022B216A44BE
S214000890F4E73207E6D504F1580220216A44EDE772
S2140008A00000000065CDCD410000000065CDCDC143
S2140008B0BF690500C3690500FFFFEF7FB669050045
S2140008C0BB690500C86905000000E03F00000000A5
S2140008D008B50F2001F016F9174BB0FBF3F0174BD5
S2140008E0186018680FF0B6FE0FA3D3E900230FF0C8
S2140008F02BFF0FA3D3E900230FF070FD10F0E6F9ED
S2140009000F4B104A1860D2F8FC3043F08073C2F8E0
S214000910FC304FF060430C4AC3F8B02F0B4A136804
S21400092043F00103136008BDEC51B81E85EBE93FA8
S214000930F6285C8FC2F51C4040420F00449300200E
S2140009404093002000ED00E055CEACC5001000E05E
S214000950F0B5434E91B0336805460C460F9349F008
S214000960ABF9002872D01422002108A846F020FF18
S2140009704FF6FF7305F11802ADF822300DAB92E882
S21400098003008DF8214083E8030019F0FBFA0027E6
S2140009906863049002AA69460120CDE905770797A7
S2140009A0CDE90077CDE9027712F05EF90446B0B1E2
S2140009B02C4B0597069303238DF81C3004A908A832
S2140009C01CF09AFF10B9012385F83B302B6B0133DE
S2140009D02B630F9A33689A423BD040F007FC009B8B
S2140009E001990593C8031CA3D3E90023490C10F012
S2140009F08DF919A3D3E900230399ADF81800C803AD
S214000A00490C10F083F9029B00EBC333B3F5804F1B
S214000A1010D3154A934211D9144A934211D9144A55
S214000A200320934210D943F6FF73ADF81A308DF8C1
S214000A301C00C3E720462246D340F6E701200522E5
S214000A40FAE702200A22F7E70D22F5E76FF0270003
S214000A50BFE711B0F0BD00BF00CA9A3B000000001F
S214000A6054D000200000FF3FE0FF070000FCFF001E
S214000A7000E0FF0700000000002370B5404C05466C
S214000A808AB0E36318B1008823602CF0B7FA3D48BB
S214000A9054F075F93C4E3D4B304633603C4B73602A
S214000AA027F0B8FD0021304638F0AAFB32A3D3E980
S214000AB00023A062C4E906234FF0B8F9D4E9062360
S214000AC019431043C4E90601CDE900014FF0FF3396
S214000AD04FF0FF32A06A54F0DBF902224FF0FF31EC
S214000AE0A06A54F0EFF901202BF052FF4FF4007388
S214000AF000222849A06A54F0CCFAB0F5007F38D11D
S214000B0000239422CDE9073309933C23CDE9033231
S214000B1005939623A06A03A9069338F005FF35B31C
S214000B20287C2CF00BFB0546F0B9A06A54F02EFB8F
S214000B302CF0B2FA2BF00EFF20B14FF4807000219B
S214000B4029F0E0FE2BF016FF20B14FF400600021E4
S214000B5029F0D8FE4FF02DFA012053F036FF0E4A4A
S214000B600E49A06A4FF056F928460AB070BDFF201D
S214000B70D7E70725F8E700BF0DD501552000000090
S214000B8078450020690345EC04CA002015C8020019
S214000B9014CA002004C80020BDFD0400FDFD0400AA
S214000BA00348044B834202D0034B03B118477047F7
S214000BB0A83E0020A83E002000000000064B074983
S214000BC0C91A891048BF0131491003D0044B0BB134
S214000BD001481847704700BFA83E0020A83E0020E6
S214000BE00000000010B5064C237843B9FFF7D8FF85
S214000BF0044B13B10448AFF300800123237010BDEB
S214000C0030D1002000000000B800060008B5054BF3
S214000C101BB105490548AFF30080BDE80840FFF763
S214000C20CDBF00BF00000000B04A0020B80006009C
S214000C30A3F5803A704700BF174B002B08BF134B35
S214000C409D46FFF7F5FF00218B460F461348144AD2
S214000C50121A46F0ADFD0E4B002B00D098470D4BF8
S214000C60002B00D098470020002104000D000D48FE
S214000C70002802D00C48AFF3008010F01DFD2000C5
S214000C80290045F017FF10F0F7F900BF0000080034
S214000C90000000000000000000100020A83E002019
S214000CA0AC2E012000000000000000000346054AAC
S214000CB00549106803448B428CBF4FF0FF30136029
S214000CC0704700BF00100020008001200348044A3F
S214000CD00449121A921041F05EB800BF742F060045
S214000CE0742F0600AC2E012008B500F02FF8FFF791
S214000CF0EDFF124B12498B4212D30020114B1249C2
S214000D008B4218D3FFF798FF186850F822405868AF
S214000D1040F82240013298688242F5D30C33EAE765
S214000D200022F8E71C6844F8220001325C68A24200
S214000D30F8D30833E4E70022F8E700BFC000060057
S214000D40CC000600CC000600CC0006006FF00100C8
S214000D5010B5104B104A11499A60D3F8882042F417
S214000D607002C3F8882001F50052106641F2FF7049
S214000D7050660220C3F8D000BFF34F8FBFF36F8FCB
S214000D8008244FF440330648C0F88041D36004601E
S214000D900B6110BD00ED00E0000000000080004484
S214000DA000E100E0014B1868704700BF0810002003
S214000DB0014B1860704700BF08100020084B1B6FDF
S214000DC003F00703022B04D0032B05D0012B05D01C
S214000DD0FEE7044B18687047034BFBE70348704771
S214000DE0008000500810002010100020002D310157
S214000DF008B5FFF7E3FF054B1B6FC3F30133013361
S214000E00B0FBF3F0024B186008BD00BF0080005036
S214000E10041000200048704700B4C404014B186852
S214000E20704700BF10100020054B1860054B1B6F65
S214000E3003F00703032B01D1FFF7DABF704700BFAB
S214000E40101000200080005000487047002D31012F
S214000E50174B9868C0F304400C280AD8DFE800F067
S214000E600B0909090909072119091B1D1F0011484B
S214000E707047002070479B6803F04073B3F1807F93
S214000E8011D0B3F1007F10D00B4A002B08BF1046DC
S214000E9070470A4870470A4870470A4870470A4829
S214000EA070470A4870470A4870470A48704700BFAC
S214000EB00040015A405DC60000093D00C0EA21011D
S214000EC080BA8C010048E801005A62020024F4004F
S214000ED080841E0040420F00014B1868704700BF18
S214000EE00C10002008B5032101230422002001F085
S214000EF01BFA002041F01EF80122244B0C20C3F8F8
S214000F004424234AD2F8803043F00303C2F88030EA
S214000F1000F0F8FD1F4B00F5D520D3F8F02000F2C6
S214000F20FC4042F00102C3F8F020D3F8FC2042F067
S214000F308072C3F8FC20184AA3F55D431A60174B6D
S214000F400222B0FBF3F0164B01381861C3F8F0200C
S214000F504FF48072C3F804234FF06043114A002018
S214000F60C3F8B02F104AC3F8802ED3F8002E42F4F0
S214000F708072C3F8002EFF2283F82020D3F8002EBC
S214000F8022F48072C3F8002E08BD00BF00D00350C4
S214000F900080005000ED00E0FF030040F8590D000F
S214000FA0000004E055CEACC50900010010B50122D2
S214000FB043780178847830209A40054B00FB013353
S214000FC01CB942F210015A5010BD41F21001FAE766
S214000FD000C0035010B50122437801788478302091
S214000FE09A40054B00FB01331CB941F210015A50E0
S214000FF010BD42F21001FAE700C0035038B5124B9C
S21400100005461B78DBB1E0B140F07BFF0F4A0023BA
S2140010101146147B54B92B6001251A0101EB03130A
S2140010201D738C5040F071FF204638BD0133082BED
S21400103002F11002EDD140F068FF0548F5E70548DB
S214001040F3E70548F1E700BF31D10020C84B002088
S214001050048000F0028000F0018000F0154B13B50C
S2140010601868002301908DF8043040F04AFF124BB8
S2140010701C7824B140F049FF104802B010BD012290
S2140010801A7040F042FF0E4B01A81C731C7783F8C1
S2140010902C4083F83C4083F84C4083F85C4083F84F
S2140010A06C4083F87C4008238DF8073001F07CF90B
S2140010B02046E2E7A062050031D10020038000F060
S2140010C0C84B00202DE9F041174B1F6D5B6D1F408C
S2140010D000D5FEE701260025144CDFF8588037427D
S2140010E018D0C8F850602368A3B1A168284601311B
S2140010F06268A1609847637B012B0BD150B90C4BFB
S21400110003EB45131A7B60F341021A731A7F60F3F0
S21400111041021A770135082D4FEA460604F11004FD
S214001120DDD1BDE8F08100BF00000450C84B0020B0
S214001130C84A00200020045070B5044601250B4E16
S21400114004B970BD94FAA4F0B0FA80F005FA00F382
S21400115006EB001224EA03045368002BF0D0117B40
S21400116011B191689847EBE79847E9E7484C0020AB
S21400117008B5192001F03CF828B14FF00072074B73
S214001180C3F880211A601A2001F032F828B14FF017
S2140011908062024BC3F880211A6008BD00E100E0BF
S2140011A038B505460C4640F0ACFE0022044B03EB77
S2140011B005135C601A73BDE8384040F0A6BE00BF59
S2140011C0484C0020064BD3F82404D3F8202403F51B
S2140011D00053104000F05530C3F82004FFF7ACBFB2
S2140011E000C00350064BD3F82404D3F8202403F59C
S2140011F00053104000F0AA30C3F82004FFF79CBF4D
S21400120000C00350024B1968024B186837F0EEB95D
S214001210141000203410002070B5940022460546B5
S2140012200E4655F01DF8431C0AD058B922463146E2
S214001230284646F093FA0028034808BF002070BDF1
S2140012400248FCE70248FAE710E000F021E000F070
S21400125024E000F010B5044654F0FEFF431C10D006
S21400126088B901F0B7F9234620F0030020449842DD
S21400127001D1002010BD53F8042B0132F7D00348EB
S214001280F8E70348F6E70348F4E700BF0EE000F08F
S21400129021E000F024E000F008B540F027FE014B06
S2140012A0186008BD38550020014B186840F022BE73
S2140012B0385500202DE9F0430446954F89B001AE1D
S2140012C00D460FCF0FC697E8070086E80700002CEC
S2140012D000F01B811DB98F4809B0BDE8F0830026D9
S2140012E07C220021204646F063FA26652B688A4A4F
S2140012F0934200F0BD8002F58042934200F0BD802C
S21400130002F580429342E6D123214FF4C023022601
S214001310824AC4E90B2384F84D102B68AC46236040
S2140013200023271D84F85430BCE80F000FC79CE844
S2140013300F0087E80F006B7E012B08BF8DF8123078
S214001340AB7E4BB1012B00F09E80022B00F09E80FE
S214001350032BC0D14FF44073ADF814302B7E012B15
S21400136003BF00238DF811304FF4E133EB6803938D
S2140013702B691A1F0C2AAED8033B286801A98DF8E2
S214001380103040F055FEAB6923F47F0323F47F430F
S21400139023B92268936843F480339360604AE97EF9
S2140013A0730113442E36002973D11D21C3F8AC15E2
S2140013B0287A297902EB461641EA00417160697A7B
S2140013C06A7942EA0142C3F8BC25A97AAA7942EAB8
S2140013D00142C3F8C025E97AEA7942EA0142C3F835
S2140013E0B025E37BE27A277F207A94F80980A57AF5
S2140013F0217B94F80D90A67B84F8442084F8453031
S214001400002F5DD13B46042200F08EFF3B460122B2
S2140014104946404600F088FFA37F0422012B94BF74
S2140014203B4601233146284600F07EFFE37F3BB96A
S2140014300123042294F8451094F8440000F074FF49
S21400144040F05FFD374B1A78002A53D101221A70FC
S21400145040F05BFD05F016FEFFF700FE002104F1EC
S2140014602400FFF7CBFD0146002846D02E4833E780
S21400147021214FF480232D4A4BE722214FF4A0234D
S21400148001262B4A45E74FF4007365E74FF4807357
S21400149062E71C21C3F8AC15287A297902EB4612BC
S2140014A041EA00415160697A6A7942EA0142C3F82A
S2140014B0BC25A97AAA7942EA0142C3F8C02590E77A
S2140014C00023012200F030FF002304224946404654
S2140014D000F02AFFA37F0222012B94BF00230123E2
S2140014E03146284600F020FFE37F002BA8D10123D9
S2140014F002229FE740F009FDAEE704F12800FFF75F
S2140015007DFD00283FF4E8AEB0E70A48E4E600BFF9
S214001510C8620500022000F00080055002000600A8
S21400152000C0035032D10020092000F00200040061
S21400153002000500012000F000210846F0B52F4CFF
S2140015402F4A2368156845B11D68002D4BD09D882D
S2140015509688AE4284BF134601210130052802F169
S2140015600802EFD101B1236000210D462548264A26
S2140015700368166846B11E68002E37D09E88978886
S214001580B7423CBF134601210135052D02F1080282
S214001590EFD101B1036023681A6852B31B499C88D7
S2140015A08A6F1B4B22F0FF7203EA044322F4803258
S2140015B013438B674FF050234FF000429A66036840
S2140015C01A68C2B111499B888A6FC3F3080322F4D4
S2140015D0FF7222F0010213438B674FF050234FF047
S2140015E080429A66F0BD13460121B6E713460121F4
S2140015F0CAE7084BE0E7074BF1E700BF405500207D
S2140016006C5500203C5500204455002000400050FA
S2140016100000FF010060005008B500F02DFEDFED71
S214001620117AB4EEE70AF1EE10FA17D4DFED0E7A6F
S214001630B4EE670AF1EE10FA37FE800AF6EE007A8C
S21400164030EE270ADFED097A30EE270ABDEEC00A33
S21400165010EE103AA3F1800040B208BDB0EE670A63
S214001660ECE700BF000000C30000FE42000000439D
S21400167010B5164A936E526E134013F0804113D085
S214001680134B186804683CB10021082246F090F815
S214001690FFF7C2FF0021A0474FF080420D4B5A666D
S2140016A0BDE81040FFF748BF002BF9DA0A4B186870
S2140016B0046834B1082246F07BF8FFF7ADFF01213D
S2140016C0A0474FF00042034BE9E700BF0040005040
S2140016D03C550020006000504055002041F6713314
S2140016E030B5124A124DD469D3639368A84204F405
S2140016F0803423F4401306D893600E4AD2F818328A
S21400170023F002030AE043F4801393600A4B9842E6
S214001710F3D9084AD2F8183243F00203C2F8183256
S21400172014B10022014BDA6330BD00BF0000035045
S214001730005A620200C0075080F0FA022E4B984210
S2140017404AD022D82D4B984240D014D82C4B9842E1
S21400175039D00AD82B4B984232D02B4B98422FD0F8
S2140017602A4B98422CD000207047294B9842FAD139
S214001770284B186F7047284B98422AD0274B984220
S214001780F1D1244BD3F880007047254B98422BD0DC
S21400179009D8244B984223D0234B9842E3D11D4BC3
S2140017A0D3F88C007047214B984221D003F5740380
S2140017B003F510539842D6D1164BD3F898007047CD
S2140017C0144B986D7047134B586E7047114B586FFB
S2140017D07047104B986F70470E4BD3F884007047D5
S2140017E00C4BD3F8880070470A4BD3F8900070472C
S2140017F0084BD3F8940070470048E8010024F40032
S214001800C0CF6A0080841E0000093D0040420F00E1
S214001810405DC6000080E00FC0EA210180BA8C015E
S214001820007E560380D54302006CDC020090D00395
S21400183038B5134B0546D3F820010C4600F00700D8
S21400184004281AD8DFE800F003090D11150001235B
S21400185005B1286004B1236038BDFFF7A3FA04235E
S214001860F6E7FFF7DBFA0323F2E7FFF7F1FA0523C3
S214001870EEE7FFF7E9FA0223EAE700231846E7E770
S2140018800080005037B50C460021114B0191D3F86B
S2140018908031054603F00303022B0ED0032B11D034
S2140018A0012B03D101A8FFF7C3FF0D210DB1019B4A
S2140018B02B6004B1216003B030BDFFF7C9FA0521E3
S2140018C00190F3E7FFF7C0FA02210190EEE700BFB0
S2140018D00080005038B5104B0546D3F840310C4612
S2140018E003F00303022B0BD0032B0DD0012B0FD1DB
S2140018F040F05EFA082305B1286004B1236038BDC5
S214001900FFF7EAFA0723F6E740F055FA0923F2E76D
S21400191001230020EFE700BF0080005038B5104BD1
S2140019200546D3F860310C4603F00303022B0BD0B8
S214001930032B0DD0012B0FD140F03AFA082305B146
S214001940286004B1236038BDFFF7C6FA0723F6E720
S21400195040F031FA0923F2E701230020EFE700BF49
S2140019600080005038B5144B0546D3F800020C46EC
S21400197000F0070004281BD8DFE800F003090D116B
S2140019801500012305B1286004B1236038BD40F07E
S2140019900FFA0823F6E7FFF79FFA0723F2E740F06F
S2140019A00AFA0923EEE7FFF723FA0C23800AE9E791
S2140019B000231846E6E700BF0080005038B5144BF9
S2140019C00546D3F808020C4600F0070004281BD88A
S2140019D0DFE800F003090D111500012305B12860AA
S2140019E004B1236038BD40F0E3F90823F6E7FFF7BB
S2140019F073FA0723F2E740F0DEF90923EEE7FFF774
S214001A00F7F90C23800AE9E700231846E6E700BF4B
S214001A100080005038B5104B0546D3F840320C46CF
S214001A2003F00303022B0BD0032B0DD0012B0FD199
S214001A3040F0BEF9082305B1286004B1236038BD24
S214001A40FFF74AFA0723F6E740F0B5F90923F2E76D
S214001A5000231846EFE700BF0080005038B5104B53
S214001A600546D3F800310C4603F00303022B0BD0D7
S214001A70032B0DD0012B0FD1FFF7D0F9032305B1AF
S214001A80286004B1236038BDFFF726FA0723F6E77F
S214001A9040F08CF90623F2E701230020EFE700BFB1
S214001AA00080005038B50C46054640F01FFA054B3E
S214001AB09A6A54402C4054409C62BDE8384040F03E
S214001AC019BA00BF00C00050032814D005D801285A
S214001AD005D0022809D0002005E00F28FBD1084BCE
S214001AE0186FC0F3013001307047054BD3F89000F3
S214001AF0C0F30460F7E7024B186FC0F38020F2E7EC
S214001B00008000501FB500230193252817D8DFE872
S214001B1000F0131A1D272C363B51565B60656A7819
S214001B20161A401616561A272C27361A5127783BAF
S214001B303B3B3B2727275B60FFF740F90190019866
S214001B4005B05DF804FBFFF753F9F7E7FFF736F942
S214001B5002460220FFF7B8FFB2FBF0F20192EEE772
S214001B60FFF746F902460320F4E7FFF741F902467D
S214001B700320FFF7A9FFB2FBF0F25208EEE70021C0
S214001B8001A8FFF77FFEDAE7002101A8FFF750FE65
S214001B90D5E702934FF0E0231B695B0705D5FFF7F7
S214001BA027F90290029B0193C9E703A902A8FFF751
S214001BB091FEF7E7002101A8FFF78CFEBFE70021A2
S214001BC001A8FFF7ABFEBAE7002101A8FFF7CAFE9F
S214001BD0B5E7002101A8FFF7F1FEB0E7002101A854
S214001BE0FFF73CFFABE7094BD3F8803003F0030365
S214001BF0022BA8D0032B01D000209FE7FFF728F97F
S214001C009CE7002101A8FFF705FF98E70080005039
S214001C1008B50120FFF776FFBDE808400349884273
S214001C2094BF01210221032000F002B880F0FA02DE
S214001C30032810B50C4627D004D8012804D0022863
S214001C4017D010BD0F28FCD140F033F940F039F919
S214001C50124A013C136F23F4405343EA04331367DC
S214001C60FFF7C6F80021FFF739FDBDE81040FFF783
S214001C70CFBF0A4A4C1ED2F8903023F0F85343EAFE
S214001C800463C2F89030DCE7044A4C1E136F23F45A
S214001C90806343EA84231367D3E700BF00800050C5
S214001CA01FB500230193252821D8DFE800F0132074
S214001CB02020202A2F454A4F54595E712020342078
S214001CC0204A202020202A204520712F2F2F2F2029
S214001CD020204F54314B1B6F03F00703013B032BAF
S214001CE005D8DFE803F00C02080A042301930198E4
S214001CF005B05DF804FB0323F8E70623F6E70223A6
S214001D00F4E7002001A9FFF7BDFDF0E7002001A9D8
S214001D10FFF78EFDEBE702934FF0E0231B695B07AE
S214001D2005D5FFF765F80B230393039BDEE703A9AE
S214001D3002A8FFF7CFFDF8E7002001A9FFF7CAFDCC
S214001D40D5E7002001A9FFF7E9FDD0E7002001A9AB
S214001D50FFF708FECBE7002001A9FFF72FFEC6E736
S214001D60002001A9FFF77AFEC1E70C4BD3F88030BC
S214001D7003F00303022B03D0032B05D00023B5E7A3
S214001D80FFF736F80B23B1E7FFF762F80523ADE758
S214001D90002001A9FFF73EFEA9E700BF0080005023
S214001DA008B5FFF77DFF07280ABF024B4FF6FF7006
S214001DB0188808BDDA17002001212DE9F0410646F3
S214001DC05C4B5D4A5C6851609D6915F00305FBD16C
S214001DD05A4A2B46114630681768B84202D35768ED
S214001DE0B84205D90133192B02F11002F4D10023B1
S214001DF001EB0313D3E9028028B1FFF79FFC00F044
S214001E007F0048EA00080020FFF74AFF042807463C
S214001E106CD140F04EF840F054F80120FFF754FE25
S214001E20012805465DD10221FFF702FF0127444B3A
S214001E30DA6812F0060FFBD19968C3F808809A6832
S214001E4082EA080212F4F81F64D1B288F38843EAE3
S214001E500243384AD360B368032B49D1A2F5A032B7
S214001E60D2F8003123F0030343F00103C2F8003137
S214001E70337D727D9B0043EA821332691343327BC3
S214001E8043EA42032B4A93603068FEF791FF002630
S214001E900722294B1A610122A3F580535A60A3F545
S214001EA080531C6914F00704FBD00020FFF7F8FEEF
S214001EB0042811D11FB129460120FFF7B9FEFEF70D
S214001EC097FF0546FEF76EFFFEF76CFF00212846DB
S214001ED0FFF704FCFFF79CFE3EBB631E58425841CA
S214001EE024E0022802D1394601209DE700279EE71C
S214001EF0072B07D1134AD2F8003123F0030343F02F
S214001F000203B3E7062BB3D10E4AD2F8003143F0F2
S214001F100303ABE714F00104996001D00126B7E78C
S214001F202046FFF7BDFE042802D00020BDE8F08161
S214001F300126BFE700C0015000E00150E462050042
S214001F40000001500080005010B504460020FFF746
S214001F50A7FE03287AD045F60E030221434AC2F8AC
S214001F608030434B9962012103F580539962936D4B
S214001F70D903FCD4D4E900131B0543EA0163E17BD3
S214001F800B43217B43EA0143617B43EA0133A17B98
S214001F9043EA811313619169D4E904031B0643EAFB
S214001FA0806301F000410B43A17E0B43217E43EA90
S214001FB00143617E43EA01239361136AE16923F0DA
S214001FC00D030B43003918BF0121E07E43EA80036E
S214001FD043EAC1031362E36994F82000002B36D16C
S214001FE094F82130916A1B0121F0330143EA401333
S214001FF00B4343F0010393621E491C4A936D31EA7A
S2140020000303FBD102211A4B9962936D5B00FCD44B
S2140020101369A16823F4700343EA015313614FF078
S2140020200042134B9A6194F8223013B90222124BE5
S2140020309A6294F8233013B901220F4B9A6294F8EF
S21400204024301BB1094B0D4AC3F8802010BD936A9B
S21400205094F8231023F033030B4394F8221043EA3A
S214002060401343EA41039362E9E700BF00C0005013
S21400207000D000500300014000E00050F1A7FFFF31
S21400208070B5184CFF28A66A2AD8A36D13F4803FB3
S21400209018BF0122144B18BF9A6202229A62A56DDD
S2140020A015F08045FBD1114AA36992F9002023F46C
S2140020B07F03024423F47F4382F3080243EA0023AB
S2140020C043EA0243A36131460220FFF7EBFCA36D0F
S2140020D0DB0303D531460120FFF7E4FC284670BD3C
S2140020E02125FBE700C0005000D0005033D100206F
S2140020F0014B93F90000704733D1002001231248AA
S214002100124A816A9362836D03F00303032BFAD1AC
S214002110022393620C4A936D5800FCD40C48936DCE
S21400212030EA0303FBD10122084B1A65A3F580535E
S2140021309A6D9207FCD49A6D9007FCD59A6D92071B
S214002140FCD50320FFF7AEBC00C0005000D0005006
S214002150030001004FF4D15110B50224174A43780A
S214002160516217494F2B4C604FF0010428BF4F2394
S21400217001F580514C601169C903FCD4017843EA2B
S21400218001235361D0E901131B0143EA0123417B7C
S2140021900B43017B43EA41039360C37B817B1B01B6
S2140021A043EA4113417C0B43017C43EA41035360FD
S2140021B0837C13B16FF4D153536210BD00000250FC
S2140021C000100250014B1880704700BFDA1700203D
S2140021D0014B1880704700BFD8170020034B586883
S2140021E0C0F30800003818BF0120704700ED00E07B
S2140021F0054B420953F8223000F01F0023FA00F086
S214002200C04300F00100704700E100E010B50A4A44
S2140022100446136943F00403136104F04FFD3FF0D6
S21400222076FE30BF3FF074FE04F06AFD1CB9BDE8D0
S2140022301040FEF7DDBD10BD00ED00E010B5084A09
S2140022400446136943F00403136104F037FD30BFFE
S21400225004F056FD1CB9BDE81040FEF7C9BD10BD20
S21400226000ED00E0034A0179D36E23F030030B4300
S214002270D366704700400050064BDFED077AD3F870
S2140022808830C3F30A0300EE103ABAEECF0A30EEF7
S214002290670A70470040005033938843072A2DE9A9
S2140022A0F0410D46144698460FD803269700BE40C8
S2140022B000FA07F2314615483FF02DFE05F00302FE
S2140022C031461348BA403FF026FE124B12499DF89D
S2140022D01800B8F1000F18BF1946012303FA04F4DA
S2140022E00C600E4B0E49002818BF0B461C600D4BA9
S2140022F01031C3F820449DF81C0003F22443002844
S21400230018BF0B461C60BDE8F08100BF00C4035038
S21400231008C4035010D4035010E4035014E40350D0
S21400232014D4035000E00350F8B504460D461F468B
S21400233016464AB101238B403021184A01FB002281
S214002340F7B141F21001535004EB4403072D4FF050
S2140023500F014FEA031316D8A80006FA00F28140D0
S2140023600F4818443FF0D7FD4EB9012330210B4AE1
S214002370AB4001FB042277B141F210015350F8BD87
S21400238042F21001DFE7A5F10800800006FA00F22D
S21400239081400448E5E742F21001EFE700C0035031
S2140023A004C003500CC003500122114B5A6002783F
S2140023B012069A604178827842EA01429A61FF22C8
S2140023C09A6200229A631A644FF000425A654FF0F0
S2140023D0FF324FF4001103F500531A65054AC2F8A0
S2140023E08011C3781B01DBB282F815331160704789
S2140023F00000045000E100E041F67132034BDA635E
S214002400012203F50053DA60704700BF0000035056
S21400241041F671320121044BDA6303F50052D160B4
S2140024200022DA63704700BF0000035001382528F9
S2140024309ABF024B185C0020704700BF746405000A
S214002440021E30B54FF000000CBF0C25042547F6E1
S2140024500774084952B9831D51F82330234023B12D
S21400246001308542F6D14FF0FF3030BD00F1120347
S214002470F2E700BF0080035038B5C2F306250446D5
S21400248002F0070241B942EA052242F4402206342D
S214002490074B43F8242038BD114628463FF04BFD35
S2140024A002462846FFF7C2FF123442EA0022EFE750
S2140024B000800350CB784A785B0143EA82030A78AF
S2140024C013430A7943EA02130C22424302F1B04254
S2140024D013630B78012B02BF8A78024B43F8202047
S2140024E0704700BFD080035008B54FF0B0435A681D
S2140024F06AB958B15B680BB13FF046FD01210D4B40
S21400250059603FF041FD4FF0B043D96008BD5B68AD
S2140025100BB13FF039FD0028F0D13FF035FD4FF00C
S214002520B0430222DA603FF02FFD0122024B5A60D0
S214002530ECE700BF00100058002000584FF0B041F4
S21400254010B54B680BB13FF01FFD01220B4B5A60D4
S2140025508378C478934043EA840344782343047919
S21400256043EA0413447943EAC4038B60044B5A607D
S2140025700378C3F10203CB6010BD00BF00200058F3
S21400258000100058054B5B69C3F38512827003F098
S2140025903F021B0B42700370704700BF00C007501D
S2140025A040F6B732064B5B689BB293429FBF4FF430
S2140025B07A72B3FBF2F3034AD05C88BF0020704700
S2140025C00080E00F9A640500014B986CD96C704748
S2140025D00080E00F0120034B9B680A3303F01F03C3
S2140025E0984070470080E00F0D4B984208D1A3F545
S2140025F00033C3F88411C36D43F08003C36570478E
S214002600084B984204D1A3F51033C3F89411F2E7AF
S214002610054B984204BFA3F52033C3F8A411EAE79C
S2140026200080055000C0055000000650012200F54D
S21400263080535A6040F6AA6341F2050243610023C4
S2140026400D498360C365C26000F500520361C36133
S214002650C364916409498365884203D103650023F6
S214002660436506E006498842F8D001F58041884275
S214002670F4D0012353607047FFFF0100008005502F
S21400268000C0055038B50446054D52F0B6FC0FCCD8
S2140026900FC594E80F0085E80F00002038BD00BF86
S2140026A09455002047F6FF739A42F0B572D002297F
S2140026B072D83A4B5B5C022B6ED8394DDF0005EBC7
S2140026C0C304A17815F83330012938BF0121012B46
S2140026D013D10025E078401AA84202D80844C0B2B8
S2140026E0F0BD431B6668A0EB530336F913609642B1
S2140026F0D4BF1D4603F1FF30EEE760680028EFD038
S214002700B0F90040944204DBB0F902409442B8BFEE
S214002710144683883D44FF2B19BFC8224FF0280C6F
S214002720B0F90620B0F908C0A2EB04030CBF0126DE
S214002730002693FBFCF333446E781BB29E4201DD09
S214002740002B01DA731E1BB24FF47A7C01339BB266
S214002750071D5D1E2DB24FEAC50E00EBC505EA88C3
S214002760AD689E4214FB025222EAE27202F15C025B
S214002770B2FBFCF204DD37F8335001339542E8D261
S21400278000EB0E039888904228BF1046884238BF58
S2140027900846A4E7FF20A3E70020A1E79D64050004
S2140027A0945500200229F0B560D8314B595C0229B7
S2140027B05CD8304B13F83100012816D103EBC10367
S2140027C09C78D878012C214638BF0121904294BFCE
S2140027D0C1EB0001C1EB0201001BCAB28242C8BFB6
S2140027E000225B6833F91200F0BD002A3CD003EBF0
S2140027F0C1035968002939D09878904202D3B1F9BC
S2140028000200F1E7DC78B1F900009442ECD95C787C
S2140028108B88013CA3F1FF06734201F10405E4B284
S214002820734101F10C07DEB2B44216D805EBC303C0
S2140028304FF47A756A43B3F902405B68D21A04EB28
S214002840D47302EB630292FBF4F29042CCDBB1F954
S21400285002009042C8DC10B2C6E737F833C05E1CF0
S2140028609445E3D33346DEE70348BDE70348BBE7BA
S2140028709D640500945500200CFEFFFF0080FFFFBE
S21400288008B50448FFF7FEFEBDE80840012052F0F8
S214002890C6BB00BFA064050000487047DC170020D8
S2140028A0F8B505F0D3F80128064623D905F002F955
S2140028B0041E02DA01252846F8BD224B1B78002BA1
S2140028C03DD15027204D10220021284644F070FFAD
S2140028D005F110032846AB60EF6005F0B5F92866F1
S2140028E080B90125012EE6D9204605F005F9002815
S2140028F0E1DADFE7134B1B7803F0FF04002BE0D090
S2140029000025D8E7114D10220021284644F050FF3C
S21400291005F110032A4600210120C5E9023705F01B
S2140029205DFA28660028DCD03022094B83F80123A4
S21400293002221A600122034B00251A70D2E70025F6
S214002940D2E700BF34D1002018560020B45500202E
S21400295000E100E008B505F079F8022809D1064B39
S2140029604FF0FF31186E05F0B9F9003818BF012096
S21400297008BD0020F9E700BF1856002008B505F08E
S21400298065F8022807D1054B186E05F0D7F9003810
S21400299018BF012008BD0020F9E700BF1856002028
S2140029A008B54FF098435B6CD90208D505F04EF891
S2140029B00238012803D8094B186E05F09DFA4FF02F
S2140029C098435A6CD202FCD55B6D054A03F470231B
S2140029D013600222034BC3F8802108BDB4550020C3
S2140029E03810002000E100E010B5044600283BD077
S2140029F0FFF7B0FF002838D120463FF0EAFA94F8F7
S214002A00203043B94FF098435A6CD202FCD55C6D27
S214002A1004F4702412E04FF09844A36D43F00203D0
S214002A20A36505F013F8022810D0A36D23F0020367
S214002A30A3654FF4A0220D4B1C681A60FFF79EFF9B
S214002A409CB12046BDE810403FF04FBB084B4FF00E
S214002A50FF31186E05F01AFAA36D23F00203A36582
S214002A600028E6D0012000E0212010BD381000200C
S214002A70B45500202DE9F0418CB08846DDE9127689
S214002A801D460446002847D0002945D0002F43D0D5
S214002A90002E41D013F00F033ED120482049A360FA
S214002AA0002A08BF0146E361C4E90013404609A9AD
S214002AB03FF0ACFC68BB204609993FF081FA2946F6
S214002AC020463FF07DFA6946404601F0E1F800BB3B
S214002AD0694620463FF060FA404603A93FF095FD60
S214002AE0B8B9204603A93FF057FA069701272046B3
S214002AF045F0005506A9079708953FF04DFA204681
S214002B0009A909960A970B953FF050FA2046FFF759
S214002B106BFF0CB0BDE8F0812120FAE7000100044D
S214002B20000101042DE9F04F97B0894690461F46F4
S214002B300546DDF880A0002800F0BB80002900F0E4
S214002B40B8803AB1229B002B00F0B380239B002B69
S214002B5000F0AF80BAF1000F00F0AB80219B002B95
S214002B6000F0A78067B13C680026229B434402938E
S214002B70464507D307B13C60002017B0BDE8F08F8C
S214002B803C46F1E75CB1229B219A9B5D125D0134C5
S214002B905340239A04F00F0493550136E8E7A8EB58
S214002BA0060BBBF10F0F58D9434B4846C5E9003416
S214002BB0AC60EC6113A93FF029FC0028DDD1284663
S214002BC013992BF00F0B3FF0FBF9594628463FF0C0
S214002BD0F7F9484604A901F05BF80028CDD128464D
S214002BE004A93FF0D9F9484607A93FF00EFD002892
S214002BF0C3D1284607A93FF0CFF9012322992F4ACF
S214002C00CDF828A00B930C928A190D9228464BF00B
S214002C1000520AA90E9303920F923FF0BDF9284680
S214002C200DA93FF0B9F9239B039A99190123109136
S214002C3011931292214A284610A9CDF84CA014935D
S214002C4015923FF0B3F9284613A93FF0AFF928468E
S214002C50FFF7CAFE5E4400288FD1229B03EB060BCB
S214002C60239B1E44029B5B4501D1464680E7ACB9D8
S214002C70219B2246CDE900A3494610232846FFF7AC
S214002C80F9FE00287FF479AF0AF1100212F8013D30
S214002C900133DBB213700BB95245F7D1219A1BF8FA
S214002CA0013B125D0134534006F8013B04F00F046B
S214002CB0D8E7212061E700BF0303000410000020CE
S214002CC02DE9F04F97B0894615469A460446209F50
S214002CD0DDF88880DDF890B0269E002800F09D8004
S214002CE0002900F09A80002E40F08A80002B00F029
S214002CF09480B8F1000F0AD0219B002B00F08D8045
S214002D00002A40F09F80F10700F1878002E0002A49
S214002D1040F08580FB1F062B7FD8524B0BEB05023D
S214002D209A427AD20023504A4846C4E90023A36058
S214002D30E36113A93FF06AFB00285ED12046139991
S214002D403FF03EF9204646EA07413FF039F9414652
S214002D5020463FF035F9294620463FF031F94846EF
S214002D6001A900F095FF002847D1204601A93FF0B1
S214002D7013F9484604A93FF048FC00283DD14FF01F
S214002D800109204604A93FF007F9239B45F00055AA
S214002D900793219BCDF82090204609950DA90A930C
S214002DA047F0005748F00053CDF82C900C93CDF820
S214002DB034A0CDF838900F973FF0EEF820460AA9D9
S214002DC03FF0EAF8204607A93FF0E6F8259B2046A4
S214002DD010A946F00056CDF840B0CDF844901295B4
S214002DE01393CDF8509015963FF0E0F8204613A9BF
S214002DF03FF0DCF82046FFF7F7FD17B0BDE8F08F90
S214002E00259B53B1BAF1000F07D0B8F1000F01D0DF
S214002E10219B13B1B5B9022E20D12120EDE7239BCB
S214002E20002BFAD0BBF1000FF7D0C7F10F03DBB2CF
S214002E30032B3FF668AF0122DB0002FA03F3AB4236
S214002E40EBD9E8E7239B002BE7D0BBF1000FE4D0DB
S214002E50C7F10F03DBB2032BDDD8ECE7102E7FF6AD
S214002E6052AFDAE700800120000005042DE9F04F9C
S214002E7099B0884615469B460446229FDDF89890F2
S214002E80289E60B159B1279B4BB1BBF1000F06D00D
S214002E90249B0BB1239B13B11DB9022E13D1212302
S214002EA09AE0259B002BFAD0B9F1000FF7D0C7F1B6
S214002EB00F03DBB2032BF0D80122DB0002FA03F388
S214002EC0AB42ECD9E9E7731E0F2BE8D816F0010ADF
S214002ED0E5D1FB1F062BE2D8414B09EB05029A42CF
S214002EE0DDD2404B4046C4E9003AC4F808A0C4F816
S214002EF01CA015A93FF08AFA034600286CD120468C
S214002F0015993FF05DF8204646EA07413FF058F82D
S214002F10204624993FF054F8294620463FF050F8C2
S214002F20404603A900F0B4FE0346002854D12046CC
S214002F3003A93FF031F8404606A93FF066FB03467A
S214002F40002849D14FF00108204606A93FF024F892
S214002F50259B2046099345F00053CDF82880019321
S214002F600B93239B0FA90C93249B47F0005743F029
S214002F700052CDF834800E92CDF83CB0CDF84080AB
S214002F8011973FF009F820460CA93FF005F82046B7
S214002F9009A93FF001F8019B204612A9CDF84890F8
S214002FA0CDF84C8014933FF001F8279B204615A9D6
S214002FB046F000561593CDF8588017963EF0ECFF75
S214002FC02046FFF711FD034630B101902A465146D0
S214002FD0484644F0EDFB019B184619B0BDE8F08F5B
S214002FE000800120000006042DE9F0418CB08846E0
S214002FF016461D460446129F00284BD0002949D08D
S214003000002A47D0002F45D00B68103B102B41D824
S214003010214A22FA03F3D9073CD500231F4A8360CE
S214003020C0E90023C36109A940463FF0EFF970BB31
S214003030204609993EF0C4FF294620463EF0C0FFD0
S2140030406946404600F024FE08BB694620463EF02E
S214003050A3FF404603A93FF0D8FAC0B9204603A90B
S2140030603EF09AFF06960126204606A945F0005532
S214003070079608953EF090FF094B204609A9099748
S2140030800A960B933EF092FF2046FFF7ADFC0CB07D
S214003090BDE8F0812120FAE70101010000000404E8
S2140030A010000020F0B50C4617461E46054695B0A3
S2140030B0002874D0002972D0002A70D0002B6ED061
S2140030C0036B0F2B5BD80023364A3846C4E900232F
S2140030D0A360E36111A93FF099F900285BD120466F
S2140030E011993EF06DFF296B20460F2984BF01F031
S2140030F00F0110313EF064FF384602A900F0C8FD0B
S214003100002848D1204602A93EF046FF384605A9C9
S2140031103FF07BFA00283ED1204605A93EF03CFF52
S2140031200122214B089509920A932B6B05F110009A
S21400313003F00F0141F000510B900F2B0C920D91F4
S2140031400E900F9243F00052109226D90A9B08A9BF
S21400315023F0005320460A933EF01EFF0BA920469C
S2140031603EF01AFF0123119612930F4B204611A929
S21400317013933EF01BFF2046FFF736FC0BE000F1F2
S2140031802003019000930122102339462046FFF7C2
S21400319071FC002897D015B0F0BD0EA9DFE72120FE
S2140031A0F9E700BF00000404100000202DE9F04FEE
S2140031B09BB00C4690461F460546DDF890900028CA
S2140031C000F0B280002900F0AF80002A00F0AC804A
S2140031D0002B00F0A980026B02EB09031B09B3EB7E
S2140031E0121F02F00F0600F0978000234F4A8B60F4
S2140031F0C1E90023CB61404617A93FF007F9034613
S214003200002840F0858006EB090B204617992BF026
S2140032100F0A3EF0D5FE514620463EF0D1FE40460F
S21400322002A900F035FD0346002871D1204602A908
S2140032303EF0B2FE404605A93FF0E7F903460028F7
S21400324066D14FF00108019005A920463EF0A4FE85
S214003250374A204608A90895CDF824800A923EF001
S2140032609BFE46F00051AAEB060605F1100346F059
S21400327000560B93CDF830800D910E97CDF83C801C
S21400328010960D99204621F000510D910BA9009340
S2140032903EF082FE20460EA93EF07EFE019B244AAA
S2140032A01193AAF1100343F00053CDF8488013930E
S2140032B005F120031493CDF854801692139B2046F4
S2140032C043F080431393139B11A923F000531393E9
S2140032D03EF06CFE204614A93EF068FE144A17A97C
S2140032E020461795CDF8608019923EF05FFE204686
S2140032F0FFF77AFBAAEB0B0149440190ABEB0A02FD
S2140033000098394444F05FFA019B2A6B4A442A63CA
S21400331018461BB0BDE8F08F10304A463946304498
S21400332044F051FA0023F0E72123F1E703020004FA
S214003330100000202DE9F0438DB08946DDE91468C1
S2140033401F460446002850D000294ED0002B4CD0F3
S214003350B8F1000F49D0531EDBB2042B45D82449E0
S214003360CD5C169B9D4240D8224B09A903EB022355
S21400337003600023C0E90133C36148463FF046F8C6
S21400338080BB204609993EF01BFE314620463EF0A3
S21400339017FE6946484600F07BFC18BB6946204687
S2140033A03EF0FAFD484603A93FF02FF9D0B9204673
S2140033B003A93EF0F1FD06970127204606A946F030
S2140033C00056079745F0005508963EF0E5FD204666
S2140033D009A9CDF824800A970B953EF0E7FD204614
S2140033E0FFF702FB0DB0BDE8F0832120FAE700BF2F
S2140033F08C650500000102032DE9F04F9BB00D46D9
S214003400DDE9296A90461F460446DDF89C900028B0
S21400341000F02481002900F02181249B002B00F07D
S2140034201D812B9B002B00F01981B9F1000F03D0F2
S214003430269B002B00F0128137B1289B002B00F052
S2140034400D81002E00F00A81AAF104030C2B00F275
S2140034500581259B0C2B40F001812B68103B102B1F
S21400346000F2FC807F4A22FA03F3D90740F1F68087
S214003470B8F1010F7CD17C4B284643EA0A2323602F
S214003480002316A9C4E90133E3613EF0BFFF83467B
S214003490002840F0DF80204616993EF091FD494610
S2140034A020463EF08DFD394620463EF089FD2846F2
S2140034B004A900F0EDFB8346002840F0CB802046B0
S2140034C004A93EF069FD284607A93FF09EF883460A
S2140034D0002840F0BF80204607A93EF05DFD249BF3
S2140034E020460A93614B0AA9CDF82C800C933EF037
S2140034F053FD269B20460D930DA949F00053CDF8A9
S21400350038800F933EF048FD289B204647F0005B2E
S21400351010A91093CDF84480CDF848B03EF03CFD9D
S2140035202B9B2046139313A94AF00053CDF85080E6
S21400353015933EF031FD1696CDF85C80CDF860B060
S2140035401EB9189B43F080431893204616A93EF0F8
S2140035502DFD2046FFF748FA834638B12C2805D0C3
S2140035603A460021304644F023F973E028960026B8
S21400357000233F4A0DF1580841462846C4E9002377
S214003580A360E3613EF042FF8346002862D12046F6
S21400359016993EF015FD494620463EF011FD394687
S2140035A020463EF00DFD284601A900F071FB83463B
S2140035B000284FD1204601A93EF0EEFC284604A97B
S2140035C03FF023F88346002844D10125204604A96D
S2140035D03EF0E2FC249B20460793244B07A908955F
S2140035E009933EF0D9FC269B20460A930AA949F087
S2140035F000530B950C933EF0CFFC289B47F00059E8
S21400360020460DA90D930E95CDF83C903EF0C4FCD7
S21400361010961195CDF848901EB9129B43F0804342
S2140036201293204610A93EF0C1FC0123CDF84C8031
S2140036301493104B204613A915933EF0B7FC204672
S214003640FFF7D2F9834600288AD1524641462B9886
S21400365044F0B9F858461BB0BDE8F08F4FF0210B88
S214003660F8E700BF01010100000003040C00002081
S21400367000000204100000202DE9F04F97B00D4620
S214003680DDE9249716469A460446DDF88880002829
S21400369000F0A380002900F0A080002B00F09D80A1
S2140036A0269B002B00F09980B8F1000F03D0219BD9
S2140036B0002B00F092803EB1239B002B00F08D8003
S2140036C0B9F1000F00F089803B1F0C2B00F28580BB
S2140036D0209B0C2B40F081802B68103B102B7CD855
S2140036E03F4A22FA03F3DB0777D53E4B284643EAE8
S2140036F007232360002313A9C4E90133E3613EF0E6
S21400370085FE8346002864D1204613993EF058FC77
S214003710414620463EF054FC314620463EF050FCE2
S214003720284601A900F0B4FA8346002851D1204665
S21400373001A93EF031FC284604A93EF066FF834608
S214003740002846D10125204604A93EF025FC264B3C
S214003750204607A9CDF81CA0089509933EF01CFC4E
S214003760219B20460A930AA948F000530B950C9318
S2140037703EF012FC239B204646F000580DA90D9300
S2140037800E95CDF83C803EF007FC269B204647F081
S214003790005710A91093119512973EF0FDFBCDF837
S2140037A04C901495CDF85480B9F1000F03D1159BB9
S2140037B043F080431593204613A93EF0F7FB2046BE
S2140037C0FFF712F9834620B132460021484643F0FF
S2140037D0EFFF584617B0BDE8F08F4FF0210BF8E723
S2140037E001010100000003040C0000202DE9FF4742
S2140037F04FF000080E4617460446CDF80080002815
S21400380059D022B90025284604B0BDE8F087002923
S21400381051D032F0030902F0030A1FD04FF0E063E4
S214003820C0E9003801230191C0F808800293C0F86F
S2140038301C8049F0005301A903933EF0B7FB4946AC
S21400384020463EF0BDFB2046FFF7CEF8054628B1E1
S2140038504A464146304643F0ABFFD4E7BAF1000F84
S214003860D0D04FF000084FF0E063C4E900380123E1
S214003870CDF804D00293114B204601A9C4F8088065
S214003880C4F81C8003933EF091FB042120463EF0D2
S21400389097FB2046FFF7A8F8054608B13A46D8E752
S2140038A0009A4E44EB00013522FA03F3AA4506F8C7
S2140038B0013BF7D1A6E72125A5E700BF04000020BD
S2140038C02DE9F0410F4601780446013990468AB04A
S2140038D0042947D8DFE801F00332373C4100402591
S2140038E0142621490C3400225D43C7E90122FA61FF
S2140038F03846396029463EF063FB0123384646F0D9
S214003900005604A945F00055CDF8048002930395AF
S2140039100494059306960794089309963EF03CFB9C
S214003920384601A93EF038FB384607A93EF03EFB74
S2140039303846FFF759F80AB0BDE8F0814025202642
S2140039400A490C34CFE74025202609490C34CAE73B
S2140039508025402607491434C5E7802540260649B9
S2140039601434C0E72120E6E7000201030003010348
S21400397000040103000501030006010338B50546EF
S21400398061B158B100242022C0E9014404490C303A
S21400399043F019FF032320462B7038BD2120FCE797
S2140039A05666050038B5054671B168B10024402258
S2140039B0C0E90144C0E903440449143043F003FF5E
S2140039C0052320462B7038BD2120FCE7166605002F
S2140039D02DE9FF478A469046044600286AD000290B
S2140039E068D0002A66D00278013A042A62D8DFE856
S2140039F002F0034C51565C00142600F10C07021D21
S214003A0040259E4256D800218E4668094FEAD509C1
S214003A100DEBD50352F821C001310EEBCC0E03F8A6
S214003A2001EC4FEA5C1E03F802EC4FEA5C3E03F83A
S214003A3003EC88424FEA5C5E03F804ED4FEA5C7ED6
S214003A40E8D112686B1E1340A5EB09029A4296BF96
S214003A50A5EB4005D31AC3EB450351462046164A4C
S214003A603EF080FB054660B94B466A465146204606
S214003A703EF078FB054620B932463946404643F0CC
S214003A80A2FE284604B0BDE8F0871C2600F10C070D
S214003A90021DB5E7202600F10C07021DB0E7302610
S214003AA000F11407021D8025ABE7402600F114073D
S214003AB0021DF8E72125E4E7966505002DE9F043A9
S214003AC087B00D4691461E460446DDF8388000282D
S214003AD036D0B8F1000F33D002B98BBB6B1EDBB209
S214003AE0042B2DD8174AD75C0F9B9F4228D800235B
S214003AF0280200F1407000F580703146C4E90133B9
S214003B002060E36120463EF05BFA012369462046CA
S214003B1046F0005647F00057CDF800900193029605
S214003B20CDF80C80049305973EF036FA204603A99C
S214003B303EF03CFA2046FEF757FF07B0BDE8F0839C
S214003B402120FAE791650500F0B50F4616461D469A
S214003B50044693B010B9212013B0F0BD0029FAD066
S214003B60002AF8D0002BF6D0002331461A463846F5
S214003B703EF0F1FB0028EFD1304602A93EF062FB92
S214003B800028E9D1EB68022B0AD039683F48029A30
S214003B9081426B6902D01830814270D19A42DAD8DD
S214003BA02B68002BD7D14FF060623846C4E900235B
S214003BB0A360E36101A93EF029FC0028CCD101995D
S214003BC0204621F4F06101913EF0FAF96946284654
S214003BD03EF01CFC0028BFD1204600993EF0F0F9CC
S214003BE0384609A900F054F80028B5D1204609A99E
S214003BF03EF0D2F938460CA93EF007FD0028ABD1BE
S214003C0020460CA93EF0C8F9EB684BB1284606A939
S214003C1000F03EF800289FD1204606A93EF0BCF9E9
S214003C20304603A93EF0F1FC002895D1B368DA04CB
S214003C300CD59B0427D50621F36932691B6801FB66
S214003C4003225B0043F0005303920593204603A92A
S214003C503EF0A2F928460FA93EF0D7FC00287FF4D4
S214003C607BAF20460FA93EF0A1F903252046FEF7BC
S214003C70BBFE01287FF470AF013DF7D16CE7B3EBD4
S214003C80420F8DD267E7292066E700BF200000B00C
S214003C9090B189B101234B60C368013B012B08D862
S214003CA08269064B1AB10A6000208B607047044A8E
S214003CB0F9E74FF00053F7E721207047080000208F
S214003CC07866050070B50E46154604468AB000288C
S214003CD05BD0002959D0002A57D0012329461A461E
S214003CE030463EF038FB00284DD1B36813F4C04F81
S214003CF04BD0AB6803F4C043B3F5005F45D1254B0A
S214003D00A060C4E90030E06107A930463EF07EFBC3
S214003D10002838D1204607993EF052F9304601A9CE
S214003D20FFF7B6FF78BB20463EF036F9304604A9CA
S214003D303EF06BFC38BB204604A93EF02DF9EB683C
S214003D401BBBAB6803F4C043B3F5005F1DD16946E7
S214003D5028463EF0A2FAB0B9009B6A699A4216D38A
S214003D602A6943F0005307920122204607A90892C9
S214003D70032509933EF01AF92046FEF735FE012882
S214003D8001D1013DF8D10AB070BD2120FBE71D200E
S214003D90F9E700BF000001022DE9F04391B00D469F
S214003DA0DDE918760446DDF8688000286DD0002925
S214003DB06BD0002F69D0B8F1000F66D0096801F00B
S214003DC07041B1F1404F5BD0002B5BD1531E042BEA
S214003DD05BD8120202F1C06202F580720023284608
S214003DE0C4E901332260E3610DA93EF00FFB002811
S214003DF043D120460D993EF0E3F8314620463EF08A
S214003E00DFF8284601A9FFF743FF002835D12046F2
S214003E1001A93EF0C1F8284604A93EF0F6FB60BBB7
S214003E204FF00109204604A93EF0B6F846F00056C9
S214003E30204607A90797CDF8209009963EF0ACF8E3
S214003E402B680A9703F07043B3F1404FCDF82C90DF
S214003E500C9603D120460AA93EF09EF80123CDF821
S214003E6034800E931B9B204643F000530DA90F93FE
S214003E703EF09CF82046FEF7B7FD11B0BDE8F08393
S214003E80034AABE74FF0C062A8E72120F5E700BF82
S214003E90000002062DE9F0418CB00D46DDE91286E1
S214003EA00446149F002867D0002965D0B8F1000F9B
S214003EB062D0002F60D0896889045DD5296801F03A
S214003EC07041B1F1404F4DD0002B4DD1531E042B05
S214003ED052D82A4B03EB022200232846C4E90133BA
S214003EE02260E36109A93EF091FA002837D1204606
S214003EF009993EF065F8314620463EF061F869467D
S214003F002846FFF7C5FE50BB694620463EF044F8FB
S214003F10284603A93EF079FB08BB204603A93EF0DD
S214003F203BF8012346F00056CDF818800793089614
S214003F3009970A93159B43F000530B932B6803F0E5
S214003F407043B3F1404F11D109A920463EF024F842
S214003F5006A920463EF020F82046FEF745FD0CB0A8
S214003F60BDE8F081064AB7E7064AB5E706A9204647
S214003F703EF012F809A9ECE72120F0E7000101065F
S214003F8000000306000001061FB5044698B191B173
S214003F9000230A4A8360C0E90023C361012301911C
S214003FA00293074B01A903933EF000F82046FEF764
S214003FB01BFD04B010BD2120FBE700BF0000084336
S214003FC0040000207FB50E461D460446F0B102B937
S214003FD0E3B901230192029345F0005303930023B3
S214003FE00B4AA360C4E90023E361204601A93DF023
S214003FF0D3FF314620463DF0E3FF204629463DF0FC
S214004000DFFF2046FEF7F0FC04B070BD2120FBE782
S2140040100000094310B5044668B10023074A8360D0
S214004020C0E90023C36106493DF0CAFF2046BDE84B
S2140040301040FEF7D9BC212010BD00BF00000A4387
S214004040AD7E1EDE38B5134DFEF72AFC124B134A22
S2140040501349144806F04EF92B7803F0FF04BBB959
S21400406003F0F4FC012802D903F024FD04462B7863
S2140040702BB90D4B0D481B68984701232B7003F096
S214004080E5FC012804D92046BDE8384003F034BDDD
S21400409038BD00BF35D100207B280400A1280400CD
S2140040A0ED280400CB28040060100020709000204B
S2140040B006289ABF024B33F810000020704700BF56
S2140040C08066050030B5154B87B00293144B0390FD
S2140040D0049346F611030D46059300F077F914286D
S2140040E0044616D168463EF093FC4FF0A8430322E0
S2140040F002A95A6319601D619A63DA6B9207FCD1B4
S214004100142C02D168463EF091FC00F0D7F9044624
S21400411001E00028E9D0204607B030BD7C560020DC
S214004120040000202DE9F04FB1B005468C469E46AF
S214004130E8466F4EDDF8EC90409C06F1100A4746C4
S21400414030687168083603C75645B846F7D13E9BB7
S21400415003EB0208C8F1000A0AF00F0AB9F1000FD3
S21400416000F09D80C9F1000707F00F070121DDF878
S214004170FCB044F00050C4F11006CDF810B0059124
S2140041800690300200F4F85040F021000790B9F194
S214004190000F40F08680CDF820D047F00050002D6C
S2140041A000F08480099121210A9041EA07210B91B1
S2140041B042F00050CDF830C03D9B08A94FEA0A2CCB
S2140041C00D910E904CF041000F901093002A75D17F
S2140041D03E9B119143F0005312933C9B1390149313
S2140041E010AB1593434B444A169340F611031793AE
S2140041F0424B0021002D08BF1346189314AB1993A9
S2140042003F4B10221A9311231B931CAB184643F006
S214004210CFFA01221D92002246F0804603461E96E3
S214004220239205B9EB46102CCDF880B024AE4BD1C6
S21400423001232246002130462193229443F0B8FA07
S21400424020AB002125938F4218BF334647F08042AB
S21400425026923A9A2CA828922993B2FA82F35B09FE
S21400426049EA837310222B912A9343F0A1FAB9F1FD
S214004270000F00D028AED04448F080432CA918A8E0
S2140042802D962E93FFF71EFF30B92DB90346A34295
S21400429025D1002818BF2C2031B0BDE8F08F10279C
S2140042A064E7CDF820E049F0005078E7002C3FF4B2
S2140042B079AF04A9099101210A9076E73E9B0CAAE2
S2140042C011924120129388E7102200213046219354
S2140042D0229443F06DFA002CB2D10123B1E703F12A
S2140042E0C0026A4412F8C02C01331043CFE700BF67
S2140042F08E66050010000020A4660500A86605006E
S21400430004000020F0B5C0299FB0DDE9244557D051
S214004310B1F5807F04D0802948D029201FB0F0BD99
S21400432001265CB140F234470294102403960494AC
S214004330212401970594069502AC0AE040F2144742
S21400434002941024039604942124059401240197D2
S2140043500695079401251024089409950A922122AF
S2140043600B950C940D92174A0AAD0E92164A0F95AD
S214004370109242F61102119212931395149415920C
S21400438001AA1692D3B112AB1793042318931123E4
S214004390199316AB1A901B9340F61103C9081C918B
S2140043A01AA806A91D93FFF78DFEB7E7012614B9D4
S2140043B04FF48267C4E74FF48667B5E70EABE3E7D2
S2140043C00F20ABE7A066050010000010F8B5364ACF
S2140043D0D2F8803243F00103C2F88032334B5B6878
S2140043E0C3F308033BB14FF0A842D36B13F0430F5F
S2140043F0FBD11420F8BD2E4F3B78ABBB03F026FB59
S2140044000128064619D83B7803F0FF0463BB294D04
S21400441010220021284643F0CBF905F11003AB60CB
S21400442050232846EB6003F00FFC286690B101236A
S2140044309E423B7018D9204606E003F03BFB041E64
S21400444030DB3B78002BE2D003F056FB00280BDA7B
S2140044500220CFE7012E01D80120CBE7204603F04B
S2140044604BFB0028F8DAF3E703F0F0FA02280DD049
S214004470114C23681BB90421204605F003FC236871
S2140044800020013343F000432360B3E7094B4FF0AD
S214004490FF31186E03F022FC002814BF0120002014
S2140044A0A8D1E5E70D20A5E70080005000ED00E06C
S2140044B036D10020805600207C56002010B50A4BCE
S2140044C05C68C4F3080464B903F0C0FA022804D197
S2140044D0064B186E03F032FC0446201E18BF01205F
S2140044E010BD0020FCE700BF00ED00E08056002075
S2140044F0012300F01F02A0F506200949A0F5506030
S2140045004009934051F820201A4341F820200549DD
S21400451051F8202022EA030241F82020704700BF0D
S214004520F8560020E45600200121A0F506230E4A86
S214004530A3F550635B0900F01F00814052F823008A
S214004540014342F823100949D1E900300344886842
S2140045500344C868096903445B1802BFC2E9003314
S214004560C2E9023313617047E4560020F856002073
S2140045702DE9F04FA9B003921D4604460822339E4B
S214004580CDE90401414021FA02F34B40980702F1BD
S214004590080218BF9B00202A1C44F4D18123B4FBD8
S2140045A0F3F303EBC313E41A764B04F506241B78E7
S2140045B004F55064002B3ED1FCF724FE074620B1DC
S2140045C06FF0910029B0BDE8F08F0146402208A8A0
S2140045D043F0EEF84022394618A843F0E9F8DFF831
S2140045E0C081DFF8C091C3460BF10F0ACDF800A0DA
S2140045F0102208A95B46D9F800004FF09BFF002266
S214004600014608F1100808AF914246D1CDF800A047
S2140046105B461022D9F8000018A94FF094FF4FF01F
S214004620000A834618AFD34541D1574B9845DAD197
S2140046300122544B1A704FF0810A4FF00008DFF841
S21400464068B1A4F50627A7F550635B095BF823203D
S21400465004F01F01CA40D2073DD44C4A52F823301A
S214004660CB40DB072AD5B8F1000F08BFA046812350
S214004670A7F6FF47B7FBF3F303EBC313FF1A07F5E1
S2140046800624BAF1010A04F55064DAD1039BBBB1E3
S214004690B8F1000F14D0444619E057F8040BCDE9E2
S2140046A00612FFF725FF079A06990132ACE757F87E
S2140046B0040BFFF739FF0AF1010AB4E7039B13B9AD
S2140046C06FF08B007EE7B8F1000F18BF4446349BAE
S2140046D000201C6076E7329B13B10023329A1360E9
S2140046E00EB1002333601023DFF8B89000932A46FB
S2140046F000232146D9F8000034F0EAF800283BD120
S214004700329A234B4AB92A689A4224D02146D9F8CD
S214004710000034F075F9F0B1D2E71021329A11603A
S2140047202A689A42F2D1B6B133462146D9F800003B
S21400473018AA34F021F948B1164B9842E6D0164B29
S2140047409842E3D0154B984205D039E7329A336841
S21400475012689B1A3360D5E90223DDE90410834210
S21400476008BF8A4283D1039B002BB0D06B68012B15
S214004770ADD16FF0840025E7064B9842C6D01233C1
S214004780DEE700BF37D1002000710800E4560020A5
S214004790105D175EFFDF00F011E000F0FEDF00F0B6
S2140047A0006D080034100020F856002070B5104D3B
S2140047B02B7803F0FF04ABB903F048F9012802D9BF
S2140047C003F078F904462B782BB90A4B0A481B6885
S2140047D0984701232B7003F039F9012802D92046A7
S2140047E003F08AF9BDE87040044B03481B6818477D
S2140047F038D10020601000200C57002058100020F0
S214004800034B1B781BB1034B03481B6818477047C4
S21400481038D10020541000200C5700202DE9F04F0E
S21400482087B08246894698461646DDF840B02AB1DB
S214004830002B53D040F26C739A4252D8BBF1010F52
S21400484052D8002406F110073946012005943FF09F
S214004850C5FD054600284AD021463A4642F0A8FF44
S214004860FFF7A4FF05ABCDE9014300942B460122D8
S21400487050464946FFF77CFE044690B110F18C0F77
S21400488008BF6FF08D043A460021284642F090FF9C
S21400489028463FF0B3FDFFF7B3FF204607B0BDE85C
S2140048A0F08F144BC5E902A92B60C5F804B02EB1F1
S2140048B03246414605F1100042F085FF059E0E483F
S2140048C03B462A463146006833F06AFF18B9304640
S2140048D0FFF70EFED7E76FF09104D4E76FF086047B
S2140048E0DBE76FF09104D8E76FF08504D5E76FF04B
S2140048F08C04D2E7105D175E341000202DE9F047D7
S2140049008CB08146DDE914780C4616461D466BB120
S214004910B8F1000F49D0002F47D0B7F1005F44D35D
S214004920C3F1005303F5C0339F423ED84FF0000A50
S2140049301022002108A842F03BFFCDE905AAFFF7A8
S21400494035FF07AB029305AB019306AB21460093F8
S2140049505246484608ABFFF70BFE0446D0B9059B07
S2140049603DB1B3421CD853EA060504D06FF0860466
S21400497010E0B342FAD3069B0D48C8F800500095E5
S2140049803A4607990068334433F0A2FF002818BF60
S2140049906FF09104FFF734FF20460CB0BDE8F087B7
S2140049A09B1B9D4228BF1D46E5E76FF08604F3E794
S2140049B03410002070B500260C4605468CB0102238
S2140049C0002108A842F0F4FECDE90566FFF7EEFEEA
S2140049D007AB029305AB019306AB21460093324624
S2140049E0284608ABFFF7C4FD0446D8B9099B012B3F
S2140049F01DD0079D114B2946186834F001F8C8B938
S214004A000122A5F506230E49A3F550635B0905F0C0
S214004A101F00824051F823004240284641F82320D8
S214004A20FFF782FDFFF7ECFE20460CB070BD6FF07E
S214004A308404F7E76FF09104F4E700BF3410002019
S214004A40F856002030B5048804F4E043B3F5005F60
S214004A5013D1C4F30223042B0FD181F0AA6383F48D
S214004A60807333F47E1320D081F0AA6383F400733E
S214004A7033F47E1319D0002319E042F204039C425B
S214004A80F9D181F0052383F4801333F47E1309D122
S214004A90214B21F47E159D4204D0C1F305431F49E6
S214004AA08D4220D06FF085001CE0C1F3054321F451
S214004AB07E1519498D42F2D1B4F5105FF2D14188C6
S214004AC021F04000802802D0B1F5807F20D1191F48
S214004AD00C291DD8DB071BD4073A072A34BF002051
S214004AE06FF0860030BDB4F5105FDBD1418821F051
S214004AF04000802802D0B1F5807F09D1043B0C2B02
S214004B0006D82AB10C2A0CBF00206FF08500E9E712
S214004B106FF08600E6E700BF000140050002400592
S214004B202DE9F04F9DB08246DDE92A761D468B467C
S214004B30DDF8B080DDF8C490099241B138B1269B0B
S214004B402BB1289B0BB9299B0BB91FB94EB16FF03F
S214004B5086049CE02EB1B8F1000FF8D02D9B002BF8
S214004B60F5D02E9B002BF2D0B9F1000FEFD0309B82
S214004B70002BECD02F9B002BE9D0BAF8003003F4C2
S214004B80E042B2F5005F59D1C3F30222042A55D1A0
S214004B9085F0AA6383F4807333F47E1306D085F021
S214004BA0AA6383F4007333F47E1350D1C5F3054330
S214004BB029465046279AC9F80030FFF743FF0446B7
S214004BC0002864D10146242213A842F0F1FD2022D9
S214004BD021460BA842F0ECFD13A83DF0B4FA0028DD
S214004BE075D159465046099A0BAB00F02FFE044685
S214004BF000284CD12D9B9E426CD8D9F80030309AB4
S214004C00934267D8474508D2BB19984505D239461E
S214004C103246404642F0B2FD4746304B25F47E15FC
S214004C209D4216D003F580739D4234D06FF0880401
S214004C3000232E9A1360C9F8003028E042F20402DE
S214004C40934204D185F0052383F48013ABE7002359
S214004C50AEE7D9F80030324606932F9B0397CDE98E
S214004C600483299B0BA90293289B13A80193279BD7
S214004C700093269BFEF724F8212802D16FF08604C5
S214004C80D6E710B16FF09204D2E72E9B1E60204646
S214004C901DB0BDE8F08F279B0C2B15D12F9B002253
S214004CA00793D9F800300BA9CDE90583299B049713
S214004CB00393289B13A80293279B0193269B00939C
S214004CC03346FEF799FBD7E76FF08504B0E76FF041
S214004CD09204DCE76FF08904D9E700BF00014005C5
S214004CE02DE9F04F9DB08B46DDE92A659846814652
S214004CF0DDF89CA02E9F099228B96FF08604204606
S214004D001DB0BDE8F08F0029F7D0269B002BF4D00D
S214004D10289B13B9299B002BEFD10EB9002DECD19F
S214004D2017B92F9B002BE8D1309B002BE5D02C9B8E
S214004D30002BE2D0524641464846FFF783FE044623
S214004D400028DCD10146242213A842F031FD20229F
S214004D5021460BA842F02CFD13A83DF0F4F910B143
S214004D606FF09204CBE759464846099A0BAB00F021
S214004D706DFD04460028C2D12F9B9D4248D8BE42F6
S214004D8008D273199F4205D231462A46384642F069
S214004D90F5FC3E46214B28F47E18984506D003F5D0
S214004DA0807398451FD06FF08804A8E72D9B2A468D
S214004DB006932C9B0396CDE90473299B0BA90293BB
S214004DC0289B13A8CDE900A3269BFEF74FF82128C1
S214004DD093D02C2802D16FF0940490E70028BFD11E
S214004DE0309B1D608BE7BAF10C0F14D12C9B2A4622
S214004DF006932D9B0396CDE90473299B0BA902937A
S214004E00289B13A8CDE900A3269BFEF735FCDEE71A
S214004E106FF0890473E76FF0850470E700014005C2
S214004E200A4B984206D003F54073984202D0084BCE
S214004E30984207D10B88B3F5105F0CBF00206FF0C7
S214004E40850070476FF08500704700BF0010C004F3
S214004E50004440042DE9F04F99460023A7B0CDE961
S214004E600933DDE931B7DDE93346CDE90B33DDE95A
S214004E70358ACDE90D33CDE90F33059007920691BB
S214004E8029B96FF08605284627B0BDE8F08F079B46
S214004E90002BF6D00FB9002CF3D1309B13B9BBF121
S214004EA0000FEED116B9B8F1000FEAD1BAF1000F33
S214004EB0E7D048460599FFF7B3FF05460028E2D13C
S214004EC0014624221DA842F073FC2022294615A87C
S214004ED042F06EFC1DA83DF036F9002870D1DDE9E1
S214004EE00612059815AB00F0B1FC05460028CAD19D
S214004EF015983DF08AFE05460028C4D114B9CAF8B4
S214004F000000C0E7B7420AD23B199E4207D244458A
S214004F10B7D839462246304642F030FC3746454B35
S214004F20994550D003F54073994513D0424B9945A7
S214004F3079D14445A5D814F00F02A2D12346CDE975
S214004F40007615A91DA8FDF795FD074670BBCAF8A3
S214004F50004098E700234445CDE91133CDE91333EB
S214004F608FD8BBF10D0F8CD101235A4630990DF125
S214004F7045008DF8443042F026FC4FF48073ADF8BF
S214004F80523014F00F0930D10F2CE0D909AB019341
S214004F9011ABCDE90276009324F00F02002315A989
S214004FA01DA8FDF7BFFD0746002838D04246002161
S214004FB0304642F0FDFB0023012FCAF8003035D002
S214004FC06FF092055FE700234445CDE91133CDE944
S214004FD013333FF656AFBBF1100F7FF452AF5A466D
S214004FE0309911A842F0EFFBCBE724F00F01102216
S214004FF039440DA842F0E7FB0F2CC7D824F00F0366
S214005000334403930DAB029309AB019311AB0093AA
S2140050104A46002315A91DA8FDF784FD95E7B9F1BA
S214005020000F94D0EAE76FF085052CE76FF08B054C
S21400503029E700BF0010C0040044400470B50E46C7
S2140050401546044608B301B3102A1ED8836B73B9FD
S214005050436A1C4883421BD00CD81B4A934213D089
S21400506005D823F48073A2F58062934210D06FF0C7
S214005070880018E01548834216D0F8D8144A9342A0
S21400508006D002F58072F0E765B16FF086000AE0A0
S214005090102DFAD12A46314604F1280042F093FB3F
S2140050A01023A363002070BD0D2AEED1012304F166
S2140050B0290084F8283042F086FB4FF48073E3869C
S2140050C0EEE700BF0010C004004440040013C00414
S2140050D00011C0042DE9F04F0E46144698460546CA
S2140050E091B028B96FF08609484611B0BDE8F08F38
S2140050F009B9002AF6D1B8F1000F02D11A9B002B8D
S214005100F0D11B9B002BEDD028683DF07EFD81463C
S2140051100028E9D1EA6C854902F00F030493C3F135
S214005120100B6B6A8B4208D195F82070012F12D1B4
S214005130002C32D11B9B1C60D6E77D4A934223D0BD
S2140051401AD8A2F5807293421ED01AD8794A23F450
S2140051508063934215D1002CECD000275C452DD2FD
S214005160049822463C303146284442F02CFBEB6C37
S2140051702344EB640024DDE76F4A23F480739342F4
S21400518002D06FF08809AFE7002CD3D01A9B9C4260
S21400519000F2C8800027059720E0BBF1100FDDD194
S2140051A0002ADBD0102C26D9A4F1100211094B1CC2
S2140051B012F00F0F08BF0B46012708E01BD9049B0F
S2140051C0A4F110021A4411094B1C002FF0D11A9AB0
S2140051D0B2EB031FC0F0A680012305932422002112
S2140051E007A842F0E5FA07A83CF0ADFF824620B1DA
S2140051F06FF0920978E70123E9E746450CD23319A8
S214005200984509D21A9B9C423FF66CAF314622461F
S214005210404642F0B3FA46466B6A484A93424DD03F
S21400522002F54072934249D0454A9342A9D1BBF158
S214005230100F22D0E86C5A4600F00F003C30314682
S214005240284442F0C0FA05F13C030093CDF80480F0
S2140052501023294695F8202007A8FDF70BFC002808
S21400526057D14FF0100A049B103C23441C46EB6CAD
S2140052705E445B4408F11008EB640F2C07D8DCB1E1
S214005280059B002B3BD100231B9A136079E7CDE9E1
S214005290006824F00F0B5B46294695F8202007A8E7
S2140052A0FDF7E8FB002834D1EB6CB4EB0B045B4451
S2140052B05E44DA44EB6419D154463BE7EB6C224675
S2140052C003F00F03069305F13C03019305F1280351
S2140052D000932946CDE9026806AB07A8FDF722FC35
S2140052E0B8B9EB6CA2462344EB64E5E7059B002BBC
S2140052F0C9D00F2C03D9002FC5D0102CC3D12246FD
S214005300314605F13C0042F05EFAEB6C2344EB6458
S214005310D2E700231B9A012813607FF469AF6FF071
S2140053208B09E1E66FF08909DEE600BF0041400424
S2140053300011C004004040040012C0040010C00465
S2140053400044400438B51C46054648B301B93ABB8C
S21400535034B328683DF059FCF0B96A6A124B9A4299
S21400536013D007D8114B22F480629A4210D06FF007
S21400537088000AE00E4B9A4207D08EBF0D4B22F4EF
S2140053808072A3F500739A42F1D10023236003E0F4
S2140053902060EB6C1B0700D138BD6FF08600F4E789
S2140053A06FF08600F8E700BF00018004004040046C
S2140053B00012C0040013C0042DE9F04FC5B00E461D
S2140053C0DDE94EA400210546904601A82022994614
S2140053D042F0EEF92022002109A842F0E9F9202245
S2140053E0002111A842F0E4F92422002119A842F075
S2140053F0DFF90021842223A8229142F0D9F94EB188
S214005400B8F1000F06D0BAF1000F03D0509B0BB1D5
S214005410529B2BB96FF08606304645B0BDE8F08F3C
S2140054203788B6F802B007F4E043B3F5804FF1D002
S214005430444B45492B4043F010638B4227D10BF178
S2140054400703B9EBD30F4FEAD305E3D3519B9D4235
S21400545075D819A83CF077FE10B16FF09206DBE71E
S2140054600023694619A80093FEF78EFD0028F4D1A4
S214005470009B364923F07F438B42009307D947F2BF
S21400548012139F4206D047F241139F4235D06FF069
S2140054908506C1E7BBF5807FF9D1882302342C4806
S2140054A00AF1010A24F003046A0022A909900020E8
S2140054B01693CDE91401CDE90C0A129230464A46FD
S2140054C0414601AB0E9400F0C1F906460028A3D170
S2140054D00B9B119043F4005319A80B933CF033FE3A
S2140054E00028BAD111AB09AA01A919A8FEF72CFB0E
S2140054F0044690B148288DD1C9E7A5428AD8BBF1A9
S214005500FF0FC4D1519B033403332A4650991148E8
S21400551024F0030423F00303C8E747F212139F4264
S2140055200AD122AF2A463946509842F04CF9234613
S2140055303B550134882CFBD1529B1D606CE76FF005
S214005540890669E70000FFF6000002090102010073
S21400555020000080200000B02DE9F0410D461446E2
S2140055601E46C6B010B96FF086005CE00029FAD07F
S214005570002AF8D0002BF6D0038803F44F42B2F589
S214005580824F40F0B380DAB2122A0DD0413A012A97
S21400559000F2AC803368002B00F0A0800733B4EB39
S2140055A0D30F00F09D80DEE723F0FF03B3F5E24F54
S2140055B028D14388336003BBE3003360B3F5807FB4
S2140055C040F09480002318464F492E19214411F8C4
S2140055D0014D16F8012D1043121B0CBF4FF0FF347F
S2140055E00024B54203EA040343EA0203EFD100288D
S2140055F0B9D0002BB7DA002015E0DA1DB4EBD20FD5
S214005600DCD0B0E7B3F5824F7AD10B78042BAAD161
S214005610242200211AA842F0CBF81AA83CF093FDE9
S21400562020B16FF0920046B0BDE8F081002301A9DA
S2140056301AA80193FEF7A8FC07460028F1D1019BA3
S214005640324A23F07F43934250D901468622239064
S21400565024A842F0ADF801234FF08A0820223946EC
S214005660013C02A88DF88C30013542F0A1F82022CA
S214005670394607940AA8E4000695640842F098F8AC
S21400568023AD2022394612A80E95CDF83C8042F074
S2140056908FF8E02CCDE91658346027D0B4F5807F1B
S2140056A07FF461AF1A4B0AA902930A934FF4005392
S2140056B004934FF480430C93402302AA13931AA832
S2140056C012ABFEF741FA0446316828460731C9088E
S2140056D049003DF02DFB002C8DD044E7E4003460FB
S2140056E03368FF2B87D0B3F5807F02D06FF085003C
S2140056F099E74388B3F5807FF8D0FF2333607AE7D5
S2140057006FF096008FE700BFAC660500010201004F
S214005710200000802DE9F041438814460733072B0C
S2140057200D464FEAD30202D08A4240F08680476890
S2140057300688D0F80C803F0A20220021204642F03E
S21400574037F82FB1012F0ED06FF08B00BDE8F08137
S214005750E760002D71D041F201039E4219D1C4E9E1
S21400576000750020F2E7E760002D66D041F20103E5
S2140057709E4222D10023C4E9003518F0020F08F03B
S214005780010326D1002BECD1A36843F08073A360FD
S214005790E7E7B6F5885FE2D0B6F5905FDFD0B6F5FE
S2140057A0105F11D1182D03D0202D01D0102D44D11B
S2140057B0C4E90055002FE0D1D3E7B6F5885FD9D00D
S2140057C0B6F5905FEBD1D5E706F44F43B3F5824FBD
S2140057D002D06FF08500B9E7F3B2122B03D1202D6B
S2140057E0F7D1174B0AE0412B03D1202DF1D1154BF1
S2140057F004E0422BEDD1202DEBD1134B26F0FF0613
S214005800B6F5E24F23600AD1A36843F4804318F448
S214005810705F0FD018F4864F08D0A360D9E7B6F5AE
S214005820824F0AD1A36843F40053F0E743F4806341
S214005830A360BFE723F48063FAE76FF0860085E78E
S21400584020000080200000B0200000C02DE9F041BC
S214005850154600221C4643688CB01B0A07460E46B7
S214005860009204D0012B5CD06FF08B008EE0018894
S21400587021F0FF03B3F5824F51D142880846073224
S214005880D20800923DF007FA58B13378042B05D1C0
S214005890013DB5EB420F06F1010609D06FF0860018
S2140058A074E04139C9B2012900F2D280AA42F5D18A
S2140058B0224638460099FFF72DFF002866D10335AB
