S00F00006D66675F6D6732342E73333712
S31508000000001000208D1200080D0004080D000408D9
S315080000100D0004080D0004080D0004080D0004086E
S315080000200D0004080D0004080D000408610200080C
S315080000300D0004080D000408F10100083D2A040813
S315080000400D0004080D0004080D0004080D0004083E
S315080000500D0004080D0004080D0004080D0004082E
S315080000600D0004080D0004080D0004080D0004081E
S315080000700D0004080D0004080D0004080D0004080E
S315080000800D0004080D0004080D0004080D000408FE
S315080000900D0004080D0004080D0004080D000408EE
S315080000A00D000408E1190008BD1900080D00040830
S315080000B00D000408295503080D5F030855F70408C1
S315080000C051F70408F556030861F7040859F70408B8
S315080000D0E55E03085DF704086D5F03084D5F0308D6
S315080000E00D0004080D0004080D0004080D0004089E
S315080000F0F72004080D0004080D0004080D00040884
S315080001000D0004080D0004080D0004080D0004087D
S315080001100D0004080D0004080D0004080D0004086D
S315080001200D0004080D0004080D0004080D0004085D
S315080001300D0004080D0004080D0004080D0004084D
S315080001400D000408A54900080D0004082723040823
S31508000150E13D03080D0004087DF4040883F404084F
S315080001600D0004080D0004080D0004080D0004081D
S31508000170013800D0FCE770470000000000000000CE
S315080001800B4A1168086806C881F30B88022181F3B7
S315080001901488203080F30988BFF36F8F4FF0000072
S315080001A080F31188104700BFAFF30080AFF30080DB
S315080001B0205300200000000000000000000000009E
S315080001C007480068006880F3088862B661B6BFF31E
S315080001D04F8FBFF36F8F02DF00BF00BFAFF3008002
S315080001E008ED00E00000000000000000000000002C
S315080001F0EFF309801EF0100F08BF20ED108AEFF309
S315080002000B82734620E9FC0F114A116808604FF00B
S31508000210300080F31188BFF34F8FBFF36F8F0DF057
S31508000220B9F84FF0000080F31188094A1168086888
S31508000230B0E8FC0F13F0100F08BFB0EC108A82F379
S315080002400B8880F309881847AFF30080AFF3008066
S3150800025020530020000000000000000000000000FD
S315080002601EF0040F0CBFEFF30880EFF30980044972
S31508000270084700BFAFF30080AFF30080AFF30080FC
S3150800028085BE0008000000002DE9F04F2DED088B13
S315080002908DB09DED1E7B09EE903ADDE920430A9369
S315080002A0229B09EE100A8A460792069351EC170B11
S315080002B053EC172BB0EE478AF0EE678A13F016F860
S315080002C080B14FF0FF3251EC180BCF4B13F036F8D4
S315080002D040B94FF0FF326FF4801351EC180B13F04E
S315080002E00FF898B1069B514622930A9B19EE100AFD
S315080002F0CDE9204319EE903A079A8DED1E8B0DB085
S31508000300BDEC088BBDE8F04F00F0A2B9002200232F
S3150800031051EC180B12F0F4FF002800F0448118EE97
S31508000320903A18EE108A03F10049069BC9F30A5061
S3150800033013F48063A0F2FF3008BF06240B9312F073
S3150800034003FDA1A3D3E9002312F068FDA0A3D3E916
S31508000350002312F0ADFBC9F313050F4645F07F5194
S3150800036006460022A94B404641F4401112F09EFB76
S3150800037099A3D3E9002312F051FD02460B463046F5
S31508000380394612F095FB12F0E3FF834612F0DCFCC7
S3150800039093A3D3E9002306460F4612F03FFD002239
S315080003A09B4B12F085FB12F0D3FF8FA3D3E90023F2
S315080003B005463946304612F031FD064628460F46B0
S315080003C012F0C2FC8AA3D3E9002312F027FD0246E5
S315080003D00B463046394612F069FB02460B4606467E
S315080003E00F4612F01BFD324641EC1A0B3B463046CF
S315080003F0394612F05DFB002241EC1B0B854B51EC94
S315080004001A0B12F035FE0022834B12F051FB0246FE
S315080004100B4651EC1A0B12F02BFE00227F4B12F002
S3150800042047FB02460B4651EC1A0B12F021FE3246E8
S3150800043041EC1A0B3B4600204FF0804112F036FB88
S3150800044002460B4651EC1A0B12F032FB02460B46DB
S3150800045051EC1B0B12F00CFE05F2FF350022704B17
S3150800046012F026FB00222B0512F0D8FC42464B461A
S3150800047006460F4612F062FF002840F09780CDE945
S3150800048008670BF16303C72B069B34BF04250525B4
S31508000490190521D558A3D3E900234046494612F049
S315080004A043FF002800F0BE8055A3D3E90023404649
S315080004B0494612F025FF002800F0B48000255C4567
S315080004C0CCBFA4EB0B000024AB46069BC8BF00F1CB
S315080004D0FF3443F4806306930A9B9D4238BF5E1B34
S315080004E0069B28BF002613F0020702D0002D18BF6E
S315080004F00026BBF1000F07D0DDE908234046494630
S3150800050012F0B6FD804689460022002351EC180BEE
S3150800051012F0F6FE10B109F100439946069B5146C2
S3150800052023F40063CDE9036319EE100A19EE903A35
S31508000530CDE90089079A029400F08AF875B3069BFC
S31508000540024613F0200F00F1010619EE903A14BF87
S3150800055045206520514619EE104AA047052300227A
S3150800056005930A238BEAEB70CDE90232A0EBEB7018
S315080005704FEADB73013D0193009019EE903A32463B
S31508000580514619EE100A049544F09BF937B1079BBA
S31508000590C51A079B58190A9BAB424CD80DB0BDEC3F
S315080005A0088BBDE8F08F59EC188BBEE60022304662
S315080005B03946194B12F05CFD0BF1FF3BCDE90801FA
S315080005C05FE700BFAFF30080FB799F501344D33F2A
S315080005D0B3C8608B288AC63F61436F63A787D23F3B
S315080005E071A379094F930A401655B5BBB16B024002
S315080005F0EF39FAFE422EE63F2D431CEBE2361A3F50
S315080006000000000080842E41FFFFEF7F0000F83FC6
S315080006100000E03F00002C40000024400000184085
S315080006200000F03F002C3FF457AF0B9B002B3FF424
S3150800063053AF013C50E7024619EE903A5146202046
S3150800064019EE104AA0470135A3E700BF00000000D5
S315080006502DE9F04F2DED088B8FB0DDE920AB08EEC4
S31508000660100A0F4608EE902A09EE103ADDE92253E1
S315080006705246049350465B465946249E12F036FE6F
S31508000680A0B9049B2396229303232193B84B209366
S3150800069018EE902A19EE103A394618EE100A0FB0DD
S315080006A0BDEC088BBDE8F04F44F043B84FF0FF327D
S315080006B06FF480135046594612F022FE30B1049B5F
S315080006C02396229304232193AA4BE0E74FF0FF32A7
S315080006D050465946A84B12F031FE70B1A74A06F0AB
S315080006E00403002B08BF0322A54B1CBF1346042294
S315080006F004992396CDE92121C9E7504698A3D3E961
S315080007000023594612F01AFE38B997A3D3E90023F5
S315080007105046594612F0F4FD98B1049B18EE902AFB
S31508000720CDE92253394619EE103A18EE100ACDE9EA
S3150800073020AB24960FB0BDEC088BBDE8F04FFFF751
S31508000740A3BD002200235046594612F0D9FD0028C1
S3150800075000F081805B4652460020002112F0A6F97F
S31508000760012382468B46059316F4806F08BF06253B
S315080007703021A94606ABA5F12002B9F1090FA5EB70
S31508000780090406D909F1FF394A4503F8011BF4D1D2
S3150800079020245946504612F0DBFD7A4B054603EBFA
S315080007A0C90393ED007BB0EE47AAF0EE67AA12F0F4
S315080007B0CBFA02460B465046594612F077F953ECE7
S315080007C01A2B12F02BFB02460B4643EC1B2B12F09E
S315080007D0E7FD804612F0A8FA02460B4651EC1B0BC1
S315080007E012F064F902460B4643EC1B2B0022664BBB
S315080007F012F0A4FD88B308F10108404612F094FAF5
S3150800080002460B4651EC1A0B12F084FD10B14FF05C
S3150800081000080135B9F1000F51D1284612F094FAB3
S3150800082002460B465046594612F040F90022564BEE
S315080008308046894612F064FD30B10022404649469A
S31508000840514B12F07BFD10B1E80700D5013506AB18
S315080008500A2223445AE0059086E7002251EC1B0B36
S31508000860494B12F04DFD0028D4D1B8F1000F02D043
S3150800087018F0010FCED008F10108CBE7B8FBF1F06C
S3150800088001FB1082B8F1090F02F1300209F1FF39B4
S3150800089004F1010403F8012B28D83021A14406AA43
S315080008A0202C11D04C4504F1010321D104F1380262
S315080008B00DEB02042E2204F8202C1C46C7E70A2159
S315080008C006AB2344202CD9D106F00303012B06AB33
S315080008D039D1049A002A36D0059A12B916F00C0FA7
S315080008E002D0049A013A0492302214E08046E9E7DD
S315080008F0A1541C46D4E795FBF2F102FB115530359D
S3150800090003F8015B01340D460029DDD0202CF2D115
S31508000910DAE71A5501340499A14214D9202CF8D1E2
S31508000920049A0093CDE9014219EE103A18EE902A7E
S31508000930394618EE100A039643F0FBFE0FB0BDECDD
S31508000940088BBDE8F08F202CEAD0059AF2B12D214C
S3150800095004F138026A4402F8201C0134E0E700BFBB
S315080009600000000065CDCD410000000065CDCDC179
S31508000970B7460508BB460508FFFFEF7FB2460508E0
S31508000980AE460508C04605080000E03F710704D5D5
S3150800099004F138022B216A44DDE73207C0D504F199
S315080009A0380220216A44D6E708B5002001F040FC49
S315080009B0174BB0FBF3F0174B1860186812F0B4F930
S315080009C00FA3D3E9002312F029FA0FA3D3E90023D2
S315080009D012F06EF812F0E4FC0F4B104A1860D36858
S315080009E043F08073D3604FF060430D4AC3F8B02FCD
S315080009F00C4A136843F00103136008BDAFF3008087
S31508000A00EC51B81E85EBE93FF6285C8FC2F51C4011
S31508000A1040420F007067002074670020F0ED00E088
S31508000A2055CEACC5001000E070B505463E4C8AB000
S31508000A3020B10023008823601FF09CF83B484EF045
S31508000A4043F93B4E3B4B304633603B4B73601FF0DC
S31508000A5033FA002130462CF01DFB31A3D3E90023DD
S31508000A60A062C4E9062348F09CFBD4E9062319438F
S31508000A7010434FF0FF33C4E90601CDE900014FF0FA
S31508000A80FF32A06A4EF0ACF902224FF0FF31A06A9D
S31508000A904EF0C1F901201EF0E7FD4FF40073002265
S31508000AA02649A06A4EF0A5FAB0F5007F36D1002394
S31508000AB09422CDE9073309933C23CDE90332059304
S31508000AC09623A06A03A906932CF07AFE25B3287C00
S31508000AD01FF0B0FA0546E0B9A06A4EF075FB1FF0A4
S31508000AE051FA1EF0A3FD20B14FF4807000211DF0CD
S31508000AF0D5FB1EF0ABFD20B14FF4006000211DF0C0
S31508000B00CDFB01204DF0F6FE0D4A0E49A06A48F0CD
S31508000B103FFB28460AB070BDFF20D9E70725F8E74E
S31508000B2009D5015520000000183A0020690345EC54
S31508000B30F477002059FD0108E8770020E8750020C1
S31508000B4039910408799104087FB50026054602AA5A
S31508000B5069460120CDE90066CDE9026617F012F86C
S31508000B60044630B1204B6B6003232E602B7204B011
S31508000B7070BD0199009B2B60C80319A3D3E9002314
S31508000B80490C12F02DFC0399A88015A3D3E900237C
S31508000B90C803490C12F024FC029B00EBC333B3F5DF
S31508000BA0804F0FD3114A934210D9114A934210D954
S31508000BB0104A93424FF003000ED943F6FF73EB80B9
S31508000BC02872D4E720462246D340F8E701200522BA
S31508000BD0FAE702200A22F7E70D22F5E7AFF30080CD
S31508000BE000CA9A3B000000000000FF3FE0FF070034
S31508000BF000FCFF0000E0FF07F0B591B014460D4673
S31508000C004EF0A5FF002754F8043B019324223946E9
S31508000C10064607A8CDE90277049744F068F92C4BF5
S31508000C2005A8CDE9053435F003FE044600283FD172
S31508000C300999089B0293C80323A3D3E90023490C07
S31508000C4012F0CEFB0B99ADF80C001FA3D3E90023D5
S31508000C50C803490C12F0C4FB0A9B00EBC333B3F577
S31508000C60804F19D31B4A93421AD91B4A93421AD961
S31508000C701A4A93424FF0030018D943F6FF73ADF8AA
S31508000C800E308DF810003068036801AAD3F8B83022
S31508000C902946984711B0F0BD20462246D340EEE7D4
S31508000CA001200522FAE702200A22F7E70D22F5E7D6
S31508000CB017F09CF80028EDD001210846084B094A90
S31508000CC017F056FE3846E5E700CA9A3B00000000D2
S31508000CD067010508E0FF070000FCFF0000E0FF07CA
S31508000CE074CD05087DCD050810B5054C237833B9B4
S31508000CF0044B13B1044800E000BF0123237010BD64
S31508000D00703F0020000000001CEE050808B5034BE4
S31508000D101BB10349034800E000BF08BD00000000FE
S31508000D20743F00201CEE0508A3F5803A704700BF03
S31508000D30174B002B08BF134B9D46FFF7F5FF002105
S31508000D408B460F461348144A121A44F0D0F80E4B35
S31508000D50002B00D098470D4B002B00D09847002059
S31508000D60002104000D000D48002802D00C4800E0C0
S31508000D7000BF12F011FD2000290043F02DFF12F0EC
S31508000D80E5FC00BF000008000000000000000000AD
S31508000D90001000205421002098FF002000000000C9
S31508000DA0000000002DE9F0412C4C8EB001AE05463E
S31508000DB0884617460FCC0FC6043406AE0FCC0FC6AE
S31508000DC094E80F0086E80F00012606AB31463A2064
S31508000DD02C6805938DF81D6001F0FEF931466868A8
S31508000DE001F0FAF900230422697B287B02F0E8FC6B
S31508000DF000230422697A287A02F0E2FC204601A937
S31508000E00CDF80C808DF8127002F00AFB144B9C4248
S31508000E1022D0144B9C420CBF34464FF0FF346B7AF9
S31508000E20297A41EA0341104B03EB4412C2F8AC1489
S31508000E30687B297B253441EA0041002003EB4414F2
S31508000E40A160D2F8943403F0040343F01803C2F8FF
S31508000E5094340EB0BDE8F0810024E0E75830050868
S31508000E600000015B00000A5000C0035038B5056851
S31508000E700521284602F0B2F90A4B9D420FD00A4ACC
S31508000E800A4C0B4B954218BF1C463FF0BEF9236827
S31508000E9043F0180323603FF0BCF9002038BD054C29
S31508000EA0F3E700BF0000015B00000A50B4C403501A
S31508000EB074C4035094C4035003680B4A10B5934294
S31508000EC00FD00A490A4C0B4A8B4218BF14463FF00A
S31508000ED09CF9236823F0180323603FF09AF9002051
S31508000EE010BD054CF3E700BF0000015B00000A5087
S31508000EF0B4C4035074C4035094C40350012902D8DF
S31508000F000448FFF7B3BF0239012902D80148FFF7A1
S31508000F10D3BF7047C011002013B5044608F060FA25
S31508000F2000230122247BCDE900326400B0FBF4F1F2
S31508000F30024A034841F08DF902B010BD450F00087A
S31508000F408C3F00204022024BC3F8A020704700BF08
S31508000F5000F00350F7B54FF48076104C054604F5BB
S31508000F608053C3F8A060407B08F0F4FB04230C4FC1
S31508000F7002220DF106013846ADF806303EF092FF22
S31508000F8038463EF0A0FFA87B08F0E4FB002004F5F5
S31508000F900054C4F8A06003B0F0BD00BF00C0035001
S31508000FA0C011002070B50646354601213A2001F0E9
S31508000FB013F9B16800221148FFF7F4FE104C00231C
S31508000FC004220821022002F0FBFB0023042206214A
S31508000FD0022002F0F5FB0FCD0FC401222B68304624
S31508000FE02360084B1A70FFF797FF3046FFF7B2FFEA
S31508000FF00549064807F0CCFD002070BDC011002049
S31508001000AC3F0020E8810020B8110020C03F002036
S315080010102DE9F74F14464FF48072068898460379EF
S3150800102001345E43254BA4B2C3F8A0200546407B95
S315080010300F4608F08FFB230243F0010302222048E3
S315080010400DF10601ADF806304FF000093EF02AFF13
S3150800105001342402DFF868B0F610A4B208F1FF3AAA
S31508001060C14511D116483EF02EFFA87B08F072FB49
S315080010704FF48072134B1248C3F8A0203EF028FFA5
S31508001080002003B0BDE8F08F3946324658463EF098
S3150800109009FFCA450CBF4FF6FF7344F0FF0302224F
S315080010A058460DF1060104F58074ADF8063037444C
S315080010B03EF0F8FE09F10109A4B2D1E700D00350C9
S315080010C0C011002000E00350034B04481B78002B96
S315080010D008BF0020704700BFE8810020AC3F002011
S315080010E030B5064D87B001AC0FCD0FC42B6801A8EB
S315080010F02360FFF757FF07B030BD00BF8C300508E7
S315080011001022024BC3F8A020704700BF00D003503E
S315080011101022024BC3F8A020704700BF00E003501E
S3150800112070B5454C8EB0264601AD0FCE0FC5336857
S3150800113014342B6006AD0FCC0FC594E80F0085E874
S315080011400F0001213A2001F047F80121572001F04C
S3150800115043F84FF48073394DADF81C30384B2846A8
S31508001160039301A906AB059302F05AF90123042259
S315080011701946022002F024FB022100230846012218
S3150800118002F01EFB012304220321022002F018FBB1
S31508001190042201231146022002F012FB294C2A4B95
S315080011A04FF44870C4F8C8344FF00213C4F8C43476
S315080011B0A3F58033C4F8CC341C23C4F8B43408F03F
S315080011C0C9FA1420FFF7A4FF08F0C4FA2320FFF792
S315080011D097FF08F0BFFAB9212846FFF799FF3FF0B5
S315080011E058F8FFF78DFF002301211A46022002F066
S315080011F0E7FA002302211A46084602F0E1FA01231B
S3150800120000220321022002F0DBFA01230022042136
S31508001210022002F0D5FA284601F0B6FF0021572031
S31508001220C4F8C814C4F8C414C4F8CC14C4F8B41464
S3150800123000F0D2FF0EB070BDA030050800000A50BD
S31508001240E070720000C003500200030038B504467F
S315080012500D4601B118B9372103483EF0CCFE236884
S315080012602B60256038BD00BFD430050805490A68DB
S315080012701318054883428CBF4FF0FF320B601046A7
S31508001280704700BFD41100200000042008B500F004
S315080012902DF8124B12498B4212D30020114B1249DA
S315080012A08B4218D3FFF744FD186850F82240586857
S315080012B040F82240013298688242F5D30C33EAE7B7
S315080012C00022F8E71C6844F8220001325C68A24252
S315080012D0F8D30833E4E70022F8E700BF24EE050850
S315080012E030EE050830EE050830EE05084FF480416B
S315080012F04FF0FF30114B124A10B59A60D3F8882088
S3150800130042F47002C3F888200E4A91660E4901F528
S31508001310005210660D4850660220C3F8D000BFF38D
S315080013204F8FBFF36F8F01244FF440330848C0F83E
S315080013308041D36004600B6110BD00BF00ED00E082
S31508001340000000080090005000800044F7FF3700B6
S3150800135000E100E0014B1868704700BFDC1100206F
S31508001360014B1860704700BFDC110020084B1B6F4B
S3150800137003F00703022B04D0032B05D0012B05D05D
S31508001380FEE7044B18687047034BFBE703487047B2
S3150800139000800050DC110020E0110020002D3101F2
S315080013A008B5FFF7E3FF054B1B6FC3F303330133A0
S315080013B0B0FBF3F0024B186008BD00BF0080005078
S315080013C0D81100200048704700B4C404014B1868BF
S315080013D0704700BFE0110020054B1860054B1B6FD6
S315080013E003F00703032B01D1FFF7DABF704700BFED
S315080013F0E01100200080005000487047002D3101A0
S315080014004FF0B4439868C0F304400C2822D8DFE8AC
S3150800141000F0092121212121071719211B1D1F0071
S315080014200F4870479B6803F04073B3F1807F13D071
S31508001430B3F1007F12D00B4A002B08BF1046704745
S31508001440094870470948704709487047094870476E
S315080014500948704700207047084870470848704791
S31508001460405DC60000093D000024F400C0EA2101E1
S3150800147080BA8C010048E801005A620280841E0086
S3150800148040420F00014B1868704700BFE411002066
S3150800149038B50D460446C0B1012803D0022814D039
S315080014A0032803D13F23EB40DB0704D440F2CF31B6
S315080014B007483EF0A0FD3020142310FB0434054BEA
S315080014C0E058E84000F0010038BD40F2FF33EAE793
S315080014D00331050830C0035037B5046801210546B5
S315080014E03A2000F079FE002301226179207902F082
S315080014F067F961792079FFF7CBFFB0FA80F35B09CA
S315080015002370A379022B15D100F002FA2A460B495B
S31508001510607900F027FAFF28054603D14F210848CD
S315080015203EF069FD0123617920792A46CDE9003329
S3150800153002F0D0F8002003B030BD00BF3300040825
S315080015403031050810B501213A2000F045FE012387
S3150800155004220321002002F033F900203EF0B4FEF5
S315080015600122294B2949C3F844244FF40022A3F544
S3150800157050335A66D1F8FC20244C12F080721EBFF4
S31508001580D1F8FC3023F08073C1F8FC302049D1F83B
S31508001590803023F0030343F00203C1F880302AB1F8
S315080015A0D4F8FC3043F08073C4F8FC304FF4607014
S315080015B000F03EFED4F8F030164A43F00103C4F8B2
S315080015C0F030D4F8FC3000F5D52043F08073C4F829
S315080015D0FC30114B00F2FC401A60104B0222B0FBA3
S315080015E0F3F00F4B01381861C3F8F0204FF48072FE
S315080015F0C3F804234FF060430A4A0020C3F8B02F0B
S31508001600094AC3F8802E10BD00D0035000ED00E053
S3150800161000800050FF030040001000E0F8590D005C
S31508001620000004E055CEACC5090001002DE9FF47CE
S31508001630044618B92C2154483EF0DDFC2368B3F162
S31508001640B64F0AD0514A934200F0838042214E4851
S3150800165004B0BDE8F0473EF0CEBC2E20012100F0D4
S31508001660BBFD01230A226179207902F0A9F801233A
S315080016700A22E179A07902F0A3F809260127DFF802
S315080016801081DFF81091257994F805A0002D62D015
S31508001690012D03D0022D5ED0032D04D13F2323FA5A
S315080016A00AF3DA0704D440F2FE3140463EF0A3FCC2
S315080016B0302202FB059507FA0AF305F501552B605A
S315080016C0642008F047F8257994F805A0002D45D040
S315080016D0012D03D0022D41D0032D04D13F2323FA37
S315080016E00AF3DB0704D440F22D4140463EF083FC62
S315080016F0302202FB059507FA0AF305F582556420A0
S315080017002B6008F027F8013EBDD12068B0F1B64F2E
S3150800171027D10323C9F8E8346279237943EA0243D7
S31508001720C9F8EC34E279A37943EA0243C9F8F034FC
S3150800173040F20113ADF80030E36869460293A368E6
S315080017400193237C8DF80C3002F016F904B0BDE83D
S31508001750F0872F2082E740F2FF33A0E740F2FF33FD
S31508001760BDE70A4B9842E3D10323C9F8F8346279F6
S31508001770237943EA0243C9F8FC34E279A37943EAB8
S315080017800243C9F80035D3E76E31050800800650D4
S315080017900331050800C0035038B5054602F030FA93
S315080017A0044C012801D1013C00D138BD284602F07D
S315080017B015F9F6E7E193040038B50D460446B0B1CD
S315080017C0012803D0022812D0032803D13F23EB4077
S315080017D0DB0704D440F2FE3106483EF00CFC30200C
S315080017E001214443044B01FA05F51D5138BD40F269
S315080017F0FF33ECE70331050840E0035038B50D46E2
S315080018000446B0B1012803D0022812D0032803D118
S315080018103F23EB40DB0704D440F22D4106483EF057
S31508001820EAFB302001214443044B01FA05F51D511A
S3150800183038BD40F2FF33ECE70331050840D00350CA
S3150800184038B504784578ACB1012C03D0022C11D0F8
S31508001850032C03D13F23EB40DB0704D44FF4896103
S3150800186006483EF0C8FB302301225C43044BAA40DD
S315080018701A5138BD40F2FF33EDE700BF03310508C2
S3150800188040F0035070B5057804464678E5B1012D59
S3150800189003D0022D18D0032D03D13F22F240D307DF
S315080018A004D44FF483610A483EF0A5FB1023302286
S315080018B012FB0535074BEB58F34003F00100A378FC
S315080018C00BB980F0010070BD40F2FF32E6E700BFB9
S315080018D00331050830C0035070B5044601250B4E88
S315080018E004B970BD94FAA4F0B0FA80F005FA00F3D2
S315080018F006EB001224EA03045368002BF0D0117B90
S3150800190011B191689847EBE79847E9E7C83F002087
S3150800191008B5192001F088FA28B14FF00072074B74
S31508001920C3F880211A601A2001F07EFA28B14FF018
S315080019308062024BC3F880211A6008BD00E100E00E
S3150800194038B505460C463EF067FC0022044B03EB0F
S3150800195005135C601A73BDE838403EF063BC00BFEF
S31508001960C83F0020F8B505460F4616463EF054FC1B
S31508001970104B05F0FC02D3F824140023EC1804F0ED
S315080019800304144321FA04FC1CF0010F07D00133A9
S31508001990042BF3D1FF243EF045FC2046F8BDFF2C6E
S315080019A0F9D00122044B03EB0413C3E901761A7339
S315080019B0F1E700BF00C00350C83F0020074BD3F82B
S315080019C02404D3F8202403F50053104000F05530C2
S315080019D020F05020C3F82004FFF77EBF00C0035054
S315080019E0074BD3F82404D3F8202403F500531040FA
S315080019F000F0AA3020F0A020C3F82004FFF76CBF3F
S31508001A0000C00350024B1968024B18682AF038BD0B
S31508001A10EC110020E811002037B5920004460D4667
S31508001A20019251F009FB431C0BD060B929462046A8
S31508001A30019A43F025FA0028044808BF002003B09D
S31508001A4030BD0348FBE70348F9E700BF10E000F0A4
S31508001A5021E000F024E000F013B5044601A802F0E6
S31508001A600DFB9DF80630012223804FF48073002079
S31508001A706380054B9B680A3303F01F0302FA03F3DE
S31508001A80636002B010BD00BF0080E00F10B50446C9
S31508001A9051F0DAFA431C15D0B0B90C4B20469B68B6
S31508001AA00A3303F01F020123934023F00303234460
S31508001AB0984201D1002010BD50F8042B0132F7D00E
S31508001AC00348F8E70348F6E70348F4E70080E00F21
S31508001AD00EE000F021E000F024E000F008B53EF04A
S31508001AE094FB014B186008BD08480020014B186894
S31508001AF03EF08FBB08480020044BD3F88420D2065A
S31508001B00FBD4D3F88400C0F381107047004000501E
S31508001B1008B5344B984250D028D8334B984246D013
S31508001B2018D8324B98423FD00BD800283ED0304BBD
S31508001B30984239D02F4841F236213EF05CFA00200F
S31508001B4034E02D4B98422FD02C4B9842F2D12C4B97
S31508001B50586E2BE02B4B98422CD003F5371303F520
S31508001B60D8639842E6D1264B986F1FE0264B9842D9
S31508001B702FD00CD8254B984223D0254B984224D0F9
S31508001B80244B9842D6D11E4BD3F884000EE0224B44
S31508001B90984222D003F5740303F510539842C9D12D
S31508001BA0174BD3F8980001E0154B986D08BD144BF8
S31508001BB0186FFBE7124B586FF8E7114BD3F8800004
S31508001BC0F4E70F4BD3F88800F0E70D4BD3F88C00F9
S31508001BD0ECE70B4BD3F89000E8E7094BD3F89400F1
S31508001BE0E4E700BF80BA8C01405DC60080841E0011
S31508001BF040420F00CC31050800093D00C0CF6A00FD
S31508001C000080E00F0024F400007E560380D54302CE
S31508001C10006CDC020048E8010090D00338B5124B8E
S31508001C200546D3F880300C4603F00303022B0BD08D
S31508001C30032B0DD0012B0FD1FFF798FB0E2305B10F
S31508001C40286004B1236038BDFFF7DAFB0723F6E7FF
S31508001C50FFF780FB0623F2E7044841F29B013EF0BA
S31508001C60CAF900231846EAE700800050CC31050877
S31508001C7038B5194B0546D3F820310C4603F007034F
S31508001C80013B052B20D8DFE803F0030B130F171BC6
S31508001C90FFF760FB052305B1286004B1236038BD52
S31508001CA0FFF794FB0323F6E7FFF7AAFB0723F2E700
S31508001CB0FFF7A2FB0223EEE7FFF74CFB0623EAE752
S31508001CC0FFF784FB0423E6E7044841F214113EF0CB
S31508001CD092F900231846DEE700800050CC3105084B
S31508001CE038B5194B0546D3F828310C4603F00703D7
S31508001CF0013B052B20D8DFE803F003131B0F0B1756
S31508001D00FFF728FB052305B1286004B1236038BD19
S31508001D10FFF720FB0623F6E7FFF772FB0723F2E738
S31508001D20FFF754FB0323EEE7FFF750FB0423EAE72C
S31508001D30FFF762FB0223E6E704484FF472613EF0C0
S31508001D405AF900231846DEE700800050CC31050812
S31508001D50F7B50027144B0197D3F88041064604F0DF
S31508001D600304022C0D4614D0032C0DD0012C14D1DB
S31508001D70394601A8FFF77CFF10240EB1019B33609A
S31508001D8005B12C6003B0F0BDFFF73AFB07240190BC
S31508001D90F3E7FFF731FB0190EFE741F261210348D2
S31508001DA03EF029F93C46E8E700800050CC310508AA
S31508001DB0002337B50193184B0546D3F820320C4655
S31508001DC003F00703013B032B1ED8DFE803F0020EDE
S31508001DD01318002101A8FFF783FF12230DB1019AFA
S31508001DE02A6004B1236003B030BDFFF709FB07235F
S31508001DF00190F3E73EF00DF90A230190EEE7FFF7AD
S31508001E0041FB09230190E9E740F6DF6103483EF00C
S31508001E10F2F80023E2E700BF00800050CC31050845
S31508001E2038B5124B0546D3F840310C4603F0030388
S31508001E30022B0BD0032B0DD0012B0FD13EF0E9F866
S31508001E400A2305B1286004B1236038BDFFF71AFBE1
S31508001E500923F6E73EF0E0F80C23F2E7044841F2DE
S31508001E6042113EF0C8F800231846EAE70080005001
S31508001E70CC310508002337B50193184B0546D3F82E
S31508001E8060320C4603F00703013B032B1FD8DFE83B
S31508001E9003F0020E1914002101A8FFF7E9FE10232A
S31508001EA00DB1019A2A6004B1236003B030BD002148
S31508001EB001A8FFF7B5FF1123F2E7FFF7A1FA0723F9
S31508001EC00190EDE7FFF798FA02230190E8E740F65C
S31508001ED0847103483EF08FF80023E1E70080005044
S31508001EE0CC310508002337B50193184B0546D3F8BE
S31508001EF094320C4603F00703013B032B1FD8DFE897
S31508001F0003F0020E1914002101A8FFF7B1FE1023F1
S31508001F100DB1019A2A6004B1236003B030BD0021D7
S31508001F2001A8FFF77DFF1123F2E7FFF769FA0723F8
S31508001F300190EDE7FFF760FA02230190E8E740F623
S31508001F40B77103483EF057F80023E1E700800050D8
S31508001F50CC31050873B500240F4B0194D3F87032C1
S31508001F60064603F00303012B0D4607D0022B11D0BA
S31508001F7040F6E27109483EF03EF804E0214601A821
S31508001F80FFF74EFF11240EB1019B336005B12C609B
S31508001F9002B070BD1524F6E700800050CC31050864
S31508001FA038B5154B0546D3F800320C4603F007033F
S31508001FB0013B032B18D8DFE803F0020A0E123EF0A5
S31508001FC028F80A2305B1286004B1236038BDFFF755
S31508001FD059FA0923F6E73EF01FF80C23F2E7FFF754
S31508001FE0DFF90F23800AEDE7044841F217313EF086
S31508001FF002F800231846E5E700800050CC310508B2
S3150800200038B5154B0546D3F808320C4603F00703D6
S31508002010013B032B18D8DFE803F0020A0E123DF045
S31508002020F8FF0A2305B1286004B1236038BDFFF71D
S3150800203029FA0923F6E73DF0EFFF0C23F2E7FFF74D
S31508002040AFF90F23800AEDE7044841F24B313DF022
S31508002050D2FF00231846E5E700800050CC3105087A
S3150800206038B5124B0546D3F840320C4603F0030345
S31508002070022B0BD0032B0DD0012B0FD13DF0C9FF3E
S315080020800A2305B1286004B1236038BDFFF7FAF9C1
S315080020900923F6E73DF0C0FF0C23F2E7044841F2B6
S315080020A0DA213DF0A8FF00231846EAE70080005031
S315080020B0CC31050838B5124B0546D3F860310C46C5
S315080020C003F00303022B0BD0032B0DD0012B0FD1EA
S315080020D03DF09FFF0A2305B1286004B1236038BD8F
S315080020E0FFF7D0F90923F6E73DF096FF0C23F2E750
S315080020F0044841F270113DF07EFF00231846EAE7D6
S3150800210000800050CC310508B0F5207F10B52ED0E0
S3150800211009D8B0F5007F24D003D868B1B0F5C07FE0
S315080021200AD000241BE0B0F5607FFAD1124BD3F831
S315080021308040C4F3011412E00F4B1C6F230B13F0FD
S315080021400E0FC4F303340AD0032C08D0072C06D08C
S315080021500F2C04D04FF41D7108483DF04CFF601C4D
S3150800216010BD054BD3F89040C4F30464F7E7024B5F
S315080021701C6FC4F38024F2E700800050CC310508B8
S315080021804FF4803238B5104B04469A6600200D4647
S31508002190FFF7BAFF41F671320C4B6043DC69DA632C
S315080021A05A6804F4803422F440125DB9084988421A
S315080021B08CBF4FF480100020104358600CB10022E9
S315080021C0DA6338BD0349F2E7009000500000035077
S315080021D0005A6202002D310170B5440905460E46C3
S315080021E00ED140F21B310F483DF005FF05F01F05E3
S315080021F0AEB104F58053012000FA05F51D6070BDE7
S31508002200012C08D0022C08D040F2253105483DF0B3
S31508002210F2FE0024EAE7044CE8E7044CE6E704F596
S315080022200053E8E7CC310508648000506880005008
S31508002230002130B5802885B00446CDE9001100F0AC
S315080022409F8035D85E2846D85E2844D8DFE800F057
S315080022509E434343434343434343434343434343E5
S315080022604343434343434343434343434343434330
S315080022709EAA9EAAB9B9B9B9B9AAC350D97450AA1F
S31508002280AAAA4343434343434343AAAAAA7CE3AACD
S3150800229043434343434343434343434343B99E9ED4
S315080022A09EDE5050E88B61BE4343434343939E00F2
S315080022B0B0F5B06F00F08F8030D8B0F5207F71D0C0
S315080022C00FD8B0F5C07F61D0B0F5007F61D0B0F50A
S315080022D0807F00F085804FF48F6154483DF08BFE77
S315080022E051E0B0F5607F67D00DD8B0F5407FF2D1E8
S315080022F0FFF756F804464FF42070FFF705FFB4FBC6
S31508002300F0F040083EE0B0F5806F5AD0B0F5A06F07
S31508002310E1D100216846FFF74BFD34E0B0F5106FB8
S3150800232074D016D8B0F5E06F75D00AD8B0F5C06F7E
S3150800233067D0B0F5D06FCED100216846FFF730FEE2
S3150800234021E0B0F5F06FC6D100216846FFF7B2FE6E
S3150800235019E0B0F5406F39D00AD8B0F5206F5FD0D4
S31508002360B0F5286FB7D100216846FFF7F3FD0AE0FC
S31508002370B0F5486FAFD100216846FFF7B3FD02E01C
S31508002380FEF7F4FF0090009805B030BDFFF708F897
S31508002390F8E7FEF7EBFF05462046FFF7B5FEB5FB67
S315080023A0F0F0EFE7FEF7FCFF04464FF42070FFF766
S315080023B0ABFEB4FBF0F0E5E701A8FFF72FFC019DA3
S315080023C0EAE700216846FFF753FCDCE70021684688
S315080023D0FFF786FCD7E700216846FFF7B9FCD2E786
S315080023E04FF0E02302911B695B0705D5FEF7D8FF7E
S315080023F00290029B0093C6E703A902A8FFF710FD07
S31508002400F7E700216846FFF70BFDBCE700216846A1
S31508002410FFF7F6FDB7E700216846FFF721FEB2E7AA
S3150800242000216846FFF726FDADE700BFCC31050859
S3150800243008B58020FFF7FCFE034B98429EBF4FF479
S315080024408032024B1A6708BD005A620200A000508B
S315080024501FB50023B0F5807F019300F0C38064D8D0
S315080024605D2855D84C2806D82D2847D823282BD898
S3150800247040F25951A5E04D381028F9D801A353F870
S3150800248020F000BFDB25000871240008712400082D
S31508002490712400088D25000871240008712400089D
S315080024A061260008AB2500085125000857260008B4
S315080024B0712400087124000871240008712400089A
S315080024C0712400086B26000824380928D0D801A3EF
S315080024D053F820F0DB250008DB250008DB2500087B
S315080024E0DB250008DB25000871240008CB25000839
S315080024F0712400086D250008112600083D2800F003
S3150800250082803E28B4D1002001A9FFF7A9FD60E02A
S315080025108028ADD1574B1B6F03F00703013B032BF4
S315080025204DD8DFE803F04A47878FB0F5F06F6AD0D9
S3150800253021D8B0F5B06F48D00FD8B0F5607F00F05D
S31508002540858095D3B0F5806F47D0B0F5A06F8FD151
S31508002550002001A9FFF72CFC3BE0B0F5D06F57D05F
S31508002560B0F5E06FCFD0B0F5C06F81D1002001A9DA
S31508002570FFF756FC2DE0B0F5206F71D00BD8B0F5FB
S31508002580086F4AD0B0F5106F7FF472AF002001A92A
S31508002590FFF736FD1DE0B0F5406F5CD0B0F5486F2B
S315080025A063D0B0F5286F7FF463AF002001A9FFF769
S315080025B0D1FC0EE0052301930BE00223FBE740F272
S315080025C0AA412D483DF017FD03E0002001A9FFF7B9
S315080025D0BFFB019805B05DF804FB002001A9FFF7D1
S315080025E047FBF6E702934FF0E0231B695B0705D527
S315080025F0FEF7D6FE0D230393039BDCE703A902A887
S31508002600FFF70EFCF8E7002001A9FFF753FDE0E706
S31508002610002001A9FFF7C4FCDBE7164BD3F800310D
S3150800262003F00303022B07D0032B09D0012B0BD190
S31508002630FEF7CCFE0323BEE7FEF724FF0923BAE71D
S315080026403DF0E5FC0823B6E70123B4E7184601A9DF
S31508002650FFF7E4FABDE7002001A9FFF741FBB8E759
S31508002660002001A9FFF706FCB3E7002001A9FFF740
S3150800267039FCAEE700800050CC31050808B5FFF7F5
S31508002680E7FE092811D00A38012811D84FF480022C
S31508002690094B4FF6FF705A6603F5D8335B6A13F099
S315080026A0010F18BF4FF4FA7008BD044B1888FBE7F2
S315080026B04FF6FF70F8E700BF00900050F8160020AC
S315080026C038B5036804460F2B04D940F6F8217A4832
S315080026D03DF091FC63680F2B04D940F6FB21764840
S315080026E03DF089FCA3680F2B04D940F6FE217248F9
S315080026F03DF081FC237B0F2B04D940F601316E484F
S315080027003DF079FC637B0F2B04D940F604316A4807
S315080027103DF071FCA37B3F2B04D940F60731664890
S315080027203DF069FCE37B3F2B04D940F60A31624849
S315080027303DF061FC2369032B04D940F60D315E4850
S315080027403DF059FC6369032B04D94FF431615A48AB
S315080027503DF051FCE369032B04D940F61331564882
S315080027603DF049FC8020FFF773FE032800F08380C4
S315080027704FF48012514B4FF0A0615A6645F60E038E
S315080027804F4AC2F880304F4B99624FF4803103F5B7
S3150800279080539962916D11F48031FBD1D4E900031D
S315080027A01B0543EA0063E07B0343207B43EA0043BF
S315080027B0607B43EA0033A07B43EA80131361906988
S315080027C0D4E904531B0643EA856300F0004003433B
S315080027D0A07EE57E0343207E43EA0043607E43EA0B
S315080027E000239361E069136A00280CBF00220822BF
S315080027F023F00F0343EA000343EA850343EA02038F
S315080028002F4A314D136237D194F82430916A94F8DF
S315080028102000DB000D4043EA401394F821102B43B7
S3150800282043EA011343F480339362284B916D33EAEC
S315080028300101FBD14FF08071224881621369A568B6
S3150800284023F4700343EA055313614FF00043836191
S3150800285094F822300BB91E4B996294F823301BB9B1
S315080028604FF480321A4B9A6294F825301BB1144BF8
S31508002870184AC3F8802038BD022808D111611648C5
S3150800288091614FF408524FF47F413DF085FC0C49A5
S3150800289094F822308A6A94F820001B06154043EA09
S315080028A0401394F824202B4343EAC20394F82320C8
S315080028B043EA02438B62D7E7CC3105080090005003
S315080028C00040005A0050005AC7FFFEFE03000100F0
S315080028D00060005AF1A7FFFF3440005A014B93F9F4
S315080028E00000704720170020436810B5072B0446E0
S315080028F004D940F6C3412A483DF07DFBA368032B63
S3150800290004D940F6C54126483DF075FB2378032BCC
S3150800291004D940F6C74122483DF06DFB94F90130D1
S31508002920002B04DA40F6C9411D483DF064FB4FF41C
S3150800293000011C4A637851664FF4D151022002F512
S31508002940B832516218494F2B48604FF0010028BF32
S315080029504F2301F5805148601169C903FCD42178D9
S3150800296043EA01235361D4E901131B0143EA012316
S31508002970617B0B43217B43EA41039360E37BA17BA5
S315080029801B0143EA4113617C0B43217C43EA410363
S315080029905360A37C13B16FF4D153536210BD00BFCB
S315080029A0CC3105080090005000100250014B1880E9
S315080029B0704700BFF81600204FF4800208B5184B80
S315080029C05A660223174A5360936813F48033FBD17F
S315080029D0012822D1FEF7FAFC134B984215D003F5CD
S315080029E0122303F5F863984213D0104B00EB8002CC
S315080029F0400AB3FBF0F0520A0A4BDA620122186366
S31508002A005A620022074B5A6008BD45F67A10084AF2
S31508002A10F2E745F61A00074AEEE75362F1E700BF08
S31508002A20009000500040025000F049026466666655
S31508002A30D8B80500BBCF0500B0F5207F38B577D0EC
S31508002A400ED8B0F5007F61D003D890B3B0F5C07F3B
S31508002A502FD040F2FE21BDE838403D483DF0CBBAC4
S31508002A60B0F5607FF5D13B4A4C1ED2F8FC5015F004
S31508002A7080751EBFD2F8FC3023F08073C2F8FC3094
S31508002A80032C04D940F2DF2131483DF0B4FA324B29
S31508002A90D3F8801021F0300141EA0411C3F8801000
S31508002AA035B12C4AD2F8FC3043F08073C2F8FC30BA
S31508002AB038BD102901F1FF3404D8284B23FA01F157
S31508002AC0CB0704D440F2B52121483DF094FA3DF0F5
S31508002AD074FB3DF080FB4FF48031214B1E4A196789
S31508002AE0136F23F4704343EA04331367FEF758FC65
S31508002AF00446FFF701F8C0F1020120463DF065FBE8
S31508002B0000F040F8BDE83840FFF792BC4C1E1F2C79
S31508002B1004D940F2F2210E483DF06DFA0E4BD3F877
S31508002B20901021F0F85141EA0461C3F89010BFE70C
S31508002B304C1E012C04D94FF43E7105483DF05BFA52
S31508002B40054B196F21F4806141EA84211967AFE7C3
S31508002B50CC31050800ED00E00080005016010100A8
S31508002B600090005008B50121022000F0C1F93DF09F
S31508002B7024FB3DF030FB4FF48032014B1A6708BD49
S31508002B800090005008B54FF4C070FFF751FBBDE840
S31508002B900840044988428CBF022101214FF4207065
S31508002BA0FFF74ABF80F0FA024FF4C02201212DE94F
S31508002BB0F0470446924B5A66924A03F598335E6884
S31508002BC051605D6815F00205FBD122688E4B9A426A
S31508002BD004D840F6EB118D483DF00DFA22688C4B6F
S31508002BE09A4204D940F6EC1188483DF004FAA388C5
S31508002BF0B3F5967F04D840F6EF1184483DF0FBF90B
S31508002C00A388B3F5805F04D34FF41F617F483DF076
S31508002C10F2F9E388B3F5805F04D340F6F1117B48F7
S31508002C203DF0E9F9FEF768FF0128206809D1794BDC
S31508002C30984206D940F6F61174483DF0DCF90020B2
S31508002C408DE0754A002311461768B84202D35768C3
S31508002C50B84205D90133192B02F11002F4D1002329
S31508002C6001EB0313D3E9028028B1FEF751FF00F008
S31508002C707F0048EA00088020FFF7EAFB052874D1A0
S31508002C803DF09BFA3DF0A7FA4FF480325C4B4FF4C7
S31508002C90C0701A67FFF738FA0128054661D1022184
S31508002CA04FF4C070FFF7C8FE0127DFF87891D9F80E
S31508002CB00C2012F00602FAD1D9F808A0C9F8088043
S31508002CC0D9F8083008F4F81803F4F813984560D0D2
S31508002CD040F63D214D483DF08EF916F001064FF0BD
S31508002CE00108C9F808A07CD18020FFF7B1FB0528A8
S31508002CF02ED127B129464FF4C070FFF79DFEFEF787
S31508002D004FFB23680546834204D240F671213F48AB
S31508002D103DF071F9FEF71EFBA84204D240F6722177
S31508002D203A483DF068F92468FEF714FB844204D05B
S31508002D3040F6732135483DF05EF9FEF7DDFEC0F139
S31508002D40020128463DF041FAFFF71CFFFFF770FB2A
S31508002D50B8F1000F7FF473AF731E58425841BDE8AF
S31508002D60F087022801D104219AE700279DE7092B5D
S31508002D7007D12A49D1F8003123F0030343F00203AF
S31508002D8017E0082B17D12549D1F8003143F0030382
S31508002D900FE0A188E38843EA01432149CB60A36891
S31508002DA0032BE4D11D49D1F8003123F0030343F086
S31508002DB00103C1F80031237D207B002B637D14BFFE
S31508002DC004210021002B18BF402223694FF0000878
S31508002DD043EA40030B431343114A93602068FEF706
S31508002DE0BFFA0722074B1A610122A3F580535A60DE
S31508002DF0A3F580531E6916F00706FBD074E700BFDB
S31508002E000090005000E001509FBB0D00CC31050832
S31508002E1000B4C404005A6202F83105080080005064
S31508002E2000C001500000015038B5C5B24B2D04460C
S31508002E3004D940F21F3107483DF0DDF8064B640916
S31508002E4053F8240005F01F05E840C04300F00100D0
S31508002E5038BD00BF8833050800E100E0024A536B1D
S31508002E600342FCD1704700BF00400950044A41782C
S31508002E70536F23F4407343EA01235367704700BF37
S31508002E80004000500A4A10B51369044643F004038B
S31508002E90136106F069F83DF0C8F930BF3DF0C6F990
S31508002EA006F076F81CB9BDE81040FEF779BA10BDF1
S31508002EB000ED00E0084A10B51369044643F0040320
S31508002EC0136106F051F830BF06F062F81CB9BDE888
S31508002ED01040FEF765BA10BD00ED00E0034A01791F
S31508002EE0D36E23F030030B43D3667047004000507F
S31508002EF02DE9F0410446264BD3F88420D006FBD4AE
S31508002F00D3F88430C3F381139C423ED0FEF72EFAE1
S31508002F10012C05460BD11F4B984204D940F23C714F
S31508002F201D483DF068F8012128463DF04EF93DF070
S31508002F306CF94FF00072194B07465A6620463DF069
S31508002F4078F94FF48063124E621E9340DFF848808A
S31508002F503367736E9A0103D4D6F884309B060AD574
S31508002F6038463DF056F9022C0FD12846BDE8F04107
S31508002F7000213DF02AB9D6F884309906E9D540F201
S31508002F804A7140463DF037F8E3E7BDE8F08100BFF7
S31508002F9000400050005A6202B53305080060005030
S31508002FA007B518B90191FEF7E1F90199064B1B78A7
S31508002FB043B1064B984205D8012003B05DF804EBEF
S31508002FC0FFF796BF0220F8E7E9810020005A62025F
S31508002FD00278034B012100201A70FFF7E1BF00BFFA
S31508002FE0E98100204FF00042154B10B55A664AF6A3
S31508002FF0CD3314494C6C0B6404F0010488B90120E4
S31508003000FFF72CFF4B68DB0704D50F4B58600B6B9B
S31508003010D807FCD514B10B4B0C4A1A644BF02EFF9B
S3150800302010BD0B6B1A07FCD42022074B9A620122AB
S31508003030A3F580535A60034A936A9B06FCD5E9E7D1
S315080030400090005000400950006009503254FFFFBC
S315080030504FF0004238B5164B01465A664AF6CD334C
S31508003060144C154A656C236443780B205B0043F0C7
S315080030700103D363FFF7F2FE63688A7823F4F873D3
S3150800308043EA02136360CA784B7943EA0223A360D2
S315080030900A798B7943EA022323610878FFF7A2FFAE
S315080030A0EB0744BF054B23644BF0E8FE012038BD0F
S315080030B00090005000400950004000503254FFFF75
S315080030C00F2870B5044604D940F6C25113483CF09F
S315080030D092FF4FF00042124B12495D6E03F5805382
S315080030E05A664AF6CD334E6C80200B64FFF7B6FE5F
S315080030F00B6A23F00F030F2C94BF234343F00F03EF
S315080031000B62F30744BF084B0B64002DA2BF4FF0B8
S315080031100042064B5A664BF0B1FE70BDB533050842
S3150800312000800050004009503254FFFF00A00050B4
S315080031304FF00042104B70B55D6E03F580535A662A
S315080031404AF6CD3304460D4980204E6C0B64FFF7D2
S3150800315085FE0B6A23F4F85343EA04230B62F3074C
S3150800316044BF074B0B64002DA2BF4FF00042054B2E
S315080031705A664BF083FE70BD00800050004009502F
S315080031803254FFFF00A0005010B53DF057F8042355
S3150800319000F5805100F500520B6113610B61136154
S315080031A00B6113610B611361202341F20201036174
S315080031B00023C360836041614FF4A0218361836566
S315080031C041620549C36103628362C362436303655F
S315080031D0D164036310BD00BFFF3F0D0338B5174B1D
S315080031E0044698420D4607D0154B984204D040F243
S315080031F0651114483CF0FFFE25B92046BDE8384065
S315080032003DF01CB8012204F580535A6040F6FF7160
S31508003210204605F00F023DF00DF8A26378213DF037
S3150800322009F805F001036A0748BF43F00203A26CD8
S3150800323002F003029A42FAD138BD00BF0000015BD2
S3150800324000000A50E13305082DE9F04105460C4611
S31508003250174622B940F212216D483CF0CCFE6D4B60
S315080032609D4200F0C9806C4B9D4200F0CA8040F236
S31508003270152167483CF0BFFE44B94FF459716448BC
S315080032803CF0B9FE2046FEF7D3FF0446AB68D807E4
S3150800329044D5BC4204D240F21F215D483CF0ABFE47
S315080032A06B6803F00108B4FBF7F35C1EFF2C04D926
S315080032B040F2272156483CF09EFEB8F1000F2BD06D
S315080032C0282128463CF0B6FFAB6C99071ED1AB6C9B
S315080032D0DA071DD4AE6C16F002061BD14FF40D7139
S315080032E04B483CF088FE28463CF0A8FF2B6923F0A3
S315080032F07F4343EA04632B61B8F1000F00F0868030
S3150800330031462846BDE8F041FFF768BF0526EAE7DB
S315080033100926E8E70626E6E74646E7E76B68012B4F
S3150800332004D040F247213A483CF065FEAB6DA968E7
S31508003330DB0701F0E00148BF7F00402946D009D8E5
S31508003340B9B1202938D040F28921BDE8F04130488A
S315080033503CF051BE602945D08029F4D107EB4703DC
S31508003360A34204D940F2832129483CF044FE0123B4
S3150800337008E0B7EB141F04D940F26F2124483CF04B
S315080033803AFE10237B436401B4FBF3F3234E203B40
S31508003390B6EBC30F4FEAC30404D24FF425711C4899
S315080033A03CF029FE2846344001213CF043FF2C63BB
S315080033B0BDE8F0413CF03EBFB7EBD40F04D94FF45B
S315080033C01D7113483CF017FE0823DBE70626B4FBFD
S315080033D0F6F3BB4204D240F279210D483CF00BFECD
S315080033E03346CFE7B7EB940F04D940F27E2108485D
S315080033F03CF001FE0423C5E7002C7FF447AF5624B2
S3150800340040E7002C7FF442AF57243BE7BDE8F08144
S31508003410E13305080000015B00000A50F8FF7F0051
S31508003420774B70B5984204460D4606D0754B9842C0
S3150800343003D0DF2174483CF0DEFD1DB9E121724856
S315080034403CF0D9FD6A7BAB687AB1704A934203D9DE
S31508003450E3216D483CF0CFFD2B69D3B1DB7BC3B1CB
S31508003460E62169483CF0C7FD13E0694A934203D94F
S31508003470E92165483CF0BFFD2B6953B11A7F42B17B
S31508003480A968644A5B7F914240F2A080042B00F24F
S31508003490A08063682E6923B140F6FF7120463CF090
S315080034A0C9FE2046FFF770FE22696B7BA97B22F0D6
S315080034B087020B43134343F08003236116B32A693B
S315080034C02369117823F0F8030B43117F43EAC113EC
S315080034D0117943EA4113517A43EA0113D17B43EA4E
S315080034E081132361E168D2E9053021F0F04121F426
S315080034F0702103430B43117B527B43EA812343EA42
S31508003500C233E360A368EA7B23F00303134343F063
S315080035100103A3602EB32A69A168538803F4C04344
S315080035200B43A3605179A36843EA8123A360937987
S31508003530D079616A1B01000203F0700300F4E060B1
S3150800354021F4772121F4EE6103430B43117A527F6C
S31508003550090301F4E04112040B4302F470221343F9
S31508003560636263692A7B23F00F0313436361B6B171
S315080035702B695A89A2615A7B3AB1214A94422AD1C7
S315080035809A7B254902F00F024A67DA7B3AB11C4A50
S3150800359094422AD11B7C204A03F00F031367D5E90E
S315080035A001122046FFF750FE05212046FFF716FEBA
S315080035B0282120463CF03EFE2B78A3633CF03AFED9
S315080035C0A36CDB4313F4405FFAD170BD042B3FF6BE
S315080035D060AFF02145E70B4A944201BF9A7B0E493A
S315080035E002F00F02C1F88020CFE7064A944201BFD5
S315080035F01B7CA2F5CE2203F00F03D367CFE700BFEB
S315080036000000015B00000A50E1330508002D310176
S31508003610809698003F4B4C00009003501F2970B5C8
S3150800362004460D46164603D9912107483CF0E3FCAB
S3150800363036B104F58054012101FA05F5256070BDFF
S3150800364004F50054F7E700BF1034050838B50D46F1
S315080036500446B0B1012803D0022812D0032803D1AA
S315080036603F23EB40DB0704D440F22D4106483CF0EB
S31508003670C2FC302001214443044B01FA05F51D51D3
S3150800368038BD40F2FF33ECE70331050840D003505C
S3150800369038B50D460446B0B1012803D0022812D029
S315080036A0032803D13F23EB40DB0704D440F2FE3165
S315080036B006483CF0A0FC302001214443044B01FAA3
S315080036C005F51D5138BD40F2FF33ECE70331050817
S315080036D040E003502DE9F3470D4614461E46814641
S315080036E09DF828809DF82C70002843D0012803D027
S315080036F002283FD0032803D13F23EB40DB0703D43E
S31508003700BF2126483CF077FC85EA040333F003031F
S3150800371003D0C12121483CF06EFC072C4FF0030171
S3150800372005F0030529D84FEA840A01FA0AF11C486C
S3150800373009FA0AF201913CF0B6FD0199194805FA11
S315080037400AF23CF0B0FD324621461748FFF766FFFD
S31508003750424621461548FFF761FF0123144AA34054
S31508003760C2F8203421463A46124802B0BDE8F0476E
S31508003770FFF754BF40F2FF33BFE7A4F1080A4FEA48
S315080037808A0A01FA0AF10C4809FA0AF201913CF090
S315080037908AFD0199094805FA0AF2D2E73C34050878
S315080037A000C4035008C4035010C4035014C4035083
S315080037B000E0035024C4035004C403500CC403504F
S315080037C02DE9F0410D46174698460446002835D09F
S315080037D0012803D0022831D0032803D13F23EB4028
S315080037E0DB0704D44FF4B0711A483CF004FC37B137
S315080037F029462046B8F1000F23D0FFF727FF0F21EF
S31508003800072D04EB440688BFA5F108034FEA061600
S31508003810114895BFAB009B0004360C3607FA03F235
S31508003820994030443CF03FFD97B929462046B8F107
S31508003830000F09D0BDE8F041FFF708BF40F2FF339B
S31508003840CDE7FFF725FFDAE7BDE8F041FFF720BF30
S31508003850BDE8F0813C34050830C00350F8B506468B
S315080038600C4615469ABB40F20F11BDE8F8402F48A2
S315080038703CF0C1BB2E4B9E4201D12F203DE040F2C9
S3150800388029112A483CF0B7FB3AE0032F42D0294BCE
S315080038903CE06FEAC50505442C44B4FBF0F4013C52
S315080038A00AD540F2751121483CF0A5FB4FF4BB71CF
S315080038B01E483CF0A0FB02E0B4F5007FF6D2B368E0
S315080038C09B0702D5002C08BF0124B461F8BD03F09C
S315080038D00307836823F4407383603CF096FCB26860
S315080038E082EA072303F440735340B3603CF091FC2B
S315080038F034B9B6F1B64FBDD12E20FEF799FC044671
S31508003900B3689A07C1D5032F04D00B4B53F8273059
S315080039109C4204D84FF4AF7104483CF06CFB074B4B
S31508003920D85D6843B5D140F26F119EE76934050842
S3150800393000800650A434050898340508B0340508F4
S31508003940B0F1B64F38B504460D4607D0084B984235
S3150800395004D040F28F1107483CF04DFB043425B1E2
S3150800396004F580540123236038BD04F50054F9E7B3
S315080039700080065069340508B0F1B64F38B50446DC
S315080039800D4607D0124B984204D04FF4D271114815
S315080039903CF031FB0023104A236404F50053DA6334
S315080039A06A7804F108037AB903F5805302221A608B
S315080039B02046D5E901122B7BFFF750FF20462978D0
S315080039C0BDE83840FFF7BCBF03F50053EEE700BF7C
S315080039D00080065069340508FFFF1F00B0F1B64F96
S315080039E02DE9F8430BD0824B984226D0814840F205
S315080039F0FB113CF000FB6FF00300BDE8F8837E4B3B
S31508003A00402505264FF000084FF0030C996800F58D
S31508003A100054C26B12F4C06F15D097050FD5FD225E
S31508003A205A7009221A700022026493F901100129BA
S31508003A3000D15A7093F90100DFE7704BE0E75605AD
S31508003A40EFD5FE22ECE71F78082F00F2CD80DFE8DD
S31508003A5017F009001F0041004C0069007400960029
S31508003A609E00C2004C880A88E5060AD5120A02F0AA
S31508003A70060242F0F002012119704263C16001207A
S31508003A80BBE702F0FE02A10748BF42F00102F2E7D7
S31508003A90170607D5802100F50052D1634FF6087244
S31508003AA01A8062E05206EAD54A88E563D70604D545
S31508003AB002221A700B784363E1E7920765D507225D
S31508003AC01A701B7901EBC3010B89012BD7D1082387
S31508003AD0C360D4E71706DDD45206D0D54A88E56315
S31508003AE0970752D583F800C093E74C880A88E506FD
S31508003AF043BF120A02F0060242F0F00202F0FE028A
S31508003B00640709D51C7942F0010201EBC401098951
S31508003B10012904BF0821C160042119700123C3606B
S31508003B204263ACE71706B5D45706A8D54A88E563B5
S31508003B3052072AD507221A70A1E71A795F8801EB7E
S31508003B40C20EBEF80890B94511D80132D2B21A7120
S31508003B504F88A3F8028017F0040FC3D1FF0702D4D9
S31508003B60012A7FF656AF08221A700223B0E7DEF85C
S31508003B700420791C5980D25D42630622DBE71706CA
S31508003B8088D457067FF57BAFE5631E7041E7940638
S31508003B907FF575AF20261A7900F5005401EBC201AE
S31508003BA00A89456AE6635C88A24281BF4968661C41
S31508003BB05E800D5559888A42D5D90424012AC460E5
S31508003BC004D9013A914201D10822C2601A78092A19
S31508003BD03FF429AF53E7D2057FF551AF4FF4807113
S31508003BE000F50052D1631CE74FF609321A801AE72E
S31508003BF00080065069340508BC480020C8480020E3
S31508003C00B0F1B64F38B504460D4644D0254B984218
S31508003C103ED040F25E3124483CF0EDF9002D3DD10E
S31508003C2040F25F3120483CF0E6F9B4F1B64F28D1AE
S31508003C301E4B2269D00744BF2022E2606A8891079A
S31508003C4001D5298951B3520701D52A8A32B34FF4CF
S31508003C5080721A6000229D601A71C023E36063694E
S31508003C60DB0513D4202204F50053DA63104A2046F4
S31508003C70DA63236C43F4FC632364BDE83840FFF73A
S31508003C80ADBE084B9C4209D10A4BD2E7636AE6E708
S31508003C900029F9D1C4E70029CAD1C1E76FF00300AA
S31508003CA038BD00BF0080065069340508BC480020AE
S31508003CB0FFFF1F00C84800202DE9F0410126C3B2C6
S31508003CC0072805460C46904606FA03F603DDEC215E
S31508003CD036483CF090F91CB9ED2134483CF08BF994
S31508003CE0236823F47C1323F00F031BB1F0212F481C
S31508003CF03CF081F9A37A1B0413F47C0F04D040F23C
S31508003D0009112A483CF077F9E37A1B0513F07E6F10
S31508003D1004D040F20B1125483CF06DF9237B5B0576
S31508003D2013F0FE5F04D040F20D1120483CF063F911
S31508003D3030201F4F1F4B617B1E65AB0000FB0575CE
S31508003D40226803F1A04303F588235A602966E37ABB
S31508003D50A27A1B0543EA0243227B43EA425328F030
S31508003D600302EB652A673CF057FA7B6D33437B65A4
S31508003D70237A13B13B6C33433B64637A13B1BB6B51
S31508003D803343BB632279A37943EA0243094A936121
S31508003D906179E37943EA014307498B61044B56632A
S31508003DA09E64BDE8F0413CF03DBA00BFB434050856
S31508003DB000000450002004500010045010B50124DF
S31508003DC0C3B2072804FA03F404DD40F29711074842
S31508003DD03CF011F93CF020FA054B5A6D22EA040230
S31508003DE05A659C62BDE810403CF01CBAB43405081C
S31508003DF00000045010B50124C3B2072804FA03F4DE
S31508003E0004DD40F2B5110A483CF0F5F83CF004FA36
S31508003E10084BDA6A224209D15B6B34EA03030CBF0A
S31508003E20012400243CF0FEF9204610BD0024F9E7E1
S31508003E30B4340508000004504FF48032054B9A66E6
S31508003E4041F6713203F51C33DA63012203F5005398
S31508003E50DA6070470090005041F671320121064B36
S31508003E60DA6303F50052D1600022DA634FF4803238
S31508003E70A3F518339A66704700000350242808B53E
S31508003E801AD820280BD812281ED011D878B10128A4
S31508003E901CD01048B6213CF0AEF8002007E02238C6
S31508003EA0022803D8DFE800F0140C0E00012008BD34
S31508003EB01428EED10820FAE73228EAD10620F6E7D8
S31508003EC00420F4E70520F2E70720F0E70320EEE7F1
S31508003ED00220ECE70D350508142810B50C4620D04D
S31508003EE005D8012811D0122814D0204610BD242840
S31508003EF008D82028F9D9042CF7D9F6210E483CF021
S31508003F007AF8F2E73228F6D0EFE70229EDD940F23F
S31508003F100711F3E702290BD003290BD04FF48B7155
S31508003F20ECE7022904D0032904D040F22511E5E77D
S31508003F300024DAE70124D8E70D350508021E30B556
S31508003F404FF000000CBF1025042547F607740849F2
S31508003F5052B9831D51F82330234023B101308542DD
S31508003F60F6D14FF0FF3030BD00F11603F2E700BF7F
S31508003F7000800350F8B50546C2F3062702F0070489
S31508003F8079B90F2804D94FF4FC7111483CF033F87D
S31508003F90104B44EA072444F44024063543F82540E8
S31508003FA0F8BD032804D940F2FD1109483CF023F86E
S31508003FB021463846FFF790FF06463846FFF75EFF6C
S31508003FC0044B46EA0020163543F82500E8E700BF0B
S31508003FD00D35050800800350B2F5805F70B50546BB
S31508003FE00E4614460DD34FF40B7108483CF003F8FF
S31508003FF024F0030202F1A04202F5603226B91560E8
S3150800400001E0002AF4D170BD2D02F8E70D35050848
S31508004010C369032B03D9F62104483BF0ECBF00EB38
S3150800402083020133D160C361704700BF3935050883
S31508004030C369042B16D84FF09842116CC902FCD5F7
S3150800404004339B0013650168103B116041680C300E
S31508004050116050F8041C034411604FF098429842CE
S3150800406005D1704740F20F1103483BF0C4BF50F822
S31508004070041B1160F3E700BF393505084FF4803299
S31508004080064B5A6603F5E6239B69C3F385128270CD
S3150800409003F03F021B0B42700370704700900050FC
S315080040A040F6B732064B5B689BB293429FBF4FF40C
S315080040B07A72B3FBF2F3034AD05C88BF00207047DC
S315080040C00080E00F643505080123064A411100F017
S315080040D01F0003FA00F052F82130184342F8210075
S315080040E0704700BFD4480020044B1B681BB1044B23
S315080040F00360002070470120704700BFE448002095
S315080041003C81002070B50D4C246884B10C4C851890
S315080041102688B5420DDC6688CD18B54209DC52B151
S315080041204BB1A0800020E1802281638170BD01200F
S31508004130FCE70420FAE70520F8E700BFE44800207A
S315080041403C8100202DE9F74F1E46424B90461B68DE
S31508004150002B79D0DFF804A1BAF80A20BAF808408B
S31508004160531A63431B1AB34270D300244FF0010954
S31508004170BAF806301A4492B25F180192BFB21EB955
S31508004180304603B0BDE8F08F019ABBB293425FD2C6
S31508004190BAF80850304B2D1AB54228BF354603EBFE
S315080041A00712BAF80430761B184483B2400703D1C5
S315080041B0610701D1072D26D81D441B1B191989B281
S315080041C0A94205D33846FFF77FFF01370020D6E717
S315080041D04FEAE40E18F80EE04FEAD10C04F0070B8C
S315080041E001F0070112F90C0009FA01F14EFA0BFE6B
S315080041F049B21EF0010F14BF014320EA010102F87B
S315080042000C100134DAE702EBD3034FEAD50B5A4612
S31508004210184608EBE40140F043FE25F00702AD1A04
S3150800422003461444CED0E01009FA05F218F8000047
S31508004230D2B2511E014013F80B00524202400A4303
S3150800424003F80B202C44BDE7012699E7032697E7D8
S31508004250042695E7E4480020EA8100203C810020F6
S315080042602DE9F74F0093444B1B68002B7FD04FF086
S31508004270010BDFF80C910D9FB9F80630B9F80A2042
S315080042805D181A441FFA82FAADB21FB9384603B050
S31508004290BDE8F08FABB29A456BD9384AB9F80840F1
S315080042A002EB0511241A009ABC4228BF3C46161E8A
S315080042B018BF0126B9F8043076420344072CA7EB49
S315080042C004079BB2F6B221D81C44BEB9A34217D242
S315080042D0DE0803F007020BFA02F08A5D013322EAD0
S315080042E000028A559BB2F1E7D8080E5C03F0070274
S315080042F00BFA02F2324301330A549BB2A342F3D3B8
S315080043002846FFF7E1FE01350020BEE74FEAD30C49
S3150800431001EBD30813F0070310D00BFA03F211F8D8
S315080043200CE0D2B2501E52420EEA00003240104350
S31508004330083B01F80C0008F101081C44E20809D002
S3150800434031464046019240F0D2FD14F00704019A26
S31508004350D6D090440BFA04F498F80030E4B26242DE
S31508004360013C134034401C4388F80040C8E7012745
S315080043708CE704278AE700BFE4480020EA8100208A
S315080043803C81002037B5124D2B68FBB9FCF7A8FE17
S31508004390044618B10124204603B030BDFCF794FE4C
S315080043A028600028F6D0028841880A4B20461A80E1
S315080043B01A814A4359809C80DC805981CDE90042A4
S315080043C0234622462146FFF74BFFE4E70024E2E7AF
S315080043D0E44800203C8100202DE9F843002301250C
S315080043E01A461A4FDFF86C803C68DFF86490D8F8F4
S315080043F00000D61841888E4207D3FBB91022002147
S31508004400124840F074FD002012E0E10708D5013398
S31508004410D118C9060ABF57F8254064080135E6E7EA
S3150800442053B109EB0211FCF7F3FD034610B107205F
S31508004430BDE8F883721CEBE70132E9E7044901EBB2
S315080044400211FCF7E5FD0028D8D0F0E7D448002093
S31508004450EA810020E448002030B5054687B000B35D
S3150800446000226FF07F43C0E9012301A8FFF73CFE55
S31508004470044698B9019BCDE902001A882B605B882F
S31508004480013A013B284602A9049205933BF070FFC6
S31508004490044618B9284604493CF01FF9204607B0D7
S315080044A030BD0524FAE700BF98380508054B9A6819
S315080044B09107FCD45A689207F9D4DA69002AF6D12A
S315080044C0704700BF00800A5008B5FFF7EFFF0122CA
S315080044D0024B03F580514A601A6108BD00800A50F4
S315080044E0074B5A68012A0AD15A68D20702D5DA69EF
S315080044F0002AF9D102221A610122024B5A6070473A
S3150800450000800A5000A00A5010B5064CFFF7CEFFEF
S315080045106368012B03D1FFF7E3FFFFF7C7FF0378B3
S31508004520E36010BD00800A5018B1712110483BF0B5
S3150800453062BD4A680B7812B1127843EAC2034A7818
S31508004540002A14BF0222002213438A6812B1127885
S3150800455043EA82138A78002A14BF042200221343EE
S31508004560CA6812B1127843EA4223024A9364704732
S31508004570C83B050800800A5020B14FF482710348F1
S315080045803BF039BD024B5964704700BFC83B05086C
S3150800459000900A5020B14FF4A07103483BF02BBDA0
S315080045A0024B5964704700BFC83B050800A00A5073
S315080045B020B14FF4BE7103483BF01DBD024B196490
S315080045C0704700BFC83B050800A00A5008B530B1BF
S315080045D0044840F2B7113BF00EFD002008BD024B1F
S315080045E0186CFBE7C83B050800800A5008B548B1B7
S315080045F0084840F266213BF0FEFC002008BD064B49
S31508004600D86CFBE70029FAD00129F7D1024B186DBF
S31508004610F4E700BFC83B050800800A5050B14FF4C4
S31508004620417107483BF0E7BC064BDA647047054B17
S315080046301A6570470029F7D00129F8D0704700BFDE
S31508004640C83B050800800A5038B50446054D4AF0AF
S3150800465083FC0FCC0FC594E8030085E8030000200F
S3150800466038BD00BFE848002047F6FF739A42F0B508
S3150800467067D0022967D8354DCF0015F8313005EBDC
S31508004680C100012B847813D10025C3781B1B9D42DA
S3150800469002D3E018C0B2F0BD591B4668A3EB51011E
S315080046A036F911609642D4BF0D4601F1FF33EEE7A5
S315080046B040680028EFD0B0F90030934204DBB0F927
S315080046C002309342B8BF134682883D44FF2A19BF79
S315080046D0C8214FF0280CB0F90610B0F908C0A1EBB4
S315080046E003020CBF0126002692FBFCF26D783244C9
S315080046F012B2954201DD002A01DA6A1E12B24FF49F
S315080047007A7700EBC206F188B668013213FB0161BD
S3150800471012B221EAE17101F5FA719542B1FBF7F19E
S3150800472004DD00EBC206B6888E42EAD200EBC2026E
S3150800473032F8040C884228BF0846A04238BF2046F3
S31508004740A8E7FF20A7E70020A5E700BFE848002064
S315080047500229F0B553D82B4800EBC10410F83110E4
S31508004760636801290FD1E078A478904294BFC4EB1E
S315080047700001C4EB0201001BCAB28242C8BF002274
S3150800478033F91200F0BD002B39D0A178914202D33B
S31508004790B3F90200F6E7E178B3F900009142F1D9DE
S315080047A099886478A1F1FF06013C714203F104057A
S315080047B0E4B2714103F10C071FFA82FCCEB2B4428F
S315080047C016D805EBC1014FF47A756A43B1F9024070
S315080047D04968521A04EBD47102EB610292FBF4F2B7
S315080047E09042CFDBB3F902009042CBDC10B2C9E7A6
S315080047F037F831E04E1CE645E3D33146DEE702489A
S31508004800C0E700BFE84800200080FFFF0148FFF727
S315080048101BBF00BF043C050800487047FA16002075
S315080048202DE9F84306F0D4FE0128074605D906F017
S31508004830DFFE061E02DA01241EE00026DFF880806D
S3150800484098F8003003F0FF0493BB4FF05009194D58
S3150800485005F110032846C5E90044AB60C5F80C907D
S3150800486007F03AF8286650B90124012F04D93046D2
S3150800487006F0E0FE0028DEDB2046BDE8F8830E4D94
S31508004880214605F110032A460120C5E90044C5E979
S31508004890023907F0E1F828660028E5D03022074BF0
S315080048A083F8412302229A60012388F80030DCE766
S315080048B00024DAE7644900200049002000E100E00E
S315080048C0EA890020B0F5A02F08B50CD015D8B0F5A8
S315080048D0003F26D009D828B3B0F5803F23D0EF2172
S315080048E015483BF088FB01201CE0B0F5403F1CD082
S315080048F0B0F5802FF3D14B2014E0B0F5202F16D059
S3150800490007D8B0F5C02FEED0B0F5E02FE7D12120BB
S3150800491008E0B0F5302F0CD0B0F57F0FDFD10620B8
S3150800492000E02A2008BD4820FCE72C20FAE71020E2
S31508004930F8E71120F6E700BF803C050808B506F041
S3150800494047FE02280FD1094B4FF0FF31186E07F0CA
S3150800495005F8002814BF0120002003D14FF4806217
S31508004960034B9A6608BD0020F8E700BF644900209B
S31508004970009000504FF4806208B5084B9A6606F01E
S3150800498027FE022807D1064B186E07F017F80038DD
S3150800499018BF012008BD0020F9E700BF00A000509D
S315080049A06449002008B54FF098435B6CD9020ED5D0
S315080049B006F00EFE0238012809D80C4B186E07F0CF
S315080049C0D7F820B14FF4927109483BF014FB4FF029
S315080049D098435A6CD202FCD55B6D064A03F47023E1
S315080049E013600222044BC3F8882108BD0049002041
S315080049F0803C05080C12002000E100E038B50546A9
S31508004A0000283AD0FFF79AFF0446002836D12846F0
S31508004A10FFF70EFB95F8203043B94FF098435A6CD0
S31508004A20D202FCD55D6D05F470251BE04FF0984267
S31508004A30936D43F00203936506F0CAFD02281AD166
S31508004A40104B4FF0FF31186E07F05CF84FF09842A4
S31508004A50936D23F00203936590B94FF4A0220A4B95
S31508004A601D681A60FFF786FF04463DB12846BDE873
S31508004A703840FFF727BF2046E8E72124204638BDFF
S31508004A800124FBE7004900200C1200202DE9F04123
S31508004A908CB08846DDE912761D460446002847D0C4
S31508004AA0002945D0002F43D0002E41D013F00F0324
S31508004AB03ED120482049A360002A18BF0146E36179
S31508004AC0C4E90013404609A93BF08BFF68BB2046A2
S31508004AD00999FFF79DFA29462046FFF799FA69468C
S31508004AE0404601F0FBF800BB694620463BF0F2FB66
S31508004AF0404603A93CF043F8B8B9204603A93BF061
S31508004B00E9FB06970127204645F0005506A90797B1
S31508004B1008953BF0DFFB204609A909960A970B95ED
S31508004B203BF0E2FB2046FFF769FF0CB0BDE8F081D9
S31508004B302120FAE700010104000100042DE9F04FE5
S31508004B4097B0894690461F460546DDF880A000289E
S31508004B5000F0BD80002900F0BA803AB1229B002BF4
S31508004B6000F0B580239B002B00F0B180BAF1000F4E
S31508004B7000F0AD80219B002B00F0A98077B13C683E
S31508004B800026229B43440293464509D3002F00F092
S31508004B90A08000203C6017B0BDE8F08F3C46EFE7E8
S31508004BA05CB1229B219A9B5D125D01345340239A86
S31508004BB004F00F0493550136E6E7A8EB060BBBF1A4
S31508004BC00F0F58D9444B4846C5E90034AC60EC6130
S31508004BD013A93BF006FF0028DDD1284613992BF0D0
S31508004BE00F0BFFF715FA59462846FFF711FA4846FC
S31508004BF004A901F073F80028CDD1284604A93BF092
S31508004C0069FB484607A93BF0BAFF0028C3D12846E6
S31508004C1007A93BF05FFB01232299304ACDF828A06B
S31508004C200B930C928A190D9228464BF000520AA94A
S31508004C300E9303920F923BF04DFB28460DA93BF0CD
S31508004C4049FB239B039A99190123109111931292F8
S31508004C50224A284610A9CDF84CA0149315923BF089
S31508004C6043FB284613A93BF03FFB2846FFF7C6FE41
S31508004C705E4400288FD1229B03EB060B239B1E4420
S31508004C80029B5B4501D146467EE7ACB9219B22468D
S31508004C90CDE900A3494610232846FFF7F7FE00286A
S31508004CA07FF479AF0AF1100212F8013D0133DBB245
S31508004CB013700BB99245F7D1219A1BF8013B125D87
S31508004CC00134534006F8013B04F00F04D8E72120CD
S31508004CD061E738465FE700BF0303000410000020C1
S31508004CE02DE9F04F97B00F46144699468346209E05
S31508004CF0DDF88880DDF890A0269D002800F09F80CA
S31508004D00002900F09C801DB1259B002B00F09780A0
S31508004D10B9F1000F00F09380B8F1000F03D0219B82
S31508004D20002B00F08C803CB1239B002B00F0878081
S31508004D30BAF1000F00F08380C6F10F02D2B2032A3F
S31508004D4005D80121D20001FA02F2A24277D9022D32
S31508004D5075D0102D73D815F0010270D1F11F0629F0
S31508004D606DD838490AEB0400884268D8364938466F
S31508004D70CBE90012CBF80820CBF81C2013A93BF08E
S31508004D8030FE002858D158461399FFF741F958467E
S31508004D9045EA0641FFF73CF941465846FFF738F918
S31508004DA021465846FFF734F9384601A900F096FF20
S31508004DB0002841D1584601A93BF08CFA384604A987
S31508004DC03BF0DDFE002837D10127584604A93BF001
S31508004DD081FA239B48F000520793219B584644F0DA
S31508004DE000540DA946F00056089709940A930B97A4
S31508004DF00C92CDF834900E970F963BF06BFA584606
S31508004E000AA93BF067FA584607A93BF063FA259BBF
S31508004E10584610A945F00055CDF840A011971294B0
S31508004E201393149715953BF05FFA584613A93BF070
S31508004E305BFA5846FFF7E2FD17B0BDE8F08F212070
S31508004E40FAE700BFFFFF0320000005042DE9F04F35
S31508004E5099B00F4614469B468046229EDDF89890E8
S31508004E60289D002800F0B280002900F0AF80279B1B
S31508004E70002B00F0AB80BBF1000F00F0A780249B4D
S31508004E801BB1239B002B00F0A1803CB1259B002B76
S31508004E9000F09C80B9F1000F00F09880C6F10F036E
S31508004EA0DBB2032B06D80121DB0001FA03F3A34288
S31508004EB040F28C80022D00F089806B1E0F2B00F2C9
S31508004EC0858015F0010A40F08180F31F062B7DD8F6
S31508004ED03F4B09EB0401994278D83E4B3846C8E95E
S31508004EE0003AC8F808A0C8F81CA015A93BF079FD37
S31508004EF00346002866D140461599FFF789F84046CB
S31508004F0045EA0641FFF784F840462499FFF780F8FA
S31508004F1021464046FFF77CF8384603A900F0DEFE36
S31508004F20034600284ED1404603A93BF0D3F938463C
S31508004F3006A93BF024FE0346002843D10127404634
S31508004F4006A93BF0C7F9259B4046099344F0005350
S31508004F500A9701930B93239B46F000560C93249BC8
S31508004F600D9743F000510E910FA9CDF83CB010975C
S31508004F7011963BF0AFF940460CA93BF0ABF9404619
S31508004F8009A93BF0A7F9019B404612A9CDF848901C
S31508004F90139714933BF0A8F9279B404615A945F0AB
S31508004FA000551593169717953BF094F94046FFF769
S31508004FB025FD034630B101902246514648463FF04A
S31508004FC096FF019B184619B0BDE8F08F2123F9E733
S31508004FD0FFFF0320000006042DE9F0438DB0884644
S31508004FE015461C460746DDF85090002850D0002983
S31508004FF04ED0002A4CD0B9F1000F49D00B68103BAF
S31508005000102B45D8012606FA03F303F0013323F0E3
S315080050108073002B3CD000231E4A8360C0E900231E
S31508005020C36109A940463BF0DCFC70BB38460999C8
S31508005030FEF7EEFF21463846FEF7EAFF6946404688
S3150800504000F04CFE08BB694638463BF043F940463B
S3150800505003A93BF094FDC0B9384603A93BF03AF9D9
S3150800506044F00054384606A90695079608943BF07E
S3150800507031F9094B384609A9CDF824900A960B93BD
S315080050803BF032F93846FFF7B9FC0DB0BDE8F083BE
S315080050902120FAE70000040410000020F0B50C46B1
S315080050A017461E46054695B0002874D0002972D0CA
S315080050B0002A70D0002B6ED0036B0F2B5BD8002311
S315080050C0364A3846C4E90023A360E36111A93BF0D8
S315080050D088FC00285BD120461199FEF799FF296BB9
S315080050E020460F2984BF01F00F011031FEF790FF0B
S315080050F0384602A900F0F2FD002848D1204602A948
S315080051003BF0E8F8384605A93BF039FD00283ED1C2
S31508005110204605A93BF0DEF80122214B08950992A5
S315080051200A932B6B05F1100003F00F0141F00051B3
S315080051300B900F2B0C920D910E900F9243F000528C
S31508005140109226D90A9B08A923F0005320460A93F1
S315080051503BF0C0F80BA920463BF0BCF8012311969A
S3150800516012930F4B204611A913933BF0BDF8204626
S31508005170FFF744FC0BE000F12003019000930122A5
S31508005180102339462046FFF781FC002897D015B032
S31508005190F0BD0EA9DFE72120F9E700BF00000404EF
S315080051A0100000202DE9F04F9BB00D469146984619
S315080051B00646DDF890A0002800F0B380002900F02C
S315080051C0B080002A00F0AD80002B00F0AA80026BA8
S315080051D002EB0A031B09B3EB121F02F00F0700F0DC
S315080051E098800023504A8B60C1E90023CB6148466A
S315080051F017A93BF0F6FB0446002840F0868007EB2B
S315080052000A0323F00F0B284617990093FEF700FFB1
S3150800521059462846FEF7FCFE484602A900F05EFD00
S315080052200446002871D1284602A93BF053F848469F
S3150800523005A93BF0A4FC0446002866D14FF00109F5
S31508005240284605A93BF046F8384A284608A908968C
S31508005250CDF824900A923BF03DF847F00051ABEBAD
S31508005260070706F1100347F000570B93CDF8309067
S315080052700D91CDF83880CDF83C9010970D992846B9
S3150800528021F000510D910BA901933BF023F8284614
S315080052900EA93BF01FF8ABF11001244A41F000516A
S315080052A01194CDF84890139106F120011491CDF888
S315080052B0549016921399284641F0804113911399F8
S315080052C021F00051139111A93BF00EF8284614A9B4
S315080052D03BF00AF8154A17A928461796CDF86090A4
S315080052E019923BF001F82846FFF788FB009B044615
S315080052F0ABEB0301A3EB0B02019B51441846414457
S315080053003FF0CEFD336B5344336320461BB0BDE8F4
S31508005310F08F10305246414638443FF0C1FD002414
S31508005320F0E72124F1E700BF030200041000002083
S315080053302DE9F0438DB08846DDE914591E46074627
S31508005340002850D000294ED0002B4CD0B9F1000FC0
S3150800535049D0531EDBB2042B45D82449CC5C169B96
S315080053609C4240D8224B09A903EB02220023026083
S31508005370C0E90133C36140463BF033FB80BB384686
S315080053800999FEF745FE29463846FEF741FE694665
S31508005390404600F0A3FC18BB694638463AF09AFF27
S315080053A0404603A93BF0EBFBD0B9384603A93AF0CF
S315080053B091FF06960126384606A945F00055079638
S315080053C044F0005408953AF085FF384609A9CDF807
S315080053D024900A960B943AF087FF3846FFF70EFB9F
S315080053E00DB0BDE8F0832120FAE700BFCE3C0508E2
S315080053F0000102032DE9F04F9BB00C46DDE9278A30
S3150800540017461E468146299D002800F02681002958
S3150800541000F02381249B002B00F01F812B9B002B7F
S3150800542000F01B81B8F1000F03D0269B002B00F07B
S31508005430148136B1BAF1000F00F00F81002D00F08B
S315080054400C812A9B043B0C2B00F20781259B0C2B15
S3150800545040F003812368A3F11001102900F2FD80B2
S3150800546001238B4003F0013323F08073002B00F0F7
S31508005470F480012F7BD12A9A794B204643EA0223EE
S31508005480C9F80030002316A9C9E90133C9F81C3048
S315080054903BF0A7FA8346002840F0DB804846169979
S315080054A0FEF7B6FD41464846FEF7B2FD3146484688
S315080054B0FEF7AEFD204604A900F010FC834600283E
S315080054C040F0C780484604A93AF004FF204607A9D9
S315080054D03BF055FB8346002840F0BB80484607A9A9
S315080054E03AF0F8FE249B48460A935E4B0AA90B97A6
S315080054F00C933AF0EFFE269B48460D930DA948F00B
