S01100006D66675F6B67313030732E73333774
S3150000000000100020E50E0000F5470500F547050045
S31500000010F5470500F5470500F5470500F5470500D6
S31500000020F5470500F5470500F547050031020000D4
S31500000030F5470500F5470500C101000037730500C7
S31500000040F5470500D5350000F5470500F5470500DD
S31500000050F5470500A1480500F5470500F5470500E9
S31500000060F5470500F5470500DD820000F547050068
S31500000070F5470500F5470500F5470500F547050076
S31500000080F5470500F5470500F5470500F547050066
S31500000090F547050099130000F5470500F5470500EB
S315000000A0F5470500B914000099140000F54705004E
S315000000B0F54705000B540600F5470500B146030059
S315000000C0115406000D540600A13E03001D540600FF
S315000000D0155406007546030019540600C126030090
S315000000E0F1460300F5470500F5470500F54705000D
S315000000F0F5470500476A0500F5470500F547050081
S31500000100F5470500F5470500F5470500F5470500E5
S31500000110F5470500F5470500F5470500F5470500D5
S31500000120F5470500F5470500F5470500F5470500C5
S31500000130F547050000000000000000000000000078
S31500000140013800D0FCE77047000000000000000006
S315000001500B4A1168086806C881F30B88022181F3EF
S315000001601488203080F30988BFF36F8F4FF00000AA
S3150000017080F31188104700BFAFF30080AFF3008013
S315000001807462002000000000000000000000000073
S3150000019007480068006880F3088862B661B6BFF356
S315000001A04F8FBFF36F8F02DF00BF00BFAFF300803A
S315000001B008ED00E000000000000000000000000064
S315000001C0EFF309801EF0100F08BF20ED108AEFF341
S315000001D00B82734620E9FC0F114A116808604FF044
S315000001E0300080F31188BFF34F8FBFF36F8F0BF092
S315000001F0C3FE4FF0000080F31188094A11680868B1
S31500000200B0E8FC0F13F0100F08BFB0EC108A82F3B1
S315000002100B8880F309881847AFF30080AFF300809E
S3150000022074620020000000000000000000000000D2
S315000002301EF0040F0CBFEFF30880EFF309800449AA
S31500000240084700BFAFF30080AFF30080AFF3008034
S3150000025041AA0000000000002DE9F04F2DED088BAB
S315000002608DB09DED1E7B09EE903ADDE920430A93A1
S31500000270229B09EE100A8A460792069351EC170B49
S3150000028053EC172BB0EE478AF0EE678A11F0BCFCF0
S3150000029080B14FF0FF3251EC180BCF4B11F0DCFC64
S315000002A040B94FF0FF326FF4801351EC180B11F088
S315000002B0B5FC98B1069B514622930A9B19EE100A8B
S315000002C0CDE9204319EE903A079A8DED1E8B0DB0BD
S315000002D0BDEC088BBDE8F04F00F0A2B90022002368
S315000002E051EC180B11F09AFC002800F0448118EE2E
S315000002F0903A18EE108A03F10049069BC9F30A509A
S3150000030013F48063A0F2FF3008BF06240B9311F0AC
S31500000310A9F9A1A3D3E9002311F00EFAA0A3D3E90A
S31500000320002311F053F8C9F313050F4645F07F512A
S3150000033006460022A94B404641F4401111F044F80C
S3150000034099A3D3E9002311F0F7F902460B4630468C
S31500000350394611F03BF811F089FC834611F082F919
S3150000036093A3D3E9002306460F4611F0E5F90022D0
S315000003709B4B11F02BF811F079FC8FA3D3E90023E6
S3150000038005463946304611F0D7F9064628460F4647
S3150000039011F068F98AA3D3E9002311F0CDF90246DA
S315000003A00B463046394611F00FF802460B46064614
S315000003B00F4611F0C1F9324641EC1A0B3B46304666
S315000003C0394611F003F8002241EC1B0B854B51EC2A
S315000003D01A0B11F0DBFA0022834B10F0F7FF0246EE
S315000003E00B4651EC1A0B11F0D1FA00227F4B10F09C
S315000003F0EDFF02460B4651EC1A0B11F0C7FA3246D6
S3150000040041EC1A0B3B4600204FF0804110F0DCFF18
S3150000041002460B4651EC1A0B10F0D8FF02460B466B
S3150000042051EC1B0B11F0B2FA05F2FF350022704BAE
S3150000043010F0CCFF00222B0511F07EF942464B4608
S3150000044006460F4611F008FC002840F09780CDE9DB
S3150000045008670BF16303C72B069B34BF04250525EC
S31500000460190521D558A3D3E900234046494611F082
S31500000470E9FB002800F0BE8055A3D3E900234046DF
S31500000480494611F0CBFB002800F0B48000255C45FE
S31500000490CCBFA4EB0B000024AB46069BC8BF00F103
S315000004A0FF3443F4806306930A9B9D4238BF5E1B6C
S315000004B0069B28BF002613F0020702D0002D18BFA6
S315000004C00026BBF1000F07D0DDE908234046494668
S315000004D011F05CFA804689460022002351EC180B85
S315000004E011F09CFB10B109F100439946069B514659
S315000004F023F40063CDE9036319EE100A19EE903A6E
S31500000500CDE90089079A029400F08AF875B3069B34
S31500000510024613F0200F00F1010619EE903A14BFBF
S3150000052045206520514619EE104AA04705230022B2
S3150000053005930A238BEAEB70CDE90232A0EBEB7050
S315000005404FEADB73013D0193009019EE903A324673
S31500000550514619EE100A049558F030FE37B1079B44
S31500000560C51A079B58190A9BAB424CD80DB0BDEC77
S31500000570088BBDE8F08F59EC188BBEE6002230469A
S315000005803946194B11F002FA0BF1FF3BCDE9080190
S315000005905FE700BFAFF30080FB799F501344D33F62
S315000005A0B3C8608B288AC63F61436F63A787D23F73
S315000005B071A379094F930A401655B5BBB16B02403A
S315000005C0EF39FAFE422EE63F2D431CEBE2361A3F88
S315000005D00000000080842E41FFFFEF7F0000F83FFF
S315000005E00000E03F00002C400000244000001840BE
S315000005F00000F03F002C3FF457AF0B9B002B3FF45D
S3150000060053AF013C50E7024619EE903A514620207E
S3150000061019EE104AA0470135A3E700BF000000000D
S315000006202DE9F04F2DED088B8FB0DDE920AB08EEFC
S31500000630100A0F4608EE902A09EE103ADDE9225319
S315000006405246049350465B465946249E11F0DCFA06
S31500000650A0B9049B2396229303232193B84B20939E
S3150000066018EE902A19EE103A394618EE100A0FB015
S31500000670BDEC088BBDE8F04F58F0D8BC4FF0FF3208
S315000006806FF480135046594611F0C8FA30B1049BF6
S315000006902396229304232193AA4BE0E74FF0FF32DF
S315000006A050465946A84B11F0D7FA70B1A74A06F042
S315000006B00403002B08BF0322A54B1CBF13460422CC
S315000006C004992396CDE92121C9E7504698A3D3E999
S315000006D00023594611F0C0FA38B997A3D3E900238D
S315000006E05046594611F09AFA98B1049B18EE902A92
S315000006F0CDE92253394619EE103A18EE100ACDE923
S3150000070020AB24960FB0BDEC088BBDE8F04FFFF789
S31500000710A3BD002200235046594611F07FFA002857
S3150000072000F081805B4652460020002110F04CFE0E
S31500000730012382468B46059316F4806F08BF062573
S315000007403021A94606ABA5F12002B9F1090FA5EBA8
S31500000750090406D909F1FF394A4503F8011BF4D10A
S3150000076020245946504611F081FA7A4B054603EB90
S31500000770C90393ED007BB0EE47AAF0EE67AA10F02E
S3150000078071FF02460B465046594610F01DFE53ECCB
S315000007901A2B10F0D1FF02460B4643EC1B2B11F02F
S315000007A08DFA804610F04EFF02460B4651EC1B0BAD
S315000007B010F00AFE02460B4643EC1B2B0022664B4A
S315000007C011F04AFA88B308F10108404610F03AFFE2
S315000007D002460B4651EC1A0B11F02AFA10B14FF0F3
S315000007E000080135B9F1000F51D1284610F03AFF43
S315000007F002460B465046594610F0E6FD0022564B7F
S315000008008046894611F00AFA30B100224046494630
S31500000810514B11F021FA10B1E80700D5013506ABAE
S315000008200A2223445AE0059086E7002251EC1B0B6E
S31500000830494B11F0F3F90028D4D1B8F1000F02D0DA
S3150000084018F0010FCED008F10108CBE7B8FBF1F0A4
S3150000085001FB1082B8F1090F02F1300209F1FF39EC
S3150000086004F1010403F8012B28D83021A14406AA7B
S31500000870202C11D04C4504F1010321D104F138029A
S315000008800DEB02042E2204F8202C1C46C7E70A2191
S3150000089006AB2344202CD9D106F00303012B06AB6B
S315000008A039D1049A002A36D0059A12B916F00C0FDF
S315000008B002D0049A013A0492302214E08046E9E715
S315000008C0A1541C46D4E795FBF2F102FB11553035D5
S315000008D003F8015B01340D460029DDD0202CF2D14E
S315000008E0DAE71A5501340499A14214D9202CF8D11B
S315000008F0049A0093CDE9014219EE103A18EE902AB7
S31500000900394618EE100A039658F090FB0FB0BDEC6E
S31500000910088BBDE8F08F202CEAD0059AF2B12D2184
S3150000092004F138026A4402F8201C0134E0E700BFF3
S315000009300000000065CDCD410000000065CDCDC1B1
S31500000940A7CC0600ABCC0600FFFFEF7FA2CC0600CB
S315000009509ECC0600B0CC06000000E03F710704D52F
S3150000096004F138022B216A44DDE73207C0D504F1D1
S31500000970380220216A44D6E708B50F2001F096FA1E
S31500000980174BB0FBF3F0174B1860186810F05AFEBF
S315000009900FA3D3E9002310F0CFFE0FA3D3E9002362
S315000009A010F014FD11F08AF90F4B104A1860D36845
S315000009B043F08073D3604FF060430D4AC3F8B02F05
S315000009C00C4A136843F00103136008BDAFF30080BF
S315000009D0EC51B81E85EBE93FF6285C8FC2F51C404A
S315000009E040420F005C77002060770020F0ED00E0C9
S315000009F055CEACC5001000E070B505463E4C8AB039
S31500000A0020B10023008823601FF022F83B4863F0E2
S31500000A107AFF3B4E3B4B304633603B4B73601FF0D7
S31500000A2053F8002130462CF03DF931A3D3E90023D9
S31500000A30A062C4E906235EF0D3F9D4E9062319437C
S31500000A4010434FF0FF33C4E90601CDE900014FF032
S31500000A50FF32A06A64F003F802224FF0FF31A06A69
S31500000A6064F018F801201EF0C3FC4FF40073002256
S31500000A702649A06A64F0FCF8B0F5007F36D1002361
S31500000A809422CDE9073309933C23CDE9033205933C
S31500000A909623A06A03A906932CF09AFC25B3287C1A
S31500000AA01FF0D0F80546E0B9A06A64F0ADF91FF072
S31500000AB071F81EF07FFC20B14FF4807000211DF00C
S31500000AC01DFA1EF087FC20B14FF4006000211DF0D6
S31500000AD015FA012063F02DFD0D4A0E49A06A5EF05D
S31500000AE076F928460AB070BDFF20D9E70725F8E752
S31500000AF009D5015520000000183E0020690345EC89
S31500000B003888002081F201002C8800202C860020E5
S31500000B1077ED0500B7ED05007FB50026054602AA6C
S31500000B2069460120CDE90066CDE9026615F01CFF95
S31500000B30044630B1204B6B6003232E602B7204B049
S31500000B4070BD0199009B2B60C80319A3D3E900234C
S31500000B50490C11F023F90399A88015A3D3E90023C2
S31500000B60C803490C11F01AF9029B00EBC333B3F525
S31500000B70804F0FD3114A934210D9114A934210D98C
S31500000B80104A93424FF003000ED943F6FF73EB80F1
S31500000B902872D4E720462246D340F8E701200522F2
S31500000BA0FAE702200A22F7E70D22F5E7AFF3008005
S31500000BB000CA9A3B000000000000FF3FE0FF07006C
S31500000BC000FCFF0000E0FF07F0B591B014460D46AB
S31500000BD064F03FFE002754F8043B01932422394673
S31500000BE0064607A8CDE90277049758F041FE2C4B3C
S31500000BF005A8CDE9053434F08BFB044600283FD127
S31500000C000999089B0293C80323A3D3E90023490C3F
S31500000C1011F0C4F80B99ADF80C001FA3D3E900231B
S31500000C20C803490C11F0BAF80A9B00EBC333B3F5BD
S31500000C30804F19D31B4A93421AD91B4A93421AD999
S31500000C401A4A93424FF0030018D943F6FF73ADF8E2
S31500000C500E308DF810003068036801AAD3F8B8305A
S31500000C602946984711B0F0BD20462246D340EEE70C
S31500000C7001200522FAE702200A22F7E70D22F5E70E
S31500000C8015F0A6FF0028EDD001210846084B094AB9
S31500000C9016F07EFD3846E5E700CA9A3B00000000E4
S31500000CA06B5E0600E0FF070000FCFF0000E0FF07A8
S31500000CB0BC290700C529070010B54168044606A3EC
S31500000CC0D3E90023C803490C11F068F822684FF4F1
S31500000CD00043E3FB020110BD00CA9A3B000000007E
S31500000CE010B5044658B151B10B680360496804A3B6
S31500000CF0D3E90023C803490C11F050F8A08010BDB9
S31500000D0000CA9A3B0000000013B502AB03E90600D7
S31500000D100199044606A3D3E90023C803490C11F040
S31500000D203DF8009BA0802046236002B010BD00BFA6
S31500000D3000CA9A3B0000000010B5054C237833B971
S31500000D40044B13B1044800E000BF0123237010BD1B
S31500000D50384D0020000000005885070008B5034BF9
S31500000D601BB10349034800E000BF08BD00000000B6
S31500000D703C4D002058850700A3F5803A704700BF18
S31500000D80174B002B08BF134B9D46FFF7F5FF0021BD
S31500000D908B460F461348144A121A58F069FD0E4B3B
S31500000DA0002B00D098470D4B002B00D09847002011
S31500000DB0002104000D000D48002802D00C4800E078
S31500000DC000BF11F0C7F92000290058F0C5FB11F04B
S31500000DD09BF900BF000008000000000000000000B2
S31500000DE0001000209C240020283C01200000000068
S31500000DF0000000002DE9F74F1446082206889846A1
S31500000E00037901345E43244BA4B21A670546407B3E
S31500000E100F4607F07DFA230243F0010302221F4822
S31500000E200DF10601ADF806304FF0000953F0B7FC9E
S31500000E3001342402DFF864B0F610A4B208F1FF3AD8
S31500000E40C1450FD1154853F0BBFCA87B07F060FAEB
S31500000E500822134B11481A6753F0B7FC002003B061
S31500000E60BDE8F08F39463246584653F098FCCA45DD
S31500000E700CBF4FF6FF7344F0FF03022258460DF1F4
S31500000E80060104F58074ADF80630374453F087FC4C
S31500000E9009F10109A4B2D3E700D00350B81100202C
S31500000EA000E0035038B504460D4601B118B93721A4
S31500000EB0034853F094FC23682B60256038BD00BFBF
S31500000EC0A8B6060005490A681318054883428CBF70
S31500000ED04FF0FF320B601046704700BFC411002070
S31500000EE00080012008B500F02DF8124B12498B4204
S31500000EF012D30020114B12498B4218D3FFF740FF43
S31500000F00186850F82240586840F822400132986824
S31500000F108242F5D30C33EAE70022F8E71C6844F86E
S31500000F20220001325C68A242F8D30833E4E70022CB
S31500000F30F8E700BF608507006C8507006C85070031
S31500000F406C8507006FF00100104B114A10B59A60CE
S31500000F50D3F888200F4942F47002C3F8882001F5BF
S31500000F600052106641F2FF7050660220C3F8D000AE
S31500000F70BFF34F8FBFF36F8F08244FF440330648FB
S31500000F80C0F88041D36004600B6110BD00ED00E045
S31500000F90000000000080004400E100E0014B1868FA
S31500000FA0704700BFCC110020014B1860704700BF8E
S31500000FB0CC110020084B1B6F03F00703022B04D053
S31500000FC0032B05D0012B05D0FEE7044B18687047AC
S31500000FD0034BFBE70348704700800050CC1100200C
S31500000FE0D0110020002D310108B5FFF7E3FF054BB6
S31500000FF01B6FC3F301330133B0FBF3F0024B1860F0
S3150000100008BD00BF00800050C8110020004870478E
S3150000101000B4C404014B1868704700BFD01100200B
S31500001020054B1860054B1B6F03F00703032B01D11B
S31500001030FFF7DABF704700BFD011002000800050D4
S3150000104000487047002D3101174B9868C0F30440E3
S315000010500C2822D8DFE800F00921212121210717D9
S3150000106019211B1D1F00114870479B6803F0407330
S31500001070B3F1807F13D0B3F1007F12D00C4A002B5E
S3150000108008BF104670470B4870470B4870470B481F
S3150000109070470B4870470B487047002070470A4856
S315000010A070470A48704700BF0040015A405DC600BD
S315000010B000093D000024F400C0EA210180BA8C0139
S315000010C00048E801005A620280841E0040420F0078
S315000010D0014B1868704700BFD411002008B50321E2
S315000010E001230422002001F0F9FB002053F01CFC30
S315000010F001221C4B0C20C3F844241B4AD2F8803032
S3150000110043F00303C2F8803000F0D0FE174B00F521
S31500001110D520D3F8F02000F2FC4042F00102C3F8DB
S31500001120F020D3F8FC2042F08072C3F8FC20104A6D
S31500001130A3F55D431A600F4B0222B0FBF3F00E4B92
S3150000114001381861C3F8F0204FF48072C3F8042305
S315000011504FF06043094A0020C3F8B02F084AC3F88D
S31500001160802E08BD00D003500080005000ED00E046
S31500001170FF030040F8590D00000004E055CEACC551
S315000011800900010038B50D460446D8B101281BD028
S3150000119002281BD0032803D11F23EB40DB0704D40E
S315000011A040F2FE310A4853F01AFB3020012142F288
S315000011B01003444304F1A04401FA05F504F5703424
S315000011C0E55038BD7F23E8E70323E6E73F23E4E75E
S315000011D0D7B6060038B50D460446D8B101281BD04F
S315000011E002281BD0032803D11F23EB40DB0704D4BE
S315000011F040F22D410A4853F0F2FA3020012141F223
S315000012001003444304F1A04401FA05F504F57034D3
S31500001210E55038BD7F23E8E70323E6E73F23E4E70D
S31500001220D7B6060038B504784578D4B1012C1AD063
S31500001230022C1AD0032C03D11F23EB40DB0704D466
S315000012404FF489610A4853F0CAFA30220123544305
S3150000125043F2100204F1A044AB4004F57034A350ED
S3150000126038BD7F23E9E70323E7E73F23E5E700BF30
S31500001270D7B6060070B5057804464678FDB1012D4F
S315000012801FD0022D1FD0032D03D11F21F140CB0704
S3150000129004D44FF483610D4853F0A1FA1023302291
S315000012A012FB053202F1A04202F570321368F340D8
S315000012B003F00100A3780BB980F0010070BD7F2117
S315000012C0E4E70321E2E73F21E0E700BFD7B60600E7
S315000012D038B5124B05461B78DBB1E0B153F006FB7F
S315000012E00F4A00231146147B54B92B6001251A01BD
S315000012F001EB03131D738C5053F0FEFA204638BDE4
S315000013000133082B02F11002EDD153F0F5FA05482E
S31500001310F5E70548F3E70548F1E700BF6E980020BA
S31500001320544D0020048000F0028000F0018000F09F
S31500001330154B13B51868002301908DF8043053F04F
S31500001340D5FA124B1C7824B153F0D6FA104802B0E5
S3150000135010BD01221A7053F0CFFA0E4B01A81C7370
S315000013601C7783F82C4083F83C4083F84C4083F884
S315000013705C4083F86C4083F87C4008238DF8073086
S3150000138001F0FCFA2046E2E704B706006E9800205A
S31500001390038000F0544D00202DE9F843174B1F6DD4
S315000013A05B6D1F4000D5FEE701260025144CDFF8D3
S315000013B05480DFF85490374217D02368C8F850603D
S315000013C09BB1A168284601316268A1609847637B9A
S315000013D0012B0AD148B909EB45131A7B60F3410288
S315000013E01A731A7F60F341021A770135082D4FEA06
S315000013F0460604F11004DED1BDE8F883000004506F
S31500001400544D002000200450D44D002070B50446F1
S3150000141001250B4E04B970BD94FAA4F0B0FA80F021
S3150000142005FA00F306EB001224EA03045368002BC6
S31500001430F0D0117B11B191689847EBE79847E9E73F
S31500001440D44E002008B5192001F01AF928B14FF042
S315000014500072074BC3F880211A601A2001F010F9B8
S3150000146028B14FF08062024BC3F880211A6008BD94
S3150000147000E100E038B505460C4653F037FA002285
S31500001480044B03EB05135C601A73BDE8384053F058
S3150000149033BA00BFD44E0020064BD3F82404D3F849
S315000014A0202403F50053104000F05530C3F8200403
S315000014B0FFF7ACBF00C00350064BD3F82404D3F8A3
S315000014C0202403F50053104000F0AA30C3F820048E
S315000014D0FFF79CBF00C00350024B1968024B186807
S315000014E02AF0D6BDDC110020D811002037B59200B5
S315000014F004460D4601926AF0CFF8431C0BD060B942
S3150000150029462046019A58F07CF90028044808BF6D
S31500001510002003B030BD0348FBE70348F9E700BFEE
S3150000152010E000F021E000F024E000F013B50446DE
S3150000153001A801F0D1FB9DF80630012223804FF46B
S31500001540807300206380054B9B680A3303F01F03FA
S3150000155002FA03F3636002B010BD00BF0080E00F23
S3150000156010B504466AF090F8431C15D0B0B90C4B80
S3150000157020469B680A3303F01F020123934023F0A1
S3150000158003032344984201D1002010BD50F8042BD8
S315000015900132F7D00348F8E70348F6E70348F4E7D3
S315000015A00080E00F0EE000F021E000F024E000F003
S315000015B008B553F094F9014B186008BD1457002084
S315000015C0014B186853F08FB9145700202DE9F041EC
S315000015D00446914F8AB003AE0D460FCF0FC697E86B
S315000015E0070086E80700002C00F014811DB98B481F
S315000015F00AB0BDE8F0817C220021204658F038F977
S315000016002B68874A934240F0AD80212284F84D2012
S315000016104FF480224FF00008824EC4E90B62264642
S315000016202F4646F8043B0FCF0FC697E80F0086E813
S315000016300F006B7E012B08BF8DF81A30AB7E33B1DD
S31500001640012B40F0AC804FF40073ADF81C302B7EBC
S31500001650012B03BF00238DF819304FF47A73EB6822
S3150000166005932B691A1F0C2AC1D8033B286803A9C6
S315000016708DF8183001F0E0FBAB6923F47F0323F407
S315000016807F4323B92268936843F4803393602B7AAF
S315000016902E79687946EA03466B7AA97940EA0340CF
S315000016A0AB7A614AEF7E41EA03414FEA481313449D
S315000016B008F12E08002F7DD11D2702EB4812C3F832
S315000016C0AC755660C3F8BC05C3F8C015E97AEA796B
S315000016D042EA0142C3F8B025E37BE27A84F845305A
S315000016E0237F207A677AA57A217B94F80D80A67BE2
S315000016F084F84420002B68D10422019301F0EEF80F
S31500001700019B01224146384601F0E8F8A27F3146A6
S31500001710012A8CBF0123019B0422284601F0DEF832
S31500001720E37F3BB90123042294F8451094F8440062
S3150000173001F0D4F853F0DAF83C4B1A78002A5ED15F
S3150000174001221A7053F0D8F806F092FBFFF7F0FD6D
S31500001750002104F12400FFF7BBFD0146002851D00B
S31500001760334845E7334A93420AD1222284F84D2072
S315000017704FF4A02230484FF00108C4E90B024EE7AF
S315000017802E4A93427FF433AF232284F84D204FF440
S31500001790C0222B494FF00208C4E90B123FE7022B87
S315000017A002D14FF4807350E7032B7FF420AF4FF440
S315000017B040734AE71C2502EB4812C3F8AC55566045
S315000017C0C3F8BC05C3F8C01586E70023012201F063
S315000017D085F8002304224146384601F07FF8A37FAE
S315000017E00222012B94BF002301233146284601F033
S315000017F075F8E37F002B9DD10123022294E753F075
S315000018007BF8A3E704F12800FFF762FD00283FF408
S31500001810EFAEA5E70B48EBE62CB70600022000F07A
S31500001820008005500200040000C003506F9800209D
S31500001830092000F000C00550020005000000065017
S3150000184002000600012000F000210846F0B52F4CEA
S315000018502F4A2368156845B11D68002D4BD09D8819
S315000018609688AE4284BF134601210130052802F155
S315000018700802EFD101B1236000210D462548264A12
S315000018800368166846B11E68002E37D09E88978872
S31500001890B7423CBF134601210135052D02F108026E
S315000018A0EFD101B1036023681A6852B31B499C88C3
S315000018B08A6F1B4B22F0FF7203EA044322F4803244
S315000018C013438B674FF050234FF000429A6603682C
S315000018D01A68C2B111499B888A6FC3F3080322F4C0
S315000018E0FF7222F0010213438B674FF050234FF033
S315000018F080429A66F0BD13460121B6E713460121E0
S31500001900CAE7084BE0E7074BF1E700BFC8570020DE
S31500001910D0570020CC570020F85700200040005038
S315000019200000FF010060005008B500F0F9FEDFED91
S31500001930117AB4EEE70AF1EE10FA18D4DFED0E7A5A
S31500001940B4EE670AF1EE10FA37FE800A10EE100ABE
S315000019500FF09AFE0022094B0FF038FD0022084BCB
S315000019600FF034FD10F082F9803840B208BDB0EEB9
S31500001970670AEBE7000000C30000FE420000E03FFC
S3150000198000006040154A38B5936E526E134013F04E
S31500001990804212D0124B1B681D6835B100241C60B2
S315000019A05C60FFF7C1FF2146A8474FF080420D4B10
S315000019B05A66BDE83840FFF747BF002BF9DA0A4BF5
S315000019C01B681C682CB11A605A60FFF7ADFF012135
S315000019D0A0474FF00042034BEAE700BF004000502B
S315000019E0CC57002000600050C857002041F67133E4
S315000019F010B5104C104AA0428CBF4FF4801400243E
S31500001A00D169D363936801F4803123F440132343EF
S31500001A1093600A4B98420A4BD3F818228CBF42F0C7
S31500001A20020222F00202C3F8182211B10022024B70
S31500001A30DA6310BD005A62020000035080F0FA0219
S31500001A4000C0075008B5344B984250D028D8334BC5
S31500001A50984246D018D8324B98423FD00BD800282F
S31500001A603ED0304B984239D02F4841F2362152F0C1
S31500001A70B6FE002034E02D4B98422FD02C4B9842D6
S31500001A80F2D12C4B586E2BE02B4B98422CD003F501
S31500001A90371303F5D8639842E6D1264B986F1FE0BB
S31500001AA0264B98422FD00CD8254B984223D0254B55
S31500001AB0984224D0244B9842D6D11E4BD3F88400AA
S31500001AC00EE0224B984222D003F5740303F510531F
S31500001AD09842C9D1174BD3F8980001E0154B986D81
S31500001AE008BD144B186FFBE7124B586FF8E7114B04
S31500001AF0D3F88000F4E70F4BD3F88800F0E70D4BDE
S31500001B00D3F88C00ECE70B4BD3F89000E8E7094BD1
S31500001B10D3F89400E4E700BF80BA8C01405DC600AC
S31500001B2080841E0040420F0048B7060000093D00B1
S31500001B30C0CF6A000080E00F0024F400007E560348
S31500001B4080D54302006CDC020048E8010090D00317
S31500001B5038B50F4B0546D3F880300C4603F0030327
S31500001B60022B09D0032B0FD00A4841F29B0152F0F9
S31500001B7036FE0023184602E0FFF736FA0B2305B1BE
S31500001B80286004B1236038BDFFF75EFA0523F6E747
S31500001B900080005048B7060038B5154B0546D3F807
S31500001BA020310C4603F00703013B032B17D8DFE86F
S31500001BB003F0020A0E12FFF7F1F9042305B12860BB
S31500001BC004B1236038BDFFF725FA0323F6E7FFF7D4
S31500001BD03BFA0523F2E7FFF733FA0223EEE705485F
S31500001BE041F2141152F0FBFD00231846E6E700BF50
S31500001BF00080005048B7060073B50024144B0194CA
S31500001C00D3F88031064603F00303022B0D460FD0AE
S31500001C10032B12D0012B15D1214601A8FFF7BCFFDB
S31500001C200D240EB1019A326005B12C6002B070BD70
S31500001C30FFF70AFA05240190F3E7FFF701FA0224F9
S31500001C400190EEE741F26121024852F0C8FDE8E753
S31500001C500080005048B7060038B5124B0546D3F849
S31500001C6040310C4603F00303022B0BD0032B0DD09F
S31500001C70012B0FD152F0C1FD082305B1286004B134
S31500001C80236038BDFFF724FA0723F6E752F0B8FDC4
S31500001C900923F2E7044841F2421152F0A0FD002365
S31500001CA01846EAE70080005048B7060038B5124BE0
S31500001CB00546D3F860310C4603F00303022B0BD024
S31500001CC0032B0DD0012B0FD152F097FD082305B140
S31500001CD0286004B1236038BDFFF7FAF90723F6E759
S31500001CE052F08EFD0923F2E7044841F2701152F0DA
S31500001CF076FD00231846EAE70080005048B7060044
S31500001D0038B5154B0546D3F800320C4603F00703E9
S31500001D10013B032B18D8DFE803F0020A0E1252F03B
S31500001D206CFD082305B1286004B1236038BDFFF7B8
S31500001D30CFF90723F6E752F063FD0923F2E7FFF731
S31500001D4053F90C23800AEDE7044841F2173152F0AB
S31500001D5046FD00231846E5E70080005048B7060018
S31500001D6038B5154B0546D3F808320C4603F0070381
S31500001D70013B032B18D8DFE803F0020A0E1252F0DB
S31500001D803CFD082305B1286004B1236038BDFFF788
S31500001D909FF90723F6E752F033FD0923F2E7FFF731
S31500001DA023F90C23800AEDE7044841F24B3152F047
S31500001DB016FD00231846E5E70080005048B70600E8
S31500001DC038B5124B0546D3F840320C4603F00303F0
S31500001DD0022B0BD0032B0DD0012B0FD152F00DFD92
S31500001DE0082305B1286004B1236038BDFFF770F9F8
S31500001DF00723F6E752F004FD0923F2E7044841F20F
S31500001E00AA2152F0ECFC00231846EAE700800050B5
S31500001E1048B7060038B5104B0546D3F800310C46D6
S31500001E2003F00303022B0BD0032B0DD0012B0FD194
S31500001E30FFF7F0F8032305B1286004B1236038BD2D
S31500001E40FFF746F90723F6E752F0D5FC0623F2E73B
S31500001E5001230020EFE700BF00800050032810B5E3
S31500001E601BD005D8012805D0022810D000240CE08C
S31500001E700F28FBD10B4B1C6FC4F30134022C04D189
S31500001E8040F26B21084852F0AAFC601C10BD054BBD
S31500001E90D3F89040C4F30464F7E7024B1C6FC4F315
S31500001EA08024F2E70080005048B706001FB50023E3
S31500001EB00193252873D8DFE800F013191C252A346E
S31500001EC0394F54595E63686D72193E727254192502
S31500001ED02A2534194F256D39393939252525595E75
S31500001EE0FFF768F80190019804B010BDFFF77CF881
S31500001EF0F8E7FFF75FF804460220FFF7AFFFB4FBF1
S31500001F00F0F0EFE7FFF770F804460320F5E7FFF778
S31500001F106BF804460320FFF7A1FFB4FBF0F040087E
S31500001F20E0E7002101A8FFF767FEDCE7002101A832
S31500001F30FFF732FED7E702934FF0E0231B695B07FA
S31500001F4005D5FFF751F80290029B0193CBE703A951
S31500001F5002A8FFF781FEF7E7002101A8FFF77CFE44
S31500001F60C1E7002101A8FFF7A1FEBCE7002101A8F7
S31500001F70FFF7C6FEB7E7002101A8FFF7F1FEB2E7BB
S31500001F80002101A8FFF746FFADE7002101A8FFF7F2
S31500001F90DFFDA8E7002101A8FFF712FFA3E74FF432
S31500001FA06571024852F01BFC9DE700BF48B706006A
S31500001FB008B50120FFF77AFFBDE8084003498842CB
S31500001FC08CBF02210121032000F002B880F0FA0242
S31500001FD0032810B53DD00AD801280AD0022826D0F9
S31500001FE040F2FE21BDE81040224852F0F8BB0F280F
S31500001FF0F6D14C1E012C06D9042904D040F2B32197
S315000020001C4852F0ECFB52F04DFC52F053FC1A4ABD
S31500002010136F23F4405343EA04331367FEF7E4FFD8
S315000020200021FFF7E3FCBDE81040FFF7C1BF4C1EDF
S315000020301F2C04D940F2F2210E4852F0D0FB0E4B71
S31500002040D3F8901021F0F85141EA0461C3F89010DA
S3150000205010BD4C1E012C04D94FF43E71054852F0B8
S31500002060BEFB054B196F21F4806141EA8421196793
S31500002070EEE700BF48B70600008000501FB50023FA
S31500002080019325286FD8DFE800F0136E6E6E6E2D73
S31500002090354B50555A5F64696E6E3A6E6E506E6E71
S315000020A06E6E2D6E4B6E69353535356E6E6E555AC4
S315000020B02E4B1B6F03F00703013B032B0CD8DFE805
S315000020C003F009020507042301930FE00323FBE74E
S315000020D00623F9E70223F7E740F2AA41244852F023
S315000020E07EFB03E0002001A9FFF786FD019805B0FD
S315000020F05DF804FB002001A9FFF74EFDF6E7029309
S315000021004FF0E0231B695B0705D5FEF76DFF0B2338
S315000021100393039BD8E703A902A8FFF79DFDF8E701
S31500002120002001A9FFF798FDE0E7002001A9FFF7CD
S31500002130BDFDDBE7002001A9FFF7E2FDD6E70020A1
S3150000214001A9FFF70DFED1E7002001A9FFF762FE06
S31500002150CCE7002001A9FFF7FBFCC7E7002001A997
S31500002160FFF72EFEC2E740F25951B7E70080005054
S3150000217048B7060008B5FFF781FF07280ABF024BDC
S315000021804FF6FF70188808BD481A002001212DE976
S31500002190F0470446844B854A5D6851609E6916F097
S315000021A00306FBD12268824B9A4204D840F6EB1113
S315000021B0804852F014FB22687F4B9A4204D940F6BD
S315000021C0EC117C4852F00BFBA388B3F5967F04D83C
S315000021D040F6EF11774852F002FBA388B3F5805F13
S315000021E004D34FF41F61734852F0F9FAE388B3F54C
S315000021F0805F04D340F6F1116E4852F0F0FA6F4A50
S315000022000023114620681768B84202D35768B842BF
S3150000221005D90133192B02F11002F4D1002301EB89
S315000022200313D3E9028028B1FFF70CFC00F07F000E
S3150000223048EA00080020FFF721FF0428074667D177
S3150000224052F030FB52F036FB0120FFF707FE012863
S31500002250064658D10221FFF7BBFE0127DFF864913D
S31500002260D9F80C1011F00601FAD1D9F808A0C9F86E
S315000022700880D9F8083008F4F81203F4F8139A42E3
S315000022805CD040F63D214B4852F0A9FA15F0010505
S315000022904FF00108C9F808A078D10020FFF7EEFE3C
S315000022A0042828D11FB131460120FFF791FEFEF721
S315000022B09BFE23680646834204D240F671213D48C0
S315000022C052F08DFAFEF76AFEB04204D240F6722151
S315000022D0384852F084FA2468FEF760FE844204D03F
S315000022E040F67321334852F07AFA00213046FFF760
S315000022F07DFBFFF75DFEB8F1000F1DD16B1E584246
S315000023005841BDE8F087022802D139460120A2E7EC
S315000023100027A3E7072B07D1294AD2F8003123F07B
S31500002320030343F0020319E0062B19D1244AD2F81D
S31500002330003143F0030311E00020E2E7A288E388BE
S3150000234043EA0243184AD360A368032BE2D11C4A2E
S31500002350D2F8003123F0030343F00103C2F8003141
S31500002360237D207B002B637D14BF04220022002BDB
S3150000237018BF402123694FF0000843EA4003134386
S31500002380094A0B4393602068FEF70EFE0722074BAF
S315000023901A610122A3F580535A60A3F580531D6983
S315000023A015F00705FBD078E700C0015000E00150AA
S315000023B09FBB0D0048B7060000B4C40474B70600FE
S315000023C00080005000000150036870B50F2B0446D2
S315000023D004D940F6F8216B4852F001FA63680F2BD6
S315000023E004D940F6FB21674852F0F9F9A3680F2B90
S315000023F004D940F6FE21634852F0F1F9237B0F2BF6
S3150000240004D940F601315F4852F0E9F9637B0F2B9E
S3150000241004D940F604315B4852F0E1F9A37B3F2B27
S3150000242004D940F60731574852F0D9F9E37B3F2BE0
S3150000243004D940F60A31534852F0D1F92369032BE7
S3150000244004D940F60D314F4852F0C9F96369032BA0
S3150000245004D94FF431614B4852F0C1F9E369012BBD
S3150000246004D940F61331474852F0B9F90020FFF776
S3150000247005FE03287CD045F60E030221424AC2F827
S315000024808030424B9962012103F580539962936D26
S31500002490D903FCD4D4E900131B0543EA0163E17BAD
S315000024A094F822500B43217B94F8236043EA0143BE
S315000024B0617B43EA0133A17B43EA8113136191698E
S315000024C0D4E904031B0643EA806301F000410B4391
S315000024D0A17EE07E0B43217E43EA0143617E43EA0F
S315000024E001239361136AE26923F00D03002A0CBFEE
S315000024F00021082143EA020343EA8003224A43EA11
S315000025000103136294F820304FEA431331D1906AE5
S3150000251094F8211020F0330043EA0113034343F0FB
S31500002520010393621A4B916D33EA0101FBD102213B
S31500002530164B9962936D5B00FCD41069A36820F476
S31500002540700040EA035010614FF000420F4B9A6151
S315000025501DB9022203F580539A6216B901220D4B6A
S315000025609A6294F824301BB1074B0B4AC3F88020BB
S3150000257070BD916A21F0330131430B4343EA4503B1
S315000025809362EEE748B7060000C0005000D0005046
S315000025900300014000E00050F1A7FFFF014B93F953
S315000025A00000704770980020436810B5072B04465A
S315000025B004D940F6C341274852F011F9A368032B0A
S315000025C004D940F6C541234852F009F92378032B74
S315000025D004D940F6C7411F4852F001F994F9013079
S315000025E0002B04DA40F6C9411A4852F0F8F84FF4C5
S315000025F0D1510220184A6378516218494F2B48601E
S315000026004FF0010028BF4F2301F580514860116942
S31500002610C903FCD4217843EA01235361D4E90113A9
S315000026201B0143EA0123617B0B43217B43EA410300
S315000026309360E37BA17B1B0143EA4113617C0B435F
S31500002640217C43EA41035360A37C13B16FF4D15359
S31500002650536210BD48B70600000002500010025039
S31500002660014B1880704700BF481A0020034B58687A
S31500002670C0F30800003818BF0120704700ED00E0E5
S3150000268038B5C5B23C2D044604D940F21F3107487F
S3150000269052F0A5F8064B640953F8240005F01F050F
S315000026A0E840C04300F0010038BD00BF04B9060091
S315000026B000E100E00A4A10B51369044643F004033A
S315000026C0136105F051FA52F01AF930BF52F018F9B9
S315000026D005F05EFA1CB9BDE81040FEF785BC10BDDA
S315000026E000ED00E0084A10B51369044643F0040300
S315000026F0136105F039FA30BF05F04AFA1CB9BDE896
S315000027001040FEF771BC10BD00ED00E0034A0179F0
S31500002710D36E23F030030B43D3667047004000505E
S31500002720064B9FED070AD3F88830C3F30A0307EE7A
S31500002730903AFAEECF7A37EEC00A70470040005062
S31500002740339388431F2970B504460D46164603D9B0
S315000027509121074852F043F836B104F5805401211F
S3150000276001FA05F5256070BD04F50054F7E700BFD2
S3150000277031B9060038B50D460446D8B101281BD03C
S3150000278002281BD0032803D11F23EB40DB0704D408
S3150000279040F22D410A4852F022F83020012141F240
S315000027A01003444304F1A04401FA05F504F570341E
S315000027B0E55038BD7F23E8E70323E6E73F23E4E758
S315000027C0D7B6060038B50D460446D8B101281BD049
S315000027D002281BD0032803D11F23EB40DB0704D4B8
S315000027E040F2FE310A4851F0FAFF3020012142F250
S315000027F01003444304F1A04401FA05F504F57034CE
S31500002800E55038BD7F23E8E70323E6E73F23E4E707
S31500002810D7B606002DE9F3470D4614461F46064671
S315000028209DF828909DF82C80002842D0012842D09F
S31500002830022842D0032803D11F21E940CB0703D445
S31500002840BF211F4851F0CBFF85EA040333F0030391
S3150000285003D0C1211A4851F0C2FF072C12D8032118
S315000028604FEA840A01FA0AF1164806FA0AF20191B9
S3150000287052F049F805F003020199134802FA0AF2E8
S3150000288052F041F83A4621461048FFF75BFF4A46A8
S3150000289021460F48FFF756FF01230E4AA340C2F810
S315000028A02034214642460C4802B0BDE8F047FFF707
S315000028B049BF7F21C1E70321BFE73F21BDE700BF35
S315000028C05DB9060000C4035008C4035010C4035089
S315000028D014C4035000E0035024C40350F8B50D4659
S315000028E016461F46044660B301282CD002282CD079
S315000028F0032803D11F22EA40D30704D44FF4B07152
S315000029001B4851F06CFF26B129462046FFB1FFF760
S3150000291031FF04EB4403072D4FF00F014FEA031379
S3150000292018D8A80006FA00F281401248184451F05F
S31500002930EAFFDEB929462046A7B1BDE8F840FFF711
S3150000294019BF7F22D7E70322D5E73F22D3E7FFF758
S3150000295039FFDEE7A5F10800800006FA00F28140A3
S315000029600548E3E7BDE8F840FFF72CBFF8BD00BF18
S315000029705DB9060004C003500CC0035010B50446F0
S3150000298018B991211B4851F02AFF23781B0613F032
S31500002990604F03D09221174851F021FFE3780F2BA7
S315000029A003D9A321134851F01AFF0122124B5A6092
S315000029B0227812069A606178A27842EA01429A6108
S315000029C0FF229A6200229A631A644FF000425A6507
S315000029D04FF0FF324FF4001103F500531A65074A12
S315000029E0C2F88011E3781B01DBB282F8153311605F
S315000029F010BD00BF8AB906000000045000E100E0E7
S31500002A0041F67132034BDA63012203F50053DA60B3
S31500002A10704700BF0000035041F671320121044B9C
S31500002A20DA6303F50052D1600022DA63704700BF13
S31500002A3000000350262808B504D8222808D878B103
S31500002A40012812D00B48B62151F0C9FE002007E03C
S31500002A502438022803D8DFE800F00A040600012023
S31500002A6008BD0420FCE70520FAE70320F8E702206A
S31500002A70F6E700BFE3B90600012810B50C460DD0F5
S31500002A802338032803D8042903D8074B5C5C204667
S31500002A9010BDF621054851F0A2FEF8E70229F6D945
S31500002AA040F20711F6E700BF0FBA0600E3B90600C9
S31500002AB0021E30B54FF000000CBF0C25042547F66A
S31500002AC00774084952B9831D51F82330234023B1B6
S31500002AD001308542F6D14FF0FF3030BD00F11203D0
S31500002AE0F2E700BF00800350F8B50546C2F306279B
S31500002AF002F0070479B90B2804D94FF4FC71114888
S31500002B0051F06DFE104B44EA072444F44024063588
S31500002B1043F82540F8BD032804D940F2FD110948C1
S31500002B2051F05DFE21463846FFF7A6FF06463846B9
S31500002B30FFF780FF044B46EA0020123543F82500D4
S31500002B40E8E700BFE3B9060000800350B2F5805FF6
S31500002B5070B505460E4614460DD34FF40B71084862
S31500002B6051F03DFE24F0030202F1A04202F560326C
S31500002B7026B9156001E0002AF4D170BD2D02F8E7F0
S31500002B80E3B90600022838B505460C4603D94C21A0
S31500002B900C4851F024FEE378627821785B0143EA21
S31500002BA0820322790B4343EA02130C226A4302F1A1
S31500002BB0B0421363012902BFA278034B43F82520D4
S31500002BC038BD00BF14BA0600D080035008B54FF0D8
S31500002BD0B0435A6802B960B15B680BB151F0AAFE06
S31500002BE04FF0B04130B10120074B586051F0A2FEC2
S31500002BF0C86008BD51F09EFE0223CB6051F09AFEDC
S31500002C000122024B5A60F4E70010005800200058D9
S31500002C104FF0B0435B6870B50BB151F08BFE0121EC
S31500002C20104B4578596083780679002BC37814BF1A
S31500002C3002240024002B14BF042200224379DB0067
S31500002C4043EA06132B43234313434FF0B0429360EA
S31500002C50054B59600378002B14BF0B460223D36043
S31500002C6070BD00BF0020005800100058C369032B38
S31500002C7003D9F621044851F0B2BD00EB83020133BB
S31500002C80D160C361704700BF41BA0600C369042B17
S31500002C9016D84FF09842116CC902FCD504339B003C
S31500002CA013650168103B116041680C30116050F8E3
S31500002CB0041C034411604FF09842984205D17047B6
S31500002CC040F20F11034851F08ABD50F8041B116001
S31500002CD0F3E700BF41BA0600054B5B69C3F38512F3
S31500002CE0827003F03F021B0B42700370704700BFF7
S31500002CF000C0075040F6B732064B5B689BB2934262
S31500002D009FBF4FF47A72B3FBF2F3034AD05C88BFDD
S31500002D10002070470080E00F6CBA06000D4B984209
S31500002D2008D1A3F50033C3F88411C36D43F08003C3
S31500002D30C3657047084B984204D1A3F51033C3F816
S31500002D409411F2E7054B984204BFA3F52033C3F86C
S31500002D50A411EAE70080055000C0055000000650A7
S31500002D6070B506460C46154622B940F28E210C482F
S31500002D7051F035FD1CB90320FFF798F804466D00A5
S31500002D80013CB4FBF5F4074B250213EA042304D0F7
S31500002D9040F2B321024851F022FDF56170BD00BF3B
S31500002DA06FBA0600070080FF1F4B10B59842044615
S31500002DB00CD003F58043984208D003F5804398422F
S31500002DC004D040F24241194851F009FD012204F5B0
S31500002DD080535A6040F6AA6341F2050263610023FC
S31500002DE01349A360E365E26004F500522361E361E1
S31500002DF0E36491640C49A3658C4206D00D48844275
S31500002E0003D000F5804084420BD18C42236506D066
S31500002E10084B9C4203D003F580439C4201D100231A
S31500002E2063650123536010BD008005506FBA06002C
S31500002E30FFFF010000C0055038B52D4B04469842EF
S31500002E400D460CD003F58043984208D003F5804325
S31500002E50984204D040F26931264851F0C0FC204621
S31500002E60FFF7A2FF0122A97B04F580535A602A8A44
S31500002E70A368002914BF4FF48061002142F00102CB
S31500002E8013432A7D0B43002A14BF4FF00052002241
S31500002E90A360A3681343A360AB7C1BB12046E97C07
S31500002EA0FFF73CFFD5E901122B7B204643F4805304
S31500002EB0E360FFF755FF6B7B0BB1102363616B7DFE
S31500002EC01BB1A36843F48033A360AB7D1BB1A36839
S31500002ED043F40043A360EB7D2A7E1B07120503F033
S31500002EE0E04302F4E0021343A3652B78636138BD27
S31500002EF0008005506FBA06000123064A411100F012
S31500002F001F0003FA00F052F82130184342F821005E
S31500002F10704700BF20580020044B1B681BB1044BB0
S31500002F200360002070470120704700BF3058002022
S31500002F309497002070B50D4C246884B10C4C85180C
S31500002F402688B5420DDC6688CD18B54209DC52B13B
S31500002F504BB1A0800020E1802281638170BD0120F9
S31500002F60FCE70420FAE70520F8E700BF3058002008
S31500002F70949700202DE9F74F1E46424B90461B685A
S31500002F80002B79D0DFF804A1BAF80A20BAF8084075
S31500002F90531A63431B1AB34270D300244FF001093E
S31500002FA0BAF806301A4492B25F180192BFB21EB93F
S31500002FB0304603B0BDE8F08F019ABBB293425FD2B0
S31500002FC0BAF80850304B2D1AB54228BF354603EBE8
S31500002FD00712BAF80430761B184483B2400703D1AF
S31500002FE0610701D1072D26D81D441B1B191989B26B
S31500002FF0A94205D33846FFF77FFF01370020D6E701
S315000030004FEAE40E18F80EE04FEAD10C04F0070B75
S3150000301001F0070112F90C0009FA01F14EFA0BFE54
S3150000302049B21EF0010F14BF014320EA010102F864
S315000030300C100134DAE702EBD3034FEAD50B5A46FC
S31500003040184608EBE40156F0ECFB25F00702AD1A32
S3150000305003461444CED0E01009FA05F218F8000031
S31500003060D2B2511E014013F80B00524202400A43ED
S3150000307003F80B202C44BDE7012699E7032697E7C2
S31500003080042695E730580020719800209497002078
S315000030902DE9F74F0093444B1B68002B7FD04FF070
S315000030A0010BDFF80C910D9FB9F80630B9F80A202C
S315000030B05D181A441FFA82FAADB21FB9384603B03A
S315000030C0BDE8F08FABB29A456BD9384AB9F80840DB
S315000030D002EB0511241A009ABC4228BF3C46161E74
S315000030E018BF0126B9F8043076420344072CA7EB33
S315000030F004079BB2F6B221D81C44BEB9A34217D22C
S31500003100DE0803F007020BFA02F08A5D013322EAB9
S3150000311000028A559BB2F1E7D8080E5C03F007025D
S315000031200BFA02F2324301330A549BB2A342F3D3A1
S315000031302846FFF7E1FE01350020BEE74FEAD30C33
S3150000314001EBD30813F0070310D00BFA03F211F8C2
S315000031500CE0D2B2501E52420EEA0000324010433A
S31500003160083B01F80C0008F101081C44E20809D0EC
S3150000317031464046019256F07BFB14F00704019A53
S31500003180D6D090440BFA04F498F80030E4B26242C8
S31500003190013C134034401C4388F80040C8E701272F
S315000031A08CE704278AE700BF30580020719800207A
S315000031B0949700202DE9F843002301251A461A4F5B
S315000031C0DFF86C803C68DFF86490D8F80000D61809
S315000031D041888E4207D3FBB910220021124856F0CF
S315000031E047FB002012E0E10708D50133D118C906D4
S315000031F00ABF57F8254064080135E6E753B109EBE5
S315000032000211FDF7F7FD034610B10720BDE8F8836C
S31500003210721CEBE70132E9E7044901EB0211FDF705
S31500003220E9FD0028D8D0F0E720580020719800204A
S315000032303058002030B5054687B000B300226FF045
S315000032407F43C0E9012301A8FFF766FE044698B94B
S31500003250019BCDE902001A882B605B88013A013B8D
S31500003260284602A90492059351F0CFFB044618B9EB
S315000032702846044951F07EFD204607B030BD05249E
S31500003280FAE700BFD0BD060038B50446054D61F02B
S31500003290A0FC0FCC0FC594E80F0085E80F000020B6
S315000032A038BD00BF3458002047F6FF739A42F0B588
S315000032B067D0032967D8354DCF0015F8313005EBB7
S315000032C0C100012B847813D10025C3781B1B9D42B6
S315000032D002D3E018C0B2F0BD591B4668A3EB5101FA
S315000032E036F911609642D4BF0D4601F1FF33EEE781
S315000032F040680028EFD0B0F90030934204DBB0F903
S3150000330002309342B8BF134682883D44FF2A19BF54
S31500003310C8214FF0280CB0F90610B0F908C0A1EB8F
S3150000332003020CBF0126002692FBFCF26D783244A4
S3150000333012B2954201DD002A01DA6A1E12B24FF47A
S315000033407A7700EBC206F188B668013213FB016199
S3150000335012B221EAE17101F5FA719542B1FBF7F17A
S3150000336004DD00EBC206B6888E42EAD200EBC2024A
S3150000337032F8040C884228BF0846A04238BF2046CF
S31500003380A8E7FF20A7E70020A5E700BF34580020E4
S315000033900329F0B553D82B4800EBC10410F83110BF
S315000033A0636801290FD1E078A478904294BFC4EBFA
S315000033B00001C4EB0201001BCAB28242C8BF002250
S315000033C033F91200F0BD002B39D0A178914202D317
S315000033D0B3F90200F6E7E178B3F900009142F1D9BA
S315000033E099886478A1F1FF06013C714203F1040556
S315000033F0E4B2714103F10C071FFA82FCCEB2B4426B
S3150000340016D805EBC1014FF47A756A43B1F902404B
S315000034104968521A04EBD47102EB610292FBF4F292
S315000034209042CFDBB3F902009042CBDC10B2C9E781
S3150000343037F831E04E1CE645E3D33146DEE7024875
S31500003440C0E700BF345800200080FFFF08B50448DD
S31500003450FFF71AFFBDE80840012061F0CDBB00BFB1
S3150000346000C10600004870474A1A00202DE9F843BB
S3150000347006F08CFE0128074605D906F097FE061EC3
S3150000348002DA01241EE00026DFF8808098F800307A
S3150000349003F0FF0493BB4FF05009194D05F11003DB
S315000034A02846C5E90044AB60C5F80C9006F0F2FF6B
S315000034B0286650B90124012F04D9304606F098FE3B
S315000034C00028DEDB2046BDE8F8830E4D214605F1D7
S315000034D010032A460120C5E90044C5E9023907F070
S315000034E099F828660028E5D03022074B83F8012397
S315000034F002221A60012388F80030DCE70024DAE7AC
S31500003500B85800205458002000E100E071A00020C7
S31500003510B0F5A02F08B50CD015D8B0F5003F26D0D1
S3150000352009D828B3B0F5803F23D0EF21154851F0D4
S3150000353056F901201CE0B0F5403F1CD0B0F5802FB5
S31500003540F3D14B2014E0B0F5202F16D007D8B0F5F4
S31500003550C02FEED0B0F5E02FE7D1212008E0B0F57E
S31500003560302F0CD0B0F57F0FDFD1062000E02A20E7
S3150000357008BD4820FCE72C20FAE71020F8E71120C8
S31500003580F6E700BFECC1060008B506F0FFFD02280D
S3150000359009D1064B4FF0FF31186E06F0BDFF00381B
S315000035A018BF012008BD0020F9E700BFB858002069
S315000035B008B506F0EBFD022807D1054B186E06F09C
S315000035C0DBFF003818BF012008BD0020F9E700BF67
S315000035D0B858002008B54FF098435B6CD9020ED559
S315000035E006F0D4FD0238012809D80C4B186E07F0F6
S315000035F09DF820B14FF49271094851F0F0F84FF060
S3150000360098435A6CD202FCD55B6D064A03F47023CC
S3150000361013600222044BC3F8802108BD54580020D1
S31500003620ECC10600FC11002000E100E038B50546BB
S3150000363000283AD0FFF7A8FF0446002836D12846CE
S31500003640FFF724FB95F8203043B94FF098435A6CA6
S31500003650D202FCD55D6D05F470251BE04FF0984253
S31500003660936D43F00203936506F090FD02281AD18C
S31500003670104B4FF0FF31186E07F022F84FF09842CA
S31500003680936D23F00203936590B94FF4A0220A4B81
S315000036901D681A60FFF78CFF04463DB12846BDE859
S315000036A03840FFF735BF2046E8E72124204638BDDD
S315000036B00124FBE754580020FC1100202DE9F041BD
S315000036C08CB08846DDE912761D460446002847D0B0
S315000036D0002945D0002F43D0002E41D013F00F0310
S315000036E03ED120482049A360002A18BF0146E36165
S315000036F0C4E90013404609A951F0ECFC68BB20461A
S315000037000999FFF7B3FA29462046FFF7AFFA69464B
S31500003710404601F0DFF800BB6946204651F012F939
S31500003720404603A951F0A4FDB8B9204603A951F0BB
S3150000373009F906970127204645F0005506A907977F
S31500003740089551F0FFF8204609A909960A970B95A6
S3150000375051F002F92046FFF769FF0CB0BDE8F08191
S315000037602120FAE700010104000100042DE9F04FD1
S3150000377097B0894690461F460546DDF880A000288A
S3150000378000F0BD80002900F0BA803AB1229B002BE0
S3150000379000F0B580239B002B00F0B180BAF1000F3A
S315000037A000F0AD80219B002B00F0A98077B13C682A
S315000037B00026229B43440293464509D3002F00F07E
S315000037C0A08000203C6017B0BDE8F08F3C46EFE7D4
S315000037D05CB1229B219A9B5D125D01345340239A72
S315000037E004F00F0493550136E6E7A8EB060BBBF190
S315000037F00F0F58D9444B4846C5E90034AC60EC611C
S3150000380013A951F067FC0028DDD1284613992BF047
S315000038100F0BFFF72BFA59462846FFF727FA4846BB
S3150000382004A901F057F80028CDD1284604A951F083
S3150000383089F8484607A951F01BFD0028C3D1284640
S3150000384007A951F07FF801232299304ACDF828A024
S315000038500B930C928A190D9228464BF000520AA936
S315000038600E9303920F9251F06DF828460DA951F070
S3150000387069F8239B039A99190123109111931292C7
S31500003880224A284610A9CDF84CA01493159251F05F
S3150000389063F8284613A951F05FF82846FFF7C6FEDD
S315000038A05E4400288FD1229B03EB060B239B1E440C
S315000038B0029B5B4501D146467EE7ACB9219B224679
S315000038C0CDE900A3494610232846FFF7F7FE002856
S315000038D07FF479AF0AF1100212F8013D0133DBB231
S315000038E013700BB99245F7D1219A1BF8013B125D73
S315000038F00134534006F8013B04F00F04D8E72120B9
S3150000390061E738465FE700BF0303000410000020AC
S315000039102DE9F04F97B00F46144699468346209EF0
S31500003920DDF88880DDF890A0269D002800F09F80B5
S31500003930002900F09C801DB1259B002B00F097808C
S31500003940B9F1000F00F09380B8F1000F03D0219B6E
S31500003950002B00F08C803CB1239B002B00F087806D
S31500003960BAF1000F00F08380C6F10F02D2B2032A2B
S3150000397005D80121D20001FA02F2A24277D9022D1E
S3150000398075D0102D73D815F0010270D1F11F0629DC
S315000039906DD838490AEB0400884268D23649384661
S315000039A0CBE90012CBF80820CBF81C2013A951F064
S315000039B091FB002858D158461399FFF757F95846F6
S315000039C045EA0641FFF752F941465846FFF74EF9D8
S315000039D021465846FFF74AF9384601A900F07AFF12
S315000039E0002841D1584601A950F0ACFF384604A939
S315000039F051F03EFC002837D10127584604A950F063
S31500003A00A1FF239B48F000520793219B584644F0A0
S31500003A1000540DA946F00056089709940A930B978F
S31500003A200C92CDF834900E970F9650F08BFF5846B7
S31500003A300AA950F087FF584607A950F083FF259B37
S31500003A40584610A945F00055CDF840A0119712949C
S31500003A5013931497159550F07FFF584613A950F00D
S31500003A607BFF5846FFF7E2FD17B0BDE8F08F212037
S31500003A70FAE700BF00800120000005042DE9F04FA1
S31500003A8099B00F4614469B468046229EDDF89890D4
S31500003A90289D002800F0B280002900F0AF80279B07
S31500003AA0002B00F0AB80BBF1000F00F0A780249B39
S31500003AB01BB1239B002B00F0A1803CB1259B002B62
S31500003AC000F09C80B9F1000F00F09880C6F10F035A
S31500003AD0DBB2032B06D80121DB0001FA03F3A34274
S31500003AE040F28C80022D00F089806B1E0F2B00F2B5
S31500003AF0858015F0010A40F08180F31F062B7DD8E2
S31500003B003F4B09EB0401994278D23E4B3846C8E94F
S31500003B10003AC8F808A0C8F81CA015A951F0DAFAAE
S31500003B200346002866D140461599FFF79FF84046A0
S31500003B3045EA0641FFF79AF840462499FFF796F8BA
S31500003B4021464046FFF792F8384603A900F0C2FE28
S31500003B50034600284ED1404603A950F0F3FE3846EE
S31500003B6006A951F085FB0346002843D101274046AC
S31500003B7006A950F0E7FE259B4046099344F0005302
S31500003B800A9701930B93239B46F000560C93249BB4
S31500003B900D9743F000510E910FA9CDF83CB0109748
S31500003BA0119650F0CFFE40460CA950F0CBFE404691
S31500003BB009A950F0C7FE019B404612A9CDF84890CE
S31500003BC01397149350F0C8FE279B404615A945F05D
S31500003BD0005515931697179550F0B4FE4046FFF71B
S31500003BE025FD034630B1019022465146484655F020
S31500003BF03FFE019B184619B0BDE8F08F2123F9E777
S31500003C0000800120000006042DE9F0438DB08846AF
S31500003C1015461C460746DDF85090002850D000296E
S31500003C204ED0002A4CD0B9F1000F49D00B68103B9A
S31500003C30102B45D8012606FA03F303F0013323F0CF
S31500003C408073002B3CD000231E4A8360C0E900230A
S31500003C50C36109A9404651F03DFA70BB384609993F
S31500003C60FFF704F821463846FFF700F86946404654
S31500003C7000F030FE08BB6946384650F063FE404609
S31500003C8003A951F0F5FAC0B9384603A950F05AFE17
S31500003C9044F00054384606A906950796089450F055
S31500003CA051FE094B384609A9CDF824900A960B9384
S31500003CB050F052FE3846FFF7B9FC0DB0BDE8F08370
S31500003CC02120FAE70000040410000020F0B50C469D
S31500003CD017461E46054695B0002874D0002972D0B6
S31500003CE0002A70D0002B6ED0036B0F2B5BD80023FD
S31500003CF0364A3846C4E90023A360E36111A951F0AE
S31500003D00E9F900285BD120461199FEF7AFFF296B30
S31500003D1020460F2984BF01F00F011031FEF7A6FFE0
S31500003D20384602A900F0D6FD002848D1204602A94F
S31500003D3050F008FE384605A951F09AFA00283ED1FF
S31500003D40204605A950F0FEFD0122214B0895099257
S31500003D500A932B6B05F1100003F00F0141F000519F
S31500003D600B900F2B0C920D910E900F9243F0005278
S31500003D70109226D90A9B08A923F0005320460A93DD
S31500003D8050F0E0FD0BA9204650F0DCFD0123119612
S31500003D9012930F4B204611A9139350F0DDFD2046D8
S31500003DA0FFF744FC0BE000F1200301900093012291
S31500003DB0102339462046FFF781FC002897D015B01E
S31500003DC0F0BD0EA9DFE72120F9E700BF00000404DB
S31500003DD0100000202DE9F04F9BB00D469146984605
S31500003DE00646DDF890A0002800F0B380002900F018
S31500003DF0B080002A00F0AD80002B00F0AA80026B94
S31500003E0002EB0A031B09B3EB121F02F00F0700F0C7
S31500003E1098800023504A8B60C1E90023CB61484655
S31500003E2017A951F057F90446002840F0868007EBA1
S31500003E300A0323F00F0B284617990093FEF716FF87
S31500003E4059462846FEF712FF484602A900F042FDF1
S31500003E500446002871D1284602A950F073FD484651
S31500003E6005A951F005FA0446002866D14FF001096C
S31500003E70284605A950F066FD384A284608A908963E
S31500003E80CDF824900A9250F05DFD47F00051ABEB5F
S31500003E90070706F1100347F000570B93CDF8309053
S31500003EA00D91CDF83880CDF83C9010970D992846A5
S31500003EB021F000510D910BA9019350F043FD2846C6
S31500003EC00EA950F03FFDABF11001244A41F000511C
S31500003ED01194CDF84890139106F120011491CDF874
S31500003EE0549016921399284641F0804113911399E4
S31500003EF021F00051139111A950F02EFD284614A966
S31500003F0050F02AFD154A17A928461796CDF8609055
S31500003F10199250F021FD2846FFF788FB009B0446C6
S31500003F20ABEB0301A3EB0B02019B51441846414442
S31500003F3055F077FC336B5344336320461BB0BDE822
S31500003F40F08F103052464146384455F06AFC002442
S31500003F50F0E72124F1E700BF03020004100000206F
S31500003F602DE9F0438DB08846DDE914591E46074613
S31500003F70002850D000294ED0002B4CD0B9F1000FAC
S31500003F8049D0531EDBB2042B45D82449CC5C169B82
S31500003F909C4240D8224B09A903EB0222002302606F
S31500003FA0C0E90133C361404651F094F880BB3846FE
S31500003FB00999FEF75BFE29463846FEF757FE694625
S31500003FC0404600F087FC18BB6946384650F0BAFCFC
S31500003FD0404603A951F04CF9D0B9384603A950F030
S31500003FE0B1FC06960126384606A945F00055079607
S31500003FF044F00054089550F0A5FC384609A9CDF8C0
S3150000400024900A960B9450F0A7FC3846FFF70EFB57
S315000040100DB0BDE8F0832120FAE700BF3AC20600E2
S31500004020000102032DE9F04F9BB00C46DDE9278A1B
S3150000403017461E468146299D002800F02681002944
S3150000404000F02381249B002B00F01F812B9B002B6B
S3150000405000F01B81B8F1000F03D0269B002B00F067
S31500004060148136B1BAF1000F00F00F81002D00F077
S315000040700C812A9B043B0C2B00F20781259B0C2B01
S3150000408040F003812368A3F11001102900F2FD809E
S3150000409001238B4003F0013323F08073002B00F0E3
S315000040A0F480012F7BD12A9A794B204643EA0223DA
S315000040B0C9F80030002316A9C9E90133C9F81C3034
S315000040C051F008F88346002840F0DB8048461699F0
S315000040D0FEF7CCFD41464846FEF7C8FD3146484648
S315000040E0FEF7C4FD204604A900F0F4FB8346002831
S315000040F040F0C780484604A950F024FC204607A992
S3150000410051F0B6F88346002840F0BB80484607A920
S3150000411050F018FC249B48460A935E4B0AA90B975D
S315000041200C9350F00FFC269B48460D930DA948F0C2
S3150000413000530E970F9350F005FCCDF840A048466B
S3150000414046F0005A10A91197CDF848A050F0FAFB96
S315000041502B9B484613932A9B13A943F000531497AD
S31500004160159350F0EFFB16951797CDF860A01DB983
S31500004170189B43F080431893484616A950F0ECFB71
S315000041804846FFF753FA834638B12C2805D0324605
S315000041900021284655F06CFB73E0AA460025002353
S315000041A03D4A16AF39462046C9E90023C9F808300A
S315000041B0C9F81C3050F08EFF8346002861D148466E
S315000041C01699FEF753FD41464846FEF74FFD314628
S315000041D04846FEF74BFD204601A900F07BFB8346CF
S315000041E000284ED1484601A950F0ACFB204604A950
S315000041F051F03EF88346002843D10124484604A9DD
S3150000420050F0A0FB249B48460793224B07A908942D
S31500004210099350F097FB269B48460A930AA948F053
S3150000422000530B9446F000580C9350F08BFB484615
S315000042300DA9CDF834A00E94CDF83C8050F082FB49
S3150000424010951194CDF848801DB9129B43F0804318
S315000042501293484610A950F07FFB0123139714933D
S315000042600E4B484613A9159350F076FB4846FFF7C8
S31500004270DDF9834600288AD139462A9A2B9855F0CB
S31500004280D0FA58461BB0BDE8F08F4FF0210BF8E787
S31500004290000003040C0000200000020410000020AF
S315000042A02DE9F04F97B00C4615469A460746DDF8BD
S315000042B08880DDF89090002800F0A780002900F0A3
S315000042C0A480002B00F0A180269B002B00F09D808F
S315000042D0B8F1000F03D0219B002B00F096803DB172
S315000042E0239B002B00F09180B9F1000F00F08D8028
S315000042F0259B043B0C2B00F28880209B0C2B40F066
S3150000430084802368103B102B7FD8012606FA03F31E
S3150000431003F0013323F08073002B76D0259A3C4BB3
S31500004320204643EA02233B60002313A9C7E9013371
S31500004330FB6150F0CFFE8346002862D138461399C0
S31500004340FEF794FC41463846FEF790FC294638466F
S31500004350FEF78CFC204601A900F0BCFA8346002833
S315000043604FD1384601A950F0EDFA204604A950F085
S315000043707FFF8346002844D1384604A950F0E2FA6C
S31500004380244B384607A9CDF81CA00896099350F08F
S31500004390D9FA219B38460A930AA948F000530B968E
S315000043A00C9350F0CFFA239B384645F000540DA9E4
S315000043B00D930E960F9450F0C5FA269B384610932F
S315000043C0259B10A943F000531196129350F0BAFAA8
S315000043D0CDF84C9014961594B9F1000F03D1159BA6
S315000043E043F080431593384613A950F0B5FA384682
S315000043F0FFF71CF9834620B12A460021484655F0AE
S3150000440037FA584617B0BDE8F08F4FF0210BF8E7A2
S31500004410000003040C0000202DE9FF4700230E4690
S3150000442017460446009300285BD00AB1002958D0ED
S3150000443037F0030807F0030A25D04FF000094FF0C4
S31500004440E063C4E90039012301962046029301A9DD
S3150000445048F00053C4F80890C4F81C90039350F039
S315000044607BFA41462046FEF701FC2046FFF7DEF8C0
S31500004470054640B142464946304655F0F9F92846C8
S3150000448004B0BDE8F0874FF00009BAF1000F2AD05A
S315000044904FF0E063C4E900390123CDF804D002935C
S315000044A0124B204601A9C4F80890C4F81C90039347
S315000044B050F052FA04212046FEF7D8FB2046FFF7BB
S315000044C0B5F8054608B13A46D5E70346009946448D
S315000044D0DA00013321FA02F29A4506F8012BF7D1E8
S315000044E0CDE72125CBE75546C9E700BF04000020EC
S315000044F0F0B5044608462178174601398DB00429DF
S3150000450045D8DFE801F00330353A3F004025142650
S3150000451020490C3400225D43C0E90122C2610160DA
S3150000452029460190FEF7A2FB0123019846F00056AA
S3150000453006A945F00055039704930595069407933D
S31500004540089609940A930B9650F0FCF9019803A972
S3150000455050F0F8F9019809A950F0FEF90198FFF713
S3150000456065F80DB0F0BD402520260B490C34D1E787
S315000045704025202609490C34CCE7802540260849E9
S315000045801434C7E78025402606491434C2E72120A3
S31500004590E7E700BF00020103000301030004010373
S315000045A0000501030006010310B591B188B100238F
S315000045B0C0E90133084B00F10C0203F1200153F866
S315000045C0044B8B4242F8044BF9D1032303700020BD
S315000045D010BD2120FCE700BF3FC2060010B5A1B107
S315000045E098B10023C0E90133C0E90333084B00F159
S315000045F0140203F1400153F8044B8B4242F8044B7A
S31500004600F9D105230370002010BD2120FCE700BF6F
S3150000461060C206002DE9F0479046044686B00028A1
S315000046206ED000296CD0002A6AD00278013A042A9A
S3150000463066D8DFE802F00350555A6000142604F1EC
S315000046400C07201D40259E425AD84FF0000CE2462A
S3150000465002AB4FEA551E4FEAD50903EBD50250F8D7
S315000046602C300CF1010C0AEBC30A02F801AC4FEA3C
S31500004670531A02F802AC4FEA533A02F803ACE64585
S315000046804FEA535A02F804AD4FEA537AE7D102686B
S315000046906B1E1340A5EB09029A4296BFA5EB4E0589
S315000046A0D31AC3EB45032046164A019150F0C4FBCA
S315000046B00199054658B94B46204602AA50F0BCFB64
S315000046C0054620B932463946404655F0AAF82846EE
S315000046D006B0BDE8F0871C2604F10C07201DB1E7E3
S315000046E0202604F10C07201DACE7302604F1140740
S315000046F0201D8025A7E7402604F11407201DF8E7B2
S315000047002125E4E7A6C206002DE9F04186B09046D1
S315000047101D4604460C9F002833D097B302B983BBCD
S315000047204B1EDBB2042B2CD8174AD65C0D9B9E423F
S3150000473027D80023080200F1407000F58070294652
S31500004740C4E901332060E3612046FEF78FFA0123B6
S315000047506946204645F0005546F00056CDF80080E3
S315000047600193029503970493059650F0EBF82046C3
S3150000477003A950F0F1F82046FEF758FF06B0BDE851
S31500004780F0812120FAE700BFA1C20600F0B50F466E
S3150000479016461D46044693B010B9212013B0F0BD4D
S315000047A00029FAD0002AF8D0002BF6D00023314693
S315000047B01A46384650F043FC0028EFD1304602A98D
S315000047C050F0AAFB0028E9D1EB68022B0AD0396821
S315000047D03F48029A81426B6902D01830814270D1FB
S315000047E09A42DAD82B68002BD7D14FF06062384650
S315000047F0C4E90023A360E36101A950F06BFC002823
S31500004800CCD10199204621F4F0610191FEF72EFAF0
S315000048106946284650F05EFC0028BFD12046009924
S31500004820FEF724FA384609A900F054F80028B5D155
S31500004830204609A950F086F838460CA950F018FD14
S315000048400028ABD120460CA950F07CF8EB684BB1A0
S31500004850284606A900F03EF800289FD1204606A962
S3150000486050F070F8304603A950F002FD002895D1AB
S31500004870B368DA040CD59B0427D50621F36932699F
S315000048801B6801FB03225B0043F000530392059370
S31500004890204603A950F056F828460FA950F0E8FC28
S315000048A000287FF47BAF20460FA950F055F803256A
S315000048B02046FEF7BBFE01287FF470AF013DF7D11D
S315000048C06CE7B3EB420F8DD267E7292066E700BF9E
S315000048D0200000B0A0B199B101234B60C368013B31
S315000048E0012B0AD88069074B18B1086000208B603D
S315000048F07047054A0A608B6070474FF00053F5E732
S31500004900212070470800002028C3060070B50E4617
S31500004910154604468AB000285BD0002959D0002AE3
S3150000492057D0012329461A46304650F088FB002806
S315000049304DD1B36813F4C04F4BD0AB6803F4C043FA
S31500004940B3F5005F45D1254BA060C4E90030E061B6
S3150000495007A9304650F0BEFB002838D120460799FB
S31500004960FEF784F9304601A9FFF7B4FF78BB20466D
S315000049704FF0E8FF304604A950F07AFC38BB2046D9
S3150000498004A94FF0DFFFEB681BBBAB6803F4C04321
S31500004990B3F5005F1DD16946284650F0EEFAB0B96E
S315000049A0009B6A699A4216D32A6943F0005307921C
S315000049B00122204607A90892032509934FF0CCFF50
S315000049C02046FEF733FE012801D1013DF8D10AB099
S315000049D070BD2120FBE71D20F9E700BF00000102A2
S315000049E02DE9F04391B00C46DDE918650746DDF880
S315000049F0688000286DD000296BD0002E69D0B8F1F0
S31500004A00000F66D0096801F07041B1F1404F5BD0EC
S31500004A10002B5BD1531E042B5BD8120202F1C0623D
S31500004A2002F5807200232046C7E901333A60FB6134
S31500004A300DA950F04FFB002843D138460D99FEF7DB
S31500004A4015F929463846FEF711F9204601A9FFF760
S31500004A5041FF002835D1384601A94FF073FF2046A3
S31500004A6004A950F005FC60BB4FF00109384604A9C3
S31500004A704FF068FF45F00055384607A90796CDF870
S31500004A80209009954FF05EFF23680A9603F0704365
S31500004A90B3F1404FCDF82C900C9503D138460AA9B6
S31500004AA04FF050FF0123CDF834800E931B9B384600
S31500004AB043F000530DA90F934FF04EFF3846FEF713
S31500004AC0B5FD11B0BDE8F083034AABE74FF0C06215
S31500004AD0A8E72120F5E700BF000002062DE9F04116
S31500004AE08CB00C46DDE912750646DDF850800028CC
S31500004AF067D0002965D0002F63D0B8F1000F60D0D1
S31500004B00896889045DD5216801F07041B1F1404F93
S31500004B104DD0002B4DD1531E042B52D82A4B03EBFC
S31500004B20022200232046C6E901333260F36109A957
S31500004B3050F0D0FA002837D130460999FEF796F89A
S31500004B4029463046FEF792F869462046FFF7C2FE30
S31500004B5050BB694630464FF0F5FE204603A950F09B
S31500004B6087FB08BB304603A94FF0ECFE012345F056
S31500004B700055069707930895CDF824800A93159B50
S31500004B8043F000530B93236803F07043B3F1404F97
S31500004B9011D109A930464FF0D5FE06A930464FF08F
S31500004BA0D1FE3046FEF742FD0CB0BDE8F081074A63
S31500004BB0B7E7074AB5E706A930464FF0C3FE09A98D
S31500004BC0ECE72120F0E700BF000101060000030624
S31500004BD0000001061FB5044698B191B100230A4AA8
S31500004BE08360C0E90023C361012301910293074B4F
S31500004BF001A903934FF0B0FE2046FEF717FD04B05F
S31500004C0010BD2120FBE700BF000008430400002080
S31500004C107FB50E461D460446F0B102B9E3B901233D
S31500004C200192029345F00053039300230B4AA360BD
S31500004C30C4E90023E361204601A94FF083FE314613
S31500004C402046FEF713F820462946FEF70FF82046C1
S31500004C50FEF7ECFC04B070BD2120FBE70000094321
S31500004C6010B5044668B10023074A8360C0E90023F3
S31500004C70C3610649FDF7FAFF2046BDE81040FEF77E
S31500004C80D5BC212010BD00BF00000A43AD7E1EDE4C
S31500004C9008B548B1006E05F099FC28B1BDE808409A
S31500004CA0872102484FF09BBD08BD00BF30C30600F8
S31500004CB010B5044688B100230360436000F1100379
S31500004CC083605023C36005F0E5FB206628B9BDE884
S31500004CD01040782101484FF082BD10BD30C3060058
S31500004CE010B5FEF7C3FB18B1332105484FF077FD29
S31500004CF0BDE81040034B044A0449054808F048BD86
S31500004D0086C306002B550500FF540500914C000094
S31500004D10B14C000005289ABF024B33F81000002062
S31500004D20704700BFDAC3060030B5154B87B0029353
S31500004D30144B0390049346F611030D46059300F0B9
S31500004D406DF91428044616D1684650F093FC4FF0CE
S31500004D50A843032202A95A6319601D619A63DA6B9C
S31500004D609207FCD1142C02D1684650F091FC00F059
S31500004D70D5F9044601E00028E9D0204607B030BD49
S31500004D8080590020040000202DE9F04FB1B00546FF
S31500004D908C46E9466E4F3B9EDDF8F8E0409C07F1F5
S31500004DA0100AC846386879680837A8E803005745E6
S31500004DB0C146F6D10EEB0208C8F1000909F00F0949
S31500004DC0002E00F0AF80774207F00F070121DDF8D3
S31500004DD0FCB0C4F1100ACDF810B0059144F00051B2
S31500004DE006914FEA0A2101F4F85141F02101079199
S31500004DF006B96B460893002D40F09680002C00F013
S31500004E00938004AB0993002E00F0908046F0005387
S31500004E100A93002D40F08D80002C14BF012321231E
S31500004E2043EA07230B9308A942F00053CDF830C09C
S31500004E303D980D910E934FEA092343F041030F93DA
S31500004E40109002B10CA9002A16BF00224FF00052A2
S31500004E50412342EA0E021191129213933C9B3D4A62
S31500004E60149310AB15933C4B0021169340F6110397
S31500004E7017933A4B002D08BF1346189314AB19939A
S31500004E80374B10221A9311231B931CAB184654F070
S31500004E90EFFC01221D924AF080421E920022034638
S31500004EA0239205B9EB46102C08BF01230DF1900A99
S31500004EB0102200215046CDF880B02193229454F060
S31500004EC0D7FC002C37D020AB002125938F4218BF8A
S31500004ED0534647F0804226923A9A2CA88A42289254
S31500004EE0299313460CBF4FF080430B4610223343E1
S31500004EF02B912A9354F0BCFCFEB95346C8442D931B
S31500004F002CA948F0804318A82E93FFF70DFF30B95F
S31500004F102DB90346A34212D1002818BF2C2031B068
S31500004F20BDE8F08F102751E701236BE747F00053E8
S31500004F306EE7212374E70123C6E728ABDEE703F11A
S31500004F40C0026A4412F8C02C01331043E2E700BFE6
S31500004F50E6C30600F8C3060010000020FCC30600E6
S31500004F6004000020F0B5C0299FB0249E4FD0B1F5B3
S31500004F70807F04D0802941D029201FB0F0BD40F2A7
S31500004F80344440F21445002E08BF2C462127102534
S31500004F90019401240296039404950597259F06978C
S31500004FA006B102AC07940124089509940A922122BD
S31500004FB00B940C950D92174A0AAC0E92164A0F9452
S31500004FC0109242F6110211921293139414951592AF
S31500004FD001AA1692CBB112AB17930423189311238F
S31500004FE0199316AB1A901B9340F61103C9081C912E
S31500004FF01AA806A91D93FFF797FEBEE7002E14BF59
S315000050004FF486644FF48264C0E70EABE4E70F20EA
S31500005010B3E700BF00C4060010000010394A2DE9AE
S31500005020F041D2F8803243F00103C2F88032364BA9
S315000050305C68C4F3080474B14FF0A842D36B13F054
S31500005040430FFBD1314B1B681BB9642130484FF02D
S31500005050C6FB14244EE0DFF8C08098F80030EBB1B0
S3150000506005F094F8022807D12A4B4FF0FF31186E4D
S3150000507005F052FA00283CD1244D2B6843B904218F
S31500005080284608F01FF918B1462121484FF0A7FB22
S315000050902B68013343F000432B602BE005F076F8D4
S315000050A00128064605D905F081F8071E02DA0D2407
S315000050B020E0274698F8002002F0FF037AB9154D44
S315000050C0C5E9003305F11003AB6050232846EB60B9
S315000050D005F0E0F92866012588B188F80050012E10
S315000050E0BED90025384605F083F8002805DB002DDB
S315000050F0B6D001242046BDE8F0810224FAE7012E4D
S31500005100F0D8F6E70080005000ED00E0805900205E
S3150000511004C406001C59002072A000200A4B10B5DA
S315000051205C68C4F308046CB905F030F8022807D1AE
S31500005130064B186E05F020FA003818BF012010BD86
S315000051402046F9E70020FAE700ED00E01C590020B0
S315000051500123A0F50320074AA0F58070410900F05D
S315000051601F0003FA00F052F82130184342F82100DC
S31500005170704700BF845900202DE9F04780460F464E
S315000051801E46154688B00AB1002313600EB10023EF
S3150000519033604FF0100ADFF8AC9000233A464146E0
S315000051A0D9F80000CDF800A027F0E0F8044680BB4F
S315000051B03A68204B9A4230D14FF0180A01465246BF
S315000051C002A854F055FB23464146D9F80000CDF815
S315000051D000A002AA27F0CAF80446D0B9069B7B6055
S315000051E0DDE90423C7E90223134B3B600DB1C5F883
S315000051F000A0124C3A68104B9A4218D14DB146B1F4
S3150000520033464146D9F8000002AA27F003F948B10F
S315000052100446204608B0BDE8F087002DEAD0C5F860
S3150000522000A0E7E733682A689B1A3360F1E7044C6D
S31500005230EFE700BFD175E105105D175EFEDF00F0F8
S31500005240FFDF00F0D81100202DE9F04F93B0804623
S315000052500F46FCF741F90446002837D1384E33781B
S31500005260F3B90146402202A854F002FB354D364AF6
S315000052702B4636481035954294BF0095009200683B
S31500005280102202A95EF012FF4FF0000982460DF1CE
S31500005290080BCA451CD12E4B9D42E8D10123337021
S315000052A02C4E337B002B43D1DFF8B490DFF8B4A04B
S315000052B0DFF8B4B0620959F8222004F01F0322FA7D
S315000052C003F3DB070BD40134812CF3D1224D1EE00E
S315000052D05BF8040BFFF73CFF09F10109D9E700234E
S315000052E004F5032505F580751A46284602A9FFF739
S315000052F043FF08B150450ED1DDE904239F4208BFA4
S315000053009045E0D10123C6E900873373B56028468E
S3150000531013B0BDE8F08F114B984201D05845D2D159
S315000053200A4B2946186827F0BBF80028CBD0CDE7F2
S31500005330D6E900239F4208BF9045B5D1B568E6E798
S3150000534073A000200031080081310800D811002028
S3150000535090310800F830002082310800FFDF00F0AD
S3150000536084590020FEDF00F011E000F02DE9F84F2F
S31500005370994640F26C739A4283460D461746DDF80D
S3150000538028A061D812B1B9F1000F60D0BAF1010FAF
S3150000539060D829465846FFF757FF07F1100804461C
S315000053A04146012051F083FC0646002855D042466E
S315000053B0002154F05DFA2F4B9C4226D900242E4939
S315000053C0620951F8222004F01F0322FA03F313F0B6
S315000053D0010345D00134812CF2D16FF08D05274CA5
S315000053E0C6F804A02FB13A46494606F1100054F01B
S315000053F018FA2348434632462146006826F01EFF27
S3150000540068B92046FFF7A4FE0BE0002331461A4692
S315000054102046FFF7B1FE78B11A4B98420CD06FF0D8
S31500005420910542460021304654F022FA304651F0AA
S315000054304FFC2846BDE8F88F7368012B01D0002584
S31500005440CEE76FF08405ECE76FF09105F1E76FF0BA
S315000054508605EEE76FF08505EBE76FF08C05E8E76C
S31500005460094A04F50324C6E902B504F580743260DE
S31500005470E5E700BF81310800845900208231080029
S31500005480D8110020FEDF00F0105D175E2DE9F04315
S3150000549089B01546DDE910891E469BB1B9F1000FAA
S315000054A004D16FF0860009B0BDE8F083B8F1000FB3
S315000054B0F7D0B8F1005FF4D3C3F1005303F5C0335E
S315000054C09845EED8FFF7C0FE1F4B0746984202D913
S315000054D06FF08B00E7E7102200210DEB020054F07D
S315000054E0C7F900233846CDE9023303AA02AB04A963
S315000054F0FFF742FE154B9842EAD028B1013B98428D
