S02A00006275696C642F64656275672F616D617A6F6E5F7369646577616C6B5F736F635F6F6F622E733337D9
S3150800000000100020C1100008FD620408FD62040803
S31508000010FD620408FD620408FD620408FD62040826
S31508000020FD620408FD620408FD6204086102000816
S31508000030FD620408FD620408F1010008E789040866
S31508000040FD620408FD620408FD620408FD620408F6
S31508000050FD620408FD620408FD620408FD620408E6
S31508000060FD620408FD620408FD620408FD620408D6
S31508000070FD620408FD620408FD620408FD620408C6
S31508000080FD620408FD620408FD620408FD620408B6
S31508000090FD62040841170008FD620408FD620408B1
S315080000A0FD620408C9180008A5180008FD620408BE
S315080000B0FD62040851490408D55304089FA00508A1
S315080000C09BA005087D4B0408ABA00508A3A005085E
S315080000D0AD530408A7A0050815540408815404085C
S315080000E0FD620408FD620408FD620408FD62040856
S315080000F029860408FD620408FD620408FD620408F6
S31508000100FD620408FD620408FD620408FD62040835
S31508000110FD620408FD620408FD620408FD62040825
S31508000120FD620408FD62040869EB0008FD62040824
S31508000130FD620408FD620408FD620408FD62040805
S31508000140FD620408BD430008FD6204086B880408C4
S3150800015075310408FD620408279D05082D9D0508CC
S31508000160FD620408FD620408FD620408FD620408D5
S31508000170013800D0FCE770470000000000000000CE
S315080001800B4A1168086806C881F30B88022181F3B7
S315080001901488203080F30988BFF36F8F4FF0000072
S315080001A080F31188104700BFAFF30080AFF30080DB
S315080001B0408F002000000000000000000000000042
S315080001C007480068006880F3088862B661B6BFF31E
S315080001D04F8FBFF36F8F02DF00BF00BFAFF3008002
S315080001E008ED00E00000000000000000000000002C
S315080001F0EFF309801EF0100F08BF20ED108AEFF309
S315080002000B82734620E9FC0F114A116808604FF00B
S31508000210300080F31188BFF34F8FBFF36F8F0AF05A
S3150800022043FB4FF0000080F31188094A11680868FB
S31508000230B0E8FC0F13F0100F08BFB0EC108A82F379
S315080002400B8880F309881847AFF30080AFF3008066
S31508000250408F0020000000000000000000000000A1
S315080002601EF0040F0CBFEFF30880EFF30980044972
S31508000270084700BFAFF30080AFF30080AFF30080FC
S31508000280C58A0408000000002DE9F04F93B0CDE9B7
S315080002900A32DDE91C530E9353EC102BCDE9080105
S315080002A0104619468DED060B1E9E13F07DFE80B195
S315080002B0DDE906014FF0FF32C54B13F09DFE40B94C
S315080002C0DDE906014FF0FF326FF4801313F076FE76
S315080002D070B1DDE908019DED060B0E9B1E96CDE972
S315080002E01C53DDE90A3213B0BDE8F04F00F088B9B7
S315080002F00022DDE90601002313F060FE002800F065
S315080003003381DDE906A303F1004BCBF30A5016F45B
S315080003108063A0F2FF3008BF06250F9313F072FB27
S315080003209BA3D3E9002313F0D7FB9BA3D3E90023B0
S3150800033013F01CFACBF31304894644F07F51804628
S315080003400022A44B504641F4401113F00DFA94A331
S31508000350D3E9002313F0C0FB02460B464046494644
S3150800036013F004FA13F052FE044613F04BFB8EA367
S31508000370D3E900238046894613F0AEFB0022964B4C
S3150800038013F0F4F913F042FE89A3D3E900230746D4
S315080003904946404613F0A0FB80463846894613F086
S315080003A031FB85A3D3E9002313F096FB02460B46DF
S315080003B04046494613F0D8F902460B46CDE90C23C8
S315080003C013F08AFBDDE90C23804689461046194658
S315080003D013F0CCF90022CDE91001804B404649467E
S315080003E013F0A4FC00227E4B13F0C0F902460B461C
S315080003F04046494613F09AFC00227A4B13F0B6F9A8
S3150800040002460B464046494613F090FCDDE90C23AC
S315080004108046894600204FF0804113F0A5F9024630
S315080004200B464046494613F0A1F902460B46DDE95C
S31508000430100113F07BFC07F2FF3700226A4B13F01A
S3150800044095F900223B0513F047FB52465B4680466A
S31508000450894613F0D1FD002840F08980CDE90C8942
S3150800046004F16303C72B34BF0427052731051BD5C1
S3150800047053A3D3E900235046594613F0B3FD002889
S315080004807FD051A3D3E900235046594613F096FD71
S31508000490002876D00027A542C6BF2C1B04F1FF35DD
S315080004A000253C4646F480660E9B9F422CBF4FF0C3
S315080004B00008A3EB070816F0020903D0002F18BF9F
S315080004C04FF000083CB1DDE90C235046594613F0BD
S315080004D02DFC82468B46DDE906010022002313F037
S315080004E06DFD10B10BF100439B46DDE9080126F4CA
S315080004F00063CDE90183DDE90A324BEC10AB0095C8
S3150800050000F07EF802465FB3DDE9091316F0200F06
S3150800051000F10105089E0CBF65204520B047DDE9BE
S3150800052008010523002205930A23002CCDE902328F
S3150800053007F1FF374FEAD473B8BF64422A460193DE
S3150800054004970A9B00944AF018FC0246B9F1000F7A
S3150800055006D00B9BC41A0B9B1A190E9BA34245D8AF
S31508000560104613B0BDE8F08FDDE906ABCDE60022F4
S31508000570404649461A4B13F0D9FB013CCDE90C011C
S315080005806EE7002D90D00F9B002B8DD0013D8BE799
S31508000590FB799F501344D33FB3C8608B288AC63F64
S315080005A061436F63A787D23F71A379094F930A40C6
S315080005B01655B5BBB16B0240EF39FAFE422EE63F3F
S315080005C02D431CEBE2361A3F0000000080842E41C2
S315080005D0FFFFEF7F0000F83F0000E03F00002C40DF
S315080005E000002440000018400000F03F2020DDE90C
S315080005F00913089DA8470134ADE700BF00000000B5
S315080006002DE9F04F5BEC10AB97B0CDE90501DDE9BC
S315080006102057CDE90723504652465B465946229E47
S3150800062013F0C2FC70B90323CDE902760193B04BEF
S315080006300093DDE90501DDE907234AF0BEFA17B0A4
S31508000640BDE8F08F4FF0FF326FF4801350465946DD
S3150800065013F0B4FC28B10423CDE902760193A54B27
S31508000660E6E74FF0FF3250465946A34B13F0C4FC59
S3150800067068B1A24A06F00403002B08BF0322A04B68
S315080006801CBF13460422CDE902760192D0E75046F4
S3150800069093A3D3E90023594613F0AEFC38B992A3C5
S315080006A0D3E900235046594613F088FC68B1DDE9C2
S315080006B00723DDE905014BEC10ABCDE92176209542
S315080006C017B0BDE8F04FFFF7DFBD00220023504604
S315080006D0594613F073FC002800F09A805B46524690
S315080006E00020002113F040F8012382468B46099327
S315080006F016F4806400F08E80092D40F28E80002466
S3150800070030210EABA5F109020134202C03F8011B98
S31508000710A5EB040901D09442F6D15946504613F088
S3150800072075FC784B054603EBC90393ED007B8DED0D
S315080007300A7B13F067F902460B465046594613F0F2
S3150800074013F8DDE90A2313F0C7F902460B46CDE98B
S315080007500C2313F083FC804613F044F902460B463B
S31508000760DDE90C0113F000F802460B46CDE90C232F
S315080007700022654B13F040FC002851D008F101080F
S31508000780404613F02FF902460B46DDE90A0113F03D
S315080007901FFC10B14FF000080135B9F1000F50D118
S315080007A0284613F02FF902460B465046594612F0D2
S315080007B0DBFF0022544B8046894613F0FFFB30B11D
S315080007C0002240464946504B13F016FC10B1E80784
S315080007D000D501350A210EAB1A19202C0AD095FB33
S315080007E0F1F001FB1055303502F8015B013405467E
S315080007F00028F2D106F00302012A57D1002F55D05E
S31508000800099A12B916F00C0F00D0013F302245E0C4
S3150800081009906DE74FF006097FE7A94600247CE7B3
S315080008200022DDE90C01384B13F0C8FB0028B4D1CF
S31508000830B8F1000F02D018F0010FAED008F1010888
S31508000840ABE70A210EAB2344202C0ED0B8FBF1F0FF
S3150800085001FB1082B8F1090F02F1300209F1FF39E4
S3150800086004F1010403F8012B11D83021A1440EAA82
S31508000870202CAFD0A14504F101030AD11C4609F189
S3150800088058030DEB03092E2309F8203CA2E78046FE
S31508000890DAE7A1541C46EBE71A550134A74205D9F5
S315080008A0202CF9D1CDE902760194C1E6202CF9D0A5
S315080008B0099A3AB12D2104F158026A4402F8201C1B
S315080008C00134EFE7710704D504F158022B216A4475
S315080008D0F4E73207E6D504F1580220216A44EDE729
S315080008E00000000065CDCD410000000065CDCDC1FA
S315080008F053C9050857C90508FFFFEF7F4AC9050808
S315080009004FC9050860C905080000E03F000000005F
S3150800091008B5002001F08EFD174BB0FBF3F0174B1E
S315080009201860186813F05EF80FA3D3E9002313F0D4
S31508000930D3F80FA3D3E9002312F018FF13F08EFBA8
S315080009400F4B104A1860D2F8FC3043F08073C2F897
S31508000950FC304FF060430C4AC3F8B02F0B4A1368BB
S3150800096043F00103136008BDEC51B81E85EBE93F5F
S31508000970F6285C8FC2F51C4040420F00FC9400200C
S31508000980F894002000ED00E055CEACC5001000E05C
S31508000990F0B5434E91B0336805460C460F934DF0BB
S315080009A0D2FD002872D01422002108A84BF047FB7C
S315080009B04FF6FF7305F11802ADF822300DAB92E839
S315080009C003008DF8214083E803001CF0A3FC0027F0
S315080009D06863049002AA69460120CDE9057707975E
S315080009E0CDE90077CDE9027715F006FB0446B0B1EC
S315080009F02C4B0597069303238DF81C3004A908A8E9
S31508000A0020F042F910B9012385F83B302B6B0133EE
S31508000A102B630F9A33689A423BD044F0DFFD009B64
S31508000A2001990593C8031CA3D3E90023490C13F0C5
S31508000A3035FB19A3D3E900230399ADF81800C803B9
S31508000A40490C13F02BFB029B00EBC333B3F5804F25
S31508000A5010D3154A934211D9144A934211D9144A0C
S31508000A600320934210D943F6FF73ADF81A308DF878
S31508000A701C00C3E720462246D340F6E7012005229C
S31508000A80FAE702200A22F7E70D22F5E76FF02700BA
S31508000A90BFE711B0F0BD00BF00CA9A3B00000000D6
S31508000AA0E8D100200000FF3FE0FF070000FCFF0040
S31508000AB000E0FF0700000000002370B5404C054623
S31508000AC08AB0E36318B1008823602FF0A7FB3D487E
S31508000AD058F09CFD3C4E3D4B304633603C4B7360B2
S31508000AE02AF060FF002130463BF078FD32A3D3E9B7
S31508000AF00023A062C4E9062353F0DFFDD4E90623E8
S31508000B0019431043C4E90601CDE900014FF0FF334C
S31508000B104FF0FF32A06A58F008FE02224FF0FF316C
S31508000B20A06A58F01CFE01202FF0FAF84FF4007363
S31508000B3000222849A06A58F0F9FEB0F5007F38D19E
S31508000B4000239422CDE9073309933C23CDE90332E8
S31508000B5005939623A06A03A906933CF0D3F835B308
S31508000B60287C2FF0D9FC0546F0B9A06A58F079FF21
S31508000B702FF080FC2FF0B6F820B14FF480700021DA
S31508000B802DF088F82FF0BEF820B14FF40060002150
S31508000B902DF080F853F054FE012058F05DFB0E4A04
S31508000BA00E49A06A53F07DFD28460AB070BDFF20A5
S31508000BB0D7E70725F8E700BF0DD501552000000047
S31508000BC0C8450020690345ECBCCB0020A5FB0208FC
S31508000BD0CCCB0020BCC900204B4605088B4605082F
S31508000BE00348044B834202D0034B03B118477047AE
S31508000BF0F83E0020F83E002000000000064B07499A
S31508000C00C91A891048BF0131491003D0044B0BB1EA
S31508000C1001481847704700BFF83E0020F83E0020FC
S31508000C200000000010B5064C237843B9FFF7D8FF3B
S31508000C30044B13B10448AFF300800123237010BDA1
S31508000C40D6D20020000000002483060808B5054B0C
S31508000C501BB105490548AFF30080BDE80840FFF71A
S31508000C60CDBF00BF00000000404B002024830608CB
S31508000C70A3F5803A704700BF174B002B08BF134BEC
S31508000C809D46FFF7F5FF00218B460F461348144A89
S31508000C90121A4BF0D4F90E4B002B00D098470D4B87
S31508000CA0002B00D098470020002104000D000D48B5
S31508000CB0002802D00C48AFF3008013F0C5FE2000D0
S31508000CC029004AF0DAF913F09FFB00BF000008007C
S31508000CD0000000000000000000100020F83E002080
S31508000CE0FC76012000000000000000002DE9F0431A
S31508000CF0044689B0214E01AD884617460FCE0FC56A
S31508000D0096E8070085E807001D4E01213A20D4F829
S31508000D100090D6F8205701F073FB6068012101F0B6
S31508000D206FFB617B207B0023042202F083FC0422F4
S31508000D30617A207A002302F07DFC0123484601A946
S31508000D408DF81230CDF80C80ADF8147002F04EFF15
S31508000D500020627A237A05F0040543EA0243C6F8BE
S31508000D603837627B237B45F0180543EA0243C6F809
S31508000D703437C6F8205709B0BDE8F08360AB0508DC
S31508000D8000C003504022024BC3F8A020704700BFA2
S31508000D9000F0035013B5044608F0A2F80023012218
S31508000DA0217BCDE900324900B0FBF1F1024A034844
S31508000DB047F0EBFC02B010BD850D00086C4B002017
S31508000DC0F7B54FF48076104C054604F58053C3F802
S31508000DD0A060407B08F0EEFA04230C4F02220DF1C6
S31508000DE006013846ADF8063045F0D1F9384645F0E3
S31508000DF0DFF9A87B08F0DEFA002004F50054C4F8F1
S31508000E00A06003B0F0BD00BF00C003500010002072
S31508000E1070B50646354601213A2001F0F1FAB16867
S31508000E2000220F48FFF762FF0E4C00230422082118
S31508000E30022002F0FFFB002304220621022002F012
S31508000E40F9FB0FCD0FC401222B6830462360064BF1
S31508000E501A70FFF79FFF3046FFF7B2FF002070BDFC
S31508000E6000100020584B0020D7D200202DE9F74F5C
S31508000E7014464FF4807206889846037901345E4317
S31508000E80254BA4B2C3F8A0200546407B0F4608F0C0
S31508000E9091FA230243F00103022220480DF10601CC
S31508000EA0ADF806304FF0000B45F071F90134240215
S31508000EB0DFF86890F610A4B208F1FF3AC34511D1DD
S31508000EC0164845F075F9A87B08F074FA4FF4807255
S31508000ED0134B1248C3F8A02045F06FF9002003B061
S31508000EE0BDE8F08F39463246484645F050F9DA45AE
S31508000EF00CBF4FF6FF7344F0FF03022248460DF17C
S31508000F00060104F58074ADF80630374445F03FF91C
S31508000F100BF1010BA4B2D1E700D00350001000205A
S31508000F2000E00350034B04481B78002B08BF002041
S31508000F30704700BFD7D20020584B002030B5064D69
S31508000F4087B001AC0FCD0FC42B6801A82360FFF74B
S31508000F505FFF07B030BD00BF7CAB05082DE9F04345
S31508000F60434D89B001AC0FCD0FC495E807000125A4
S31508000F7084E8070001213A2001F042FA3D4F012199
S31508000F80292001F03DFA3C4B384601A903938DF818
S31508000F90125002F02BFE2B4629460422022002F0AC
S31508000FA049FB02212A460846002302F043FB2B464A
S31508000FB004220321022002F03DFB04222B4611469F
S31508000FC0022002F037FB2D4C2D4B1026C4F834377F
S31508000FD04FF00213C4F83037A3F58033C4F8383716
S31508000FE01C2304F50059C4F820374FF4487008F05C
S31508000FF0E1F904F580581420C9F8A06008F0DAF978
S315080010002320C8F8A06008F0D5F9B9213846C9F8F0
S31508001010A06045F097FB002329461A460220C8F827
S31508001020A06002F007FB002302211A46084602F0D8
S3150800103001FB2B4600220321022002F0FBFA2B4675
S3150800104000220421022002F0F5FA384602F0ACFD2F
S3150800105000212920C4F83417C4F83017C4F8381703
S31508001060C4F8201701F0CCF909B0BDE8F08300BF39
S3150800107090AB050800C0055000127A0000C0035066
S31508001080020003000346054A0549106803448B42DB
S315080010908CBF4FF0FF301360704700BF1010002060
S315080010A0000004200348044A0449121A921045F025
S315080010B026B900BF30B2060830B20608FC76012011
S315080010C008B500F02FF8FFF7EDFF124B12498B42D7
S315080010D012D30020114B12498B4218D3FFF7CCFDCF
S315080010E0186850F82240586840F82240013298683B
S315080010F08242F5D30C33EAE70022F8E71C6844F885
S31508001100220001325C68A242F8D30833E4E70022E1
S31508001110F8E700BF2C8306083883060838830608D4
S31508001120388306084FF480414FF0FF3010B5114B55
S31508001130114A9A60D3F8882042F47002C3F88820CE
S315080011400E4A91660E4901F5005210660D48506622
S315080011500220C3F8D000BFF34F8FBFF36F8F01246F
S315080011604FF440330848C0F88041D36004600B61EF
S3150800117010BD00BF00ED00E0000000080090005020
S3150800118000800044F7FF370000E100E0014B1868D3
S31508001190704700BF18100020014B1860704700BF49
S315080011A018100020084B1B6F03F00703022B04D00E
S315080011B0032B05D0012B05D0FEE7044B18687047B2
S315080011C0034BFBE7034870470080005018100020C7
S315080011D020100020002D310108B5FFF7E3FF054B6D
S315080011E01B6FC3F303330133B0FBF3F0024B1860F4
S315080011F008BD00BF0080005014100020004870474A
S3150800120000B4C404014B1868704700BF20100020C2
S31508001210054B1860054B1B6F03F00703032B01D121
S31508001220FFF7DABF704700BF20100020008000508B
S3150800123000487047002D31014FF0B4439868C0F359
S3150800124004400C280AD8DFE800F00B090909090947
S31508001250072119091B1D1F000F48704700207047FA
S315080012609B6803F04073B3F1807F11D0B3F1007F20
S3150800127010D00A4A002B08BF104670470848704726
S315080012800848704708487047084870470848704734
S315080012900848704708487047405DC60000093D0089
S315080012A0C0EA210180BA8C010048E801005A6202AE
S315080012B00024F40080841E0040420F00014B186889
S315080012C0704700BF1C10002010B40A68084613783F
S315080012D0022B10D014213023147913FB0413074969
S315080012E05B585179CB40DB4303F0010313705DF87B
S315080012F0044B0CF0E3BB5DF8044B704730C0035059
S3150800130037B50468012105463A2001F079F800232B
S3150800131001226179207902F08DF91422302321798E
S3150800132013FB01230E4A9B586279D340DB4303F033
S3150800133001032370A379022B0ED100F057FA2A462F
S315080013400849607900F07CFA012302466179207920
S31508001350CDE9003302F014F9002003B030BD00BF18
S3150800136030C00350C912000802681378022B24D033
S3150800137014213023107913FB001310495B58517957
S31508001380CB40917903F00103012912D1508843EA31
S3150800139040034FF6E07063F03F039BB2834202D1ED
S315080013A01170538070474FF6DF718B42F9D10021D7
S315080013B0F6E711B983F001031370704730C0035084
S315080013C008B501213A2001F01BF801230422032164
S315080013D0002002F02FF9002045F034F90122354BA0
S315080013E03549C3F844244FF40022A3F550335A660E
S315080013F0324BD3F8FC20D20146D4D1F8803023F002
S31508001400030343F00203C1F880304FF4607001F023
S3150800141011F82A4B00F5D520D3F8F02000F2FC404D
S3150800142042F00102C3F8F020D3F8FC2042F08072A3
S31508001430C3F8FC20224AA3F55D431A60214B022219
S31508001440B0FBF3F0204B01381861C3F8F0204FF4D5
S315080014508072C3F804234FF060431C4A0020C3F887
S31508001460B02F1B4AC3F8802ED3F8002E42F48072A0
S31508001470C3F8002EFF2283F82020D3F8002E22F48A
S315080014808072C3F8002E08BDD3F8FC2022F08072C3
S31508001490C3F8FC20D1F8802022F0030242F00202B1
S315080014A0C1F88020D3F8FC2042F08072C3F8FC20F3
S315080014B0ABE700BF00D003500080005000ED00E00D
S315080014C0FF030040F8590D00000004E055CEACC5F6
S315080014D0090001002DE9FF4103680446B3F1B64F40
S315080014E06BD0374A934265D12F20012100F088FF3F
S315080014F001230A226179207902F09CF801230A2245
S31508001500E179A07902F096F80A2701262D4D4FF0C9
S3150800151030082379627908FB035306FA02F203F5C9
S3150800152001531A60642007F045FF2379627908FBA6
S31508001530035306FA02F203F5825364201A6007F091
S3150800154039FF013FE3D12368B3F1B64F0ED1032328
S31508001550C5F8E8346279237943EA0243C5F8EC34DE
S31508001560E279A37943EA0243C5F8F0342268144BBA
S315080015709A4210D10322A3F53033C3F8F8246179CF
S31508001580227942EA0142C3F8FC24E179A27942EAC7
S315080015900142C3F8002540F20113ADF80030E368B4
S315080015A069460293A36820680193237C8DF80C3062
S315080015B002F0BCF804B0BDE8F0812E2095E700BF24
S315080015C00080065000C0035038B5054602F0DCF925
S315080015D0044C012801D1013C00D138BD284602F04F
S315080015E0C7F8F6E7E193040010B5012243780178BD
S315080015F0847830209A40054B00FB01331CB903F56B
S3150800160001531A6010BD03F58253FAE700C0035070
S3150800161010B5012243780178847830209A40054B2A
S3150800162000FB01331CB903F582531A6010BD03F59C
S315080016300153FAE700C003500122437801789A4023
S3150800164030235943014B5A50704700BF40F00350AE
S31508001650102130230246007813FB001305495B5816
S315080016605178CB4003F0010093780BB980F0010064
S31508001670704700BF30C0035038B5124B05461B787B
S31508001680DBB1E0B144F084FF0F4A00231146147B16
S3150800169054B92B6001251A0101EB03131D738C50F5
S315080016A044F07AFF204638BD0133082B02F11002B8
S315080016B0EDD144F071FF0548F5E70548F3E705481D
S315080016C0F1E700BFD8D200208C4C0020048000F03F
S315080016D0028000F0018000F0154B13B5186800234E
S315080016E001908DF8043044F053FF124B1C7824B156
S315080016F044F052FF104802B010BD01221A7044F09F
S315080017004BFF0E4B01A81C731C7783F82C4083F8FB
S315080017103C4083F84C4083F85C4083F86C4083F87F
S315080017207C4008238DF8073002F070F92046E2E77E
S31508001730ACAB0508D8D20020038000F08C4C002002
S315080017402DE9F041174B1F6D5B6D1F4000D5FEE775
S3150800175001260025144CDFF85880374218D0C8F8FF
S3150800176050602368A3B1A168284601316268A16068
S315080017709847637B012B0BD150B90C4B03EB4513F0
S315080017801A7B60F341021A731A7F60F341021A77D3
S315080017900135082D4FEA460604F11004DDD1BDE8EF
S315080017A0F08100BF000004508C4C00208C4B0020B8
S315080017B00020045070B5044601250B4E04B970BDCF
S315080017C094FAA4F0B0FA80F005FA00F306EB0012DA
S315080017D024EA03045368002BF0D0117B11B19168F9
S315080017E09847EBE79847E9E70C4D002008B519201C
S315080017F001F0AAFB28B14FF00072074BC3F880210D
S315080018001A601A2001F0A0FB28B14FF08062024B43
S31508001810C3F880211A6008BD00E100E038B5054626
S315080018200C4644F0B5FE0022044B03EB05135C603E
S315080018301A73BDE8384044F0AFBE00BF0C4D002017
S31508001840F8B505460E46174644F0A2FE134B2C463D
S31508001850D3F8242405F0FC0122FA05F3DB0712D598
S3150800186000230133DBB2042B04D1FF2444F094FE99
S315080018702046F8BDEC1804F003040C4422FA04FCD4
S315080018801CF0010FEDD1FF2CF0D00122044B03EB25
S315080018900413C3E901671A73E8E700BF00C00350E1
S315080018A00C4D0020074BD3F82404D3F8202403F565
S315080018B00053104000F0553020F05020C3F82004A3
S315080018C0FFF778BF00C00350074BD3F82404D3F8BA
S315080018D0202403F50053104000F0AA3020F0A02081
S315080018E0C3F82004FFF766BF00C00350024B19680F
S315080018F0024B18683AF068B82410002044100020FB
S3150800190070B59400224605460E4659F005F9431C63
S315080019100AD058B92246314628464AF066FB0028BE
S31508001920034808BF002070BD0248FCE70248FAE7F2
S3150800193010E000F021E000F024E000F010B50446C5
S3150800194059F0EEF8431C10D088B902F023F9234663
S3150800195020F003002044984201D1002010BD53F81E
S31508001960042B0132F7D00348F8E70348F6E70348A3
S31508001970F4E700BF0EE000F021E000F024E000F0FC
S3150800198008B544F0FAFD014B186008BDFC55002067
S31508001990014B186844F0F5BDFC55002001292DE9D6
S315080019A0F84304D90239012927D9BDE8F883234B1E
S315080019B0234E1C68234FDFF89880803C14F1800F73
S315080019C0F3D0D4F800900521484644F027FE1E4B74
S315080019D0994510D01D4B994514BF3D46454644F0E0
S315080019E0CCFD2B6843F018032B6044F0CAFDD4F8ED
S315080019F08040803CE2E73546F1E7104B104E1C6804
S31508001A00104FDFF84C80803C14F1800FCDD023684E
S31508001A100D4A934210D00D4A934214BF3D4645469F
S31508001A2044F0ABFD2B6823F018032B6044F0A9FDA6
S31508001A30D4F88040803CE7E73546F1E700560020B9
S31508001A4094C4035074C403500000015B00000A509C
S31508001A50B4C403502DE9F041864A0B688EB0934210
S31508001A6005460C4606AF03D0834A934240F0E88009
S31508001A70BC46824E05970FCEACE80F0096E80F00DD
S31508001A8010368CE80F000FCE0DF1040CACE80F00F1
S31508001A90002D00F0D3808422002128464AF0CFFA90
S31508001AA00023AB65226873498A4214D0724B9A4266
S31508001AB000F0A380724E734B1B681BB972497348BA
S31508001AC006F0F4FC6F4805F1800144F00CFC304642
S31508001AD00EB0BDE8F08156204FF4702298466C4946
S31508001AE0C5E90B122865236827462B6001232E1D9E
S31508001AF085F85C300FCF0FC697E80F0086E80F0011
S31508001B00637E012B08BF8DF81D30A37E33B1012BF0
S31508001B107AD0022B02D0032BCCD10623227E8DF855
S31508001B201230012AE36871D15A4A93428CBF0423C2
S31508001B300523059A537700238DF81130564B01215A
S31508001B403A20039300F05CFC0121286D00F058FC54
S31508001B502369DA1F092AADD8063B8DF81030237E93
S31508001B602BB9E37EB3FA83F35B098DF81C300121A8
S31508001B70284644F061FC064600289CD1237A217940
S31508001B8041EA03414FEA481303F1A04202F57032D5
S31508001B90C2F8AC14617A607940EA0140C2F8A4043C
S31508001BA0A67AA07940EA0640C2F8A804E17E89BB75
S31508001BB0E07AE17941EA0041C2F89814E17E49BB2E
S31508001BC01D23C2F89434206801A901F001FC44F0F1
S31508001BD0DFFC324B1A782ABB01221A7044F0DCFC6F
S31508001BE007F096F8FFF778FD002105F12400FFF7C6
S31508001BF043FD0146C8B12A4E5DE757204FF48012CF
S31508001C004FF0010827496BE7042387E700228DF880
S31508001C10342094E71C2203F1A04303F57033C3F87C
S31508001C209424D0E744F0B8FCDCE705F12800FFF778
S31508001C3023FD064600283FF43EAFDCE71A4E3AE796
S31508001C403E46DFF86CC0BCE80F000FC69CE80700EC
S31508001C5086E80700002D00F0DF8084220021284650
S31508001C604AF0EDF90023AB652168104A914221D06C
S31508001C70034E2CE70000015B00000A50D4AB0508B0
S31508001C80022000F0005600204810002004560020CC
S31508001C9001000F003F4B4C0040420F00D9D20020F4
S31508001CA0092000F001001000012000F000C00550D6
S31508001CB008AC050829222A654FF48022A44657480D
S31508001CC02E1DC5E90B02226885F85C302A60BCE83F
S31508001CD00F000FC69CE80F0086E80F00637E012BF5
S31508001CE008BF8DF82630A37E3BB1012B6CD0022BA2
S31508001CF06DD0032BBCD14FF44073ADF82830237E4A
S31508001D000121012B03BF00238DF825304FF4E13361
S31508001D10E3683A20089300F073FB0121286D00F070
S31508001D206FFB23691A1F0C2AA2D8033B3946206881
S31508001D308DF8243001F05AFFA36923F47F0323F4B6
S31508001D407F4323B92A68936843F480339360E27E1D
S31508001D50334B002A3ED11D22C3F82027217A227947
S31508001D6042EA0142C3F83827617A627942EA0142B7
S31508001D70C3F83027A17AA27942EA0142C3F8342788
S31508001D80E17AE27942EA0142C3F82427012128468A
S31508001D9044F052FB064600287FF499AE44F0F8FB5F
S31508001DA0204B1A7862BB01221A7044F0F5FB06F044
S31508001DB0AFFFFFF791FC002105F12400FFF75CFC5B
S31508001DC0014600B3184E82E64FF4007395E74FF4C8
S31508001DD0807392E71C22C3F82027217A227942EAE7
S31508001DE00142C3F83827617A627942EA0142C3F8A8
S31508001DF03027A17AA27942EA0142C3F83427C5E717
S31508001E0044F0CAFBD5E705F12800FFF735FC06467E
S31508001E1000283FF45CAED5E7044E58E602000400FD
S31508001E2000C00350D9D20020092000F0012000F09C
S31508001E30044BD3F88420D206FBD4D3F88400C0F32D
S31508001E4081107047004000502E4B98424AD022D845
S31508001E502D4B984240D014D82C4B984239D00AD8EA
S31508001E602B4B984232D02B4B98422FD02A4B984274
S31508001E702CD000207047294B9842FAD1284B186F6E
S31508001E807047284B98422AD0274B9842F1D1244BC9
S31508001E90D3F880007047254B98422BD009D8244B9D
S31508001EA0984223D0234B9842E3D11D4BD3F88C009C
S31508001EB07047214B984221D003F5740303F510535C
S31508001EC09842D6D1164BD3F898007047144B986DA4
S31508001ED07047134B586E7047114B586F7047104B2D
S31508001EE0986F70470E4BD3F8840070470C4BD3F8A5
S31508001EF0880070470A4BD3F890007047084BD3F810
S31508001F00940070470048E8010024F400C0CF6A0036
S31508001F1080841E0000093D0040420F00405DC60057
S31508001F200080E00FC0EA210180BA8C01007E5603CA
S31508001F3080D54302006CDC020090D00338B5104B04
S31508001F400546D3F880300C4603F00303022B0BD06A
S31508001F50032B0DD0012B0FD1FFF724F90E2305B162
S31508001F60286004B1236038BDFFF766F90723F6E752
S31508001F70FFF70CF90623F2E700231846EFE700BF40
S31508001F800080005038B5184B0546D3F820010C469A
S31508001F9000F00700062823D8DFE800F0040A0E162A
S31508001FA0121A1E00012305B1286004B1236038BD4A
S31508001FB0FFF7ECF80523F6E7FFF724F90323F2E722
S31508001FC0FFF73AF90723EEE7FFF732F90223EAE7C4
S31508001FD0FFF7DCF80623E6E7FFF714F90423E2E740
S31508001FE000231846DFE700BF0080005038B5174BBE
S31508001FF00546D3F828310C4603F00703013B052BA9
S3150800200020D8DFE803F003131B0F0B17FFF7BEF802
S31508002010052305B1286004B1236038BDFFF7B6F87B
S315080020200623F6E7FFF708F90723F2E7FFF7EAF8CA
S315080020300323EEE7FFF7E6F80423EAE7FFF7F8F8E5
S315080020400223E6E700231846E3E700BF00800050B6
S3150800205073B50D460021114B0191D3F88041064610
S3150800206004F00304022C13D0032C0CD0012C13D13A
S3150800207001A8FFF787FF10240EB1019B336005B155
S315080020802C6002B070BDFFF7D7F807240190F3E77C
S31508002090FFF7CEF80190EFE70C46EDE70080005019
S315080020A0002337B50193164B0546D3F820320C4664
S315080020B003F00703042B21D8DFE803F0030B1116FE
S315080020C01B0001230DB1019A2A6004B1236003B0F5
S315080020D030BD002101A8FFF789FF1223F2E7FFF7B9
S315080020E0ABF807230190EDE744F016F90A230190AF
S315080020F0E8E7FFF7E3F809230190E3E70023E1E7C0
S315080021000080005038B5104B0546D3F840310C46D0
S3150800211003F00303022B0BD0032B0DD0012B0FD199
S3150800212044F0FAF80A2305B1286004B1236038BDE3
S31508002130FFF7C4F80923F6E744F0F1F80C23F2E7B1
S3150800214001230020EFE700BF00800050002337B5C9
S315080021500193164B0546D3F860320C4603F0070385
S31508002160013B032B1FD8DFE803F0020E19140021E8
S3150800217001A8FFF707FF10230DB1019A2A6004B1E1
S31508002180236003B030BD002101A8FFF7BBFF112370
S31508002190F2E7FFF751F807230190EDE7FFF748F854
S315080021A002230190E8E70023E6E700BF008000501D
S315080021B0002337B50193164B0546D3F894320C46DF
S315080021C003F00703013B032B1FD8DFE803F0020ED9
S315080021D01914002101A8FFF7D5FE10230DB1019AA5
S315080021E02A6004B1236003B030BD002101A8FFF7BF
S315080021F089FF1123F2E7FFF71FF807230190EDE7A0
S31508002200FFF716F802230190E8E70023E6E700BF88
S315080022100080005038B5144B0546D3F800020C462A
S3150800222000F0070004281BD8DFE800F003090D11A9
S315080022301500012305B1286004B1236038BD44F0B8
S315080022406BF80A23F6E7FFF739F80923F2E744F0B3
S3150800225066F80C23EEE7FEF7BFFF0F23800AE9E7CF
S3150800226000231846E6E700BF0080005038B5144B37
S315080022700546D3F808020C4600F0070004281BD8C8
S31508002280DFE800F003090D111500012305B12860E8
S3150800229004B1236038BD44F03FF80A23F6E7FFF798
S315080022A00DF80923F2E744F03AF80C23EEE7FEF7B7
S315080022B093FF0F23800AE9E700231846E6E700BFE5
S315080022C00080005038B5104B0546D3F840320C460E
S315080022D003F00303022B0BD0032B0DD0012B0FD1D8
S315080022E044F01AF80A2305B1286004B1236038BD02
S315080022F0FEF7E4FF0923F6E744F011F80C23F2E7AA
S3150800230001230020EFE700BF0080005038B5104BCE
S315080023100546D3F860310C4603F00303022B0BD0B5
S31508002320032B0DD0012B0FD143F0F6FF0A2305B17D
S31508002330286004B1236038BDFEF7C0FF0923F6E71D
S3150800234043F0EDFF0C23F2E701230020EFE700BF7F
S3150800235000800050B0F5207F1FD009D8B0F5007F67
S3150800236015D003D868B1B0F5C07F0AD000200CE0BC
S31508002370B0F5607FFAD10B4BD3F88000C0F301109B
S3150800238003E0084B186FC0F3033001307047054B64
S31508002390D3F89000C0F30460F7E7024B186FC0F358
S315080023A08020F2E70080005002464FF48030104B40
S315080023B010B598660020FFF7CDFF504341F67132FD
S315080023C00C4BDC69DA635A6804F4803422F4401250
S315080023D059B90949884294BF0020012000050243E3
S315080023E05A600CB10022DA6310BD0449F2E700BF57
S315080023F00090005000000350005A6202002D31017F
S31508002400430905D0012B0CD0022B084B18BF00231B
S3150800241000F01F0039B103F58053012282401A608B
S315080024207047034BF4E703F50053F6E7688000505E
S31508002430648000501FB5002180280446CDE90011AC
S3150800244000F0A58035D85E2846D85E2844D8DFE84F
S3150800245000F0A24343434343434343434343434375
S31508002460434343434343434343434343434343432E
S315080024704343A2AAA2AABABABABABAAAC44DDA7188
S315080024804DAAAAAA4343434343434343AAAAAA7964
S31508002490E4AA43434343434343434343434343BA7F
S315080024A0A2A2A2DF4D4DE9885EBF43434343439949
S315080024B0A200B0F5B06F00F090802DD8B0F5207F5F
S315080024C071D00CD8B0F5C07F65D0B0F5007F65D067
S315080024D0B0F5807F00F08680009804B010BDB0F596
S315080024E0607F6BD00DD8B0F5407FF5D1FEF774FE4E
S315080024F002464FF42070FFF72DFFB2FBF0F25208A8
S315080025005AE0B0F5806F5ED0B0F5A06FE4D1002137
S315080025106846FFF7C5FDDFE7B0F5106F78D016D827
S31508002520B0F5E06F79D00AD8B0F5C06F6BD0B0F5CA
S31508002530D06FD1D100216846FFF76CFECCE7B0F525
S31508002540F06FC9D100216846FFF7E0FEC4E7B0F591
S31508002550406F3DD013D8B0F5206F63D0B0F5286F23
S31508002560BAD10021324B0391D3F8703203F003033A
S31508002570012B02D103A8FFF7C5FD039B3CE0B0F58C
S31508002580486FA9D100216846FFF712FEA4E7FEF7B7
S3150800259009FE0090A0E7FEF71FFEFAE7FEF702FE27
S315080025A00246204604E0FEF717FE02464FF4207066
S315080025B0FFF7D0FEB2FBF0F200928DE701A8FFF715
S315080025C0BDFC019AEDE700216846FFF7DBFC83E7CF
S315080025D000216846FFF70AFD7EE700216846FFF7F7
S315080025E037FD79E74FF0E02302911B695B0705D5B4
S315080025F0FEF7F2FD0290029B00936DE703A902A87D
S31508002600FFF780FDF7E700216846FFF77BFD63E7E4
S3150800261000216846FFF72AFE5EE700216846FFF7B5
S3150800262051FE59E700216846FFF790FD54E700BFC1
S315080026300080005008B58020FFF7FCFE034B984247
S315080026409EBF4FF48032024B1A6708BD005A6202D9
S3150800265000A000501FB503460020B3F5807F019007
S3150800266000F0C18064D85D2B55D84C2B07D82D2B8C
S3150800267048D8232B2CD8019805B05DF804FB4D3BB0
S31508002680102BF8D801A252F823F000BFDD27000866
S31508002690772600087726000877260008932700087B
S315080026A0772600087726000861280008B127000861
S315080026B057270008572800087726000877260008B5
S315080026C07726000877260008772600086B28000872
S315080026D0243B092BCFD801A252F823F0DD270008A6
S315080026E0DD270008DD270008DD270008DD270008AC
S315080026F077260008D32700087726000873270008DE
S31508002700132800083D2B7FD03E2BB4D1002001A909
S31508002710FFF7D8FDAFE7802BADD1594B1B6F03F000
S315080027200703013B032BA6D8DFE803F0514E858D3E
S31508002730B3F5F06F68D021D8B3F5B06F49D00FD88C
S31508002740B3F5607F00F0838095D3B3F5806F45D0ED
S31508002750B3F5A06F8FD1002001A9FFF7A1FC8AE786
S31508002760B3F5D06F55D0B3F5E06FCFD0B3F5C06FE2
S3150800277081D1002001A9FFF7C5FC7CE7B3F5206FDE
S315080027806ED00BD8B3F5086F48D0B3F5106F7FF449
S3150800279072AF002001A9FFF769FD6CE7B3F5406F3A
S315080027A059D0B3F5486F60D0B3F5286F7FF463AF9F
S315080027B0334BD3F8703203F00303012B5AD0022BA4
S315080027C00CBF1523002300E00523019353E70223DA
S315080027D0FBE7002001A9FFF73BFC4CE7002001A915
S315080027E0FFF7D0FB47E74FF0E02302901B695B0732
S315080027F005D5FEF7F1FC0D230393039BE5E703A933
S3150800280002A8FFF77FFCF8E7002001A9FFF77EFD85
S3150800281031E7002001A9FFF7FDFC2CE7184BD3F898
S31508002820003103F00303022B07D0032B09D0012B39
S315080028300BD1FEF7E7FC0323C7E7FEF73FFD0923A5
S31508002840C3E743F067FD0823BFE70123BDE701A9F6
S31508002850FFF774FB0FE7002001A9FFF7C7FB0AE79C
S31508002860002001A9FFF772FC05E7002001A9FFF780
S315080028709FFC00E7002103A8FFF744FC1123A4E707
S315080028800080005008B5FFF7E5FE092811D00A3880
S31508002890012802D94FF6FF7008BD4FF48002064B97
S315080028A05A6603F5D8335B6ADB07F3D54FF4FA703B
S315080028B0F2E7024B1888EFE7009000500618002050
S315080028C038B504468020FFF7C5FE032800F08A8045
S315080028D04FF48012544B4FF0A0615A6645F60E032A
S315080028E0524AC2F88030524B99624FF4803103F550
S315080028F080539962936DD903FCD4916D11F0804190
S31508002900FBD1D4E900031B0543EA0063E07B0343DC
S31508002910207B43EA0043607B43EA0033A07B43EA1B
S31508002920801313619069D4E904531B0643EA85634F
S3150800293000F000400343A07E0343207E43EA0043A1
S31508002940607E43EA00239361136AE06923F00F036C
S315080029500343003818BF0120E57E43EA850343EAAE
S31508002960C0031362E369334D002B3CD194F824303D
S31508002970916A94F82000DB00294043EA40130B4390
S3150800298094F8211043EA011343F4803393622A49E9
S31508002990264A936D31EA0303FBD14FF08071244830
S315080029A081621369A56823F4700343EA055313612A
S315080029B04FF00043836194F822300BB91F4B99629C
S315080029C094F823303BB94FF480321C4B9A62174A6D
S315080029D0936D5B00FCD494F825301BB1134B184A51
S315080029E0C3F8802038BD022B08D1116115489161C2
S315080029F04FF408524FF47F4143F088FD0B4994F891
S31508002A0022308A6A94F820001B062A4043EA4013BB
S31508002A10134394F8242043EAC20394F8232043EA94
S31508002A2002438B62D7E700BF009000500040005A6F
S31508002A300050005AC7FFFEFE030001000060005A5E
S31508002A40F1A7FFFF3440005A70B5194CFF28A66A53
S31508002A502BD8A36D4FF0807113F4803F18BF4FF445
S31508002A608032144B18BF9A629962134AA36992F985
S31508002A70005023F47F03054423F47F4343EA0023ED
S31508002A8085F3080543EA0543A36132460B4843F03C
S31508002A903DFDA36DDB0301D4002070BD32464FF423
S31508002AA08031064843F032FDF6E72120F5E700BFFE
S31508002AB00040005A0050005A421800202840005A88
S31508002AC0014B93F900007047421800204FF48033F9
S31508002AD011481249826A8B62836D03F00303032B44
S31508002AE0FAD14FF080730E488B620B4B996D30EA22
S31508002AF00101FBD1012009490865996D8907FCD4B4
S31508002B00054B996D8807FCD5996D8907FCD505494C
S31508002B10054843F0FBBC00BF0040005A0050005A6D
S31508002B2003000100000001012840005A4FF400018B
S31508002B301B4A437810B551664FF4D151022402F569
S31508002B40B832516217494F2B4C604FF0010428BF29
S31508002B504F2301F580514C601169C903FCD40178F3
S31508002B6043EA01235361D0E901131B0143EA012318
S31508002B70417B0B43017B43EA41039360C37B817B23
S31508002B801B0143EA4113417C0B43017C43EA4103A1
S31508002B905360837C13B16FF4D153536210BD00BFE9
S31508002BA00090005000100250014B1880704700BF7B
S31508002BB006180020014B1880704700BF0418002033
S31508002BC04FF4800208B5184B5A660223174A536019
S31508002BD0936813F48033FBD1012822D1FEF712FB48
S31508002BE0134B984215D003F5122303F5F863984260
S31508002BF013D0104B00EB8002400AB3FBF0F3520AE5
S31508002C000A49CA620B6301234B620022074B5A60CA
S31508002C1008BD45F67A13084AF2E745F61A03074A45
S31508002C20EEE75362F1E700BF009000500040025003
S31508002C3000F0490264666666D8B80500BBCF050091
S31508002C40B0F5207F10B50C465DD008D8B0F5007FEA
S31508002C504ED003D8C0B1B0F5C07F15D010BDB0F5C1
S31508002C60607FFBD12C4B4C1ED3F8FC202B4912F06D
S31508002C70807F4FEA041427D1D1F8803023F030033F
S31508002C802343C1F88030E9E743F04FFC43F05BFC8F
S31508002C904FF48031224B214A1967136F013C23F404
S31508002CA0704343EA04331367FEF796FA0446FFF7C0
S31508002CB0BFF8C0F10201204643F03FFC00F042F89D
S31508002CC0BDE81040FFF7B6BCD3F8FC2022F08072AE
S31508002CD0C3F8FC20D1F8802022F030022243C1F844
S31508002CE08020D3F8FC2042F08072C3F8FC20B5E7B8
S31508002CF00A4A4C1ED2F8903023F0F85343EA04638C
S31508002D00C2F89030AAE7054A4C1E136F23F4806375
S31508002D1043EA84231367A1E700ED00E00080005032
S31508002D200090005008B50121022000F065F943F033
S31508002D30FCFB43F008FC4FF48032014B1A6708BDD0
S31508002D400090005008B54FF4C070FFF773FBBDE85C
S31508002D5008400449884294BF012102214FF420709B
S31508002D60FFF76EBF80F0FA024FF4C02201212DE969
S31508002D70F0410746684B5A66684A03F598335C681B
S31508002D8051605D6815F00205FBD13E68FFF750F803
S31508002D90012805D1624B9E4202D90020BDE8F08188
S31508002DA0604A002311461068864202D3506886425C
S31508002DB005D90133192B02F11002F4D1002301EBD6
S31508002DC00313D3E9028028B1FFF73EF800F07F002D
S31508002DD048EA00088020FFF73DFC05287AD143F031
S31508002DE0A4FB43F0B0FB4FF480324B4B4FF4C0705A
S31508002DF01A67FFF7AFFA0128054667D102214FF493
S31508002E00C070FFF71DFF0126474BDA6812F0060F60
S31508002E10FBD19968C3F808809A6882EA080212F416
S31508002E20F81F6BD1BA88FB8843EA02433F4AD3604E
S31508002E30BB68032B50D1A2F5A032D2F8003123F09B
S31508002E40030343F00103C2F800317B7D3A7D9B0101
S31508002E5043EA82033A6913433A7B43EA4203334A15
S31508002E6093603868FEF798F9002707222B4B1A61FA
S31508002E700122A3F580535A60A3F580531C6914F008
S31508002E800704FBD08020FFF7E5FB052817D126B1FC
S31508002E9029464FF4C070FFF7D3FEFEF79DF90546A5
S31508002EA0FEF774F9FEF772F9FEF7C2FFC0F10201E8
S31508002EB0284643F042FBFFF745FFFFF7BBFB002F11
S31508002EC07FF46BAF631E5842584167E7022801D169
S31508002ED0042194E7002697E7092B07D1144AD2F86C
S31508002EE0003123F0030343F00203ACE7082BACD10F
S31508002EF00F4AD2F8003143F00303A4E714F00104A3
S31508002F00996001D00127B0E78020FFF7A3FB0528C9
S31508002F107FF443AF0127BAE70090005000E0015064
S31508002F20005A620224AC05080000015000C0015096
S31508002F3000800050034B5868C0F30800003818BFDB
S31508002F400120704700ED00E0054B420953F8223096
S31508002F5000F01F0023FA00F0C04300F0010070479C
S31508002F6000E100E0024A536B0342FCD1704700BF00
S31508002F7000400950044A4178536F23F4407343EAEA
S31508002F8001235367704700BF0040005010B50A4A36
S31508002F900446136943F00403136105F0C3FC43F0C8
S31508002FA0FDFA30BF43F0FBFA05F0F6FC1CB9BDE8A4
S31508002FB01040FEF711B910BD00ED00E010B5084A43
S31508002FC00446136943F00403136105F0ABFC30BFF4
S31508002FD005F0E2FC1CB9BDE81040FEF7FDB810BDCF
S31508002FE000ED00E0034A0179D36E23F030030B436A
S31508002FF0D366704700400050F8B504461C4BD3F81A
S315080030008420D106FBD4D3F88430C3F381139C42C1
S315080030102CD0FEF7C7F8012C064602D1214643F00C
S315080030208CFA43F0AAFA4FF00072124B07465A661A
S31508003030204643F0B7FA4FF480630D4D621E934065
S315080030402B676B6E9A0103D4D5F884309B060AD594
S31508003050384643F096FA022C08D13046BDE8F840C7
S31508003060002143F06ABAD5F88430EAE7F8BD00BF14
S31508003070004000500060005010B50C4608B9FEF735
S3150800308091F8074B21461B783BB1064B984204D86A
S315080030900120BDE81040FFF7AFBF0220F9E700BFE7
S315080030A0DAD20020005A62020278034B012100207E
S315080030B01A70FFF7E1BF00BFDAD200204FF00042D6
S315080030C038B5244B244C5A664AF6CD33656C01460E
S315080030D005F00105236428BB0120FFF743FF636859
S315080030E0DB0715D51D4B586008461D4B226BD207CA
S315080030F00CD4984208D1072415B1174B194A1A64FB
S3150800310056F05DFB204638BD0130EFE79842F2D015
S315080031100024F1E70132236B13F0080305D08A4235
S31508003120F8D1E8E700220E49F5E78A42E3D02021E4
S315080031300A4A91620121A2F5805251600649084A5D
S31508003140886A800603D49342D5D00133F8E79342C0
S31508003150DDE700BF009000500040095000600950AC
S3150800316040420F003254FFFF4FF0004238B5164B6D
S3150800317001465A664AF6CD33144C154A656C2364E3
S3150800318043780B205B0043F00103D363FFF7EAFEA5
S3150800319063688A7823F4F87343EA02136360CA788B
S315080031A04B7943EA0223A3600A798B7943EA02231F
S315080031B023610878FFF782FFEB0744BF054B2364BA
S315080031C056F0FDFA012038BD009000500040095025
S315080031D0004000503254FFFF4FF0004270B5124BCA
S315080031E004465D6E03F580535A664AF6CD330F4999
S315080031F080204E6C0B64FFF7B5FE0B6A23F00F03B5
S315080032000F2C94BF234343F00F030B62F30744BF0D
S31508003210074B0B64002DA2BF4FF00042054B5A66C0
S3150800322056F0CDFA70BD00BF00800050004009502E
S315080032303254FFFF00A000504FF0004270B5104B0B
S3150800324004465D6E03F580535A664AF6CD330D493A
S3150800325080204E6C0B64FFF785FE0B6A23F4F85347
S3150800326043EA04230B62F30744BF074B0B64002DA4
S31508003270A2BF4FF00042054B5A6656F0A0FA70BD41
S3150800328000800050004009503254FFFF00A0005053
S3150800329010B543F08CF9042300F5805100F500526F
S315080032A00B6113610B6113610B6113610B61136190
S315080032B0202341F2020103610023C3608360416158
S315080032C04FF4A0218361836541620549C3610362A6
S315080032D08362C36243630365D164036310BD00BFA1
S315080032E0FF3F0D0370B505461446084641B9354BF0
S315080032F09D4218D0344B9D4208BF5720FFF79AF8D5
S31508003300AB6813F0010F6B6830D0B0FBF4F4D80744
S3150800331004F1FF344FEA046407D42B6923F07F4392
S3150800332023432B6170BD5620E8E72821284643F041
S315080033303AF9AB6C990715D1AB6CDA0714D4AB6CB8
S3150800334013F0020F14BF06260026284643F02FF96D
S315080033502B69314623F07F4323432B61BDE8704038
S3150800336043F05CB90526F0E70926EEE7AB6DDB0707
S31508003370AB6848BF640003F0E003402B1BD004D8B9
S31508003380DBB1202BCED1082304E0602B17D0802B8D
S31508003390C8D1012363434101B1FBF3F20B4B203A39
S315080033A0284603EAC202012143F0FDF82A63BDE874
S315080033B0704043F0F8B80623ECE71023EAE7042345
S315080033C0E8E700BF0000015B00000A50F8FF7F0035
S315080033D070B5436804460D460E691BB140F6FF7189
S315080033E043F0E1F82046FFF753FF22696B7BA97B80
S315080033F022F087020B43134343F0800323611EBB6D
S31508003400A368EA7B23F00303134343F00103A36095
S3150800341063692A7B23F00F0313436361D5E901121D
S315080034202046FFF75FFF0521204643F0DAF82821FA
S3150800343043F0B9F82B78A36343F0B5F8A36CDB43E4
S3150800344013F4405FFAD170BD2A692369117F23F00E
S31508003450F80343EAC11311780B43117943EA411380
S31508003460517AD27B43EA011343EA82132361E26865
S31508003470296922F0F042D1E9053022F4702203438B
S3150800348013430A7B43EA82234A7B43EAC233E36057
S31508003490A368EA7B23F00303134343F00103A36005
S315080034A02B69A2685B8803F4C0431343A3602A69A7
S315080034B0A368527943EA8223A3602969626A8B79F1
S315080034C0C8791B01000203F0700300F4E06022F4DF
S315080034D0772222F4EE62034313430A7A120302F4B4
S315080034E0E04213434A7F120402F4702213436362D4
S315080034F063692A7B23F00F03134363612B695B8996
S31508003500A3612B695A7B4AB31A4A94420FD19B7B13
S31508003510194A03F00F0353672B69DA7B002A3FF435
S315080035207DAF1B7C144A03F00F03136776E7134A33
S3150800353094427FF473AF9B7BA2F5CE2203F00F0370
S31508003540C2F880302B69DB7B002B3FF467AF2B6911
S31508003550094A1B7C03F00F03D3675FE7DA7B002A6F
S315080035603FF45CAF034A9442DBD0044B9C42EED056
S3150800357054E700BF0000015B0090035000000A50AA
S31508003580072A2DE9F041154698464FF0030401F045
S3150800359003072DD89600B44000FA06F221461C48C7
S315080035A043F041F821461B4807FA06F243F03BF878
S315080035B0194B1A499DF81800B8F1000F18BF19469B
S315080035C0012303FA05F50D60154B1649002818BFA7
S315080035D00B461D60144B1031C3F820549DF81C008F
S315080035E003F22443002818BF0B461D60BDE8F0818E
S315080035F0A2F10806B600B44000FA06F221460B48C6
S3150800360043F011F821460A4807FA06F2CEE700BF4A
S3150800361000C4035008C4035010D4035010E40350E8
S3150800362014E4035014D4035000E0035004C40350B8
S315080036300CC403502DE9F04105460F461E46904638
S315080036404AB101233022194C8B4002FB004436B3A1
S3150800365004F5825423600F21072F05EB450388BF25
S31508003660A7F108044FEA0313114895BFBC00A4004C
S3150800367004330C3308FA04F2A140184442F0D3FF8D
S31508003680B8F1000F09D101233021084ABB4001FBDC
S3150800369005223EB102F582521360BDE8F08104F5B9
S315080036A00154D7E702F50152F6E700BF00C0035000
S315080036B030C00350F8B505460E4614465AB303F013
S315080036C00307836823F44073836042F056FFAA68B1
S315080036D082EA072303F440735340AB6042F051FF7C
S315080036E036B9B5F1B64F17D12E20FEF7A3FE06461A
S315080036F0AB680C4BDA5D62430DD0A2EBC403013B09
S315080037003344B3FBF2F3AA68013B920702D5002BB8
S3150800371008BF0123AB61F8BD034B9D42E8D12F20BA
S31508003720E3E700BFB4AD05080080065038B50023AE
S315080037300E4A036400F50053DA634A7804460D46D8
S3150800374000F108037AB903F5805302221A6020466D
S31508003750D5E901122B7BFFF7ADFF20462978BDE896
S31508003760384042F070BF03F50053EEE7FFFF1F0035
S31508003770B0F1B64F70B519D0804B984240F0FA8038
S315080037807F4B9A68C16B11F4C06F15D08E050FD5A3
S31508003790FD225A7009221A700022026493F9011058
S315080037A0012900D15A7093F9010070BD754BE8E7FD
S315080037B04D05EFD5FE22ECE71C78082C00F2D680E2
S315080037C0DFE814F009002100470055007200810067
S315080037D09F00A900CC0051881288CC060CD5120A85
S315080037E002F0060242F0F002012119704263C1603C
S315080037F01A78092AD0D064E002F0FE02890748BF89
S3150800380042F00102F0E70E0609D5802100F50052C4
S31508003810D1634FF608721A800222C260E8E74D06A5
S315080038204FD5402400F50051CC635188CC0604D509
S315080038300221197012784263DAE78E0769D50721E3
S315080038401970197902EBC1021289012A39D10822A5
S31508003850E3E70D06D9D44C0633D5402400F50051CC
S31508003860CC635188890754D5032119708AE754888F
S315080038701188E60643BF090A01F0060141F0F00186
S3150800388001F0FE01650709D51C7941F0010102EB3B
S31508003890C4021289012A04BF0822C26004221A70CF
S315080038A00122C2604163A3E70C06AED4490608D5D7
S315080038B0402400F50051CC6351884E0729D50722CC
S315080038C01A70012071E719795D8802EBC10426890F
S315080038D0AE420FD800240131C9B25C8019715488F0
S315080038E06507C1D4E60702D401297FF64BAF082243
S315080038F01A7091E76268691C5980525D4263062214
S31508003900DEE70D0681D44C06DBD5402400F50051D0
S31508003910CC630521A9E78906D3D52025197900F5B1
S31508003920005402EBC1010989466AE5635C88A14235
S31508003930DDD91D7902EBC5025268651C5D801655F6
S315080039405A888A42D3D204220129C2603FF450AF72
S315080039505A8801398A427FF44BAF78E7CA05B0D551
S315080039604FF4807100F50052D16313E74FF6093220
S315080039701A8011E76FF0030017E700BF00800650B2
S31508003980185600200C560020B0F1B64F10B407D0D8
S315080039901A4B98422ED06FF003005DF8044B70471F
S315080039A0174B0269D20744BF2022C2604A8894078F
S315080039B002D50C89002CEED0520702D50A8A002AB5
S315080039C0E9D04FF480721A60002299601A71C023F8
S315080039D0C3604369DB050FD4202200F50053DA6380
S315080039E0084ADA63036C43F4FC6303645DF8044B2A
S315080039F0FFF7BEBE044BD4E7436AEAE700800650E9
S31508003A000C560020FFFF1F001856002010B5012194
S31508003A1004462020FEF7F4FC01212120FEF7F0FCE5
S31508003A200122114B5A60227812069A606178A278B0
S31508003A3042EA01429A61FF229A6200229A631A6454
S31508003A404FF000425A654FF0FF324FF4001103F56C
S31508003A5000531A65054AC2F88011E3781B01DBB2E8
S31508003A6082F81533116010BD0000045000E100E033
S31508003A704FF48032054B9A6641F6713203F51C33D2
S31508003A80DA63012203F50053DA60704700900050AC
S31508003A9041F671320121064BDA6303F50052D16013
S31508003AA00022DA634FF48032A3F518339A6670471A
S31508003AB000000350013831289ABF024B185C0020D9
S31508003AC0704700BFB8AD0508021E30B54FF00000BC
S31508003AD00CBF1025042547F60774084952B9831DFB
S31508003AE051F82330234023B101308542F6D14FF0F7
S31508003AF0FF3030BD00F11603F2E700BF0080035027
S31508003B0038B5C2F30625044602F0070241B942EA6F
S31508003B10052242F440220634074B43F8242038BDD8
S31508003B201146284642F099FD02462846FFF7C2FF8D
S31508003B30163442EA0022EFE7008003504FF4803241
S31508003B40064B5A6603F5E6239B69C3F38512827012
S31508003B5003F03F021B0B4270037070470090005041
S31508003B6040F6B732064B5B689BB293429FBF4FF451
S31508003B707A72B3FBF2F3034AD05C88BF0020704721
S31508003B800080E00FEAAD0508014B986CD96C7047C8
S31508003B900080E00F0120034B9B680A3303F01F03E4
S31508003BA0984070470080E00F012100F5805310B55A
S31508003BB0596040F6AA6341F2050243610023094CA5
S31508003BC08360C365C26000F500520361C361C364C4
S31508003BD09464054C8365A04204BF03654365516040
S31508003BE010BD00BFFFFF010000C0055038B50D46E7
S31508003BF0FFF7DAFF012200F580535A602B8AA97B6A
S31508003C00826843F0010343EA812313438360836890
S31508003C102A7D044643EA42738360AB7C5BB1194B49
S31508003C20984202BFEA7CA3F51033C3F8C821C36DD6
S31508003C3043F08003C3652B7B204643F48053E3603F
S31508003C40D5E9011242F068FD6B7B0BB11023636165
S31508003C506B7D1BB1A36843F48033A360AB7D1BB1B6
S31508003C60A36843F40043A360EB7D2A7E1B07120575
S31508003C7003F0E04302F4E0021343A3652B78636183
S31508003C8038BD00BF00C005500123054A411100F0A8
S31508003C901F00834052F82100034342F82130704741
S31508003CA024560020044B1B681BB1044B03600020FC
S31508003CB070470120704700BF3456002060D20020AC
S31508003CC070B50D4C246884B10C4C85182688B5420D
S31508003CD00DDC6688CD18B54209DC52B14BB1A0801F
S31508003CE00020E1802281638170BD0120FCE7042069
S31508003CF0FAE70520F8E700BF3456002060D2002016
S31508003D002DE9F74F9946494B1B68002B00F08A802E
S31508003D10B9F1000718BF01274FF0010BDFF814A10E
S31508003D207F42BAF80650BAF80A300D9E2B449BB269
S31508003D300D440093FFB2ADB21EB9304603B0BDE8DC
S31508003D40F08F009AABB29A426ED9BAF80840BAF820
S31508003D500430241AB44228BF34461844344B361B60
S31508003D6080B203EB0512B9F1000F0AD0072C26D84A
S31508003D700444A04216D32846FFF786FF01350020E3
S31508003D80DAE7072C1BD80444A042F4D2C108535CD6
S31508003D9000F0070C0BFA0CFC23EA0C030130535411
S31508003DA080B2F1E7C10812F801C000F007030BFA68
S31508003DB003F343EA0C030130535480B2D9E74FEAC0
S31508003DC0D00C02EBD00810F007000BD1E2083946F8
S31508003DD04046019248F033F914F00704019ACAD014
S31508003DE0904412E00BFA00F312F80CE0DBB2591E0D
S31508003DF05B420EEA01013B4008381943044402F8C5
S31508003E000C10E20808F10108E1D10BFA04F498F85D
S31508003E100030E4B26242013C13403C40234388F838
S31508003E200030A8E7012688E7042686E734560020EE
S31508003E30DBD2002060D2002037B5114D2B68EBB9D4
S31508003E40FDF77CF8044610B1012003B030BDFDF73C
S31508003E5069F828600028F7D002884188094B20466F
S31508003E601A801A814A43598059819C80DC802146F0
S31508003E70CDE9004223462246FFF742FF0020E4E749
S31508003E803456002060D200202DE9F843002301258E
S31508003E901A461A4FDFF86C803C68DFF86490D8F849
S31508003EA00000D61841888E4207D3FBB9102200219C
S31508003EB0124848F0C4F8002012E0E10708D501339B
S31508003EC0D118C9060ABF57F8254064080135E6E740
S31508003ED053B109EB0211FCF7C9FF034610B10720DD
S31508003EE0BDE8F883721CEBE70132E9E7044901EB08
S31508003EF00211FCF7BBFF0028D8D0F0E724560020B3
S31508003F00DBD200203456002030B5054687B000B312
S31508003F1000226FF07F43C0E9012301A8FFF7C2FE24
S31508003F20044698B9019BCDE902002B601A885B8884
S31508003F30013A013B284602A90492059342F046FC41
S31508003F40044618B92846044942F0D8FD204607B069
S31508003F5030BD0524FAE700BFF0AD0508034B5A68E3
S31508003F60D20702D5DA69002AF9D1704700800A50CB
S31508003F70054B9A689107FCD45A689207F9D4DA690E
S31508003F80002AF6D1704700BF00800A5008B5FFF72F
S31508003F90E5FF0222014B1A6108BD00BF00800A50E6
S31508003FA008B5FFF7E5FF0122024B03F580514A6089
S31508003FB01A6108BD00800A5008B5044B59680129E2
S31508003FC003D1FFF7E3FF024B596008BD00800A5092
S31508003FD000A00A5010B5064CFFF7CAFF6368012B0C
S31508003FE003D1FFF7E9FFFFF7C3FF0378E36010BDCE
S31508003FF000800A50B8B94A680B7812B1127843EAB9
S31508004000C2034A7843EA42038A6812B1127843EA3D
S3150800401082138A7843EA8203CA6812B1127843EA9D
S315080040204223014A9364704700800A5008B9014B3D
S315080040305964704700900A5008B9014B5964704793
S3150800404000A00A5008B9014B1964704700A00A502D
S3150800405010B9024B186C70470020704700800A5050
S3150800406048B911B1012903D07047044BD86C704781
S31508004070024B186D70470020704700BF00800A5039
S3150800408040B911B1012903D07047034BDA64704770
S31508004090014B1A65704700BF00800A5010B9024BE1
S315080040A0586D70470020704700800A5038B504469E
S315080040B0054D55F0F1FB0FCC0FC594E8030085E8D4
S315080040C00300002038BD00BF3856002047F6FF73AE
S315080040D09A42F0B56FD002296FD8394B5B5C012B39
S315080040E06BD8384DDF0005EBC30415F83330A178DB
S315080040F0012B13D10025E078401AA84202D80844BB
S31508004100C0B2F0BD431B6668A0EB530336F91360D3
S315080041109642D4BF1D4603F1FF30EEE760680028DB
S31508004120EFD0B0F90040944204DBB0F90240944263
S31508004130B8BF144683883D44FF2B19BFC8224FF0E9
S31508004140280CB0F90620B0F908C0A2EB04030CBF8E
S315080041500126002693FBFCF333446E781BB29E427D
S3150800416001DD002B01DA731E1BB24FF47A7C013392
S315080041709BB2071D5D1E2DB24FEAC50E00EBC505A5
S31508004180EA88AD689E4214FB025222EAE27202F104
S315080041905C02B2FBFCF204DD37F83350013395427A
S315080041A0E8D200EB0E039888904228BF1046884252
S315080041B038BF0846A4E7FF20A3E70020A1E700BF11
S315080041C020B10508385600200229F0B555D82C4BE1
S315080041D0585C012851D82B4C04EBC00114F8300068
S315080041E04B6801280FD1C8788C78904294BFC4EBED
S315080041F00001C4EB0201001BCAB28242C8BF0022FA
S3150800420033F91200F0BD002B37D08878904202D3DC
S31508004210B3F90200F6E7CC78B3F900009442F1D975
S315080042204C789988013CA1F1FF06714203F1040517
S31508004230E4B2714103F10C07CEB2B44216D805EBCD
S31508004240C1014FF47A756A43B1F902404968521AB6
S3150800425004EBD47102EB610292FBF4F29042D1DBDB
S31508004260B3F902009042CDDC10B2CBE737F831C083
S315080042704E1C9445E3D33146DEE70348C2E700BF48
S3150800428020B10508385600200080FFFF0148FFF7D7
S315080042900DBF00BF24B10508004870470818002064
S315080042A0F8B505F0CDFA0128064623D905F0FCFA3B
S315080042B0041E02DA01252846F8BD224B1B78002B7E
S315080042C03DD15027204D10220021284647F0B7FE41
S315080042D005F110032846AB60EF6005F0AFFB2866D2
S315080042E080B90125012EE6D9204605F0FFFA0028F7
S315080042F0E1DADFE7134B1B7803F0FF04002BE0D06D
S315080043000025D8E7114D10220021284647F097FED0
S3150800431005F110032A4600210120C5E9023705F0F8
S3150800432057FC28660028DCD03022094B83F8412345
S3150800433002229A600122034B00251A70D2E7002553
S31508004340D2E700BFDBDA0020B45600205056002022
S3150800435000E100E008B505F073FA02280FD1094B11
S315080043604FF0FF31186E05F0B3FB002814BF01208B
S31508004370002003D14FF48062034B9A6608BD0020E3
S31508004380F8E700BFB4560020009000504FF4806252
S3150800439008B5084B9A6605F053FA022807D1064B6A
S315080043A0186E05F0C5FB003818BF012008BD0020AF
S315080043B0F9E700BF00A00050B456002008B54FF03A
S315080043C098435B6CD90208D505F03AFA02380128F9
S315080043D003D8094B186E05F089FC4FF098435A6CC0
S315080043E0D202FCD55B6D054A03F4702313600222E2
S315080043F0034BC3F8882108BD5056002060100020E2
S3150800440000E100E010B5044600283BD0FFF7A2FF04
S31508004410002838D1204642F05FF994F8203043B995
S315080044204FF098435A6CD202FCD55C6D04F47024A4
S3150800443012E04FF09844A36D43F00203A36505F01C
S31508004440FFF9022810D0A36D23F00203A3654FF4E9
S31508004450A0220D4B1C681A60FFF798FF9CB12046F6
S31508004460BDE8104042F08CBB084B4FF0FF31186E88
S3150800447005F006FCA36D23F00203A3650028E6D029
S31508004480012000E0212010BD6010002050560020B9
S315080044902DE9F0418CB08846DDE912761D460446C2
S315080044A0002847D0002945D0002F43D0002E41D000
S315080044B013F00F033ED120482049A360002A08BF05
S315080044C00146E361C4E90013404609A942F0D2FC5B
S315080044D068BB2046099942F0F6F82946204642F07C
S315080044E0F2F86946404601F0FFF800BB69462046E7
S315080044F042F0D5F8404603A942F0BBFDB8B92046BC
S3150800450003A942F0CCF806970127204645F0005546
S3150800451006A90797089542F0C2F8204609A9099600
S315080045200A970B9542F0C5F82046FFF76BFF0CB0CB
S31508004530BDE8F0812120FAE700010004000101042A
S315080045402DE9F04F97B0894690461F460546DDF897
S3150800455080A0002800F0BB80002900F0B8803AB19E
S31508004560229B002B00F0B380239B002B00F0AF802A
S31508004570BAF1000F00F0AB80219B002B00F0A7805A
S3150800458067B13C680026229B43440293464507D3FD
S3150800459007B13C60002017B0BDE8F08F3C46F1E754
S315080045A05CB1229B219A9B5D125D01345340239A8C
S315080045B004F00F0493550136E8E7A8EB060BBBF1A8
S315080045C00F0F58D9434B4846C5E90034AC60EC6137
S315080045D013A942F04FFC0028DDD1284613992BF089
S315080045E00F0B42F070F85946284642F06CF84846D8
S315080045F004A901F079F80028CDD1284604A942F08B
S315080046004EF8484607A942F034FD0028C3D128468B
S3150800461007A942F044F8012322992F4ACDF828A089
S315080046200B930C928A190D9228464BF000520AA950
S315080046300E9303920F9242F032F828460DA942F0E3
S315080046402EF8239B039A991901231091119312921C
S31508004650214A284610A9CDF84CA01493159242F089
S3150800466028F8284613A942F024F82846FFF7CAFE78
S315080046705E4400288FD1229B03EB060B239B1E4426
S31508004680029B5B4501D1464680E7ACB9219B224691
S31508004690CDE900A3494610232846FFF7F9FE00286E
S315080046A07FF479AF0AF1100212F8013D0133DBB24B
S315080046B013700BB95245F7D1219A1BF8013B125DCD
S315080046C00134534006F8013B04F00F04D8E72120D3
S315080046D061E700BF03030004100000202DE9F04F36
S315080046E097B0894615469A460446209FDDF8888085
S315080046F0DDF890B0269E002800F09D80002900F085
S315080047009A80002E40F08A80002B00F09480B8F141
S31508004710000F0AD0219B002B00F08D80002A40F064
S315080047209F80F10700F1878002E0002A40F085802B
S31508004730FB1F062B7FD8524B0BEB05029A427AD801
S315080047400023504A4846C4E90023A360E36113A93D
S3150800475042F090FB00285ED12046139941F0B3FF42
S31508004760204646EA074141F0AEFF4146204641F061
S31508004770AAFF2946204641F0A6FF484601A900F0AF
S31508004780B3FF002847D1204601A941F088FF4846D3
S3150800479004A942F06EFC00283DD14FF001092046DD
S315080047A004A941F07CFF239B45F000550793219B04
S315080047B0CDF82090204609950DA90A9347F0005791
S315080047C048F00053CDF82C900C93CDF834A0CDF8D2
S315080047D038900F9741F063FF20460AA941F05FFF22
S315080047E0204607A941F05BFF259B204610A946F005
S315080047F00056CDF840B0CDF8449012951393CDF8F5
S315080048005090159641F055FF204613A941F051FFE7
S315080048102046FFF7F7FD17B0BDE8F08F259B53B18B
S31508004820BAF1000F07D0B8F1000F01D0219B13B1E0
S31508004830B5B9022E20D12120EDE7239B002BFAD013
S31508004840BBF1000FF7D0C7F10F03DBB2032B3FF61E
S3150800485068AF0122DB0002FA03F3AB42EBD9E8E7C3
S31508004860239B002BE7D0BBF1000FE4D0C7F10F0361
S31508004870DBB2032BDDD8ECE7102E7FF652AFDAE772
S31508004880FFFF0320000005042DE9F04F99B0884684
S3150800489015469B460446229FDDF89890289E60B1EF
S315080048A059B1279B4BB1BBF1000F06D0249B0BB126
S315080048B0239B13B11DB9022E13D121239AE0259B00
S315080048C0002BFAD0B9F1000FF7D0C7F10F03DBB20E
S315080048D0032BF0D80122DB0002FA03F3AB42ECD932
S315080048E0E9E7731E0F2BE8D816F0010AE5D1FB1F7E
S315080048F0062BE2D8414B09EB05029A42DDD8404B1C
S315080049004046C4E9003AC4F808A0C4F81CA015A992
S3150800491042F0B0FA034600286CD12046159941F0BA
S31508004920D2FE204646EA074141F0CDFE20462499AC
S3150800493041F0C9FE2946204641F0C5FE404603A976
S3150800494000F0D2FE0346002854D1204603A941F0C0
S31508004950A6FE404606A942F08CFB0346002849D12C
S315080049604FF00108204606A941F099FE259B2046EE
S31508004970099345F00053CDF8288001930B93239BA8
S315080049800FA90C93249B47F0005743F00052CDF82B
S3150800499034800E92CDF83CB0CDF84080119741F0A6
S315080049A07EFE20460CA941F07AFE204609A941F070
S315080049B076FE019B204612A9CDF84890CDF84C808A
S315080049C0149341F076FE279B204615A946F000561B
S315080049D01593CDF85880179641F061FE2046FFF7EB
S315080049E011FD034630B101902A465146484647F024
S315080049F026FB019B184619B0BDE8F08FFFFF032080
S31508004A00000006042DE9F0418CB0884616461D467E
S31508004A100446129F00284BD0002949D0002A47D0C7
S31508004A20002F45D00B68103B102B41D8214A22FA9B
S31508004A3003F3D9073CD500231F4A8360C0E9002346
S31508004A40C36109A9404642F015FA70BB2046099988
S31508004A5041F039FE2946204641F035FE6946404672
S31508004A6000F042FE08BB6946204641F018FE404663
S31508004A7003A942F0FEFAC0B9204603A941F00FFE89
S31508004A8006960126204606A945F00055079608957C
S31508004A9041F005FE094B204609A909970A960B938A
S31508004AA041F007FE2046FFF7ADFC0CB0BDE8F081EB
S31508004AB02120FAE70101010000000404100000208B
S31508004AC0F0B50C4617461E46054695B0002874D024
S31508004AD0002972D0002A70D0002B6ED0036B0F2BE2
S31508004AE05BD80023364A3846C4E90023A360E3614D
S31508004AF011A942F0BFF900285BD12046119941F06F
S31508004B00E2FD296B20460F2984BF01F00F01103101
S31508004B1041F0D9FD384602A900F0E6FD002848D143
S31508004B20204602A941F0BBFD384605A942F0A1FA84
S31508004B3000283ED1204605A941F0B1FD0122214BAE
S31508004B40089509920A932B6B05F1100003F00F01E3
S31508004B5041F000510B900F2B0C920D910E900F9275
S31508004B6043F00052109226D90A9B08A923F0005355
S31508004B7020460A9341F093FD0BA9204641F08FFD8C
S31508004B800123119612930F4B204611A9139341F056
S31508004B9090FD2046FFF736FC0BE000F1200301905C
S31508004BA000930122102339462046FFF771FC00289E
S31508004BB097D015B0F0BD0EA9DFE72120F9E700BFB1
S31508004BC000000404100000202DE9F04F9BB00C46AD
S31508004BD090461F460546DDF89090002800F0B28002
S31508004BE0002900F0AF80002A00F0AC80002B00F00E
S31508004BF0A980026B02EB09031B09B3EB121F02F033
S31508004C000F0600F0978000234F4A8B60C1E9002306
S31508004C10CB61404617A942F02DF90346002840F01B
S31508004C20858006EB090B204617992BF00F0A41F0F1
S31508004C304AFD5146204641F046FD404602A900F08D
S31508004C4053FD0346002871D1204602A941F027FDED
S31508004C50404605A942F00DFA0346002866D14FF0F2
S31508004C600108019005A9204641F019FD374A20465A
S31508004C7008A90895CDF824800A9241F010FD46F05F
S31508004C800051AAEB060605F1100346F000560B93F1
S31508004C90CDF830800D910E97CDF83C8010960D9981
S31508004CA0204621F000510D910BA9009341F0F7FC25
S31508004CB020460EA941F0F3FC019B244A1193AAF160
S31508004CC0100343F00053CDF84880139305F12003F1
S31508004CD01493CDF854801692139B204643F08043D4
S31508004CE01393139B11A923F00053139341F0E1FC8E
S31508004CF0204614A941F0DDFC144A17A92046179549
S31508004D00CDF86080199241F0D4FC2046FFF77AFB73
S31508004D10AAEB0B0149440190ABEB0A02009839440F
S31508004D2047F098F9019B2A6B4A442A6318461BB038
S31508004D30BDE8F08F10304A463946304447F08AF9C4
S31508004D400023F0E72123F1E7030200041000002006
S31508004D502DE9F0438DB08946DDE914681F460446FF
S31508004D60002850D000294ED0002B4CD0B8F1000FA7
S31508004D7049D0531EDBB2042B45D82449CD5C169B7B
S31508004D809D4240D8224B09A903EB02230360002366
S31508004D90C0E90133C361484642F06CF880BB20463F
S31508004DA0099941F090FC3146204641F08CFC694651
S31508004DB0484600F099FC18BB6946204641F06FFC4E
S31508004DC0484603A942F055F9D0B9204603A941F04F
S31508004DD066FC06970127204606A946F0005607975F
S31508004DE045F00055089641F05AFC204609A9CDF829
S31508004DF024800A970B9541F05CFC2046FFF702FBDE
S31508004E000DB0BDE8F0832120FAE700BFA4C5050868
S31508004E10000102032DE9F04F9BB00D46DDE9296A32
S31508004E2090461F460446DDF89C90002800F0248131
S31508004E30002900F02181249B002B00F01D812B9B6B
S31508004E40002B00F01981B9F1000F03D0269B002B27
S31508004E5000F0128137B1289B002B00F00D81002E3F
S31508004E6000F00A81AAF104030C2B00F20581259BA8
S31508004E700C2B40F001812B68103B102B00F2FC80B4
S31508004E807F4A22FA03F3D90740F1F680B8F1010FF9
S31508004E907CD17C4B284643EA0A232360002316A9C3
S31508004EA0C4E90133E36141F0E5FF8346002840F099
S31508004EB0DF802046169941F006FC4946204641F017
S31508004EC002FC3946204641F0FEFB284604A900F0BC
S31508004ED00BFC8346002840F0CB80204604A941F00D
S31508004EE0DEFB284607A942F0C4F88346002840F0AE
S31508004EF0BF80204607A941F0D2FB249B20460A938F
S31508004F00614B0AA9CDF82C800C9341F0C8FB269B6F
S31508004F1020460D930DA949F00053CDF838800F931C
S31508004F2041F0BDFB289B204647F0005B10A9109373
S31508004F30CDF84480CDF848B041F0B1FB2B9B204614
S31508004F40139313A94AF00053CDF85080159341F0F6
S31508004F50A6FB1696CDF85C80CDF860B01EB9189BF6
S31508004F6043F080431893204616A941F0A2FB204639
S31508004F70FFF748FA834638B12C2805D03A4600216F
S31508004F80304647F05CF873E02896002600233F4A2F
S31508004F900DF1580841462846C4E90023A360E36199
S31508004FA041F068FF8346002862D12046169941F0F1
S31508004FB08AFB4946204641F086FB3946204641F0A1
S31508004FC082FB284601A900F08FFB834600284FD1B3
S31508004FD0204601A941F063FB284604A942F049F896
S31508004FE08346002844D10125204604A941F057FBF1
S31508004FF0249B20460793244B07A90895099341F05B
S315080050004EFB269B20460A930AA949F000530B95A6
S315080050100C9341F044FB289B47F0005920460DA904
S315080050200D930E95CDF83C9041F039FB10961195ED
S31508005030CDF848901EB9129B43F080431293204640
S3150800504010A941F036FB0123CDF84C801493104B80
S31508005050204613A9159341F02CFB2046FFF7D2F9F9
S31508005060834600288AD1524641462B9846F0F2FFDD
S3150800507058461BB0BDE8F08F4FF0210BF8E700BF8C
S3150800508001010100000003040C00002000000204D6
S31508005090100000202DE9F04F97B00D46DDE9249762
S315080050A016469A460446DDF88880002800F0A38054
S315080050B0002900F0A080002B00F09D80269B002B85
S315080050C000F09980B8F1000F03D0219B002B00F067
S315080050D092803EB1239B002B00F08D80B9F1000F22
S315080050E000F089803B1F0C2B00F28580209B0C2B3F
S315080050F040F081802B68103B102B7CD83F4A22FA5F
S3150800510003F3DB0777D53E4B284643EA072323609C
S31508005110002313A9C4E90133E36141F0ABFE8346DA
S31508005120002864D12046139941F0CDFA414620461D
S3150800513041F0C9FA3146204641F0C5FA284601A988
S3150800514000F0D2FA8346002851D1204601A941F041
S31508005150A6FA284604A941F08CFF8346002846D1C2
S315080051600125204604A941F09AFA264B204607A9AC
S31508005170CDF81CA00895099341F091FA219B204689
S315080051800A930AA948F000530B950C9341F087FA45
S31508005190239B204646F000580DA90D930E95CDF891
S315080051A03C8041F07CFA269B204647F0005710A920
S315080051B010931195129741F072FACDF84C90149508
S315080051C0CDF85480B9F1000F03D1159B43F0804305
S315080051D01593204613A941F06CFA2046FFF712F9F9
S315080051E0834620B132460021484646F028FF5846F5
S315080051F017B0BDE8F08F4FF0210BF8E70101010069
S31508005200000003040C0000202DE9FF474FF00008BA
S315080052100E4617460446CDF80080002859D022B914
S315080052200025284604B0BDE8F087002951D032F0A1
S31508005230030902F0030A1FD04FF0E063C0E9003803
S3150800524001230191C0F808800293C0F81C8049F038
S31508005250005301A9039341F02CFA4946204641F030
S3150800526032FA2046FFF7CEF8054628B14A464146A7
S31508005270304646F0E4FED4E7BAF1000FD0D04FF03E
S3150800528000084FF0E063C4E900380123CDF804D0E4
S315080052900293114B204601A9C4F80880C4F81C8063
S315080052A0039341F006FA0421204641F00CFA204601
S315080052B0FFF7A8F8054608B13A46D8E7009A4E44DB
S315080052C0EB00013522FA03F3AA4506F8013BF7D1AC
S315080052D0A6E72125A5E700BF040000202DE9F04137
S315080052E00F4601780446013990468AB0042947D802
S315080052F0DFE801F00332373C4100402514262149F6
S315080053000C3400225D43C7E90122FA613846396048
S31508005310294641F0D8F90123384646F0005604A933
S3150800532045F00055CDF8048002930395049405933F
S31508005330069607940893099641F0B1F9384601A9EB
S3150800534041F0ADF9384607A941F0B3F93846FFF7F9
S3150800535059F80AB0BDE8F081402520260A490C34E0
S31508005360CFE74025202609490C34CAE78025402680
S3150800537007491434C5E78025402606491434C0E792
S315080053802120E6E7000201030003010300040103EC
S31508005390000501030006010338B5054661B158B199
S315080053A000242022C0E9014404490C3046F052FE8C
S315080053B0032320462B7038BD2120FCE7EEC50508DF
S315080053C038B5054671B168B100244022C0E90144E8
S315080053D0C0E903440449143046F03CFE0523204640
S315080053E02B7038BD2120FCE7AEC505082DE9F04F26
S315080053F00D46904604468BB000287DD000297BD008
S31508005400002A79D00278013A042A75D8DFE802F032
S31508005410030C58606B001427394A00F10C0B00F195
S31508005420040A2C34B94608E020274FF01C09354AEF
S3150800543000F10C0B00F1040A2C34402199455BD885
S315080054400AF104030AEBD10653F8040B002855D1D8
S31508005450B342F9D1DAF80030013901EA0306C5E9A1
S3150800546000203146A860E861284641F02CF9284614
S31508005470DAF8001041F027F9012249F000532846CE
S3150800548001A947F0005746F00056CDF804B002923D
S315080054900397049405920696CDF81C800892099302
S315080054A041F0FDF8284604A941F0F9F8284607A96D
S315080054B041F0FFF82846FEF7A5FF0BB0BDE8F08FD0
S315080054C02027114A00F10C0B00F1040A2C34A9E735
S315080054D040274FF030090D4A00F1140B00F1040A79
S315080054E054348021AAE74027094AB94600F1140B2B
